{
	"contracts/metacraft/Events.sol": {
		"Events": {
			"abi": [
				{
					"anonymous": false,
					"inputs": [
						{
							"indexed": true,
							"internalType": "address",
							"name": "sender",
							"type": "address"
						},
						{
							"indexed": false,
							"internalType": "string",
							"name": "message",
							"type": "string"
						}
					],
					"name": "AddressLog",
					"type": "event"
				},
				{
					"anonymous": false,
					"inputs": [
						{
							"indexed": true,
							"internalType": "address",
							"name": "_from",
							"type": "address"
						},
						{
							"indexed": false,
							"internalType": "uint256",
							"name": "_value",
							"type": "uint256"
						},
						{
							"indexed": false,
							"internalType": "string",
							"name": "message",
							"type": "string"
						}
					],
					"name": "DepositAmount",
					"type": "event"
				},
				{
					"anonymous": false,
					"inputs": [
						{
							"indexed": true,
							"internalType": "address",
							"name": "owner",
							"type": "address"
						},
						{
							"indexed": false,
							"internalType": "uint256",
							"name": "oldValue",
							"type": "uint256"
						},
						{
							"indexed": false,
							"internalType": "uint256",
							"name": "newValue",
							"type": "uint256"
						},
						{
							"indexed": false,
							"internalType": "string",
							"name": "message",
							"type": "string"
						}
					],
					"name": "ValueIncrease",
					"type": "event"
				},
				{
					"inputs": [],
					"name": "addAmount",
					"outputs": [],
					"stateMutability": "nonpayable",
					"type": "function"
				},
				{
					"inputs": [],
					"name": "checkEvents",
					"outputs": [],
					"stateMutability": "payable",
					"type": "function"
				},
				{
					"inputs": [],
					"name": "x",
					"outputs": [
						{
							"internalType": "uint256",
							"name": "",
							"type": "uint256"
						}
					],
					"stateMutability": "view",
					"type": "function"
				}
			],
			"devdoc": {
				"kind": "dev",
				"methods": {},
				"version": 1
			},
			"evm": {
				"assembly": "    /* \"contracts/metacraft/Events.sol\":226:824  contract Events {... */\n  mstore(0x40, 0x80)\n    /* \"contracts/metacraft/Events.sol\":263:264  0 */\n  0x00\n    /* \"contracts/metacraft/Events.sol\":247:264  uint public x = 0 */\n  dup1\n  sstore\n    /* \"contracts/metacraft/Events.sol\":226:824  contract Events {... */\n  callvalue\n  dup1\n  iszero\n  tag_1\n  jumpi\n  0x00\n  dup1\n  revert\ntag_1:\n  pop\n  dataSize(sub_0)\n  dup1\n  dataOffset(sub_0)\n  0x00\n  codecopy\n  0x00\n  return\nstop\n\nsub_0: assembly {\n        /* \"contracts/metacraft/Events.sol\":226:824  contract Events {... */\n      mstore(0x40, 0x80)\n      jumpi(tag_1, lt(calldatasize, 0x04))\n      shr(0xe0, calldataload(0x00))\n      dup1\n      0x077acb4b\n      eq\n      tag_2\n      jumpi\n      dup1\n      0x0c55699c\n      eq\n      tag_3\n      jumpi\n      dup1\n      0xb9c14577\n      eq\n      tag_4\n      jumpi\n    tag_1:\n      0x00\n      dup1\n      revert\n        /* \"contracts/metacraft/Events.sol\":500:669  function checkEvents() public payable {... */\n    tag_2:\n      tag_5\n      tag_6\n      jump\t// in\n    tag_5:\n      stop\n        /* \"contracts/metacraft/Events.sol\":247:264  uint public x = 0 */\n    tag_3:\n      callvalue\n      dup1\n      iszero\n      tag_7\n      jumpi\n      0x00\n      dup1\n      revert\n    tag_7:\n      pop\n      tag_8\n      tag_9\n      jump\t// in\n    tag_8:\n      mload(0x40)\n      tag_10\n      swap2\n      swap1\n      tag_11\n      jump\t// in\n    tag_10:\n      mload(0x40)\n      dup1\n      swap2\n      sub\n      swap1\n      return\n        /* \"contracts/metacraft/Events.sol\":675:822  function addAmount() public {... */\n    tag_4:\n      callvalue\n      dup1\n      iszero\n      tag_12\n      jumpi\n      0x00\n      dup1\n      revert\n    tag_12:\n      pop\n      tag_13\n      tag_14\n      jump\t// in\n    tag_13:\n      stop\n        /* \"contracts/metacraft/Events.sol\":500:669  function checkEvents() public payable {... */\n    tag_6:\n        /* \"contracts/metacraft/Events.sol\":560:570  msg.sender */\n      caller\n        /* \"contracts/metacraft/Events.sol\":549:594  AddressLog(msg.sender, \"Log message emitted\") */\n      0xffffffffffffffffffffffffffffffffffffffff\n      and\n      0x97fc48920efeb30e188b2c367a66b2fa860f4b0cc454f425946932b85e4ff28e\n      mload(0x40)\n      tag_16\n      swap1\n      tag_17\n      jump\t// in\n    tag_16:\n      mload(0x40)\n      dup1\n      swap2\n      sub\n      swap1\n      log2\n        /* \"contracts/metacraft/Events.sol\":619:629  msg.sender */\n      caller\n        /* \"contracts/metacraft/Events.sol\":605:663  DepositAmount(msg.sender, msg.value, \"Deposit successful\") */\n      0xffffffffffffffffffffffffffffffffffffffff\n      and\n      0xfd409c1ea844c8929227e6edeb4f3f17be26b709853ef9fa614b10d849f277b5\n        /* \"contracts/metacraft/Events.sol\":631:640  msg.value */\n      callvalue\n        /* \"contracts/metacraft/Events.sol\":605:663  DepositAmount(msg.sender, msg.value, \"Deposit successful\") */\n      mload(0x40)\n      tag_18\n      swap2\n      swap1\n      tag_19\n      jump\t// in\n    tag_18:\n      mload(0x40)\n      dup1\n      swap2\n      sub\n      swap1\n      log2\n        /* \"contracts/metacraft/Events.sol\":500:669  function checkEvents() public payable {... */\n      jump\t// out\n        /* \"contracts/metacraft/Events.sol\":247:264  uint public x = 0 */\n    tag_9:\n      sload(0x00)\n      dup2\n      jump\t// out\n        /* \"contracts/metacraft/Events.sol\":675:822  function addAmount() public {... */\n    tag_14:\n        /* \"contracts/metacraft/Events.sol\":713:726  uint oldValue */\n      0x00\n        /* \"contracts/metacraft/Events.sol\":729:730  x */\n      dup1\n      sload\n        /* \"contracts/metacraft/Events.sol\":713:730  uint oldValue = x */\n      swap1\n      pop\n        /* \"contracts/metacraft/Events.sol\":740:741  x */\n      0x00\n      dup1\n        /* \"contracts/metacraft/Events.sol\":740:743  x++ */\n      dup2\n      sload\n      dup1\n      swap3\n      swap2\n      swap1\n      tag_21\n      swap1\n      tag_22\n      jump\t// in\n    tag_21:\n      swap2\n      swap1\n      pop\n      sstore\n      pop\n        /* \"contracts/metacraft/Events.sol\":772:782  msg.sender */\n      caller\n        /* \"contracts/metacraft/Events.sol\":758:815  ValueIncrease(msg.sender, oldValue, x, \"Value increased\") */\n      0xffffffffffffffffffffffffffffffffffffffff\n      and\n      0x7382f96090c3cf34137c76567f5c575a43d271861d69e42113dcea525303c9ac\n        /* \"contracts/metacraft/Events.sol\":784:792  oldValue */\n      dup3\n        /* \"contracts/metacraft/Events.sol\":794:795  x */\n      sload(0x00)\n        /* \"contracts/metacraft/Events.sol\":758:815  ValueIncrease(msg.sender, oldValue, x, \"Value increased\") */\n      mload(0x40)\n      tag_23\n      swap3\n      swap2\n      swap1\n      tag_24\n      jump\t// in\n    tag_23:\n      mload(0x40)\n      dup1\n      swap2\n      sub\n      swap1\n      log2\n        /* \"contracts/metacraft/Events.sol\":703:822  {... */\n      pop\n        /* \"contracts/metacraft/Events.sol\":675:822  function addAmount() public {... */\n      jump\t// out\n        /* \"#utility.yul\":7:84   */\n    tag_25:\n        /* \"#utility.yul\":44:51   */\n      0x00\n        /* \"#utility.yul\":73:78   */\n      dup2\n        /* \"#utility.yul\":62:78   */\n      swap1\n      pop\n        /* \"#utility.yul\":7:84   */\n      swap2\n      swap1\n      pop\n      jump\t// out\n        /* \"#utility.yul\":90:208   */\n    tag_26:\n        /* \"#utility.yul\":177:201   */\n      tag_38\n        /* \"#utility.yul\":195:200   */\n      dup2\n        /* \"#utility.yul\":177:201   */\n      tag_25\n      jump\t// in\n    tag_38:\n        /* \"#utility.yul\":172:175   */\n      dup3\n        /* \"#utility.yul\":165:202   */\n      mstore\n        /* \"#utility.yul\":90:208   */\n      pop\n      pop\n      jump\t// out\n        /* \"#utility.yul\":214:436   */\n    tag_11:\n        /* \"#utility.yul\":307:311   */\n      0x00\n        /* \"#utility.yul\":345:347   */\n      0x20\n        /* \"#utility.yul\":334:343   */\n      dup3\n        /* \"#utility.yul\":330:348   */\n      add\n        /* \"#utility.yul\":322:348   */\n      swap1\n      pop\n        /* \"#utility.yul\":358:429   */\n      tag_40\n        /* \"#utility.yul\":426:427   */\n      0x00\n        /* \"#utility.yul\":415:424   */\n      dup4\n        /* \"#utility.yul\":411:428   */\n      add\n        /* \"#utility.yul\":402:408   */\n      dup5\n        /* \"#utility.yul\":358:429   */\n      tag_26\n      jump\t// in\n    tag_40:\n        /* \"#utility.yul\":214:436   */\n      swap3\n      swap2\n      pop\n      pop\n      jump\t// out\n        /* \"#utility.yul\":442:611   */\n    tag_27:\n        /* \"#utility.yul\":526:537   */\n      0x00\n        /* \"#utility.yul\":560:566   */\n      dup3\n        /* \"#utility.yul\":555:558   */\n      dup3\n        /* \"#utility.yul\":548:567   */\n      mstore\n        /* \"#utility.yul\":600:604   */\n      0x20\n        /* \"#utility.yul\":595:598   */\n      dup3\n        /* \"#utility.yul\":591:605   */\n      add\n        /* \"#utility.yul\":576:605   */\n      swap1\n      pop\n        /* \"#utility.yul\":442:611   */\n      swap3\n      swap2\n      pop\n      pop\n      jump\t// out\n        /* \"#utility.yul\":617:786   */\n    tag_28:\n        /* \"#utility.yul\":757:778   */\n      0x4c6f67206d65737361676520656d697474656400000000000000000000000000\n        /* \"#utility.yul\":753:754   */\n      0x00\n        /* \"#utility.yul\":745:751   */\n      dup3\n        /* \"#utility.yul\":741:755   */\n      add\n        /* \"#utility.yul\":734:779   */\n      mstore\n        /* \"#utility.yul\":617:786   */\n      pop\n      jump\t// out\n        /* \"#utility.yul\":792:1158   */\n    tag_29:\n        /* \"#utility.yul\":934:937   */\n      0x00\n        /* \"#utility.yul\":955:1022   */\n      tag_44\n        /* \"#utility.yul\":1019:1021   */\n      0x13\n        /* \"#utility.yul\":1014:1017   */\n      dup4\n        /* \"#utility.yul\":955:1022   */\n      tag_27\n      jump\t// in\n    tag_44:\n        /* \"#utility.yul\":948:1022   */\n      swap2\n      pop\n        /* \"#utility.yul\":1031:1124   */\n      tag_45\n        /* \"#utility.yul\":1120:1123   */\n      dup3\n        /* \"#utility.yul\":1031:1124   */\n      tag_28\n      jump\t// in\n    tag_45:\n        /* \"#utility.yul\":1149:1151   */\n      0x20\n        /* \"#utility.yul\":1144:1147   */\n      dup3\n        /* \"#utility.yul\":1140:1152   */\n      add\n        /* \"#utility.yul\":1133:1152   */\n      swap1\n      pop\n        /* \"#utility.yul\":792:1158   */\n      swap2\n      swap1\n      pop\n      jump\t// out\n        /* \"#utility.yul\":1164:1583   */\n    tag_17:\n        /* \"#utility.yul\":1330:1334   */\n      0x00\n        /* \"#utility.yul\":1368:1370   */\n      0x20\n        /* \"#utility.yul\":1357:1366   */\n      dup3\n        /* \"#utility.yul\":1353:1371   */\n      add\n        /* \"#utility.yul\":1345:1371   */\n      swap1\n      pop\n        /* \"#utility.yul\":1417:1426   */\n      dup2\n        /* \"#utility.yul\":1411:1415   */\n      dup2\n        /* \"#utility.yul\":1407:1427   */\n      sub\n        /* \"#utility.yul\":1403:1404   */\n      0x00\n        /* \"#utility.yul\":1392:1401   */\n      dup4\n        /* \"#utility.yul\":1388:1405   */\n      add\n        /* \"#utility.yul\":1381:1428   */\n      mstore\n        /* \"#utility.yul\":1445:1576   */\n      tag_47\n        /* \"#utility.yul\":1571:1575   */\n      dup2\n        /* \"#utility.yul\":1445:1576   */\n      tag_29\n      jump\t// in\n    tag_47:\n        /* \"#utility.yul\":1437:1576   */\n      swap1\n      pop\n        /* \"#utility.yul\":1164:1583   */\n      swap2\n      swap1\n      pop\n      jump\t// out\n        /* \"#utility.yul\":1589:1757   */\n    tag_30:\n        /* \"#utility.yul\":1729:1749   */\n      0x4465706f736974207375636365737366756c0000000000000000000000000000\n        /* \"#utility.yul\":1725:1726   */\n      0x00\n        /* \"#utility.yul\":1717:1723   */\n      dup3\n        /* \"#utility.yul\":1713:1727   */\n      add\n        /* \"#utility.yul\":1706:1750   */\n      mstore\n        /* \"#utility.yul\":1589:1757   */\n      pop\n      jump\t// out\n        /* \"#utility.yul\":1763:2129   */\n    tag_31:\n        /* \"#utility.yul\":1905:1908   */\n      0x00\n        /* \"#utility.yul\":1926:1993   */\n      tag_50\n        /* \"#utility.yul\":1990:1992   */\n      0x12\n        /* \"#utility.yul\":1985:1988   */\n      dup4\n        /* \"#utility.yul\":1926:1993   */\n      tag_27\n      jump\t// in\n    tag_50:\n        /* \"#utility.yul\":1919:1993   */\n      swap2\n      pop\n        /* \"#utility.yul\":2002:2095   */\n      tag_51\n        /* \"#utility.yul\":2091:2094   */\n      dup3\n        /* \"#utility.yul\":2002:2095   */\n      tag_30\n      jump\t// in\n    tag_51:\n        /* \"#utility.yul\":2120:2122   */\n      0x20\n        /* \"#utility.yul\":2115:2118   */\n      dup3\n        /* \"#utility.yul\":2111:2123   */\n      add\n        /* \"#utility.yul\":2104:2123   */\n      swap1\n      pop\n        /* \"#utility.yul\":1763:2129   */\n      swap2\n      swap1\n      pop\n      jump\t// out\n        /* \"#utility.yul\":2135:2664   */\n    tag_19:\n        /* \"#utility.yul\":2329:2333   */\n      0x00\n        /* \"#utility.yul\":2367:2369   */\n      0x40\n        /* \"#utility.yul\":2356:2365   */\n      dup3\n        /* \"#utility.yul\":2352:2370   */\n      add\n        /* \"#utility.yul\":2344:2370   */\n      swap1\n      pop\n        /* \"#utility.yul\":2380:2451   */\n      tag_53\n        /* \"#utility.yul\":2448:2449   */\n      0x00\n        /* \"#utility.yul\":2437:2446   */\n      dup4\n        /* \"#utility.yul\":2433:2450   */\n      add\n        /* \"#utility.yul\":2424:2430   */\n      dup5\n        /* \"#utility.yul\":2380:2451   */\n      tag_26\n      jump\t// in\n    tag_53:\n        /* \"#utility.yul\":2498:2507   */\n      dup2\n        /* \"#utility.yul\":2492:2496   */\n      dup2\n        /* \"#utility.yul\":2488:2508   */\n      sub\n        /* \"#utility.yul\":2483:2485   */\n      0x20\n        /* \"#utility.yul\":2472:2481   */\n      dup4\n        /* \"#utility.yul\":2468:2486   */\n      add\n        /* \"#utility.yul\":2461:2509   */\n      mstore\n        /* \"#utility.yul\":2526:2657   */\n      tag_54\n        /* \"#utility.yul\":2652:2656   */\n      dup2\n        /* \"#utility.yul\":2526:2657   */\n      tag_31\n      jump\t// in\n    tag_54:\n        /* \"#utility.yul\":2518:2657   */\n      swap1\n      pop\n        /* \"#utility.yul\":2135:2664   */\n      swap3\n      swap2\n      pop\n      pop\n      jump\t// out\n        /* \"#utility.yul\":2670:2850   */\n    tag_32:\n        /* \"#utility.yul\":2718:2795   */\n      0x4e487b7100000000000000000000000000000000000000000000000000000000\n        /* \"#utility.yul\":2715:2716   */\n      0x00\n        /* \"#utility.yul\":2708:2796   */\n      mstore\n        /* \"#utility.yul\":2815:2819   */\n      0x11\n        /* \"#utility.yul\":2812:2813   */\n      0x04\n        /* \"#utility.yul\":2805:2820   */\n      mstore\n        /* \"#utility.yul\":2839:2843   */\n      0x24\n        /* \"#utility.yul\":2836:2837   */\n      0x00\n        /* \"#utility.yul\":2829:2844   */\n      revert\n        /* \"#utility.yul\":2856:3089   */\n    tag_22:\n        /* \"#utility.yul\":2895:2898   */\n      0x00\n        /* \"#utility.yul\":2918:2942   */\n      tag_57\n        /* \"#utility.yul\":2936:2941   */\n      dup3\n        /* \"#utility.yul\":2918:2942   */\n      tag_25\n      jump\t// in\n    tag_57:\n        /* \"#utility.yul\":2909:2942   */\n      swap2\n      pop\n        /* \"#utility.yul\":2964:3030   */\n      0xffffffffffffffffffffffffffffffffffffffffffffffffffffffffffffffff\n        /* \"#utility.yul\":2957:2962   */\n      dup3\n        /* \"#utility.yul\":2954:3031   */\n      sub\n        /* \"#utility.yul\":2951:3054   */\n      tag_58\n      jumpi\n        /* \"#utility.yul\":3034:3052   */\n      tag_59\n      tag_32\n      jump\t// in\n    tag_59:\n        /* \"#utility.yul\":2951:3054   */\n    tag_58:\n        /* \"#utility.yul\":3081:3082   */\n      0x01\n        /* \"#utility.yul\":3074:3079   */\n      dup3\n        /* \"#utility.yul\":3070:3083   */\n      add\n        /* \"#utility.yul\":3063:3083   */\n      swap1\n      pop\n        /* \"#utility.yul\":2856:3089   */\n      swap2\n      swap1\n      pop\n      jump\t// out\n        /* \"#utility.yul\":3095:3260   */\n    tag_33:\n        /* \"#utility.yul\":3235:3252   */\n      0x56616c756520696e637265617365640000000000000000000000000000000000\n        /* \"#utility.yul\":3231:3232   */\n      0x00\n        /* \"#utility.yul\":3223:3229   */\n      dup3\n        /* \"#utility.yul\":3219:3233   */\n      add\n        /* \"#utility.yul\":3212:3253   */\n      mstore\n        /* \"#utility.yul\":3095:3260   */\n      pop\n      jump\t// out\n        /* \"#utility.yul\":3266:3632   */\n    tag_34:\n        /* \"#utility.yul\":3408:3411   */\n      0x00\n        /* \"#utility.yul\":3429:3496   */\n      tag_62\n        /* \"#utility.yul\":3493:3495   */\n      0x0f\n        /* \"#utility.yul\":3488:3491   */\n      dup4\n        /* \"#utility.yul\":3429:3496   */\n      tag_27\n      jump\t// in\n    tag_62:\n        /* \"#utility.yul\":3422:3496   */\n      swap2\n      pop\n        /* \"#utility.yul\":3505:3598   */\n      tag_63\n        /* \"#utility.yul\":3594:3597   */\n      dup3\n        /* \"#utility.yul\":3505:3598   */\n      tag_33\n      jump\t// in\n    tag_63:\n        /* \"#utility.yul\":3623:3625   */\n      0x20\n        /* \"#utility.yul\":3618:3621   */\n      dup3\n        /* \"#utility.yul\":3614:3626   */\n      add\n        /* \"#utility.yul\":3607:3626   */\n      swap1\n      pop\n        /* \"#utility.yul\":3266:3632   */\n      swap2\n      swap1\n      pop\n      jump\t// out\n        /* \"#utility.yul\":3638:4277   */\n    tag_24:\n        /* \"#utility.yul\":3860:3864   */\n      0x00\n        /* \"#utility.yul\":3898:3900   */\n      0x60\n        /* \"#utility.yul\":3887:3896   */\n      dup3\n        /* \"#utility.yul\":3883:3901   */\n      add\n        /* \"#utility.yul\":3875:3901   */\n      swap1\n      pop\n        /* \"#utility.yul\":3911:3982   */\n      tag_65\n        /* \"#utility.yul\":3979:3980   */\n      0x00\n        /* \"#utility.yul\":3968:3977   */\n      dup4\n        /* \"#utility.yul\":3964:3981   */\n      add\n        /* \"#utility.yul\":3955:3961   */\n      dup6\n        /* \"#utility.yul\":3911:3982   */\n      tag_26\n      jump\t// in\n    tag_65:\n        /* \"#utility.yul\":3992:4064   */\n      tag_66\n        /* \"#utility.yul\":4060:4062   */\n      0x20\n        /* \"#utility.yul\":4049:4058   */\n      dup4\n        /* \"#utility.yul\":4045:4063   */\n      add\n        /* \"#utility.yul\":4036:4042   */\n      dup5\n        /* \"#utility.yul\":3992:4064   */\n      tag_26\n      jump\t// in\n    tag_66:\n        /* \"#utility.yul\":4111:4120   */\n      dup2\n        /* \"#utility.yul\":4105:4109   */\n      dup2\n        /* \"#utility.yul\":4101:4121   */\n      sub\n        /* \"#utility.yul\":4096:4098   */\n      0x40\n        /* \"#utility.yul\":4085:4094   */\n      dup4\n        /* \"#utility.yul\":4081:4099   */\n      add\n        /* \"#utility.yul\":4074:4122   */\n      mstore\n        /* \"#utility.yul\":4139:4270   */\n      tag_67\n        /* \"#utility.yul\":4265:4269   */\n      dup2\n        /* \"#utility.yul\":4139:4270   */\n      tag_34\n      jump\t// in\n    tag_67:\n        /* \"#utility.yul\":4131:4270   */\n      swap1\n      pop\n        /* \"#utility.yul\":3638:4277   */\n      swap4\n      swap3\n      pop\n      pop\n      pop\n      jump\t// out\n\n    auxdata: 0xa2646970667358221220cf76baac9031f77b7450b33c35f1a21af8e67675f6eaa5c0fd0b320952ce0f8d64736f6c63430008180033\n}\n",
				"bytecode": {
					"linkReferences": {},
					"object": "60806040525f8055348015610012575f80fd5b506103de806100205f395ff3fe608060405260043610610033575f3560e01c8063077acb4b146100375780630c55699c14610041578063b9c145771461006b575b5f80fd5b61003f610081565b005b34801561004c575f80fd5b5061005561011d565b60405161006291906101a9565b60405180910390f35b348015610076575f80fd5b5061007f610122565b005b3373ffffffffffffffffffffffffffffffffffffffff167f97fc48920efeb30e188b2c367a66b2fa860f4b0cc454f425946932b85e4ff28e6040516100c59061021c565b60405180910390a23373ffffffffffffffffffffffffffffffffffffffff167ffd409c1ea844c8929227e6edeb4f3f17be26b709853ef9fa614b10d849f277b5346040516101139190610284565b60405180910390a2565b5f5481565b5f805490505f80815480929190610138906102dd565b91905055503373ffffffffffffffffffffffffffffffffffffffff167f7382f96090c3cf34137c76567f5c575a43d271861d69e42113dcea525303c9ac825f5460405161018692919061036e565b60405180910390a250565b5f819050919050565b6101a381610191565b82525050565b5f6020820190506101bc5f83018461019a565b92915050565b5f82825260208201905092915050565b7f4c6f67206d65737361676520656d6974746564000000000000000000000000005f82015250565b5f6102066013836101c2565b9150610211826101d2565b602082019050919050565b5f6020820190508181035f830152610233816101fa565b9050919050565b7f4465706f736974207375636365737366756c00000000000000000000000000005f82015250565b5f61026e6012836101c2565b91506102798261023a565b602082019050919050565b5f6040820190506102975f83018461019a565b81810360208301526102a881610262565b905092915050565b7f4e487b71000000000000000000000000000000000000000000000000000000005f52601160045260245ffd5b5f6102e782610191565b91507fffffffffffffffffffffffffffffffffffffffffffffffffffffffffffffffff8203610319576103186102b0565b5b600182019050919050565b7f56616c756520696e6372656173656400000000000000000000000000000000005f82015250565b5f610358600f836101c2565b915061036382610324565b602082019050919050565b5f6060820190506103815f83018561019a565b61038e602083018461019a565b818103604083015261039f8161034c565b9050939250505056fea2646970667358221220cf76baac9031f77b7450b33c35f1a21af8e67675f6eaa5c0fd0b320952ce0f8d64736f6c63430008180033",
					"opcodes": "PUSH1 0x80 PUSH1 0x40 MSTORE PUSH0 DUP1 SSTORE CALLVALUE DUP1 ISZERO PUSH2 0x12 JUMPI PUSH0 DUP1 REVERT JUMPDEST POP PUSH2 0x3DE DUP1 PUSH2 0x20 PUSH0 CODECOPY PUSH0 RETURN INVALID PUSH1 0x80 PUSH1 0x40 MSTORE PUSH1 0x4 CALLDATASIZE LT PUSH2 0x33 JUMPI PUSH0 CALLDATALOAD PUSH1 0xE0 SHR DUP1 PUSH4 0x77ACB4B EQ PUSH2 0x37 JUMPI DUP1 PUSH4 0xC55699C EQ PUSH2 0x41 JUMPI DUP1 PUSH4 0xB9C14577 EQ PUSH2 0x6B JUMPI JUMPDEST PUSH0 DUP1 REVERT JUMPDEST PUSH2 0x3F PUSH2 0x81 JUMP JUMPDEST STOP JUMPDEST CALLVALUE DUP1 ISZERO PUSH2 0x4C JUMPI PUSH0 DUP1 REVERT JUMPDEST POP PUSH2 0x55 PUSH2 0x11D JUMP JUMPDEST PUSH1 0x40 MLOAD PUSH2 0x62 SWAP2 SWAP1 PUSH2 0x1A9 JUMP JUMPDEST PUSH1 0x40 MLOAD DUP1 SWAP2 SUB SWAP1 RETURN JUMPDEST CALLVALUE DUP1 ISZERO PUSH2 0x76 JUMPI PUSH0 DUP1 REVERT JUMPDEST POP PUSH2 0x7F PUSH2 0x122 JUMP JUMPDEST STOP JUMPDEST CALLER PUSH20 0xFFFFFFFFFFFFFFFFFFFFFFFFFFFFFFFFFFFFFFFF AND PUSH32 0x97FC48920EFEB30E188B2C367A66B2FA860F4B0CC454F425946932B85E4FF28E PUSH1 0x40 MLOAD PUSH2 0xC5 SWAP1 PUSH2 0x21C JUMP JUMPDEST PUSH1 0x40 MLOAD DUP1 SWAP2 SUB SWAP1 LOG2 CALLER PUSH20 0xFFFFFFFFFFFFFFFFFFFFFFFFFFFFFFFFFFFFFFFF AND PUSH32 0xFD409C1EA844C8929227E6EDEB4F3F17BE26B709853EF9FA614B10D849F277B5 CALLVALUE PUSH1 0x40 MLOAD PUSH2 0x113 SWAP2 SWAP1 PUSH2 0x284 JUMP JUMPDEST PUSH1 0x40 MLOAD DUP1 SWAP2 SUB SWAP1 LOG2 JUMP JUMPDEST PUSH0 SLOAD DUP2 JUMP JUMPDEST PUSH0 DUP1 SLOAD SWAP1 POP PUSH0 DUP1 DUP2 SLOAD DUP1 SWAP3 SWAP2 SWAP1 PUSH2 0x138 SWAP1 PUSH2 0x2DD JUMP JUMPDEST SWAP2 SWAP1 POP SSTORE POP CALLER PUSH20 0xFFFFFFFFFFFFFFFFFFFFFFFFFFFFFFFFFFFFFFFF AND PUSH32 0x7382F96090C3CF34137C76567F5C575A43D271861D69E42113DCEA525303C9AC DUP3 PUSH0 SLOAD PUSH1 0x40 MLOAD PUSH2 0x186 SWAP3 SWAP2 SWAP1 PUSH2 0x36E JUMP JUMPDEST PUSH1 0x40 MLOAD DUP1 SWAP2 SUB SWAP1 LOG2 POP JUMP JUMPDEST PUSH0 DUP2 SWAP1 POP SWAP2 SWAP1 POP JUMP JUMPDEST PUSH2 0x1A3 DUP2 PUSH2 0x191 JUMP JUMPDEST DUP3 MSTORE POP POP JUMP JUMPDEST PUSH0 PUSH1 0x20 DUP3 ADD SWAP1 POP PUSH2 0x1BC PUSH0 DUP4 ADD DUP5 PUSH2 0x19A JUMP JUMPDEST SWAP3 SWAP2 POP POP JUMP JUMPDEST PUSH0 DUP3 DUP3 MSTORE PUSH1 0x20 DUP3 ADD SWAP1 POP SWAP3 SWAP2 POP POP JUMP JUMPDEST PUSH32 0x4C6F67206D65737361676520656D697474656400000000000000000000000000 PUSH0 DUP3 ADD MSTORE POP JUMP JUMPDEST PUSH0 PUSH2 0x206 PUSH1 0x13 DUP4 PUSH2 0x1C2 JUMP JUMPDEST SWAP2 POP PUSH2 0x211 DUP3 PUSH2 0x1D2 JUMP JUMPDEST PUSH1 0x20 DUP3 ADD SWAP1 POP SWAP2 SWAP1 POP JUMP JUMPDEST PUSH0 PUSH1 0x20 DUP3 ADD SWAP1 POP DUP2 DUP2 SUB PUSH0 DUP4 ADD MSTORE PUSH2 0x233 DUP2 PUSH2 0x1FA JUMP JUMPDEST SWAP1 POP SWAP2 SWAP1 POP JUMP JUMPDEST PUSH32 0x4465706F736974207375636365737366756C0000000000000000000000000000 PUSH0 DUP3 ADD MSTORE POP JUMP JUMPDEST PUSH0 PUSH2 0x26E PUSH1 0x12 DUP4 PUSH2 0x1C2 JUMP JUMPDEST SWAP2 POP PUSH2 0x279 DUP3 PUSH2 0x23A JUMP JUMPDEST PUSH1 0x20 DUP3 ADD SWAP1 POP SWAP2 SWAP1 POP JUMP JUMPDEST PUSH0 PUSH1 0x40 DUP3 ADD SWAP1 POP PUSH2 0x297 PUSH0 DUP4 ADD DUP5 PUSH2 0x19A JUMP JUMPDEST DUP2 DUP2 SUB PUSH1 0x20 DUP4 ADD MSTORE PUSH2 0x2A8 DUP2 PUSH2 0x262 JUMP JUMPDEST SWAP1 POP SWAP3 SWAP2 POP POP JUMP JUMPDEST PUSH32 0x4E487B7100000000000000000000000000000000000000000000000000000000 PUSH0 MSTORE PUSH1 0x11 PUSH1 0x4 MSTORE PUSH1 0x24 PUSH0 REVERT JUMPDEST PUSH0 PUSH2 0x2E7 DUP3 PUSH2 0x191 JUMP JUMPDEST SWAP2 POP PUSH32 0xFFFFFFFFFFFFFFFFFFFFFFFFFFFFFFFFFFFFFFFFFFFFFFFFFFFFFFFFFFFFFFFF DUP3 SUB PUSH2 0x319 JUMPI PUSH2 0x318 PUSH2 0x2B0 JUMP JUMPDEST JUMPDEST PUSH1 0x1 DUP3 ADD SWAP1 POP SWAP2 SWAP1 POP JUMP JUMPDEST PUSH32 0x56616C756520696E637265617365640000000000000000000000000000000000 PUSH0 DUP3 ADD MSTORE POP JUMP JUMPDEST PUSH0 PUSH2 0x358 PUSH1 0xF DUP4 PUSH2 0x1C2 JUMP JUMPDEST SWAP2 POP PUSH2 0x363 DUP3 PUSH2 0x324 JUMP JUMPDEST PUSH1 0x20 DUP3 ADD SWAP1 POP SWAP2 SWAP1 POP JUMP JUMPDEST PUSH0 PUSH1 0x60 DUP3 ADD SWAP1 POP PUSH2 0x381 PUSH0 DUP4 ADD DUP6 PUSH2 0x19A JUMP JUMPDEST PUSH2 0x38E PUSH1 0x20 DUP4 ADD DUP5 PUSH2 0x19A JUMP JUMPDEST DUP2 DUP2 SUB PUSH1 0x40 DUP4 ADD MSTORE PUSH2 0x39F DUP2 PUSH2 0x34C JUMP JUMPDEST SWAP1 POP SWAP4 SWAP3 POP POP POP JUMP INVALID LOG2 PUSH5 0x6970667358 0x22 SLT KECCAK256 0xCF PUSH23 0xBAAC9031F77B7450B33C35F1A21AF8E67675F6EAA5C0FD SIGNEXTEND ORIGIN MULMOD MSTORE 0xCE 0xF DUP14 PUSH5 0x736F6C6343 STOP ADDMOD XOR STOP CALLER "
				},
				"gasEstimates": {
					"creation": {
						"codeDepositCost": "198000",
						"executionCost": "5241",
						"totalCost": "203241"
					},
					"external": {
						"addAmount()": "infinite",
						"checkEvents()": "infinite",
						"x()": "2424"
					}
				},
				"methodIdentifiers": {
					"addAmount()": "b9c14577",
					"checkEvents()": "077acb4b",
					"x()": "0c55699c"
				}
			},
			"storageLayout": {
				"storage": [
					{
						"astId": 4,
						"contract": "contracts/metacraft/Events.sol:Events",
						"label": "x",
						"offset": 0,
						"slot": "0",
						"type": "t_uint256"
					}
				],
				"types": {
					"t_uint256": {
						"encoding": "inplace",
						"label": "uint256",
						"numberOfBytes": "32"
					}
				}
			},
			"userdoc": {
				"kind": "user",
				"methods": {},
				"version": 1
			}
		}
	}
}