{
	"contracts/metacraft/Errorhandling.sol": {
		"StudentRegister": {
			"abi": [
				{
					"inputs": [
						{
							"internalType": "string",
							"name": "_name",
							"type": "string"
						},
						{
							"internalType": "uint8",
							"name": "_age",
							"type": "uint8"
						}
					],
					"name": "registerStudent",
					"outputs": [],
					"stateMutability": "nonpayable",
					"type": "function"
				}
			],
			"devdoc": {
				"kind": "dev",
				"methods": {},
				"version": 1
			},
			"evm": {
				"assembly": "    /* \"contracts/metacraft/Errorhandling.sol\":66:589  contract StudentRegister{    ... */\n  mstore(0x40, 0x80)\n  callvalue\n  dup1\n  iszero\n  tag_1\n  jumpi\n  0x00\n  dup1\n  revert\ntag_1:\n  pop\n  dataSize(sub_0)\n  dup1\n  dataOffset(sub_0)\n  0x00\n  codecopy\n  0x00\n  return\nstop\n\nsub_0: assembly {\n        /* \"contracts/metacraft/Errorhandling.sol\":66:589  contract StudentRegister{    ... */\n      mstore(0x40, 0x80)\n      callvalue\n      dup1\n      iszero\n      tag_1\n      jumpi\n      0x00\n      dup1\n      revert\n    tag_1:\n      pop\n      jumpi(tag_2, lt(calldatasize, 0x04))\n      shr(0xe0, calldataload(0x00))\n      dup1\n      0x73203ef1\n      eq\n      tag_3\n      jumpi\n    tag_2:\n      0x00\n      dup1\n      revert\n        /* \"contracts/metacraft/Errorhandling.sol\":249:586  function registerStudent(string memory _name, uint8 _age)  public {... */\n    tag_3:\n      tag_4\n      0x04\n      dup1\n      calldatasize\n      sub\n      dup2\n      add\n      swap1\n      tag_5\n      swap2\n      swap1\n      tag_6\n      jump\t// in\n    tag_5:\n      tag_7\n      jump\t// in\n    tag_4:\n      stop\n    tag_7:\n        /* \"contracts/metacraft/Errorhandling.sol\":341:343  18 */\n      0x12\n        /* \"contracts/metacraft/Errorhandling.sol\":334:338  _age */\n      dup2\n        /* \"contracts/metacraft/Errorhandling.sol\":334:343  _age > 18 */\n      0xff\n      and\n      gt\n        /* \"contracts/metacraft/Errorhandling.sol\":325:392  require (_age > 18 ,\"sorry you have to be an adult to be an adult\") */\n      tag_9\n      jumpi\n      mload(0x40)\n      0x08c379a000000000000000000000000000000000000000000000000000000000\n      dup2\n      mstore\n      0x04\n      add\n      tag_10\n      swap1\n      tag_11\n      jump\t// in\n    tag_10:\n      mload(0x40)\n      dup1\n      swap2\n      sub\n      swap1\n      revert\n    tag_9:\n        /* \"contracts/metacraft/Errorhandling.sol\":418:419  0 */\n      0x00\n        /* \"contracts/metacraft/Errorhandling.sol\":410:414  _age */\n      dup2\n        /* \"contracts/metacraft/Errorhandling.sol\":410:419  _age != 0 */\n      0xff\n      and\n      sub\n        /* \"contracts/metacraft/Errorhandling.sol\":402:420  assert (_age != 0) */\n      tag_12\n      jumpi\n      tag_13\n      tag_14\n      jump\t// in\n    tag_13:\n    tag_12:\n        /* \"contracts/metacraft/Errorhandling.sol\":441:443  35 */\n      0x23\n        /* \"contracts/metacraft/Errorhandling.sol\":434:438  _age */\n      dup2\n        /* \"contracts/metacraft/Errorhandling.sol\":434:443  _age > 35 */\n      0xff\n      and\n      gt\n        /* \"contracts/metacraft/Errorhandling.sol\":430:527  if( _age > 35 ) {... */\n      iszero\n      tag_15\n      jumpi\n        /* \"contracts/metacraft/Errorhandling.sol\":460:516  revert (\"sorry, we only take applicants below 35 years\") */\n      mload(0x40)\n      0x08c379a000000000000000000000000000000000000000000000000000000000\n      dup2\n      mstore\n      0x04\n      add\n      tag_16\n      swap1\n      tag_17\n      jump\t// in\n    tag_16:\n      mload(0x40)\n      dup1\n      swap2\n      sub\n      swap1\n      revert\n        /* \"contracts/metacraft/Errorhandling.sol\":430:527  if( _age > 35 ) {... */\n    tag_15:\n        /* \"contracts/metacraft/Errorhandling.sol\":558:579  Students(_name, _age) */\n      mload(0x40)\n      dup1\n      0x40\n      add\n      0x40\n      mstore\n      dup1\n        /* \"contracts/metacraft/Errorhandling.sol\":567:572  _name */\n      dup4\n        /* \"contracts/metacraft/Errorhandling.sol\":558:579  Students(_name, _age) */\n      dup2\n      mstore\n      0x20\n      add\n        /* \"contracts/metacraft/Errorhandling.sol\":574:578  _age */\n      dup3\n        /* \"contracts/metacraft/Errorhandling.sol\":558:579  Students(_name, _age) */\n      0xff\n      and\n      dup2\n      mstore\n      pop\n        /* \"contracts/metacraft/Errorhandling.sol\":536:543  details */\n      0x00\n        /* \"contracts/metacraft/Errorhandling.sol\":536:555  details[msg.sender] */\n      dup1\n        /* \"contracts/metacraft/Errorhandling.sol\":544:554  msg.sender */\n      caller\n        /* \"contracts/metacraft/Errorhandling.sol\":536:555  details[msg.sender] */\n      0xffffffffffffffffffffffffffffffffffffffff\n      and\n      0xffffffffffffffffffffffffffffffffffffffff\n      and\n      dup2\n      mstore\n      0x20\n      add\n      swap1\n      dup2\n      mstore\n      0x20\n      add\n      0x00\n      keccak256\n        /* \"contracts/metacraft/Errorhandling.sol\":536:579  details[msg.sender] = Students(_name, _age) */\n      0x00\n      dup3\n      add\n      mload\n      dup2\n      0x00\n      add\n      swap1\n      dup2\n      tag_18\n      swap2\n      swap1\n      tag_19\n      jump\t// in\n    tag_18:\n      pop\n      0x20\n      dup3\n      add\n      mload\n      dup2\n      0x01\n      add\n      exp(0x0100, 0x00)\n      dup2\n      sload\n      dup2\n      0xff\n      mul\n      not\n      and\n      swap1\n      dup4\n      0xff\n      and\n      mul\n      or\n      swap1\n      sstore\n      pop\n      swap1\n      pop\n      pop\n        /* \"contracts/metacraft/Errorhandling.sol\":249:586  function registerStudent(string memory _name, uint8 _age)  public {... */\n      pop\n      pop\n      jump\t// out\n        /* \"#utility.yul\":7:82   */\n    tag_20:\n        /* \"#utility.yul\":40:46   */\n      0x00\n        /* \"#utility.yul\":73:75   */\n      0x40\n        /* \"#utility.yul\":67:76   */\n      mload\n        /* \"#utility.yul\":57:76   */\n      swap1\n      pop\n        /* \"#utility.yul\":7:82   */\n      swap1\n      jump\t// out\n        /* \"#utility.yul\":88:205   */\n    tag_21:\n        /* \"#utility.yul\":197:198   */\n      0x00\n        /* \"#utility.yul\":194:195   */\n      dup1\n        /* \"#utility.yul\":187:199   */\n      revert\n        /* \"#utility.yul\":211:328   */\n    tag_22:\n        /* \"#utility.yul\":320:321   */\n      0x00\n        /* \"#utility.yul\":317:318   */\n      dup1\n        /* \"#utility.yul\":310:322   */\n      revert\n        /* \"#utility.yul\":334:451   */\n    tag_23:\n        /* \"#utility.yul\":443:444   */\n      0x00\n        /* \"#utility.yul\":440:441   */\n      dup1\n        /* \"#utility.yul\":433:445   */\n      revert\n        /* \"#utility.yul\":457:574   */\n    tag_24:\n        /* \"#utility.yul\":566:567   */\n      0x00\n        /* \"#utility.yul\":563:564   */\n      dup1\n        /* \"#utility.yul\":556:568   */\n      revert\n        /* \"#utility.yul\":580:682   */\n    tag_25:\n        /* \"#utility.yul\":621:627   */\n      0x00\n        /* \"#utility.yul\":672:674   */\n      0x1f\n        /* \"#utility.yul\":668:675   */\n      not\n        /* \"#utility.yul\":663:665   */\n      0x1f\n        /* \"#utility.yul\":656:661   */\n      dup4\n        /* \"#utility.yul\":652:666   */\n      add\n        /* \"#utility.yul\":648:676   */\n      and\n        /* \"#utility.yul\":638:676   */\n      swap1\n      pop\n        /* \"#utility.yul\":580:682   */\n      swap2\n      swap1\n      pop\n      jump\t// out\n        /* \"#utility.yul\":688:868   */\n    tag_26:\n        /* \"#utility.yul\":736:813   */\n      0x4e487b7100000000000000000000000000000000000000000000000000000000\n        /* \"#utility.yul\":733:734   */\n      0x00\n        /* \"#utility.yul\":726:814   */\n      mstore\n        /* \"#utility.yul\":833:837   */\n      0x41\n        /* \"#utility.yul\":830:831   */\n      0x04\n        /* \"#utility.yul\":823:838   */\n      mstore\n        /* \"#utility.yul\":857:861   */\n      0x24\n        /* \"#utility.yul\":854:855   */\n      0x00\n        /* \"#utility.yul\":847:862   */\n      revert\n        /* \"#utility.yul\":874:1155   */\n    tag_27:\n        /* \"#utility.yul\":957:984   */\n      tag_69\n        /* \"#utility.yul\":979:983   */\n      dup3\n        /* \"#utility.yul\":957:984   */\n      tag_25\n      jump\t// in\n    tag_69:\n        /* \"#utility.yul\":949:955   */\n      dup2\n        /* \"#utility.yul\":945:985   */\n      add\n        /* \"#utility.yul\":1087:1093   */\n      dup2\n        /* \"#utility.yul\":1075:1085   */\n      dup2\n        /* \"#utility.yul\":1072:1094   */\n      lt\n        /* \"#utility.yul\":1051:1069   */\n      0xffffffffffffffff\n        /* \"#utility.yul\":1039:1049   */\n      dup3\n        /* \"#utility.yul\":1036:1070   */\n      gt\n        /* \"#utility.yul\":1033:1095   */\n      or\n        /* \"#utility.yul\":1030:1118   */\n      iszero\n      tag_70\n      jumpi\n        /* \"#utility.yul\":1098:1116   */\n      tag_71\n      tag_26\n      jump\t// in\n    tag_71:\n        /* \"#utility.yul\":1030:1118   */\n    tag_70:\n        /* \"#utility.yul\":1138:1148   */\n      dup1\n        /* \"#utility.yul\":1134:1136   */\n      0x40\n        /* \"#utility.yul\":1127:1149   */\n      mstore\n        /* \"#utility.yul\":917:1155   */\n      pop\n        /* \"#utility.yul\":874:1155   */\n      pop\n      pop\n      jump\t// out\n        /* \"#utility.yul\":1161:1290   */\n    tag_28:\n        /* \"#utility.yul\":1195:1201   */\n      0x00\n        /* \"#utility.yul\":1222:1242   */\n      tag_73\n      tag_20\n      jump\t// in\n    tag_73:\n        /* \"#utility.yul\":1212:1242   */\n      swap1\n      pop\n        /* \"#utility.yul\":1251:1284   */\n      tag_74\n        /* \"#utility.yul\":1279:1283   */\n      dup3\n        /* \"#utility.yul\":1271:1277   */\n      dup3\n        /* \"#utility.yul\":1251:1284   */\n      tag_27\n      jump\t// in\n    tag_74:\n        /* \"#utility.yul\":1161:1290   */\n      swap2\n      swap1\n      pop\n      jump\t// out\n        /* \"#utility.yul\":1296:1604   */\n    tag_29:\n        /* \"#utility.yul\":1358:1362   */\n      0x00\n        /* \"#utility.yul\":1448:1466   */\n      0xffffffffffffffff\n        /* \"#utility.yul\":1440:1446   */\n      dup3\n        /* \"#utility.yul\":1437:1467   */\n      gt\n        /* \"#utility.yul\":1434:1490   */\n      iszero\n      tag_76\n      jumpi\n        /* \"#utility.yul\":1470:1488   */\n      tag_77\n      tag_26\n      jump\t// in\n    tag_77:\n        /* \"#utility.yul\":1434:1490   */\n    tag_76:\n        /* \"#utility.yul\":1508:1537   */\n      tag_78\n        /* \"#utility.yul\":1530:1536   */\n      dup3\n        /* \"#utility.yul\":1508:1537   */\n      tag_25\n      jump\t// in\n    tag_78:\n        /* \"#utility.yul\":1500:1537   */\n      swap1\n      pop\n        /* \"#utility.yul\":1592:1596   */\n      0x20\n        /* \"#utility.yul\":1586:1590   */\n      dup2\n        /* \"#utility.yul\":1582:1597   */\n      add\n        /* \"#utility.yul\":1574:1597   */\n      swap1\n      pop\n        /* \"#utility.yul\":1296:1604   */\n      swap2\n      swap1\n      pop\n      jump\t// out\n        /* \"#utility.yul\":1610:1756   */\n    tag_30:\n        /* \"#utility.yul\":1707:1713   */\n      dup3\n        /* \"#utility.yul\":1702:1705   */\n      dup2\n        /* \"#utility.yul\":1697:1700   */\n      dup4\n        /* \"#utility.yul\":1684:1714   */\n      calldatacopy\n        /* \"#utility.yul\":1748:1749   */\n      0x00\n        /* \"#utility.yul\":1739:1745   */\n      dup4\n        /* \"#utility.yul\":1734:1737   */\n      dup4\n        /* \"#utility.yul\":1730:1746   */\n      add\n        /* \"#utility.yul\":1723:1750   */\n      mstore\n        /* \"#utility.yul\":1610:1756   */\n      pop\n      pop\n      pop\n      jump\t// out\n        /* \"#utility.yul\":1762:2187   */\n    tag_31:\n        /* \"#utility.yul\":1840:1845   */\n      0x00\n        /* \"#utility.yul\":1865:1931   */\n      tag_81\n        /* \"#utility.yul\":1881:1930   */\n      tag_82\n        /* \"#utility.yul\":1923:1929   */\n      dup5\n        /* \"#utility.yul\":1881:1930   */\n      tag_29\n      jump\t// in\n    tag_82:\n        /* \"#utility.yul\":1865:1931   */\n      tag_28\n      jump\t// in\n    tag_81:\n        /* \"#utility.yul\":1856:1931   */\n      swap1\n      pop\n        /* \"#utility.yul\":1954:1960   */\n      dup3\n        /* \"#utility.yul\":1947:1952   */\n      dup2\n        /* \"#utility.yul\":1940:1961   */\n      mstore\n        /* \"#utility.yul\":1992:1996   */\n      0x20\n        /* \"#utility.yul\":1985:1990   */\n      dup2\n        /* \"#utility.yul\":1981:1997   */\n      add\n        /* \"#utility.yul\":2030:2033   */\n      dup5\n        /* \"#utility.yul\":2021:2027   */\n      dup5\n        /* \"#utility.yul\":2016:2019   */\n      dup5\n        /* \"#utility.yul\":2012:2028   */\n      add\n        /* \"#utility.yul\":2009:2034   */\n      gt\n        /* \"#utility.yul\":2006:2118   */\n      iszero\n      tag_83\n      jumpi\n        /* \"#utility.yul\":2037:2116   */\n      tag_84\n      tag_24\n      jump\t// in\n    tag_84:\n        /* \"#utility.yul\":2006:2118   */\n    tag_83:\n        /* \"#utility.yul\":2127:2181   */\n      tag_85\n        /* \"#utility.yul\":2174:2180   */\n      dup5\n        /* \"#utility.yul\":2169:2172   */\n      dup3\n        /* \"#utility.yul\":2164:2167   */\n      dup6\n        /* \"#utility.yul\":2127:2181   */\n      tag_30\n      jump\t// in\n    tag_85:\n        /* \"#utility.yul\":1846:2187   */\n      pop\n        /* \"#utility.yul\":1762:2187   */\n      swap4\n      swap3\n      pop\n      pop\n      pop\n      jump\t// out\n        /* \"#utility.yul\":2207:2547   */\n    tag_32:\n        /* \"#utility.yul\":2263:2268   */\n      0x00\n        /* \"#utility.yul\":2312:2315   */\n      dup3\n        /* \"#utility.yul\":2305:2309   */\n      0x1f\n        /* \"#utility.yul\":2297:2303   */\n      dup4\n        /* \"#utility.yul\":2293:2310   */\n      add\n        /* \"#utility.yul\":2289:2316   */\n      slt\n        /* \"#utility.yul\":2279:2401   */\n      tag_87\n      jumpi\n        /* \"#utility.yul\":2320:2399   */\n      tag_88\n      tag_23\n      jump\t// in\n    tag_88:\n        /* \"#utility.yul\":2279:2401   */\n    tag_87:\n        /* \"#utility.yul\":2437:2443   */\n      dup2\n        /* \"#utility.yul\":2424:2444   */\n      calldataload\n        /* \"#utility.yul\":2462:2541   */\n      tag_89\n        /* \"#utility.yul\":2537:2540   */\n      dup5\n        /* \"#utility.yul\":2529:2535   */\n      dup3\n        /* \"#utility.yul\":2522:2526   */\n      0x20\n        /* \"#utility.yul\":2514:2520   */\n      dup7\n        /* \"#utility.yul\":2510:2527   */\n      add\n        /* \"#utility.yul\":2462:2541   */\n      tag_31\n      jump\t// in\n    tag_89:\n        /* \"#utility.yul\":2453:2541   */\n      swap2\n      pop\n        /* \"#utility.yul\":2269:2547   */\n      pop\n        /* \"#utility.yul\":2207:2547   */\n      swap3\n      swap2\n      pop\n      pop\n      jump\t// out\n        /* \"#utility.yul\":2553:2639   */\n    tag_33:\n        /* \"#utility.yul\":2588:2595   */\n      0x00\n        /* \"#utility.yul\":2628:2632   */\n      0xff\n        /* \"#utility.yul\":2621:2626   */\n      dup3\n        /* \"#utility.yul\":2617:2633   */\n      and\n        /* \"#utility.yul\":2606:2633   */\n      swap1\n      pop\n        /* \"#utility.yul\":2553:2639   */\n      swap2\n      swap1\n      pop\n      jump\t// out\n        /* \"#utility.yul\":2645:2763   */\n    tag_34:\n        /* \"#utility.yul\":2716:2738   */\n      tag_92\n        /* \"#utility.yul\":2732:2737   */\n      dup2\n        /* \"#utility.yul\":2716:2738   */\n      tag_33\n      jump\t// in\n    tag_92:\n        /* \"#utility.yul\":2709:2714   */\n      dup2\n        /* \"#utility.yul\":2706:2739   */\n      eq\n        /* \"#utility.yul\":2696:2757   */\n      tag_93\n      jumpi\n        /* \"#utility.yul\":2753:2754   */\n      0x00\n        /* \"#utility.yul\":2750:2751   */\n      dup1\n        /* \"#utility.yul\":2743:2755   */\n      revert\n        /* \"#utility.yul\":2696:2757   */\n    tag_93:\n        /* \"#utility.yul\":2645:2763   */\n      pop\n      jump\t// out\n        /* \"#utility.yul\":2769:2904   */\n    tag_35:\n        /* \"#utility.yul\":2813:2818   */\n      0x00\n        /* \"#utility.yul\":2851:2857   */\n      dup2\n        /* \"#utility.yul\":2838:2858   */\n      calldataload\n        /* \"#utility.yul\":2829:2858   */\n      swap1\n      pop\n        /* \"#utility.yul\":2867:2898   */\n      tag_95\n        /* \"#utility.yul\":2892:2897   */\n      dup2\n        /* \"#utility.yul\":2867:2898   */\n      tag_34\n      jump\t// in\n    tag_95:\n        /* \"#utility.yul\":2769:2904   */\n      swap3\n      swap2\n      pop\n      pop\n      jump\t// out\n        /* \"#utility.yul\":2910:3560   */\n    tag_6:\n        /* \"#utility.yul\":2986:2992   */\n      0x00\n        /* \"#utility.yul\":2994:3000   */\n      dup1\n        /* \"#utility.yul\":3043:3045   */\n      0x40\n        /* \"#utility.yul\":3031:3040   */\n      dup4\n        /* \"#utility.yul\":3022:3029   */\n      dup6\n        /* \"#utility.yul\":3018:3041   */\n      sub\n        /* \"#utility.yul\":3014:3046   */\n      slt\n        /* \"#utility.yul\":3011:3130   */\n      iszero\n      tag_97\n      jumpi\n        /* \"#utility.yul\":3049:3128   */\n      tag_98\n      tag_21\n      jump\t// in\n    tag_98:\n        /* \"#utility.yul\":3011:3130   */\n    tag_97:\n        /* \"#utility.yul\":3197:3198   */\n      0x00\n        /* \"#utility.yul\":3186:3195   */\n      dup4\n        /* \"#utility.yul\":3182:3199   */\n      add\n        /* \"#utility.yul\":3169:3200   */\n      calldataload\n        /* \"#utility.yul\":3227:3245   */\n      0xffffffffffffffff\n        /* \"#utility.yul\":3219:3225   */\n      dup2\n        /* \"#utility.yul\":3216:3246   */\n      gt\n        /* \"#utility.yul\":3213:3330   */\n      iszero\n      tag_99\n      jumpi\n        /* \"#utility.yul\":3249:3328   */\n      tag_100\n      tag_22\n      jump\t// in\n    tag_100:\n        /* \"#utility.yul\":3213:3330   */\n    tag_99:\n        /* \"#utility.yul\":3354:3417   */\n      tag_101\n        /* \"#utility.yul\":3409:3416   */\n      dup6\n        /* \"#utility.yul\":3400:3406   */\n      dup3\n        /* \"#utility.yul\":3389:3398   */\n      dup7\n        /* \"#utility.yul\":3385:3407   */\n      add\n        /* \"#utility.yul\":3354:3417   */\n      tag_32\n      jump\t// in\n    tag_101:\n        /* \"#utility.yul\":3344:3417   */\n      swap3\n      pop\n        /* \"#utility.yul\":3140:3427   */\n      pop\n        /* \"#utility.yul\":3466:3468   */\n      0x20\n        /* \"#utility.yul\":3492:3543   */\n      tag_102\n        /* \"#utility.yul\":3535:3542   */\n      dup6\n        /* \"#utility.yul\":3526:3532   */\n      dup3\n        /* \"#utility.yul\":3515:3524   */\n      dup7\n        /* \"#utility.yul\":3511:3533   */\n      add\n        /* \"#utility.yul\":3492:3543   */\n      tag_35\n      jump\t// in\n    tag_102:\n        /* \"#utility.yul\":3482:3543   */\n      swap2\n      pop\n        /* \"#utility.yul\":3437:3553   */\n      pop\n        /* \"#utility.yul\":2910:3560   */\n      swap3\n      pop\n      swap3\n      swap1\n      pop\n      jump\t// out\n        /* \"#utility.yul\":3566:3735   */\n    tag_36:\n        /* \"#utility.yul\":3650:3661   */\n      0x00\n        /* \"#utility.yul\":3684:3690   */\n      dup3\n        /* \"#utility.yul\":3679:3682   */\n      dup3\n        /* \"#utility.yul\":3672:3691   */\n      mstore\n        /* \"#utility.yul\":3724:3728   */\n      0x20\n        /* \"#utility.yul\":3719:3722   */\n      dup3\n        /* \"#utility.yul\":3715:3729   */\n      add\n        /* \"#utility.yul\":3700:3729   */\n      swap1\n      pop\n        /* \"#utility.yul\":3566:3735   */\n      swap3\n      swap2\n      pop\n      pop\n      jump\t// out\n        /* \"#utility.yul\":3741:3972   */\n    tag_37:\n        /* \"#utility.yul\":3881:3915   */\n      0x736f72727920796f75206861766520746f20626520616e206164756c7420746f\n        /* \"#utility.yul\":3877:3878   */\n      0x00\n        /* \"#utility.yul\":3869:3875   */\n      dup3\n        /* \"#utility.yul\":3865:3879   */\n      add\n        /* \"#utility.yul\":3858:3916   */\n      mstore\n        /* \"#utility.yul\":3950:3964   */\n      0x20626520616e206164756c740000000000000000000000000000000000000000\n        /* \"#utility.yul\":3945:3947   */\n      0x20\n        /* \"#utility.yul\":3937:3943   */\n      dup3\n        /* \"#utility.yul\":3933:3948   */\n      add\n        /* \"#utility.yul\":3926:3965   */\n      mstore\n        /* \"#utility.yul\":3741:3972   */\n      pop\n      jump\t// out\n        /* \"#utility.yul\":3978:4344   */\n    tag_38:\n        /* \"#utility.yul\":4120:4123   */\n      0x00\n        /* \"#utility.yul\":4141:4208   */\n      tag_106\n        /* \"#utility.yul\":4205:4207   */\n      0x2c\n        /* \"#utility.yul\":4200:4203   */\n      dup4\n        /* \"#utility.yul\":4141:4208   */\n      tag_36\n      jump\t// in\n    tag_106:\n        /* \"#utility.yul\":4134:4208   */\n      swap2\n      pop\n        /* \"#utility.yul\":4217:4310   */\n      tag_107\n        /* \"#utility.yul\":4306:4309   */\n      dup3\n        /* \"#utility.yul\":4217:4310   */\n      tag_37\n      jump\t// in\n    tag_107:\n        /* \"#utility.yul\":4335:4337   */\n      0x40\n        /* \"#utility.yul\":4330:4333   */\n      dup3\n        /* \"#utility.yul\":4326:4338   */\n      add\n        /* \"#utility.yul\":4319:4338   */\n      swap1\n      pop\n        /* \"#utility.yul\":3978:4344   */\n      swap2\n      swap1\n      pop\n      jump\t// out\n        /* \"#utility.yul\":4350:4769   */\n    tag_11:\n        /* \"#utility.yul\":4516:4520   */\n      0x00\n        /* \"#utility.yul\":4554:4556   */\n      0x20\n        /* \"#utility.yul\":4543:4552   */\n      dup3\n        /* \"#utility.yul\":4539:4557   */\n      add\n        /* \"#utility.yul\":4531:4557   */\n      swap1\n      pop\n        /* \"#utility.yul\":4603:4612   */\n      dup2\n        /* \"#utility.yul\":4597:4601   */\n      dup2\n        /* \"#utility.yul\":4593:4613   */\n      sub\n        /* \"#utility.yul\":4589:4590   */\n      0x00\n        /* \"#utility.yul\":4578:4587   */\n      dup4\n        /* \"#utility.yul\":4574:4591   */\n      add\n        /* \"#utility.yul\":4567:4614   */\n      mstore\n        /* \"#utility.yul\":4631:4762   */\n      tag_109\n        /* \"#utility.yul\":4757:4761   */\n      dup2\n        /* \"#utility.yul\":4631:4762   */\n      tag_38\n      jump\t// in\n    tag_109:\n        /* \"#utility.yul\":4623:4762   */\n      swap1\n      pop\n        /* \"#utility.yul\":4350:4769   */\n      swap2\n      swap1\n      pop\n      jump\t// out\n        /* \"#utility.yul\":4775:4955   */\n    tag_14:\n        /* \"#utility.yul\":4823:4900   */\n      0x4e487b7100000000000000000000000000000000000000000000000000000000\n        /* \"#utility.yul\":4820:4821   */\n      0x00\n        /* \"#utility.yul\":4813:4901   */\n      mstore\n        /* \"#utility.yul\":4920:4924   */\n      0x01\n        /* \"#utility.yul\":4917:4918   */\n      0x04\n        /* \"#utility.yul\":4910:4925   */\n      mstore\n        /* \"#utility.yul\":4944:4948   */\n      0x24\n        /* \"#utility.yul\":4941:4942   */\n      0x00\n        /* \"#utility.yul\":4934:4949   */\n      revert\n        /* \"#utility.yul\":4961:5193   */\n    tag_39:\n        /* \"#utility.yul\":5101:5135   */\n      0x736f7272792c207765206f6e6c792074616b65206170706c6963616e74732062\n        /* \"#utility.yul\":5097:5098   */\n      0x00\n        /* \"#utility.yul\":5089:5095   */\n      dup3\n        /* \"#utility.yul\":5085:5099   */\n      add\n        /* \"#utility.yul\":5078:5136   */\n      mstore\n        /* \"#utility.yul\":5170:5185   */\n      0x656c6f7720333520796561727300000000000000000000000000000000000000\n        /* \"#utility.yul\":5165:5167   */\n      0x20\n        /* \"#utility.yul\":5157:5163   */\n      dup3\n        /* \"#utility.yul\":5153:5168   */\n      add\n        /* \"#utility.yul\":5146:5186   */\n      mstore\n        /* \"#utility.yul\":4961:5193   */\n      pop\n      jump\t// out\n        /* \"#utility.yul\":5199:5565   */\n    tag_40:\n        /* \"#utility.yul\":5341:5344   */\n      0x00\n        /* \"#utility.yul\":5362:5429   */\n      tag_113\n        /* \"#utility.yul\":5426:5428   */\n      0x2d\n        /* \"#utility.yul\":5421:5424   */\n      dup4\n        /* \"#utility.yul\":5362:5429   */\n      tag_36\n      jump\t// in\n    tag_113:\n        /* \"#utility.yul\":5355:5429   */\n      swap2\n      pop\n        /* \"#utility.yul\":5438:5531   */\n      tag_114\n        /* \"#utility.yul\":5527:5530   */\n      dup3\n        /* \"#utility.yul\":5438:5531   */\n      tag_39\n      jump\t// in\n    tag_114:\n        /* \"#utility.yul\":5556:5558   */\n      0x40\n        /* \"#utility.yul\":5551:5554   */\n      dup3\n        /* \"#utility.yul\":5547:5559   */\n      add\n        /* \"#utility.yul\":5540:5559   */\n      swap1\n      pop\n        /* \"#utility.yul\":5199:5565   */\n      swap2\n      swap1\n      pop\n      jump\t// out\n        /* \"#utility.yul\":5571:5990   */\n    tag_17:\n        /* \"#utility.yul\":5737:5741   */\n      0x00\n        /* \"#utility.yul\":5775:5777   */\n      0x20\n        /* \"#utility.yul\":5764:5773   */\n      dup3\n        /* \"#utility.yul\":5760:5778   */\n      add\n        /* \"#utility.yul\":5752:5778   */\n      swap1\n      pop\n        /* \"#utility.yul\":5824:5833   */\n      dup2\n        /* \"#utility.yul\":5818:5822   */\n      dup2\n        /* \"#utility.yul\":5814:5834   */\n      sub\n        /* \"#utility.yul\":5810:5811   */\n      0x00\n        /* \"#utility.yul\":5799:5808   */\n      dup4\n        /* \"#utility.yul\":5795:5812   */\n      add\n        /* \"#utility.yul\":5788:5835   */\n      mstore\n        /* \"#utility.yul\":5852:5983   */\n      tag_116\n        /* \"#utility.yul\":5978:5982   */\n      dup2\n        /* \"#utility.yul\":5852:5983   */\n      tag_40\n      jump\t// in\n    tag_116:\n        /* \"#utility.yul\":5844:5983   */\n      swap1\n      pop\n        /* \"#utility.yul\":5571:5990   */\n      swap2\n      swap1\n      pop\n      jump\t// out\n        /* \"#utility.yul\":5996:6095   */\n    tag_41:\n        /* \"#utility.yul\":6048:6054   */\n      0x00\n        /* \"#utility.yul\":6082:6087   */\n      dup2\n        /* \"#utility.yul\":6076:6088   */\n      mload\n        /* \"#utility.yul\":6066:6088   */\n      swap1\n      pop\n        /* \"#utility.yul\":5996:6095   */\n      swap2\n      swap1\n      pop\n      jump\t// out\n        /* \"#utility.yul\":6101:6281   */\n    tag_42:\n        /* \"#utility.yul\":6149:6226   */\n      0x4e487b7100000000000000000000000000000000000000000000000000000000\n        /* \"#utility.yul\":6146:6147   */\n      0x00\n        /* \"#utility.yul\":6139:6227   */\n      mstore\n        /* \"#utility.yul\":6246:6250   */\n      0x22\n        /* \"#utility.yul\":6243:6244   */\n      0x04\n        /* \"#utility.yul\":6236:6251   */\n      mstore\n        /* \"#utility.yul\":6270:6274   */\n      0x24\n        /* \"#utility.yul\":6267:6268   */\n      0x00\n        /* \"#utility.yul\":6260:6275   */\n      revert\n        /* \"#utility.yul\":6287:6607   */\n    tag_43:\n        /* \"#utility.yul\":6331:6337   */\n      0x00\n        /* \"#utility.yul\":6368:6369   */\n      0x02\n        /* \"#utility.yul\":6362:6366   */\n      dup3\n        /* \"#utility.yul\":6358:6370   */\n      div\n        /* \"#utility.yul\":6348:6370   */\n      swap1\n      pop\n        /* \"#utility.yul\":6415:6416   */\n      0x01\n        /* \"#utility.yul\":6409:6413   */\n      dup3\n        /* \"#utility.yul\":6405:6417   */\n      and\n        /* \"#utility.yul\":6436:6454   */\n      dup1\n        /* \"#utility.yul\":6426:6507   */\n      tag_120\n      jumpi\n        /* \"#utility.yul\":6492:6496   */\n      0x7f\n        /* \"#utility.yul\":6484:6490   */\n      dup3\n        /* \"#utility.yul\":6480:6497   */\n      and\n        /* \"#utility.yul\":6470:6497   */\n      swap2\n      pop\n        /* \"#utility.yul\":6426:6507   */\n    tag_120:\n        /* \"#utility.yul\":6554:6556   */\n      0x20\n        /* \"#utility.yul\":6546:6552   */\n      dup3\n        /* \"#utility.yul\":6543:6557   */\n      lt\n        /* \"#utility.yul\":6523:6541   */\n      dup2\n        /* \"#utility.yul\":6520:6558   */\n      sub\n        /* \"#utility.yul\":6517:6601   */\n      tag_121\n      jumpi\n        /* \"#utility.yul\":6573:6591   */\n      tag_122\n      tag_42\n      jump\t// in\n    tag_122:\n        /* \"#utility.yul\":6517:6601   */\n    tag_121:\n        /* \"#utility.yul\":6338:6607   */\n      pop\n        /* \"#utility.yul\":6287:6607   */\n      swap2\n      swap1\n      pop\n      jump\t// out\n        /* \"#utility.yul\":6613:6754   */\n    tag_44:\n        /* \"#utility.yul\":6662:6666   */\n      0x00\n        /* \"#utility.yul\":6685:6688   */\n      dup2\n        /* \"#utility.yul\":6677:6688   */\n      swap1\n      pop\n        /* \"#utility.yul\":6708:6711   */\n      dup2\n        /* \"#utility.yul\":6705:6706   */\n      0x00\n        /* \"#utility.yul\":6698:6712   */\n      mstore\n        /* \"#utility.yul\":6742:6746   */\n      0x20\n        /* \"#utility.yul\":6739:6740   */\n      0x00\n        /* \"#utility.yul\":6729:6747   */\n      keccak256\n        /* \"#utility.yul\":6721:6747   */\n      swap1\n      pop\n        /* \"#utility.yul\":6613:6754   */\n      swap2\n      swap1\n      pop\n      jump\t// out\n        /* \"#utility.yul\":6760:6853   */\n    tag_45:\n        /* \"#utility.yul\":6797:6803   */\n      0x00\n        /* \"#utility.yul\":6844:6846   */\n      0x20\n        /* \"#utility.yul\":6839:6841   */\n      0x1f\n        /* \"#utility.yul\":6832:6837   */\n      dup4\n        /* \"#utility.yul\":6828:6842   */\n      add\n        /* \"#utility.yul\":6824:6847   */\n      div\n        /* \"#utility.yul\":6814:6847   */\n      swap1\n      pop\n        /* \"#utility.yul\":6760:6853   */\n      swap2\n      swap1\n      pop\n      jump\t// out\n        /* \"#utility.yul\":6859:6966   */\n    tag_46:\n        /* \"#utility.yul\":6903:6911   */\n      0x00\n        /* \"#utility.yul\":6953:6958   */\n      dup3\n        /* \"#utility.yul\":6947:6951   */\n      dup3\n        /* \"#utility.yul\":6943:6959   */\n      shl\n        /* \"#utility.yul\":6922:6959   */\n      swap1\n      pop\n        /* \"#utility.yul\":6859:6966   */\n      swap3\n      swap2\n      pop\n      pop\n      jump\t// out\n        /* \"#utility.yul\":6972:7365   */\n    tag_47:\n        /* \"#utility.yul\":7041:7047   */\n      0x00\n        /* \"#utility.yul\":7091:7092   */\n      0x08\n        /* \"#utility.yul\":7079:7089   */\n      dup4\n        /* \"#utility.yul\":7075:7093   */\n      mul\n        /* \"#utility.yul\":7114:7211   */\n      tag_127\n        /* \"#utility.yul\":7144:7210   */\n      0xffffffffffffffffffffffffffffffffffffffffffffffffffffffffffffffff\n        /* \"#utility.yul\":7133:7142   */\n      dup3\n        /* \"#utility.yul\":7114:7211   */\n      tag_46\n      jump\t// in\n    tag_127:\n        /* \"#utility.yul\":7232:7271   */\n      tag_128\n        /* \"#utility.yul\":7262:7270   */\n      dup7\n        /* \"#utility.yul\":7251:7260   */\n      dup4\n        /* \"#utility.yul\":7232:7271   */\n      tag_46\n      jump\t// in\n    tag_128:\n        /* \"#utility.yul\":7220:7271   */\n      swap6\n      pop\n        /* \"#utility.yul\":7304:7308   */\n      dup1\n        /* \"#utility.yul\":7300:7309   */\n      not\n        /* \"#utility.yul\":7293:7298   */\n      dup5\n        /* \"#utility.yul\":7289:7310   */\n      and\n        /* \"#utility.yul\":7280:7310   */\n      swap4\n      pop\n        /* \"#utility.yul\":7353:7357   */\n      dup1\n        /* \"#utility.yul\":7343:7351   */\n      dup7\n        /* \"#utility.yul\":7339:7358   */\n      and\n        /* \"#utility.yul\":7332:7337   */\n      dup5\n        /* \"#utility.yul\":7329:7359   */\n      or\n        /* \"#utility.yul\":7319:7359   */\n      swap3\n      pop\n        /* \"#utility.yul\":7048:7365   */\n      pop\n      pop\n        /* \"#utility.yul\":6972:7365   */\n      swap4\n      swap3\n      pop\n      pop\n      pop\n      jump\t// out\n        /* \"#utility.yul\":7371:7448   */\n    tag_48:\n        /* \"#utility.yul\":7408:7415   */\n      0x00\n        /* \"#utility.yul\":7437:7442   */\n      dup2\n        /* \"#utility.yul\":7426:7442   */\n      swap1\n      pop\n        /* \"#utility.yul\":7371:7448   */\n      swap2\n      swap1\n      pop\n      jump\t// out\n        /* \"#utility.yul\":7454:7514   */\n    tag_49:\n        /* \"#utility.yul\":7482:7485   */\n      0x00\n        /* \"#utility.yul\":7503:7508   */\n      dup2\n        /* \"#utility.yul\":7496:7508   */\n      swap1\n      pop\n        /* \"#utility.yul\":7454:7514   */\n      swap2\n      swap1\n      pop\n      jump\t// out\n        /* \"#utility.yul\":7520:7662   */\n    tag_50:\n        /* \"#utility.yul\":7570:7579   */\n      0x00\n        /* \"#utility.yul\":7603:7656   */\n      tag_132\n        /* \"#utility.yul\":7621:7655   */\n      tag_133\n        /* \"#utility.yul\":7630:7654   */\n      tag_134\n        /* \"#utility.yul\":7648:7653   */\n      dup5\n        /* \"#utility.yul\":7630:7654   */\n      tag_48\n      jump\t// in\n    tag_134:\n        /* \"#utility.yul\":7621:7655   */\n      tag_49\n      jump\t// in\n    tag_133:\n        /* \"#utility.yul\":7603:7656   */\n      tag_48\n      jump\t// in\n    tag_132:\n        /* \"#utility.yul\":7590:7656   */\n      swap1\n      pop\n        /* \"#utility.yul\":7520:7662   */\n      swap2\n      swap1\n      pop\n      jump\t// out\n        /* \"#utility.yul\":7668:7743   */\n    tag_51:\n        /* \"#utility.yul\":7711:7714   */\n      0x00\n        /* \"#utility.yul\":7732:7737   */\n      dup2\n        /* \"#utility.yul\":7725:7737   */\n      swap1\n      pop\n        /* \"#utility.yul\":7668:7743   */\n      swap2\n      swap1\n      pop\n      jump\t// out\n        /* \"#utility.yul\":7749:8018   */\n    tag_52:\n        /* \"#utility.yul\":7859:7898   */\n      tag_137\n        /* \"#utility.yul\":7890:7897   */\n      dup4\n        /* \"#utility.yul\":7859:7898   */\n      tag_50\n      jump\t// in\n    tag_137:\n        /* \"#utility.yul\":7920:8011   */\n      tag_138\n        /* \"#utility.yul\":7969:8010   */\n      tag_139\n        /* \"#utility.yul\":7993:8009   */\n      dup3\n        /* \"#utility.yul\":7969:8010   */\n      tag_51\n      jump\t// in\n    tag_139:\n        /* \"#utility.yul\":7961:7967   */\n      dup5\n        /* \"#utility.yul\":7954:7958   */\n      dup5\n        /* \"#utility.yul\":7948:7959   */\n      sload\n        /* \"#utility.yul\":7920:8011   */\n      tag_47\n      jump\t// in\n    tag_138:\n        /* \"#utility.yul\":7914:7918   */\n      dup3\n        /* \"#utility.yul\":7907:8012   */\n      sstore\n        /* \"#utility.yul\":7825:8018   */\n      pop\n        /* \"#utility.yul\":7749:8018   */\n      pop\n      pop\n      pop\n      jump\t// out\n        /* \"#utility.yul\":8024:8097   */\n    tag_53:\n        /* \"#utility.yul\":8069:8072   */\n      0x00\n        /* \"#utility.yul\":8024:8097   */\n      swap1\n      jump\t// out\n        /* \"#utility.yul\":8103:8292   */\n    tag_54:\n        /* \"#utility.yul\":8180:8212   */\n      tag_142\n      tag_53\n      jump\t// in\n    tag_142:\n        /* \"#utility.yul\":8221:8286   */\n      tag_143\n        /* \"#utility.yul\":8279:8285   */\n      dup2\n        /* \"#utility.yul\":8271:8277   */\n      dup5\n        /* \"#utility.yul\":8265:8269   */\n      dup5\n        /* \"#utility.yul\":8221:8286   */\n      tag_52\n      jump\t// in\n    tag_143:\n        /* \"#utility.yul\":8156:8292   */\n      pop\n        /* \"#utility.yul\":8103:8292   */\n      pop\n      pop\n      jump\t// out\n        /* \"#utility.yul\":8298:8484   */\n    tag_55:\n        /* \"#utility.yul\":8358:8478   */\n    tag_145:\n        /* \"#utility.yul\":8375:8378   */\n      dup2\n        /* \"#utility.yul\":8368:8373   */\n      dup2\n        /* \"#utility.yul\":8365:8379   */\n      lt\n        /* \"#utility.yul\":8358:8478   */\n      iszero\n      tag_147\n      jumpi\n        /* \"#utility.yul\":8429:8468   */\n      tag_148\n        /* \"#utility.yul\":8466:8467   */\n      0x00\n        /* \"#utility.yul\":8459:8464   */\n      dup3\n        /* \"#utility.yul\":8429:8468   */\n      tag_54\n      jump\t// in\n    tag_148:\n        /* \"#utility.yul\":8402:8403   */\n      0x01\n        /* \"#utility.yul\":8395:8400   */\n      dup2\n        /* \"#utility.yul\":8391:8404   */\n      add\n        /* \"#utility.yul\":8382:8404   */\n      swap1\n      pop\n        /* \"#utility.yul\":8358:8478   */\n      jump(tag_145)\n    tag_147:\n        /* \"#utility.yul\":8298:8484   */\n      pop\n      pop\n      jump\t// out\n        /* \"#utility.yul\":8490:9033   */\n    tag_56:\n        /* \"#utility.yul\":8591:8593   */\n      0x1f\n        /* \"#utility.yul\":8586:8589   */\n      dup3\n        /* \"#utility.yul\":8583:8594   */\n      gt\n        /* \"#utility.yul\":8580:9026   */\n      iszero\n      tag_150\n      jumpi\n        /* \"#utility.yul\":8625:8663   */\n      tag_151\n        /* \"#utility.yul\":8657:8662   */\n      dup2\n        /* \"#utility.yul\":8625:8663   */\n      tag_44\n      jump\t// in\n    tag_151:\n        /* \"#utility.yul\":8709:8738   */\n      tag_152\n        /* \"#utility.yul\":8727:8737   */\n      dup5\n        /* \"#utility.yul\":8709:8738   */\n      tag_45\n      jump\t// in\n    tag_152:\n        /* \"#utility.yul\":8699:8707   */\n      dup2\n        /* \"#utility.yul\":8695:8739   */\n      add\n        /* \"#utility.yul\":8892:8894   */\n      0x20\n        /* \"#utility.yul\":8880:8890   */\n      dup6\n        /* \"#utility.yul\":8877:8895   */\n      lt\n        /* \"#utility.yul\":8874:8923   */\n      iszero\n      tag_153\n      jumpi\n        /* \"#utility.yul\":8913:8921   */\n      dup2\n        /* \"#utility.yul\":8898:8921   */\n      swap1\n      pop\n        /* \"#utility.yul\":8874:8923   */\n    tag_153:\n        /* \"#utility.yul\":8936:9016   */\n      tag_154\n        /* \"#utility.yul\":8992:9014   */\n      tag_155\n        /* \"#utility.yul\":9010:9013   */\n      dup6\n        /* \"#utility.yul\":8992:9014   */\n      tag_45\n      jump\t// in\n    tag_155:\n        /* \"#utility.yul\":8982:8990   */\n      dup4\n        /* \"#utility.yul\":8978:9015   */\n      add\n        /* \"#utility.yul\":8965:8976   */\n      dup3\n        /* \"#utility.yul\":8936:9016   */\n      tag_55\n      jump\t// in\n    tag_154:\n        /* \"#utility.yul\":8595:9026   */\n      pop\n      pop\n        /* \"#utility.yul\":8580:9026   */\n    tag_150:\n        /* \"#utility.yul\":8490:9033   */\n      pop\n      pop\n      pop\n      jump\t// out\n        /* \"#utility.yul\":9039:9156   */\n    tag_57:\n        /* \"#utility.yul\":9093:9101   */\n      0x00\n        /* \"#utility.yul\":9143:9148   */\n      dup3\n        /* \"#utility.yul\":9137:9141   */\n      dup3\n        /* \"#utility.yul\":9133:9149   */\n      shr\n        /* \"#utility.yul\":9112:9149   */\n      swap1\n      pop\n        /* \"#utility.yul\":9039:9156   */\n      swap3\n      swap2\n      pop\n      pop\n      jump\t// out\n        /* \"#utility.yul\":9162:9331   */\n    tag_58:\n        /* \"#utility.yul\":9206:9212   */\n      0x00\n        /* \"#utility.yul\":9239:9290   */\n      tag_158\n        /* \"#utility.yul\":9287:9288   */\n      0x00\n        /* \"#utility.yul\":9283:9289   */\n      not\n        /* \"#utility.yul\":9275:9280   */\n      dup5\n        /* \"#utility.yul\":9272:9273   */\n      0x08\n        /* \"#utility.yul\":9268:9281   */\n      mul\n        /* \"#utility.yul\":9239:9290   */\n      tag_57\n      jump\t// in\n    tag_158:\n        /* \"#utility.yul\":9235:9291   */\n      not\n        /* \"#utility.yul\":9320:9324   */\n      dup1\n        /* \"#utility.yul\":9314:9318   */\n      dup4\n        /* \"#utility.yul\":9310:9325   */\n      and\n        /* \"#utility.yul\":9300:9325   */\n      swap2\n      pop\n        /* \"#utility.yul\":9213:9331   */\n      pop\n        /* \"#utility.yul\":9162:9331   */\n      swap3\n      swap2\n      pop\n      pop\n      jump\t// out\n        /* \"#utility.yul\":9336:9631   */\n    tag_59:\n        /* \"#utility.yul\":9412:9416   */\n      0x00\n        /* \"#utility.yul\":9558:9587   */\n      tag_160\n        /* \"#utility.yul\":9583:9586   */\n      dup4\n        /* \"#utility.yul\":9577:9581   */\n      dup4\n        /* \"#utility.yul\":9558:9587   */\n      tag_58\n      jump\t// in\n    tag_160:\n        /* \"#utility.yul\":9550:9587   */\n      swap2\n      pop\n        /* \"#utility.yul\":9620:9623   */\n      dup3\n        /* \"#utility.yul\":9617:9618   */\n      0x02\n        /* \"#utility.yul\":9613:9624   */\n      mul\n        /* \"#utility.yul\":9607:9611   */\n      dup3\n        /* \"#utility.yul\":9604:9625   */\n      or\n        /* \"#utility.yul\":9596:9625   */\n      swap1\n      pop\n        /* \"#utility.yul\":9336:9631   */\n      swap3\n      swap2\n      pop\n      pop\n      jump\t// out\n        /* \"#utility.yul\":9636:11031   */\n    tag_19:\n        /* \"#utility.yul\":9753:9790   */\n      tag_162\n        /* \"#utility.yul\":9786:9789   */\n      dup3\n        /* \"#utility.yul\":9753:9790   */\n      tag_41\n      jump\t// in\n    tag_162:\n        /* \"#utility.yul\":9855:9873   */\n      0xffffffffffffffff\n        /* \"#utility.yul\":9847:9853   */\n      dup2\n        /* \"#utility.yul\":9844:9874   */\n      gt\n        /* \"#utility.yul\":9841:9897   */\n      iszero\n      tag_163\n      jumpi\n        /* \"#utility.yul\":9877:9895   */\n      tag_164\n      tag_26\n      jump\t// in\n    tag_164:\n        /* \"#utility.yul\":9841:9897   */\n    tag_163:\n        /* \"#utility.yul\":9921:9959   */\n      tag_165\n        /* \"#utility.yul\":9953:9957   */\n      dup3\n        /* \"#utility.yul\":9947:9958   */\n      sload\n        /* \"#utility.yul\":9921:9959   */\n      tag_43\n      jump\t// in\n    tag_165:\n        /* \"#utility.yul\":10006:10073   */\n      tag_166\n        /* \"#utility.yul\":10066:10072   */\n      dup3\n        /* \"#utility.yul\":10058:10064   */\n      dup3\n        /* \"#utility.yul\":10052:10056   */\n      dup6\n        /* \"#utility.yul\":10006:10073   */\n      tag_56\n      jump\t// in\n    tag_166:\n        /* \"#utility.yul\":10100:10101   */\n      0x00\n        /* \"#utility.yul\":10124:10128   */\n      0x20\n        /* \"#utility.yul\":10111:10128   */\n      swap1\n      pop\n        /* \"#utility.yul\":10156:10158   */\n      0x1f\n        /* \"#utility.yul\":10148:10154   */\n      dup4\n        /* \"#utility.yul\":10145:10159   */\n      gt\n        /* \"#utility.yul\":10173:10174   */\n      0x01\n        /* \"#utility.yul\":10168:10786   */\n      dup2\n      eq\n      tag_168\n      jumpi\n        /* \"#utility.yul\":10830:10831   */\n      0x00\n        /* \"#utility.yul\":10847:10853   */\n      dup5\n        /* \"#utility.yul\":10844:10921   */\n      iszero\n      tag_169\n      jumpi\n        /* \"#utility.yul\":10896:10905   */\n      dup3\n        /* \"#utility.yul\":10891:10894   */\n      dup8\n        /* \"#utility.yul\":10887:10906   */\n      add\n        /* \"#utility.yul\":10881:10907   */\n      mload\n        /* \"#utility.yul\":10872:10907   */\n      swap1\n      pop\n        /* \"#utility.yul\":10844:10921   */\n    tag_169:\n        /* \"#utility.yul\":10947:11014   */\n      tag_170\n        /* \"#utility.yul\":11007:11013   */\n      dup6\n        /* \"#utility.yul\":11000:11005   */\n      dup3\n        /* \"#utility.yul\":10947:11014   */\n      tag_59\n      jump\t// in\n    tag_170:\n        /* \"#utility.yul\":10941:10945   */\n      dup7\n        /* \"#utility.yul\":10934:11015   */\n      sstore\n        /* \"#utility.yul\":10803:11025   */\n      pop\n        /* \"#utility.yul\":10138:11025   */\n      jump(tag_167)\n        /* \"#utility.yul\":10168:10786   */\n    tag_168:\n        /* \"#utility.yul\":10220:10224   */\n      0x1f\n        /* \"#utility.yul\":10216:10225   */\n      not\n        /* \"#utility.yul\":10208:10214   */\n      dup5\n        /* \"#utility.yul\":10204:10226   */\n      and\n        /* \"#utility.yul\":10254:10291   */\n      tag_171\n        /* \"#utility.yul\":10286:10290   */\n      dup7\n        /* \"#utility.yul\":10254:10291   */\n      tag_44\n      jump\t// in\n    tag_171:\n        /* \"#utility.yul\":10313:10314   */\n      0x00\n        /* \"#utility.yul\":10327:10535   */\n    tag_172:\n        /* \"#utility.yul\":10341:10348   */\n      dup3\n        /* \"#utility.yul\":10338:10339   */\n      dup2\n        /* \"#utility.yul\":10335:10349   */\n      lt\n        /* \"#utility.yul\":10327:10535   */\n      iszero\n      tag_174\n      jumpi\n        /* \"#utility.yul\":10420:10429   */\n      dup5\n        /* \"#utility.yul\":10415:10418   */\n      dup10\n        /* \"#utility.yul\":10411:10430   */\n      add\n        /* \"#utility.yul\":10405:10431   */\n      mload\n        /* \"#utility.yul\":10397:10403   */\n      dup3\n        /* \"#utility.yul\":10390:10432   */\n      sstore\n        /* \"#utility.yul\":10471:10472   */\n      0x01\n        /* \"#utility.yul\":10463:10469   */\n      dup3\n        /* \"#utility.yul\":10459:10473   */\n      add\n        /* \"#utility.yul\":10449:10473   */\n      swap2\n      pop\n        /* \"#utility.yul\":10518:10520   */\n      0x20\n        /* \"#utility.yul\":10507:10516   */\n      dup6\n        /* \"#utility.yul\":10503:10521   */\n      add\n        /* \"#utility.yul\":10490:10521   */\n      swap5\n      pop\n        /* \"#utility.yul\":10364:10368   */\n      0x20\n        /* \"#utility.yul\":10361:10362   */\n      dup2\n        /* \"#utility.yul\":10357:10369   */\n      add\n        /* \"#utility.yul\":10352:10369   */\n      swap1\n      pop\n        /* \"#utility.yul\":10327:10535   */\n      jump(tag_172)\n    tag_174:\n        /* \"#utility.yul\":10563:10569   */\n      dup7\n        /* \"#utility.yul\":10554:10561   */\n      dup4\n        /* \"#utility.yul\":10551:10570   */\n      lt\n        /* \"#utility.yul\":10548:10727   */\n      iszero\n      tag_175\n      jumpi\n        /* \"#utility.yul\":10621:10630   */\n      dup5\n        /* \"#utility.yul\":10616:10619   */\n      dup10\n        /* \"#utility.yul\":10612:10631   */\n      add\n        /* \"#utility.yul\":10606:10632   */\n      mload\n        /* \"#utility.yul\":10664:10712   */\n      tag_176\n        /* \"#utility.yul\":10706:10710   */\n      0x1f\n        /* \"#utility.yul\":10698:10704   */\n      dup10\n        /* \"#utility.yul\":10694:10711   */\n      and\n        /* \"#utility.yul\":10683:10692   */\n      dup3\n        /* \"#utility.yul\":10664:10712   */\n      tag_58\n      jump\t// in\n    tag_176:\n        /* \"#utility.yul\":10656:10662   */\n      dup4\n        /* \"#utility.yul\":10649:10713   */\n      sstore\n        /* \"#utility.yul\":10571:10727   */\n      pop\n        /* \"#utility.yul\":10548:10727   */\n    tag_175:\n        /* \"#utility.yul\":10773:10774   */\n      0x01\n        /* \"#utility.yul\":10769:10770   */\n      0x02\n        /* \"#utility.yul\":10761:10767   */\n      dup9\n        /* \"#utility.yul\":10757:10771   */\n      mul\n        /* \"#utility.yul\":10753:10775   */\n      add\n        /* \"#utility.yul\":10747:10751   */\n      dup9\n        /* \"#utility.yul\":10740:10776   */\n      sstore\n        /* \"#utility.yul\":10175:10786   */\n      pop\n      pop\n      pop\n        /* \"#utility.yul\":10138:11025   */\n    tag_167:\n      pop\n        /* \"#utility.yul\":9728:11031   */\n      pop\n      pop\n      pop\n        /* \"#utility.yul\":9636:11031   */\n      pop\n      pop\n      jump\t// out\n\n    auxdata: 0xa2646970667358221220268ca4d6952aca8b9b17d9456927bb6203d113e2beb3f9ff15fe057ff7b55fff64736f6c63430008180033\n}\n",
				"bytecode": {
					"linkReferences": {},
					"object": "608060405234801561000f575f80fd5b506107c08061001d5f395ff3fe608060405234801561000f575f80fd5b5060043610610029575f3560e01c806373203ef11461002d575b5f80fd5b610047600480360381019061004291906102fb565b610049565b005b60128160ff161161008f576040517f08c379a0000000000000000000000000000000000000000000000000000000008152600401610086906103d5565b60405180910390fd5b5f8160ff16036100a2576100a16103f3565b5b60238160ff1611156100e9576040517f08c379a00000000000000000000000000000000000000000000000000000000081526004016100e090610490565b60405180910390fd5b60405180604001604052808381526020018260ff168152505f803373ffffffffffffffffffffffffffffffffffffffff1673ffffffffffffffffffffffffffffffffffffffff1681526020019081526020015f205f820151815f01908161015091906106bb565b506020820151816001015f6101000a81548160ff021916908360ff1602179055509050505050565b5f604051905090565b5f80fd5b5f80fd5b5f80fd5b5f80fd5b5f601f19601f8301169050919050565b7f4e487b71000000000000000000000000000000000000000000000000000000005f52604160045260245ffd5b6101d782610191565b810181811067ffffffffffffffff821117156101f6576101f56101a1565b5b80604052505050565b5f610208610178565b905061021482826101ce565b919050565b5f67ffffffffffffffff821115610233576102326101a1565b5b61023c82610191565b9050602081019050919050565b828183375f83830152505050565b5f61026961026484610219565b6101ff565b9050828152602081018484840111156102855761028461018d565b5b610290848285610249565b509392505050565b5f82601f8301126102ac576102ab610189565b5b81356102bc848260208601610257565b91505092915050565b5f60ff82169050919050565b6102da816102c5565b81146102e4575f80fd5b50565b5f813590506102f5816102d1565b92915050565b5f806040838503121561031157610310610181565b5b5f83013567ffffffffffffffff81111561032e5761032d610185565b5b61033a85828601610298565b925050602061034b858286016102e7565b9150509250929050565b5f82825260208201905092915050565b7f736f72727920796f75206861766520746f20626520616e206164756c7420746f5f8201527f20626520616e206164756c740000000000000000000000000000000000000000602082015250565b5f6103bf602c83610355565b91506103ca82610365565b604082019050919050565b5f6020820190508181035f8301526103ec816103b3565b9050919050565b7f4e487b71000000000000000000000000000000000000000000000000000000005f52600160045260245ffd5b7f736f7272792c207765206f6e6c792074616b65206170706c6963616e747320625f8201527f656c6f7720333520796561727300000000000000000000000000000000000000602082015250565b5f61047a602d83610355565b915061048582610420565b604082019050919050565b5f6020820190508181035f8301526104a78161046e565b9050919050565b5f81519050919050565b7f4e487b71000000000000000000000000000000000000000000000000000000005f52602260045260245ffd5b5f60028204905060018216806104fc57607f821691505b60208210810361050f5761050e6104b8565b5b50919050565b5f819050815f5260205f209050919050565b5f6020601f8301049050919050565b5f82821b905092915050565b5f600883026105717fffffffffffffffffffffffffffffffffffffffffffffffffffffffffffffffff82610536565b61057b8683610536565b95508019841693508086168417925050509392505050565b5f819050919050565b5f819050919050565b5f6105bf6105ba6105b584610593565b61059c565b610593565b9050919050565b5f819050919050565b6105d8836105a5565b6105ec6105e4826105c6565b848454610542565b825550505050565b5f90565b6106006105f4565b61060b8184846105cf565b505050565b5b8181101561062e576106235f826105f8565b600181019050610611565b5050565b601f8211156106735761064481610515565b61064d84610527565b8101602085101561065c578190505b61067061066885610527565b830182610610565b50505b505050565b5f82821c905092915050565b5f6106935f1984600802610678565b1980831691505092915050565b5f6106ab8383610684565b9150826002028217905092915050565b6106c4826104ae565b67ffffffffffffffff8111156106dd576106dc6101a1565b5b6106e782546104e5565b6106f2828285610632565b5f60209050601f831160018114610723575f8415610711578287015190505b61071b85826106a0565b865550610782565b601f19841661073186610515565b5f5b8281101561075857848901518255600182019150602085019450602081019050610733565b868310156107755784890151610771601f891682610684565b8355505b6001600288020188555050505b50505050505056fea2646970667358221220268ca4d6952aca8b9b17d9456927bb6203d113e2beb3f9ff15fe057ff7b55fff64736f6c63430008180033",
					"opcodes": "PUSH1 0x80 PUSH1 0x40 MSTORE CALLVALUE DUP1 ISZERO PUSH2 0xF JUMPI PUSH0 DUP1 REVERT JUMPDEST POP PUSH2 0x7C0 DUP1 PUSH2 0x1D PUSH0 CODECOPY PUSH0 RETURN INVALID PUSH1 0x80 PUSH1 0x40 MSTORE CALLVALUE DUP1 ISZERO PUSH2 0xF JUMPI PUSH0 DUP1 REVERT JUMPDEST POP PUSH1 0x4 CALLDATASIZE LT PUSH2 0x29 JUMPI PUSH0 CALLDATALOAD PUSH1 0xE0 SHR DUP1 PUSH4 0x73203EF1 EQ PUSH2 0x2D JUMPI JUMPDEST PUSH0 DUP1 REVERT JUMPDEST PUSH2 0x47 PUSH1 0x4 DUP1 CALLDATASIZE SUB DUP2 ADD SWAP1 PUSH2 0x42 SWAP2 SWAP1 PUSH2 0x2FB JUMP JUMPDEST PUSH2 0x49 JUMP JUMPDEST STOP JUMPDEST PUSH1 0x12 DUP2 PUSH1 0xFF AND GT PUSH2 0x8F JUMPI PUSH1 0x40 MLOAD PUSH32 0x8C379A000000000000000000000000000000000000000000000000000000000 DUP2 MSTORE PUSH1 0x4 ADD PUSH2 0x86 SWAP1 PUSH2 0x3D5 JUMP JUMPDEST PUSH1 0x40 MLOAD DUP1 SWAP2 SUB SWAP1 REVERT JUMPDEST PUSH0 DUP2 PUSH1 0xFF AND SUB PUSH2 0xA2 JUMPI PUSH2 0xA1 PUSH2 0x3F3 JUMP JUMPDEST JUMPDEST PUSH1 0x23 DUP2 PUSH1 0xFF AND GT ISZERO PUSH2 0xE9 JUMPI PUSH1 0x40 MLOAD PUSH32 0x8C379A000000000000000000000000000000000000000000000000000000000 DUP2 MSTORE PUSH1 0x4 ADD PUSH2 0xE0 SWAP1 PUSH2 0x490 JUMP JUMPDEST PUSH1 0x40 MLOAD DUP1 SWAP2 SUB SWAP1 REVERT JUMPDEST PUSH1 0x40 MLOAD DUP1 PUSH1 0x40 ADD PUSH1 0x40 MSTORE DUP1 DUP4 DUP2 MSTORE PUSH1 0x20 ADD DUP3 PUSH1 0xFF AND DUP2 MSTORE POP PUSH0 DUP1 CALLER PUSH20 0xFFFFFFFFFFFFFFFFFFFFFFFFFFFFFFFFFFFFFFFF AND PUSH20 0xFFFFFFFFFFFFFFFFFFFFFFFFFFFFFFFFFFFFFFFF AND DUP2 MSTORE PUSH1 0x20 ADD SWAP1 DUP2 MSTORE PUSH1 0x20 ADD PUSH0 KECCAK256 PUSH0 DUP3 ADD MLOAD DUP2 PUSH0 ADD SWAP1 DUP2 PUSH2 0x150 SWAP2 SWAP1 PUSH2 0x6BB JUMP JUMPDEST POP PUSH1 0x20 DUP3 ADD MLOAD DUP2 PUSH1 0x1 ADD PUSH0 PUSH2 0x100 EXP DUP2 SLOAD DUP2 PUSH1 0xFF MUL NOT AND SWAP1 DUP4 PUSH1 0xFF AND MUL OR SWAP1 SSTORE POP SWAP1 POP POP POP POP JUMP JUMPDEST PUSH0 PUSH1 0x40 MLOAD SWAP1 POP SWAP1 JUMP JUMPDEST PUSH0 DUP1 REVERT JUMPDEST PUSH0 DUP1 REVERT JUMPDEST PUSH0 DUP1 REVERT JUMPDEST PUSH0 DUP1 REVERT JUMPDEST PUSH0 PUSH1 0x1F NOT PUSH1 0x1F DUP4 ADD AND SWAP1 POP SWAP2 SWAP1 POP JUMP JUMPDEST PUSH32 0x4E487B7100000000000000000000000000000000000000000000000000000000 PUSH0 MSTORE PUSH1 0x41 PUSH1 0x4 MSTORE PUSH1 0x24 PUSH0 REVERT JUMPDEST PUSH2 0x1D7 DUP3 PUSH2 0x191 JUMP JUMPDEST DUP2 ADD DUP2 DUP2 LT PUSH8 0xFFFFFFFFFFFFFFFF DUP3 GT OR ISZERO PUSH2 0x1F6 JUMPI PUSH2 0x1F5 PUSH2 0x1A1 JUMP JUMPDEST JUMPDEST DUP1 PUSH1 0x40 MSTORE POP POP POP JUMP JUMPDEST PUSH0 PUSH2 0x208 PUSH2 0x178 JUMP JUMPDEST SWAP1 POP PUSH2 0x214 DUP3 DUP3 PUSH2 0x1CE JUMP JUMPDEST SWAP2 SWAP1 POP JUMP JUMPDEST PUSH0 PUSH8 0xFFFFFFFFFFFFFFFF DUP3 GT ISZERO PUSH2 0x233 JUMPI PUSH2 0x232 PUSH2 0x1A1 JUMP JUMPDEST JUMPDEST PUSH2 0x23C DUP3 PUSH2 0x191 JUMP JUMPDEST SWAP1 POP PUSH1 0x20 DUP2 ADD SWAP1 POP SWAP2 SWAP1 POP JUMP JUMPDEST DUP3 DUP2 DUP4 CALLDATACOPY PUSH0 DUP4 DUP4 ADD MSTORE POP POP POP JUMP JUMPDEST PUSH0 PUSH2 0x269 PUSH2 0x264 DUP5 PUSH2 0x219 JUMP JUMPDEST PUSH2 0x1FF JUMP JUMPDEST SWAP1 POP DUP3 DUP2 MSTORE PUSH1 0x20 DUP2 ADD DUP5 DUP5 DUP5 ADD GT ISZERO PUSH2 0x285 JUMPI PUSH2 0x284 PUSH2 0x18D JUMP JUMPDEST JUMPDEST PUSH2 0x290 DUP5 DUP3 DUP6 PUSH2 0x249 JUMP JUMPDEST POP SWAP4 SWAP3 POP POP POP JUMP JUMPDEST PUSH0 DUP3 PUSH1 0x1F DUP4 ADD SLT PUSH2 0x2AC JUMPI PUSH2 0x2AB PUSH2 0x189 JUMP JUMPDEST JUMPDEST DUP2 CALLDATALOAD PUSH2 0x2BC DUP5 DUP3 PUSH1 0x20 DUP7 ADD PUSH2 0x257 JUMP JUMPDEST SWAP2 POP POP SWAP3 SWAP2 POP POP JUMP JUMPDEST PUSH0 PUSH1 0xFF DUP3 AND SWAP1 POP SWAP2 SWAP1 POP JUMP JUMPDEST PUSH2 0x2DA DUP2 PUSH2 0x2C5 JUMP JUMPDEST DUP2 EQ PUSH2 0x2E4 JUMPI PUSH0 DUP1 REVERT JUMPDEST POP JUMP JUMPDEST PUSH0 DUP2 CALLDATALOAD SWAP1 POP PUSH2 0x2F5 DUP2 PUSH2 0x2D1 JUMP JUMPDEST SWAP3 SWAP2 POP POP JUMP JUMPDEST PUSH0 DUP1 PUSH1 0x40 DUP4 DUP6 SUB SLT ISZERO PUSH2 0x311 JUMPI PUSH2 0x310 PUSH2 0x181 JUMP JUMPDEST JUMPDEST PUSH0 DUP4 ADD CALLDATALOAD PUSH8 0xFFFFFFFFFFFFFFFF DUP2 GT ISZERO PUSH2 0x32E JUMPI PUSH2 0x32D PUSH2 0x185 JUMP JUMPDEST JUMPDEST PUSH2 0x33A DUP6 DUP3 DUP7 ADD PUSH2 0x298 JUMP JUMPDEST SWAP3 POP POP PUSH1 0x20 PUSH2 0x34B DUP6 DUP3 DUP7 ADD PUSH2 0x2E7 JUMP JUMPDEST SWAP2 POP POP SWAP3 POP SWAP3 SWAP1 POP JUMP JUMPDEST PUSH0 DUP3 DUP3 MSTORE PUSH1 0x20 DUP3 ADD SWAP1 POP SWAP3 SWAP2 POP POP JUMP JUMPDEST PUSH32 0x736F72727920796F75206861766520746F20626520616E206164756C7420746F PUSH0 DUP3 ADD MSTORE PUSH32 0x20626520616E206164756C740000000000000000000000000000000000000000 PUSH1 0x20 DUP3 ADD MSTORE POP JUMP JUMPDEST PUSH0 PUSH2 0x3BF PUSH1 0x2C DUP4 PUSH2 0x355 JUMP JUMPDEST SWAP2 POP PUSH2 0x3CA DUP3 PUSH2 0x365 JUMP JUMPDEST PUSH1 0x40 DUP3 ADD SWAP1 POP SWAP2 SWAP1 POP JUMP JUMPDEST PUSH0 PUSH1 0x20 DUP3 ADD SWAP1 POP DUP2 DUP2 SUB PUSH0 DUP4 ADD MSTORE PUSH2 0x3EC DUP2 PUSH2 0x3B3 JUMP JUMPDEST SWAP1 POP SWAP2 SWAP1 POP JUMP JUMPDEST PUSH32 0x4E487B7100000000000000000000000000000000000000000000000000000000 PUSH0 MSTORE PUSH1 0x1 PUSH1 0x4 MSTORE PUSH1 0x24 PUSH0 REVERT JUMPDEST PUSH32 0x736F7272792C207765206F6E6C792074616B65206170706C6963616E74732062 PUSH0 DUP3 ADD MSTORE PUSH32 0x656C6F7720333520796561727300000000000000000000000000000000000000 PUSH1 0x20 DUP3 ADD MSTORE POP JUMP JUMPDEST PUSH0 PUSH2 0x47A PUSH1 0x2D DUP4 PUSH2 0x355 JUMP JUMPDEST SWAP2 POP PUSH2 0x485 DUP3 PUSH2 0x420 JUMP JUMPDEST PUSH1 0x40 DUP3 ADD SWAP1 POP SWAP2 SWAP1 POP JUMP JUMPDEST PUSH0 PUSH1 0x20 DUP3 ADD SWAP1 POP DUP2 DUP2 SUB PUSH0 DUP4 ADD MSTORE PUSH2 0x4A7 DUP2 PUSH2 0x46E JUMP JUMPDEST SWAP1 POP SWAP2 SWAP1 POP JUMP JUMPDEST PUSH0 DUP2 MLOAD SWAP1 POP SWAP2 SWAP1 POP JUMP JUMPDEST PUSH32 0x4E487B7100000000000000000000000000000000000000000000000000000000 PUSH0 MSTORE PUSH1 0x22 PUSH1 0x4 MSTORE PUSH1 0x24 PUSH0 REVERT JUMPDEST PUSH0 PUSH1 0x2 DUP3 DIV SWAP1 POP PUSH1 0x1 DUP3 AND DUP1 PUSH2 0x4FC JUMPI PUSH1 0x7F DUP3 AND SWAP2 POP JUMPDEST PUSH1 0x20 DUP3 LT DUP2 SUB PUSH2 0x50F JUMPI PUSH2 0x50E PUSH2 0x4B8 JUMP JUMPDEST JUMPDEST POP SWAP2 SWAP1 POP JUMP JUMPDEST PUSH0 DUP2 SWAP1 POP DUP2 PUSH0 MSTORE PUSH1 0x20 PUSH0 KECCAK256 SWAP1 POP SWAP2 SWAP1 POP JUMP JUMPDEST PUSH0 PUSH1 0x20 PUSH1 0x1F DUP4 ADD DIV SWAP1 POP SWAP2 SWAP1 POP JUMP JUMPDEST PUSH0 DUP3 DUP3 SHL SWAP1 POP SWAP3 SWAP2 POP POP JUMP JUMPDEST PUSH0 PUSH1 0x8 DUP4 MUL PUSH2 0x571 PUSH32 0xFFFFFFFFFFFFFFFFFFFFFFFFFFFFFFFFFFFFFFFFFFFFFFFFFFFFFFFFFFFFFFFF DUP3 PUSH2 0x536 JUMP JUMPDEST PUSH2 0x57B DUP7 DUP4 PUSH2 0x536 JUMP JUMPDEST SWAP6 POP DUP1 NOT DUP5 AND SWAP4 POP DUP1 DUP7 AND DUP5 OR SWAP3 POP POP POP SWAP4 SWAP3 POP POP POP JUMP JUMPDEST PUSH0 DUP2 SWAP1 POP SWAP2 SWAP1 POP JUMP JUMPDEST PUSH0 DUP2 SWAP1 POP SWAP2 SWAP1 POP JUMP JUMPDEST PUSH0 PUSH2 0x5BF PUSH2 0x5BA PUSH2 0x5B5 DUP5 PUSH2 0x593 JUMP JUMPDEST PUSH2 0x59C JUMP JUMPDEST PUSH2 0x593 JUMP JUMPDEST SWAP1 POP SWAP2 SWAP1 POP JUMP JUMPDEST PUSH0 DUP2 SWAP1 POP SWAP2 SWAP1 POP JUMP JUMPDEST PUSH2 0x5D8 DUP4 PUSH2 0x5A5 JUMP JUMPDEST PUSH2 0x5EC PUSH2 0x5E4 DUP3 PUSH2 0x5C6 JUMP JUMPDEST DUP5 DUP5 SLOAD PUSH2 0x542 JUMP JUMPDEST DUP3 SSTORE POP POP POP POP JUMP JUMPDEST PUSH0 SWAP1 JUMP JUMPDEST PUSH2 0x600 PUSH2 0x5F4 JUMP JUMPDEST PUSH2 0x60B DUP2 DUP5 DUP5 PUSH2 0x5CF JUMP JUMPDEST POP POP POP JUMP JUMPDEST JUMPDEST DUP2 DUP2 LT ISZERO PUSH2 0x62E JUMPI PUSH2 0x623 PUSH0 DUP3 PUSH2 0x5F8 JUMP JUMPDEST PUSH1 0x1 DUP2 ADD SWAP1 POP PUSH2 0x611 JUMP JUMPDEST POP POP JUMP JUMPDEST PUSH1 0x1F DUP3 GT ISZERO PUSH2 0x673 JUMPI PUSH2 0x644 DUP2 PUSH2 0x515 JUMP JUMPDEST PUSH2 0x64D DUP5 PUSH2 0x527 JUMP JUMPDEST DUP2 ADD PUSH1 0x20 DUP6 LT ISZERO PUSH2 0x65C JUMPI DUP2 SWAP1 POP JUMPDEST PUSH2 0x670 PUSH2 0x668 DUP6 PUSH2 0x527 JUMP JUMPDEST DUP4 ADD DUP3 PUSH2 0x610 JUMP JUMPDEST POP POP JUMPDEST POP POP POP JUMP JUMPDEST PUSH0 DUP3 DUP3 SHR SWAP1 POP SWAP3 SWAP2 POP POP JUMP JUMPDEST PUSH0 PUSH2 0x693 PUSH0 NOT DUP5 PUSH1 0x8 MUL PUSH2 0x678 JUMP JUMPDEST NOT DUP1 DUP4 AND SWAP2 POP POP SWAP3 SWAP2 POP POP JUMP JUMPDEST PUSH0 PUSH2 0x6AB DUP4 DUP4 PUSH2 0x684 JUMP JUMPDEST SWAP2 POP DUP3 PUSH1 0x2 MUL DUP3 OR SWAP1 POP SWAP3 SWAP2 POP POP JUMP JUMPDEST PUSH2 0x6C4 DUP3 PUSH2 0x4AE JUMP JUMPDEST PUSH8 0xFFFFFFFFFFFFFFFF DUP2 GT ISZERO PUSH2 0x6DD JUMPI PUSH2 0x6DC PUSH2 0x1A1 JUMP JUMPDEST JUMPDEST PUSH2 0x6E7 DUP3 SLOAD PUSH2 0x4E5 JUMP JUMPDEST PUSH2 0x6F2 DUP3 DUP3 DUP6 PUSH2 0x632 JUMP JUMPDEST PUSH0 PUSH1 0x20 SWAP1 POP PUSH1 0x1F DUP4 GT PUSH1 0x1 DUP2 EQ PUSH2 0x723 JUMPI PUSH0 DUP5 ISZERO PUSH2 0x711 JUMPI DUP3 DUP8 ADD MLOAD SWAP1 POP JUMPDEST PUSH2 0x71B DUP6 DUP3 PUSH2 0x6A0 JUMP JUMPDEST DUP7 SSTORE POP PUSH2 0x782 JUMP JUMPDEST PUSH1 0x1F NOT DUP5 AND PUSH2 0x731 DUP7 PUSH2 0x515 JUMP JUMPDEST PUSH0 JUMPDEST DUP3 DUP2 LT ISZERO PUSH2 0x758 JUMPI DUP5 DUP10 ADD MLOAD DUP3 SSTORE PUSH1 0x1 DUP3 ADD SWAP2 POP PUSH1 0x20 DUP6 ADD SWAP5 POP PUSH1 0x20 DUP2 ADD SWAP1 POP PUSH2 0x733 JUMP JUMPDEST DUP7 DUP4 LT ISZERO PUSH2 0x775 JUMPI DUP5 DUP10 ADD MLOAD PUSH2 0x771 PUSH1 0x1F DUP10 AND DUP3 PUSH2 0x684 JUMP JUMPDEST DUP4 SSTORE POP JUMPDEST PUSH1 0x1 PUSH1 0x2 DUP9 MUL ADD DUP9 SSTORE POP POP POP JUMPDEST POP POP POP POP POP POP JUMP INVALID LOG2 PUSH5 0x6970667358 0x22 SLT KECCAK256 0x26 DUP13 LOG4 0xD6 SWAP6 0x2A 0xCA DUP12 SWAP12 OR 0xD9 GASLIMIT PUSH10 0x27BB6203D113E2BEB3F9 SELFDESTRUCT ISZERO INVALID SDIV PUSH32 0xF7B55FFF64736F6C634300081800330000000000000000000000000000000000 "
				},
				"gasEstimates": {
					"creation": {
						"codeDepositCost": "396800",
						"executionCost": "428",
						"totalCost": "397228"
					},
					"external": {
						"registerStudent(string,uint8)": "infinite"
					}
				},
				"methodIdentifiers": {
					"registerStudent(string,uint8)": "73203ef1"
				}
			},
			"storageLayout": {
				"storage": [
					{
						"astId": 11,
						"contract": "contracts/metacraft/Errorhandling.sol:StudentRegister",
						"label": "details",
						"offset": 0,
						"slot": "0",
						"type": "t_mapping(t_address,t_struct(Students)6_storage)"
					}
				],
				"types": {
					"t_address": {
						"encoding": "inplace",
						"label": "address",
						"numberOfBytes": "20"
					},
					"t_mapping(t_address,t_struct(Students)6_storage)": {
						"encoding": "mapping",
						"key": "t_address",
						"label": "mapping(address => struct StudentRegister.Students)",
						"numberOfBytes": "32",
						"value": "t_struct(Students)6_storage"
					},
					"t_string_storage": {
						"encoding": "bytes",
						"label": "string",
						"numberOfBytes": "32"
					},
					"t_struct(Students)6_storage": {
						"encoding": "inplace",
						"label": "struct StudentRegister.Students",
						"members": [
							{
								"astId": 3,
								"contract": "contracts/metacraft/Errorhandling.sol:StudentRegister",
								"label": "Name",
								"offset": 0,
								"slot": "0",
								"type": "t_string_storage"
							},
							{
								"astId": 5,
								"contract": "contracts/metacraft/Errorhandling.sol:StudentRegister",
								"label": "Age",
								"offset": 0,
								"slot": "1",
								"type": "t_uint8"
							}
						],
						"numberOfBytes": "64"
					},
					"t_uint8": {
						"encoding": "inplace",
						"label": "uint8",
						"numberOfBytes": "1"
					}
				}
			},
			"userdoc": {
				"kind": "user",
				"methods": {},
				"version": 1
			}
		}
	}
}