{
	"cas/TodoList.sol": {
		"TodoList": {
			"abi": [
				{
					"inputs": [
						{
							"internalType": "string",
							"name": "_title",
							"type": "string"
						},
						{
							"internalType": "string",
							"name": "_description",
							"type": "string"
						}
					],
					"name": "createTodos",
					"outputs": [],
					"stateMutability": "nonpayable",
					"type": "function"
				},
				{
					"inputs": [
						{
							"internalType": "uint256",
							"name": "_index",
							"type": "uint256"
						}
					],
					"name": "deleteTodos",
					"outputs": [],
					"stateMutability": "nonpayable",
					"type": "function"
				},
				{
					"inputs": [],
					"name": "getTodos",
					"outputs": [
						{
							"components": [
								{
									"internalType": "string",
									"name": "Title",
									"type": "string"
								},
								{
									"internalType": "string",
									"name": "description",
									"type": "string"
								},
								{
									"internalType": "bool",
									"name": "completed",
									"type": "bool"
								}
							],
							"internalType": "struct TodoList.Todo[]",
							"name": "",
							"type": "tuple[]"
						}
					],
					"stateMutability": "view",
					"type": "function"
				},
				{
					"inputs": [
						{
							"internalType": "uint256",
							"name": "_index",
							"type": "uint256"
						}
					],
					"name": "toggleTodos",
					"outputs": [],
					"stateMutability": "nonpayable",
					"type": "function"
				},
				{
					"inputs": [
						{
							"internalType": "uint256",
							"name": "_index",
							"type": "uint256"
						},
						{
							"internalType": "string",
							"name": "_title",
							"type": "string"
						},
						{
							"internalType": "string",
							"name": "_description",
							"type": "string"
						}
					],
					"name": "updateTodos",
					"outputs": [],
					"stateMutability": "nonpayable",
					"type": "function"
				}
			],
			"devdoc": {
				"kind": "dev",
				"methods": {},
				"version": 1
			},
			"evm": {
				"assembly": "    /* \"cas/TodoList.sol\":56:1092  contract TodoList {... */\n  mstore(0x40, 0x80)\n  callvalue\n  dup1\n  iszero\n  tag_1\n  jumpi\n  0x00\n  dup1\n  revert\ntag_1:\n  pop\n  dataSize(sub_0)\n  dup1\n  dataOffset(sub_0)\n  0x00\n  codecopy\n  0x00\n  return\nstop\n\nsub_0: assembly {\n        /* \"cas/TodoList.sol\":56:1092  contract TodoList {... */\n      mstore(0x40, 0x80)\n      callvalue\n      dup1\n      iszero\n      tag_1\n      jumpi\n      0x00\n      dup1\n      revert\n    tag_1:\n      pop\n      jumpi(tag_2, lt(calldatasize, 0x04))\n      shr(0xe0, calldataload(0x00))\n      dup1\n      0x81965f00\n      eq\n      tag_3\n      jumpi\n      dup1\n      0xa9ae8f63\n      eq\n      tag_4\n      jumpi\n      dup1\n      0xc33926cb\n      eq\n      tag_5\n      jumpi\n      dup1\n      0xcce4b473\n      eq\n      tag_6\n      jumpi\n      dup1\n      0xeefaac93\n      eq\n      tag_7\n      jumpi\n    tag_2:\n      0x00\n      dup1\n      revert\n        /* \"cas/TodoList.sol\":623:741  function toggleTodos(uint _index) external {... */\n    tag_3:\n      tag_8\n      0x04\n      dup1\n      calldatasize\n      sub\n      dup2\n      add\n      swap1\n      tag_9\n      swap2\n      swap1\n      tag_10\n      jump\t// in\n    tag_9:\n      tag_11\n      jump\t// in\n    tag_8:\n      stop\n        /* \"cas/TodoList.sol\":777:965  function updateTodos(uint _index, string memory _title, string memory _description) external {... */\n    tag_4:\n      tag_12\n      0x04\n      dup1\n      calldatasize\n      sub\n      dup2\n      add\n      swap1\n      tag_13\n      swap2\n      swap1\n      tag_14\n      jump\t// in\n    tag_13:\n      tag_15\n      jump\t// in\n    tag_12:\n      stop\n        /* \"cas/TodoList.sol\":517:601  function getTodos() public view returns(Todo[] memory) {... */\n    tag_5:\n      tag_16\n      tag_17\n      jump\t// in\n    tag_16:\n      mload(0x40)\n      tag_18\n      swap2\n      swap1\n      tag_19\n      jump\t// in\n    tag_18:\n      mload(0x40)\n      dup1\n      swap2\n      sub\n      swap1\n      return\n        /* \"cas/TodoList.sol\":1009:1089  function deleteTodos(uint _index) external {... */\n    tag_6:\n      tag_20\n      0x04\n      dup1\n      calldatasize\n      sub\n      dup2\n      add\n      swap1\n      tag_21\n      swap2\n      swap1\n      tag_10\n      jump\t// in\n    tag_21:\n      tag_22\n      jump\t// in\n    tag_20:\n      stop\n        /* \"cas/TodoList.sol\":269:480  function createTodos(string memory _title, string memory _description) public {... */\n    tag_7:\n      tag_23\n      0x04\n      dup1\n      calldatasize\n      sub\n      dup2\n      add\n      swap1\n      tag_24\n      swap2\n      swap1\n      tag_25\n      jump\t// in\n    tag_24:\n      tag_26\n      jump\t// in\n    tag_23:\n      stop\n        /* \"cas/TodoList.sol\":623:741  function toggleTodos(uint _index) external {... */\n    tag_11:\n        /* \"cas/TodoList.sol\":703:708  todos */\n      0x00\n        /* \"cas/TodoList.sol\":709:715  _index */\n      dup2\n        /* \"cas/TodoList.sol\":703:716  todos[_index] */\n      dup2\n      sload\n      dup2\n      lt\n      tag_28\n      jumpi\n      tag_29\n      tag_30\n      jump\t// in\n    tag_29:\n    tag_28:\n      swap1\n      0x00\n      mstore\n      keccak256(0x00, 0x20)\n      swap1\n      0x03\n      mul\n      add\n        /* \"cas/TodoList.sol\":703:726  todos[_index].completed */\n      0x02\n      add\n      0x00\n      swap1\n      sload\n      swap1\n      0x0100\n      exp\n      swap1\n      div\n      0xff\n      and\n        /* \"cas/TodoList.sol\":702:726  !todos[_index].completed */\n      iszero\n        /* \"cas/TodoList.sol\":676:681  todos */\n      0x00\n        /* \"cas/TodoList.sol\":682:688  _index */\n      dup3\n        /* \"cas/TodoList.sol\":676:689  todos[_index] */\n      dup2\n      sload\n      dup2\n      lt\n      tag_32\n      jumpi\n      tag_33\n      tag_30\n      jump\t// in\n    tag_33:\n    tag_32:\n      swap1\n      0x00\n      mstore\n      keccak256(0x00, 0x20)\n      swap1\n      0x03\n      mul\n      add\n        /* \"cas/TodoList.sol\":676:699  todos[_index].completed */\n      0x02\n      add\n      0x00\n        /* \"cas/TodoList.sol\":676:726  todos[_index].completed = !todos[_index].completed */\n      0x0100\n      exp\n      dup2\n      sload\n      dup2\n      0xff\n      mul\n      not\n      and\n      swap1\n      dup4\n      iszero\n      iszero\n      mul\n      or\n      swap1\n      sstore\n      pop\n        /* \"cas/TodoList.sol\":623:741  function toggleTodos(uint _index) external {... */\n      pop\n      jump\t// out\n        /* \"cas/TodoList.sol\":777:965  function updateTodos(uint _index, string memory _title, string memory _description) external {... */\n    tag_15:\n        /* \"cas/TodoList.sol\":902:908  _title */\n      dup2\n        /* \"cas/TodoList.sol\":880:885  todos */\n      0x00\n        /* \"cas/TodoList.sol\":886:892  _index */\n      dup5\n        /* \"cas/TodoList.sol\":880:893  todos[_index] */\n      dup2\n      sload\n      dup2\n      lt\n      tag_36\n      jumpi\n      tag_37\n      tag_30\n      jump\t// in\n    tag_37:\n    tag_36:\n      swap1\n      0x00\n      mstore\n      keccak256(0x00, 0x20)\n      swap1\n      0x03\n      mul\n      add\n        /* \"cas/TodoList.sol\":880:899  todos[_index].Title */\n      0x00\n      add\n        /* \"cas/TodoList.sol\":880:908  todos[_index].Title = _title */\n      swap1\n      dup2\n      tag_39\n      swap2\n      swap1\n      tag_40\n      jump\t// in\n    tag_39:\n      pop\n        /* \"cas/TodoList.sol\":946:958  _description */\n      dup1\n        /* \"cas/TodoList.sol\":918:923  todos */\n      0x00\n        /* \"cas/TodoList.sol\":924:930  _index */\n      dup5\n        /* \"cas/TodoList.sol\":918:931  todos[_index] */\n      dup2\n      sload\n      dup2\n      lt\n      tag_41\n      jumpi\n      tag_42\n      tag_30\n      jump\t// in\n    tag_42:\n    tag_41:\n      swap1\n      0x00\n      mstore\n      keccak256(0x00, 0x20)\n      swap1\n      0x03\n      mul\n      add\n        /* \"cas/TodoList.sol\":918:943  todos[_index].description */\n      0x01\n      add\n        /* \"cas/TodoList.sol\":918:958  todos[_index].description = _description */\n      swap1\n      dup2\n      tag_44\n      swap2\n      swap1\n      tag_40\n      jump\t// in\n    tag_44:\n      pop\n        /* \"cas/TodoList.sol\":777:965  function updateTodos(uint _index, string memory _title, string memory _description) external {... */\n      pop\n      pop\n      pop\n      jump\t// out\n        /* \"cas/TodoList.sol\":517:601  function getTodos() public view returns(Todo[] memory) {... */\n    tag_17:\n        /* \"cas/TodoList.sol\":557:570  Todo[] memory */\n      0x60\n        /* \"cas/TodoList.sol\":589:594  todos */\n      0x00\n        /* \"cas/TodoList.sol\":582:594  return todos */\n      dup1\n      sload\n      dup1\n      0x20\n      mul\n      0x20\n      add\n      mload(0x40)\n      swap1\n      dup2\n      add\n      0x40\n      mstore\n      dup1\n      swap3\n      swap2\n      swap1\n      dup2\n      dup2\n      mstore\n      0x20\n      add\n      0x00\n      swap1\n    tag_46:\n      dup3\n      dup3\n      lt\n      iszero\n      tag_47\n      jumpi\n      dup4\n      dup3\n      swap1\n      0x00\n      mstore\n      keccak256(0x00, 0x20)\n      swap1\n      0x03\n      mul\n      add\n      mload(0x40)\n      dup1\n      0x60\n      add\n      0x40\n      mstore\n      swap1\n      dup2\n      0x00\n      dup3\n      add\n      dup1\n      sload\n      tag_49\n      swap1\n      tag_50\n      jump\t// in\n    tag_49:\n      dup1\n      0x1f\n      add\n      0x20\n      dup1\n      swap2\n      div\n      mul\n      0x20\n      add\n      mload(0x40)\n      swap1\n      dup2\n      add\n      0x40\n      mstore\n      dup1\n      swap3\n      swap2\n      swap1\n      dup2\n      dup2\n      mstore\n      0x20\n      add\n      dup3\n      dup1\n      sload\n      tag_51\n      swap1\n      tag_50\n      jump\t// in\n    tag_51:\n      dup1\n      iszero\n      tag_52\n      jumpi\n      dup1\n      0x1f\n      lt\n      tag_53\n      jumpi\n      0x0100\n      dup1\n      dup4\n      sload\n      div\n      mul\n      dup4\n      mstore\n      swap2\n      0x20\n      add\n      swap2\n      jump(tag_52)\n    tag_53:\n      dup3\n      add\n      swap2\n      swap1\n      0x00\n      mstore\n      keccak256(0x00, 0x20)\n      swap1\n    tag_54:\n      dup2\n      sload\n      dup2\n      mstore\n      swap1\n      0x01\n      add\n      swap1\n      0x20\n      add\n      dup1\n      dup4\n      gt\n      tag_54\n      jumpi\n      dup3\n      swap1\n      sub\n      0x1f\n      and\n      dup3\n      add\n      swap2\n    tag_52:\n      pop\n      pop\n      pop\n      pop\n      pop\n      dup2\n      mstore\n      0x20\n      add\n      0x01\n      dup3\n      add\n      dup1\n      sload\n      tag_55\n      swap1\n      tag_50\n      jump\t// in\n    tag_55:\n      dup1\n      0x1f\n      add\n      0x20\n      dup1\n      swap2\n      div\n      mul\n      0x20\n      add\n      mload(0x40)\n      swap1\n      dup2\n      add\n      0x40\n      mstore\n      dup1\n      swap3\n      swap2\n      swap1\n      dup2\n      dup2\n      mstore\n      0x20\n      add\n      dup3\n      dup1\n      sload\n      tag_56\n      swap1\n      tag_50\n      jump\t// in\n    tag_56:\n      dup1\n      iszero\n      tag_57\n      jumpi\n      dup1\n      0x1f\n      lt\n      tag_58\n      jumpi\n      0x0100\n      dup1\n      dup4\n      sload\n      div\n      mul\n      dup4\n      mstore\n      swap2\n      0x20\n      add\n      swap2\n      jump(tag_57)\n    tag_58:\n      dup3\n      add\n      swap2\n      swap1\n      0x00\n      mstore\n      keccak256(0x00, 0x20)\n      swap1\n    tag_59:\n      dup2\n      sload\n      dup2\n      mstore\n      swap1\n      0x01\n      add\n      swap1\n      0x20\n      add\n      dup1\n      dup4\n      gt\n      tag_59\n      jumpi\n      dup3\n      swap1\n      sub\n      0x1f\n      and\n      dup3\n      add\n      swap2\n    tag_57:\n      pop\n      pop\n      pop\n      pop\n      pop\n      dup2\n      mstore\n      0x20\n      add\n      0x02\n      dup3\n      add\n      0x00\n      swap1\n      sload\n      swap1\n      0x0100\n      exp\n      swap1\n      div\n      0xff\n      and\n      iszero\n      iszero\n      iszero\n      iszero\n      dup2\n      mstore\n      pop\n      pop\n      dup2\n      mstore\n      0x20\n      add\n      swap1\n      0x01\n      add\n      swap1\n      jump(tag_46)\n    tag_47:\n      pop\n      pop\n      pop\n      pop\n      swap1\n      pop\n        /* \"cas/TodoList.sol\":517:601  function getTodos() public view returns(Todo[] memory) {... */\n      swap1\n      jump\t// out\n        /* \"cas/TodoList.sol\":1009:1089  function deleteTodos(uint _index) external {... */\n    tag_22:\n        /* \"cas/TodoList.sol\":1069:1074  todos */\n      0x00\n        /* \"cas/TodoList.sol\":1075:1081  _index */\n      dup2\n        /* \"cas/TodoList.sol\":1069:1082  todos[_index] */\n      dup2\n      sload\n      dup2\n      lt\n      tag_61\n      jumpi\n      tag_62\n      tag_30\n      jump\t// in\n    tag_62:\n    tag_61:\n      swap1\n      0x00\n      mstore\n      keccak256(0x00, 0x20)\n      swap1\n      0x03\n      mul\n      add\n      0x00\n        /* \"cas/TodoList.sol\":1062:1082  delete todos[_index] */\n      dup1\n      dup3\n      add\n      0x00\n      tag_64\n      swap2\n      swap1\n      tag_65\n      jump\t// in\n    tag_64:\n      0x01\n      dup3\n      add\n      0x00\n      tag_66\n      swap2\n      swap1\n      tag_65\n      jump\t// in\n    tag_66:\n      0x02\n      dup3\n      add\n      exp(0x0100, 0x00)\n      dup2\n      sload\n      swap1\n      0xff\n      mul\n      not\n      and\n      swap1\n      sstore\n      pop\n      pop\n        /* \"cas/TodoList.sol\":1009:1089  function deleteTodos(uint _index) external {... */\n      pop\n      jump\t// out\n        /* \"cas/TodoList.sol\":269:480  function createTodos(string memory _title, string memory _description) public {... */\n    tag_26:\n        /* \"cas/TodoList.sol\":357:373  Todo memory todo */\n      tag_68\n      tag_69\n      jump\t// in\n    tag_68:\n        /* \"cas/TodoList.sol\":396:402  _title */\n      dup3\n        /* \"cas/TodoList.sol\":383:387  todo */\n      dup2\n        /* \"cas/TodoList.sol\":383:393  todo.Title */\n      0x00\n      add\n        /* \"cas/TodoList.sol\":383:402  todo.Title = _title */\n      dup2\n      swap1\n      mstore\n      pop\n        /* \"cas/TodoList.sol\":431:443  _description */\n      dup2\n        /* \"cas/TodoList.sol\":412:416  todo */\n      dup2\n        /* \"cas/TodoList.sol\":412:428  todo.description */\n      0x20\n      add\n        /* \"cas/TodoList.sol\":412:443  todo.description = _description */\n      dup2\n      swap1\n      mstore\n      pop\n        /* \"cas/TodoList.sol\":453:458  todos */\n      0x00\n        /* \"cas/TodoList.sol\":464:468  todo */\n      dup2\n        /* \"cas/TodoList.sol\":453:469  todos.push(todo) */\n      swap1\n      dup1\n      0x01\n      dup2\n      sload\n      add\n      dup1\n      dup3\n      sstore\n      dup1\n      swap2\n      pop\n      pop\n      0x01\n      swap1\n      sub\n      swap1\n      0x00\n      mstore\n      keccak256(0x00, 0x20)\n      swap1\n      0x03\n      mul\n      add\n      0x00\n      swap1\n      swap2\n      swap1\n      swap2\n      swap1\n      swap2\n      pop\n      0x00\n      dup3\n      add\n      mload\n      dup2\n      0x00\n      add\n      swap1\n      dup2\n      tag_71\n      swap2\n      swap1\n      tag_40\n      jump\t// in\n    tag_71:\n      pop\n      0x20\n      dup3\n      add\n      mload\n      dup2\n      0x01\n      add\n      swap1\n      dup2\n      tag_72\n      swap2\n      swap1\n      tag_40\n      jump\t// in\n    tag_72:\n      pop\n      0x40\n      dup3\n      add\n      mload\n      dup2\n      0x02\n      add\n      exp(0x0100, 0x00)\n      dup2\n      sload\n      dup2\n      0xff\n      mul\n      not\n      and\n      swap1\n      dup4\n      iszero\n      iszero\n      mul\n      or\n      swap1\n      sstore\n      pop\n      pop\n      pop\n        /* \"cas/TodoList.sol\":347:480  {... */\n      pop\n        /* \"cas/TodoList.sol\":269:480  function createTodos(string memory _title, string memory _description) public {... */\n      pop\n      pop\n      jump\t// out\n    tag_65:\n      pop\n      dup1\n      sload\n      tag_73\n      swap1\n      tag_50\n      jump\t// in\n    tag_73:\n      0x00\n      dup3\n      sstore\n      dup1\n      0x1f\n      lt\n      tag_75\n      jumpi\n      pop\n      jump(tag_74)\n    tag_75:\n      0x1f\n      add\n      0x20\n      swap1\n      div\n      swap1\n      0x00\n      mstore\n      keccak256(0x00, 0x20)\n      swap1\n      dup2\n      add\n      swap1\n      tag_76\n      swap2\n      swap1\n      tag_77\n      jump\t// in\n    tag_76:\n    tag_74:\n      pop\n      jump\t// out\n    tag_69:\n      mload(0x40)\n      dup1\n      0x60\n      add\n      0x40\n      mstore\n      dup1\n      0x60\n      dup2\n      mstore\n      0x20\n      add\n      0x60\n      dup2\n      mstore\n      0x20\n      add\n      iszero(iszero(0x00))\n      dup2\n      mstore\n      pop\n      swap1\n      jump\t// out\n    tag_77:\n    tag_78:\n      dup1\n      dup3\n      gt\n      iszero\n      tag_79\n      jumpi\n      0x00\n      dup2\n      0x00\n      swap1\n      sstore\n      pop\n      0x01\n      add\n      jump(tag_78)\n    tag_79:\n      pop\n      swap1\n      jump\t// out\n        /* \"#utility.yul\":7:82   */\n    tag_80:\n        /* \"#utility.yul\":40:46   */\n      0x00\n        /* \"#utility.yul\":73:75   */\n      0x40\n        /* \"#utility.yul\":67:76   */\n      mload\n        /* \"#utility.yul\":57:76   */\n      swap1\n      pop\n        /* \"#utility.yul\":7:82   */\n      swap1\n      jump\t// out\n        /* \"#utility.yul\":88:205   */\n    tag_81:\n        /* \"#utility.yul\":197:198   */\n      0x00\n        /* \"#utility.yul\":194:195   */\n      dup1\n        /* \"#utility.yul\":187:199   */\n      revert\n        /* \"#utility.yul\":211:328   */\n    tag_82:\n        /* \"#utility.yul\":320:321   */\n      0x00\n        /* \"#utility.yul\":317:318   */\n      dup1\n        /* \"#utility.yul\":310:322   */\n      revert\n        /* \"#utility.yul\":334:411   */\n    tag_83:\n        /* \"#utility.yul\":371:378   */\n      0x00\n        /* \"#utility.yul\":400:405   */\n      dup2\n        /* \"#utility.yul\":389:405   */\n      swap1\n      pop\n        /* \"#utility.yul\":334:411   */\n      swap2\n      swap1\n      pop\n      jump\t// out\n        /* \"#utility.yul\":417:539   */\n    tag_84:\n        /* \"#utility.yul\":490:514   */\n      tag_131\n        /* \"#utility.yul\":508:513   */\n      dup2\n        /* \"#utility.yul\":490:514   */\n      tag_83\n      jump\t// in\n    tag_131:\n        /* \"#utility.yul\":483:488   */\n      dup2\n        /* \"#utility.yul\":480:515   */\n      eq\n        /* \"#utility.yul\":470:533   */\n      tag_132\n      jumpi\n        /* \"#utility.yul\":529:530   */\n      0x00\n        /* \"#utility.yul\":526:527   */\n      dup1\n        /* \"#utility.yul\":519:531   */\n      revert\n        /* \"#utility.yul\":470:533   */\n    tag_132:\n        /* \"#utility.yul\":417:539   */\n      pop\n      jump\t// out\n        /* \"#utility.yul\":545:684   */\n    tag_85:\n        /* \"#utility.yul\":591:596   */\n      0x00\n        /* \"#utility.yul\":629:635   */\n      dup2\n        /* \"#utility.yul\":616:636   */\n      calldataload\n        /* \"#utility.yul\":607:636   */\n      swap1\n      pop\n        /* \"#utility.yul\":645:678   */\n      tag_134\n        /* \"#utility.yul\":672:677   */\n      dup2\n        /* \"#utility.yul\":645:678   */\n      tag_84\n      jump\t// in\n    tag_134:\n        /* \"#utility.yul\":545:684   */\n      swap3\n      swap2\n      pop\n      pop\n      jump\t// out\n        /* \"#utility.yul\":690:1019   */\n    tag_10:\n        /* \"#utility.yul\":749:755   */\n      0x00\n        /* \"#utility.yul\":798:800   */\n      0x20\n        /* \"#utility.yul\":786:795   */\n      dup3\n        /* \"#utility.yul\":777:784   */\n      dup5\n        /* \"#utility.yul\":773:796   */\n      sub\n        /* \"#utility.yul\":769:801   */\n      slt\n        /* \"#utility.yul\":766:885   */\n      iszero\n      tag_136\n      jumpi\n        /* \"#utility.yul\":804:883   */\n      tag_137\n      tag_81\n      jump\t// in\n    tag_137:\n        /* \"#utility.yul\":766:885   */\n    tag_136:\n        /* \"#utility.yul\":924:925   */\n      0x00\n        /* \"#utility.yul\":949:1002   */\n      tag_138\n        /* \"#utility.yul\":994:1001   */\n      dup5\n        /* \"#utility.yul\":985:991   */\n      dup3\n        /* \"#utility.yul\":974:983   */\n      dup6\n        /* \"#utility.yul\":970:992   */\n      add\n        /* \"#utility.yul\":949:1002   */\n      tag_85\n      jump\t// in\n    tag_138:\n        /* \"#utility.yul\":939:1002   */\n      swap2\n      pop\n        /* \"#utility.yul\":895:1012   */\n      pop\n        /* \"#utility.yul\":690:1019   */\n      swap3\n      swap2\n      pop\n      pop\n      jump\t// out\n        /* \"#utility.yul\":1025:1142   */\n    tag_86:\n        /* \"#utility.yul\":1134:1135   */\n      0x00\n        /* \"#utility.yul\":1131:1132   */\n      dup1\n        /* \"#utility.yul\":1124:1136   */\n      revert\n        /* \"#utility.yul\":1148:1265   */\n    tag_87:\n        /* \"#utility.yul\":1257:1258   */\n      0x00\n        /* \"#utility.yul\":1254:1255   */\n      dup1\n        /* \"#utility.yul\":1247:1259   */\n      revert\n        /* \"#utility.yul\":1271:1373   */\n    tag_88:\n        /* \"#utility.yul\":1312:1318   */\n      0x00\n        /* \"#utility.yul\":1363:1365   */\n      0x1f\n        /* \"#utility.yul\":1359:1366   */\n      not\n        /* \"#utility.yul\":1354:1356   */\n      0x1f\n        /* \"#utility.yul\":1347:1352   */\n      dup4\n        /* \"#utility.yul\":1343:1357   */\n      add\n        /* \"#utility.yul\":1339:1367   */\n      and\n        /* \"#utility.yul\":1329:1367   */\n      swap1\n      pop\n        /* \"#utility.yul\":1271:1373   */\n      swap2\n      swap1\n      pop\n      jump\t// out\n        /* \"#utility.yul\":1379:1559   */\n    tag_89:\n        /* \"#utility.yul\":1427:1504   */\n      0x4e487b7100000000000000000000000000000000000000000000000000000000\n        /* \"#utility.yul\":1424:1425   */\n      0x00\n        /* \"#utility.yul\":1417:1505   */\n      mstore\n        /* \"#utility.yul\":1524:1528   */\n      0x41\n        /* \"#utility.yul\":1521:1522   */\n      0x04\n        /* \"#utility.yul\":1514:1529   */\n      mstore\n        /* \"#utility.yul\":1548:1552   */\n      0x24\n        /* \"#utility.yul\":1545:1546   */\n      0x00\n        /* \"#utility.yul\":1538:1553   */\n      revert\n        /* \"#utility.yul\":1565:1846   */\n    tag_90:\n        /* \"#utility.yul\":1648:1675   */\n      tag_144\n        /* \"#utility.yul\":1670:1674   */\n      dup3\n        /* \"#utility.yul\":1648:1675   */\n      tag_88\n      jump\t// in\n    tag_144:\n        /* \"#utility.yul\":1640:1646   */\n      dup2\n        /* \"#utility.yul\":1636:1676   */\n      add\n        /* \"#utility.yul\":1778:1784   */\n      dup2\n        /* \"#utility.yul\":1766:1776   */\n      dup2\n        /* \"#utility.yul\":1763:1785   */\n      lt\n        /* \"#utility.yul\":1742:1760   */\n      0xffffffffffffffff\n        /* \"#utility.yul\":1730:1740   */\n      dup3\n        /* \"#utility.yul\":1727:1761   */\n      gt\n        /* \"#utility.yul\":1724:1786   */\n      or\n        /* \"#utility.yul\":1721:1809   */\n      iszero\n      tag_145\n      jumpi\n        /* \"#utility.yul\":1789:1807   */\n      tag_146\n      tag_89\n      jump\t// in\n    tag_146:\n        /* \"#utility.yul\":1721:1809   */\n    tag_145:\n        /* \"#utility.yul\":1829:1839   */\n      dup1\n        /* \"#utility.yul\":1825:1827   */\n      0x40\n        /* \"#utility.yul\":1818:1840   */\n      mstore\n        /* \"#utility.yul\":1608:1846   */\n      pop\n        /* \"#utility.yul\":1565:1846   */\n      pop\n      pop\n      jump\t// out\n        /* \"#utility.yul\":1852:1981   */\n    tag_91:\n        /* \"#utility.yul\":1886:1892   */\n      0x00\n        /* \"#utility.yul\":1913:1933   */\n      tag_148\n      tag_80\n      jump\t// in\n    tag_148:\n        /* \"#utility.yul\":1903:1933   */\n      swap1\n      pop\n        /* \"#utility.yul\":1942:1975   */\n      tag_149\n        /* \"#utility.yul\":1970:1974   */\n      dup3\n        /* \"#utility.yul\":1962:1968   */\n      dup3\n        /* \"#utility.yul\":1942:1975   */\n      tag_90\n      jump\t// in\n    tag_149:\n        /* \"#utility.yul\":1852:1981   */\n      swap2\n      swap1\n      pop\n      jump\t// out\n        /* \"#utility.yul\":1987:2295   */\n    tag_92:\n        /* \"#utility.yul\":2049:2053   */\n      0x00\n        /* \"#utility.yul\":2139:2157   */\n      0xffffffffffffffff\n        /* \"#utility.yul\":2131:2137   */\n      dup3\n        /* \"#utility.yul\":2128:2158   */\n      gt\n        /* \"#utility.yul\":2125:2181   */\n      iszero\n      tag_151\n      jumpi\n        /* \"#utility.yul\":2161:2179   */\n      tag_152\n      tag_89\n      jump\t// in\n    tag_152:\n        /* \"#utility.yul\":2125:2181   */\n    tag_151:\n        /* \"#utility.yul\":2199:2228   */\n      tag_153\n        /* \"#utility.yul\":2221:2227   */\n      dup3\n        /* \"#utility.yul\":2199:2228   */\n      tag_88\n      jump\t// in\n    tag_153:\n        /* \"#utility.yul\":2191:2228   */\n      swap1\n      pop\n        /* \"#utility.yul\":2283:2287   */\n      0x20\n        /* \"#utility.yul\":2277:2281   */\n      dup2\n        /* \"#utility.yul\":2273:2288   */\n      add\n        /* \"#utility.yul\":2265:2288   */\n      swap1\n      pop\n        /* \"#utility.yul\":1987:2295   */\n      swap2\n      swap1\n      pop\n      jump\t// out\n        /* \"#utility.yul\":2301:2447   */\n    tag_93:\n        /* \"#utility.yul\":2398:2404   */\n      dup3\n        /* \"#utility.yul\":2393:2396   */\n      dup2\n        /* \"#utility.yul\":2388:2391   */\n      dup4\n        /* \"#utility.yul\":2375:2405   */\n      calldatacopy\n        /* \"#utility.yul\":2439:2440   */\n      0x00\n        /* \"#utility.yul\":2430:2436   */\n      dup4\n        /* \"#utility.yul\":2425:2428   */\n      dup4\n        /* \"#utility.yul\":2421:2437   */\n      add\n        /* \"#utility.yul\":2414:2441   */\n      mstore\n        /* \"#utility.yul\":2301:2447   */\n      pop\n      pop\n      pop\n      jump\t// out\n        /* \"#utility.yul\":2453:2878   */\n    tag_94:\n        /* \"#utility.yul\":2531:2536   */\n      0x00\n        /* \"#utility.yul\":2556:2622   */\n      tag_156\n        /* \"#utility.yul\":2572:2621   */\n      tag_157\n        /* \"#utility.yul\":2614:2620   */\n      dup5\n        /* \"#utility.yul\":2572:2621   */\n      tag_92\n      jump\t// in\n    tag_157:\n        /* \"#utility.yul\":2556:2622   */\n      tag_91\n      jump\t// in\n    tag_156:\n        /* \"#utility.yul\":2547:2622   */\n      swap1\n      pop\n        /* \"#utility.yul\":2645:2651   */\n      dup3\n        /* \"#utility.yul\":2638:2643   */\n      dup2\n        /* \"#utility.yul\":2631:2652   */\n      mstore\n        /* \"#utility.yul\":2683:2687   */\n      0x20\n        /* \"#utility.yul\":2676:2681   */\n      dup2\n        /* \"#utility.yul\":2672:2688   */\n      add\n        /* \"#utility.yul\":2721:2724   */\n      dup5\n        /* \"#utility.yul\":2712:2718   */\n      dup5\n        /* \"#utility.yul\":2707:2710   */\n      dup5\n        /* \"#utility.yul\":2703:2719   */\n      add\n        /* \"#utility.yul\":2700:2725   */\n      gt\n        /* \"#utility.yul\":2697:2809   */\n      iszero\n      tag_158\n      jumpi\n        /* \"#utility.yul\":2728:2807   */\n      tag_159\n      tag_87\n      jump\t// in\n    tag_159:\n        /* \"#utility.yul\":2697:2809   */\n    tag_158:\n        /* \"#utility.yul\":2818:2872   */\n      tag_160\n        /* \"#utility.yul\":2865:2871   */\n      dup5\n        /* \"#utility.yul\":2860:2863   */\n      dup3\n        /* \"#utility.yul\":2855:2858   */\n      dup6\n        /* \"#utility.yul\":2818:2872   */\n      tag_93\n      jump\t// in\n    tag_160:\n        /* \"#utility.yul\":2537:2878   */\n      pop\n        /* \"#utility.yul\":2453:2878   */\n      swap4\n      swap3\n      pop\n      pop\n      pop\n      jump\t// out\n        /* \"#utility.yul\":2898:3238   */\n    tag_95:\n        /* \"#utility.yul\":2954:2959   */\n      0x00\n        /* \"#utility.yul\":3003:3006   */\n      dup3\n        /* \"#utility.yul\":2996:3000   */\n      0x1f\n        /* \"#utility.yul\":2988:2994   */\n      dup4\n        /* \"#utility.yul\":2984:3001   */\n      add\n        /* \"#utility.yul\":2980:3007   */\n      slt\n        /* \"#utility.yul\":2970:3092   */\n      tag_162\n      jumpi\n        /* \"#utility.yul\":3011:3090   */\n      tag_163\n      tag_86\n      jump\t// in\n    tag_163:\n        /* \"#utility.yul\":2970:3092   */\n    tag_162:\n        /* \"#utility.yul\":3128:3134   */\n      dup2\n        /* \"#utility.yul\":3115:3135   */\n      calldataload\n        /* \"#utility.yul\":3153:3232   */\n      tag_164\n        /* \"#utility.yul\":3228:3231   */\n      dup5\n        /* \"#utility.yul\":3220:3226   */\n      dup3\n        /* \"#utility.yul\":3213:3217   */\n      0x20\n        /* \"#utility.yul\":3205:3211   */\n      dup7\n        /* \"#utility.yul\":3201:3218   */\n      add\n        /* \"#utility.yul\":3153:3232   */\n      tag_94\n      jump\t// in\n    tag_164:\n        /* \"#utility.yul\":3144:3232   */\n      swap2\n      pop\n        /* \"#utility.yul\":2960:3238   */\n      pop\n        /* \"#utility.yul\":2898:3238   */\n      swap3\n      swap2\n      pop\n      pop\n      jump\t// out\n        /* \"#utility.yul\":3244:4223   */\n    tag_14:\n        /* \"#utility.yul\":3341:3347   */\n      0x00\n        /* \"#utility.yul\":3349:3355   */\n      dup1\n        /* \"#utility.yul\":3357:3363   */\n      0x00\n        /* \"#utility.yul\":3406:3408   */\n      0x60\n        /* \"#utility.yul\":3394:3403   */\n      dup5\n        /* \"#utility.yul\":3385:3392   */\n      dup7\n        /* \"#utility.yul\":3381:3404   */\n      sub\n        /* \"#utility.yul\":3377:3409   */\n      slt\n        /* \"#utility.yul\":3374:3493   */\n      iszero\n      tag_166\n      jumpi\n        /* \"#utility.yul\":3412:3491   */\n      tag_167\n      tag_81\n      jump\t// in\n    tag_167:\n        /* \"#utility.yul\":3374:3493   */\n    tag_166:\n        /* \"#utility.yul\":3532:3533   */\n      0x00\n        /* \"#utility.yul\":3557:3610   */\n      tag_168\n        /* \"#utility.yul\":3602:3609   */\n      dup7\n        /* \"#utility.yul\":3593:3599   */\n      dup3\n        /* \"#utility.yul\":3582:3591   */\n      dup8\n        /* \"#utility.yul\":3578:3600   */\n      add\n        /* \"#utility.yul\":3557:3610   */\n      tag_85\n      jump\t// in\n    tag_168:\n        /* \"#utility.yul\":3547:3610   */\n      swap4\n      pop\n        /* \"#utility.yul\":3503:3620   */\n      pop\n        /* \"#utility.yul\":3687:3689   */\n      0x20\n        /* \"#utility.yul\":3676:3685   */\n      dup5\n        /* \"#utility.yul\":3672:3690   */\n      add\n        /* \"#utility.yul\":3659:3691   */\n      calldataload\n        /* \"#utility.yul\":3718:3736   */\n      0xffffffffffffffff\n        /* \"#utility.yul\":3710:3716   */\n      dup2\n        /* \"#utility.yul\":3707:3737   */\n      gt\n        /* \"#utility.yul\":3704:3821   */\n      iszero\n      tag_169\n      jumpi\n        /* \"#utility.yul\":3740:3819   */\n      tag_170\n      tag_82\n      jump\t// in\n    tag_170:\n        /* \"#utility.yul\":3704:3821   */\n    tag_169:\n        /* \"#utility.yul\":3845:3908   */\n      tag_171\n        /* \"#utility.yul\":3900:3907   */\n      dup7\n        /* \"#utility.yul\":3891:3897   */\n      dup3\n        /* \"#utility.yul\":3880:3889   */\n      dup8\n        /* \"#utility.yul\":3876:3898   */\n      add\n        /* \"#utility.yul\":3845:3908   */\n      tag_95\n      jump\t// in\n    tag_171:\n        /* \"#utility.yul\":3835:3908   */\n      swap3\n      pop\n        /* \"#utility.yul\":3630:3918   */\n      pop\n        /* \"#utility.yul\":3985:3987   */\n      0x40\n        /* \"#utility.yul\":3974:3983   */\n      dup5\n        /* \"#utility.yul\":3970:3988   */\n      add\n        /* \"#utility.yul\":3957:3989   */\n      calldataload\n        /* \"#utility.yul\":4016:4034   */\n      0xffffffffffffffff\n        /* \"#utility.yul\":4008:4014   */\n      dup2\n        /* \"#utility.yul\":4005:4035   */\n      gt\n        /* \"#utility.yul\":4002:4119   */\n      iszero\n      tag_172\n      jumpi\n        /* \"#utility.yul\":4038:4117   */\n      tag_173\n      tag_82\n      jump\t// in\n    tag_173:\n        /* \"#utility.yul\":4002:4119   */\n    tag_172:\n        /* \"#utility.yul\":4143:4206   */\n      tag_174\n        /* \"#utility.yul\":4198:4205   */\n      dup7\n        /* \"#utility.yul\":4189:4195   */\n      dup3\n        /* \"#utility.yul\":4178:4187   */\n      dup8\n        /* \"#utility.yul\":4174:4196   */\n      add\n        /* \"#utility.yul\":4143:4206   */\n      tag_95\n      jump\t// in\n    tag_174:\n        /* \"#utility.yul\":4133:4206   */\n      swap2\n      pop\n        /* \"#utility.yul\":3928:4216   */\n      pop\n        /* \"#utility.yul\":3244:4223   */\n      swap3\n      pop\n      swap3\n      pop\n      swap3\n      jump\t// out\n        /* \"#utility.yul\":4229:4362   */\n    tag_96:\n        /* \"#utility.yul\":4315:4321   */\n      0x00\n        /* \"#utility.yul\":4349:4354   */\n      dup2\n        /* \"#utility.yul\":4343:4355   */\n      mload\n        /* \"#utility.yul\":4333:4355   */\n      swap1\n      pop\n        /* \"#utility.yul\":4229:4362   */\n      swap2\n      swap1\n      pop\n      jump\t// out\n        /* \"#utility.yul\":4368:4571   */\n    tag_97:\n        /* \"#utility.yul\":4486:4497   */\n      0x00\n        /* \"#utility.yul\":4520:4526   */\n      dup3\n        /* \"#utility.yul\":4515:4518   */\n      dup3\n        /* \"#utility.yul\":4508:4527   */\n      mstore\n        /* \"#utility.yul\":4560:4564   */\n      0x20\n        /* \"#utility.yul\":4555:4558   */\n      dup3\n        /* \"#utility.yul\":4551:4565   */\n      add\n        /* \"#utility.yul\":4536:4565   */\n      swap1\n      pop\n        /* \"#utility.yul\":4368:4571   */\n      swap3\n      swap2\n      pop\n      pop\n      jump\t// out\n        /* \"#utility.yul\":4577:4728   */\n    tag_98:\n        /* \"#utility.yul\":4663:4667   */\n      0x00\n        /* \"#utility.yul\":4686:4689   */\n      dup2\n        /* \"#utility.yul\":4678:4689   */\n      swap1\n      pop\n        /* \"#utility.yul\":4716:4720   */\n      0x20\n        /* \"#utility.yul\":4711:4714   */\n      dup3\n        /* \"#utility.yul\":4707:4721   */\n      add\n        /* \"#utility.yul\":4699:4721   */\n      swap1\n      pop\n        /* \"#utility.yul\":4577:4728   */\n      swap2\n      swap1\n      pop\n      jump\t// out\n        /* \"#utility.yul\":4734:4833   */\n    tag_99:\n        /* \"#utility.yul\":4786:4792   */\n      0x00\n        /* \"#utility.yul\":4820:4825   */\n      dup2\n        /* \"#utility.yul\":4814:4826   */\n      mload\n        /* \"#utility.yul\":4804:4826   */\n      swap1\n      pop\n        /* \"#utility.yul\":4734:4833   */\n      swap2\n      swap1\n      pop\n      jump\t// out\n        /* \"#utility.yul\":4839:4998   */\n    tag_100:\n        /* \"#utility.yul\":4913:4924   */\n      0x00\n        /* \"#utility.yul\":4947:4953   */\n      dup3\n        /* \"#utility.yul\":4942:4945   */\n      dup3\n        /* \"#utility.yul\":4935:4954   */\n      mstore\n        /* \"#utility.yul\":4987:4991   */\n      0x20\n        /* \"#utility.yul\":4982:4985   */\n      dup3\n        /* \"#utility.yul\":4978:4992   */\n      add\n        /* \"#utility.yul\":4963:4992   */\n      swap1\n      pop\n        /* \"#utility.yul\":4839:4998   */\n      swap3\n      swap2\n      pop\n      pop\n      jump\t// out\n        /* \"#utility.yul\":5004:5250   */\n    tag_101:\n        /* \"#utility.yul\":5085:5086   */\n      0x00\n        /* \"#utility.yul\":5095:5208   */\n    tag_181:\n        /* \"#utility.yul\":5109:5115   */\n      dup4\n        /* \"#utility.yul\":5106:5107   */\n      dup2\n        /* \"#utility.yul\":5103:5116   */\n      lt\n        /* \"#utility.yul\":5095:5208   */\n      iszero\n      tag_183\n      jumpi\n        /* \"#utility.yul\":5194:5195   */\n      dup1\n        /* \"#utility.yul\":5189:5192   */\n      dup3\n        /* \"#utility.yul\":5185:5196   */\n      add\n        /* \"#utility.yul\":5179:5197   */\n      mload\n        /* \"#utility.yul\":5175:5176   */\n      dup2\n        /* \"#utility.yul\":5170:5173   */\n      dup5\n        /* \"#utility.yul\":5166:5177   */\n      add\n        /* \"#utility.yul\":5159:5198   */\n      mstore\n        /* \"#utility.yul\":5131:5133   */\n      0x20\n        /* \"#utility.yul\":5128:5129   */\n      dup2\n        /* \"#utility.yul\":5124:5134   */\n      add\n        /* \"#utility.yul\":5119:5134   */\n      swap1\n      pop\n        /* \"#utility.yul\":5095:5208   */\n      jump(tag_181)\n    tag_183:\n        /* \"#utility.yul\":5242:5243   */\n      0x00\n        /* \"#utility.yul\":5233:5239   */\n      dup5\n        /* \"#utility.yul\":5228:5231   */\n      dup5\n        /* \"#utility.yul\":5224:5240   */\n      add\n        /* \"#utility.yul\":5217:5244   */\n      mstore\n        /* \"#utility.yul\":5066:5250   */\n      pop\n        /* \"#utility.yul\":5004:5250   */\n      pop\n      pop\n      pop\n      jump\t// out\n        /* \"#utility.yul\":5256:5613   */\n    tag_102:\n        /* \"#utility.yul\":5334:5337   */\n      0x00\n        /* \"#utility.yul\":5362:5401   */\n      tag_185\n        /* \"#utility.yul\":5395:5400   */\n      dup3\n        /* \"#utility.yul\":5362:5401   */\n      tag_99\n      jump\t// in\n    tag_185:\n        /* \"#utility.yul\":5417:5478   */\n      tag_186\n        /* \"#utility.yul\":5471:5477   */\n      dup2\n        /* \"#utility.yul\":5466:5469   */\n      dup6\n        /* \"#utility.yul\":5417:5478   */\n      tag_100\n      jump\t// in\n    tag_186:\n        /* \"#utility.yul\":5410:5478   */\n      swap4\n      pop\n        /* \"#utility.yul\":5487:5552   */\n      tag_187\n        /* \"#utility.yul\":5545:5551   */\n      dup2\n        /* \"#utility.yul\":5540:5543   */\n      dup6\n        /* \"#utility.yul\":5533:5537   */\n      0x20\n        /* \"#utility.yul\":5526:5531   */\n      dup7\n        /* \"#utility.yul\":5522:5538   */\n      add\n        /* \"#utility.yul\":5487:5552   */\n      tag_101\n      jump\t// in\n    tag_187:\n        /* \"#utility.yul\":5577:5606   */\n      tag_188\n        /* \"#utility.yul\":5599:5605   */\n      dup2\n        /* \"#utility.yul\":5577:5606   */\n      tag_88\n      jump\t// in\n    tag_188:\n        /* \"#utility.yul\":5572:5575   */\n      dup5\n        /* \"#utility.yul\":5568:5607   */\n      add\n        /* \"#utility.yul\":5561:5607   */\n      swap2\n      pop\n        /* \"#utility.yul\":5338:5613   */\n      pop\n        /* \"#utility.yul\":5256:5613   */\n      swap3\n      swap2\n      pop\n      pop\n      jump\t// out\n        /* \"#utility.yul\":5619:5709   */\n    tag_103:\n        /* \"#utility.yul\":5653:5660   */\n      0x00\n        /* \"#utility.yul\":5696:5701   */\n      dup2\n        /* \"#utility.yul\":5689:5702   */\n      iszero\n        /* \"#utility.yul\":5682:5703   */\n      iszero\n        /* \"#utility.yul\":5671:5703   */\n      swap1\n      pop\n        /* \"#utility.yul\":5619:5709   */\n      swap2\n      swap1\n      pop\n      jump\t// out\n        /* \"#utility.yul\":5715:5814   */\n    tag_104:\n        /* \"#utility.yul\":5786:5807   */\n      tag_191\n        /* \"#utility.yul\":5801:5806   */\n      dup2\n        /* \"#utility.yul\":5786:5807   */\n      tag_103\n      jump\t// in\n    tag_191:\n        /* \"#utility.yul\":5781:5784   */\n      dup3\n        /* \"#utility.yul\":5774:5808   */\n      mstore\n        /* \"#utility.yul\":5715:5814   */\n      pop\n      pop\n      jump\t// out\n        /* \"#utility.yul\":5872:6708   */\n    tag_105:\n        /* \"#utility.yul\":5969:5972   */\n      0x00\n        /* \"#utility.yul\":6005:6009   */\n      0x60\n        /* \"#utility.yul\":6000:6003   */\n      dup4\n        /* \"#utility.yul\":5996:6010   */\n      add\n        /* \"#utility.yul\":6093:6097   */\n      0x00\n        /* \"#utility.yul\":6086:6091   */\n      dup4\n        /* \"#utility.yul\":6082:6098   */\n      add\n        /* \"#utility.yul\":6076:6099   */\n      mload\n        /* \"#utility.yul\":6146:6149   */\n      dup5\n        /* \"#utility.yul\":6140:6144   */\n      dup3\n        /* \"#utility.yul\":6136:6150   */\n      sub\n        /* \"#utility.yul\":6129:6133   */\n      0x00\n        /* \"#utility.yul\":6124:6127   */\n      dup7\n        /* \"#utility.yul\":6120:6134   */\n      add\n        /* \"#utility.yul\":6113:6151   */\n      mstore\n        /* \"#utility.yul\":6172:6245   */\n      tag_193\n        /* \"#utility.yul\":6240:6244   */\n      dup3\n        /* \"#utility.yul\":6226:6238   */\n      dup3\n        /* \"#utility.yul\":6172:6245   */\n      tag_102\n      jump\t// in\n    tag_193:\n        /* \"#utility.yul\":6164:6245   */\n      swap2\n      pop\n        /* \"#utility.yul\":6020:6256   */\n      pop\n        /* \"#utility.yul\":6345:6349   */\n      0x20\n        /* \"#utility.yul\":6338:6343   */\n      dup4\n        /* \"#utility.yul\":6334:6350   */\n      add\n        /* \"#utility.yul\":6328:6351   */\n      mload\n        /* \"#utility.yul\":6398:6401   */\n      dup5\n        /* \"#utility.yul\":6392:6396   */\n      dup3\n        /* \"#utility.yul\":6388:6402   */\n      sub\n        /* \"#utility.yul\":6381:6385   */\n      0x20\n        /* \"#utility.yul\":6376:6379   */\n      dup7\n        /* \"#utility.yul\":6372:6386   */\n      add\n        /* \"#utility.yul\":6365:6403   */\n      mstore\n        /* \"#utility.yul\":6424:6497   */\n      tag_194\n        /* \"#utility.yul\":6492:6496   */\n      dup3\n        /* \"#utility.yul\":6478:6490   */\n      dup3\n        /* \"#utility.yul\":6424:6497   */\n      tag_102\n      jump\t// in\n    tag_194:\n        /* \"#utility.yul\":6416:6497   */\n      swap2\n      pop\n        /* \"#utility.yul\":6266:6508   */\n      pop\n        /* \"#utility.yul\":6595:6599   */\n      0x40\n        /* \"#utility.yul\":6588:6593   */\n      dup4\n        /* \"#utility.yul\":6584:6600   */\n      add\n        /* \"#utility.yul\":6578:6601   */\n      mload\n        /* \"#utility.yul\":6614:6671   */\n      tag_195\n        /* \"#utility.yul\":6665:6669   */\n      0x40\n        /* \"#utility.yul\":6660:6663   */\n      dup7\n        /* \"#utility.yul\":6656:6670   */\n      add\n        /* \"#utility.yul\":6642:6654   */\n      dup3\n        /* \"#utility.yul\":6614:6671   */\n      tag_104\n      jump\t// in\n    tag_195:\n        /* \"#utility.yul\":6518:6681   */\n      pop\n        /* \"#utility.yul\":6698:6702   */\n      dup1\n        /* \"#utility.yul\":6691:6702   */\n      swap2\n      pop\n        /* \"#utility.yul\":5974:6708   */\n      pop\n        /* \"#utility.yul\":5872:6708   */\n      swap3\n      swap2\n      pop\n      pop\n      jump\t// out\n        /* \"#utility.yul\":6714:6946   */\n    tag_106:\n        /* \"#utility.yul\":6821:6831   */\n      0x00\n        /* \"#utility.yul\":6856:6940   */\n      tag_197\n        /* \"#utility.yul\":6936:6939   */\n      dup4\n        /* \"#utility.yul\":6928:6934   */\n      dup4\n        /* \"#utility.yul\":6856:6940   */\n      tag_105\n      jump\t// in\n    tag_197:\n        /* \"#utility.yul\":6842:6940   */\n      swap1\n      pop\n        /* \"#utility.yul\":6714:6946   */\n      swap3\n      swap2\n      pop\n      pop\n      jump\t// out\n        /* \"#utility.yul\":6952:7084   */\n    tag_107:\n        /* \"#utility.yul\":7041:7045   */\n      0x00\n        /* \"#utility.yul\":7073:7077   */\n      0x20\n        /* \"#utility.yul\":7068:7071   */\n      dup3\n        /* \"#utility.yul\":7064:7078   */\n      add\n        /* \"#utility.yul\":7056:7078   */\n      swap1\n      pop\n        /* \"#utility.yul\":6952:7084   */\n      swap2\n      swap1\n      pop\n      jump\t// out\n        /* \"#utility.yul\":7146:8209   */\n    tag_108:\n        /* \"#utility.yul\":7303:7306   */\n      0x00\n        /* \"#utility.yul\":7332:7405   */\n      tag_200\n        /* \"#utility.yul\":7399:7404   */\n      dup3\n        /* \"#utility.yul\":7332:7405   */\n      tag_96\n      jump\t// in\n    tag_200:\n        /* \"#utility.yul\":7421:7526   */\n      tag_201\n        /* \"#utility.yul\":7519:7525   */\n      dup2\n        /* \"#utility.yul\":7514:7517   */\n      dup6\n        /* \"#utility.yul\":7421:7526   */\n      tag_97\n      jump\t// in\n    tag_201:\n        /* \"#utility.yul\":7414:7526   */\n      swap4\n      pop\n        /* \"#utility.yul\":7552:7555   */\n      dup4\n        /* \"#utility.yul\":7597:7601   */\n      0x20\n        /* \"#utility.yul\":7589:7595   */\n      dup3\n        /* \"#utility.yul\":7585:7602   */\n      mul\n        /* \"#utility.yul\":7580:7583   */\n      dup6\n        /* \"#utility.yul\":7576:7603   */\n      add\n        /* \"#utility.yul\":7627:7702   */\n      tag_202\n        /* \"#utility.yul\":7696:7701   */\n      dup6\n        /* \"#utility.yul\":7627:7702   */\n      tag_98\n      jump\t// in\n    tag_202:\n        /* \"#utility.yul\":7725:7732   */\n      dup1\n        /* \"#utility.yul\":7756:7757   */\n      0x00\n        /* \"#utility.yul\":7741:8164   */\n    tag_203:\n        /* \"#utility.yul\":7766:7772   */\n      dup6\n        /* \"#utility.yul\":7763:7764   */\n      dup2\n        /* \"#utility.yul\":7760:7773   */\n      lt\n        /* \"#utility.yul\":7741:8164   */\n      iszero\n      tag_205\n      jumpi\n        /* \"#utility.yul\":7837:7846   */\n      dup5\n        /* \"#utility.yul\":7831:7835   */\n      dup5\n        /* \"#utility.yul\":7827:7847   */\n      sub\n        /* \"#utility.yul\":7822:7825   */\n      dup10\n        /* \"#utility.yul\":7815:7848   */\n      mstore\n        /* \"#utility.yul\":7888:7894   */\n      dup2\n        /* \"#utility.yul\":7882:7895   */\n      mload\n        /* \"#utility.yul\":7916:8018   */\n      tag_206\n        /* \"#utility.yul\":8013:8017   */\n      dup6\n        /* \"#utility.yul\":7998:8011   */\n      dup3\n        /* \"#utility.yul\":7916:8018   */\n      tag_106\n      jump\t// in\n    tag_206:\n        /* \"#utility.yul\":7908:8018   */\n      swap5\n      pop\n        /* \"#utility.yul\":8041:8120   */\n      tag_207\n        /* \"#utility.yul\":8113:8119   */\n      dup4\n        /* \"#utility.yul\":8041:8120   */\n      tag_107\n      jump\t// in\n    tag_207:\n        /* \"#utility.yul\":8031:8120   */\n      swap3\n      pop\n        /* \"#utility.yul\":8149:8153   */\n      0x20\n        /* \"#utility.yul\":8144:8147   */\n      dup11\n        /* \"#utility.yul\":8140:8154   */\n      add\n        /* \"#utility.yul\":8133:8154   */\n      swap10\n      pop\n        /* \"#utility.yul\":7801:8164   */\n      pop\n        /* \"#utility.yul\":7788:7789   */\n      0x01\n        /* \"#utility.yul\":7785:7786   */\n      dup2\n        /* \"#utility.yul\":7781:7790   */\n      add\n        /* \"#utility.yul\":7776:7790   */\n      swap1\n      pop\n        /* \"#utility.yul\":7741:8164   */\n      jump(tag_203)\n    tag_205:\n        /* \"#utility.yul\":7745:7759   */\n      pop\n        /* \"#utility.yul\":8180:8184   */\n      dup3\n        /* \"#utility.yul\":8173:8184   */\n      swap8\n      pop\n        /* \"#utility.yul\":8200:8203   */\n      dup8\n        /* \"#utility.yul\":8193:8203   */\n      swap6\n      pop\n        /* \"#utility.yul\":7308:8209   */\n      pop\n      pop\n      pop\n      pop\n      pop\n        /* \"#utility.yul\":7146:8209   */\n      swap3\n      swap2\n      pop\n      pop\n      jump\t// out\n        /* \"#utility.yul\":8215:8664   */\n    tag_19:\n        /* \"#utility.yul\":8396:8400   */\n      0x00\n        /* \"#utility.yul\":8434:8436   */\n      0x20\n        /* \"#utility.yul\":8423:8432   */\n      dup3\n        /* \"#utility.yul\":8419:8437   */\n      add\n        /* \"#utility.yul\":8411:8437   */\n      swap1\n      pop\n        /* \"#utility.yul\":8483:8492   */\n      dup2\n        /* \"#utility.yul\":8477:8481   */\n      dup2\n        /* \"#utility.yul\":8473:8493   */\n      sub\n        /* \"#utility.yul\":8469:8470   */\n      0x00\n        /* \"#utility.yul\":8458:8467   */\n      dup4\n        /* \"#utility.yul\":8454:8471   */\n      add\n        /* \"#utility.yul\":8447:8494   */\n      mstore\n        /* \"#utility.yul\":8511:8657   */\n      tag_209\n        /* \"#utility.yul\":8652:8656   */\n      dup2\n        /* \"#utility.yul\":8643:8649   */\n      dup5\n        /* \"#utility.yul\":8511:8657   */\n      tag_108\n      jump\t// in\n    tag_209:\n        /* \"#utility.yul\":8503:8657   */\n      swap1\n      pop\n        /* \"#utility.yul\":8215:8664   */\n      swap3\n      swap2\n      pop\n      pop\n      jump\t// out\n        /* \"#utility.yul\":8670:9504   */\n    tag_25:\n        /* \"#utility.yul\":8758:8764   */\n      0x00\n        /* \"#utility.yul\":8766:8772   */\n      dup1\n        /* \"#utility.yul\":8815:8817   */\n      0x40\n        /* \"#utility.yul\":8803:8812   */\n      dup4\n        /* \"#utility.yul\":8794:8801   */\n      dup6\n        /* \"#utility.yul\":8790:8813   */\n      sub\n        /* \"#utility.yul\":8786:8818   */\n      slt\n        /* \"#utility.yul\":8783:8902   */\n      iszero\n      tag_211\n      jumpi\n        /* \"#utility.yul\":8821:8900   */\n      tag_212\n      tag_81\n      jump\t// in\n    tag_212:\n        /* \"#utility.yul\":8783:8902   */\n    tag_211:\n        /* \"#utility.yul\":8969:8970   */\n      0x00\n        /* \"#utility.yul\":8958:8967   */\n      dup4\n        /* \"#utility.yul\":8954:8971   */\n      add\n        /* \"#utility.yul\":8941:8972   */\n      calldataload\n        /* \"#utility.yul\":8999:9017   */\n      0xffffffffffffffff\n        /* \"#utility.yul\":8991:8997   */\n      dup2\n        /* \"#utility.yul\":8988:9018   */\n      gt\n        /* \"#utility.yul\":8985:9102   */\n      iszero\n      tag_213\n      jumpi\n        /* \"#utility.yul\":9021:9100   */\n      tag_214\n      tag_82\n      jump\t// in\n    tag_214:\n        /* \"#utility.yul\":8985:9102   */\n    tag_213:\n        /* \"#utility.yul\":9126:9189   */\n      tag_215\n        /* \"#utility.yul\":9181:9188   */\n      dup6\n        /* \"#utility.yul\":9172:9178   */\n      dup3\n        /* \"#utility.yul\":9161:9170   */\n      dup7\n        /* \"#utility.yul\":9157:9179   */\n      add\n        /* \"#utility.yul\":9126:9189   */\n      tag_95\n      jump\t// in\n    tag_215:\n        /* \"#utility.yul\":9116:9189   */\n      swap3\n      pop\n        /* \"#utility.yul\":8912:9199   */\n      pop\n        /* \"#utility.yul\":9266:9268   */\n      0x20\n        /* \"#utility.yul\":9255:9264   */\n      dup4\n        /* \"#utility.yul\":9251:9269   */\n      add\n        /* \"#utility.yul\":9238:9270   */\n      calldataload\n        /* \"#utility.yul\":9297:9315   */\n      0xffffffffffffffff\n        /* \"#utility.yul\":9289:9295   */\n      dup2\n        /* \"#utility.yul\":9286:9316   */\n      gt\n        /* \"#utility.yul\":9283:9400   */\n      iszero\n      tag_216\n      jumpi\n        /* \"#utility.yul\":9319:9398   */\n      tag_217\n      tag_82\n      jump\t// in\n    tag_217:\n        /* \"#utility.yul\":9283:9400   */\n    tag_216:\n        /* \"#utility.yul\":9424:9487   */\n      tag_218\n        /* \"#utility.yul\":9479:9486   */\n      dup6\n        /* \"#utility.yul\":9470:9476   */\n      dup3\n        /* \"#utility.yul\":9459:9468   */\n      dup7\n        /* \"#utility.yul\":9455:9477   */\n      add\n        /* \"#utility.yul\":9424:9487   */\n      tag_95\n      jump\t// in\n    tag_218:\n        /* \"#utility.yul\":9414:9487   */\n      swap2\n      pop\n        /* \"#utility.yul\":9209:9497   */\n      pop\n        /* \"#utility.yul\":8670:9504   */\n      swap3\n      pop\n      swap3\n      swap1\n      pop\n      jump\t// out\n        /* \"#utility.yul\":9510:9690   */\n    tag_30:\n        /* \"#utility.yul\":9558:9635   */\n      0x4e487b7100000000000000000000000000000000000000000000000000000000\n        /* \"#utility.yul\":9555:9556   */\n      0x00\n        /* \"#utility.yul\":9548:9636   */\n      mstore\n        /* \"#utility.yul\":9655:9659   */\n      0x32\n        /* \"#utility.yul\":9652:9653   */\n      0x04\n        /* \"#utility.yul\":9645:9660   */\n      mstore\n        /* \"#utility.yul\":9679:9683   */\n      0x24\n        /* \"#utility.yul\":9676:9677   */\n      0x00\n        /* \"#utility.yul\":9669:9684   */\n      revert\n        /* \"#utility.yul\":9696:9876   */\n    tag_109:\n        /* \"#utility.yul\":9744:9821   */\n      0x4e487b7100000000000000000000000000000000000000000000000000000000\n        /* \"#utility.yul\":9741:9742   */\n      0x00\n        /* \"#utility.yul\":9734:9822   */\n      mstore\n        /* \"#utility.yul\":9841:9845   */\n      0x22\n        /* \"#utility.yul\":9838:9839   */\n      0x04\n        /* \"#utility.yul\":9831:9846   */\n      mstore\n        /* \"#utility.yul\":9865:9869   */\n      0x24\n        /* \"#utility.yul\":9862:9863   */\n      0x00\n        /* \"#utility.yul\":9855:9870   */\n      revert\n        /* \"#utility.yul\":9882:10202   */\n    tag_50:\n        /* \"#utility.yul\":9926:9932   */\n      0x00\n        /* \"#utility.yul\":9963:9964   */\n      0x02\n        /* \"#utility.yul\":9957:9961   */\n      dup3\n        /* \"#utility.yul\":9953:9965   */\n      div\n        /* \"#utility.yul\":9943:9965   */\n      swap1\n      pop\n        /* \"#utility.yul\":10010:10011   */\n      0x01\n        /* \"#utility.yul\":10004:10008   */\n      dup3\n        /* \"#utility.yul\":10000:10012   */\n      and\n        /* \"#utility.yul\":10031:10049   */\n      dup1\n        /* \"#utility.yul\":10021:10102   */\n      tag_222\n      jumpi\n        /* \"#utility.yul\":10087:10091   */\n      0x7f\n        /* \"#utility.yul\":10079:10085   */\n      dup3\n        /* \"#utility.yul\":10075:10092   */\n      and\n        /* \"#utility.yul\":10065:10092   */\n      swap2\n      pop\n        /* \"#utility.yul\":10021:10102   */\n    tag_222:\n        /* \"#utility.yul\":10149:10151   */\n      0x20\n        /* \"#utility.yul\":10141:10147   */\n      dup3\n        /* \"#utility.yul\":10138:10152   */\n      lt\n        /* \"#utility.yul\":10118:10136   */\n      dup2\n        /* \"#utility.yul\":10115:10153   */\n      sub\n        /* \"#utility.yul\":10112:10196   */\n      tag_223\n      jumpi\n        /* \"#utility.yul\":10168:10186   */\n      tag_224\n      tag_109\n      jump\t// in\n    tag_224:\n        /* \"#utility.yul\":10112:10196   */\n    tag_223:\n        /* \"#utility.yul\":9933:10202   */\n      pop\n        /* \"#utility.yul\":9882:10202   */\n      swap2\n      swap1\n      pop\n      jump\t// out\n        /* \"#utility.yul\":10208:10349   */\n    tag_110:\n        /* \"#utility.yul\":10257:10261   */\n      0x00\n        /* \"#utility.yul\":10280:10283   */\n      dup2\n        /* \"#utility.yul\":10272:10283   */\n      swap1\n      pop\n        /* \"#utility.yul\":10303:10306   */\n      dup2\n        /* \"#utility.yul\":10300:10301   */\n      0x00\n        /* \"#utility.yul\":10293:10307   */\n      mstore\n        /* \"#utility.yul\":10337:10341   */\n      0x20\n        /* \"#utility.yul\":10334:10335   */\n      0x00\n        /* \"#utility.yul\":10324:10342   */\n      keccak256\n        /* \"#utility.yul\":10316:10342   */\n      swap1\n      pop\n        /* \"#utility.yul\":10208:10349   */\n      swap2\n      swap1\n      pop\n      jump\t// out\n        /* \"#utility.yul\":10355:10448   */\n    tag_111:\n        /* \"#utility.yul\":10392:10398   */\n      0x00\n        /* \"#utility.yul\":10439:10441   */\n      0x20\n        /* \"#utility.yul\":10434:10436   */\n      0x1f\n        /* \"#utility.yul\":10427:10432   */\n      dup4\n        /* \"#utility.yul\":10423:10437   */\n      add\n        /* \"#utility.yul\":10419:10442   */\n      div\n        /* \"#utility.yul\":10409:10442   */\n      swap1\n      pop\n        /* \"#utility.yul\":10355:10448   */\n      swap2\n      swap1\n      pop\n      jump\t// out\n        /* \"#utility.yul\":10454:10561   */\n    tag_112:\n        /* \"#utility.yul\":10498:10506   */\n      0x00\n        /* \"#utility.yul\":10548:10553   */\n      dup3\n        /* \"#utility.yul\":10542:10546   */\n      dup3\n        /* \"#utility.yul\":10538:10554   */\n      shl\n        /* \"#utility.yul\":10517:10554   */\n      swap1\n      pop\n        /* \"#utility.yul\":10454:10561   */\n      swap3\n      swap2\n      pop\n      pop\n      jump\t// out\n        /* \"#utility.yul\":10567:10960   */\n    tag_113:\n        /* \"#utility.yul\":10636:10642   */\n      0x00\n        /* \"#utility.yul\":10686:10687   */\n      0x08\n        /* \"#utility.yul\":10674:10684   */\n      dup4\n        /* \"#utility.yul\":10670:10688   */\n      mul\n        /* \"#utility.yul\":10709:10806   */\n      tag_229\n        /* \"#utility.yul\":10739:10805   */\n      0xffffffffffffffffffffffffffffffffffffffffffffffffffffffffffffffff\n        /* \"#utility.yul\":10728:10737   */\n      dup3\n        /* \"#utility.yul\":10709:10806   */\n      tag_112\n      jump\t// in\n    tag_229:\n        /* \"#utility.yul\":10827:10866   */\n      tag_230\n        /* \"#utility.yul\":10857:10865   */\n      dup7\n        /* \"#utility.yul\":10846:10855   */\n      dup4\n        /* \"#utility.yul\":10827:10866   */\n      tag_112\n      jump\t// in\n    tag_230:\n        /* \"#utility.yul\":10815:10866   */\n      swap6\n      pop\n        /* \"#utility.yul\":10899:10903   */\n      dup1\n        /* \"#utility.yul\":10895:10904   */\n      not\n        /* \"#utility.yul\":10888:10893   */\n      dup5\n        /* \"#utility.yul\":10884:10905   */\n      and\n        /* \"#utility.yul\":10875:10905   */\n      swap4\n      pop\n        /* \"#utility.yul\":10948:10952   */\n      dup1\n        /* \"#utility.yul\":10938:10946   */\n      dup7\n        /* \"#utility.yul\":10934:10953   */\n      and\n        /* \"#utility.yul\":10927:10932   */\n      dup5\n        /* \"#utility.yul\":10924:10954   */\n      or\n        /* \"#utility.yul\":10914:10954   */\n      swap3\n      pop\n        /* \"#utility.yul\":10643:10960   */\n      pop\n      pop\n        /* \"#utility.yul\":10567:10960   */\n      swap4\n      swap3\n      pop\n      pop\n      pop\n      jump\t// out\n        /* \"#utility.yul\":10966:11026   */\n    tag_114:\n        /* \"#utility.yul\":10994:10997   */\n      0x00\n        /* \"#utility.yul\":11015:11020   */\n      dup2\n        /* \"#utility.yul\":11008:11020   */\n      swap1\n      pop\n        /* \"#utility.yul\":10966:11026   */\n      swap2\n      swap1\n      pop\n      jump\t// out\n        /* \"#utility.yul\":11032:11174   */\n    tag_115:\n        /* \"#utility.yul\":11082:11091   */\n      0x00\n        /* \"#utility.yul\":11115:11168   */\n      tag_233\n        /* \"#utility.yul\":11133:11167   */\n      tag_234\n        /* \"#utility.yul\":11142:11166   */\n      tag_235\n        /* \"#utility.yul\":11160:11165   */\n      dup5\n        /* \"#utility.yul\":11142:11166   */\n      tag_83\n      jump\t// in\n    tag_235:\n        /* \"#utility.yul\":11133:11167   */\n      tag_114\n      jump\t// in\n    tag_234:\n        /* \"#utility.yul\":11115:11168   */\n      tag_83\n      jump\t// in\n    tag_233:\n        /* \"#utility.yul\":11102:11168   */\n      swap1\n      pop\n        /* \"#utility.yul\":11032:11174   */\n      swap2\n      swap1\n      pop\n      jump\t// out\n        /* \"#utility.yul\":11180:11255   */\n    tag_116:\n        /* \"#utility.yul\":11223:11226   */\n      0x00\n        /* \"#utility.yul\":11244:11249   */\n      dup2\n        /* \"#utility.yul\":11237:11249   */\n      swap1\n      pop\n        /* \"#utility.yul\":11180:11255   */\n      swap2\n      swap1\n      pop\n      jump\t// out\n        /* \"#utility.yul\":11261:11530   */\n    tag_117:\n        /* \"#utility.yul\":11371:11410   */\n      tag_238\n        /* \"#utility.yul\":11402:11409   */\n      dup4\n        /* \"#utility.yul\":11371:11410   */\n      tag_115\n      jump\t// in\n    tag_238:\n        /* \"#utility.yul\":11432:11523   */\n      tag_239\n        /* \"#utility.yul\":11481:11522   */\n      tag_240\n        /* \"#utility.yul\":11505:11521   */\n      dup3\n        /* \"#utility.yul\":11481:11522   */\n      tag_116\n      jump\t// in\n    tag_240:\n        /* \"#utility.yul\":11473:11479   */\n      dup5\n        /* \"#utility.yul\":11466:11470   */\n      dup5\n        /* \"#utility.yul\":11460:11471   */\n      sload\n        /* \"#utility.yul\":11432:11523   */\n      tag_113\n      jump\t// in\n    tag_239:\n        /* \"#utility.yul\":11426:11430   */\n      dup3\n        /* \"#utility.yul\":11419:11524   */\n      sstore\n        /* \"#utility.yul\":11337:11530   */\n      pop\n        /* \"#utility.yul\":11261:11530   */\n      pop\n      pop\n      pop\n      jump\t// out\n        /* \"#utility.yul\":11536:11609   */\n    tag_118:\n        /* \"#utility.yul\":11581:11584   */\n      0x00\n        /* \"#utility.yul\":11536:11609   */\n      swap1\n      jump\t// out\n        /* \"#utility.yul\":11615:11804   */\n    tag_119:\n        /* \"#utility.yul\":11692:11724   */\n      tag_243\n      tag_118\n      jump\t// in\n    tag_243:\n        /* \"#utility.yul\":11733:11798   */\n      tag_244\n        /* \"#utility.yul\":11791:11797   */\n      dup2\n        /* \"#utility.yul\":11783:11789   */\n      dup5\n        /* \"#utility.yul\":11777:11781   */\n      dup5\n        /* \"#utility.yul\":11733:11798   */\n      tag_117\n      jump\t// in\n    tag_244:\n        /* \"#utility.yul\":11668:11804   */\n      pop\n        /* \"#utility.yul\":11615:11804   */\n      pop\n      pop\n      jump\t// out\n        /* \"#utility.yul\":11810:11996   */\n    tag_120:\n        /* \"#utility.yul\":11870:11990   */\n    tag_246:\n        /* \"#utility.yul\":11887:11890   */\n      dup2\n        /* \"#utility.yul\":11880:11885   */\n      dup2\n        /* \"#utility.yul\":11877:11891   */\n      lt\n        /* \"#utility.yul\":11870:11990   */\n      iszero\n      tag_248\n      jumpi\n        /* \"#utility.yul\":11941:11980   */\n      tag_249\n        /* \"#utility.yul\":11978:11979   */\n      0x00\n        /* \"#utility.yul\":11971:11976   */\n      dup3\n        /* \"#utility.yul\":11941:11980   */\n      tag_119\n      jump\t// in\n    tag_249:\n        /* \"#utility.yul\":11914:11915   */\n      0x01\n        /* \"#utility.yul\":11907:11912   */\n      dup2\n        /* \"#utility.yul\":11903:11916   */\n      add\n        /* \"#utility.yul\":11894:11916   */\n      swap1\n      pop\n        /* \"#utility.yul\":11870:11990   */\n      jump(tag_246)\n    tag_248:\n        /* \"#utility.yul\":11810:11996   */\n      pop\n      pop\n      jump\t// out\n        /* \"#utility.yul\":12002:12545   */\n    tag_121:\n        /* \"#utility.yul\":12103:12105   */\n      0x1f\n        /* \"#utility.yul\":12098:12101   */\n      dup3\n        /* \"#utility.yul\":12095:12106   */\n      gt\n        /* \"#utility.yul\":12092:12538   */\n      iszero\n      tag_251\n      jumpi\n        /* \"#utility.yul\":12137:12175   */\n      tag_252\n        /* \"#utility.yul\":12169:12174   */\n      dup2\n        /* \"#utility.yul\":12137:12175   */\n      tag_110\n      jump\t// in\n    tag_252:\n        /* \"#utility.yul\":12221:12250   */\n      tag_253\n        /* \"#utility.yul\":12239:12249   */\n      dup5\n        /* \"#utility.yul\":12221:12250   */\n      tag_111\n      jump\t// in\n    tag_253:\n        /* \"#utility.yul\":12211:12219   */\n      dup2\n        /* \"#utility.yul\":12207:12251   */\n      add\n        /* \"#utility.yul\":12404:12406   */\n      0x20\n        /* \"#utility.yul\":12392:12402   */\n      dup6\n        /* \"#utility.yul\":12389:12407   */\n      lt\n        /* \"#utility.yul\":12386:12435   */\n      iszero\n      tag_254\n      jumpi\n        /* \"#utility.yul\":12425:12433   */\n      dup2\n        /* \"#utility.yul\":12410:12433   */\n      swap1\n      pop\n        /* \"#utility.yul\":12386:12435   */\n    tag_254:\n        /* \"#utility.yul\":12448:12528   */\n      tag_255\n        /* \"#utility.yul\":12504:12526   */\n      tag_256\n        /* \"#utility.yul\":12522:12525   */\n      dup6\n        /* \"#utility.yul\":12504:12526   */\n      tag_111\n      jump\t// in\n    tag_256:\n        /* \"#utility.yul\":12494:12502   */\n      dup4\n        /* \"#utility.yul\":12490:12527   */\n      add\n        /* \"#utility.yul\":12477:12488   */\n      dup3\n        /* \"#utility.yul\":12448:12528   */\n      tag_120\n      jump\t// in\n    tag_255:\n        /* \"#utility.yul\":12107:12538   */\n      pop\n      pop\n        /* \"#utility.yul\":12092:12538   */\n    tag_251:\n        /* \"#utility.yul\":12002:12545   */\n      pop\n      pop\n      pop\n      jump\t// out\n        /* \"#utility.yul\":12551:12668   */\n    tag_122:\n        /* \"#utility.yul\":12605:12613   */\n      0x00\n        /* \"#utility.yul\":12655:12660   */\n      dup3\n        /* \"#utility.yul\":12649:12653   */\n      dup3\n        /* \"#utility.yul\":12645:12661   */\n      shr\n        /* \"#utility.yul\":12624:12661   */\n      swap1\n      pop\n        /* \"#utility.yul\":12551:12668   */\n      swap3\n      swap2\n      pop\n      pop\n      jump\t// out\n        /* \"#utility.yul\":12674:12843   */\n    tag_123:\n        /* \"#utility.yul\":12718:12724   */\n      0x00\n        /* \"#utility.yul\":12751:12802   */\n      tag_259\n        /* \"#utility.yul\":12799:12800   */\n      0x00\n        /* \"#utility.yul\":12795:12801   */\n      not\n        /* \"#utility.yul\":12787:12792   */\n      dup5\n        /* \"#utility.yul\":12784:12785   */\n      0x08\n        /* \"#utility.yul\":12780:12793   */\n      mul\n        /* \"#utility.yul\":12751:12802   */\n      tag_122\n      jump\t// in\n    tag_259:\n        /* \"#utility.yul\":12747:12803   */\n      not\n        /* \"#utility.yul\":12832:12836   */\n      dup1\n        /* \"#utility.yul\":12826:12830   */\n      dup4\n        /* \"#utility.yul\":12822:12837   */\n      and\n        /* \"#utility.yul\":12812:12837   */\n      swap2\n      pop\n        /* \"#utility.yul\":12725:12843   */\n      pop\n        /* \"#utility.yul\":12674:12843   */\n      swap3\n      swap2\n      pop\n      pop\n      jump\t// out\n        /* \"#utility.yul\":12848:13143   */\n    tag_124:\n        /* \"#utility.yul\":12924:12928   */\n      0x00\n        /* \"#utility.yul\":13070:13099   */\n      tag_261\n        /* \"#utility.yul\":13095:13098   */\n      dup4\n        /* \"#utility.yul\":13089:13093   */\n      dup4\n        /* \"#utility.yul\":13070:13099   */\n      tag_123\n      jump\t// in\n    tag_261:\n        /* \"#utility.yul\":13062:13099   */\n      swap2\n      pop\n        /* \"#utility.yul\":13132:13135   */\n      dup3\n        /* \"#utility.yul\":13129:13130   */\n      0x02\n        /* \"#utility.yul\":13125:13136   */\n      mul\n        /* \"#utility.yul\":13119:13123   */\n      dup3\n        /* \"#utility.yul\":13116:13137   */\n      or\n        /* \"#utility.yul\":13108:13137   */\n      swap1\n      pop\n        /* \"#utility.yul\":12848:13143   */\n      swap3\n      swap2\n      pop\n      pop\n      jump\t// out\n        /* \"#utility.yul\":13148:14543   */\n    tag_40:\n        /* \"#utility.yul\":13265:13302   */\n      tag_263\n        /* \"#utility.yul\":13298:13301   */\n      dup3\n        /* \"#utility.yul\":13265:13302   */\n      tag_99\n      jump\t// in\n    tag_263:\n        /* \"#utility.yul\":13367:13385   */\n      0xffffffffffffffff\n        /* \"#utility.yul\":13359:13365   */\n      dup2\n        /* \"#utility.yul\":13356:13386   */\n      gt\n        /* \"#utility.yul\":13353:13409   */\n      iszero\n      tag_264\n      jumpi\n        /* \"#utility.yul\":13389:13407   */\n      tag_265\n      tag_89\n      jump\t// in\n    tag_265:\n        /* \"#utility.yul\":13353:13409   */\n    tag_264:\n        /* \"#utility.yul\":13433:13471   */\n      tag_266\n        /* \"#utility.yul\":13465:13469   */\n      dup3\n        /* \"#utility.yul\":13459:13470   */\n      sload\n        /* \"#utility.yul\":13433:13471   */\n      tag_50\n      jump\t// in\n    tag_266:\n        /* \"#utility.yul\":13518:13585   */\n      tag_267\n        /* \"#utility.yul\":13578:13584   */\n      dup3\n        /* \"#utility.yul\":13570:13576   */\n      dup3\n        /* \"#utility.yul\":13564:13568   */\n      dup6\n        /* \"#utility.yul\":13518:13585   */\n      tag_121\n      jump\t// in\n    tag_267:\n        /* \"#utility.yul\":13612:13613   */\n      0x00\n        /* \"#utility.yul\":13636:13640   */\n      0x20\n        /* \"#utility.yul\":13623:13640   */\n      swap1\n      pop\n        /* \"#utility.yul\":13668:13670   */\n      0x1f\n        /* \"#utility.yul\":13660:13666   */\n      dup4\n        /* \"#utility.yul\":13657:13671   */\n      gt\n        /* \"#utility.yul\":13685:13686   */\n      0x01\n        /* \"#utility.yul\":13680:14298   */\n      dup2\n      eq\n      tag_269\n      jumpi\n        /* \"#utility.yul\":14342:14343   */\n      0x00\n        /* \"#utility.yul\":14359:14365   */\n      dup5\n        /* \"#utility.yul\":14356:14433   */\n      iszero\n      tag_270\n      jumpi\n        /* \"#utility.yul\":14408:14417   */\n      dup3\n        /* \"#utility.yul\":14403:14406   */\n      dup8\n        /* \"#utility.yul\":14399:14418   */\n      add\n        /* \"#utility.yul\":14393:14419   */\n      mload\n        /* \"#utility.yul\":14384:14419   */\n      swap1\n      pop\n        /* \"#utility.yul\":14356:14433   */\n    tag_270:\n        /* \"#utility.yul\":14459:14526   */\n      tag_271\n        /* \"#utility.yul\":14519:14525   */\n      dup6\n        /* \"#utility.yul\":14512:14517   */\n      dup3\n        /* \"#utility.yul\":14459:14526   */\n      tag_124\n      jump\t// in\n    tag_271:\n        /* \"#utility.yul\":14453:14457   */\n      dup7\n        /* \"#utility.yul\":14446:14527   */\n      sstore\n        /* \"#utility.yul\":14315:14537   */\n      pop\n        /* \"#utility.yul\":13650:14537   */\n      jump(tag_268)\n        /* \"#utility.yul\":13680:14298   */\n    tag_269:\n        /* \"#utility.yul\":13732:13736   */\n      0x1f\n        /* \"#utility.yul\":13728:13737   */\n      not\n        /* \"#utility.yul\":13720:13726   */\n      dup5\n        /* \"#utility.yul\":13716:13738   */\n      and\n        /* \"#utility.yul\":13766:13803   */\n      tag_272\n        /* \"#utility.yul\":13798:13802   */\n      dup7\n        /* \"#utility.yul\":13766:13803   */\n      tag_110\n      jump\t// in\n    tag_272:\n        /* \"#utility.yul\":13825:13826   */\n      0x00\n        /* \"#utility.yul\":13839:14047   */\n    tag_273:\n        /* \"#utility.yul\":13853:13860   */\n      dup3\n        /* \"#utility.yul\":13850:13851   */\n      dup2\n        /* \"#utility.yul\":13847:13861   */\n      lt\n        /* \"#utility.yul\":13839:14047   */\n      iszero\n      tag_275\n      jumpi\n        /* \"#utility.yul\":13932:13941   */\n      dup5\n        /* \"#utility.yul\":13927:13930   */\n      dup10\n        /* \"#utility.yul\":13923:13942   */\n      add\n        /* \"#utility.yul\":13917:13943   */\n      mload\n        /* \"#utility.yul\":13909:13915   */\n      dup3\n        /* \"#utility.yul\":13902:13944   */\n      sstore\n        /* \"#utility.yul\":13983:13984   */\n      0x01\n        /* \"#utility.yul\":13975:13981   */\n      dup3\n        /* \"#utility.yul\":13971:13985   */\n      add\n        /* \"#utility.yul\":13961:13985   */\n      swap2\n      pop\n        /* \"#utility.yul\":14030:14032   */\n      0x20\n        /* \"#utility.yul\":14019:14028   */\n      dup6\n        /* \"#utility.yul\":14015:14033   */\n      add\n        /* \"#utility.yul\":14002:14033   */\n      swap5\n      pop\n        /* \"#utility.yul\":13876:13880   */\n      0x20\n        /* \"#utility.yul\":13873:13874   */\n      dup2\n        /* \"#utility.yul\":13869:13881   */\n      add\n        /* \"#utility.yul\":13864:13881   */\n      swap1\n      pop\n        /* \"#utility.yul\":13839:14047   */\n      jump(tag_273)\n    tag_275:\n        /* \"#utility.yul\":14075:14081   */\n      dup7\n        /* \"#utility.yul\":14066:14073   */\n      dup4\n        /* \"#utility.yul\":14063:14082   */\n      lt\n        /* \"#utility.yul\":14060:14239   */\n      iszero\n      tag_276\n      jumpi\n        /* \"#utility.yul\":14133:14142   */\n      dup5\n        /* \"#utility.yul\":14128:14131   */\n      dup10\n        /* \"#utility.yul\":14124:14143   */\n      add\n        /* \"#utility.yul\":14118:14144   */\n      mload\n        /* \"#utility.yul\":14176:14224   */\n      tag_277\n        /* \"#utility.yul\":14218:14222   */\n      0x1f\n        /* \"#utility.yul\":14210:14216   */\n      dup10\n        /* \"#utility.yul\":14206:14223   */\n      and\n        /* \"#utility.yul\":14195:14204   */\n      dup3\n        /* \"#utility.yul\":14176:14224   */\n      tag_123\n      jump\t// in\n    tag_277:\n        /* \"#utility.yul\":14168:14174   */\n      dup4\n        /* \"#utility.yul\":14161:14225   */\n      sstore\n        /* \"#utility.yul\":14083:14239   */\n      pop\n        /* \"#utility.yul\":14060:14239   */\n    tag_276:\n        /* \"#utility.yul\":14285:14286   */\n      0x01\n        /* \"#utility.yul\":14281:14282   */\n      0x02\n        /* \"#utility.yul\":14273:14279   */\n      dup9\n        /* \"#utility.yul\":14269:14283   */\n      mul\n        /* \"#utility.yul\":14265:14287   */\n      add\n        /* \"#utility.yul\":14259:14263   */\n      dup9\n        /* \"#utility.yul\":14252:14288   */\n      sstore\n        /* \"#utility.yul\":13687:14298   */\n      pop\n      pop\n      pop\n        /* \"#utility.yul\":13650:14537   */\n    tag_268:\n      pop\n        /* \"#utility.yul\":13240:14543   */\n      pop\n      pop\n      pop\n        /* \"#utility.yul\":13148:14543   */\n      pop\n      pop\n      jump\t// out\n\n    auxdata: 0xa2646970667358221220759186d4df645a756fa8d195bbe786bc719aaed413bd4a3b089d31c3a2f33b0764736f6c63430008180033\n}\n",
				"bytecode": {
					"linkReferences": {},
					"object": "608060405234801561000f575f80fd5b50610c428061001d5f395ff3fe608060405234801561000f575f80fd5b5060043610610055575f3560e01c806381965f0014610059578063a9ae8f6314610075578063c33926cb14610091578063cce4b473146100af578063eefaac93146100cb575b5f80fd5b610073600480360381019061006e91906104ee565b6100e7565b005b61008f600480360381019061008a9190610655565b610152565b005b6100996101b6565b6040516100a69190610880565b60405180910390f35b6100c960048036038101906100c491906104ee565b61034a565b005b6100e560048036038101906100e091906108a0565b61039f565b005b5f81815481106100fa576100f9610916565b5b905f5260205f2090600302016002015f9054906101000a900460ff16155f828154811061012a57610129610916565b5b905f5260205f2090600302016002015f6101000a81548160ff02191690831515021790555050565b815f848154811061016657610165610916565b5b905f5260205f2090600302015f0190816101809190610b3d565b50805f848154811061019557610194610916565b5b905f5260205f20906003020160010190816101b09190610b3d565b50505050565b60605f805480602002602001604051908101604052809291908181526020015f905b82821015610341578382905f5260205f2090600302016040518060600160405290815f8201805461020890610970565b80601f016020809104026020016040519081016040528092919081815260200182805461023490610970565b801561027f5780601f106102565761010080835404028352916020019161027f565b820191905f5260205f20905b81548152906001019060200180831161026257829003601f168201915b5050505050815260200160018201805461029890610970565b80601f01602080910402602001604051908101604052809291908181526020018280546102c490610970565b801561030f5780601f106102e65761010080835404028352916020019161030f565b820191905f5260205f20905b8154815290600101906020018083116102f257829003601f168201915b50505050508152602001600282015f9054906101000a900460ff161515151581525050815260200190600101906101d8565b50505050905090565b5f818154811061035d5761035c610916565b5b905f5260205f2090600302015f8082015f6103789190610430565b600182015f6103879190610430565b600282015f6101000a81549060ff0219169055505050565b6103a761046d565b82815f01819052508181602001819052505f81908060018154018082558091505060019003905f5260205f2090600302015f909190919091505f820151815f0190816103f39190610b3d565b5060208201518160010190816104099190610b3d565b506040820151816002015f6101000a81548160ff0219169083151502179055505050505050565b50805461043c90610970565b5f825580601f1061044d575061046a565b601f0160209004905f5260205f2090810190610469919061048f565b5b50565b604051806060016040528060608152602001606081526020015f151581525090565b5b808211156104a6575f815f905550600101610490565b5090565b5f604051905090565b5f80fd5b5f80fd5b5f819050919050565b6104cd816104bb565b81146104d7575f80fd5b50565b5f813590506104e8816104c4565b92915050565b5f60208284031215610503576105026104b3565b5b5f610510848285016104da565b91505092915050565b5f80fd5b5f80fd5b5f601f19601f8301169050919050565b7f4e487b71000000000000000000000000000000000000000000000000000000005f52604160045260245ffd5b61056782610521565b810181811067ffffffffffffffff8211171561058657610585610531565b5b80604052505050565b5f6105986104aa565b90506105a4828261055e565b919050565b5f67ffffffffffffffff8211156105c3576105c2610531565b5b6105cc82610521565b9050602081019050919050565b828183375f83830152505050565b5f6105f96105f4846105a9565b61058f565b9050828152602081018484840111156106155761061461051d565b5b6106208482856105d9565b509392505050565b5f82601f83011261063c5761063b610519565b5b813561064c8482602086016105e7565b91505092915050565b5f805f6060848603121561066c5761066b6104b3565b5b5f610679868287016104da565b935050602084013567ffffffffffffffff81111561069a576106996104b7565b5b6106a686828701610628565b925050604084013567ffffffffffffffff8111156106c7576106c66104b7565b5b6106d386828701610628565b9150509250925092565b5f81519050919050565b5f82825260208201905092915050565b5f819050602082019050919050565b5f81519050919050565b5f82825260208201905092915050565b5f5b8381101561073d578082015181840152602081019050610722565b5f8484015250505050565b5f61075282610706565b61075c8185610710565b935061076c818560208601610720565b61077581610521565b840191505092915050565b5f8115159050919050565b61079481610780565b82525050565b5f606083015f8301518482035f8601526107b48282610748565b915050602083015184820360208601526107ce8282610748565b91505060408301516107e3604086018261078b565b508091505092915050565b5f6107f9838361079a565b905092915050565b5f602082019050919050565b5f610817826106dd565b61082181856106e7565b935083602082028501610833856106f7565b805f5b8581101561086e578484038952815161084f85826107ee565b945061085a83610801565b925060208a01995050600181019050610836565b50829750879550505050505092915050565b5f6020820190508181035f830152610898818461080d565b905092915050565b5f80604083850312156108b6576108b56104b3565b5b5f83013567ffffffffffffffff8111156108d3576108d26104b7565b5b6108df85828601610628565b925050602083013567ffffffffffffffff811115610900576108ff6104b7565b5b61090c85828601610628565b9150509250929050565b7f4e487b71000000000000000000000000000000000000000000000000000000005f52603260045260245ffd5b7f4e487b71000000000000000000000000000000000000000000000000000000005f52602260045260245ffd5b5f600282049050600182168061098757607f821691505b60208210810361099a57610999610943565b5b50919050565b5f819050815f5260205f209050919050565b5f6020601f8301049050919050565b5f82821b905092915050565b5f600883026109fc7fffffffffffffffffffffffffffffffffffffffffffffffffffffffffffffffff826109c1565b610a0686836109c1565b95508019841693508086168417925050509392505050565b5f819050919050565b5f610a41610a3c610a37846104bb565b610a1e565b6104bb565b9050919050565b5f819050919050565b610a5a83610a27565b610a6e610a6682610a48565b8484546109cd565b825550505050565b5f90565b610a82610a76565b610a8d818484610a51565b505050565b5b81811015610ab057610aa55f82610a7a565b600181019050610a93565b5050565b601f821115610af557610ac6816109a0565b610acf846109b2565b81016020851015610ade578190505b610af2610aea856109b2565b830182610a92565b50505b505050565b5f82821c905092915050565b5f610b155f1984600802610afa565b1980831691505092915050565b5f610b2d8383610b06565b9150826002028217905092915050565b610b4682610706565b67ffffffffffffffff811115610b5f57610b5e610531565b5b610b698254610970565b610b74828285610ab4565b5f60209050601f831160018114610ba5575f8415610b93578287015190505b610b9d8582610b22565b865550610c04565b601f198416610bb3866109a0565b5f5b82811015610bda57848901518255600182019150602085019450602081019050610bb5565b86831015610bf75784890151610bf3601f891682610b06565b8355505b6001600288020188555050505b50505050505056fea2646970667358221220759186d4df645a756fa8d195bbe786bc719aaed413bd4a3b089d31c3a2f33b0764736f6c63430008180033",
					"opcodes": "PUSH1 0x80 PUSH1 0x40 MSTORE CALLVALUE DUP1 ISZERO PUSH2 0xF JUMPI PUSH0 DUP1 REVERT JUMPDEST POP PUSH2 0xC42 DUP1 PUSH2 0x1D PUSH0 CODECOPY PUSH0 RETURN INVALID PUSH1 0x80 PUSH1 0x40 MSTORE CALLVALUE DUP1 ISZERO PUSH2 0xF JUMPI PUSH0 DUP1 REVERT JUMPDEST POP PUSH1 0x4 CALLDATASIZE LT PUSH2 0x55 JUMPI PUSH0 CALLDATALOAD PUSH1 0xE0 SHR DUP1 PUSH4 0x81965F00 EQ PUSH2 0x59 JUMPI DUP1 PUSH4 0xA9AE8F63 EQ PUSH2 0x75 JUMPI DUP1 PUSH4 0xC33926CB EQ PUSH2 0x91 JUMPI DUP1 PUSH4 0xCCE4B473 EQ PUSH2 0xAF JUMPI DUP1 PUSH4 0xEEFAAC93 EQ PUSH2 0xCB JUMPI JUMPDEST PUSH0 DUP1 REVERT JUMPDEST PUSH2 0x73 PUSH1 0x4 DUP1 CALLDATASIZE SUB DUP2 ADD SWAP1 PUSH2 0x6E SWAP2 SWAP1 PUSH2 0x4EE JUMP JUMPDEST PUSH2 0xE7 JUMP JUMPDEST STOP JUMPDEST PUSH2 0x8F PUSH1 0x4 DUP1 CALLDATASIZE SUB DUP2 ADD SWAP1 PUSH2 0x8A SWAP2 SWAP1 PUSH2 0x655 JUMP JUMPDEST PUSH2 0x152 JUMP JUMPDEST STOP JUMPDEST PUSH2 0x99 PUSH2 0x1B6 JUMP JUMPDEST PUSH1 0x40 MLOAD PUSH2 0xA6 SWAP2 SWAP1 PUSH2 0x880 JUMP JUMPDEST PUSH1 0x40 MLOAD DUP1 SWAP2 SUB SWAP1 RETURN JUMPDEST PUSH2 0xC9 PUSH1 0x4 DUP1 CALLDATASIZE SUB DUP2 ADD SWAP1 PUSH2 0xC4 SWAP2 SWAP1 PUSH2 0x4EE JUMP JUMPDEST PUSH2 0x34A JUMP JUMPDEST STOP JUMPDEST PUSH2 0xE5 PUSH1 0x4 DUP1 CALLDATASIZE SUB DUP2 ADD SWAP1 PUSH2 0xE0 SWAP2 SWAP1 PUSH2 0x8A0 JUMP JUMPDEST PUSH2 0x39F JUMP JUMPDEST STOP JUMPDEST PUSH0 DUP2 DUP2 SLOAD DUP2 LT PUSH2 0xFA JUMPI PUSH2 0xF9 PUSH2 0x916 JUMP JUMPDEST JUMPDEST SWAP1 PUSH0 MSTORE PUSH1 0x20 PUSH0 KECCAK256 SWAP1 PUSH1 0x3 MUL ADD PUSH1 0x2 ADD PUSH0 SWAP1 SLOAD SWAP1 PUSH2 0x100 EXP SWAP1 DIV PUSH1 0xFF AND ISZERO PUSH0 DUP3 DUP2 SLOAD DUP2 LT PUSH2 0x12A JUMPI PUSH2 0x129 PUSH2 0x916 JUMP JUMPDEST JUMPDEST SWAP1 PUSH0 MSTORE PUSH1 0x20 PUSH0 KECCAK256 SWAP1 PUSH1 0x3 MUL ADD PUSH1 0x2 ADD PUSH0 PUSH2 0x100 EXP DUP2 SLOAD DUP2 PUSH1 0xFF MUL NOT AND SWAP1 DUP4 ISZERO ISZERO MUL OR SWAP1 SSTORE POP POP JUMP JUMPDEST DUP2 PUSH0 DUP5 DUP2 SLOAD DUP2 LT PUSH2 0x166 JUMPI PUSH2 0x165 PUSH2 0x916 JUMP JUMPDEST JUMPDEST SWAP1 PUSH0 MSTORE PUSH1 0x20 PUSH0 KECCAK256 SWAP1 PUSH1 0x3 MUL ADD PUSH0 ADD SWAP1 DUP2 PUSH2 0x180 SWAP2 SWAP1 PUSH2 0xB3D JUMP JUMPDEST POP DUP1 PUSH0 DUP5 DUP2 SLOAD DUP2 LT PUSH2 0x195 JUMPI PUSH2 0x194 PUSH2 0x916 JUMP JUMPDEST JUMPDEST SWAP1 PUSH0 MSTORE PUSH1 0x20 PUSH0 KECCAK256 SWAP1 PUSH1 0x3 MUL ADD PUSH1 0x1 ADD SWAP1 DUP2 PUSH2 0x1B0 SWAP2 SWAP1 PUSH2 0xB3D JUMP JUMPDEST POP POP POP POP JUMP JUMPDEST PUSH1 0x60 PUSH0 DUP1 SLOAD DUP1 PUSH1 0x20 MUL PUSH1 0x20 ADD PUSH1 0x40 MLOAD SWAP1 DUP2 ADD PUSH1 0x40 MSTORE DUP1 SWAP3 SWAP2 SWAP1 DUP2 DUP2 MSTORE PUSH1 0x20 ADD PUSH0 SWAP1 JUMPDEST DUP3 DUP3 LT ISZERO PUSH2 0x341 JUMPI DUP4 DUP3 SWAP1 PUSH0 MSTORE PUSH1 0x20 PUSH0 KECCAK256 SWAP1 PUSH1 0x3 MUL ADD PUSH1 0x40 MLOAD DUP1 PUSH1 0x60 ADD PUSH1 0x40 MSTORE SWAP1 DUP2 PUSH0 DUP3 ADD DUP1 SLOAD PUSH2 0x208 SWAP1 PUSH2 0x970 JUMP JUMPDEST DUP1 PUSH1 0x1F ADD PUSH1 0x20 DUP1 SWAP2 DIV MUL PUSH1 0x20 ADD PUSH1 0x40 MLOAD SWAP1 DUP2 ADD PUSH1 0x40 MSTORE DUP1 SWAP3 SWAP2 SWAP1 DUP2 DUP2 MSTORE PUSH1 0x20 ADD DUP3 DUP1 SLOAD PUSH2 0x234 SWAP1 PUSH2 0x970 JUMP JUMPDEST DUP1 ISZERO PUSH2 0x27F JUMPI DUP1 PUSH1 0x1F LT PUSH2 0x256 JUMPI PUSH2 0x100 DUP1 DUP4 SLOAD DIV MUL DUP4 MSTORE SWAP2 PUSH1 0x20 ADD SWAP2 PUSH2 0x27F JUMP JUMPDEST DUP3 ADD SWAP2 SWAP1 PUSH0 MSTORE PUSH1 0x20 PUSH0 KECCAK256 SWAP1 JUMPDEST DUP2 SLOAD DUP2 MSTORE SWAP1 PUSH1 0x1 ADD SWAP1 PUSH1 0x20 ADD DUP1 DUP4 GT PUSH2 0x262 JUMPI DUP3 SWAP1 SUB PUSH1 0x1F AND DUP3 ADD SWAP2 JUMPDEST POP POP POP POP POP DUP2 MSTORE PUSH1 0x20 ADD PUSH1 0x1 DUP3 ADD DUP1 SLOAD PUSH2 0x298 SWAP1 PUSH2 0x970 JUMP JUMPDEST DUP1 PUSH1 0x1F ADD PUSH1 0x20 DUP1 SWAP2 DIV MUL PUSH1 0x20 ADD PUSH1 0x40 MLOAD SWAP1 DUP2 ADD PUSH1 0x40 MSTORE DUP1 SWAP3 SWAP2 SWAP1 DUP2 DUP2 MSTORE PUSH1 0x20 ADD DUP3 DUP1 SLOAD PUSH2 0x2C4 SWAP1 PUSH2 0x970 JUMP JUMPDEST DUP1 ISZERO PUSH2 0x30F JUMPI DUP1 PUSH1 0x1F LT PUSH2 0x2E6 JUMPI PUSH2 0x100 DUP1 DUP4 SLOAD DIV MUL DUP4 MSTORE SWAP2 PUSH1 0x20 ADD SWAP2 PUSH2 0x30F JUMP JUMPDEST DUP3 ADD SWAP2 SWAP1 PUSH0 MSTORE PUSH1 0x20 PUSH0 KECCAK256 SWAP1 JUMPDEST DUP2 SLOAD DUP2 MSTORE SWAP1 PUSH1 0x1 ADD SWAP1 PUSH1 0x20 ADD DUP1 DUP4 GT PUSH2 0x2F2 JUMPI DUP3 SWAP1 SUB PUSH1 0x1F AND DUP3 ADD SWAP2 JUMPDEST POP POP POP POP POP DUP2 MSTORE PUSH1 0x20 ADD PUSH1 0x2 DUP3 ADD PUSH0 SWAP1 SLOAD SWAP1 PUSH2 0x100 EXP SWAP1 DIV PUSH1 0xFF AND ISZERO ISZERO ISZERO ISZERO DUP2 MSTORE POP POP DUP2 MSTORE PUSH1 0x20 ADD SWAP1 PUSH1 0x1 ADD SWAP1 PUSH2 0x1D8 JUMP JUMPDEST POP POP POP POP SWAP1 POP SWAP1 JUMP JUMPDEST PUSH0 DUP2 DUP2 SLOAD DUP2 LT PUSH2 0x35D JUMPI PUSH2 0x35C PUSH2 0x916 JUMP JUMPDEST JUMPDEST SWAP1 PUSH0 MSTORE PUSH1 0x20 PUSH0 KECCAK256 SWAP1 PUSH1 0x3 MUL ADD PUSH0 DUP1 DUP3 ADD PUSH0 PUSH2 0x378 SWAP2 SWAP1 PUSH2 0x430 JUMP JUMPDEST PUSH1 0x1 DUP3 ADD PUSH0 PUSH2 0x387 SWAP2 SWAP1 PUSH2 0x430 JUMP JUMPDEST PUSH1 0x2 DUP3 ADD PUSH0 PUSH2 0x100 EXP DUP2 SLOAD SWAP1 PUSH1 0xFF MUL NOT AND SWAP1 SSTORE POP POP POP JUMP JUMPDEST PUSH2 0x3A7 PUSH2 0x46D JUMP JUMPDEST DUP3 DUP2 PUSH0 ADD DUP2 SWAP1 MSTORE POP DUP2 DUP2 PUSH1 0x20 ADD DUP2 SWAP1 MSTORE POP PUSH0 DUP2 SWAP1 DUP1 PUSH1 0x1 DUP2 SLOAD ADD DUP1 DUP3 SSTORE DUP1 SWAP2 POP POP PUSH1 0x1 SWAP1 SUB SWAP1 PUSH0 MSTORE PUSH1 0x20 PUSH0 KECCAK256 SWAP1 PUSH1 0x3 MUL ADD PUSH0 SWAP1 SWAP2 SWAP1 SWAP2 SWAP1 SWAP2 POP PUSH0 DUP3 ADD MLOAD DUP2 PUSH0 ADD SWAP1 DUP2 PUSH2 0x3F3 SWAP2 SWAP1 PUSH2 0xB3D JUMP JUMPDEST POP PUSH1 0x20 DUP3 ADD MLOAD DUP2 PUSH1 0x1 ADD SWAP1 DUP2 PUSH2 0x409 SWAP2 SWAP1 PUSH2 0xB3D JUMP JUMPDEST POP PUSH1 0x40 DUP3 ADD MLOAD DUP2 PUSH1 0x2 ADD PUSH0 PUSH2 0x100 EXP DUP2 SLOAD DUP2 PUSH1 0xFF MUL NOT AND SWAP1 DUP4 ISZERO ISZERO MUL OR SWAP1 SSTORE POP POP POP POP POP POP JUMP JUMPDEST POP DUP1 SLOAD PUSH2 0x43C SWAP1 PUSH2 0x970 JUMP JUMPDEST PUSH0 DUP3 SSTORE DUP1 PUSH1 0x1F LT PUSH2 0x44D JUMPI POP PUSH2 0x46A JUMP JUMPDEST PUSH1 0x1F ADD PUSH1 0x20 SWAP1 DIV SWAP1 PUSH0 MSTORE PUSH1 0x20 PUSH0 KECCAK256 SWAP1 DUP2 ADD SWAP1 PUSH2 0x469 SWAP2 SWAP1 PUSH2 0x48F JUMP JUMPDEST JUMPDEST POP JUMP JUMPDEST PUSH1 0x40 MLOAD DUP1 PUSH1 0x60 ADD PUSH1 0x40 MSTORE DUP1 PUSH1 0x60 DUP2 MSTORE PUSH1 0x20 ADD PUSH1 0x60 DUP2 MSTORE PUSH1 0x20 ADD PUSH0 ISZERO ISZERO DUP2 MSTORE POP SWAP1 JUMP JUMPDEST JUMPDEST DUP1 DUP3 GT ISZERO PUSH2 0x4A6 JUMPI PUSH0 DUP2 PUSH0 SWAP1 SSTORE POP PUSH1 0x1 ADD PUSH2 0x490 JUMP JUMPDEST POP SWAP1 JUMP JUMPDEST PUSH0 PUSH1 0x40 MLOAD SWAP1 POP SWAP1 JUMP JUMPDEST PUSH0 DUP1 REVERT JUMPDEST PUSH0 DUP1 REVERT JUMPDEST PUSH0 DUP2 SWAP1 POP SWAP2 SWAP1 POP JUMP JUMPDEST PUSH2 0x4CD DUP2 PUSH2 0x4BB JUMP JUMPDEST DUP2 EQ PUSH2 0x4D7 JUMPI PUSH0 DUP1 REVERT JUMPDEST POP JUMP JUMPDEST PUSH0 DUP2 CALLDATALOAD SWAP1 POP PUSH2 0x4E8 DUP2 PUSH2 0x4C4 JUMP JUMPDEST SWAP3 SWAP2 POP POP JUMP JUMPDEST PUSH0 PUSH1 0x20 DUP3 DUP5 SUB SLT ISZERO PUSH2 0x503 JUMPI PUSH2 0x502 PUSH2 0x4B3 JUMP JUMPDEST JUMPDEST PUSH0 PUSH2 0x510 DUP5 DUP3 DUP6 ADD PUSH2 0x4DA JUMP JUMPDEST SWAP2 POP POP SWAP3 SWAP2 POP POP JUMP JUMPDEST PUSH0 DUP1 REVERT JUMPDEST PUSH0 DUP1 REVERT JUMPDEST PUSH0 PUSH1 0x1F NOT PUSH1 0x1F DUP4 ADD AND SWAP1 POP SWAP2 SWAP1 POP JUMP JUMPDEST PUSH32 0x4E487B7100000000000000000000000000000000000000000000000000000000 PUSH0 MSTORE PUSH1 0x41 PUSH1 0x4 MSTORE PUSH1 0x24 PUSH0 REVERT JUMPDEST PUSH2 0x567 DUP3 PUSH2 0x521 JUMP JUMPDEST DUP2 ADD DUP2 DUP2 LT PUSH8 0xFFFFFFFFFFFFFFFF DUP3 GT OR ISZERO PUSH2 0x586 JUMPI PUSH2 0x585 PUSH2 0x531 JUMP JUMPDEST JUMPDEST DUP1 PUSH1 0x40 MSTORE POP POP POP JUMP JUMPDEST PUSH0 PUSH2 0x598 PUSH2 0x4AA JUMP JUMPDEST SWAP1 POP PUSH2 0x5A4 DUP3 DUP3 PUSH2 0x55E JUMP JUMPDEST SWAP2 SWAP1 POP JUMP JUMPDEST PUSH0 PUSH8 0xFFFFFFFFFFFFFFFF DUP3 GT ISZERO PUSH2 0x5C3 JUMPI PUSH2 0x5C2 PUSH2 0x531 JUMP JUMPDEST JUMPDEST PUSH2 0x5CC DUP3 PUSH2 0x521 JUMP JUMPDEST SWAP1 POP PUSH1 0x20 DUP2 ADD SWAP1 POP SWAP2 SWAP1 POP JUMP JUMPDEST DUP3 DUP2 DUP4 CALLDATACOPY PUSH0 DUP4 DUP4 ADD MSTORE POP POP POP JUMP JUMPDEST PUSH0 PUSH2 0x5F9 PUSH2 0x5F4 DUP5 PUSH2 0x5A9 JUMP JUMPDEST PUSH2 0x58F JUMP JUMPDEST SWAP1 POP DUP3 DUP2 MSTORE PUSH1 0x20 DUP2 ADD DUP5 DUP5 DUP5 ADD GT ISZERO PUSH2 0x615 JUMPI PUSH2 0x614 PUSH2 0x51D JUMP JUMPDEST JUMPDEST PUSH2 0x620 DUP5 DUP3 DUP6 PUSH2 0x5D9 JUMP JUMPDEST POP SWAP4 SWAP3 POP POP POP JUMP JUMPDEST PUSH0 DUP3 PUSH1 0x1F DUP4 ADD SLT PUSH2 0x63C JUMPI PUSH2 0x63B PUSH2 0x519 JUMP JUMPDEST JUMPDEST DUP2 CALLDATALOAD PUSH2 0x64C DUP5 DUP3 PUSH1 0x20 DUP7 ADD PUSH2 0x5E7 JUMP JUMPDEST SWAP2 POP POP SWAP3 SWAP2 POP POP JUMP JUMPDEST PUSH0 DUP1 PUSH0 PUSH1 0x60 DUP5 DUP7 SUB SLT ISZERO PUSH2 0x66C JUMPI PUSH2 0x66B PUSH2 0x4B3 JUMP JUMPDEST JUMPDEST PUSH0 PUSH2 0x679 DUP7 DUP3 DUP8 ADD PUSH2 0x4DA JUMP JUMPDEST SWAP4 POP POP PUSH1 0x20 DUP5 ADD CALLDATALOAD PUSH8 0xFFFFFFFFFFFFFFFF DUP2 GT ISZERO PUSH2 0x69A JUMPI PUSH2 0x699 PUSH2 0x4B7 JUMP JUMPDEST JUMPDEST PUSH2 0x6A6 DUP7 DUP3 DUP8 ADD PUSH2 0x628 JUMP JUMPDEST SWAP3 POP POP PUSH1 0x40 DUP5 ADD CALLDATALOAD PUSH8 0xFFFFFFFFFFFFFFFF DUP2 GT ISZERO PUSH2 0x6C7 JUMPI PUSH2 0x6C6 PUSH2 0x4B7 JUMP JUMPDEST JUMPDEST PUSH2 0x6D3 DUP7 DUP3 DUP8 ADD PUSH2 0x628 JUMP JUMPDEST SWAP2 POP POP SWAP3 POP SWAP3 POP SWAP3 JUMP JUMPDEST PUSH0 DUP2 MLOAD SWAP1 POP SWAP2 SWAP1 POP JUMP JUMPDEST PUSH0 DUP3 DUP3 MSTORE PUSH1 0x20 DUP3 ADD SWAP1 POP SWAP3 SWAP2 POP POP JUMP JUMPDEST PUSH0 DUP2 SWAP1 POP PUSH1 0x20 DUP3 ADD SWAP1 POP SWAP2 SWAP1 POP JUMP JUMPDEST PUSH0 DUP2 MLOAD SWAP1 POP SWAP2 SWAP1 POP JUMP JUMPDEST PUSH0 DUP3 DUP3 MSTORE PUSH1 0x20 DUP3 ADD SWAP1 POP SWAP3 SWAP2 POP POP JUMP JUMPDEST PUSH0 JUMPDEST DUP4 DUP2 LT ISZERO PUSH2 0x73D JUMPI DUP1 DUP3 ADD MLOAD DUP2 DUP5 ADD MSTORE PUSH1 0x20 DUP2 ADD SWAP1 POP PUSH2 0x722 JUMP JUMPDEST PUSH0 DUP5 DUP5 ADD MSTORE POP POP POP POP JUMP JUMPDEST PUSH0 PUSH2 0x752 DUP3 PUSH2 0x706 JUMP JUMPDEST PUSH2 0x75C DUP2 DUP6 PUSH2 0x710 JUMP JUMPDEST SWAP4 POP PUSH2 0x76C DUP2 DUP6 PUSH1 0x20 DUP7 ADD PUSH2 0x720 JUMP JUMPDEST PUSH2 0x775 DUP2 PUSH2 0x521 JUMP JUMPDEST DUP5 ADD SWAP2 POP POP SWAP3 SWAP2 POP POP JUMP JUMPDEST PUSH0 DUP2 ISZERO ISZERO SWAP1 POP SWAP2 SWAP1 POP JUMP JUMPDEST PUSH2 0x794 DUP2 PUSH2 0x780 JUMP JUMPDEST DUP3 MSTORE POP POP JUMP JUMPDEST PUSH0 PUSH1 0x60 DUP4 ADD PUSH0 DUP4 ADD MLOAD DUP5 DUP3 SUB PUSH0 DUP7 ADD MSTORE PUSH2 0x7B4 DUP3 DUP3 PUSH2 0x748 JUMP JUMPDEST SWAP2 POP POP PUSH1 0x20 DUP4 ADD MLOAD DUP5 DUP3 SUB PUSH1 0x20 DUP7 ADD MSTORE PUSH2 0x7CE DUP3 DUP3 PUSH2 0x748 JUMP JUMPDEST SWAP2 POP POP PUSH1 0x40 DUP4 ADD MLOAD PUSH2 0x7E3 PUSH1 0x40 DUP7 ADD DUP3 PUSH2 0x78B JUMP JUMPDEST POP DUP1 SWAP2 POP POP SWAP3 SWAP2 POP POP JUMP JUMPDEST PUSH0 PUSH2 0x7F9 DUP4 DUP4 PUSH2 0x79A JUMP JUMPDEST SWAP1 POP SWAP3 SWAP2 POP POP JUMP JUMPDEST PUSH0 PUSH1 0x20 DUP3 ADD SWAP1 POP SWAP2 SWAP1 POP JUMP JUMPDEST PUSH0 PUSH2 0x817 DUP3 PUSH2 0x6DD JUMP JUMPDEST PUSH2 0x821 DUP2 DUP6 PUSH2 0x6E7 JUMP JUMPDEST SWAP4 POP DUP4 PUSH1 0x20 DUP3 MUL DUP6 ADD PUSH2 0x833 DUP6 PUSH2 0x6F7 JUMP JUMPDEST DUP1 PUSH0 JUMPDEST DUP6 DUP2 LT ISZERO PUSH2 0x86E JUMPI DUP5 DUP5 SUB DUP10 MSTORE DUP2 MLOAD PUSH2 0x84F DUP6 DUP3 PUSH2 0x7EE JUMP JUMPDEST SWAP5 POP PUSH2 0x85A DUP4 PUSH2 0x801 JUMP JUMPDEST SWAP3 POP PUSH1 0x20 DUP11 ADD SWAP10 POP POP PUSH1 0x1 DUP2 ADD SWAP1 POP PUSH2 0x836 JUMP JUMPDEST POP DUP3 SWAP8 POP DUP8 SWAP6 POP POP POP POP POP POP SWAP3 SWAP2 POP POP JUMP JUMPDEST PUSH0 PUSH1 0x20 DUP3 ADD SWAP1 POP DUP2 DUP2 SUB PUSH0 DUP4 ADD MSTORE PUSH2 0x898 DUP2 DUP5 PUSH2 0x80D JUMP JUMPDEST SWAP1 POP SWAP3 SWAP2 POP POP JUMP JUMPDEST PUSH0 DUP1 PUSH1 0x40 DUP4 DUP6 SUB SLT ISZERO PUSH2 0x8B6 JUMPI PUSH2 0x8B5 PUSH2 0x4B3 JUMP JUMPDEST JUMPDEST PUSH0 DUP4 ADD CALLDATALOAD PUSH8 0xFFFFFFFFFFFFFFFF DUP2 GT ISZERO PUSH2 0x8D3 JUMPI PUSH2 0x8D2 PUSH2 0x4B7 JUMP JUMPDEST JUMPDEST PUSH2 0x8DF DUP6 DUP3 DUP7 ADD PUSH2 0x628 JUMP JUMPDEST SWAP3 POP POP PUSH1 0x20 DUP4 ADD CALLDATALOAD PUSH8 0xFFFFFFFFFFFFFFFF DUP2 GT ISZERO PUSH2 0x900 JUMPI PUSH2 0x8FF PUSH2 0x4B7 JUMP JUMPDEST JUMPDEST PUSH2 0x90C DUP6 DUP3 DUP7 ADD PUSH2 0x628 JUMP JUMPDEST SWAP2 POP POP SWAP3 POP SWAP3 SWAP1 POP JUMP JUMPDEST PUSH32 0x4E487B7100000000000000000000000000000000000000000000000000000000 PUSH0 MSTORE PUSH1 0x32 PUSH1 0x4 MSTORE PUSH1 0x24 PUSH0 REVERT JUMPDEST PUSH32 0x4E487B7100000000000000000000000000000000000000000000000000000000 PUSH0 MSTORE PUSH1 0x22 PUSH1 0x4 MSTORE PUSH1 0x24 PUSH0 REVERT JUMPDEST PUSH0 PUSH1 0x2 DUP3 DIV SWAP1 POP PUSH1 0x1 DUP3 AND DUP1 PUSH2 0x987 JUMPI PUSH1 0x7F DUP3 AND SWAP2 POP JUMPDEST PUSH1 0x20 DUP3 LT DUP2 SUB PUSH2 0x99A JUMPI PUSH2 0x999 PUSH2 0x943 JUMP JUMPDEST JUMPDEST POP SWAP2 SWAP1 POP JUMP JUMPDEST PUSH0 DUP2 SWAP1 POP DUP2 PUSH0 MSTORE PUSH1 0x20 PUSH0 KECCAK256 SWAP1 POP SWAP2 SWAP1 POP JUMP JUMPDEST PUSH0 PUSH1 0x20 PUSH1 0x1F DUP4 ADD DIV SWAP1 POP SWAP2 SWAP1 POP JUMP JUMPDEST PUSH0 DUP3 DUP3 SHL SWAP1 POP SWAP3 SWAP2 POP POP JUMP JUMPDEST PUSH0 PUSH1 0x8 DUP4 MUL PUSH2 0x9FC PUSH32 0xFFFFFFFFFFFFFFFFFFFFFFFFFFFFFFFFFFFFFFFFFFFFFFFFFFFFFFFFFFFFFFFF DUP3 PUSH2 0x9C1 JUMP JUMPDEST PUSH2 0xA06 DUP7 DUP4 PUSH2 0x9C1 JUMP JUMPDEST SWAP6 POP DUP1 NOT DUP5 AND SWAP4 POP DUP1 DUP7 AND DUP5 OR SWAP3 POP POP POP SWAP4 SWAP3 POP POP POP JUMP JUMPDEST PUSH0 DUP2 SWAP1 POP SWAP2 SWAP1 POP JUMP JUMPDEST PUSH0 PUSH2 0xA41 PUSH2 0xA3C PUSH2 0xA37 DUP5 PUSH2 0x4BB JUMP JUMPDEST PUSH2 0xA1E JUMP JUMPDEST PUSH2 0x4BB JUMP JUMPDEST SWAP1 POP SWAP2 SWAP1 POP JUMP JUMPDEST PUSH0 DUP2 SWAP1 POP SWAP2 SWAP1 POP JUMP JUMPDEST PUSH2 0xA5A DUP4 PUSH2 0xA27 JUMP JUMPDEST PUSH2 0xA6E PUSH2 0xA66 DUP3 PUSH2 0xA48 JUMP JUMPDEST DUP5 DUP5 SLOAD PUSH2 0x9CD JUMP JUMPDEST DUP3 SSTORE POP POP POP POP JUMP JUMPDEST PUSH0 SWAP1 JUMP JUMPDEST PUSH2 0xA82 PUSH2 0xA76 JUMP JUMPDEST PUSH2 0xA8D DUP2 DUP5 DUP5 PUSH2 0xA51 JUMP JUMPDEST POP POP POP JUMP JUMPDEST JUMPDEST DUP2 DUP2 LT ISZERO PUSH2 0xAB0 JUMPI PUSH2 0xAA5 PUSH0 DUP3 PUSH2 0xA7A JUMP JUMPDEST PUSH1 0x1 DUP2 ADD SWAP1 POP PUSH2 0xA93 JUMP JUMPDEST POP POP JUMP JUMPDEST PUSH1 0x1F DUP3 GT ISZERO PUSH2 0xAF5 JUMPI PUSH2 0xAC6 DUP2 PUSH2 0x9A0 JUMP JUMPDEST PUSH2 0xACF DUP5 PUSH2 0x9B2 JUMP JUMPDEST DUP2 ADD PUSH1 0x20 DUP6 LT ISZERO PUSH2 0xADE JUMPI DUP2 SWAP1 POP JUMPDEST PUSH2 0xAF2 PUSH2 0xAEA DUP6 PUSH2 0x9B2 JUMP JUMPDEST DUP4 ADD DUP3 PUSH2 0xA92 JUMP JUMPDEST POP POP JUMPDEST POP POP POP JUMP JUMPDEST PUSH0 DUP3 DUP3 SHR SWAP1 POP SWAP3 SWAP2 POP POP JUMP JUMPDEST PUSH0 PUSH2 0xB15 PUSH0 NOT DUP5 PUSH1 0x8 MUL PUSH2 0xAFA JUMP JUMPDEST NOT DUP1 DUP4 AND SWAP2 POP POP SWAP3 SWAP2 POP POP JUMP JUMPDEST PUSH0 PUSH2 0xB2D DUP4 DUP4 PUSH2 0xB06 JUMP JUMPDEST SWAP2 POP DUP3 PUSH1 0x2 MUL DUP3 OR SWAP1 POP SWAP3 SWAP2 POP POP JUMP JUMPDEST PUSH2 0xB46 DUP3 PUSH2 0x706 JUMP JUMPDEST PUSH8 0xFFFFFFFFFFFFFFFF DUP2 GT ISZERO PUSH2 0xB5F JUMPI PUSH2 0xB5E PUSH2 0x531 JUMP JUMPDEST JUMPDEST PUSH2 0xB69 DUP3 SLOAD PUSH2 0x970 JUMP JUMPDEST PUSH2 0xB74 DUP3 DUP3 DUP6 PUSH2 0xAB4 JUMP JUMPDEST PUSH0 PUSH1 0x20 SWAP1 POP PUSH1 0x1F DUP4 GT PUSH1 0x1 DUP2 EQ PUSH2 0xBA5 JUMPI PUSH0 DUP5 ISZERO PUSH2 0xB93 JUMPI DUP3 DUP8 ADD MLOAD SWAP1 POP JUMPDEST PUSH2 0xB9D DUP6 DUP3 PUSH2 0xB22 JUMP JUMPDEST DUP7 SSTORE POP PUSH2 0xC04 JUMP JUMPDEST PUSH1 0x1F NOT DUP5 AND PUSH2 0xBB3 DUP7 PUSH2 0x9A0 JUMP JUMPDEST PUSH0 JUMPDEST DUP3 DUP2 LT ISZERO PUSH2 0xBDA JUMPI DUP5 DUP10 ADD MLOAD DUP3 SSTORE PUSH1 0x1 DUP3 ADD SWAP2 POP PUSH1 0x20 DUP6 ADD SWAP5 POP PUSH1 0x20 DUP2 ADD SWAP1 POP PUSH2 0xBB5 JUMP JUMPDEST DUP7 DUP4 LT ISZERO PUSH2 0xBF7 JUMPI DUP5 DUP10 ADD MLOAD PUSH2 0xBF3 PUSH1 0x1F DUP10 AND DUP3 PUSH2 0xB06 JUMP JUMPDEST DUP4 SSTORE POP JUMPDEST PUSH1 0x1 PUSH1 0x2 DUP9 MUL ADD DUP9 SSTORE POP POP POP JUMPDEST POP POP POP POP POP POP JUMP INVALID LOG2 PUSH5 0x6970667358 0x22 SLT KECCAK256 PUSH22 0x9186D4DF645A756FA8D195BBE786BC719AAED413BD4A EXTCODESIZE ADDMOD SWAP14 BALANCE 0xC3 LOG2 RETURN EXTCODESIZE SMOD PUSH5 0x736F6C6343 STOP ADDMOD XOR STOP CALLER "
				},
				"gasEstimates": {
					"creation": {
						"codeDepositCost": "627600",
						"executionCost": "662",
						"totalCost": "628262"
					},
					"external": {
						"createTodos(string,string)": "infinite",
						"deleteTodos(uint256)": "infinite",
						"getTodos()": "infinite",
						"toggleTodos(uint256)": "31171",
						"updateTodos(uint256,string,string)": "infinite"
					}
				},
				"methodIdentifiers": {
					"createTodos(string,string)": "eefaac93",
					"deleteTodos(uint256)": "cce4b473",
					"getTodos()": "c33926cb",
					"toggleTodos(uint256)": "81965f00",
					"updateTodos(uint256,string,string)": "a9ae8f63"
				}
			},
			"storageLayout": {
				"storage": [
					{
						"astId": 12,
						"contract": "cas/TodoList.sol:TodoList",
						"label": "todos",
						"offset": 0,
						"slot": "0",
						"type": "t_array(t_struct(Todo)8_storage)dyn_storage"
					}
				],
				"types": {
					"t_array(t_struct(Todo)8_storage)dyn_storage": {
						"base": "t_struct(Todo)8_storage",
						"encoding": "dynamic_array",
						"label": "struct TodoList.Todo[]",
						"numberOfBytes": "32"
					},
					"t_bool": {
						"encoding": "inplace",
						"label": "bool",
						"numberOfBytes": "1"
					},
					"t_string_storage": {
						"encoding": "bytes",
						"label": "string",
						"numberOfBytes": "32"
					},
					"t_struct(Todo)8_storage": {
						"encoding": "inplace",
						"label": "struct TodoList.Todo",
						"members": [
							{
								"astId": 3,
								"contract": "cas/TodoList.sol:TodoList",
								"label": "Title",
								"offset": 0,
								"slot": "0",
								"type": "t_string_storage"
							},
							{
								"astId": 5,
								"contract": "cas/TodoList.sol:TodoList",
								"label": "description",
								"offset": 0,
								"slot": "1",
								"type": "t_string_storage"
							},
							{
								"astId": 7,
								"contract": "cas/TodoList.sol:TodoList",
								"label": "completed",
								"offset": 0,
								"slot": "2",
								"type": "t_bool"
							}
						],
						"numberOfBytes": "96"
					}
				}
			},
			"userdoc": {
				"kind": "user",
				"methods": {},
				"version": 1
			}
		}
	}
}