{
	"cas/SaveEther.sol": {
		"SaveEther": {
			"abi": [
				{
					"anonymous": false,
					"inputs": [
						{
							"indexed": true,
							"internalType": "address",
							"name": "user",
							"type": "address"
						},
						{
							"indexed": true,
							"internalType": "uint256",
							"name": "value",
							"type": "uint256"
						}
					],
					"name": "saveSuccessiful",
					"type": "event"
				},
				{
					"inputs": [
						{
							"internalType": "address",
							"name": "_user",
							"type": "address"
						}
					],
					"name": "checkBalance",
					"outputs": [
						{
							"internalType": "uint256",
							"name": "",
							"type": "uint256"
						}
					],
					"stateMutability": "view",
					"type": "function"
				},
				{
					"inputs": [],
					"name": "checkContractBalance",
					"outputs": [
						{
							"internalType": "uint256",
							"name": "",
							"type": "uint256"
						}
					],
					"stateMutability": "view",
					"type": "function"
				},
				{
					"inputs": [],
					"name": "deposit",
					"outputs": [],
					"stateMutability": "payable",
					"type": "function"
				},
				{
					"inputs": [
						{
							"internalType": "address",
							"name": "_receiver",
							"type": "address"
						},
						{
							"internalType": "uint256",
							"name": "_amount",
							"type": "uint256"
						}
					],
					"name": "sendSavings",
					"outputs": [],
					"stateMutability": "nonpayable",
					"type": "function"
				},
				{
					"inputs": [],
					"name": "withdraw",
					"outputs": [],
					"stateMutability": "payable",
					"type": "function"
				}
			],
			"devdoc": {
				"kind": "dev",
				"methods": {},
				"version": 1
			},
			"evm": {
				"assembly": "    /* \"cas/SaveEther.sol\":57:1305  contract SaveEther {... */\n  mstore(0x40, 0x80)\n  callvalue\n  dup1\n  iszero\n  tag_1\n  jumpi\n  0x00\n  dup1\n  revert\ntag_1:\n  pop\n  dataSize(sub_0)\n  dup1\n  dataOffset(sub_0)\n  0x00\n  codecopy\n  0x00\n  return\nstop\n\nsub_0: assembly {\n        /* \"cas/SaveEther.sol\":57:1305  contract SaveEther {... */\n      mstore(0x40, 0x80)\n      jumpi(tag_1, lt(calldatasize, 0x04))\n      shr(0xe0, calldataload(0x00))\n      dup1\n      0x3ccfd60b\n      eq\n      tag_2\n      jumpi\n      dup1\n      0x50312c9e\n      eq\n      tag_3\n      jumpi\n      dup1\n      0x5f515226\n      eq\n      tag_4\n      jumpi\n      dup1\n      0xd0e30db0\n      eq\n      tag_5\n      jumpi\n      dup1\n      0xdb4fee82\n      eq\n      tag_6\n      jumpi\n    tag_1:\n      0x00\n      dup1\n      revert\n        /* \"cas/SaveEther.sol\":469:771  function withdraw () external payable {... */\n    tag_2:\n      tag_7\n      tag_8\n      jump\t// in\n    tag_7:\n      stop\n        /* \"cas/SaveEther.sol\":1197:1303  function checkContractBalance () external view returns(uint) {... */\n    tag_3:\n      callvalue\n      dup1\n      iszero\n      tag_9\n      jumpi\n      0x00\n      dup1\n      revert\n    tag_9:\n      pop\n      tag_10\n      tag_11\n      jump\t// in\n    tag_10:\n      mload(0x40)\n      tag_12\n      swap2\n      swap1\n      tag_13\n      jump\t// in\n    tag_12:\n      mload(0x40)\n      dup1\n      swap2\n      sub\n      swap1\n      return\n        /* \"cas/SaveEther.sol\":1087:1191  function checkBalance (address _user) external view returns (uint){... */\n    tag_4:\n      callvalue\n      dup1\n      iszero\n      tag_14\n      jumpi\n      0x00\n      dup1\n      revert\n    tag_14:\n      pop\n      tag_15\n      0x04\n      dup1\n      calldatasize\n      sub\n      dup2\n      add\n      swap1\n      tag_16\n      swap2\n      swap1\n      tag_17\n      jump\t// in\n    tag_16:\n      tag_18\n      jump\t// in\n    tag_15:\n      mload(0x40)\n      tag_19\n      swap2\n      swap1\n      tag_13\n      jump\t// in\n    tag_19:\n      mload(0x40)\n      dup1\n      swap2\n      sub\n      swap1\n      return\n        /* \"cas/SaveEther.sol\":202:463  function deposit () external payable {... */\n    tag_5:\n      tag_20\n      tag_21\n      jump\t// in\n    tag_20:\n      stop\n        /* \"cas/SaveEther.sol\":777:1081  function sendSavings (address _receiver, uint _amount) external {... */\n    tag_6:\n      callvalue\n      dup1\n      iszero\n      tag_22\n      jumpi\n      0x00\n      dup1\n      revert\n    tag_22:\n      pop\n      tag_23\n      0x04\n      dup1\n      calldatasize\n      sub\n      dup2\n      add\n      swap1\n      tag_24\n      swap2\n      swap1\n      tag_25\n      jump\t// in\n    tag_24:\n      tag_26\n      jump\t// in\n    tag_23:\n      stop\n        /* \"cas/SaveEther.sol\":469:771  function withdraw () external payable {... */\n    tag_8:\n        /* \"cas/SaveEther.sol\":547:548  0 */\n      0x00\n        /* \"cas/SaveEther.sol\":525:549  msg.sender != address(0) */\n      0xffffffffffffffffffffffffffffffffffffffff\n      and\n        /* \"cas/SaveEther.sol\":525:535  msg.sender */\n      caller\n        /* \"cas/SaveEther.sol\":525:549  msg.sender != address(0) */\n      0xffffffffffffffffffffffffffffffffffffffff\n      and\n      sub\n        /* \"cas/SaveEther.sol\":517:550  require(msg.sender != address(0)) */\n      tag_28\n      jumpi\n      0x00\n      dup1\n      revert\n    tag_28:\n        /* \"cas/SaveEther.sol\":561:581  uint256 _userSavings */\n      0x00\n        /* \"cas/SaveEther.sol\":584:591  savings */\n      dup1\n        /* \"cas/SaveEther.sol\":584:603  savings[msg.sender] */\n      0x00\n        /* \"cas/SaveEther.sol\":592:602  msg.sender */\n      caller\n        /* \"cas/SaveEther.sol\":584:603  savings[msg.sender] */\n      0xffffffffffffffffffffffffffffffffffffffff\n      and\n      0xffffffffffffffffffffffffffffffffffffffff\n      and\n      dup2\n      mstore\n      0x20\n      add\n      swap1\n      dup2\n      mstore\n      0x20\n      add\n      0x00\n      keccak256\n      sload\n        /* \"cas/SaveEther.sol\":561:603  uint256 _userSavings = savings[msg.sender] */\n      swap1\n      pop\n        /* \"cas/SaveEther.sol\":637:638  0 */\n      0x00\n        /* \"cas/SaveEther.sol\":622:634  _userSavings */\n      dup2\n        /* \"cas/SaveEther.sol\":622:638  _userSavings > 0 */\n      gt\n        /* \"cas/SaveEther.sol\":614:660  require(_userSavings > 0, \"no enough balance\") */\n      tag_29\n      jumpi\n      mload(0x40)\n      0x08c379a000000000000000000000000000000000000000000000000000000000\n      dup2\n      mstore\n      0x04\n      add\n      tag_30\n      swap1\n      tag_31\n      jump\t// in\n    tag_30:\n      mload(0x40)\n      dup1\n      swap2\n      sub\n      swap1\n      revert\n    tag_29:\n        /* \"cas/SaveEther.sol\":694:706  _userSavings */\n      dup1\n        /* \"cas/SaveEther.sol\":671:678  savings */\n      0x00\n        /* \"cas/SaveEther.sol\":671:690  savings[msg.sender] */\n      dup1\n        /* \"cas/SaveEther.sol\":679:689  msg.sender */\n      caller\n        /* \"cas/SaveEther.sol\":671:690  savings[msg.sender] */\n      0xffffffffffffffffffffffffffffffffffffffff\n      and\n      0xffffffffffffffffffffffffffffffffffffffff\n      and\n      dup2\n      mstore\n      0x20\n      add\n      swap1\n      dup2\n      mstore\n      0x20\n      add\n      0x00\n      keccak256\n      0x00\n        /* \"cas/SaveEther.sol\":671:706  savings[msg.sender] -= _userSavings */\n      dup3\n      dup3\n      sload\n      tag_32\n      swap2\n      swap1\n      tag_33\n      jump\t// in\n    tag_32:\n      swap3\n      pop\n      pop\n      dup2\n      swap1\n      sstore\n      pop\n        /* \"cas/SaveEther.sol\":725:735  msg.sender */\n      caller\n        /* \"cas/SaveEther.sol\":717:745  payable(msg.sender).transfer */\n      0xffffffffffffffffffffffffffffffffffffffff\n      and\n        /* \"cas/SaveEther.sol\":717:759  payable(msg.sender).transfer(_userSavings) */\n      0x08fc\n        /* \"cas/SaveEther.sol\":746:758  _userSavings */\n      dup3\n        /* \"cas/SaveEther.sol\":717:759  payable(msg.sender).transfer(_userSavings) */\n      swap1\n      dup2\n      iszero\n      mul\n      swap1\n      mload(0x40)\n      0x00\n      mload(0x40)\n      dup1\n      dup4\n      sub\n      dup2\n      dup6\n      dup9\n      dup9\n      call\n      swap4\n      pop\n      pop\n      pop\n      pop\n      iszero\n      dup1\n      iszero\n      tag_35\n      jumpi\n      returndatasize\n      0x00\n      dup1\n      returndatacopy\n      revert(0x00, returndatasize)\n    tag_35:\n      pop\n        /* \"cas/SaveEther.sol\":507:771  {... */\n      pop\n        /* \"cas/SaveEther.sol\":469:771  function withdraw () external payable {... */\n      jump\t// out\n        /* \"cas/SaveEther.sol\":1197:1303  function checkContractBalance () external view returns(uint) {... */\n    tag_11:\n        /* \"cas/SaveEther.sol\":1252:1256  uint */\n      0x00\n        /* \"cas/SaveEther.sol\":1275:1296  address(this).balance */\n      selfbalance\n        /* \"cas/SaveEther.sol\":1268:1296  return address(this).balance */\n      swap1\n      pop\n        /* \"cas/SaveEther.sol\":1197:1303  function checkContractBalance () external view returns(uint) {... */\n      swap1\n      jump\t// out\n        /* \"cas/SaveEther.sol\":1087:1191  function checkBalance (address _user) external view returns (uint){... */\n    tag_18:\n        /* \"cas/SaveEther.sol\":1148:1152  uint */\n      0x00\n        /* \"cas/SaveEther.sol\":1170:1177  savings */\n      dup1\n        /* \"cas/SaveEther.sol\":1170:1184  savings[_user] */\n      0x00\n        /* \"cas/SaveEther.sol\":1178:1183  _user */\n      dup4\n        /* \"cas/SaveEther.sol\":1170:1184  savings[_user] */\n      0xffffffffffffffffffffffffffffffffffffffff\n      and\n      0xffffffffffffffffffffffffffffffffffffffff\n      and\n      dup2\n      mstore\n      0x20\n      add\n      swap1\n      dup2\n      mstore\n      0x20\n      add\n      0x00\n      keccak256\n      sload\n        /* \"cas/SaveEther.sol\":1163:1184  return savings[_user] */\n      swap1\n      pop\n        /* \"cas/SaveEther.sol\":1087:1191  function checkBalance (address _user) external view returns (uint){... */\n      swap2\n      swap1\n      pop\n      jump\t// out\n        /* \"cas/SaveEther.sol\":202:463  function deposit () external payable {... */\n    tag_21:\n        /* \"cas/SaveEther.sol\":279:280  0 */\n      0x00\n        /* \"cas/SaveEther.sol\":257:281  msg.sender != address(0) */\n      0xffffffffffffffffffffffffffffffffffffffff\n      and\n        /* \"cas/SaveEther.sol\":257:267  msg.sender */\n      caller\n        /* \"cas/SaveEther.sol\":257:281  msg.sender != address(0) */\n      0xffffffffffffffffffffffffffffffffffffffff\n      and\n      sub\n        /* \"cas/SaveEther.sol\":249:282  require(msg.sender != address(0)) */\n      tag_39\n      jumpi\n      0x00\n      dup1\n      revert\n    tag_39:\n        /* \"cas/SaveEther.sol\":312:313  0 */\n      0x00\n        /* \"cas/SaveEther.sol\":300:309  msg.value */\n      callvalue\n        /* \"cas/SaveEther.sol\":300:313  msg.value > 0 */\n      gt\n        /* \"cas/SaveEther.sol\":292:338  require(msg.value > 0, \"enter a valid amount\") */\n      tag_40\n      jumpi\n      mload(0x40)\n      0x08c379a000000000000000000000000000000000000000000000000000000000\n      dup2\n      mstore\n      0x04\n      add\n      tag_41\n      swap1\n      tag_42\n      jump\t// in\n    tag_41:\n      mload(0x40)\n      dup1\n      swap2\n      sub\n      swap1\n      revert\n    tag_40:\n        /* \"cas/SaveEther.sol\":392:401  msg.value */\n      callvalue\n        /* \"cas/SaveEther.sol\":370:377  savings */\n      0x00\n        /* \"cas/SaveEther.sol\":370:389  savings[msg.sender] */\n      dup1\n        /* \"cas/SaveEther.sol\":378:388  msg.sender */\n      caller\n        /* \"cas/SaveEther.sol\":370:389  savings[msg.sender] */\n      0xffffffffffffffffffffffffffffffffffffffff\n      and\n      0xffffffffffffffffffffffffffffffffffffffff\n      and\n      dup2\n      mstore\n      0x20\n      add\n      swap1\n      dup2\n      mstore\n      0x20\n      add\n      0x00\n      keccak256\n      sload\n        /* \"cas/SaveEther.sol\":370:401  savings[msg.sender] + msg.value */\n      tag_43\n      swap2\n      swap1\n      tag_44\n      jump\t// in\n    tag_43:\n        /* \"cas/SaveEther.sol\":348:355  savings */\n      0x00\n        /* \"cas/SaveEther.sol\":348:367  savings[msg.sender] */\n      dup1\n        /* \"cas/SaveEther.sol\":356:366  msg.sender */\n      caller\n        /* \"cas/SaveEther.sol\":348:367  savings[msg.sender] */\n      0xffffffffffffffffffffffffffffffffffffffff\n      and\n      0xffffffffffffffffffffffffffffffffffffffff\n      and\n      dup2\n      mstore\n      0x20\n      add\n      swap1\n      dup2\n      mstore\n      0x20\n      add\n      0x00\n      keccak256\n        /* \"cas/SaveEther.sol\":348:401  savings[msg.sender] = savings[msg.sender] + msg.value */\n      dup2\n      swap1\n      sstore\n      pop\n        /* \"cas/SaveEther.sol\":446:455  msg.value */\n      callvalue\n        /* \"cas/SaveEther.sol\":434:444  msg.sender */\n      caller\n        /* \"cas/SaveEther.sol\":417:456  saveSuccessiful (msg.sender, msg.value) */\n      0xffffffffffffffffffffffffffffffffffffffff\n      and\n      0xa1cf616d458479e02ceb72bdec717ced62f6984a23e16ffef7b98e471f3dd602\n      mload(0x40)\n      mload(0x40)\n      dup1\n      swap2\n      sub\n      swap1\n      log3\n        /* \"cas/SaveEther.sol\":202:463  function deposit () external payable {... */\n      jump\t// out\n        /* \"cas/SaveEther.sol\":777:1081  function sendSavings (address _receiver, uint _amount) external {... */\n    tag_26:\n        /* \"cas/SaveEther.sol\":881:882  0 */\n      0x00\n        /* \"cas/SaveEther.sol\":860:883  _receiver != address(0) */\n      0xffffffffffffffffffffffffffffffffffffffff\n      and\n        /* \"cas/SaveEther.sol\":860:869  _receiver */\n      dup3\n        /* \"cas/SaveEther.sol\":860:883  _receiver != address(0) */\n      0xffffffffffffffffffffffffffffffffffffffff\n      and\n      sub\n        /* \"cas/SaveEther.sol\":851:903  require (_receiver != address(0), \"Invalid address\") */\n      tag_46\n      jumpi\n      mload(0x40)\n      0x08c379a000000000000000000000000000000000000000000000000000000000\n      dup2\n      mstore\n      0x04\n      add\n      tag_47\n      swap1\n      tag_48\n      jump\t// in\n    tag_47:\n      mload(0x40)\n      dup1\n      swap2\n      sub\n      swap1\n      revert\n    tag_46:\n        /* \"cas/SaveEther.sol\":932:933  0 */\n      0x00\n        /* \"cas/SaveEther.sol\":922:929  _amount */\n      dup2\n        /* \"cas/SaveEther.sol\":922:933  _amount > 0 */\n      gt\n        /* \"cas/SaveEther.sol\":913:956  require (_amount > 0, \"You cant send zero\") */\n      tag_49\n      jumpi\n      mload(0x40)\n      0x08c379a000000000000000000000000000000000000000000000000000000000\n      dup2\n      mstore\n      0x04\n      add\n      tag_50\n      swap1\n      tag_51\n      jump\t// in\n    tag_50:\n      mload(0x40)\n      dup1\n      swap2\n      sub\n      swap1\n      revert\n    tag_49:\n        /* \"cas/SaveEther.sol\":997:1004  _amount */\n      dup1\n        /* \"cas/SaveEther.sol\":975:982  savings */\n      0x00\n        /* \"cas/SaveEther.sol\":975:994  savings[msg.sender] */\n      dup1\n        /* \"cas/SaveEther.sol\":983:993  msg.sender */\n      caller\n        /* \"cas/SaveEther.sol\":975:994  savings[msg.sender] */\n      0xffffffffffffffffffffffffffffffffffffffff\n      and\n      0xffffffffffffffffffffffffffffffffffffffff\n      and\n      dup2\n      mstore\n      0x20\n      add\n      swap1\n      dup2\n      mstore\n      0x20\n      add\n      0x00\n      keccak256\n      sload\n        /* \"cas/SaveEther.sol\":975:1004  savings[msg.sender] > _amount */\n      gt\n        /* \"cas/SaveEther.sol\":966:1027  require (savings[msg.sender] > _amount, \"insufficient funds\") */\n      tag_52\n      jumpi\n      mload(0x40)\n      0x08c379a000000000000000000000000000000000000000000000000000000000\n      dup2\n      mstore\n      0x04\n      add\n      tag_53\n      swap1\n      tag_54\n      jump\t// in\n    tag_53:\n      mload(0x40)\n      dup1\n      swap2\n      sub\n      swap1\n      revert\n    tag_52:\n        /* \"cas/SaveEther.sol\":1046:1055  _receiver */\n      dup2\n        /* \"cas/SaveEther.sol\":1038:1065  payable(_receiver).transfer */\n      0xffffffffffffffffffffffffffffffffffffffff\n      and\n        /* \"cas/SaveEther.sol\":1038:1074  payable(_receiver).transfer(_amount) */\n      0x08fc\n        /* \"cas/SaveEther.sol\":1066:1073  _amount */\n      dup3\n        /* \"cas/SaveEther.sol\":1038:1074  payable(_receiver).transfer(_amount) */\n      swap1\n      dup2\n      iszero\n      mul\n      swap1\n      mload(0x40)\n      0x00\n      mload(0x40)\n      dup1\n      dup4\n      sub\n      dup2\n      dup6\n      dup9\n      dup9\n      call\n      swap4\n      pop\n      pop\n      pop\n      pop\n      iszero\n      dup1\n      iszero\n      tag_56\n      jumpi\n      returndatasize\n      0x00\n      dup1\n      returndatacopy\n      revert(0x00, returndatasize)\n    tag_56:\n      pop\n        /* \"cas/SaveEther.sol\":777:1081  function sendSavings (address _receiver, uint _amount) external {... */\n      pop\n      pop\n      jump\t// out\n        /* \"#utility.yul\":7:84   */\n    tag_57:\n        /* \"#utility.yul\":44:51   */\n      0x00\n        /* \"#utility.yul\":73:78   */\n      dup2\n        /* \"#utility.yul\":62:78   */\n      swap1\n      pop\n        /* \"#utility.yul\":7:84   */\n      swap2\n      swap1\n      pop\n      jump\t// out\n        /* \"#utility.yul\":90:208   */\n    tag_58:\n        /* \"#utility.yul\":177:201   */\n      tag_83\n        /* \"#utility.yul\":195:200   */\n      dup2\n        /* \"#utility.yul\":177:201   */\n      tag_57\n      jump\t// in\n    tag_83:\n        /* \"#utility.yul\":172:175   */\n      dup3\n        /* \"#utility.yul\":165:202   */\n      mstore\n        /* \"#utility.yul\":90:208   */\n      pop\n      pop\n      jump\t// out\n        /* \"#utility.yul\":214:436   */\n    tag_13:\n        /* \"#utility.yul\":307:311   */\n      0x00\n        /* \"#utility.yul\":345:347   */\n      0x20\n        /* \"#utility.yul\":334:343   */\n      dup3\n        /* \"#utility.yul\":330:348   */\n      add\n        /* \"#utility.yul\":322:348   */\n      swap1\n      pop\n        /* \"#utility.yul\":358:429   */\n      tag_85\n        /* \"#utility.yul\":426:427   */\n      0x00\n        /* \"#utility.yul\":415:424   */\n      dup4\n        /* \"#utility.yul\":411:428   */\n      add\n        /* \"#utility.yul\":402:408   */\n      dup5\n        /* \"#utility.yul\":358:429   */\n      tag_58\n      jump\t// in\n    tag_85:\n        /* \"#utility.yul\":214:436   */\n      swap3\n      swap2\n      pop\n      pop\n      jump\t// out\n        /* \"#utility.yul\":523:640   */\n    tag_60:\n        /* \"#utility.yul\":632:633   */\n      0x00\n        /* \"#utility.yul\":629:630   */\n      dup1\n        /* \"#utility.yul\":622:634   */\n      revert\n        /* \"#utility.yul\":769:895   */\n    tag_62:\n        /* \"#utility.yul\":806:813   */\n      0x00\n        /* \"#utility.yul\":846:888   */\n      0xffffffffffffffffffffffffffffffffffffffff\n        /* \"#utility.yul\":839:844   */\n      dup3\n        /* \"#utility.yul\":835:889   */\n      and\n        /* \"#utility.yul\":824:889   */\n      swap1\n      pop\n        /* \"#utility.yul\":769:895   */\n      swap2\n      swap1\n      pop\n      jump\t// out\n        /* \"#utility.yul\":901:997   */\n    tag_63:\n        /* \"#utility.yul\":938:945   */\n      0x00\n        /* \"#utility.yul\":967:991   */\n      tag_91\n        /* \"#utility.yul\":985:990   */\n      dup3\n        /* \"#utility.yul\":967:991   */\n      tag_62\n      jump\t// in\n    tag_91:\n        /* \"#utility.yul\":956:991   */\n      swap1\n      pop\n        /* \"#utility.yul\":901:997   */\n      swap2\n      swap1\n      pop\n      jump\t// out\n        /* \"#utility.yul\":1003:1125   */\n    tag_64:\n        /* \"#utility.yul\":1076:1100   */\n      tag_93\n        /* \"#utility.yul\":1094:1099   */\n      dup2\n        /* \"#utility.yul\":1076:1100   */\n      tag_63\n      jump\t// in\n    tag_93:\n        /* \"#utility.yul\":1069:1074   */\n      dup2\n        /* \"#utility.yul\":1066:1101   */\n      eq\n        /* \"#utility.yul\":1056:1119   */\n      tag_94\n      jumpi\n        /* \"#utility.yul\":1115:1116   */\n      0x00\n        /* \"#utility.yul\":1112:1113   */\n      dup1\n        /* \"#utility.yul\":1105:1117   */\n      revert\n        /* \"#utility.yul\":1056:1119   */\n    tag_94:\n        /* \"#utility.yul\":1003:1125   */\n      pop\n      jump\t// out\n        /* \"#utility.yul\":1131:1270   */\n    tag_65:\n        /* \"#utility.yul\":1177:1182   */\n      0x00\n        /* \"#utility.yul\":1215:1221   */\n      dup2\n        /* \"#utility.yul\":1202:1222   */\n      calldataload\n        /* \"#utility.yul\":1193:1222   */\n      swap1\n      pop\n        /* \"#utility.yul\":1231:1264   */\n      tag_96\n        /* \"#utility.yul\":1258:1263   */\n      dup2\n        /* \"#utility.yul\":1231:1264   */\n      tag_64\n      jump\t// in\n    tag_96:\n        /* \"#utility.yul\":1131:1270   */\n      swap3\n      swap2\n      pop\n      pop\n      jump\t// out\n        /* \"#utility.yul\":1276:1605   */\n    tag_17:\n        /* \"#utility.yul\":1335:1341   */\n      0x00\n        /* \"#utility.yul\":1384:1386   */\n      0x20\n        /* \"#utility.yul\":1372:1381   */\n      dup3\n        /* \"#utility.yul\":1363:1370   */\n      dup5\n        /* \"#utility.yul\":1359:1382   */\n      sub\n        /* \"#utility.yul\":1355:1387   */\n      slt\n        /* \"#utility.yul\":1352:1471   */\n      iszero\n      tag_98\n      jumpi\n        /* \"#utility.yul\":1390:1469   */\n      tag_99\n      tag_60\n      jump\t// in\n    tag_99:\n        /* \"#utility.yul\":1352:1471   */\n    tag_98:\n        /* \"#utility.yul\":1510:1511   */\n      0x00\n        /* \"#utility.yul\":1535:1588   */\n      tag_100\n        /* \"#utility.yul\":1580:1587   */\n      dup5\n        /* \"#utility.yul\":1571:1577   */\n      dup3\n        /* \"#utility.yul\":1560:1569   */\n      dup6\n        /* \"#utility.yul\":1556:1578   */\n      add\n        /* \"#utility.yul\":1535:1588   */\n      tag_65\n      jump\t// in\n    tag_100:\n        /* \"#utility.yul\":1525:1588   */\n      swap2\n      pop\n        /* \"#utility.yul\":1481:1598   */\n      pop\n        /* \"#utility.yul\":1276:1605   */\n      swap3\n      swap2\n      pop\n      pop\n      jump\t// out\n        /* \"#utility.yul\":1611:1733   */\n    tag_66:\n        /* \"#utility.yul\":1684:1708   */\n      tag_102\n        /* \"#utility.yul\":1702:1707   */\n      dup2\n        /* \"#utility.yul\":1684:1708   */\n      tag_57\n      jump\t// in\n    tag_102:\n        /* \"#utility.yul\":1677:1682   */\n      dup2\n        /* \"#utility.yul\":1674:1709   */\n      eq\n        /* \"#utility.yul\":1664:1727   */\n      tag_103\n      jumpi\n        /* \"#utility.yul\":1723:1724   */\n      0x00\n        /* \"#utility.yul\":1720:1721   */\n      dup1\n        /* \"#utility.yul\":1713:1725   */\n      revert\n        /* \"#utility.yul\":1664:1727   */\n    tag_103:\n        /* \"#utility.yul\":1611:1733   */\n      pop\n      jump\t// out\n        /* \"#utility.yul\":1739:1878   */\n    tag_67:\n        /* \"#utility.yul\":1785:1790   */\n      0x00\n        /* \"#utility.yul\":1823:1829   */\n      dup2\n        /* \"#utility.yul\":1810:1830   */\n      calldataload\n        /* \"#utility.yul\":1801:1830   */\n      swap1\n      pop\n        /* \"#utility.yul\":1839:1872   */\n      tag_105\n        /* \"#utility.yul\":1866:1871   */\n      dup2\n        /* \"#utility.yul\":1839:1872   */\n      tag_66\n      jump\t// in\n    tag_105:\n        /* \"#utility.yul\":1739:1878   */\n      swap3\n      swap2\n      pop\n      pop\n      jump\t// out\n        /* \"#utility.yul\":1884:2358   */\n    tag_25:\n        /* \"#utility.yul\":1952:1958   */\n      0x00\n        /* \"#utility.yul\":1960:1966   */\n      dup1\n        /* \"#utility.yul\":2009:2011   */\n      0x40\n        /* \"#utility.yul\":1997:2006   */\n      dup4\n        /* \"#utility.yul\":1988:1995   */\n      dup6\n        /* \"#utility.yul\":1984:2007   */\n      sub\n        /* \"#utility.yul\":1980:2012   */\n      slt\n        /* \"#utility.yul\":1977:2096   */\n      iszero\n      tag_107\n      jumpi\n        /* \"#utility.yul\":2015:2094   */\n      tag_108\n      tag_60\n      jump\t// in\n    tag_108:\n        /* \"#utility.yul\":1977:2096   */\n    tag_107:\n        /* \"#utility.yul\":2135:2136   */\n      0x00\n        /* \"#utility.yul\":2160:2213   */\n      tag_109\n        /* \"#utility.yul\":2205:2212   */\n      dup6\n        /* \"#utility.yul\":2196:2202   */\n      dup3\n        /* \"#utility.yul\":2185:2194   */\n      dup7\n        /* \"#utility.yul\":2181:2203   */\n      add\n        /* \"#utility.yul\":2160:2213   */\n      tag_65\n      jump\t// in\n    tag_109:\n        /* \"#utility.yul\":2150:2213   */\n      swap3\n      pop\n        /* \"#utility.yul\":2106:2223   */\n      pop\n        /* \"#utility.yul\":2262:2264   */\n      0x20\n        /* \"#utility.yul\":2288:2341   */\n      tag_110\n        /* \"#utility.yul\":2333:2340   */\n      dup6\n        /* \"#utility.yul\":2324:2330   */\n      dup3\n        /* \"#utility.yul\":2313:2322   */\n      dup7\n        /* \"#utility.yul\":2309:2331   */\n      add\n        /* \"#utility.yul\":2288:2341   */\n      tag_67\n      jump\t// in\n    tag_110:\n        /* \"#utility.yul\":2278:2341   */\n      swap2\n      pop\n        /* \"#utility.yul\":2233:2351   */\n      pop\n        /* \"#utility.yul\":1884:2358   */\n      swap3\n      pop\n      swap3\n      swap1\n      pop\n      jump\t// out\n        /* \"#utility.yul\":2364:2533   */\n    tag_68:\n        /* \"#utility.yul\":2448:2459   */\n      0x00\n        /* \"#utility.yul\":2482:2488   */\n      dup3\n        /* \"#utility.yul\":2477:2480   */\n      dup3\n        /* \"#utility.yul\":2470:2489   */\n      mstore\n        /* \"#utility.yul\":2522:2526   */\n      0x20\n        /* \"#utility.yul\":2517:2520   */\n      dup3\n        /* \"#utility.yul\":2513:2527   */\n      add\n        /* \"#utility.yul\":2498:2527   */\n      swap1\n      pop\n        /* \"#utility.yul\":2364:2533   */\n      swap3\n      swap2\n      pop\n      pop\n      jump\t// out\n        /* \"#utility.yul\":2539:2706   */\n    tag_69:\n        /* \"#utility.yul\":2679:2698   */\n      0x6e6f20656e6f7567682062616c616e6365000000000000000000000000000000\n        /* \"#utility.yul\":2675:2676   */\n      0x00\n        /* \"#utility.yul\":2667:2673   */\n      dup3\n        /* \"#utility.yul\":2663:2677   */\n      add\n        /* \"#utility.yul\":2656:2699   */\n      mstore\n        /* \"#utility.yul\":2539:2706   */\n      pop\n      jump\t// out\n        /* \"#utility.yul\":2712:3078   */\n    tag_70:\n        /* \"#utility.yul\":2854:2857   */\n      0x00\n        /* \"#utility.yul\":2875:2942   */\n      tag_114\n        /* \"#utility.yul\":2939:2941   */\n      0x11\n        /* \"#utility.yul\":2934:2937   */\n      dup4\n        /* \"#utility.yul\":2875:2942   */\n      tag_68\n      jump\t// in\n    tag_114:\n        /* \"#utility.yul\":2868:2942   */\n      swap2\n      pop\n        /* \"#utility.yul\":2951:3044   */\n      tag_115\n        /* \"#utility.yul\":3040:3043   */\n      dup3\n        /* \"#utility.yul\":2951:3044   */\n      tag_69\n      jump\t// in\n    tag_115:\n        /* \"#utility.yul\":3069:3071   */\n      0x20\n        /* \"#utility.yul\":3064:3067   */\n      dup3\n        /* \"#utility.yul\":3060:3072   */\n      add\n        /* \"#utility.yul\":3053:3072   */\n      swap1\n      pop\n        /* \"#utility.yul\":2712:3078   */\n      swap2\n      swap1\n      pop\n      jump\t// out\n        /* \"#utility.yul\":3084:3503   */\n    tag_31:\n        /* \"#utility.yul\":3250:3254   */\n      0x00\n        /* \"#utility.yul\":3288:3290   */\n      0x20\n        /* \"#utility.yul\":3277:3286   */\n      dup3\n        /* \"#utility.yul\":3273:3291   */\n      add\n        /* \"#utility.yul\":3265:3291   */\n      swap1\n      pop\n        /* \"#utility.yul\":3337:3346   */\n      dup2\n        /* \"#utility.yul\":3331:3335   */\n      dup2\n        /* \"#utility.yul\":3327:3347   */\n      sub\n        /* \"#utility.yul\":3323:3324   */\n      0x00\n        /* \"#utility.yul\":3312:3321   */\n      dup4\n        /* \"#utility.yul\":3308:3325   */\n      add\n        /* \"#utility.yul\":3301:3348   */\n      mstore\n        /* \"#utility.yul\":3365:3496   */\n      tag_117\n        /* \"#utility.yul\":3491:3495   */\n      dup2\n        /* \"#utility.yul\":3365:3496   */\n      tag_70\n      jump\t// in\n    tag_117:\n        /* \"#utility.yul\":3357:3496   */\n      swap1\n      pop\n        /* \"#utility.yul\":3084:3503   */\n      swap2\n      swap1\n      pop\n      jump\t// out\n        /* \"#utility.yul\":3509:3689   */\n    tag_71:\n        /* \"#utility.yul\":3557:3634   */\n      0x4e487b7100000000000000000000000000000000000000000000000000000000\n        /* \"#utility.yul\":3554:3555   */\n      0x00\n        /* \"#utility.yul\":3547:3635   */\n      mstore\n        /* \"#utility.yul\":3654:3658   */\n      0x11\n        /* \"#utility.yul\":3651:3652   */\n      0x04\n        /* \"#utility.yul\":3644:3659   */\n      mstore\n        /* \"#utility.yul\":3678:3682   */\n      0x24\n        /* \"#utility.yul\":3675:3676   */\n      0x00\n        /* \"#utility.yul\":3668:3683   */\n      revert\n        /* \"#utility.yul\":3695:3889   */\n    tag_33:\n        /* \"#utility.yul\":3735:3739   */\n      0x00\n        /* \"#utility.yul\":3755:3775   */\n      tag_120\n        /* \"#utility.yul\":3773:3774   */\n      dup3\n        /* \"#utility.yul\":3755:3775   */\n      tag_57\n      jump\t// in\n    tag_120:\n        /* \"#utility.yul\":3750:3775   */\n      swap2\n      pop\n        /* \"#utility.yul\":3789:3809   */\n      tag_121\n        /* \"#utility.yul\":3807:3808   */\n      dup4\n        /* \"#utility.yul\":3789:3809   */\n      tag_57\n      jump\t// in\n    tag_121:\n        /* \"#utility.yul\":3784:3809   */\n      swap3\n      pop\n        /* \"#utility.yul\":3833:3834   */\n      dup3\n        /* \"#utility.yul\":3830:3831   */\n      dup3\n        /* \"#utility.yul\":3826:3835   */\n      sub\n        /* \"#utility.yul\":3818:3835   */\n      swap1\n      pop\n        /* \"#utility.yul\":3857:3858   */\n      dup2\n        /* \"#utility.yul\":3851:3855   */\n      dup2\n        /* \"#utility.yul\":3848:3859   */\n      gt\n        /* \"#utility.yul\":3845:3882   */\n      iszero\n      tag_122\n      jumpi\n        /* \"#utility.yul\":3862:3880   */\n      tag_123\n      tag_71\n      jump\t// in\n    tag_123:\n        /* \"#utility.yul\":3845:3882   */\n    tag_122:\n        /* \"#utility.yul\":3695:3889   */\n      swap3\n      swap2\n      pop\n      pop\n      jump\t// out\n        /* \"#utility.yul\":3895:4065   */\n    tag_72:\n        /* \"#utility.yul\":4035:4057   */\n      0x656e74657220612076616c696420616d6f756e74000000000000000000000000\n        /* \"#utility.yul\":4031:4032   */\n      0x00\n        /* \"#utility.yul\":4023:4029   */\n      dup3\n        /* \"#utility.yul\":4019:4033   */\n      add\n        /* \"#utility.yul\":4012:4058   */\n      mstore\n        /* \"#utility.yul\":3895:4065   */\n      pop\n      jump\t// out\n        /* \"#utility.yul\":4071:4437   */\n    tag_73:\n        /* \"#utility.yul\":4213:4216   */\n      0x00\n        /* \"#utility.yul\":4234:4301   */\n      tag_126\n        /* \"#utility.yul\":4298:4300   */\n      0x14\n        /* \"#utility.yul\":4293:4296   */\n      dup4\n        /* \"#utility.yul\":4234:4301   */\n      tag_68\n      jump\t// in\n    tag_126:\n        /* \"#utility.yul\":4227:4301   */\n      swap2\n      pop\n        /* \"#utility.yul\":4310:4403   */\n      tag_127\n        /* \"#utility.yul\":4399:4402   */\n      dup3\n        /* \"#utility.yul\":4310:4403   */\n      tag_72\n      jump\t// in\n    tag_127:\n        /* \"#utility.yul\":4428:4430   */\n      0x20\n        /* \"#utility.yul\":4423:4426   */\n      dup3\n        /* \"#utility.yul\":4419:4431   */\n      add\n        /* \"#utility.yul\":4412:4431   */\n      swap1\n      pop\n        /* \"#utility.yul\":4071:4437   */\n      swap2\n      swap1\n      pop\n      jump\t// out\n        /* \"#utility.yul\":4443:4862   */\n    tag_42:\n        /* \"#utility.yul\":4609:4613   */\n      0x00\n        /* \"#utility.yul\":4647:4649   */\n      0x20\n        /* \"#utility.yul\":4636:4645   */\n      dup3\n        /* \"#utility.yul\":4632:4650   */\n      add\n        /* \"#utility.yul\":4624:4650   */\n      swap1\n      pop\n        /* \"#utility.yul\":4696:4705   */\n      dup2\n        /* \"#utility.yul\":4690:4694   */\n      dup2\n        /* \"#utility.yul\":4686:4706   */\n      sub\n        /* \"#utility.yul\":4682:4683   */\n      0x00\n        /* \"#utility.yul\":4671:4680   */\n      dup4\n        /* \"#utility.yul\":4667:4684   */\n      add\n        /* \"#utility.yul\":4660:4707   */\n      mstore\n        /* \"#utility.yul\":4724:4855   */\n      tag_129\n        /* \"#utility.yul\":4850:4854   */\n      dup2\n        /* \"#utility.yul\":4724:4855   */\n      tag_73\n      jump\t// in\n    tag_129:\n        /* \"#utility.yul\":4716:4855   */\n      swap1\n      pop\n        /* \"#utility.yul\":4443:4862   */\n      swap2\n      swap1\n      pop\n      jump\t// out\n        /* \"#utility.yul\":4868:5059   */\n    tag_44:\n        /* \"#utility.yul\":4908:4911   */\n      0x00\n        /* \"#utility.yul\":4927:4947   */\n      tag_131\n        /* \"#utility.yul\":4945:4946   */\n      dup3\n        /* \"#utility.yul\":4927:4947   */\n      tag_57\n      jump\t// in\n    tag_131:\n        /* \"#utility.yul\":4922:4947   */\n      swap2\n      pop\n        /* \"#utility.yul\":4961:4981   */\n      tag_132\n        /* \"#utility.yul\":4979:4980   */\n      dup4\n        /* \"#utility.yul\":4961:4981   */\n      tag_57\n      jump\t// in\n    tag_132:\n        /* \"#utility.yul\":4956:4981   */\n      swap3\n      pop\n        /* \"#utility.yul\":5004:5005   */\n      dup3\n        /* \"#utility.yul\":5001:5002   */\n      dup3\n        /* \"#utility.yul\":4997:5006   */\n      add\n        /* \"#utility.yul\":4990:5006   */\n      swap1\n      pop\n        /* \"#utility.yul\":5025:5028   */\n      dup1\n        /* \"#utility.yul\":5022:5023   */\n      dup3\n        /* \"#utility.yul\":5019:5029   */\n      gt\n        /* \"#utility.yul\":5016:5052   */\n      iszero\n      tag_133\n      jumpi\n        /* \"#utility.yul\":5032:5050   */\n      tag_134\n      tag_71\n      jump\t// in\n    tag_134:\n        /* \"#utility.yul\":5016:5052   */\n    tag_133:\n        /* \"#utility.yul\":4868:5059   */\n      swap3\n      swap2\n      pop\n      pop\n      jump\t// out\n        /* \"#utility.yul\":5065:5230   */\n    tag_74:\n        /* \"#utility.yul\":5205:5222   */\n      0x496e76616c696420616464726573730000000000000000000000000000000000\n        /* \"#utility.yul\":5201:5202   */\n      0x00\n        /* \"#utility.yul\":5193:5199   */\n      dup3\n        /* \"#utility.yul\":5189:5203   */\n      add\n        /* \"#utility.yul\":5182:5223   */\n      mstore\n        /* \"#utility.yul\":5065:5230   */\n      pop\n      jump\t// out\n        /* \"#utility.yul\":5236:5602   */\n    tag_75:\n        /* \"#utility.yul\":5378:5381   */\n      0x00\n        /* \"#utility.yul\":5399:5466   */\n      tag_137\n        /* \"#utility.yul\":5463:5465   */\n      0x0f\n        /* \"#utility.yul\":5458:5461   */\n      dup4\n        /* \"#utility.yul\":5399:5466   */\n      tag_68\n      jump\t// in\n    tag_137:\n        /* \"#utility.yul\":5392:5466   */\n      swap2\n      pop\n        /* \"#utility.yul\":5475:5568   */\n      tag_138\n        /* \"#utility.yul\":5564:5567   */\n      dup3\n        /* \"#utility.yul\":5475:5568   */\n      tag_74\n      jump\t// in\n    tag_138:\n        /* \"#utility.yul\":5593:5595   */\n      0x20\n        /* \"#utility.yul\":5588:5591   */\n      dup3\n        /* \"#utility.yul\":5584:5596   */\n      add\n        /* \"#utility.yul\":5577:5596   */\n      swap1\n      pop\n        /* \"#utility.yul\":5236:5602   */\n      swap2\n      swap1\n      pop\n      jump\t// out\n        /* \"#utility.yul\":5608:6027   */\n    tag_48:\n        /* \"#utility.yul\":5774:5778   */\n      0x00\n        /* \"#utility.yul\":5812:5814   */\n      0x20\n        /* \"#utility.yul\":5801:5810   */\n      dup3\n        /* \"#utility.yul\":5797:5815   */\n      add\n        /* \"#utility.yul\":5789:5815   */\n      swap1\n      pop\n        /* \"#utility.yul\":5861:5870   */\n      dup2\n        /* \"#utility.yul\":5855:5859   */\n      dup2\n        /* \"#utility.yul\":5851:5871   */\n      sub\n        /* \"#utility.yul\":5847:5848   */\n      0x00\n        /* \"#utility.yul\":5836:5845   */\n      dup4\n        /* \"#utility.yul\":5832:5849   */\n      add\n        /* \"#utility.yul\":5825:5872   */\n      mstore\n        /* \"#utility.yul\":5889:6020   */\n      tag_140\n        /* \"#utility.yul\":6015:6019   */\n      dup2\n        /* \"#utility.yul\":5889:6020   */\n      tag_75\n      jump\t// in\n    tag_140:\n        /* \"#utility.yul\":5881:6020   */\n      swap1\n      pop\n        /* \"#utility.yul\":5608:6027   */\n      swap2\n      swap1\n      pop\n      jump\t// out\n        /* \"#utility.yul\":6033:6201   */\n    tag_76:\n        /* \"#utility.yul\":6173:6193   */\n      0x596f752063616e742073656e64207a65726f0000000000000000000000000000\n        /* \"#utility.yul\":6169:6170   */\n      0x00\n        /* \"#utility.yul\":6161:6167   */\n      dup3\n        /* \"#utility.yul\":6157:6171   */\n      add\n        /* \"#utility.yul\":6150:6194   */\n      mstore\n        /* \"#utility.yul\":6033:6201   */\n      pop\n      jump\t// out\n        /* \"#utility.yul\":6207:6573   */\n    tag_77:\n        /* \"#utility.yul\":6349:6352   */\n      0x00\n        /* \"#utility.yul\":6370:6437   */\n      tag_143\n        /* \"#utility.yul\":6434:6436   */\n      0x12\n        /* \"#utility.yul\":6429:6432   */\n      dup4\n        /* \"#utility.yul\":6370:6437   */\n      tag_68\n      jump\t// in\n    tag_143:\n        /* \"#utility.yul\":6363:6437   */\n      swap2\n      pop\n        /* \"#utility.yul\":6446:6539   */\n      tag_144\n        /* \"#utility.yul\":6535:6538   */\n      dup3\n        /* \"#utility.yul\":6446:6539   */\n      tag_76\n      jump\t// in\n    tag_144:\n        /* \"#utility.yul\":6564:6566   */\n      0x20\n        /* \"#utility.yul\":6559:6562   */\n      dup3\n        /* \"#utility.yul\":6555:6567   */\n      add\n        /* \"#utility.yul\":6548:6567   */\n      swap1\n      pop\n        /* \"#utility.yul\":6207:6573   */\n      swap2\n      swap1\n      pop\n      jump\t// out\n        /* \"#utility.yul\":6579:6998   */\n    tag_51:\n        /* \"#utility.yul\":6745:6749   */\n      0x00\n        /* \"#utility.yul\":6783:6785   */\n      0x20\n        /* \"#utility.yul\":6772:6781   */\n      dup3\n        /* \"#utility.yul\":6768:6786   */\n      add\n        /* \"#utility.yul\":6760:6786   */\n      swap1\n      pop\n        /* \"#utility.yul\":6832:6841   */\n      dup2\n        /* \"#utility.yul\":6826:6830   */\n      dup2\n        /* \"#utility.yul\":6822:6842   */\n      sub\n        /* \"#utility.yul\":6818:6819   */\n      0x00\n        /* \"#utility.yul\":6807:6816   */\n      dup4\n        /* \"#utility.yul\":6803:6820   */\n      add\n        /* \"#utility.yul\":6796:6843   */\n      mstore\n        /* \"#utility.yul\":6860:6991   */\n      tag_146\n        /* \"#utility.yul\":6986:6990   */\n      dup2\n        /* \"#utility.yul\":6860:6991   */\n      tag_77\n      jump\t// in\n    tag_146:\n        /* \"#utility.yul\":6852:6991   */\n      swap1\n      pop\n        /* \"#utility.yul\":6579:6998   */\n      swap2\n      swap1\n      pop\n      jump\t// out\n        /* \"#utility.yul\":7004:7172   */\n    tag_78:\n        /* \"#utility.yul\":7144:7164   */\n      0x696e73756666696369656e742066756e64730000000000000000000000000000\n        /* \"#utility.yul\":7140:7141   */\n      0x00\n        /* \"#utility.yul\":7132:7138   */\n      dup3\n        /* \"#utility.yul\":7128:7142   */\n      add\n        /* \"#utility.yul\":7121:7165   */\n      mstore\n        /* \"#utility.yul\":7004:7172   */\n      pop\n      jump\t// out\n        /* \"#utility.yul\":7178:7544   */\n    tag_79:\n        /* \"#utility.yul\":7320:7323   */\n      0x00\n        /* \"#utility.yul\":7341:7408   */\n      tag_149\n        /* \"#utility.yul\":7405:7407   */\n      0x12\n        /* \"#utility.yul\":7400:7403   */\n      dup4\n        /* \"#utility.yul\":7341:7408   */\n      tag_68\n      jump\t// in\n    tag_149:\n        /* \"#utility.yul\":7334:7408   */\n      swap2\n      pop\n        /* \"#utility.yul\":7417:7510   */\n      tag_150\n        /* \"#utility.yul\":7506:7509   */\n      dup3\n        /* \"#utility.yul\":7417:7510   */\n      tag_78\n      jump\t// in\n    tag_150:\n        /* \"#utility.yul\":7535:7537   */\n      0x20\n        /* \"#utility.yul\":7530:7533   */\n      dup3\n        /* \"#utility.yul\":7526:7538   */\n      add\n        /* \"#utility.yul\":7519:7538   */\n      swap1\n      pop\n        /* \"#utility.yul\":7178:7544   */\n      swap2\n      swap1\n      pop\n      jump\t// out\n        /* \"#utility.yul\":7550:7969   */\n    tag_54:\n        /* \"#utility.yul\":7716:7720   */\n      0x00\n        /* \"#utility.yul\":7754:7756   */\n      0x20\n        /* \"#utility.yul\":7743:7752   */\n      dup3\n        /* \"#utility.yul\":7739:7757   */\n      add\n        /* \"#utility.yul\":7731:7757   */\n      swap1\n      pop\n        /* \"#utility.yul\":7803:7812   */\n      dup2\n        /* \"#utility.yul\":7797:7801   */\n      dup2\n        /* \"#utility.yul\":7793:7813   */\n      sub\n        /* \"#utility.yul\":7789:7790   */\n      0x00\n        /* \"#utility.yul\":7778:7787   */\n      dup4\n        /* \"#utility.yul\":7774:7791   */\n      add\n        /* \"#utility.yul\":7767:7814   */\n      mstore\n        /* \"#utility.yul\":7831:7962   */\n      tag_152\n        /* \"#utility.yul\":7957:7961   */\n      dup2\n        /* \"#utility.yul\":7831:7962   */\n      tag_79\n      jump\t// in\n    tag_152:\n        /* \"#utility.yul\":7823:7962   */\n      swap1\n      pop\n        /* \"#utility.yul\":7550:7969   */\n      swap2\n      swap1\n      pop\n      jump\t// out\n\n    auxdata: 0xa26469706673582212208ddbba365a0acf285d574da7250f2f94d264a4a9438fa92dd2688462bf396c0764736f6c63430008180033\n}\n",
				"bytecode": {
					"linkReferences": {},
					"object": "608060405234801561000f575f80fd5b5061094d8061001d5f395ff3fe608060405260043610610049575f3560e01c80633ccfd60b1461004d57806350312c9e146100575780635f51522614610081578063d0e30db0146100bd578063db4fee82146100c7575b5f80fd5b6100556100ef565b005b348015610062575f80fd5b5061006b610241565b6040516100789190610562565b60405180910390f35b34801561008c575f80fd5b506100a760048036038101906100a291906105d9565b610248565b6040516100b49190610562565b60405180910390f35b6100c561028d565b005b3480156100d2575f80fd5b506100ed60048036038101906100e8919061062e565b6103d4565b005b5f73ffffffffffffffffffffffffffffffffffffffff163373ffffffffffffffffffffffffffffffffffffffff1603610126575f80fd5b5f805f3373ffffffffffffffffffffffffffffffffffffffff1673ffffffffffffffffffffffffffffffffffffffff1681526020019081526020015f205490505f81116101a8576040517f08c379a000000000000000000000000000000000000000000000000000000000815260040161019f906106c6565b60405180910390fd5b805f803373ffffffffffffffffffffffffffffffffffffffff1673ffffffffffffffffffffffffffffffffffffffff1681526020019081526020015f205f8282546101f39190610711565b925050819055503373ffffffffffffffffffffffffffffffffffffffff166108fc8290811502906040515f60405180830381858888f1935050505015801561023d573d5f803e3d5ffd5b5050565b5f47905090565b5f805f8373ffffffffffffffffffffffffffffffffffffffff1673ffffffffffffffffffffffffffffffffffffffff1681526020019081526020015f20549050919050565b5f73ffffffffffffffffffffffffffffffffffffffff163373ffffffffffffffffffffffffffffffffffffffff16036102c4575f80fd5b5f3411610306576040517f08c379a00000000000000000000000000000000000000000000000000000000081526004016102fd9061078e565b60405180910390fd5b345f803373ffffffffffffffffffffffffffffffffffffffff1673ffffffffffffffffffffffffffffffffffffffff1681526020019081526020015f205461034e91906107ac565b5f803373ffffffffffffffffffffffffffffffffffffffff1673ffffffffffffffffffffffffffffffffffffffff1681526020019081526020015f2081905550343373ffffffffffffffffffffffffffffffffffffffff167fa1cf616d458479e02ceb72bdec717ced62f6984a23e16ffef7b98e471f3dd60260405160405180910390a3565b5f73ffffffffffffffffffffffffffffffffffffffff168273ffffffffffffffffffffffffffffffffffffffff1603610442576040517f08c379a000000000000000000000000000000000000000000000000000000000815260040161043990610829565b60405180910390fd5b5f8111610484576040517f08c379a000000000000000000000000000000000000000000000000000000000815260040161047b90610891565b60405180910390fd5b805f803373ffffffffffffffffffffffffffffffffffffffff1673ffffffffffffffffffffffffffffffffffffffff1681526020019081526020015f205411610502576040517f08c379a00000000000000000000000000000000000000000000000000000000081526004016104f9906108f9565b60405180910390fd5b8173ffffffffffffffffffffffffffffffffffffffff166108fc8290811502906040515f60405180830381858888f19350505050158015610545573d5f803e3d5ffd5b505050565b5f819050919050565b61055c8161054a565b82525050565b5f6020820190506105755f830184610553565b92915050565b5f80fd5b5f73ffffffffffffffffffffffffffffffffffffffff82169050919050565b5f6105a88261057f565b9050919050565b6105b88161059e565b81146105c2575f80fd5b50565b5f813590506105d3816105af565b92915050565b5f602082840312156105ee576105ed61057b565b5b5f6105fb848285016105c5565b91505092915050565b61060d8161054a565b8114610617575f80fd5b50565b5f8135905061062881610604565b92915050565b5f80604083850312156106445761064361057b565b5b5f610651858286016105c5565b92505060206106628582860161061a565b9150509250929050565b5f82825260208201905092915050565b7f6e6f20656e6f7567682062616c616e63650000000000000000000000000000005f82015250565b5f6106b060118361066c565b91506106bb8261067c565b602082019050919050565b5f6020820190508181035f8301526106dd816106a4565b9050919050565b7f4e487b71000000000000000000000000000000000000000000000000000000005f52601160045260245ffd5b5f61071b8261054a565b91506107268361054a565b925082820390508181111561073e5761073d6106e4565b5b92915050565b7f656e74657220612076616c696420616d6f756e740000000000000000000000005f82015250565b5f61077860148361066c565b915061078382610744565b602082019050919050565b5f6020820190508181035f8301526107a58161076c565b9050919050565b5f6107b68261054a565b91506107c18361054a565b92508282019050808211156107d9576107d86106e4565b5b92915050565b7f496e76616c6964206164647265737300000000000000000000000000000000005f82015250565b5f610813600f8361066c565b915061081e826107df565b602082019050919050565b5f6020820190508181035f83015261084081610807565b9050919050565b7f596f752063616e742073656e64207a65726f00000000000000000000000000005f82015250565b5f61087b60128361066c565b915061088682610847565b602082019050919050565b5f6020820190508181035f8301526108a88161086f565b9050919050565b7f696e73756666696369656e742066756e647300000000000000000000000000005f82015250565b5f6108e360128361066c565b91506108ee826108af565b602082019050919050565b5f6020820190508181035f830152610910816108d7565b905091905056fea26469706673582212208ddbba365a0acf285d574da7250f2f94d264a4a9438fa92dd2688462bf396c0764736f6c63430008180033",
					"opcodes": "PUSH1 0x80 PUSH1 0x40 MSTORE CALLVALUE DUP1 ISZERO PUSH2 0xF JUMPI PUSH0 DUP1 REVERT JUMPDEST POP PUSH2 0x94D DUP1 PUSH2 0x1D PUSH0 CODECOPY PUSH0 RETURN INVALID PUSH1 0x80 PUSH1 0x40 MSTORE PUSH1 0x4 CALLDATASIZE LT PUSH2 0x49 JUMPI PUSH0 CALLDATALOAD PUSH1 0xE0 SHR DUP1 PUSH4 0x3CCFD60B EQ PUSH2 0x4D JUMPI DUP1 PUSH4 0x50312C9E EQ PUSH2 0x57 JUMPI DUP1 PUSH4 0x5F515226 EQ PUSH2 0x81 JUMPI DUP1 PUSH4 0xD0E30DB0 EQ PUSH2 0xBD JUMPI DUP1 PUSH4 0xDB4FEE82 EQ PUSH2 0xC7 JUMPI JUMPDEST PUSH0 DUP1 REVERT JUMPDEST PUSH2 0x55 PUSH2 0xEF JUMP JUMPDEST STOP JUMPDEST CALLVALUE DUP1 ISZERO PUSH2 0x62 JUMPI PUSH0 DUP1 REVERT JUMPDEST POP PUSH2 0x6B PUSH2 0x241 JUMP JUMPDEST PUSH1 0x40 MLOAD PUSH2 0x78 SWAP2 SWAP1 PUSH2 0x562 JUMP JUMPDEST PUSH1 0x40 MLOAD DUP1 SWAP2 SUB SWAP1 RETURN JUMPDEST CALLVALUE DUP1 ISZERO PUSH2 0x8C JUMPI PUSH0 DUP1 REVERT JUMPDEST POP PUSH2 0xA7 PUSH1 0x4 DUP1 CALLDATASIZE SUB DUP2 ADD SWAP1 PUSH2 0xA2 SWAP2 SWAP1 PUSH2 0x5D9 JUMP JUMPDEST PUSH2 0x248 JUMP JUMPDEST PUSH1 0x40 MLOAD PUSH2 0xB4 SWAP2 SWAP1 PUSH2 0x562 JUMP JUMPDEST PUSH1 0x40 MLOAD DUP1 SWAP2 SUB SWAP1 RETURN JUMPDEST PUSH2 0xC5 PUSH2 0x28D JUMP JUMPDEST STOP JUMPDEST CALLVALUE DUP1 ISZERO PUSH2 0xD2 JUMPI PUSH0 DUP1 REVERT JUMPDEST POP PUSH2 0xED PUSH1 0x4 DUP1 CALLDATASIZE SUB DUP2 ADD SWAP1 PUSH2 0xE8 SWAP2 SWAP1 PUSH2 0x62E JUMP JUMPDEST PUSH2 0x3D4 JUMP JUMPDEST STOP JUMPDEST PUSH0 PUSH20 0xFFFFFFFFFFFFFFFFFFFFFFFFFFFFFFFFFFFFFFFF AND CALLER PUSH20 0xFFFFFFFFFFFFFFFFFFFFFFFFFFFFFFFFFFFFFFFF AND SUB PUSH2 0x126 JUMPI PUSH0 DUP1 REVERT JUMPDEST PUSH0 DUP1 PUSH0 CALLER PUSH20 0xFFFFFFFFFFFFFFFFFFFFFFFFFFFFFFFFFFFFFFFF AND PUSH20 0xFFFFFFFFFFFFFFFFFFFFFFFFFFFFFFFFFFFFFFFF AND DUP2 MSTORE PUSH1 0x20 ADD SWAP1 DUP2 MSTORE PUSH1 0x20 ADD PUSH0 KECCAK256 SLOAD SWAP1 POP PUSH0 DUP2 GT PUSH2 0x1A8 JUMPI PUSH1 0x40 MLOAD PUSH32 0x8C379A000000000000000000000000000000000000000000000000000000000 DUP2 MSTORE PUSH1 0x4 ADD PUSH2 0x19F SWAP1 PUSH2 0x6C6 JUMP JUMPDEST PUSH1 0x40 MLOAD DUP1 SWAP2 SUB SWAP1 REVERT JUMPDEST DUP1 PUSH0 DUP1 CALLER PUSH20 0xFFFFFFFFFFFFFFFFFFFFFFFFFFFFFFFFFFFFFFFF AND PUSH20 0xFFFFFFFFFFFFFFFFFFFFFFFFFFFFFFFFFFFFFFFF AND DUP2 MSTORE PUSH1 0x20 ADD SWAP1 DUP2 MSTORE PUSH1 0x20 ADD PUSH0 KECCAK256 PUSH0 DUP3 DUP3 SLOAD PUSH2 0x1F3 SWAP2 SWAP1 PUSH2 0x711 JUMP JUMPDEST SWAP3 POP POP DUP2 SWAP1 SSTORE POP CALLER PUSH20 0xFFFFFFFFFFFFFFFFFFFFFFFFFFFFFFFFFFFFFFFF AND PUSH2 0x8FC DUP3 SWAP1 DUP2 ISZERO MUL SWAP1 PUSH1 0x40 MLOAD PUSH0 PUSH1 0x40 MLOAD DUP1 DUP4 SUB DUP2 DUP6 DUP9 DUP9 CALL SWAP4 POP POP POP POP ISZERO DUP1 ISZERO PUSH2 0x23D JUMPI RETURNDATASIZE PUSH0 DUP1 RETURNDATACOPY RETURNDATASIZE PUSH0 REVERT JUMPDEST POP POP JUMP JUMPDEST PUSH0 SELFBALANCE SWAP1 POP SWAP1 JUMP JUMPDEST PUSH0 DUP1 PUSH0 DUP4 PUSH20 0xFFFFFFFFFFFFFFFFFFFFFFFFFFFFFFFFFFFFFFFF AND PUSH20 0xFFFFFFFFFFFFFFFFFFFFFFFFFFFFFFFFFFFFFFFF AND DUP2 MSTORE PUSH1 0x20 ADD SWAP1 DUP2 MSTORE PUSH1 0x20 ADD PUSH0 KECCAK256 SLOAD SWAP1 POP SWAP2 SWAP1 POP JUMP JUMPDEST PUSH0 PUSH20 0xFFFFFFFFFFFFFFFFFFFFFFFFFFFFFFFFFFFFFFFF AND CALLER PUSH20 0xFFFFFFFFFFFFFFFFFFFFFFFFFFFFFFFFFFFFFFFF AND SUB PUSH2 0x2C4 JUMPI PUSH0 DUP1 REVERT JUMPDEST PUSH0 CALLVALUE GT PUSH2 0x306 JUMPI PUSH1 0x40 MLOAD PUSH32 0x8C379A000000000000000000000000000000000000000000000000000000000 DUP2 MSTORE PUSH1 0x4 ADD PUSH2 0x2FD SWAP1 PUSH2 0x78E JUMP JUMPDEST PUSH1 0x40 MLOAD DUP1 SWAP2 SUB SWAP1 REVERT JUMPDEST CALLVALUE PUSH0 DUP1 CALLER PUSH20 0xFFFFFFFFFFFFFFFFFFFFFFFFFFFFFFFFFFFFFFFF AND PUSH20 0xFFFFFFFFFFFFFFFFFFFFFFFFFFFFFFFFFFFFFFFF AND DUP2 MSTORE PUSH1 0x20 ADD SWAP1 DUP2 MSTORE PUSH1 0x20 ADD PUSH0 KECCAK256 SLOAD PUSH2 0x34E SWAP2 SWAP1 PUSH2 0x7AC JUMP JUMPDEST PUSH0 DUP1 CALLER PUSH20 0xFFFFFFFFFFFFFFFFFFFFFFFFFFFFFFFFFFFFFFFF AND PUSH20 0xFFFFFFFFFFFFFFFFFFFFFFFFFFFFFFFFFFFFFFFF AND DUP2 MSTORE PUSH1 0x20 ADD SWAP1 DUP2 MSTORE PUSH1 0x20 ADD PUSH0 KECCAK256 DUP2 SWAP1 SSTORE POP CALLVALUE CALLER PUSH20 0xFFFFFFFFFFFFFFFFFFFFFFFFFFFFFFFFFFFFFFFF AND PUSH32 0xA1CF616D458479E02CEB72BDEC717CED62F6984A23E16FFEF7B98E471F3DD602 PUSH1 0x40 MLOAD PUSH1 0x40 MLOAD DUP1 SWAP2 SUB SWAP1 LOG3 JUMP JUMPDEST PUSH0 PUSH20 0xFFFFFFFFFFFFFFFFFFFFFFFFFFFFFFFFFFFFFFFF AND DUP3 PUSH20 0xFFFFFFFFFFFFFFFFFFFFFFFFFFFFFFFFFFFFFFFF AND SUB PUSH2 0x442 JUMPI PUSH1 0x40 MLOAD PUSH32 0x8C379A000000000000000000000000000000000000000000000000000000000 DUP2 MSTORE PUSH1 0x4 ADD PUSH2 0x439 SWAP1 PUSH2 0x829 JUMP JUMPDEST PUSH1 0x40 MLOAD DUP1 SWAP2 SUB SWAP1 REVERT JUMPDEST PUSH0 DUP2 GT PUSH2 0x484 JUMPI PUSH1 0x40 MLOAD PUSH32 0x8C379A000000000000000000000000000000000000000000000000000000000 DUP2 MSTORE PUSH1 0x4 ADD PUSH2 0x47B SWAP1 PUSH2 0x891 JUMP JUMPDEST PUSH1 0x40 MLOAD DUP1 SWAP2 SUB SWAP1 REVERT JUMPDEST DUP1 PUSH0 DUP1 CALLER PUSH20 0xFFFFFFFFFFFFFFFFFFFFFFFFFFFFFFFFFFFFFFFF AND PUSH20 0xFFFFFFFFFFFFFFFFFFFFFFFFFFFFFFFFFFFFFFFF AND DUP2 MSTORE PUSH1 0x20 ADD SWAP1 DUP2 MSTORE PUSH1 0x20 ADD PUSH0 KECCAK256 SLOAD GT PUSH2 0x502 JUMPI PUSH1 0x40 MLOAD PUSH32 0x8C379A000000000000000000000000000000000000000000000000000000000 DUP2 MSTORE PUSH1 0x4 ADD PUSH2 0x4F9 SWAP1 PUSH2 0x8F9 JUMP JUMPDEST PUSH1 0x40 MLOAD DUP1 SWAP2 SUB SWAP1 REVERT JUMPDEST DUP2 PUSH20 0xFFFFFFFFFFFFFFFFFFFFFFFFFFFFFFFFFFFFFFFF AND PUSH2 0x8FC DUP3 SWAP1 DUP2 ISZERO MUL SWAP1 PUSH1 0x40 MLOAD PUSH0 PUSH1 0x40 MLOAD DUP1 DUP4 SUB DUP2 DUP6 DUP9 DUP9 CALL SWAP4 POP POP POP POP ISZERO DUP1 ISZERO PUSH2 0x545 JUMPI RETURNDATASIZE PUSH0 DUP1 RETURNDATACOPY RETURNDATASIZE PUSH0 REVERT JUMPDEST POP POP POP JUMP JUMPDEST PUSH0 DUP2 SWAP1 POP SWAP2 SWAP1 POP JUMP JUMPDEST PUSH2 0x55C DUP2 PUSH2 0x54A JUMP JUMPDEST DUP3 MSTORE POP POP JUMP JUMPDEST PUSH0 PUSH1 0x20 DUP3 ADD SWAP1 POP PUSH2 0x575 PUSH0 DUP4 ADD DUP5 PUSH2 0x553 JUMP JUMPDEST SWAP3 SWAP2 POP POP JUMP JUMPDEST PUSH0 DUP1 REVERT JUMPDEST PUSH0 PUSH20 0xFFFFFFFFFFFFFFFFFFFFFFFFFFFFFFFFFFFFFFFF DUP3 AND SWAP1 POP SWAP2 SWAP1 POP JUMP JUMPDEST PUSH0 PUSH2 0x5A8 DUP3 PUSH2 0x57F JUMP JUMPDEST SWAP1 POP SWAP2 SWAP1 POP JUMP JUMPDEST PUSH2 0x5B8 DUP2 PUSH2 0x59E JUMP JUMPDEST DUP2 EQ PUSH2 0x5C2 JUMPI PUSH0 DUP1 REVERT JUMPDEST POP JUMP JUMPDEST PUSH0 DUP2 CALLDATALOAD SWAP1 POP PUSH2 0x5D3 DUP2 PUSH2 0x5AF JUMP JUMPDEST SWAP3 SWAP2 POP POP JUMP JUMPDEST PUSH0 PUSH1 0x20 DUP3 DUP5 SUB SLT ISZERO PUSH2 0x5EE JUMPI PUSH2 0x5ED PUSH2 0x57B JUMP JUMPDEST JUMPDEST PUSH0 PUSH2 0x5FB DUP5 DUP3 DUP6 ADD PUSH2 0x5C5 JUMP JUMPDEST SWAP2 POP POP SWAP3 SWAP2 POP POP JUMP JUMPDEST PUSH2 0x60D DUP2 PUSH2 0x54A JUMP JUMPDEST DUP2 EQ PUSH2 0x617 JUMPI PUSH0 DUP1 REVERT JUMPDEST POP JUMP JUMPDEST PUSH0 DUP2 CALLDATALOAD SWAP1 POP PUSH2 0x628 DUP2 PUSH2 0x604 JUMP JUMPDEST SWAP3 SWAP2 POP POP JUMP JUMPDEST PUSH0 DUP1 PUSH1 0x40 DUP4 DUP6 SUB SLT ISZERO PUSH2 0x644 JUMPI PUSH2 0x643 PUSH2 0x57B JUMP JUMPDEST JUMPDEST PUSH0 PUSH2 0x651 DUP6 DUP3 DUP7 ADD PUSH2 0x5C5 JUMP JUMPDEST SWAP3 POP POP PUSH1 0x20 PUSH2 0x662 DUP6 DUP3 DUP7 ADD PUSH2 0x61A JUMP JUMPDEST SWAP2 POP POP SWAP3 POP SWAP3 SWAP1 POP JUMP JUMPDEST PUSH0 DUP3 DUP3 MSTORE PUSH1 0x20 DUP3 ADD SWAP1 POP SWAP3 SWAP2 POP POP JUMP JUMPDEST PUSH32 0x6E6F20656E6F7567682062616C616E6365000000000000000000000000000000 PUSH0 DUP3 ADD MSTORE POP JUMP JUMPDEST PUSH0 PUSH2 0x6B0 PUSH1 0x11 DUP4 PUSH2 0x66C JUMP JUMPDEST SWAP2 POP PUSH2 0x6BB DUP3 PUSH2 0x67C JUMP JUMPDEST PUSH1 0x20 DUP3 ADD SWAP1 POP SWAP2 SWAP1 POP JUMP JUMPDEST PUSH0 PUSH1 0x20 DUP3 ADD SWAP1 POP DUP2 DUP2 SUB PUSH0 DUP4 ADD MSTORE PUSH2 0x6DD DUP2 PUSH2 0x6A4 JUMP JUMPDEST SWAP1 POP SWAP2 SWAP1 POP JUMP JUMPDEST PUSH32 0x4E487B7100000000000000000000000000000000000000000000000000000000 PUSH0 MSTORE PUSH1 0x11 PUSH1 0x4 MSTORE PUSH1 0x24 PUSH0 REVERT JUMPDEST PUSH0 PUSH2 0x71B DUP3 PUSH2 0x54A JUMP JUMPDEST SWAP2 POP PUSH2 0x726 DUP4 PUSH2 0x54A JUMP JUMPDEST SWAP3 POP DUP3 DUP3 SUB SWAP1 POP DUP2 DUP2 GT ISZERO PUSH2 0x73E JUMPI PUSH2 0x73D PUSH2 0x6E4 JUMP JUMPDEST JUMPDEST SWAP3 SWAP2 POP POP JUMP JUMPDEST PUSH32 0x656E74657220612076616C696420616D6F756E74000000000000000000000000 PUSH0 DUP3 ADD MSTORE POP JUMP JUMPDEST PUSH0 PUSH2 0x778 PUSH1 0x14 DUP4 PUSH2 0x66C JUMP JUMPDEST SWAP2 POP PUSH2 0x783 DUP3 PUSH2 0x744 JUMP JUMPDEST PUSH1 0x20 DUP3 ADD SWAP1 POP SWAP2 SWAP1 POP JUMP JUMPDEST PUSH0 PUSH1 0x20 DUP3 ADD SWAP1 POP DUP2 DUP2 SUB PUSH0 DUP4 ADD MSTORE PUSH2 0x7A5 DUP2 PUSH2 0x76C JUMP JUMPDEST SWAP1 POP SWAP2 SWAP1 POP JUMP JUMPDEST PUSH0 PUSH2 0x7B6 DUP3 PUSH2 0x54A JUMP JUMPDEST SWAP2 POP PUSH2 0x7C1 DUP4 PUSH2 0x54A JUMP JUMPDEST SWAP3 POP DUP3 DUP3 ADD SWAP1 POP DUP1 DUP3 GT ISZERO PUSH2 0x7D9 JUMPI PUSH2 0x7D8 PUSH2 0x6E4 JUMP JUMPDEST JUMPDEST SWAP3 SWAP2 POP POP JUMP JUMPDEST PUSH32 0x496E76616C696420616464726573730000000000000000000000000000000000 PUSH0 DUP3 ADD MSTORE POP JUMP JUMPDEST PUSH0 PUSH2 0x813 PUSH1 0xF DUP4 PUSH2 0x66C JUMP JUMPDEST SWAP2 POP PUSH2 0x81E DUP3 PUSH2 0x7DF JUMP JUMPDEST PUSH1 0x20 DUP3 ADD SWAP1 POP SWAP2 SWAP1 POP JUMP JUMPDEST PUSH0 PUSH1 0x20 DUP3 ADD SWAP1 POP DUP2 DUP2 SUB PUSH0 DUP4 ADD MSTORE PUSH2 0x840 DUP2 PUSH2 0x807 JUMP JUMPDEST SWAP1 POP SWAP2 SWAP1 POP JUMP JUMPDEST PUSH32 0x596F752063616E742073656E64207A65726F0000000000000000000000000000 PUSH0 DUP3 ADD MSTORE POP JUMP JUMPDEST PUSH0 PUSH2 0x87B PUSH1 0x12 DUP4 PUSH2 0x66C JUMP JUMPDEST SWAP2 POP PUSH2 0x886 DUP3 PUSH2 0x847 JUMP JUMPDEST PUSH1 0x20 DUP3 ADD SWAP1 POP SWAP2 SWAP1 POP JUMP JUMPDEST PUSH0 PUSH1 0x20 DUP3 ADD SWAP1 POP DUP2 DUP2 SUB PUSH0 DUP4 ADD MSTORE PUSH2 0x8A8 DUP2 PUSH2 0x86F JUMP JUMPDEST SWAP1 POP SWAP2 SWAP1 POP JUMP JUMPDEST PUSH32 0x696E73756666696369656E742066756E64730000000000000000000000000000 PUSH0 DUP3 ADD MSTORE POP JUMP JUMPDEST PUSH0 PUSH2 0x8E3 PUSH1 0x12 DUP4 PUSH2 0x66C JUMP JUMPDEST SWAP2 POP PUSH2 0x8EE DUP3 PUSH2 0x8AF JUMP JUMPDEST PUSH1 0x20 DUP3 ADD SWAP1 POP SWAP2 SWAP1 POP JUMP JUMPDEST PUSH0 PUSH1 0x20 DUP3 ADD SWAP1 POP DUP2 DUP2 SUB PUSH0 DUP4 ADD MSTORE PUSH2 0x910 DUP2 PUSH2 0x8D7 JUMP JUMPDEST SWAP1 POP SWAP2 SWAP1 POP JUMP INVALID LOG2 PUSH5 0x6970667358 0x22 SLT KECCAK256 DUP14 0xDB 0xBA CALLDATASIZE GAS EXP 0xCF 0x28 TSTORE JUMPI 0x4D 0xA7 0x25 0xF 0x2F SWAP5 0xD2 PUSH5 0xA4A9438FA9 0x2D 0xD2 PUSH9 0x8462BF396C0764736F PUSH13 0x63430008180033000000000000 "
				},
				"gasEstimates": {
					"creation": {
						"codeDepositCost": "476200",
						"executionCost": "509",
						"totalCost": "476709"
					},
					"external": {
						"checkBalance(address)": "2851",
						"checkContractBalance()": "334",
						"deposit()": "infinite",
						"sendSavings(address,uint256)": "infinite",
						"withdraw()": "infinite"
					}
				},
				"methodIdentifiers": {
					"checkBalance(address)": "5f515226",
					"checkContractBalance()": "50312c9e",
					"deposit()": "d0e30db0",
					"sendSavings(address,uint256)": "db4fee82",
					"withdraw()": "3ccfd60b"
				}
			},
			"storageLayout": {
				"storage": [
					{
						"astId": 5,
						"contract": "cas/SaveEther.sol:SaveEther",
						"label": "savings",
						"offset": 0,
						"slot": "0",
						"type": "t_mapping(t_address,t_uint256)"
					}
				],
				"types": {
					"t_address": {
						"encoding": "inplace",
						"label": "address",
						"numberOfBytes": "20"
					},
					"t_mapping(t_address,t_uint256)": {
						"encoding": "mapping",
						"key": "t_address",
						"label": "mapping(address => uint256)",
						"numberOfBytes": "32",
						"value": "t_uint256"
					},
					"t_uint256": {
						"encoding": "inplace",
						"label": "uint256",
						"numberOfBytes": "32"
					}
				}
			},
			"userdoc": {
				"kind": "user",
				"methods": {},
				"version": 1
			}
		}
	}
}