{
	"cas/NFT.sol": {
		"OnChainNFT": {
			"abi": [
				{
					"inputs": [],
					"stateMutability": "nonpayable",
					"type": "constructor"
				},
				{
					"inputs": [
						{
							"internalType": "address",
							"name": "sender",
							"type": "address"
						},
						{
							"internalType": "uint256",
							"name": "tokenId",
							"type": "uint256"
						},
						{
							"internalType": "address",
							"name": "owner",
							"type": "address"
						}
					],
					"name": "ERC721IncorrectOwner",
					"type": "error"
				},
				{
					"inputs": [
						{
							"internalType": "address",
							"name": "operator",
							"type": "address"
						},
						{
							"internalType": "uint256",
							"name": "tokenId",
							"type": "uint256"
						}
					],
					"name": "ERC721InsufficientApproval",
					"type": "error"
				},
				{
					"inputs": [
						{
							"internalType": "address",
							"name": "approver",
							"type": "address"
						}
					],
					"name": "ERC721InvalidApprover",
					"type": "error"
				},
				{
					"inputs": [
						{
							"internalType": "address",
							"name": "operator",
							"type": "address"
						}
					],
					"name": "ERC721InvalidOperator",
					"type": "error"
				},
				{
					"inputs": [
						{
							"internalType": "address",
							"name": "owner",
							"type": "address"
						}
					],
					"name": "ERC721InvalidOwner",
					"type": "error"
				},
				{
					"inputs": [
						{
							"internalType": "address",
							"name": "receiver",
							"type": "address"
						}
					],
					"name": "ERC721InvalidReceiver",
					"type": "error"
				},
				{
					"inputs": [
						{
							"internalType": "address",
							"name": "sender",
							"type": "address"
						}
					],
					"name": "ERC721InvalidSender",
					"type": "error"
				},
				{
					"inputs": [
						{
							"internalType": "uint256",
							"name": "tokenId",
							"type": "uint256"
						}
					],
					"name": "ERC721NonexistentToken",
					"type": "error"
				},
				{
					"anonymous": false,
					"inputs": [
						{
							"indexed": true,
							"internalType": "address",
							"name": "owner",
							"type": "address"
						},
						{
							"indexed": true,
							"internalType": "address",
							"name": "approved",
							"type": "address"
						},
						{
							"indexed": true,
							"internalType": "uint256",
							"name": "tokenId",
							"type": "uint256"
						}
					],
					"name": "Approval",
					"type": "event"
				},
				{
					"anonymous": false,
					"inputs": [
						{
							"indexed": true,
							"internalType": "address",
							"name": "owner",
							"type": "address"
						},
						{
							"indexed": true,
							"internalType": "address",
							"name": "operator",
							"type": "address"
						},
						{
							"indexed": false,
							"internalType": "bool",
							"name": "approved",
							"type": "bool"
						}
					],
					"name": "ApprovalForAll",
					"type": "event"
				},
				{
					"anonymous": false,
					"inputs": [
						{
							"indexed": false,
							"internalType": "uint256",
							"name": "_fromTokenId",
							"type": "uint256"
						},
						{
							"indexed": false,
							"internalType": "uint256",
							"name": "_toTokenId",
							"type": "uint256"
						}
					],
					"name": "BatchMetadataUpdate",
					"type": "event"
				},
				{
					"anonymous": false,
					"inputs": [
						{
							"indexed": false,
							"internalType": "uint256",
							"name": "_tokenId",
							"type": "uint256"
						}
					],
					"name": "MetadataUpdate",
					"type": "event"
				},
				{
					"anonymous": false,
					"inputs": [
						{
							"indexed": true,
							"internalType": "address",
							"name": "from",
							"type": "address"
						},
						{
							"indexed": true,
							"internalType": "address",
							"name": "to",
							"type": "address"
						},
						{
							"indexed": true,
							"internalType": "uint256",
							"name": "tokenId",
							"type": "uint256"
						}
					],
					"name": "Transfer",
					"type": "event"
				},
				{
					"inputs": [
						{
							"internalType": "address",
							"name": "to",
							"type": "address"
						},
						{
							"internalType": "uint256",
							"name": "tokenId",
							"type": "uint256"
						}
					],
					"name": "approve",
					"outputs": [],
					"stateMutability": "nonpayable",
					"type": "function"
				},
				{
					"inputs": [
						{
							"internalType": "address",
							"name": "owner",
							"type": "address"
						}
					],
					"name": "balanceOf",
					"outputs": [
						{
							"internalType": "uint256",
							"name": "",
							"type": "uint256"
						}
					],
					"stateMutability": "view",
					"type": "function"
				},
				{
					"inputs": [
						{
							"internalType": "uint256",
							"name": "tokenId",
							"type": "uint256"
						}
					],
					"name": "getApproved",
					"outputs": [
						{
							"internalType": "address",
							"name": "",
							"type": "address"
						}
					],
					"stateMutability": "view",
					"type": "function"
				},
				{
					"inputs": [
						{
							"internalType": "address",
							"name": "owner",
							"type": "address"
						},
						{
							"internalType": "address",
							"name": "operator",
							"type": "address"
						}
					],
					"name": "isApprovedForAll",
					"outputs": [
						{
							"internalType": "bool",
							"name": "",
							"type": "bool"
						}
					],
					"stateMutability": "view",
					"type": "function"
				},
				{
					"inputs": [
						{
							"internalType": "string",
							"name": "imageURI",
							"type": "string"
						}
					],
					"name": "mint",
					"outputs": [],
					"stateMutability": "nonpayable",
					"type": "function"
				},
				{
					"inputs": [],
					"name": "name",
					"outputs": [
						{
							"internalType": "string",
							"name": "",
							"type": "string"
						}
					],
					"stateMutability": "view",
					"type": "function"
				},
				{
					"inputs": [
						{
							"internalType": "uint256",
							"name": "tokenId",
							"type": "uint256"
						}
					],
					"name": "ownerOf",
					"outputs": [
						{
							"internalType": "address",
							"name": "",
							"type": "address"
						}
					],
					"stateMutability": "view",
					"type": "function"
				},
				{
					"inputs": [
						{
							"internalType": "address",
							"name": "from",
							"type": "address"
						},
						{
							"internalType": "address",
							"name": "to",
							"type": "address"
						},
						{
							"internalType": "uint256",
							"name": "tokenId",
							"type": "uint256"
						}
					],
					"name": "safeTransferFrom",
					"outputs": [],
					"stateMutability": "nonpayable",
					"type": "function"
				},
				{
					"inputs": [
						{
							"internalType": "address",
							"name": "from",
							"type": "address"
						},
						{
							"internalType": "address",
							"name": "to",
							"type": "address"
						},
						{
							"internalType": "uint256",
							"name": "tokenId",
							"type": "uint256"
						},
						{
							"internalType": "bytes",
							"name": "data",
							"type": "bytes"
						}
					],
					"name": "safeTransferFrom",
					"outputs": [],
					"stateMutability": "nonpayable",
					"type": "function"
				},
				{
					"inputs": [
						{
							"internalType": "address",
							"name": "operator",
							"type": "address"
						},
						{
							"internalType": "bool",
							"name": "approved",
							"type": "bool"
						}
					],
					"name": "setApprovalForAll",
					"outputs": [],
					"stateMutability": "nonpayable",
					"type": "function"
				},
				{
					"inputs": [
						{
							"internalType": "string",
							"name": "imageURI",
							"type": "string"
						}
					],
					"name": "simplifiedFormatTokenURI",
					"outputs": [
						{
							"internalType": "string",
							"name": "",
							"type": "string"
						}
					],
					"stateMutability": "pure",
					"type": "function"
				},
				{
					"inputs": [
						{
							"internalType": "bytes4",
							"name": "interfaceId",
							"type": "bytes4"
						}
					],
					"name": "supportsInterface",
					"outputs": [
						{
							"internalType": "bool",
							"name": "",
							"type": "bool"
						}
					],
					"stateMutability": "view",
					"type": "function"
				},
				{
					"inputs": [],
					"name": "symbol",
					"outputs": [
						{
							"internalType": "string",
							"name": "",
							"type": "string"
						}
					],
					"stateMutability": "view",
					"type": "function"
				},
				{
					"inputs": [
						{
							"internalType": "uint256",
							"name": "",
							"type": "uint256"
						}
					],
					"name": "tokenIdToLevels",
					"outputs": [
						{
							"internalType": "uint256",
							"name": "",
							"type": "uint256"
						}
					],
					"stateMutability": "view",
					"type": "function"
				},
				{
					"inputs": [
						{
							"internalType": "uint256",
							"name": "tokenId",
							"type": "uint256"
						}
					],
					"name": "tokenURI",
					"outputs": [
						{
							"internalType": "string",
							"name": "",
							"type": "string"
						}
					],
					"stateMutability": "view",
					"type": "function"
				},
				{
					"inputs": [
						{
							"internalType": "address",
							"name": "from",
							"type": "address"
						},
						{
							"internalType": "address",
							"name": "to",
							"type": "address"
						},
						{
							"internalType": "uint256",
							"name": "tokenId",
							"type": "uint256"
						}
					],
					"name": "transferFrom",
					"outputs": [],
					"stateMutability": "nonpayable",
					"type": "function"
				}
			],
			"devdoc": {
				"errors": {
					"ERC721IncorrectOwner(address,uint256,address)": [
						{
							"details": "Indicates an error related to the ownership over a particular token. Used in transfers.",
							"params": {
								"owner": "Address of the current owner of a token.",
								"sender": "Address whose tokens are being transferred.",
								"tokenId": "Identifier number of a token."
							}
						}
					],
					"ERC721InsufficientApproval(address,uint256)": [
						{
							"details": "Indicates a failure with the `operator`’s approval. Used in transfers.",
							"params": {
								"operator": "Address that may be allowed to operate on tokens without being their owner.",
								"tokenId": "Identifier number of a token."
							}
						}
					],
					"ERC721InvalidApprover(address)": [
						{
							"details": "Indicates a failure with the `approver` of a token to be approved. Used in approvals.",
							"params": {
								"approver": "Address initiating an approval operation."
							}
						}
					],
					"ERC721InvalidOperator(address)": [
						{
							"details": "Indicates a failure with the `operator` to be approved. Used in approvals.",
							"params": {
								"operator": "Address that may be allowed to operate on tokens without being their owner."
							}
						}
					],
					"ERC721InvalidOwner(address)": [
						{
							"details": "Indicates that an address can't be an owner. For example, `address(0)` is a forbidden owner in EIP-20. Used in balance queries.",
							"params": {
								"owner": "Address of the current owner of a token."
							}
						}
					],
					"ERC721InvalidReceiver(address)": [
						{
							"details": "Indicates a failure with the token `receiver`. Used in transfers.",
							"params": {
								"receiver": "Address to which tokens are being transferred."
							}
						}
					],
					"ERC721InvalidSender(address)": [
						{
							"details": "Indicates a failure with the token `sender`. Used in transfers.",
							"params": {
								"sender": "Address whose tokens are being transferred."
							}
						}
					],
					"ERC721NonexistentToken(uint256)": [
						{
							"details": "Indicates a `tokenId` whose `owner` is the zero address.",
							"params": {
								"tokenId": "Identifier number of a token."
							}
						}
					]
				},
				"events": {
					"Approval(address,address,uint256)": {
						"details": "Emitted when `owner` enables `approved` to manage the `tokenId` token."
					},
					"ApprovalForAll(address,address,bool)": {
						"details": "Emitted when `owner` enables or disables (`approved`) `operator` to manage all of its assets."
					},
					"BatchMetadataUpdate(uint256,uint256)": {
						"details": "This event emits when the metadata of a range of tokens is changed. So that the third-party platforms such as NFT market could timely update the images and related attributes of the NFTs."
					},
					"MetadataUpdate(uint256)": {
						"details": "This event emits when the metadata of a token is changed. So that the third-party platforms such as NFT market could timely update the images and related attributes of the NFT."
					},
					"Transfer(address,address,uint256)": {
						"details": "Emitted when `tokenId` token is transferred from `from` to `to`."
					}
				},
				"kind": "dev",
				"methods": {
					"approve(address,uint256)": {
						"details": "See {IERC721-approve}."
					},
					"balanceOf(address)": {
						"details": "See {IERC721-balanceOf}."
					},
					"getApproved(uint256)": {
						"details": "See {IERC721-getApproved}."
					},
					"isApprovedForAll(address,address)": {
						"details": "See {IERC721-isApprovedForAll}."
					},
					"name()": {
						"details": "See {IERC721Metadata-name}."
					},
					"ownerOf(uint256)": {
						"details": "See {IERC721-ownerOf}."
					},
					"safeTransferFrom(address,address,uint256)": {
						"details": "See {IERC721-safeTransferFrom}."
					},
					"safeTransferFrom(address,address,uint256,bytes)": {
						"details": "See {IERC721-safeTransferFrom}."
					},
					"setApprovalForAll(address,bool)": {
						"details": "See {IERC721-setApprovalForAll}."
					},
					"supportsInterface(bytes4)": {
						"details": "See {IERC165-supportsInterface}"
					},
					"symbol()": {
						"details": "See {IERC721Metadata-symbol}."
					},
					"tokenURI(uint256)": {
						"details": "See {IERC721Metadata-tokenURI}."
					},
					"transferFrom(address,address,uint256)": {
						"details": "See {IERC721-transferFrom}."
					}
				},
				"version": 1
			},
			"evm": {
				"assembly": "    /* \"cas/NFT.sol\":294:1696  contract OnChainNFT is ERC721URIStorage {... */\n  mstore(0x40, 0x80)\n    /* \"cas/NFT.sol\":510:554  constructor() ERC721(\"OnChainNFT\", \"OCN\") {} */\n  callvalue\n  dup1\n  iszero\n  tag_1\n  jumpi\n  0x00\n  dup1\n  revert\ntag_1:\n  pop\n    /* \"@openzeppelin/contracts/token/ERC721/ERC721.sol\":1381:1494  constructor(string memory name_, string memory symbol_) {... */\n  mload(0x40)\n  dup1\n  0x40\n  add\n  0x40\n  mstore\n  dup1\n  0x0a\n  dup2\n  mstore\n  0x20\n  add\n  0x4f6e436861696e4e465400000000000000000000000000000000000000000000\n  dup2\n  mstore\n  pop\n  mload(0x40)\n  dup1\n  0x40\n  add\n  0x40\n  mstore\n  dup1\n  0x03\n  dup2\n  mstore\n  0x20\n  add\n  0x4f434e0000000000000000000000000000000000000000000000000000000000\n  dup2\n  mstore\n  pop\n    /* \"@openzeppelin/contracts/token/ERC721/ERC721.sol\":1455:1460  name_ */\n  dup2\n    /* \"@openzeppelin/contracts/token/ERC721/ERC721.sol\":1447:1452  _name */\n  0x00\n    /* \"@openzeppelin/contracts/token/ERC721/ERC721.sol\":1447:1460  _name = name_ */\n  swap1\n  dup2\n  tag_5\n  swap2\n  swap1\n  tag_6\n  jump\t// in\ntag_5:\n  pop\n    /* \"@openzeppelin/contracts/token/ERC721/ERC721.sol\":1480:1487  symbol_ */\n  dup1\n    /* \"@openzeppelin/contracts/token/ERC721/ERC721.sol\":1470:1477  _symbol */\n  0x01\n    /* \"@openzeppelin/contracts/token/ERC721/ERC721.sol\":1470:1487  _symbol = symbol_ */\n  swap1\n  dup2\n  tag_7\n  swap2\n  swap1\n  tag_6\n  jump\t// in\ntag_7:\n  pop\n    /* \"@openzeppelin/contracts/token/ERC721/ERC721.sol\":1381:1494  constructor(string memory name_, string memory symbol_) {... */\n  pop\n  pop\n    /* \"cas/NFT.sol\":294:1696  contract OnChainNFT is ERC721URIStorage {... */\n  jump(tag_9)\n    /* \"#utility.yul\":7:106   */\ntag_10:\n    /* \"#utility.yul\":59:65   */\n  0x00\n    /* \"#utility.yul\":93:98   */\n  dup2\n    /* \"#utility.yul\":87:99   */\n  mload\n    /* \"#utility.yul\":77:99   */\n  swap1\n  pop\n    /* \"#utility.yul\":7:106   */\n  swap2\n  swap1\n  pop\n  jump\t// out\n    /* \"#utility.yul\":112:292   */\ntag_11:\n    /* \"#utility.yul\":160:237   */\n  0x4e487b7100000000000000000000000000000000000000000000000000000000\n    /* \"#utility.yul\":157:158   */\n  0x00\n    /* \"#utility.yul\":150:238   */\n  mstore\n    /* \"#utility.yul\":257:261   */\n  0x41\n    /* \"#utility.yul\":254:255   */\n  0x04\n    /* \"#utility.yul\":247:262   */\n  mstore\n    /* \"#utility.yul\":281:285   */\n  0x24\n    /* \"#utility.yul\":278:279   */\n  0x00\n    /* \"#utility.yul\":271:286   */\n  revert\n    /* \"#utility.yul\":298:478   */\ntag_12:\n    /* \"#utility.yul\":346:423   */\n  0x4e487b7100000000000000000000000000000000000000000000000000000000\n    /* \"#utility.yul\":343:344   */\n  0x00\n    /* \"#utility.yul\":336:424   */\n  mstore\n    /* \"#utility.yul\":443:447   */\n  0x22\n    /* \"#utility.yul\":440:441   */\n  0x04\n    /* \"#utility.yul\":433:448   */\n  mstore\n    /* \"#utility.yul\":467:471   */\n  0x24\n    /* \"#utility.yul\":464:465   */\n  0x00\n    /* \"#utility.yul\":457:472   */\n  revert\n    /* \"#utility.yul\":484:804   */\ntag_13:\n    /* \"#utility.yul\":528:534   */\n  0x00\n    /* \"#utility.yul\":565:566   */\n  0x02\n    /* \"#utility.yul\":559:563   */\n  dup3\n    /* \"#utility.yul\":555:567   */\n  div\n    /* \"#utility.yul\":545:567   */\n  swap1\n  pop\n    /* \"#utility.yul\":612:613   */\n  0x01\n    /* \"#utility.yul\":606:610   */\n  dup3\n    /* \"#utility.yul\":602:614   */\n  and\n    /* \"#utility.yul\":633:651   */\n  dup1\n    /* \"#utility.yul\":623:704   */\n  tag_35\n  jumpi\n    /* \"#utility.yul\":689:693   */\n  0x7f\n    /* \"#utility.yul\":681:687   */\n  dup3\n    /* \"#utility.yul\":677:694   */\n  and\n    /* \"#utility.yul\":667:694   */\n  swap2\n  pop\n    /* \"#utility.yul\":623:704   */\ntag_35:\n    /* \"#utility.yul\":751:753   */\n  0x20\n    /* \"#utility.yul\":743:749   */\n  dup3\n    /* \"#utility.yul\":740:754   */\n  lt\n    /* \"#utility.yul\":720:738   */\n  dup2\n    /* \"#utility.yul\":717:755   */\n  sub\n    /* \"#utility.yul\":714:798   */\n  tag_36\n  jumpi\n    /* \"#utility.yul\":770:788   */\n  tag_37\n  tag_12\n  jump\t// in\ntag_37:\n    /* \"#utility.yul\":714:798   */\ntag_36:\n    /* \"#utility.yul\":535:804   */\n  pop\n    /* \"#utility.yul\":484:804   */\n  swap2\n  swap1\n  pop\n  jump\t// out\n    /* \"#utility.yul\":810:951   */\ntag_14:\n    /* \"#utility.yul\":859:863   */\n  0x00\n    /* \"#utility.yul\":882:885   */\n  dup2\n    /* \"#utility.yul\":874:885   */\n  swap1\n  pop\n    /* \"#utility.yul\":905:908   */\n  dup2\n    /* \"#utility.yul\":902:903   */\n  0x00\n    /* \"#utility.yul\":895:909   */\n  mstore\n    /* \"#utility.yul\":939:943   */\n  0x20\n    /* \"#utility.yul\":936:937   */\n  0x00\n    /* \"#utility.yul\":926:944   */\n  keccak256\n    /* \"#utility.yul\":918:944   */\n  swap1\n  pop\n    /* \"#utility.yul\":810:951   */\n  swap2\n  swap1\n  pop\n  jump\t// out\n    /* \"#utility.yul\":957:1050   */\ntag_15:\n    /* \"#utility.yul\":994:1000   */\n  0x00\n    /* \"#utility.yul\":1041:1043   */\n  0x20\n    /* \"#utility.yul\":1036:1038   */\n  0x1f\n    /* \"#utility.yul\":1029:1034   */\n  dup4\n    /* \"#utility.yul\":1025:1039   */\n  add\n    /* \"#utility.yul\":1021:1044   */\n  div\n    /* \"#utility.yul\":1011:1044   */\n  swap1\n  pop\n    /* \"#utility.yul\":957:1050   */\n  swap2\n  swap1\n  pop\n  jump\t// out\n    /* \"#utility.yul\":1056:1163   */\ntag_16:\n    /* \"#utility.yul\":1100:1108   */\n  0x00\n    /* \"#utility.yul\":1150:1155   */\n  dup3\n    /* \"#utility.yul\":1144:1148   */\n  dup3\n    /* \"#utility.yul\":1140:1156   */\n  shl\n    /* \"#utility.yul\":1119:1156   */\n  swap1\n  pop\n    /* \"#utility.yul\":1056:1163   */\n  swap3\n  swap2\n  pop\n  pop\n  jump\t// out\n    /* \"#utility.yul\":1169:1562   */\ntag_17:\n    /* \"#utility.yul\":1238:1244   */\n  0x00\n    /* \"#utility.yul\":1288:1289   */\n  0x08\n    /* \"#utility.yul\":1276:1286   */\n  dup4\n    /* \"#utility.yul\":1272:1290   */\n  mul\n    /* \"#utility.yul\":1311:1408   */\n  tag_42\n    /* \"#utility.yul\":1341:1407   */\n  0xffffffffffffffffffffffffffffffffffffffffffffffffffffffffffffffff\n    /* \"#utility.yul\":1330:1339   */\n  dup3\n    /* \"#utility.yul\":1311:1408   */\n  tag_16\n  jump\t// in\ntag_42:\n    /* \"#utility.yul\":1429:1468   */\n  tag_43\n    /* \"#utility.yul\":1459:1467   */\n  dup7\n    /* \"#utility.yul\":1448:1457   */\n  dup4\n    /* \"#utility.yul\":1429:1468   */\n  tag_16\n  jump\t// in\ntag_43:\n    /* \"#utility.yul\":1417:1468   */\n  swap6\n  pop\n    /* \"#utility.yul\":1501:1505   */\n  dup1\n    /* \"#utility.yul\":1497:1506   */\n  not\n    /* \"#utility.yul\":1490:1495   */\n  dup5\n    /* \"#utility.yul\":1486:1507   */\n  and\n    /* \"#utility.yul\":1477:1507   */\n  swap4\n  pop\n    /* \"#utility.yul\":1550:1554   */\n  dup1\n    /* \"#utility.yul\":1540:1548   */\n  dup7\n    /* \"#utility.yul\":1536:1555   */\n  and\n    /* \"#utility.yul\":1529:1534   */\n  dup5\n    /* \"#utility.yul\":1526:1556   */\n  or\n    /* \"#utility.yul\":1516:1556   */\n  swap3\n  pop\n    /* \"#utility.yul\":1245:1562   */\n  pop\n  pop\n    /* \"#utility.yul\":1169:1562   */\n  swap4\n  swap3\n  pop\n  pop\n  pop\n  jump\t// out\n    /* \"#utility.yul\":1568:1645   */\ntag_18:\n    /* \"#utility.yul\":1605:1612   */\n  0x00\n    /* \"#utility.yul\":1634:1639   */\n  dup2\n    /* \"#utility.yul\":1623:1639   */\n  swap1\n  pop\n    /* \"#utility.yul\":1568:1645   */\n  swap2\n  swap1\n  pop\n  jump\t// out\n    /* \"#utility.yul\":1651:1711   */\ntag_19:\n    /* \"#utility.yul\":1679:1682   */\n  0x00\n    /* \"#utility.yul\":1700:1705   */\n  dup2\n    /* \"#utility.yul\":1693:1705   */\n  swap1\n  pop\n    /* \"#utility.yul\":1651:1711   */\n  swap2\n  swap1\n  pop\n  jump\t// out\n    /* \"#utility.yul\":1717:1859   */\ntag_20:\n    /* \"#utility.yul\":1767:1776   */\n  0x00\n    /* \"#utility.yul\":1800:1853   */\n  tag_47\n    /* \"#utility.yul\":1818:1852   */\n  tag_48\n    /* \"#utility.yul\":1827:1851   */\n  tag_49\n    /* \"#utility.yul\":1845:1850   */\n  dup5\n    /* \"#utility.yul\":1827:1851   */\n  tag_18\n  jump\t// in\ntag_49:\n    /* \"#utility.yul\":1818:1852   */\n  tag_19\n  jump\t// in\ntag_48:\n    /* \"#utility.yul\":1800:1853   */\n  tag_18\n  jump\t// in\ntag_47:\n    /* \"#utility.yul\":1787:1853   */\n  swap1\n  pop\n    /* \"#utility.yul\":1717:1859   */\n  swap2\n  swap1\n  pop\n  jump\t// out\n    /* \"#utility.yul\":1865:1940   */\ntag_21:\n    /* \"#utility.yul\":1908:1911   */\n  0x00\n    /* \"#utility.yul\":1929:1934   */\n  dup2\n    /* \"#utility.yul\":1922:1934   */\n  swap1\n  pop\n    /* \"#utility.yul\":1865:1940   */\n  swap2\n  swap1\n  pop\n  jump\t// out\n    /* \"#utility.yul\":1946:2215   */\ntag_22:\n    /* \"#utility.yul\":2056:2095   */\n  tag_52\n    /* \"#utility.yul\":2087:2094   */\n  dup4\n    /* \"#utility.yul\":2056:2095   */\n  tag_20\n  jump\t// in\ntag_52:\n    /* \"#utility.yul\":2117:2208   */\n  tag_53\n    /* \"#utility.yul\":2166:2207   */\n  tag_54\n    /* \"#utility.yul\":2190:2206   */\n  dup3\n    /* \"#utility.yul\":2166:2207   */\n  tag_21\n  jump\t// in\ntag_54:\n    /* \"#utility.yul\":2158:2164   */\n  dup5\n    /* \"#utility.yul\":2151:2155   */\n  dup5\n    /* \"#utility.yul\":2145:2156   */\n  sload\n    /* \"#utility.yul\":2117:2208   */\n  tag_17\n  jump\t// in\ntag_53:\n    /* \"#utility.yul\":2111:2115   */\n  dup3\n    /* \"#utility.yul\":2104:2209   */\n  sstore\n    /* \"#utility.yul\":2022:2215   */\n  pop\n    /* \"#utility.yul\":1946:2215   */\n  pop\n  pop\n  pop\n  jump\t// out\n    /* \"#utility.yul\":2221:2294   */\ntag_23:\n    /* \"#utility.yul\":2266:2269   */\n  0x00\n    /* \"#utility.yul\":2221:2294   */\n  swap1\n  jump\t// out\n    /* \"#utility.yul\":2300:2489   */\ntag_24:\n    /* \"#utility.yul\":2377:2409   */\n  tag_57\n  tag_23\n  jump\t// in\ntag_57:\n    /* \"#utility.yul\":2418:2483   */\n  tag_58\n    /* \"#utility.yul\":2476:2482   */\n  dup2\n    /* \"#utility.yul\":2468:2474   */\n  dup5\n    /* \"#utility.yul\":2462:2466   */\n  dup5\n    /* \"#utility.yul\":2418:2483   */\n  tag_22\n  jump\t// in\ntag_58:\n    /* \"#utility.yul\":2353:2489   */\n  pop\n    /* \"#utility.yul\":2300:2489   */\n  pop\n  pop\n  jump\t// out\n    /* \"#utility.yul\":2495:2681   */\ntag_25:\n    /* \"#utility.yul\":2555:2675   */\ntag_60:\n    /* \"#utility.yul\":2572:2575   */\n  dup2\n    /* \"#utility.yul\":2565:2570   */\n  dup2\n    /* \"#utility.yul\":2562:2576   */\n  lt\n    /* \"#utility.yul\":2555:2675   */\n  iszero\n  tag_62\n  jumpi\n    /* \"#utility.yul\":2626:2665   */\n  tag_63\n    /* \"#utility.yul\":2663:2664   */\n  0x00\n    /* \"#utility.yul\":2656:2661   */\n  dup3\n    /* \"#utility.yul\":2626:2665   */\n  tag_24\n  jump\t// in\ntag_63:\n    /* \"#utility.yul\":2599:2600   */\n  0x01\n    /* \"#utility.yul\":2592:2597   */\n  dup2\n    /* \"#utility.yul\":2588:2601   */\n  add\n    /* \"#utility.yul\":2579:2601   */\n  swap1\n  pop\n    /* \"#utility.yul\":2555:2675   */\n  jump(tag_60)\ntag_62:\n    /* \"#utility.yul\":2495:2681   */\n  pop\n  pop\n  jump\t// out\n    /* \"#utility.yul\":2687:3230   */\ntag_26:\n    /* \"#utility.yul\":2788:2790   */\n  0x1f\n    /* \"#utility.yul\":2783:2786   */\n  dup3\n    /* \"#utility.yul\":2780:2791   */\n  gt\n    /* \"#utility.yul\":2777:3223   */\n  iszero\n  tag_65\n  jumpi\n    /* \"#utility.yul\":2822:2860   */\n  tag_66\n    /* \"#utility.yul\":2854:2859   */\n  dup2\n    /* \"#utility.yul\":2822:2860   */\n  tag_14\n  jump\t// in\ntag_66:\n    /* \"#utility.yul\":2906:2935   */\n  tag_67\n    /* \"#utility.yul\":2924:2934   */\n  dup5\n    /* \"#utility.yul\":2906:2935   */\n  tag_15\n  jump\t// in\ntag_67:\n    /* \"#utility.yul\":2896:2904   */\n  dup2\n    /* \"#utility.yul\":2892:2936   */\n  add\n    /* \"#utility.yul\":3089:3091   */\n  0x20\n    /* \"#utility.yul\":3077:3087   */\n  dup6\n    /* \"#utility.yul\":3074:3092   */\n  lt\n    /* \"#utility.yul\":3071:3120   */\n  iszero\n  tag_68\n  jumpi\n    /* \"#utility.yul\":3110:3118   */\n  dup2\n    /* \"#utility.yul\":3095:3118   */\n  swap1\n  pop\n    /* \"#utility.yul\":3071:3120   */\ntag_68:\n    /* \"#utility.yul\":3133:3213   */\n  tag_69\n    /* \"#utility.yul\":3189:3211   */\n  tag_70\n    /* \"#utility.yul\":3207:3210   */\n  dup6\n    /* \"#utility.yul\":3189:3211   */\n  tag_15\n  jump\t// in\ntag_70:\n    /* \"#utility.yul\":3179:3187   */\n  dup4\n    /* \"#utility.yul\":3175:3212   */\n  add\n    /* \"#utility.yul\":3162:3173   */\n  dup3\n    /* \"#utility.yul\":3133:3213   */\n  tag_25\n  jump\t// in\ntag_69:\n    /* \"#utility.yul\":2792:3223   */\n  pop\n  pop\n    /* \"#utility.yul\":2777:3223   */\ntag_65:\n    /* \"#utility.yul\":2687:3230   */\n  pop\n  pop\n  pop\n  jump\t// out\n    /* \"#utility.yul\":3236:3353   */\ntag_27:\n    /* \"#utility.yul\":3290:3298   */\n  0x00\n    /* \"#utility.yul\":3340:3345   */\n  dup3\n    /* \"#utility.yul\":3334:3338   */\n  dup3\n    /* \"#utility.yul\":3330:3346   */\n  shr\n    /* \"#utility.yul\":3309:3346   */\n  swap1\n  pop\n    /* \"#utility.yul\":3236:3353   */\n  swap3\n  swap2\n  pop\n  pop\n  jump\t// out\n    /* \"#utility.yul\":3359:3528   */\ntag_28:\n    /* \"#utility.yul\":3403:3409   */\n  0x00\n    /* \"#utility.yul\":3436:3487   */\n  tag_73\n    /* \"#utility.yul\":3484:3485   */\n  0x00\n    /* \"#utility.yul\":3480:3486   */\n  not\n    /* \"#utility.yul\":3472:3477   */\n  dup5\n    /* \"#utility.yul\":3469:3470   */\n  0x08\n    /* \"#utility.yul\":3465:3478   */\n  mul\n    /* \"#utility.yul\":3436:3487   */\n  tag_27\n  jump\t// in\ntag_73:\n    /* \"#utility.yul\":3432:3488   */\n  not\n    /* \"#utility.yul\":3517:3521   */\n  dup1\n    /* \"#utility.yul\":3511:3515   */\n  dup4\n    /* \"#utility.yul\":3507:3522   */\n  and\n    /* \"#utility.yul\":3497:3522   */\n  swap2\n  pop\n    /* \"#utility.yul\":3410:3528   */\n  pop\n    /* \"#utility.yul\":3359:3528   */\n  swap3\n  swap2\n  pop\n  pop\n  jump\t// out\n    /* \"#utility.yul\":3533:3828   */\ntag_29:\n    /* \"#utility.yul\":3609:3613   */\n  0x00\n    /* \"#utility.yul\":3755:3784   */\n  tag_75\n    /* \"#utility.yul\":3780:3783   */\n  dup4\n    /* \"#utility.yul\":3774:3778   */\n  dup4\n    /* \"#utility.yul\":3755:3784   */\n  tag_28\n  jump\t// in\ntag_75:\n    /* \"#utility.yul\":3747:3784   */\n  swap2\n  pop\n    /* \"#utility.yul\":3817:3820   */\n  dup3\n    /* \"#utility.yul\":3814:3815   */\n  0x02\n    /* \"#utility.yul\":3810:3821   */\n  mul\n    /* \"#utility.yul\":3804:3808   */\n  dup3\n    /* \"#utility.yul\":3801:3822   */\n  or\n    /* \"#utility.yul\":3793:3822   */\n  swap1\n  pop\n    /* \"#utility.yul\":3533:3828   */\n  swap3\n  swap2\n  pop\n  pop\n  jump\t// out\n    /* \"#utility.yul\":3833:5228   */\ntag_6:\n    /* \"#utility.yul\":3950:3987   */\n  tag_77\n    /* \"#utility.yul\":3983:3986   */\n  dup3\n    /* \"#utility.yul\":3950:3987   */\n  tag_10\n  jump\t// in\ntag_77:\n    /* \"#utility.yul\":4052:4070   */\n  0xffffffffffffffff\n    /* \"#utility.yul\":4044:4050   */\n  dup2\n    /* \"#utility.yul\":4041:4071   */\n  gt\n    /* \"#utility.yul\":4038:4094   */\n  iszero\n  tag_78\n  jumpi\n    /* \"#utility.yul\":4074:4092   */\n  tag_79\n  tag_11\n  jump\t// in\ntag_79:\n    /* \"#utility.yul\":4038:4094   */\ntag_78:\n    /* \"#utility.yul\":4118:4156   */\n  tag_80\n    /* \"#utility.yul\":4150:4154   */\n  dup3\n    /* \"#utility.yul\":4144:4155   */\n  sload\n    /* \"#utility.yul\":4118:4156   */\n  tag_13\n  jump\t// in\ntag_80:\n    /* \"#utility.yul\":4203:4270   */\n  tag_81\n    /* \"#utility.yul\":4263:4269   */\n  dup3\n    /* \"#utility.yul\":4255:4261   */\n  dup3\n    /* \"#utility.yul\":4249:4253   */\n  dup6\n    /* \"#utility.yul\":4203:4270   */\n  tag_26\n  jump\t// in\ntag_81:\n    /* \"#utility.yul\":4297:4298   */\n  0x00\n    /* \"#utility.yul\":4321:4325   */\n  0x20\n    /* \"#utility.yul\":4308:4325   */\n  swap1\n  pop\n    /* \"#utility.yul\":4353:4355   */\n  0x1f\n    /* \"#utility.yul\":4345:4351   */\n  dup4\n    /* \"#utility.yul\":4342:4356   */\n  gt\n    /* \"#utility.yul\":4370:4371   */\n  0x01\n    /* \"#utility.yul\":4365:4983   */\n  dup2\n  eq\n  tag_83\n  jumpi\n    /* \"#utility.yul\":5027:5028   */\n  0x00\n    /* \"#utility.yul\":5044:5050   */\n  dup5\n    /* \"#utility.yul\":5041:5118   */\n  iszero\n  tag_84\n  jumpi\n    /* \"#utility.yul\":5093:5102   */\n  dup3\n    /* \"#utility.yul\":5088:5091   */\n  dup8\n    /* \"#utility.yul\":5084:5103   */\n  add\n    /* \"#utility.yul\":5078:5104   */\n  mload\n    /* \"#utility.yul\":5069:5104   */\n  swap1\n  pop\n    /* \"#utility.yul\":5041:5118   */\ntag_84:\n    /* \"#utility.yul\":5144:5211   */\n  tag_85\n    /* \"#utility.yul\":5204:5210   */\n  dup6\n    /* \"#utility.yul\":5197:5202   */\n  dup3\n    /* \"#utility.yul\":5144:5211   */\n  tag_29\n  jump\t// in\ntag_85:\n    /* \"#utility.yul\":5138:5142   */\n  dup7\n    /* \"#utility.yul\":5131:5212   */\n  sstore\n    /* \"#utility.yul\":5000:5222   */\n  pop\n    /* \"#utility.yul\":4335:5222   */\n  jump(tag_82)\n    /* \"#utility.yul\":4365:4983   */\ntag_83:\n    /* \"#utility.yul\":4417:4421   */\n  0x1f\n    /* \"#utility.yul\":4413:4422   */\n  not\n    /* \"#utility.yul\":4405:4411   */\n  dup5\n    /* \"#utility.yul\":4401:4423   */\n  and\n    /* \"#utility.yul\":4451:4488   */\n  tag_86\n    /* \"#utility.yul\":4483:4487   */\n  dup7\n    /* \"#utility.yul\":4451:4488   */\n  tag_14\n  jump\t// in\ntag_86:\n    /* \"#utility.yul\":4510:4511   */\n  0x00\n    /* \"#utility.yul\":4524:4732   */\ntag_87:\n    /* \"#utility.yul\":4538:4545   */\n  dup3\n    /* \"#utility.yul\":4535:4536   */\n  dup2\n    /* \"#utility.yul\":4532:4546   */\n  lt\n    /* \"#utility.yul\":4524:4732   */\n  iszero\n  tag_89\n  jumpi\n    /* \"#utility.yul\":4617:4626   */\n  dup5\n    /* \"#utility.yul\":4612:4615   */\n  dup10\n    /* \"#utility.yul\":4608:4627   */\n  add\n    /* \"#utility.yul\":4602:4628   */\n  mload\n    /* \"#utility.yul\":4594:4600   */\n  dup3\n    /* \"#utility.yul\":4587:4629   */\n  sstore\n    /* \"#utility.yul\":4668:4669   */\n  0x01\n    /* \"#utility.yul\":4660:4666   */\n  dup3\n    /* \"#utility.yul\":4656:4670   */\n  add\n    /* \"#utility.yul\":4646:4670   */\n  swap2\n  pop\n    /* \"#utility.yul\":4715:4717   */\n  0x20\n    /* \"#utility.yul\":4704:4713   */\n  dup6\n    /* \"#utility.yul\":4700:4718   */\n  add\n    /* \"#utility.yul\":4687:4718   */\n  swap5\n  pop\n    /* \"#utility.yul\":4561:4565   */\n  0x20\n    /* \"#utility.yul\":4558:4559   */\n  dup2\n    /* \"#utility.yul\":4554:4566   */\n  add\n    /* \"#utility.yul\":4549:4566   */\n  swap1\n  pop\n    /* \"#utility.yul\":4524:4732   */\n  jump(tag_87)\ntag_89:\n    /* \"#utility.yul\":4760:4766   */\n  dup7\n    /* \"#utility.yul\":4751:4758   */\n  dup4\n    /* \"#utility.yul\":4748:4767   */\n  lt\n    /* \"#utility.yul\":4745:4924   */\n  iszero\n  tag_90\n  jumpi\n    /* \"#utility.yul\":4818:4827   */\n  dup5\n    /* \"#utility.yul\":4813:4816   */\n  dup10\n    /* \"#utility.yul\":4809:4828   */\n  add\n    /* \"#utility.yul\":4803:4829   */\n  mload\n    /* \"#utility.yul\":4861:4909   */\n  tag_91\n    /* \"#utility.yul\":4903:4907   */\n  0x1f\n    /* \"#utility.yul\":4895:4901   */\n  dup10\n    /* \"#utility.yul\":4891:4908   */\n  and\n    /* \"#utility.yul\":4880:4889   */\n  dup3\n    /* \"#utility.yul\":4861:4909   */\n  tag_28\n  jump\t// in\ntag_91:\n    /* \"#utility.yul\":4853:4859   */\n  dup4\n    /* \"#utility.yul\":4846:4910   */\n  sstore\n    /* \"#utility.yul\":4768:4924   */\n  pop\n    /* \"#utility.yul\":4745:4924   */\ntag_90:\n    /* \"#utility.yul\":4970:4971   */\n  0x01\n    /* \"#utility.yul\":4966:4967   */\n  0x02\n    /* \"#utility.yul\":4958:4964   */\n  dup9\n    /* \"#utility.yul\":4954:4968   */\n  mul\n    /* \"#utility.yul\":4950:4972   */\n  add\n    /* \"#utility.yul\":4944:4948   */\n  dup9\n    /* \"#utility.yul\":4937:4973   */\n  sstore\n    /* \"#utility.yul\":4372:4983   */\n  pop\n  pop\n  pop\n    /* \"#utility.yul\":4335:5222   */\ntag_82:\n  pop\n    /* \"#utility.yul\":3925:5228   */\n  pop\n  pop\n  pop\n    /* \"#utility.yul\":3833:5228   */\n  pop\n  pop\n  jump\t// out\n    /* \"cas/NFT.sol\":294:1696  contract OnChainNFT is ERC721URIStorage {... */\ntag_9:\n  dataSize(sub_0)\n  dup1\n  dataOffset(sub_0)\n  0x00\n  codecopy\n  0x00\n  return\nstop\n\nsub_0: assembly {\n        /* \"cas/NFT.sol\":294:1696  contract OnChainNFT is ERC721URIStorage {... */\n      mstore(0x40, 0x80)\n      callvalue\n      dup1\n      iszero\n      tag_1\n      jumpi\n      0x00\n      dup1\n      revert\n    tag_1:\n      pop\n      jumpi(tag_2, lt(calldatasize, 0x04))\n      shr(0xe0, calldataload(0x00))\n      dup1\n      0x70a08231\n      gt\n      tag_19\n      jumpi\n      dup1\n      0xc6a4342f\n      gt\n      tag_20\n      jumpi\n      dup1\n      0xc6a4342f\n      eq\n      tag_15\n      jumpi\n      dup1\n      0xc87b56dd\n      eq\n      tag_16\n      jumpi\n      dup1\n      0xd85d3d27\n      eq\n      tag_17\n      jumpi\n      dup1\n      0xe985e9c5\n      eq\n      tag_18\n      jumpi\n      jump(tag_2)\n    tag_20:\n      dup1\n      0x70a08231\n      eq\n      tag_11\n      jumpi\n      dup1\n      0x95d89b41\n      eq\n      tag_12\n      jumpi\n      dup1\n      0xa22cb465\n      eq\n      tag_13\n      jumpi\n      dup1\n      0xb88d4fde\n      eq\n      tag_14\n      jumpi\n      jump(tag_2)\n    tag_19:\n      dup1\n      0x1381b59d\n      gt\n      tag_21\n      jumpi\n      dup1\n      0x1381b59d\n      eq\n      tag_7\n      jumpi\n      dup1\n      0x23b872dd\n      eq\n      tag_8\n      jumpi\n      dup1\n      0x42842e0e\n      eq\n      tag_9\n      jumpi\n      dup1\n      0x6352211e\n      eq\n      tag_10\n      jumpi\n      jump(tag_2)\n    tag_21:\n      dup1\n      0x01ffc9a7\n      eq\n      tag_3\n      jumpi\n      dup1\n      0x06fdde03\n      eq\n      tag_4\n      jumpi\n      dup1\n      0x081812fc\n      eq\n      tag_5\n      jumpi\n      dup1\n      0x095ea7b3\n      eq\n      tag_6\n      jumpi\n    tag_2:\n      0x00\n      dup1\n      revert\n        /* \"@openzeppelin/contracts/token/ERC721/extensions/ERC721URIStorage.sol\":937:1144  function supportsInterface(bytes4 interfaceId) public view virtual override(ERC721, IERC165) returns (bool) {... */\n    tag_3:\n      tag_22\n      0x04\n      dup1\n      calldatasize\n      sub\n      dup2\n      add\n      swap1\n      tag_23\n      swap2\n      swap1\n      tag_24\n      jump\t// in\n    tag_23:\n      tag_25\n      jump\t// in\n    tag_22:\n      mload(0x40)\n      tag_26\n      swap2\n      swap1\n      tag_27\n      jump\t// in\n    tag_26:\n      mload(0x40)\n      dup1\n      swap2\n      sub\n      swap1\n      return\n        /* \"@openzeppelin/contracts/token/ERC721/ERC721.sol\":2365:2454  function name() public view virtual returns (string memory) {... */\n    tag_4:\n      tag_28\n      tag_29\n      jump\t// in\n    tag_28:\n      mload(0x40)\n      tag_30\n      swap2\n      swap1\n      tag_31\n      jump\t// in\n    tag_30:\n      mload(0x40)\n      dup1\n      swap2\n      sub\n      swap1\n      return\n        /* \"@openzeppelin/contracts/token/ERC721/ERC721.sol\":3497:3651  function getApproved(uint256 tokenId) public view virtual returns (address) {... */\n    tag_5:\n      tag_32\n      0x04\n      dup1\n      calldatasize\n      sub\n      dup2\n      add\n      swap1\n      tag_33\n      swap2\n      swap1\n      tag_34\n      jump\t// in\n    tag_33:\n      tag_35\n      jump\t// in\n    tag_32:\n      mload(0x40)\n      tag_36\n      swap2\n      swap1\n      tag_37\n      jump\t// in\n    tag_36:\n      mload(0x40)\n      dup1\n      swap2\n      sub\n      swap1\n      return\n        /* \"@openzeppelin/contracts/token/ERC721/ERC721.sol\":3323:3436  function approve(address to, uint256 tokenId) public virtual {... */\n    tag_6:\n      tag_38\n      0x04\n      dup1\n      calldatasize\n      sub\n      dup2\n      add\n      swap1\n      tag_39\n      swap2\n      swap1\n      tag_40\n      jump\t// in\n    tag_39:\n      tag_41\n      jump\t// in\n    tag_38:\n      stop\n        /* \"cas/NFT.sol\":560:1138  function simplifiedFormatTokenURI(string memory imageURI)... */\n    tag_7:\n      tag_42\n      0x04\n      dup1\n      calldatasize\n      sub\n      dup2\n      add\n      swap1\n      tag_43\n      swap2\n      swap1\n      tag_44\n      jump\t// in\n    tag_43:\n      tag_45\n      jump\t// in\n    tag_42:\n      mload(0x40)\n      tag_46\n      swap2\n      swap1\n      tag_31\n      jump\t// in\n    tag_46:\n      mload(0x40)\n      dup1\n      swap2\n      sub\n      swap1\n      return\n        /* \"@openzeppelin/contracts/token/ERC721/ERC721.sol\":4143:4721  function transferFrom(address from, address to, uint256 tokenId) public virtual {... */\n    tag_8:\n      tag_47\n      0x04\n      dup1\n      calldatasize\n      sub\n      dup2\n      add\n      swap1\n      tag_48\n      swap2\n      swap1\n      tag_49\n      jump\t// in\n    tag_48:\n      tag_50\n      jump\t// in\n    tag_47:\n      stop\n        /* \"@openzeppelin/contracts/token/ERC721/ERC721.sol\":4787:4919  function safeTransferFrom(address from, address to, uint256 tokenId) public {... */\n    tag_9:\n      tag_51\n      0x04\n      dup1\n      calldatasize\n      sub\n      dup2\n      add\n      swap1\n      tag_52\n      swap2\n      swap1\n      tag_49\n      jump\t// in\n    tag_52:\n      tag_53\n      jump\t// in\n    tag_51:\n      stop\n        /* \"@openzeppelin/contracts/token/ERC721/ERC721.sol\":2185:2303  function ownerOf(uint256 tokenId) public view virtual returns (address) {... */\n    tag_10:\n      tag_54\n      0x04\n      dup1\n      calldatasize\n      sub\n      dup2\n      add\n      swap1\n      tag_55\n      swap2\n      swap1\n      tag_34\n      jump\t// in\n    tag_55:\n      tag_56\n      jump\t// in\n    tag_54:\n      mload(0x40)\n      tag_57\n      swap2\n      swap1\n      tag_37\n      jump\t// in\n    tag_57:\n      mload(0x40)\n      dup1\n      swap2\n      sub\n      swap1\n      return\n        /* \"@openzeppelin/contracts/token/ERC721/ERC721.sol\":1920:2128  function balanceOf(address owner) public view virtual returns (uint256) {... */\n    tag_11:\n      tag_58\n      0x04\n      dup1\n      calldatasize\n      sub\n      dup2\n      add\n      swap1\n      tag_59\n      swap2\n      swap1\n      tag_60\n      jump\t// in\n    tag_59:\n      tag_61\n      jump\t// in\n    tag_58:\n      mload(0x40)\n      tag_62\n      swap2\n      swap1\n      tag_63\n      jump\t// in\n    tag_62:\n      mload(0x40)\n      dup1\n      swap2\n      sub\n      swap1\n      return\n        /* \"@openzeppelin/contracts/token/ERC721/ERC721.sol\":2518:2611  function symbol() public view virtual returns (string memory) {... */\n    tag_12:\n      tag_64\n      tag_65\n      jump\t// in\n    tag_64:\n      mload(0x40)\n      tag_66\n      swap2\n      swap1\n      tag_31\n      jump\t// in\n    tag_66:\n      mload(0x40)\n      dup1\n      swap2\n      sub\n      swap1\n      return\n        /* \"@openzeppelin/contracts/token/ERC721/ERC721.sol\":3718:3862  function setApprovalForAll(address operator, bool approved) public virtual {... */\n    tag_13:\n      tag_67\n      0x04\n      dup1\n      calldatasize\n      sub\n      dup2\n      add\n      swap1\n      tag_68\n      swap2\n      swap1\n      tag_69\n      jump\t// in\n    tag_68:\n      tag_70\n      jump\t// in\n    tag_67:\n      stop\n        /* \"@openzeppelin/contracts/token/ERC721/ERC721.sol\":4985:5193  function safeTransferFrom(address from, address to, uint256 tokenId, bytes memory data) public virtual {... */\n    tag_14:\n      tag_71\n      0x04\n      dup1\n      calldatasize\n      sub\n      dup2\n      add\n      swap1\n      tag_72\n      swap2\n      swap1\n      tag_73\n      jump\t// in\n    tag_72:\n      tag_74\n      jump\t// in\n    tag_71:\n      stop\n        /* \"cas/NFT.sol\":453:503  mapping(uint256 => uint256) public tokenIdToLevels */\n    tag_15:\n      tag_75\n      0x04\n      dup1\n      calldatasize\n      sub\n      dup2\n      add\n      swap1\n      tag_76\n      swap2\n      swap1\n      tag_34\n      jump\t// in\n    tag_76:\n      tag_77\n      jump\t// in\n    tag_75:\n      mload(0x40)\n      tag_78\n      swap2\n      swap1\n      tag_63\n      jump\t// in\n    tag_78:\n      mload(0x40)\n      dup1\n      swap2\n      sub\n      swap1\n      return\n        /* \"@openzeppelin/contracts/token/ERC721/extensions/ERC721URIStorage.sol\":1210:1803  function tokenURI(uint256 tokenId) public view virtual override returns (string memory) {... */\n    tag_16:\n      tag_79\n      0x04\n      dup1\n      calldatasize\n      sub\n      dup2\n      add\n      swap1\n      tag_80\n      swap2\n      swap1\n      tag_34\n      jump\t// in\n    tag_80:\n      tag_81\n      jump\t// in\n    tag_79:\n      mload(0x40)\n      tag_82\n      swap2\n      swap1\n      tag_31\n      jump\t// in\n    tag_82:\n      mload(0x40)\n      dup1\n      swap2\n      sub\n      swap1\n      return\n        /* \"cas/NFT.sol\":1144:1694  function mint(string memory imageURI) public {... */\n    tag_17:\n      tag_83\n      0x04\n      dup1\n      calldatasize\n      sub\n      dup2\n      add\n      swap1\n      tag_84\n      swap2\n      swap1\n      tag_44\n      jump\t// in\n    tag_84:\n      tag_85\n      jump\t// in\n    tag_83:\n      stop\n        /* \"@openzeppelin/contracts/token/ERC721/ERC721.sol\":3928:4081  function isApprovedForAll(address owner, address operator) public view virtual returns (bool) {... */\n    tag_18:\n      tag_86\n      0x04\n      dup1\n      calldatasize\n      sub\n      dup2\n      add\n      swap1\n      tag_87\n      swap2\n      swap1\n      tag_88\n      jump\t// in\n    tag_87:\n      tag_89\n      jump\t// in\n    tag_86:\n      mload(0x40)\n      tag_90\n      swap2\n      swap1\n      tag_27\n      jump\t// in\n    tag_90:\n      mload(0x40)\n      dup1\n      swap2\n      sub\n      swap1\n      return\n        /* \"@openzeppelin/contracts/token/ERC721/extensions/ERC721URIStorage.sol\":937:1144  function supportsInterface(bytes4 interfaceId) public view virtual override(ERC721, IERC165) returns (bool) {... */\n    tag_25:\n        /* \"@openzeppelin/contracts/token/ERC721/extensions/ERC721URIStorage.sol\":1039:1043  bool */\n      0x00\n        /* \"@openzeppelin/contracts/token/ERC721/extensions/ERC721URIStorage.sol\":760:770  0x49064906 */\n      0x49064906\n        /* \"@openzeppelin/contracts/token/ERC721/extensions/ERC721URIStorage.sol\":753:771  bytes4(0x49064906) */\n      0xe0\n      shl\n        /* \"@openzeppelin/contracts/token/ERC721/extensions/ERC721URIStorage.sol\":1062:1097  interfaceId == ERC4906_INTERFACE_ID */\n      not(0xffffffffffffffffffffffffffffffffffffffffffffffffffffffff)\n      and\n        /* \"@openzeppelin/contracts/token/ERC721/extensions/ERC721URIStorage.sol\":1062:1073  interfaceId */\n      dup3\n        /* \"@openzeppelin/contracts/token/ERC721/extensions/ERC721URIStorage.sol\":1062:1097  interfaceId == ERC4906_INTERFACE_ID */\n      not(0xffffffffffffffffffffffffffffffffffffffffffffffffffffffff)\n      and\n      eq\n        /* \"@openzeppelin/contracts/token/ERC721/extensions/ERC721URIStorage.sol\":1062:1137  interfaceId == ERC4906_INTERFACE_ID || super.supportsInterface(interfaceId) */\n      dup1\n      tag_92\n      jumpi\n      pop\n        /* \"@openzeppelin/contracts/token/ERC721/extensions/ERC721URIStorage.sol\":1101:1137  super.supportsInterface(interfaceId) */\n      tag_93\n        /* \"@openzeppelin/contracts/token/ERC721/extensions/ERC721URIStorage.sol\":1125:1136  interfaceId */\n      dup3\n        /* \"@openzeppelin/contracts/token/ERC721/extensions/ERC721URIStorage.sol\":1101:1124  super.supportsInterface */\n      tag_94\n        /* \"@openzeppelin/contracts/token/ERC721/extensions/ERC721URIStorage.sol\":1101:1137  super.supportsInterface(interfaceId) */\n      jump\t// in\n    tag_93:\n        /* \"@openzeppelin/contracts/token/ERC721/extensions/ERC721URIStorage.sol\":1062:1137  interfaceId == ERC4906_INTERFACE_ID || super.supportsInterface(interfaceId) */\n    tag_92:\n        /* \"@openzeppelin/contracts/token/ERC721/extensions/ERC721URIStorage.sol\":1055:1137  return interfaceId == ERC4906_INTERFACE_ID || super.supportsInterface(interfaceId) */\n      swap1\n      pop\n        /* \"@openzeppelin/contracts/token/ERC721/extensions/ERC721URIStorage.sol\":937:1144  function supportsInterface(bytes4 interfaceId) public view virtual override(ERC721, IERC165) returns (bool) {... */\n      swap2\n      swap1\n      pop\n      jump\t// out\n        /* \"@openzeppelin/contracts/token/ERC721/ERC721.sol\":2365:2454  function name() public view virtual returns (string memory) {... */\n    tag_29:\n        /* \"@openzeppelin/contracts/token/ERC721/ERC721.sol\":2410:2423  string memory */\n      0x60\n        /* \"@openzeppelin/contracts/token/ERC721/ERC721.sol\":2442:2447  _name */\n      0x00\n        /* \"@openzeppelin/contracts/token/ERC721/ERC721.sol\":2435:2447  return _name */\n      dup1\n      sload\n      tag_96\n      swap1\n      tag_97\n      jump\t// in\n    tag_96:\n      dup1\n      0x1f\n      add\n      0x20\n      dup1\n      swap2\n      div\n      mul\n      0x20\n      add\n      mload(0x40)\n      swap1\n      dup2\n      add\n      0x40\n      mstore\n      dup1\n      swap3\n      swap2\n      swap1\n      dup2\n      dup2\n      mstore\n      0x20\n      add\n      dup3\n      dup1\n      sload\n      tag_98\n      swap1\n      tag_97\n      jump\t// in\n    tag_98:\n      dup1\n      iszero\n      tag_99\n      jumpi\n      dup1\n      0x1f\n      lt\n      tag_100\n      jumpi\n      0x0100\n      dup1\n      dup4\n      sload\n      div\n      mul\n      dup4\n      mstore\n      swap2\n      0x20\n      add\n      swap2\n      jump(tag_99)\n    tag_100:\n      dup3\n      add\n      swap2\n      swap1\n      0x00\n      mstore\n      keccak256(0x00, 0x20)\n      swap1\n    tag_101:\n      dup2\n      sload\n      dup2\n      mstore\n      swap1\n      0x01\n      add\n      swap1\n      0x20\n      add\n      dup1\n      dup4\n      gt\n      tag_101\n      jumpi\n      dup3\n      swap1\n      sub\n      0x1f\n      and\n      dup3\n      add\n      swap2\n    tag_99:\n      pop\n      pop\n      pop\n      pop\n      pop\n      swap1\n      pop\n        /* \"@openzeppelin/contracts/token/ERC721/ERC721.sol\":2365:2454  function name() public view virtual returns (string memory) {... */\n      swap1\n      jump\t// out\n        /* \"@openzeppelin/contracts/token/ERC721/ERC721.sol\":3497:3651  function getApproved(uint256 tokenId) public view virtual returns (address) {... */\n    tag_35:\n        /* \"@openzeppelin/contracts/token/ERC721/ERC721.sol\":3564:3571  address */\n      0x00\n        /* \"@openzeppelin/contracts/token/ERC721/ERC721.sol\":3583:3605  _requireOwned(tokenId) */\n      tag_103\n        /* \"@openzeppelin/contracts/token/ERC721/ERC721.sol\":3597:3604  tokenId */\n      dup3\n        /* \"@openzeppelin/contracts/token/ERC721/ERC721.sol\":3583:3596  _requireOwned */\n      tag_104\n        /* \"@openzeppelin/contracts/token/ERC721/ERC721.sol\":3583:3605  _requireOwned(tokenId) */\n      jump\t// in\n    tag_103:\n      pop\n        /* \"@openzeppelin/contracts/token/ERC721/ERC721.sol\":3623:3644  _getApproved(tokenId) */\n      tag_105\n        /* \"@openzeppelin/contracts/token/ERC721/ERC721.sol\":3636:3643  tokenId */\n      dup3\n        /* \"@openzeppelin/contracts/token/ERC721/ERC721.sol\":3623:3635  _getApproved */\n      tag_106\n        /* \"@openzeppelin/contracts/token/ERC721/ERC721.sol\":3623:3644  _getApproved(tokenId) */\n      jump\t// in\n    tag_105:\n        /* \"@openzeppelin/contracts/token/ERC721/ERC721.sol\":3616:3644  return _getApproved(tokenId) */\n      swap1\n      pop\n        /* \"@openzeppelin/contracts/token/ERC721/ERC721.sol\":3497:3651  function getApproved(uint256 tokenId) public view virtual returns (address) {... */\n      swap2\n      swap1\n      pop\n      jump\t// out\n        /* \"@openzeppelin/contracts/token/ERC721/ERC721.sol\":3323:3436  function approve(address to, uint256 tokenId) public virtual {... */\n    tag_41:\n        /* \"@openzeppelin/contracts/token/ERC721/ERC721.sol\":3394:3429  _approve(to, tokenId, _msgSender()) */\n      tag_108\n        /* \"@openzeppelin/contracts/token/ERC721/ERC721.sol\":3403:3405  to */\n      dup3\n        /* \"@openzeppelin/contracts/token/ERC721/ERC721.sol\":3407:3414  tokenId */\n      dup3\n        /* \"@openzeppelin/contracts/token/ERC721/ERC721.sol\":3416:3428  _msgSender() */\n      tag_109\n        /* \"@openzeppelin/contracts/token/ERC721/ERC721.sol\":3416:3426  _msgSender */\n      tag_110\n        /* \"@openzeppelin/contracts/token/ERC721/ERC721.sol\":3416:3428  _msgSender() */\n      jump\t// in\n    tag_109:\n        /* \"@openzeppelin/contracts/token/ERC721/ERC721.sol\":3394:3402  _approve */\n      tag_111\n        /* \"@openzeppelin/contracts/token/ERC721/ERC721.sol\":3394:3429  _approve(to, tokenId, _msgSender()) */\n      jump\t// in\n    tag_108:\n        /* \"@openzeppelin/contracts/token/ERC721/ERC721.sol\":3323:3436  function approve(address to, uint256 tokenId) public virtual {... */\n      pop\n      pop\n      jump\t// out\n        /* \"cas/NFT.sol\":560:1138  function simplifiedFormatTokenURI(string memory imageURI)... */\n    tag_45:\n        /* \"cas/NFT.sol\":663:676  string memory */\n      0x60\n        /* \"cas/NFT.sol\":692:713  string memory baseURL */\n      0x00\n        /* \"cas/NFT.sol\":692:747  string memory baseURL = \"data:application/json;base64,\" */\n      mload(0x40)\n      dup1\n      0x40\n      add\n      0x40\n      mstore\n      dup1\n      0x1d\n      dup2\n      mstore\n      0x20\n      add\n      0x646174613a6170706c69636174696f6e2f6a736f6e3b6261736536342c000000\n      dup2\n      mstore\n      pop\n      swap1\n      pop\n        /* \"cas/NFT.sol\":757:775  string memory json */\n      0x00\n        /* \"cas/NFT.sol\":938:946  imageURI */\n      dup4\n        /* \"cas/NFT.sol\":798:982  abi.encodePacked(... */\n      add(0x20, mload(0x40))\n      tag_113\n      swap2\n      swap1\n      tag_114\n      jump\t// in\n    tag_113:\n      mload(0x40)\n      0x20\n      dup2\n      dup4\n      sub\n      sub\n      dup2\n      mstore\n      swap1\n      0x40\n      mstore\n        /* \"cas/NFT.sol\":757:992  string memory json = string(... */\n      swap1\n      pop\n        /* \"cas/NFT.sol\":1002:1033  string memory jsonBase64Encoded */\n      0x00\n        /* \"cas/NFT.sol\":1036:1062  Base64.encode(bytes(json)) */\n      tag_115\n        /* \"cas/NFT.sol\":1056:1060  json */\n      dup3\n        /* \"cas/NFT.sol\":1036:1049  Base64.encode */\n      tag_116\n        /* \"cas/NFT.sol\":1036:1062  Base64.encode(bytes(json)) */\n      jump\t// in\n    tag_115:\n        /* \"cas/NFT.sol\":1002:1062  string memory jsonBase64Encoded = Base64.encode(bytes(json)) */\n      swap1\n      pop\n        /* \"cas/NFT.sol\":1103:1110  baseURL */\n      dup3\n        /* \"cas/NFT.sol\":1112:1129  jsonBase64Encoded */\n      dup2\n        /* \"cas/NFT.sol\":1086:1130  abi.encodePacked(baseURL, jsonBase64Encoded) */\n      add(0x20, mload(0x40))\n      tag_117\n      swap3\n      swap2\n      swap1\n      tag_118\n      jump\t// in\n    tag_117:\n      mload(0x40)\n      0x20\n      dup2\n      dup4\n      sub\n      sub\n      dup2\n      mstore\n      swap1\n      0x40\n      mstore\n        /* \"cas/NFT.sol\":1072:1131  return string(abi.encodePacked(baseURL, jsonBase64Encoded)) */\n      swap4\n      pop\n      pop\n      pop\n      pop\n        /* \"cas/NFT.sol\":560:1138  function simplifiedFormatTokenURI(string memory imageURI)... */\n      swap2\n      swap1\n      pop\n      jump\t// out\n        /* \"@openzeppelin/contracts/token/ERC721/ERC721.sol\":4143:4721  function transferFrom(address from, address to, uint256 tokenId) public virtual {... */\n    tag_50:\n        /* \"@openzeppelin/contracts/token/ERC721/ERC721.sol\":4251:4252  0 */\n      0x00\n        /* \"@openzeppelin/contracts/token/ERC721/ERC721.sol\":4237:4253  to == address(0) */\n      0xffffffffffffffffffffffffffffffffffffffff\n      and\n        /* \"@openzeppelin/contracts/token/ERC721/ERC721.sol\":4237:4239  to */\n      dup3\n        /* \"@openzeppelin/contracts/token/ERC721/ERC721.sol\":4237:4253  to == address(0) */\n      0xffffffffffffffffffffffffffffffffffffffff\n      and\n      sub\n        /* \"@openzeppelin/contracts/token/ERC721/ERC721.sol\":4233:4320  if (to == address(0)) {... */\n      tag_120\n      jumpi\n        /* \"@openzeppelin/contracts/token/ERC721/ERC721.sol\":4306:4307  0 */\n      0x00\n        /* \"@openzeppelin/contracts/token/ERC721/ERC721.sol\":4276:4309  ERC721InvalidReceiver(address(0)) */\n      mload(0x40)\n      0x64a0ae9200000000000000000000000000000000000000000000000000000000\n      dup2\n      mstore\n      0x04\n      add\n      tag_121\n      swap2\n      swap1\n      tag_37\n      jump\t// in\n    tag_121:\n      mload(0x40)\n      dup1\n      swap2\n      sub\n      swap1\n      revert\n        /* \"@openzeppelin/contracts/token/ERC721/ERC721.sol\":4233:4320  if (to == address(0)) {... */\n    tag_120:\n        /* \"@openzeppelin/contracts/token/ERC721/ERC721.sol\":4538:4559  address previousOwner */\n      0x00\n        /* \"@openzeppelin/contracts/token/ERC721/ERC721.sol\":4562:4596  _update(to, tokenId, _msgSender()) */\n      tag_122\n        /* \"@openzeppelin/contracts/token/ERC721/ERC721.sol\":4570:4572  to */\n      dup4\n        /* \"@openzeppelin/contracts/token/ERC721/ERC721.sol\":4574:4581  tokenId */\n      dup4\n        /* \"@openzeppelin/contracts/token/ERC721/ERC721.sol\":4583:4595  _msgSender() */\n      tag_123\n        /* \"@openzeppelin/contracts/token/ERC721/ERC721.sol\":4583:4593  _msgSender */\n      tag_110\n        /* \"@openzeppelin/contracts/token/ERC721/ERC721.sol\":4583:4595  _msgSender() */\n      jump\t// in\n    tag_123:\n        /* \"@openzeppelin/contracts/token/ERC721/ERC721.sol\":4562:4569  _update */\n      tag_124\n        /* \"@openzeppelin/contracts/token/ERC721/ERC721.sol\":4562:4596  _update(to, tokenId, _msgSender()) */\n      jump\t// in\n    tag_122:\n        /* \"@openzeppelin/contracts/token/ERC721/ERC721.sol\":4538:4596  address previousOwner = _update(to, tokenId, _msgSender()) */\n      swap1\n      pop\n        /* \"@openzeppelin/contracts/token/ERC721/ERC721.sol\":4627:4631  from */\n      dup4\n        /* \"@openzeppelin/contracts/token/ERC721/ERC721.sol\":4610:4631  previousOwner != from */\n      0xffffffffffffffffffffffffffffffffffffffff\n      and\n        /* \"@openzeppelin/contracts/token/ERC721/ERC721.sol\":4610:4623  previousOwner */\n      dup2\n        /* \"@openzeppelin/contracts/token/ERC721/ERC721.sol\":4610:4631  previousOwner != from */\n      0xffffffffffffffffffffffffffffffffffffffff\n      and\n      eq\n        /* \"@openzeppelin/contracts/token/ERC721/ERC721.sol\":4606:4715  if (previousOwner != from) {... */\n      tag_125\n      jumpi\n        /* \"@openzeppelin/contracts/token/ERC721/ERC721.sol\":4675:4679  from */\n      dup4\n        /* \"@openzeppelin/contracts/token/ERC721/ERC721.sol\":4681:4688  tokenId */\n      dup3\n        /* \"@openzeppelin/contracts/token/ERC721/ERC721.sol\":4690:4703  previousOwner */\n      dup3\n        /* \"@openzeppelin/contracts/token/ERC721/ERC721.sol\":4654:4704  ERC721IncorrectOwner(from, tokenId, previousOwner) */\n      mload(0x40)\n      0x64283d7b00000000000000000000000000000000000000000000000000000000\n      dup2\n      mstore\n      0x04\n      add\n      tag_126\n      swap4\n      swap3\n      swap2\n      swap1\n      tag_127\n      jump\t// in\n    tag_126:\n      mload(0x40)\n      dup1\n      swap2\n      sub\n      swap1\n      revert\n        /* \"@openzeppelin/contracts/token/ERC721/ERC721.sol\":4606:4715  if (previousOwner != from) {... */\n    tag_125:\n        /* \"@openzeppelin/contracts/token/ERC721/ERC721.sol\":4223:4721  {... */\n      pop\n        /* \"@openzeppelin/contracts/token/ERC721/ERC721.sol\":4143:4721  function transferFrom(address from, address to, uint256 tokenId) public virtual {... */\n      pop\n      pop\n      pop\n      jump\t// out\n        /* \"@openzeppelin/contracts/token/ERC721/ERC721.sol\":4787:4919  function safeTransferFrom(address from, address to, uint256 tokenId) public {... */\n    tag_53:\n        /* \"@openzeppelin/contracts/token/ERC721/ERC721.sol\":4873:4912  safeTransferFrom(from, to, tokenId, \"\") */\n      tag_129\n        /* \"@openzeppelin/contracts/token/ERC721/ERC721.sol\":4890:4894  from */\n      dup4\n        /* \"@openzeppelin/contracts/token/ERC721/ERC721.sol\":4896:4898  to */\n      dup4\n        /* \"@openzeppelin/contracts/token/ERC721/ERC721.sol\":4900:4907  tokenId */\n      dup4\n        /* \"@openzeppelin/contracts/token/ERC721/ERC721.sol\":4873:4912  safeTransferFrom(from, to, tokenId, \"\") */\n      mload(0x40)\n      dup1\n      0x20\n      add\n      0x40\n      mstore\n      dup1\n      0x00\n      dup2\n      mstore\n      pop\n        /* \"@openzeppelin/contracts/token/ERC721/ERC721.sol\":4873:4889  safeTransferFrom */\n      tag_74\n        /* \"@openzeppelin/contracts/token/ERC721/ERC721.sol\":4873:4912  safeTransferFrom(from, to, tokenId, \"\") */\n      jump\t// in\n    tag_129:\n        /* \"@openzeppelin/contracts/token/ERC721/ERC721.sol\":4787:4919  function safeTransferFrom(address from, address to, uint256 tokenId) public {... */\n      pop\n      pop\n      pop\n      jump\t// out\n        /* \"@openzeppelin/contracts/token/ERC721/ERC721.sol\":2185:2303  function ownerOf(uint256 tokenId) public view virtual returns (address) {... */\n    tag_56:\n        /* \"@openzeppelin/contracts/token/ERC721/ERC721.sol\":2248:2255  address */\n      0x00\n        /* \"@openzeppelin/contracts/token/ERC721/ERC721.sol\":2274:2296  _requireOwned(tokenId) */\n      tag_131\n        /* \"@openzeppelin/contracts/token/ERC721/ERC721.sol\":2288:2295  tokenId */\n      dup3\n        /* \"@openzeppelin/contracts/token/ERC721/ERC721.sol\":2274:2287  _requireOwned */\n      tag_104\n        /* \"@openzeppelin/contracts/token/ERC721/ERC721.sol\":2274:2296  _requireOwned(tokenId) */\n      jump\t// in\n    tag_131:\n        /* \"@openzeppelin/contracts/token/ERC721/ERC721.sol\":2267:2296  return _requireOwned(tokenId) */\n      swap1\n      pop\n        /* \"@openzeppelin/contracts/token/ERC721/ERC721.sol\":2185:2303  function ownerOf(uint256 tokenId) public view virtual returns (address) {... */\n      swap2\n      swap1\n      pop\n      jump\t// out\n        /* \"@openzeppelin/contracts/token/ERC721/ERC721.sol\":1920:2128  function balanceOf(address owner) public view virtual returns (uint256) {... */\n    tag_61:\n        /* \"@openzeppelin/contracts/token/ERC721/ERC721.sol\":1983:1990  uint256 */\n      0x00\n        /* \"@openzeppelin/contracts/token/ERC721/ERC721.sol\":2023:2024  0 */\n      dup1\n        /* \"@openzeppelin/contracts/token/ERC721/ERC721.sol\":2006:2025  owner == address(0) */\n      0xffffffffffffffffffffffffffffffffffffffff\n      and\n        /* \"@openzeppelin/contracts/token/ERC721/ERC721.sol\":2006:2011  owner */\n      dup3\n        /* \"@openzeppelin/contracts/token/ERC721/ERC721.sol\":2006:2025  owner == address(0) */\n      0xffffffffffffffffffffffffffffffffffffffff\n      and\n      sub\n        /* \"@openzeppelin/contracts/token/ERC721/ERC721.sol\":2002:2089  if (owner == address(0)) {... */\n      tag_133\n      jumpi\n        /* \"@openzeppelin/contracts/token/ERC721/ERC721.sol\":2075:2076  0 */\n      0x00\n        /* \"@openzeppelin/contracts/token/ERC721/ERC721.sol\":2048:2078  ERC721InvalidOwner(address(0)) */\n      mload(0x40)\n      0x89c62b6400000000000000000000000000000000000000000000000000000000\n      dup2\n      mstore\n      0x04\n      add\n      tag_134\n      swap2\n      swap1\n      tag_37\n      jump\t// in\n    tag_134:\n      mload(0x40)\n      dup1\n      swap2\n      sub\n      swap1\n      revert\n        /* \"@openzeppelin/contracts/token/ERC721/ERC721.sol\":2002:2089  if (owner == address(0)) {... */\n    tag_133:\n        /* \"@openzeppelin/contracts/token/ERC721/ERC721.sol\":2105:2114  _balances */\n      0x03\n        /* \"@openzeppelin/contracts/token/ERC721/ERC721.sol\":2105:2121  _balances[owner] */\n      0x00\n        /* \"@openzeppelin/contracts/token/ERC721/ERC721.sol\":2115:2120  owner */\n      dup4\n        /* \"@openzeppelin/contracts/token/ERC721/ERC721.sol\":2105:2121  _balances[owner] */\n      0xffffffffffffffffffffffffffffffffffffffff\n      and\n      0xffffffffffffffffffffffffffffffffffffffff\n      and\n      dup2\n      mstore\n      0x20\n      add\n      swap1\n      dup2\n      mstore\n      0x20\n      add\n      0x00\n      keccak256\n      sload\n        /* \"@openzeppelin/contracts/token/ERC721/ERC721.sol\":2098:2121  return _balances[owner] */\n      swap1\n      pop\n        /* \"@openzeppelin/contracts/token/ERC721/ERC721.sol\":1920:2128  function balanceOf(address owner) public view virtual returns (uint256) {... */\n      swap2\n      swap1\n      pop\n      jump\t// out\n        /* \"@openzeppelin/contracts/token/ERC721/ERC721.sol\":2518:2611  function symbol() public view virtual returns (string memory) {... */\n    tag_65:\n        /* \"@openzeppelin/contracts/token/ERC721/ERC721.sol\":2565:2578  string memory */\n      0x60\n        /* \"@openzeppelin/contracts/token/ERC721/ERC721.sol\":2597:2604  _symbol */\n      0x01\n        /* \"@openzeppelin/contracts/token/ERC721/ERC721.sol\":2590:2604  return _symbol */\n      dup1\n      sload\n      tag_136\n      swap1\n      tag_97\n      jump\t// in\n    tag_136:\n      dup1\n      0x1f\n      add\n      0x20\n      dup1\n      swap2\n      div\n      mul\n      0x20\n      add\n      mload(0x40)\n      swap1\n      dup2\n      add\n      0x40\n      mstore\n      dup1\n      swap3\n      swap2\n      swap1\n      dup2\n      dup2\n      mstore\n      0x20\n      add\n      dup3\n      dup1\n      sload\n      tag_137\n      swap1\n      tag_97\n      jump\t// in\n    tag_137:\n      dup1\n      iszero\n      tag_138\n      jumpi\n      dup1\n      0x1f\n      lt\n      tag_139\n      jumpi\n      0x0100\n      dup1\n      dup4\n      sload\n      div\n      mul\n      dup4\n      mstore\n      swap2\n      0x20\n      add\n      swap2\n      jump(tag_138)\n    tag_139:\n      dup3\n      add\n      swap2\n      swap1\n      0x00\n      mstore\n      keccak256(0x00, 0x20)\n      swap1\n    tag_140:\n      dup2\n      sload\n      dup2\n      mstore\n      swap1\n      0x01\n      add\n      swap1\n      0x20\n      add\n      dup1\n      dup4\n      gt\n      tag_140\n      jumpi\n      dup3\n      swap1\n      sub\n      0x1f\n      and\n      dup3\n      add\n      swap2\n    tag_138:\n      pop\n      pop\n      pop\n      pop\n      pop\n      swap1\n      pop\n        /* \"@openzeppelin/contracts/token/ERC721/ERC721.sol\":2518:2611  function symbol() public view virtual returns (string memory) {... */\n      swap1\n      jump\t// out\n        /* \"@openzeppelin/contracts/token/ERC721/ERC721.sol\":3718:3862  function setApprovalForAll(address operator, bool approved) public virtual {... */\n    tag_70:\n        /* \"@openzeppelin/contracts/token/ERC721/ERC721.sol\":3803:3855  _setApprovalForAll(_msgSender(), operator, approved) */\n      tag_142\n        /* \"@openzeppelin/contracts/token/ERC721/ERC721.sol\":3822:3834  _msgSender() */\n      tag_143\n        /* \"@openzeppelin/contracts/token/ERC721/ERC721.sol\":3822:3832  _msgSender */\n      tag_110\n        /* \"@openzeppelin/contracts/token/ERC721/ERC721.sol\":3822:3834  _msgSender() */\n      jump\t// in\n    tag_143:\n        /* \"@openzeppelin/contracts/token/ERC721/ERC721.sol\":3836:3844  operator */\n      dup4\n        /* \"@openzeppelin/contracts/token/ERC721/ERC721.sol\":3846:3854  approved */\n      dup4\n        /* \"@openzeppelin/contracts/token/ERC721/ERC721.sol\":3803:3821  _setApprovalForAll */\n      tag_144\n        /* \"@openzeppelin/contracts/token/ERC721/ERC721.sol\":3803:3855  _setApprovalForAll(_msgSender(), operator, approved) */\n      jump\t// in\n    tag_142:\n        /* \"@openzeppelin/contracts/token/ERC721/ERC721.sol\":3718:3862  function setApprovalForAll(address operator, bool approved) public virtual {... */\n      pop\n      pop\n      jump\t// out\n        /* \"@openzeppelin/contracts/token/ERC721/ERC721.sol\":4985:5193  function safeTransferFrom(address from, address to, uint256 tokenId, bytes memory data) public virtual {... */\n    tag_74:\n        /* \"@openzeppelin/contracts/token/ERC721/ERC721.sol\":5098:5129  transferFrom(from, to, tokenId) */\n      tag_146\n        /* \"@openzeppelin/contracts/token/ERC721/ERC721.sol\":5111:5115  from */\n      dup5\n        /* \"@openzeppelin/contracts/token/ERC721/ERC721.sol\":5117:5119  to */\n      dup5\n        /* \"@openzeppelin/contracts/token/ERC721/ERC721.sol\":5121:5128  tokenId */\n      dup5\n        /* \"@openzeppelin/contracts/token/ERC721/ERC721.sol\":5098:5110  transferFrom */\n      tag_50\n        /* \"@openzeppelin/contracts/token/ERC721/ERC721.sol\":5098:5129  transferFrom(from, to, tokenId) */\n      jump\t// in\n    tag_146:\n        /* \"@openzeppelin/contracts/token/ERC721/ERC721.sol\":5139:5186  _checkOnERC721Received(from, to, tokenId, data) */\n      tag_147\n        /* \"@openzeppelin/contracts/token/ERC721/ERC721.sol\":5162:5166  from */\n      dup5\n        /* \"@openzeppelin/contracts/token/ERC721/ERC721.sol\":5168:5170  to */\n      dup5\n        /* \"@openzeppelin/contracts/token/ERC721/ERC721.sol\":5172:5179  tokenId */\n      dup5\n        /* \"@openzeppelin/contracts/token/ERC721/ERC721.sol\":5181:5185  data */\n      dup5\n        /* \"@openzeppelin/contracts/token/ERC721/ERC721.sol\":5139:5161  _checkOnERC721Received */\n      tag_148\n        /* \"@openzeppelin/contracts/token/ERC721/ERC721.sol\":5139:5186  _checkOnERC721Received(from, to, tokenId, data) */\n      jump\t// in\n    tag_147:\n        /* \"@openzeppelin/contracts/token/ERC721/ERC721.sol\":4985:5193  function safeTransferFrom(address from, address to, uint256 tokenId, bytes memory data) public virtual {... */\n      pop\n      pop\n      pop\n      pop\n      jump\t// out\n        /* \"cas/NFT.sol\":453:503  mapping(uint256 => uint256) public tokenIdToLevels */\n    tag_77:\n      mstore(0x20, 0x08)\n      dup1\n      0x00\n      mstore\n      keccak256(0x00, 0x40)\n      0x00\n      swap2\n      pop\n      swap1\n      pop\n      sload\n      dup2\n      jump\t// out\n        /* \"@openzeppelin/contracts/token/ERC721/extensions/ERC721URIStorage.sol\":1210:1803  function tokenURI(uint256 tokenId) public view virtual override returns (string memory) {... */\n    tag_81:\n        /* \"@openzeppelin/contracts/token/ERC721/extensions/ERC721URIStorage.sol\":1283:1296  string memory */\n      0x60\n        /* \"@openzeppelin/contracts/token/ERC721/extensions/ERC721URIStorage.sol\":1308:1330  _requireOwned(tokenId) */\n      tag_150\n        /* \"@openzeppelin/contracts/token/ERC721/extensions/ERC721URIStorage.sol\":1322:1329  tokenId */\n      dup3\n        /* \"@openzeppelin/contracts/token/ERC721/extensions/ERC721URIStorage.sol\":1308:1321  _requireOwned */\n      tag_104\n        /* \"@openzeppelin/contracts/token/ERC721/extensions/ERC721URIStorage.sol\":1308:1330  _requireOwned(tokenId) */\n      jump\t// in\n    tag_150:\n      pop\n        /* \"@openzeppelin/contracts/token/ERC721/extensions/ERC721URIStorage.sol\":1341:1364  string memory _tokenURI */\n      0x00\n        /* \"@openzeppelin/contracts/token/ERC721/extensions/ERC721URIStorage.sol\":1367:1377  _tokenURIs */\n      0x06\n        /* \"@openzeppelin/contracts/token/ERC721/extensions/ERC721URIStorage.sol\":1367:1386  _tokenURIs[tokenId] */\n      0x00\n        /* \"@openzeppelin/contracts/token/ERC721/extensions/ERC721URIStorage.sol\":1378:1385  tokenId */\n      dup5\n        /* \"@openzeppelin/contracts/token/ERC721/extensions/ERC721URIStorage.sol\":1367:1386  _tokenURIs[tokenId] */\n      dup2\n      mstore\n      0x20\n      add\n      swap1\n      dup2\n      mstore\n      0x20\n      add\n      0x00\n      keccak256\n        /* \"@openzeppelin/contracts/token/ERC721/extensions/ERC721URIStorage.sol\":1341:1386  string memory _tokenURI = _tokenURIs[tokenId] */\n      dup1\n      sload\n      tag_151\n      swap1\n      tag_97\n      jump\t// in\n    tag_151:\n      dup1\n      0x1f\n      add\n      0x20\n      dup1\n      swap2\n      div\n      mul\n      0x20\n      add\n      mload(0x40)\n      swap1\n      dup2\n      add\n      0x40\n      mstore\n      dup1\n      swap3\n      swap2\n      swap1\n      dup2\n      dup2\n      mstore\n      0x20\n      add\n      dup3\n      dup1\n      sload\n      tag_152\n      swap1\n      tag_97\n      jump\t// in\n    tag_152:\n      dup1\n      iszero\n      tag_153\n      jumpi\n      dup1\n      0x1f\n      lt\n      tag_154\n      jumpi\n      0x0100\n      dup1\n      dup4\n      sload\n      div\n      mul\n      dup4\n      mstore\n      swap2\n      0x20\n      add\n      swap2\n      jump(tag_153)\n    tag_154:\n      dup3\n      add\n      swap2\n      swap1\n      0x00\n      mstore\n      keccak256(0x00, 0x20)\n      swap1\n    tag_155:\n      dup2\n      sload\n      dup2\n      mstore\n      swap1\n      0x01\n      add\n      swap1\n      0x20\n      add\n      dup1\n      dup4\n      gt\n      tag_155\n      jumpi\n      dup3\n      swap1\n      sub\n      0x1f\n      and\n      dup3\n      add\n      swap2\n    tag_153:\n      pop\n      pop\n      pop\n      pop\n      pop\n      swap1\n      pop\n        /* \"@openzeppelin/contracts/token/ERC721/extensions/ERC721URIStorage.sol\":1396:1414  string memory base */\n      0x00\n        /* \"@openzeppelin/contracts/token/ERC721/extensions/ERC721URIStorage.sol\":1417:1427  _baseURI() */\n      tag_156\n        /* \"@openzeppelin/contracts/token/ERC721/extensions/ERC721URIStorage.sol\":1417:1425  _baseURI */\n      tag_157\n        /* \"@openzeppelin/contracts/token/ERC721/extensions/ERC721URIStorage.sol\":1417:1427  _baseURI() */\n      jump\t// in\n    tag_156:\n        /* \"@openzeppelin/contracts/token/ERC721/extensions/ERC721URIStorage.sol\":1396:1427  string memory base = _baseURI() */\n      swap1\n      pop\n        /* \"@openzeppelin/contracts/token/ERC721/extensions/ERC721URIStorage.sol\":1522:1523  0 */\n      0x00\n        /* \"@openzeppelin/contracts/token/ERC721/extensions/ERC721URIStorage.sol\":1506:1510  base */\n      dup2\n        /* \"@openzeppelin/contracts/token/ERC721/extensions/ERC721URIStorage.sol\":1500:1518  bytes(base).length */\n      mload\n        /* \"@openzeppelin/contracts/token/ERC721/extensions/ERC721URIStorage.sol\":1500:1523  bytes(base).length == 0 */\n      sub\n        /* \"@openzeppelin/contracts/token/ERC721/extensions/ERC721URIStorage.sol\":1496:1566  if (bytes(base).length == 0) {... */\n      tag_158\n      jumpi\n        /* \"@openzeppelin/contracts/token/ERC721/extensions/ERC721URIStorage.sol\":1546:1555  _tokenURI */\n      dup2\n        /* \"@openzeppelin/contracts/token/ERC721/extensions/ERC721URIStorage.sol\":1539:1555  return _tokenURI */\n      swap3\n      pop\n      pop\n      pop\n      jump(tag_149)\n        /* \"@openzeppelin/contracts/token/ERC721/extensions/ERC721URIStorage.sol\":1496:1566  if (bytes(base).length == 0) {... */\n    tag_158:\n        /* \"@openzeppelin/contracts/token/ERC721/extensions/ERC721URIStorage.sol\":1691:1692  0 */\n      0x00\n        /* \"@openzeppelin/contracts/token/ERC721/extensions/ERC721URIStorage.sol\":1671:1680  _tokenURI */\n      dup3\n        /* \"@openzeppelin/contracts/token/ERC721/extensions/ERC721URIStorage.sol\":1665:1688  bytes(_tokenURI).length */\n      mload\n        /* \"@openzeppelin/contracts/token/ERC721/extensions/ERC721URIStorage.sol\":1665:1692  bytes(_tokenURI).length > 0 */\n      gt\n        /* \"@openzeppelin/contracts/token/ERC721/extensions/ERC721URIStorage.sol\":1661:1756  if (bytes(_tokenURI).length > 0) {... */\n      iszero\n      tag_159\n      jumpi\n        /* \"@openzeppelin/contracts/token/ERC721/extensions/ERC721URIStorage.sol\":1729:1733  base */\n      dup1\n        /* \"@openzeppelin/contracts/token/ERC721/extensions/ERC721URIStorage.sol\":1735:1744  _tokenURI */\n      dup3\n        /* \"@openzeppelin/contracts/token/ERC721/extensions/ERC721URIStorage.sol\":1715:1745  string.concat(base, _tokenURI) */\n      add(0x20, mload(0x40))\n      tag_160\n      swap3\n      swap2\n      swap1\n      tag_118\n      jump\t// in\n    tag_160:\n      mload(0x40)\n      0x20\n      dup2\n      dup4\n      sub\n      sub\n      dup2\n      mstore\n      swap1\n      0x40\n      mstore\n        /* \"@openzeppelin/contracts/token/ERC721/extensions/ERC721URIStorage.sol\":1708:1745  return string.concat(base, _tokenURI) */\n      swap3\n      pop\n      pop\n      pop\n      jump(tag_149)\n        /* \"@openzeppelin/contracts/token/ERC721/extensions/ERC721URIStorage.sol\":1661:1756  if (bytes(_tokenURI).length > 0) {... */\n    tag_159:\n        /* \"@openzeppelin/contracts/token/ERC721/extensions/ERC721URIStorage.sol\":1773:1796  super.tokenURI(tokenId) */\n      tag_161\n        /* \"@openzeppelin/contracts/token/ERC721/extensions/ERC721URIStorage.sol\":1788:1795  tokenId */\n      dup5\n        /* \"@openzeppelin/contracts/token/ERC721/extensions/ERC721URIStorage.sol\":1773:1787  super.tokenURI */\n      tag_162\n        /* \"@openzeppelin/contracts/token/ERC721/extensions/ERC721URIStorage.sol\":1773:1796  super.tokenURI(tokenId) */\n      jump\t// in\n    tag_161:\n        /* \"@openzeppelin/contracts/token/ERC721/extensions/ERC721URIStorage.sol\":1766:1796  return super.tokenURI(tokenId) */\n      swap3\n      pop\n      pop\n      pop\n        /* \"@openzeppelin/contracts/token/ERC721/extensions/ERC721URIStorage.sol\":1210:1803  function tokenURI(uint256 tokenId) public view virtual override returns (string memory) {... */\n    tag_149:\n      swap2\n      swap1\n      pop\n      jump\t// out\n        /* \"cas/NFT.sol\":1144:1694  function mint(string memory imageURI) public {... */\n    tag_85:\n        /* \"cas/NFT.sol\":1334:1356  string memory tokenURI */\n      0x00\n        /* \"cas/NFT.sol\":1359:1393  simplifiedFormatTokenURI(imageURI) */\n      tag_164\n        /* \"cas/NFT.sol\":1384:1392  imageURI */\n      dup3\n        /* \"cas/NFT.sol\":1359:1383  simplifiedFormatTokenURI */\n      tag_45\n        /* \"cas/NFT.sol\":1359:1393  simplifiedFormatTokenURI(imageURI) */\n      jump\t// in\n    tag_164:\n        /* \"cas/NFT.sol\":1334:1393  string memory tokenURI = simplifiedFormatTokenURI(imageURI) */\n      swap1\n      pop\n        /* \"cas/NFT.sol\":1477:1498  _tokenIds.increment() */\n      tag_165\n        /* \"cas/NFT.sol\":1477:1486  _tokenIds */\n      0x07\n        /* \"cas/NFT.sol\":1477:1496  _tokenIds.increment */\n      tag_166\n        /* \"cas/NFT.sol\":1477:1498  _tokenIds.increment() */\n      jump\t// in\n    tag_165:\n        /* \"cas/NFT.sol\":1508:1525  uint256 newItemId */\n      0x00\n        /* \"cas/NFT.sol\":1528:1547  _tokenIds.current() */\n      tag_167\n        /* \"cas/NFT.sol\":1528:1537  _tokenIds */\n      0x07\n        /* \"cas/NFT.sol\":1528:1545  _tokenIds.current */\n      tag_168\n        /* \"cas/NFT.sol\":1528:1547  _tokenIds.current() */\n      jump\t// in\n    tag_167:\n        /* \"cas/NFT.sol\":1508:1547  uint256 newItemId = _tokenIds.current() */\n      swap1\n      pop\n        /* \"cas/NFT.sol\":1612:1644  _safeMint(msg.sender, newItemId) */\n      tag_169\n        /* \"cas/NFT.sol\":1622:1632  msg.sender */\n      caller\n        /* \"cas/NFT.sol\":1634:1643  newItemId */\n      dup3\n        /* \"cas/NFT.sol\":1612:1621  _safeMint */\n      tag_170\n        /* \"cas/NFT.sol\":1612:1644  _safeMint(msg.sender, newItemId) */\n      jump\t// in\n    tag_169:\n        /* \"cas/NFT.sol\":1654:1687  _setTokenURI(newItemId, tokenURI) */\n      tag_171\n        /* \"cas/NFT.sol\":1667:1676  newItemId */\n      dup2\n        /* \"cas/NFT.sol\":1678:1686  tokenURI */\n      dup4\n        /* \"cas/NFT.sol\":1654:1666  _setTokenURI */\n      tag_172\n        /* \"cas/NFT.sol\":1654:1687  _setTokenURI(newItemId, tokenURI) */\n      jump\t// in\n    tag_171:\n        /* \"cas/NFT.sol\":1189:1694  {... */\n      pop\n      pop\n        /* \"cas/NFT.sol\":1144:1694  function mint(string memory imageURI) public {... */\n      pop\n      jump\t// out\n        /* \"@openzeppelin/contracts/token/ERC721/ERC721.sol\":3928:4081  function isApprovedForAll(address owner, address operator) public view virtual returns (bool) {... */\n    tag_89:\n        /* \"@openzeppelin/contracts/token/ERC721/ERC721.sol\":4016:4020  bool */\n      0x00\n        /* \"@openzeppelin/contracts/token/ERC721/ERC721.sol\":4039:4057  _operatorApprovals */\n      0x05\n        /* \"@openzeppelin/contracts/token/ERC721/ERC721.sol\":4039:4064  _operatorApprovals[owner] */\n      0x00\n        /* \"@openzeppelin/contracts/token/ERC721/ERC721.sol\":4058:4063  owner */\n      dup5\n        /* \"@openzeppelin/contracts/token/ERC721/ERC721.sol\":4039:4064  _operatorApprovals[owner] */\n      0xffffffffffffffffffffffffffffffffffffffff\n      and\n      0xffffffffffffffffffffffffffffffffffffffff\n      and\n      dup2\n      mstore\n      0x20\n      add\n      swap1\n      dup2\n      mstore\n      0x20\n      add\n      0x00\n      keccak256\n        /* \"@openzeppelin/contracts/token/ERC721/ERC721.sol\":4039:4074  _operatorApprovals[owner][operator] */\n      0x00\n        /* \"@openzeppelin/contracts/token/ERC721/ERC721.sol\":4065:4073  operator */\n      dup4\n        /* \"@openzeppelin/contracts/token/ERC721/ERC721.sol\":4039:4074  _operatorApprovals[owner][operator] */\n      0xffffffffffffffffffffffffffffffffffffffff\n      and\n      0xffffffffffffffffffffffffffffffffffffffff\n      and\n      dup2\n      mstore\n      0x20\n      add\n      swap1\n      dup2\n      mstore\n      0x20\n      add\n      0x00\n      keccak256\n      0x00\n      swap1\n      sload\n      swap1\n      0x0100\n      exp\n      swap1\n      div\n      0xff\n      and\n        /* \"@openzeppelin/contracts/token/ERC721/ERC721.sol\":4032:4074  return _operatorApprovals[owner][operator] */\n      swap1\n      pop\n        /* \"@openzeppelin/contracts/token/ERC721/ERC721.sol\":3928:4081  function isApprovedForAll(address owner, address operator) public view virtual returns (bool) {... */\n      swap3\n      swap2\n      pop\n      pop\n      jump\t// out\n        /* \"@openzeppelin/contracts/token/ERC721/ERC721.sol\":1561:1861  function supportsInterface(bytes4 interfaceId) public view virtual override(ERC165, IERC165) returns (bool) {... */\n    tag_94:\n        /* \"@openzeppelin/contracts/token/ERC721/ERC721.sol\":1663:1667  bool */\n      0x00\n        /* \"@openzeppelin/contracts/token/ERC721/ERC721.sol\":1713:1738  type(IERC721).interfaceId */\n      0x80ac58cd00000000000000000000000000000000000000000000000000000000\n        /* \"@openzeppelin/contracts/token/ERC721/ERC721.sol\":1698:1738  interfaceId == type(IERC721).interfaceId */\n      not(0xffffffffffffffffffffffffffffffffffffffffffffffffffffffff)\n      and\n        /* \"@openzeppelin/contracts/token/ERC721/ERC721.sol\":1698:1709  interfaceId */\n      dup3\n        /* \"@openzeppelin/contracts/token/ERC721/ERC721.sol\":1698:1738  interfaceId == type(IERC721).interfaceId */\n      not(0xffffffffffffffffffffffffffffffffffffffffffffffffffffffff)\n      and\n      eq\n        /* \"@openzeppelin/contracts/token/ERC721/ERC721.sol\":1698:1802  interfaceId == type(IERC721).interfaceId ||... */\n      dup1\n      tag_175\n      jumpi\n      pop\n        /* \"@openzeppelin/contracts/token/ERC721/ERC721.sol\":1769:1802  type(IERC721Metadata).interfaceId */\n      0x5b5e139f00000000000000000000000000000000000000000000000000000000\n        /* \"@openzeppelin/contracts/token/ERC721/ERC721.sol\":1754:1802  interfaceId == type(IERC721Metadata).interfaceId */\n      not(0xffffffffffffffffffffffffffffffffffffffffffffffffffffffff)\n      and\n        /* \"@openzeppelin/contracts/token/ERC721/ERC721.sol\":1754:1765  interfaceId */\n      dup3\n        /* \"@openzeppelin/contracts/token/ERC721/ERC721.sol\":1754:1802  interfaceId == type(IERC721Metadata).interfaceId */\n      not(0xffffffffffffffffffffffffffffffffffffffffffffffffffffffff)\n      and\n      eq\n        /* \"@openzeppelin/contracts/token/ERC721/ERC721.sol\":1698:1802  interfaceId == type(IERC721).interfaceId ||... */\n    tag_175:\n        /* \"@openzeppelin/contracts/token/ERC721/ERC721.sol\":1698:1854  interfaceId == type(IERC721).interfaceId ||... */\n      dup1\n      tag_176\n      jumpi\n      pop\n        /* \"@openzeppelin/contracts/token/ERC721/ERC721.sol\":1818:1854  super.supportsInterface(interfaceId) */\n      tag_177\n        /* \"@openzeppelin/contracts/token/ERC721/ERC721.sol\":1842:1853  interfaceId */\n      dup3\n        /* \"@openzeppelin/contracts/token/ERC721/ERC721.sol\":1818:1841  super.supportsInterface */\n      tag_178\n        /* \"@openzeppelin/contracts/token/ERC721/ERC721.sol\":1818:1854  super.supportsInterface(interfaceId) */\n      jump\t// in\n    tag_177:\n        /* \"@openzeppelin/contracts/token/ERC721/ERC721.sol\":1698:1854  interfaceId == type(IERC721).interfaceId ||... */\n    tag_176:\n        /* \"@openzeppelin/contracts/token/ERC721/ERC721.sol\":1679:1854  return... */\n      swap1\n      pop\n        /* \"@openzeppelin/contracts/token/ERC721/ERC721.sol\":1561:1861  function supportsInterface(bytes4 interfaceId) public view virtual override(ERC165, IERC165) returns (bool) {... */\n      swap2\n      swap1\n      pop\n      jump\t// out\n        /* \"@openzeppelin/contracts/token/ERC721/ERC721.sol\":16138:16379  function _requireOwned(uint256 tokenId) internal view returns (address) {... */\n    tag_104:\n        /* \"@openzeppelin/contracts/token/ERC721/ERC721.sol\":16201:16208  address */\n      0x00\n        /* \"@openzeppelin/contracts/token/ERC721/ERC721.sol\":16220:16233  address owner */\n      dup1\n        /* \"@openzeppelin/contracts/token/ERC721/ERC721.sol\":16236:16253  _ownerOf(tokenId) */\n      tag_180\n        /* \"@openzeppelin/contracts/token/ERC721/ERC721.sol\":16245:16252  tokenId */\n      dup4\n        /* \"@openzeppelin/contracts/token/ERC721/ERC721.sol\":16236:16244  _ownerOf */\n      tag_181\n        /* \"@openzeppelin/contracts/token/ERC721/ERC721.sol\":16236:16253  _ownerOf(tokenId) */\n      jump\t// in\n    tag_180:\n        /* \"@openzeppelin/contracts/token/ERC721/ERC721.sol\":16220:16253  address owner = _ownerOf(tokenId) */\n      swap1\n      pop\n        /* \"@openzeppelin/contracts/token/ERC721/ERC721.sol\":16284:16285  0 */\n      0x00\n        /* \"@openzeppelin/contracts/token/ERC721/ERC721.sol\":16267:16286  owner == address(0) */\n      0xffffffffffffffffffffffffffffffffffffffff\n      and\n        /* \"@openzeppelin/contracts/token/ERC721/ERC721.sol\":16267:16272  owner */\n      dup2\n        /* \"@openzeppelin/contracts/token/ERC721/ERC721.sol\":16267:16286  owner == address(0) */\n      0xffffffffffffffffffffffffffffffffffffffff\n      and\n      sub\n        /* \"@openzeppelin/contracts/token/ERC721/ERC721.sol\":16263:16351  if (owner == address(0)) {... */\n      tag_182\n      jumpi\n        /* \"@openzeppelin/contracts/token/ERC721/ERC721.sol\":16332:16339  tokenId */\n      dup3\n        /* \"@openzeppelin/contracts/token/ERC721/ERC721.sol\":16309:16340  ERC721NonexistentToken(tokenId) */\n      mload(0x40)\n      0x7e27328900000000000000000000000000000000000000000000000000000000\n      dup2\n      mstore\n      0x04\n      add\n      tag_183\n      swap2\n      swap1\n      tag_63\n      jump\t// in\n    tag_183:\n      mload(0x40)\n      dup1\n      swap2\n      sub\n      swap1\n      revert\n        /* \"@openzeppelin/contracts/token/ERC721/ERC721.sol\":16263:16351  if (owner == address(0)) {... */\n    tag_182:\n        /* \"@openzeppelin/contracts/token/ERC721/ERC721.sol\":16367:16372  owner */\n      dup1\n        /* \"@openzeppelin/contracts/token/ERC721/ERC721.sol\":16360:16372  return owner */\n      swap2\n      pop\n      pop\n        /* \"@openzeppelin/contracts/token/ERC721/ERC721.sol\":16138:16379  function _requireOwned(uint256 tokenId) internal view returns (address) {... */\n      swap2\n      swap1\n      pop\n      jump\t// out\n        /* \"@openzeppelin/contracts/token/ERC721/ERC721.sol\":5938:6065  function _getApproved(uint256 tokenId) internal view virtual returns (address) {... */\n    tag_106:\n        /* \"@openzeppelin/contracts/token/ERC721/ERC721.sol\":6008:6015  address */\n      0x00\n        /* \"@openzeppelin/contracts/token/ERC721/ERC721.sol\":6034:6049  _tokenApprovals */\n      0x04\n        /* \"@openzeppelin/contracts/token/ERC721/ERC721.sol\":6034:6058  _tokenApprovals[tokenId] */\n      0x00\n        /* \"@openzeppelin/contracts/token/ERC721/ERC721.sol\":6050:6057  tokenId */\n      dup4\n        /* \"@openzeppelin/contracts/token/ERC721/ERC721.sol\":6034:6058  _tokenApprovals[tokenId] */\n      dup2\n      mstore\n      0x20\n      add\n      swap1\n      dup2\n      mstore\n      0x20\n      add\n      0x00\n      keccak256\n      0x00\n      swap1\n      sload\n      swap1\n      0x0100\n      exp\n      swap1\n      div\n      0xffffffffffffffffffffffffffffffffffffffff\n      and\n        /* \"@openzeppelin/contracts/token/ERC721/ERC721.sol\":6027:6058  return _tokenApprovals[tokenId] */\n      swap1\n      pop\n        /* \"@openzeppelin/contracts/token/ERC721/ERC721.sol\":5938:6065  function _getApproved(uint256 tokenId) internal view virtual returns (address) {... */\n      swap2\n      swap1\n      pop\n      jump\t// out\n        /* \"@openzeppelin/contracts/utils/Context.sol\":656:752  function _msgSender() internal view virtual returns (address) {... */\n    tag_110:\n        /* \"@openzeppelin/contracts/utils/Context.sol\":709:716  address */\n      0x00\n        /* \"@openzeppelin/contracts/utils/Context.sol\":735:745  msg.sender */\n      caller\n        /* \"@openzeppelin/contracts/utils/Context.sol\":728:745  return msg.sender */\n      swap1\n      pop\n        /* \"@openzeppelin/contracts/utils/Context.sol\":656:752  function _msgSender() internal view virtual returns (address) {... */\n      swap1\n      jump\t// out\n        /* \"@openzeppelin/contracts/token/ERC721/ERC721.sol\":14418:14538  function _approve(address to, uint256 tokenId, address auth) internal {... */\n    tag_111:\n        /* \"@openzeppelin/contracts/token/ERC721/ERC721.sol\":14498:14531  _approve(to, tokenId, auth, true) */\n      tag_187\n        /* \"@openzeppelin/contracts/token/ERC721/ERC721.sol\":14507:14509  to */\n      dup4\n        /* \"@openzeppelin/contracts/token/ERC721/ERC721.sol\":14511:14518  tokenId */\n      dup4\n        /* \"@openzeppelin/contracts/token/ERC721/ERC721.sol\":14520:14524  auth */\n      dup4\n        /* \"@openzeppelin/contracts/token/ERC721/ERC721.sol\":14526:14530  true */\n      0x01\n        /* \"@openzeppelin/contracts/token/ERC721/ERC721.sol\":14498:14506  _approve */\n      tag_188\n        /* \"@openzeppelin/contracts/token/ERC721/ERC721.sol\":14498:14531  _approve(to, tokenId, auth, true) */\n      jump\t// in\n    tag_187:\n        /* \"@openzeppelin/contracts/token/ERC721/ERC721.sol\":14418:14538  function _approve(address to, uint256 tokenId, address auth) internal {... */\n      pop\n      pop\n      pop\n      jump\t// out\n        /* \"@openzeppelin/contracts/utils/Base64.sol\":476:3502  function encode(bytes memory data) internal pure returns (string memory) {... */\n    tag_116:\n        /* \"@openzeppelin/contracts/utils/Base64.sol\":534:547  string memory */\n      0x60\n        /* \"@openzeppelin/contracts/utils/Base64.sol\":781:782  0 */\n      0x00\n        /* \"@openzeppelin/contracts/utils/Base64.sol\":766:770  data */\n      dup3\n        /* \"@openzeppelin/contracts/utils/Base64.sol\":766:777  data.length */\n      mload\n        /* \"@openzeppelin/contracts/utils/Base64.sol\":766:782  data.length == 0 */\n      sub\n        /* \"@openzeppelin/contracts/utils/Base64.sol\":762:793  if (data.length == 0) return \"\" */\n      tag_190\n      jumpi\n        /* \"@openzeppelin/contracts/utils/Base64.sol\":784:793  return \"\" */\n      mload(0x40)\n      dup1\n      0x20\n      add\n      0x40\n      mstore\n      dup1\n      0x00\n      dup2\n      mstore\n      pop\n      swap1\n      pop\n      jump(tag_189)\n        /* \"@openzeppelin/contracts/utils/Base64.sol\":762:793  if (data.length == 0) return \"\" */\n    tag_190:\n        /* \"@openzeppelin/contracts/utils/Base64.sol\":843:862  string memory table */\n      0x00\n        /* \"@openzeppelin/contracts/utils/Base64.sol\":865:871  _TABLE */\n      mload(0x40)\n      dup1\n      0x60\n      add\n      0x40\n      mstore\n      dup1\n      0x40\n      dup2\n      mstore\n      0x20\n      add\n      data_84d8a590de33e00cbdc16e1f28c3506f5ec15c599fab9a6a4bcd575cc2f110ce\n      0x40\n      swap2\n      codecopy\n        /* \"@openzeppelin/contracts/utils/Base64.sol\":843:871  string memory table = _TABLE */\n      swap1\n      pop\n        /* \"@openzeppelin/contracts/utils/Base64.sol\":1274:1294  string memory result */\n      0x00\n        /* \"@openzeppelin/contracts/utils/Base64.sol\":1333:1334  3 */\n      0x03\n        /* \"@openzeppelin/contracts/utils/Base64.sol\":1328:1329  2 */\n      0x02\n        /* \"@openzeppelin/contracts/utils/Base64.sol\":1314:1318  data */\n      dup6\n        /* \"@openzeppelin/contracts/utils/Base64.sol\":1314:1325  data.length */\n      mload\n        /* \"@openzeppelin/contracts/utils/Base64.sol\":1314:1329  data.length + 2 */\n      tag_191\n      swap2\n      swap1\n      tag_192\n      jump\t// in\n    tag_191:\n        /* \"@openzeppelin/contracts/utils/Base64.sol\":1313:1334  (data.length + 2) / 3 */\n      tag_193\n      swap2\n      swap1\n      tag_194\n      jump\t// in\n    tag_193:\n        /* \"@openzeppelin/contracts/utils/Base64.sol\":1308:1309  4 */\n      0x04\n        /* \"@openzeppelin/contracts/utils/Base64.sol\":1308:1335  4 * ((data.length + 2) / 3) */\n      tag_195\n      swap2\n      swap1\n      tag_196\n      jump\t// in\n    tag_195:\n        /* \"@openzeppelin/contracts/utils/Base64.sol\":1297:1336  new string(4 * ((data.length + 2) / 3)) */\n      0xffffffffffffffff\n      dup2\n      gt\n      iszero\n      tag_197\n      jumpi\n      tag_198\n      tag_199\n      jump\t// in\n    tag_198:\n    tag_197:\n      mload(0x40)\n      swap1\n      dup1\n      dup3\n      mstore\n      dup1\n      0x1f\n      add\n      not(0x1f)\n      and\n      0x20\n      add\n      dup3\n      add\n      0x40\n      mstore\n      dup1\n      iszero\n      tag_200\n      jumpi\n      dup2\n      0x20\n      add\n      0x01\n      dup3\n      mul\n      dup1\n      calldatasize\n      dup4\n      calldatacopy\n      dup1\n      dup3\n      add\n      swap2\n      pop\n      pop\n      swap1\n      pop\n    tag_200:\n      pop\n        /* \"@openzeppelin/contracts/utils/Base64.sol\":1274:1336  string memory result = new string(4 * ((data.length + 2) / 3)) */\n      swap1\n      pop\n        /* \"@openzeppelin/contracts/utils/Base64.sol\":1511:1512  1 */\n      0x01\n        /* \"@openzeppelin/contracts/utils/Base64.sol\":1504:1509  table */\n      dup3\n        /* \"@openzeppelin/contracts/utils/Base64.sol\":1500:1513  add(table, 1) */\n      add\n        /* \"@openzeppelin/contracts/utils/Base64.sol\":1612:1614  32 */\n      0x20\n        /* \"@openzeppelin/contracts/utils/Base64.sol\":1604:1610  result */\n      dup3\n        /* \"@openzeppelin/contracts/utils/Base64.sol\":1600:1615  add(result, 32) */\n      add\n        /* \"@openzeppelin/contracts/utils/Base64.sol\":1719:1723  data */\n      dup6\n        /* \"@openzeppelin/contracts/utils/Base64.sol\":1770:1774  data */\n      dup7\n        /* \"@openzeppelin/contracts/utils/Base64.sol\":1764:1775  mload(data) */\n      mload\n        /* \"@openzeppelin/contracts/utils/Base64.sol\":1758:1762  data */\n      dup8\n        /* \"@openzeppelin/contracts/utils/Base64.sol\":1754:1776  add(data, mload(data)) */\n      add\n        /* \"@openzeppelin/contracts/utils/Base64.sol\":1682:3085  for {... */\n    tag_201:\n        /* \"@openzeppelin/contracts/utils/Base64.sol\":1803:1809  endPtr */\n      dup1\n        /* \"@openzeppelin/contracts/utils/Base64.sol\":1794:1801  dataPtr */\n      dup3\n        /* \"@openzeppelin/contracts/utils/Base64.sol\":1791:1810  lt(dataPtr, endPtr) */\n      lt\n        /* \"@openzeppelin/contracts/utils/Base64.sol\":1682:3085  for {... */\n      iszero\n      tag_203\n      jumpi\n        /* \"@openzeppelin/contracts/utils/Base64.sol\":1905:1906  3 */\n      0x03\n        /* \"@openzeppelin/contracts/utils/Base64.sol\":1896:1903  dataPtr */\n      dup3\n        /* \"@openzeppelin/contracts/utils/Base64.sol\":1892:1907  add(dataPtr, 3) */\n      add\n        /* \"@openzeppelin/contracts/utils/Base64.sol\":1881:1907  dataPtr := add(dataPtr, 3) */\n      swap2\n      pop\n        /* \"@openzeppelin/contracts/utils/Base64.sol\":1943:1950  dataPtr */\n      dup2\n        /* \"@openzeppelin/contracts/utils/Base64.sol\":1937:1951  mload(dataPtr) */\n      mload\n        /* \"@openzeppelin/contracts/utils/Base64.sol\":2586:2590  0x3F */\n      0x3f\n        /* \"@openzeppelin/contracts/utils/Base64.sol\":2578:2583  input */\n      dup2\n        /* \"@openzeppelin/contracts/utils/Base64.sol\":2574:2576  18 */\n      0x12\n        /* \"@openzeppelin/contracts/utils/Base64.sol\":2570:2584  shr(18, input) */\n      shr\n        /* \"@openzeppelin/contracts/utils/Base64.sol\":2566:2591  and(shr(18, input), 0x3F) */\n      and\n        /* \"@openzeppelin/contracts/utils/Base64.sol\":2556:2564  tablePtr */\n      dup6\n        /* \"@openzeppelin/contracts/utils/Base64.sol\":2552:2592  add(tablePtr, and(shr(18, input), 0x3F)) */\n      add\n        /* \"@openzeppelin/contracts/utils/Base64.sol\":2546:2593  mload(add(tablePtr, and(shr(18, input), 0x3F))) */\n      mload\n        /* \"@openzeppelin/contracts/utils/Base64.sol\":2535:2544  resultPtr */\n      dup5\n        /* \"@openzeppelin/contracts/utils/Base64.sol\":2527:2594  mstore8(resultPtr, mload(add(tablePtr, and(shr(18, input), 0x3F)))) */\n      mstore8\n        /* \"@openzeppelin/contracts/utils/Base64.sol\":2639:2640  1 */\n      0x01\n        /* \"@openzeppelin/contracts/utils/Base64.sol\":2628:2637  resultPtr */\n      dup5\n        /* \"@openzeppelin/contracts/utils/Base64.sol\":2624:2641  add(resultPtr, 1) */\n      add\n        /* \"@openzeppelin/contracts/utils/Base64.sol\":2611:2641  resultPtr := add(resultPtr, 1) */\n      swap4\n      pop\n        /* \"@openzeppelin/contracts/utils/Base64.sol\":2729:2733  0x3F */\n      0x3f\n        /* \"@openzeppelin/contracts/utils/Base64.sol\":2721:2726  input */\n      dup2\n        /* \"@openzeppelin/contracts/utils/Base64.sol\":2717:2719  12 */\n      0x0c\n        /* \"@openzeppelin/contracts/utils/Base64.sol\":2713:2727  shr(12, input) */\n      shr\n        /* \"@openzeppelin/contracts/utils/Base64.sol\":2709:2734  and(shr(12, input), 0x3F) */\n      and\n        /* \"@openzeppelin/contracts/utils/Base64.sol\":2699:2707  tablePtr */\n      dup6\n        /* \"@openzeppelin/contracts/utils/Base64.sol\":2695:2735  add(tablePtr, and(shr(12, input), 0x3F)) */\n      add\n        /* \"@openzeppelin/contracts/utils/Base64.sol\":2689:2736  mload(add(tablePtr, and(shr(12, input), 0x3F))) */\n      mload\n        /* \"@openzeppelin/contracts/utils/Base64.sol\":2678:2687  resultPtr */\n      dup5\n        /* \"@openzeppelin/contracts/utils/Base64.sol\":2670:2737  mstore8(resultPtr, mload(add(tablePtr, and(shr(12, input), 0x3F)))) */\n      mstore8\n        /* \"@openzeppelin/contracts/utils/Base64.sol\":2782:2783  1 */\n      0x01\n        /* \"@openzeppelin/contracts/utils/Base64.sol\":2771:2780  resultPtr */\n      dup5\n        /* \"@openzeppelin/contracts/utils/Base64.sol\":2767:2784  add(resultPtr, 1) */\n      add\n        /* \"@openzeppelin/contracts/utils/Base64.sol\":2754:2784  resultPtr := add(resultPtr, 1) */\n      swap4\n      pop\n        /* \"@openzeppelin/contracts/utils/Base64.sol\":2871:2875  0x3F */\n      0x3f\n        /* \"@openzeppelin/contracts/utils/Base64.sol\":2863:2868  input */\n      dup2\n        /* \"@openzeppelin/contracts/utils/Base64.sol\":2860:2861  6 */\n      0x06\n        /* \"@openzeppelin/contracts/utils/Base64.sol\":2856:2869  shr(6, input) */\n      shr\n        /* \"@openzeppelin/contracts/utils/Base64.sol\":2852:2876  and(shr(6, input), 0x3F) */\n      and\n        /* \"@openzeppelin/contracts/utils/Base64.sol\":2842:2850  tablePtr */\n      dup6\n        /* \"@openzeppelin/contracts/utils/Base64.sol\":2838:2877  add(tablePtr, and(shr(6, input), 0x3F)) */\n      add\n        /* \"@openzeppelin/contracts/utils/Base64.sol\":2832:2878  mload(add(tablePtr, and(shr(6, input), 0x3F))) */\n      mload\n        /* \"@openzeppelin/contracts/utils/Base64.sol\":2821:2830  resultPtr */\n      dup5\n        /* \"@openzeppelin/contracts/utils/Base64.sol\":2813:2879  mstore8(resultPtr, mload(add(tablePtr, and(shr(6, input), 0x3F)))) */\n      mstore8\n        /* \"@openzeppelin/contracts/utils/Base64.sol\":2924:2925  1 */\n      0x01\n        /* \"@openzeppelin/contracts/utils/Base64.sol\":2913:2922  resultPtr */\n      dup5\n        /* \"@openzeppelin/contracts/utils/Base64.sol\":2909:2926  add(resultPtr, 1) */\n      add\n        /* \"@openzeppelin/contracts/utils/Base64.sol\":2896:2926  resultPtr := add(resultPtr, 1) */\n      swap4\n      pop\n        /* \"@openzeppelin/contracts/utils/Base64.sol\":3005:3009  0x3F */\n      0x3f\n        /* \"@openzeppelin/contracts/utils/Base64.sol\":2998:3003  input */\n      dup2\n        /* \"@openzeppelin/contracts/utils/Base64.sol\":2994:3010  and(input, 0x3F) */\n      and\n        /* \"@openzeppelin/contracts/utils/Base64.sol\":2984:2992  tablePtr */\n      dup6\n        /* \"@openzeppelin/contracts/utils/Base64.sol\":2980:3011  add(tablePtr, and(input, 0x3F)) */\n      add\n        /* \"@openzeppelin/contracts/utils/Base64.sol\":2974:3012  mload(add(tablePtr, and(input, 0x3F))) */\n      mload\n        /* \"@openzeppelin/contracts/utils/Base64.sol\":2963:2972  resultPtr */\n      dup5\n        /* \"@openzeppelin/contracts/utils/Base64.sol\":2955:3013  mstore8(resultPtr, mload(add(tablePtr, and(input, 0x3F)))) */\n      mstore8\n        /* \"@openzeppelin/contracts/utils/Base64.sol\":3058:3059  1 */\n      0x01\n        /* \"@openzeppelin/contracts/utils/Base64.sol\":3047:3056  resultPtr */\n      dup5\n        /* \"@openzeppelin/contracts/utils/Base64.sol\":3043:3060  add(resultPtr, 1) */\n      add\n        /* \"@openzeppelin/contracts/utils/Base64.sol\":3030:3060  resultPtr := add(resultPtr, 1) */\n      swap4\n      pop\n        /* \"@openzeppelin/contracts/utils/Base64.sol\":1828:3085  {... */\n      pop\n        /* \"@openzeppelin/contracts/utils/Base64.sol\":1682:3085  for {... */\n      jump(tag_201)\n    tag_203:\n        /* \"@openzeppelin/contracts/utils/Base64.sol\":1686:1790  {... */\n      pop\n      pop\n        /* \"@openzeppelin/contracts/utils/Base64.sol\":3243:3244  3 */\n      0x03\n        /* \"@openzeppelin/contracts/utils/Base64.sol\":3236:3240  data */\n      dup7\n        /* \"@openzeppelin/contracts/utils/Base64.sol\":3230:3241  mload(data) */\n      mload\n        /* \"@openzeppelin/contracts/utils/Base64.sol\":3226:3245  mod(mload(data), 3) */\n      mod\n        /* \"@openzeppelin/contracts/utils/Base64.sol\":3263:3264  1 */\n      0x01\n        /* \"@openzeppelin/contracts/utils/Base64.sol\":3258:3378  case 1 {... */\n      dup2\n      eq\n      tag_205\n      jumpi\n        /* \"@openzeppelin/contracts/utils/Base64.sol\":3396:3397  2 */\n      0x02\n        /* \"@openzeppelin/contracts/utils/Base64.sol\":3391:3462  case 2 {... */\n      dup2\n      eq\n      tag_206\n      jumpi\n        /* \"@openzeppelin/contracts/utils/Base64.sol\":3219:3462  switch mod(mload(data), 3)... */\n      jump(tag_204)\n        /* \"@openzeppelin/contracts/utils/Base64.sol\":3258:3378  case 1 {... */\n    tag_205:\n        /* \"@openzeppelin/contracts/utils/Base64.sol\":3310:3314  0x3d */\n      0x3d\n        /* \"@openzeppelin/contracts/utils/Base64.sol\":3306:3307  1 */\n      0x01\n        /* \"@openzeppelin/contracts/utils/Base64.sol\":3295:3304  resultPtr */\n      dup4\n        /* \"@openzeppelin/contracts/utils/Base64.sol\":3291:3308  sub(resultPtr, 1) */\n      sub\n        /* \"@openzeppelin/contracts/utils/Base64.sol\":3283:3315  mstore8(sub(resultPtr, 1), 0x3d) */\n      mstore8\n        /* \"@openzeppelin/contracts/utils/Base64.sol\":3359:3363  0x3d */\n      0x3d\n        /* \"@openzeppelin/contracts/utils/Base64.sol\":3355:3356  2 */\n      0x02\n        /* \"@openzeppelin/contracts/utils/Base64.sol\":3344:3353  resultPtr */\n      dup4\n        /* \"@openzeppelin/contracts/utils/Base64.sol\":3340:3357  sub(resultPtr, 2) */\n      sub\n        /* \"@openzeppelin/contracts/utils/Base64.sol\":3332:3364  mstore8(sub(resultPtr, 2), 0x3d) */\n      mstore8\n        /* \"@openzeppelin/contracts/utils/Base64.sol\":3258:3378  case 1 {... */\n      jump(tag_204)\n        /* \"@openzeppelin/contracts/utils/Base64.sol\":3391:3462  case 2 {... */\n    tag_206:\n        /* \"@openzeppelin/contracts/utils/Base64.sol\":3443:3447  0x3d */\n      0x3d\n        /* \"@openzeppelin/contracts/utils/Base64.sol\":3439:3440  1 */\n      0x01\n        /* \"@openzeppelin/contracts/utils/Base64.sol\":3428:3437  resultPtr */\n      dup4\n        /* \"@openzeppelin/contracts/utils/Base64.sol\":3424:3441  sub(resultPtr, 1) */\n      sub\n        /* \"@openzeppelin/contracts/utils/Base64.sol\":3416:3448  mstore8(sub(resultPtr, 1), 0x3d) */\n      mstore8\n        /* \"@openzeppelin/contracts/utils/Base64.sol\":3219:3462  switch mod(mload(data), 3)... */\n    tag_204:\n      pop\n        /* \"@openzeppelin/contracts/utils/Base64.sol\":1399:3472  {... */\n      pop\n      pop\n        /* \"@openzeppelin/contracts/utils/Base64.sol\":3489:3495  result */\n      dup1\n        /* \"@openzeppelin/contracts/utils/Base64.sol\":3482:3495  return result */\n      swap3\n      pop\n      pop\n      pop\n        /* \"@openzeppelin/contracts/utils/Base64.sol\":476:3502  function encode(bytes memory data) internal pure returns (string memory) {... */\n    tag_189:\n      swap2\n      swap1\n      pop\n      jump\t// out\n        /* \"@openzeppelin/contracts/token/ERC721/ERC721.sol\":8838:9633  function _update(address to, uint256 tokenId, address auth) internal virtual returns (address) {... */\n    tag_124:\n        /* \"@openzeppelin/contracts/token/ERC721/ERC721.sol\":8924:8931  address */\n      0x00\n        /* \"@openzeppelin/contracts/token/ERC721/ERC721.sol\":8943:8955  address from */\n      dup1\n        /* \"@openzeppelin/contracts/token/ERC721/ERC721.sol\":8958:8975  _ownerOf(tokenId) */\n      tag_208\n        /* \"@openzeppelin/contracts/token/ERC721/ERC721.sol\":8967:8974  tokenId */\n      dup5\n        /* \"@openzeppelin/contracts/token/ERC721/ERC721.sol\":8958:8966  _ownerOf */\n      tag_181\n        /* \"@openzeppelin/contracts/token/ERC721/ERC721.sol\":8958:8975  _ownerOf(tokenId) */\n      jump\t// in\n    tag_208:\n        /* \"@openzeppelin/contracts/token/ERC721/ERC721.sol\":8943:8975  address from = _ownerOf(tokenId) */\n      swap1\n      pop\n        /* \"@openzeppelin/contracts/token/ERC721/ERC721.sol\":9051:9052  0 */\n      0x00\n        /* \"@openzeppelin/contracts/token/ERC721/ERC721.sol\":9035:9053  auth != address(0) */\n      0xffffffffffffffffffffffffffffffffffffffff\n      and\n        /* \"@openzeppelin/contracts/token/ERC721/ERC721.sol\":9035:9039  auth */\n      dup4\n        /* \"@openzeppelin/contracts/token/ERC721/ERC721.sol\":9035:9053  auth != address(0) */\n      0xffffffffffffffffffffffffffffffffffffffff\n      and\n      eq\n        /* \"@openzeppelin/contracts/token/ERC721/ERC721.sol\":9031:9117  if (auth != address(0)) {... */\n      tag_209\n      jumpi\n        /* \"@openzeppelin/contracts/token/ERC721/ERC721.sol\":9069:9106  _checkAuthorized(from, auth, tokenId) */\n      tag_210\n        /* \"@openzeppelin/contracts/token/ERC721/ERC721.sol\":9086:9090  from */\n      dup2\n        /* \"@openzeppelin/contracts/token/ERC721/ERC721.sol\":9092:9096  auth */\n      dup5\n        /* \"@openzeppelin/contracts/token/ERC721/ERC721.sol\":9098:9105  tokenId */\n      dup7\n        /* \"@openzeppelin/contracts/token/ERC721/ERC721.sol\":9069:9085  _checkAuthorized */\n      tag_211\n        /* \"@openzeppelin/contracts/token/ERC721/ERC721.sol\":9069:9106  _checkAuthorized(from, auth, tokenId) */\n      jump\t// in\n    tag_210:\n        /* \"@openzeppelin/contracts/token/ERC721/ERC721.sol\":9031:9117  if (auth != address(0)) {... */\n    tag_209:\n        /* \"@openzeppelin/contracts/token/ERC721/ERC721.sol\":9177:9178  0 */\n      0x00\n        /* \"@openzeppelin/contracts/token/ERC721/ERC721.sol\":9161:9179  from != address(0) */\n      0xffffffffffffffffffffffffffffffffffffffff\n      and\n        /* \"@openzeppelin/contracts/token/ERC721/ERC721.sol\":9161:9165  from */\n      dup2\n        /* \"@openzeppelin/contracts/token/ERC721/ERC721.sol\":9161:9179  from != address(0) */\n      0xffffffffffffffffffffffffffffffffffffffff\n      and\n      eq\n        /* \"@openzeppelin/contracts/token/ERC721/ERC721.sol\":9157:9413  if (from != address(0)) {... */\n      tag_212\n      jumpi\n        /* \"@openzeppelin/contracts/token/ERC721/ERC721.sol\":9277:9325  _approve(address(0), tokenId, address(0), false) */\n      tag_213\n        /* \"@openzeppelin/contracts/token/ERC721/ERC721.sol\":9294:9295  0 */\n      0x00\n        /* \"@openzeppelin/contracts/token/ERC721/ERC721.sol\":9298:9305  tokenId */\n      dup6\n        /* \"@openzeppelin/contracts/token/ERC721/ERC721.sol\":9315:9316  0 */\n      0x00\n        /* \"@openzeppelin/contracts/token/ERC721/ERC721.sol\":9319:9324  false */\n      dup1\n        /* \"@openzeppelin/contracts/token/ERC721/ERC721.sol\":9277:9285  _approve */\n      tag_188\n        /* \"@openzeppelin/contracts/token/ERC721/ERC721.sol\":9277:9325  _approve(address(0), tokenId, address(0), false) */\n      jump\t// in\n    tag_213:\n        /* \"@openzeppelin/contracts/token/ERC721/ERC721.sol\":9387:9388  1 */\n      0x01\n        /* \"@openzeppelin/contracts/token/ERC721/ERC721.sol\":9368:9377  _balances */\n      0x03\n        /* \"@openzeppelin/contracts/token/ERC721/ERC721.sol\":9368:9383  _balances[from] */\n      0x00\n        /* \"@openzeppelin/contracts/token/ERC721/ERC721.sol\":9378:9382  from */\n      dup4\n        /* \"@openzeppelin/contracts/token/ERC721/ERC721.sol\":9368:9383  _balances[from] */\n      0xffffffffffffffffffffffffffffffffffffffff\n      and\n      0xffffffffffffffffffffffffffffffffffffffff\n      and\n      dup2\n      mstore\n      0x20\n      add\n      swap1\n      dup2\n      mstore\n      0x20\n      add\n      0x00\n      keccak256\n      0x00\n        /* \"@openzeppelin/contracts/token/ERC721/ERC721.sol\":9368:9388  _balances[from] -= 1 */\n      dup3\n      dup3\n      sload\n      sub\n      swap3\n      pop\n      pop\n      dup2\n      swap1\n      sstore\n      pop\n        /* \"@openzeppelin/contracts/token/ERC721/ERC721.sol\":9157:9413  if (from != address(0)) {... */\n    tag_212:\n        /* \"@openzeppelin/contracts/token/ERC721/ERC721.sol\":9441:9442  0 */\n      0x00\n        /* \"@openzeppelin/contracts/token/ERC721/ERC721.sol\":9427:9443  to != address(0) */\n      0xffffffffffffffffffffffffffffffffffffffff\n      and\n        /* \"@openzeppelin/contracts/token/ERC721/ERC721.sol\":9427:9429  to */\n      dup6\n        /* \"@openzeppelin/contracts/token/ERC721/ERC721.sol\":9427:9443  to != address(0) */\n      0xffffffffffffffffffffffffffffffffffffffff\n      and\n      eq\n        /* \"@openzeppelin/contracts/token/ERC721/ERC721.sol\":9423:9530  if (to != address(0)) {... */\n      tag_214\n      jumpi\n        /* \"@openzeppelin/contracts/token/ERC721/ERC721.sol\":9504:9505  1 */\n      0x01\n        /* \"@openzeppelin/contracts/token/ERC721/ERC721.sol\":9487:9496  _balances */\n      0x03\n        /* \"@openzeppelin/contracts/token/ERC721/ERC721.sol\":9487:9500  _balances[to] */\n      0x00\n        /* \"@openzeppelin/contracts/token/ERC721/ERC721.sol\":9497:9499  to */\n      dup8\n        /* \"@openzeppelin/contracts/token/ERC721/ERC721.sol\":9487:9500  _balances[to] */\n      0xffffffffffffffffffffffffffffffffffffffff\n      and\n      0xffffffffffffffffffffffffffffffffffffffff\n      and\n      dup2\n      mstore\n      0x20\n      add\n      swap1\n      dup2\n      mstore\n      0x20\n      add\n      0x00\n      keccak256\n      0x00\n        /* \"@openzeppelin/contracts/token/ERC721/ERC721.sol\":9487:9505  _balances[to] += 1 */\n      dup3\n      dup3\n      sload\n      add\n      swap3\n      pop\n      pop\n      dup2\n      swap1\n      sstore\n      pop\n        /* \"@openzeppelin/contracts/token/ERC721/ERC721.sol\":9423:9530  if (to != address(0)) {... */\n    tag_214:\n        /* \"@openzeppelin/contracts/token/ERC721/ERC721.sol\":9559:9561  to */\n      dup5\n        /* \"@openzeppelin/contracts/token/ERC721/ERC721.sol\":9540:9547  _owners */\n      0x02\n        /* \"@openzeppelin/contracts/token/ERC721/ERC721.sol\":9540:9556  _owners[tokenId] */\n      0x00\n        /* \"@openzeppelin/contracts/token/ERC721/ERC721.sol\":9548:9555  tokenId */\n      dup7\n        /* \"@openzeppelin/contracts/token/ERC721/ERC721.sol\":9540:9556  _owners[tokenId] */\n      dup2\n      mstore\n      0x20\n      add\n      swap1\n      dup2\n      mstore\n      0x20\n      add\n      0x00\n      keccak256\n      0x00\n        /* \"@openzeppelin/contracts/token/ERC721/ERC721.sol\":9540:9561  _owners[tokenId] = to */\n      0x0100\n      exp\n      dup2\n      sload\n      dup2\n      0xffffffffffffffffffffffffffffffffffffffff\n      mul\n      not\n      and\n      swap1\n      dup4\n      0xffffffffffffffffffffffffffffffffffffffff\n      and\n      mul\n      or\n      swap1\n      sstore\n      pop\n        /* \"@openzeppelin/contracts/token/ERC721/ERC721.sol\":9596:9603  tokenId */\n      dup4\n        /* \"@openzeppelin/contracts/token/ERC721/ERC721.sol\":9592:9594  to */\n      dup6\n        /* \"@openzeppelin/contracts/token/ERC721/ERC721.sol\":9577:9604  Transfer(from, to, tokenId) */\n      0xffffffffffffffffffffffffffffffffffffffff\n      and\n        /* \"@openzeppelin/contracts/token/ERC721/ERC721.sol\":9586:9590  from */\n      dup3\n        /* \"@openzeppelin/contracts/token/ERC721/ERC721.sol\":9577:9604  Transfer(from, to, tokenId) */\n      0xffffffffffffffffffffffffffffffffffffffff\n      and\n      0xddf252ad1be2c89b69c2b068fc378daa952ba7f163c4a11628f55a4df523b3ef\n      mload(0x40)\n      mload(0x40)\n      dup1\n      swap2\n      sub\n      swap1\n      log4\n        /* \"@openzeppelin/contracts/token/ERC721/ERC721.sol\":9622:9626  from */\n      dup1\n        /* \"@openzeppelin/contracts/token/ERC721/ERC721.sol\":9615:9626  return from */\n      swap2\n      pop\n      pop\n        /* \"@openzeppelin/contracts/token/ERC721/ERC721.sol\":8838:9633  function _update(address to, uint256 tokenId, address auth) internal virtual returns (address) {... */\n      swap4\n      swap3\n      pop\n      pop\n      pop\n      jump\t// out\n        /* \"@openzeppelin/contracts/token/ERC721/ERC721.sol\":15591:15903  function _setApprovalForAll(address owner, address operator, bool approved) internal virtual {... */\n    tag_144:\n        /* \"@openzeppelin/contracts/token/ERC721/ERC721.sol\":15718:15719  0 */\n      0x00\n        /* \"@openzeppelin/contracts/token/ERC721/ERC721.sol\":15698:15720  operator == address(0) */\n      0xffffffffffffffffffffffffffffffffffffffff\n      and\n        /* \"@openzeppelin/contracts/token/ERC721/ERC721.sol\":15698:15706  operator */\n      dup3\n        /* \"@openzeppelin/contracts/token/ERC721/ERC721.sol\":15698:15720  operator == address(0) */\n      0xffffffffffffffffffffffffffffffffffffffff\n      and\n      sub\n        /* \"@openzeppelin/contracts/token/ERC721/ERC721.sol\":15694:15785  if (operator == address(0)) {... */\n      tag_216\n      jumpi\n        /* \"@openzeppelin/contracts/token/ERC721/ERC721.sol\":15765:15773  operator */\n      dup2\n        /* \"@openzeppelin/contracts/token/ERC721/ERC721.sol\":15743:15774  ERC721InvalidOperator(operator) */\n      mload(0x40)\n      0x5b08ba1800000000000000000000000000000000000000000000000000000000\n      dup2\n      mstore\n      0x04\n      add\n      tag_217\n      swap2\n      swap1\n      tag_37\n      jump\t// in\n    tag_217:\n      mload(0x40)\n      dup1\n      swap2\n      sub\n      swap1\n      revert\n        /* \"@openzeppelin/contracts/token/ERC721/ERC721.sol\":15694:15785  if (operator == address(0)) {... */\n    tag_216:\n        /* \"@openzeppelin/contracts/token/ERC721/ERC721.sol\":15832:15840  approved */\n      dup1\n        /* \"@openzeppelin/contracts/token/ERC721/ERC721.sol\":15794:15812  _operatorApprovals */\n      0x05\n        /* \"@openzeppelin/contracts/token/ERC721/ERC721.sol\":15794:15819  _operatorApprovals[owner] */\n      0x00\n        /* \"@openzeppelin/contracts/token/ERC721/ERC721.sol\":15813:15818  owner */\n      dup6\n        /* \"@openzeppelin/contracts/token/ERC721/ERC721.sol\":15794:15819  _operatorApprovals[owner] */\n      0xffffffffffffffffffffffffffffffffffffffff\n      and\n      0xffffffffffffffffffffffffffffffffffffffff\n      and\n      dup2\n      mstore\n      0x20\n      add\n      swap1\n      dup2\n      mstore\n      0x20\n      add\n      0x00\n      keccak256\n        /* \"@openzeppelin/contracts/token/ERC721/ERC721.sol\":15794:15829  _operatorApprovals[owner][operator] */\n      0x00\n        /* \"@openzeppelin/contracts/token/ERC721/ERC721.sol\":15820:15828  operator */\n      dup5\n        /* \"@openzeppelin/contracts/token/ERC721/ERC721.sol\":15794:15829  _operatorApprovals[owner][operator] */\n      0xffffffffffffffffffffffffffffffffffffffff\n      and\n      0xffffffffffffffffffffffffffffffffffffffff\n      and\n      dup2\n      mstore\n      0x20\n      add\n      swap1\n      dup2\n      mstore\n      0x20\n      add\n      0x00\n      keccak256\n      0x00\n        /* \"@openzeppelin/contracts/token/ERC721/ERC721.sol\":15794:15840  _operatorApprovals[owner][operator] = approved */\n      0x0100\n      exp\n      dup2\n      sload\n      dup2\n      0xff\n      mul\n      not\n      and\n      swap1\n      dup4\n      iszero\n      iszero\n      mul\n      or\n      swap1\n      sstore\n      pop\n        /* \"@openzeppelin/contracts/token/ERC721/ERC721.sol\":15877:15885  operator */\n      dup2\n        /* \"@openzeppelin/contracts/token/ERC721/ERC721.sol\":15855:15896  ApprovalForAll(owner, operator, approved) */\n      0xffffffffffffffffffffffffffffffffffffffff\n      and\n        /* \"@openzeppelin/contracts/token/ERC721/ERC721.sol\":15870:15875  owner */\n      dup4\n        /* \"@openzeppelin/contracts/token/ERC721/ERC721.sol\":15855:15896  ApprovalForAll(owner, operator, approved) */\n      0xffffffffffffffffffffffffffffffffffffffff\n      and\n      0x17307eab39ab6107e8899845ad3d59bd9653f200f220920489ca2b5937696c31\n        /* \"@openzeppelin/contracts/token/ERC721/ERC721.sol\":15887:15895  approved */\n      dup4\n        /* \"@openzeppelin/contracts/token/ERC721/ERC721.sol\":15855:15896  ApprovalForAll(owner, operator, approved) */\n      mload(0x40)\n      tag_218\n      swap2\n      swap1\n      tag_27\n      jump\t// in\n    tag_218:\n      mload(0x40)\n      dup1\n      swap2\n      sub\n      swap1\n      log3\n        /* \"@openzeppelin/contracts/token/ERC721/ERC721.sol\":15591:15903  function _setApprovalForAll(address owner, address operator, bool approved) internal virtual {... */\n      pop\n      pop\n      pop\n      jump\t// out\n        /* \"@openzeppelin/contracts/token/ERC721/ERC721.sol\":16918:17700  function _checkOnERC721Received(address from, address to, uint256 tokenId, bytes memory data) private {... */\n    tag_148:\n        /* \"@openzeppelin/contracts/token/ERC721/ERC721.sol\":17051:17052  0 */\n      0x00\n        /* \"@openzeppelin/contracts/token/ERC721/ERC721.sol\":17034:17036  to */\n      dup4\n        /* \"@openzeppelin/contracts/token/ERC721/ERC721.sol\":17034:17048  to.code.length */\n      0xffffffffffffffffffffffffffffffffffffffff\n      and\n      extcodesize\n        /* \"@openzeppelin/contracts/token/ERC721/ERC721.sol\":17034:17052  to.code.length > 0 */\n      gt\n        /* \"@openzeppelin/contracts/token/ERC721/ERC721.sol\":17030:17694  if (to.code.length > 0) {... */\n      iszero\n      tag_220\n      jumpi\n        /* \"@openzeppelin/contracts/token/ERC721/ERC721.sol\":17088:17090  to */\n      dup3\n        /* \"@openzeppelin/contracts/token/ERC721/ERC721.sol\":17072:17108  IERC721Receiver(to).onERC721Received */\n      0xffffffffffffffffffffffffffffffffffffffff\n      and\n      0x150b7a02\n        /* \"@openzeppelin/contracts/token/ERC721/ERC721.sol\":17109:17121  _msgSender() */\n      tag_221\n        /* \"@openzeppelin/contracts/token/ERC721/ERC721.sol\":17109:17119  _msgSender */\n      tag_110\n        /* \"@openzeppelin/contracts/token/ERC721/ERC721.sol\":17109:17121  _msgSender() */\n      jump\t// in\n    tag_221:\n        /* \"@openzeppelin/contracts/token/ERC721/ERC721.sol\":17123:17127  from */\n      dup7\n        /* \"@openzeppelin/contracts/token/ERC721/ERC721.sol\":17129:17136  tokenId */\n      dup6\n        /* \"@openzeppelin/contracts/token/ERC721/ERC721.sol\":17138:17142  data */\n      dup6\n        /* \"@openzeppelin/contracts/token/ERC721/ERC721.sol\":17072:17143  IERC721Receiver(to).onERC721Received(_msgSender(), from, tokenId, data) */\n      mload(0x40)\n      dup6\n      0xffffffff\n      and\n      0xe0\n      shl\n      dup2\n      mstore\n      0x04\n      add\n      tag_222\n      swap5\n      swap4\n      swap3\n      swap2\n      swap1\n      tag_223\n      jump\t// in\n    tag_222:\n      0x20\n      mload(0x40)\n      dup1\n      dup4\n      sub\n      dup2\n      0x00\n      dup8\n      gas\n      call\n      swap3\n      pop\n      pop\n      pop\n      dup1\n      iszero\n      tag_224\n      jumpi\n      pop\n      mload(0x40)\n      returndatasize\n      not(0x1f)\n      0x1f\n      dup3\n      add\n      and\n      dup3\n      add\n      dup1\n      0x40\n      mstore\n      pop\n      dup2\n      add\n      swap1\n      tag_225\n      swap2\n      swap1\n      tag_226\n      jump\t// in\n    tag_225:\n      0x01\n    tag_224:\n        /* \"@openzeppelin/contracts/token/ERC721/ERC721.sol\":17068:17684  try IERC721Receiver(to).onERC721Received(_msgSender(), from, tokenId, data) returns (bytes4 retval) {... */\n      tag_227\n      jumpi\n      returndatasize\n      dup1\n      0x00\n      dup2\n      eq\n      tag_232\n      jumpi\n      mload(0x40)\n      swap2\n      pop\n      and(add(returndatasize, 0x3f), not(0x1f))\n      dup3\n      add\n      0x40\n      mstore\n      returndatasize\n      dup3\n      mstore\n      returndatasize\n      0x00\n      0x20\n      dup5\n      add\n      returndatacopy\n      jump(tag_231)\n    tag_232:\n      0x60\n      swap2\n      pop\n    tag_231:\n      pop\n        /* \"@openzeppelin/contracts/token/ERC721/ERC721.sol\":17398:17399  0 */\n      0x00\n        /* \"@openzeppelin/contracts/token/ERC721/ERC721.sol\":17381:17387  reason */\n      dup2\n        /* \"@openzeppelin/contracts/token/ERC721/ERC721.sol\":17381:17394  reason.length */\n      mload\n        /* \"@openzeppelin/contracts/token/ERC721/ERC721.sol\":17381:17399  reason.length == 0 */\n      sub\n        /* \"@openzeppelin/contracts/token/ERC721/ERC721.sol\":17377:17670  if (reason.length == 0) {... */\n      tag_233\n      jumpi\n        /* \"@openzeppelin/contracts/token/ERC721/ERC721.sol\":17452:17454  to */\n      dup4\n        /* \"@openzeppelin/contracts/token/ERC721/ERC721.sol\":17430:17455  ERC721InvalidReceiver(to) */\n      mload(0x40)\n      0x64a0ae9200000000000000000000000000000000000000000000000000000000\n      dup2\n      mstore\n      0x04\n      add\n      tag_234\n      swap2\n      swap1\n      tag_37\n      jump\t// in\n    tag_234:\n      mload(0x40)\n      dup1\n      swap2\n      sub\n      swap1\n      revert\n        /* \"@openzeppelin/contracts/token/ERC721/ERC721.sol\":17377:17670  if (reason.length == 0) {... */\n    tag_233:\n        /* \"@openzeppelin/contracts/token/ERC721/ERC721.sol\":17622:17628  reason */\n      dup1\n        /* \"@openzeppelin/contracts/token/ERC721/ERC721.sol\":17616:17629  mload(reason) */\n      mload\n        /* \"@openzeppelin/contracts/token/ERC721/ERC721.sol\":17607:17613  reason */\n      dup2\n        /* \"@openzeppelin/contracts/token/ERC721/ERC721.sol\":17603:17605  32 */\n      0x20\n        /* \"@openzeppelin/contracts/token/ERC721/ERC721.sol\":17599:17614  add(32, reason) */\n      add\n        /* \"@openzeppelin/contracts/token/ERC721/ERC721.sol\":17592:17630  revert(add(32, reason), mload(reason)) */\n      revert\n        /* \"@openzeppelin/contracts/token/ERC721/ERC721.sol\":17068:17684  try IERC721Receiver(to).onERC721Received(_msgSender(), from, tokenId, data) returns (bytes4 retval) {... */\n    tag_227:\n        /* \"@openzeppelin/contracts/token/ERC721/ERC721.sol\":17200:17241  IERC721Receiver.onERC721Received.selector */\n      shl(0xe0, 0x150b7a02)\n        /* \"@openzeppelin/contracts/token/ERC721/ERC721.sol\":17190:17241  retval != IERC721Receiver.onERC721Received.selector */\n      not(0xffffffffffffffffffffffffffffffffffffffffffffffffffffffff)\n      and\n        /* \"@openzeppelin/contracts/token/ERC721/ERC721.sol\":17190:17196  retval */\n      dup2\n        /* \"@openzeppelin/contracts/token/ERC721/ERC721.sol\":17190:17241  retval != IERC721Receiver.onERC721Received.selector */\n      not(0xffffffffffffffffffffffffffffffffffffffffffffffffffffffff)\n      and\n      eq\n        /* \"@openzeppelin/contracts/token/ERC721/ERC721.sol\":17186:17316  if (retval != IERC721Receiver.onERC721Received.selector) {... */\n      tag_237\n      jumpi\n        /* \"@openzeppelin/contracts/token/ERC721/ERC721.sol\":17294:17296  to */\n      dup4\n        /* \"@openzeppelin/contracts/token/ERC721/ERC721.sol\":17272:17297  ERC721InvalidReceiver(to) */\n      mload(0x40)\n      0x64a0ae9200000000000000000000000000000000000000000000000000000000\n      dup2\n      mstore\n      0x04\n      add\n      tag_238\n      swap2\n      swap1\n      tag_37\n      jump\t// in\n    tag_238:\n      mload(0x40)\n      dup1\n      swap2\n      sub\n      swap1\n      revert\n        /* \"@openzeppelin/contracts/token/ERC721/ERC721.sol\":17186:17316  if (retval != IERC721Receiver.onERC721Received.selector) {... */\n    tag_237:\n        /* \"@openzeppelin/contracts/token/ERC721/ERC721.sol\":17144:17330  returns (bytes4 retval) {... */\n      pop\n        /* \"@openzeppelin/contracts/token/ERC721/ERC721.sol\":17030:17694  if (to.code.length > 0) {... */\n    tag_220:\n        /* \"@openzeppelin/contracts/token/ERC721/ERC721.sol\":16918:17700  function _checkOnERC721Received(address from, address to, uint256 tokenId, bytes memory data) private {... */\n      pop\n      pop\n      pop\n      pop\n      jump\t// out\n        /* \"@openzeppelin/contracts/token/ERC721/ERC721.sol\":3174:3266  function _baseURI() internal view virtual returns (string memory) {... */\n    tag_157:\n        /* \"@openzeppelin/contracts/token/ERC721/ERC721.sol\":3225:3238  string memory */\n      0x60\n        /* \"@openzeppelin/contracts/token/ERC721/ERC721.sol\":3250:3259  return \"\" */\n      mload(0x40)\n      dup1\n      0x20\n      add\n      0x40\n      mstore\n      dup1\n      0x00\n      dup2\n      mstore\n      pop\n      swap1\n      pop\n        /* \"@openzeppelin/contracts/token/ERC721/ERC721.sol\":3174:3266  function _baseURI() internal view virtual returns (string memory) {... */\n      swap1\n      jump\t// out\n        /* \"@openzeppelin/contracts/token/ERC721/ERC721.sol\":2677:2932  function tokenURI(uint256 tokenId) public view virtual returns (string memory) {... */\n    tag_162:\n        /* \"@openzeppelin/contracts/token/ERC721/ERC721.sol\":2741:2754  string memory */\n      0x60\n        /* \"@openzeppelin/contracts/token/ERC721/ERC721.sol\":2766:2788  _requireOwned(tokenId) */\n      tag_241\n        /* \"@openzeppelin/contracts/token/ERC721/ERC721.sol\":2780:2787  tokenId */\n      dup3\n        /* \"@openzeppelin/contracts/token/ERC721/ERC721.sol\":2766:2779  _requireOwned */\n      tag_104\n        /* \"@openzeppelin/contracts/token/ERC721/ERC721.sol\":2766:2788  _requireOwned(tokenId) */\n      jump\t// in\n    tag_241:\n      pop\n        /* \"@openzeppelin/contracts/token/ERC721/ERC721.sol\":2799:2820  string memory baseURI */\n      0x00\n        /* \"@openzeppelin/contracts/token/ERC721/ERC721.sol\":2823:2833  _baseURI() */\n      tag_242\n        /* \"@openzeppelin/contracts/token/ERC721/ERC721.sol\":2823:2831  _baseURI */\n      tag_157\n        /* \"@openzeppelin/contracts/token/ERC721/ERC721.sol\":2823:2833  _baseURI() */\n      jump\t// in\n    tag_242:\n        /* \"@openzeppelin/contracts/token/ERC721/ERC721.sol\":2799:2833  string memory baseURI = _baseURI() */\n      swap1\n      pop\n        /* \"@openzeppelin/contracts/token/ERC721/ERC721.sol\":2874:2875  0 */\n      0x00\n        /* \"@openzeppelin/contracts/token/ERC721/ERC721.sol\":2856:2863  baseURI */\n      dup2\n        /* \"@openzeppelin/contracts/token/ERC721/ERC721.sol\":2850:2871  bytes(baseURI).length */\n      mload\n        /* \"@openzeppelin/contracts/token/ERC721/ERC721.sol\":2850:2875  bytes(baseURI).length > 0 */\n      gt\n        /* \"@openzeppelin/contracts/token/ERC721/ERC721.sol\":2850:2925  bytes(baseURI).length > 0 ? string.concat(baseURI, tokenId.toString()) : \"\" */\n      tag_243\n      jumpi\n      mload(0x40)\n      dup1\n      0x20\n      add\n      0x40\n      mstore\n      dup1\n      0x00\n      dup2\n      mstore\n      pop\n      jump(tag_244)\n    tag_243:\n        /* \"@openzeppelin/contracts/token/ERC721/ERC721.sol\":2892:2899  baseURI */\n      dup1\n        /* \"@openzeppelin/contracts/token/ERC721/ERC721.sol\":2901:2919  tokenId.toString() */\n      tag_245\n        /* \"@openzeppelin/contracts/token/ERC721/ERC721.sol\":2901:2908  tokenId */\n      dup5\n        /* \"@openzeppelin/contracts/token/ERC721/ERC721.sol\":2901:2917  tokenId.toString */\n      tag_246\n        /* \"@openzeppelin/contracts/token/ERC721/ERC721.sol\":2901:2919  tokenId.toString() */\n      jump\t// in\n    tag_245:\n        /* \"@openzeppelin/contracts/token/ERC721/ERC721.sol\":2878:2920  string.concat(baseURI, tokenId.toString()) */\n      add(0x20, mload(0x40))\n      tag_247\n      swap3\n      swap2\n      swap1\n      tag_118\n      jump\t// in\n    tag_247:\n      mload(0x40)\n      0x20\n      dup2\n      dup4\n      sub\n      sub\n      dup2\n      mstore\n      swap1\n      0x40\n      mstore\n        /* \"@openzeppelin/contracts/token/ERC721/ERC721.sol\":2850:2925  bytes(baseURI).length > 0 ? string.concat(baseURI, tokenId.toString()) : \"\" */\n    tag_244:\n        /* \"@openzeppelin/contracts/token/ERC721/ERC721.sol\":2843:2925  return bytes(baseURI).length > 0 ? string.concat(baseURI, tokenId.toString()) : \"\" */\n      swap2\n      pop\n      pop\n        /* \"@openzeppelin/contracts/token/ERC721/ERC721.sol\":2677:2932  function tokenURI(uint256 tokenId) public view virtual returns (string memory) {... */\n      swap2\n      swap1\n      pop\n      jump\t// out\n        /* \"@openzeppelin/contracts/utils/Counters.sol\":945:1068  function increment(Counter storage counter) internal {... */\n    tag_166:\n        /* \"@openzeppelin/contracts/utils/Counters.sol\":1050:1051  1 */\n      0x01\n        /* \"@openzeppelin/contracts/utils/Counters.sol\":1032:1039  counter */\n      dup2\n        /* \"@openzeppelin/contracts/utils/Counters.sol\":1032:1046  counter._value */\n      0x00\n      add\n      0x00\n        /* \"@openzeppelin/contracts/utils/Counters.sol\":1032:1051  counter._value += 1 */\n      dup3\n      dup3\n      sload\n      add\n      swap3\n      pop\n      pop\n      dup2\n      swap1\n      sstore\n      pop\n        /* \"@openzeppelin/contracts/utils/Counters.sol\":945:1068  function increment(Counter storage counter) internal {... */\n      pop\n      jump\t// out\n        /* \"@openzeppelin/contracts/utils/Counters.sol\":827:939  function current(Counter storage counter) internal view returns (uint256) {... */\n    tag_168:\n        /* \"@openzeppelin/contracts/utils/Counters.sol\":892:899  uint256 */\n      0x00\n        /* \"@openzeppelin/contracts/utils/Counters.sol\":918:925  counter */\n      dup2\n        /* \"@openzeppelin/contracts/utils/Counters.sol\":918:932  counter._value */\n      0x00\n      add\n      sload\n        /* \"@openzeppelin/contracts/utils/Counters.sol\":911:932  return counter._value */\n      swap1\n      pop\n        /* \"@openzeppelin/contracts/utils/Counters.sol\":827:939  function current(Counter storage counter) internal view returns (uint256) {... */\n      swap2\n      swap1\n      pop\n      jump\t// out\n        /* \"@openzeppelin/contracts/token/ERC721/ERC721.sol\":10633:10733  function _safeMint(address to, uint256 tokenId) internal {... */\n    tag_170:\n        /* \"@openzeppelin/contracts/token/ERC721/ERC721.sol\":10700:10726  _safeMint(to, tokenId, \"\") */\n      tag_251\n        /* \"@openzeppelin/contracts/token/ERC721/ERC721.sol\":10710:10712  to */\n      dup3\n        /* \"@openzeppelin/contracts/token/ERC721/ERC721.sol\":10714:10721  tokenId */\n      dup3\n        /* \"@openzeppelin/contracts/token/ERC721/ERC721.sol\":10700:10726  _safeMint(to, tokenId, \"\") */\n      mload(0x40)\n      dup1\n      0x20\n      add\n      0x40\n      mstore\n      dup1\n      0x00\n      dup2\n      mstore\n      pop\n        /* \"@openzeppelin/contracts/token/ERC721/ERC721.sol\":10700:10709  _safeMint */\n      tag_252\n        /* \"@openzeppelin/contracts/token/ERC721/ERC721.sol\":10700:10726  _safeMint(to, tokenId, \"\") */\n      jump\t// in\n    tag_251:\n        /* \"@openzeppelin/contracts/token/ERC721/ERC721.sol\":10633:10733  function _safeMint(address to, uint256 tokenId) internal {... */\n      pop\n      pop\n      jump\t// out\n        /* \"@openzeppelin/contracts/token/ERC721/extensions/ERC721URIStorage.sol\":1922:2089  function _setTokenURI(uint256 tokenId, string memory _tokenURI) internal virtual {... */\n    tag_172:\n        /* \"@openzeppelin/contracts/token/ERC721/extensions/ERC721URIStorage.sol\":2035:2044  _tokenURI */\n      dup1\n        /* \"@openzeppelin/contracts/token/ERC721/extensions/ERC721URIStorage.sol\":2013:2023  _tokenURIs */\n      0x06\n        /* \"@openzeppelin/contracts/token/ERC721/extensions/ERC721URIStorage.sol\":2013:2032  _tokenURIs[tokenId] */\n      0x00\n        /* \"@openzeppelin/contracts/token/ERC721/extensions/ERC721URIStorage.sol\":2024:2031  tokenId */\n      dup5\n        /* \"@openzeppelin/contracts/token/ERC721/extensions/ERC721URIStorage.sol\":2013:2032  _tokenURIs[tokenId] */\n      dup2\n      mstore\n      0x20\n      add\n      swap1\n      dup2\n      mstore\n      0x20\n      add\n      0x00\n      keccak256\n        /* \"@openzeppelin/contracts/token/ERC721/extensions/ERC721URIStorage.sol\":2013:2044  _tokenURIs[tokenId] = _tokenURI */\n      swap1\n      dup2\n      tag_254\n      swap2\n      swap1\n      tag_255\n      jump\t// in\n    tag_254:\n      pop\n        /* \"@openzeppelin/contracts/token/ERC721/extensions/ERC721URIStorage.sol\":2059:2082  MetadataUpdate(tokenId) */\n      0xf8e1a15aba9398e019f0b49df1a4fde98ee17ae345cb5f6b5e2c27f5033e8ce7\n        /* \"@openzeppelin/contracts/token/ERC721/extensions/ERC721URIStorage.sol\":2074:2081  tokenId */\n      dup3\n        /* \"@openzeppelin/contracts/token/ERC721/extensions/ERC721URIStorage.sol\":2059:2082  MetadataUpdate(tokenId) */\n      mload(0x40)\n      tag_256\n      swap2\n      swap1\n      tag_63\n      jump\t// in\n    tag_256:\n      mload(0x40)\n      dup1\n      swap2\n      sub\n      swap1\n      log1\n        /* \"@openzeppelin/contracts/token/ERC721/extensions/ERC721URIStorage.sol\":1922:2089  function _setTokenURI(uint256 tokenId, string memory _tokenURI) internal virtual {... */\n      pop\n      pop\n      jump\t// out\n        /* \"@openzeppelin/contracts/utils/introspection/ERC165.sol\":762:908  function supportsInterface(bytes4 interfaceId) public view virtual returns (bool) {... */\n    tag_178:\n        /* \"@openzeppelin/contracts/utils/introspection/ERC165.sol\":838:842  bool */\n      0x00\n        /* \"@openzeppelin/contracts/utils/introspection/ERC165.sol\":876:901  type(IERC165).interfaceId */\n      0x01ffc9a700000000000000000000000000000000000000000000000000000000\n        /* \"@openzeppelin/contracts/utils/introspection/ERC165.sol\":861:901  interfaceId == type(IERC165).interfaceId */\n      not(0xffffffffffffffffffffffffffffffffffffffffffffffffffffffff)\n      and\n        /* \"@openzeppelin/contracts/utils/introspection/ERC165.sol\":861:872  interfaceId */\n      dup3\n        /* \"@openzeppelin/contracts/utils/introspection/ERC165.sol\":861:901  interfaceId == type(IERC165).interfaceId */\n      not(0xffffffffffffffffffffffffffffffffffffffffffffffffffffffff)\n      and\n      eq\n        /* \"@openzeppelin/contracts/utils/introspection/ERC165.sol\":854:901  return interfaceId == type(IERC165).interfaceId */\n      swap1\n      pop\n        /* \"@openzeppelin/contracts/utils/introspection/ERC165.sol\":762:908  function supportsInterface(bytes4 interfaceId) public view virtual returns (bool) {... */\n      swap2\n      swap1\n      pop\n      jump\t// out\n        /* \"@openzeppelin/contracts/token/ERC721/ERC721.sol\":5707:5822  function _ownerOf(uint256 tokenId) internal view virtual returns (address) {... */\n    tag_181:\n        /* \"@openzeppelin/contracts/token/ERC721/ERC721.sol\":5773:5780  address */\n      0x00\n        /* \"@openzeppelin/contracts/token/ERC721/ERC721.sol\":5799:5806  _owners */\n      0x02\n        /* \"@openzeppelin/contracts/token/ERC721/ERC721.sol\":5799:5815  _owners[tokenId] */\n      0x00\n        /* \"@openzeppelin/contracts/token/ERC721/ERC721.sol\":5807:5814  tokenId */\n      dup4\n        /* \"@openzeppelin/contracts/token/ERC721/ERC721.sol\":5799:5815  _owners[tokenId] */\n      dup2\n      mstore\n      0x20\n      add\n      swap1\n      dup2\n      mstore\n      0x20\n      add\n      0x00\n      keccak256\n      0x00\n      swap1\n      sload\n      swap1\n      0x0100\n      exp\n      swap1\n      div\n      0xffffffffffffffffffffffffffffffffffffffff\n      and\n        /* \"@openzeppelin/contracts/token/ERC721/ERC721.sol\":5792:5815  return _owners[tokenId] */\n      swap1\n      pop\n        /* \"@openzeppelin/contracts/token/ERC721/ERC721.sol\":5707:5822  function _ownerOf(uint256 tokenId) internal view virtual returns (address) {... */\n      swap2\n      swap1\n      pop\n      jump\t// out\n        /* \"@openzeppelin/contracts/token/ERC721/ERC721.sol\":14720:15382  function _approve(address to, uint256 tokenId, address auth, bool emitEvent) internal virtual {... */\n    tag_188:\n        /* \"@openzeppelin/contracts/token/ERC721/ERC721.sol\":14880:14889  emitEvent */\n      dup1\n        /* \"@openzeppelin/contracts/token/ERC721/ERC721.sol\":14880:14911  emitEvent || auth != address(0) */\n      dup1\n      tag_260\n      jumpi\n      pop\n        /* \"@openzeppelin/contracts/token/ERC721/ERC721.sol\":14909:14910  0 */\n      0x00\n        /* \"@openzeppelin/contracts/token/ERC721/ERC721.sol\":14893:14911  auth != address(0) */\n      0xffffffffffffffffffffffffffffffffffffffff\n      and\n        /* \"@openzeppelin/contracts/token/ERC721/ERC721.sol\":14893:14897  auth */\n      dup3\n        /* \"@openzeppelin/contracts/token/ERC721/ERC721.sol\":14893:14911  auth != address(0) */\n      0xffffffffffffffffffffffffffffffffffffffff\n      and\n      eq\n      iszero\n        /* \"@openzeppelin/contracts/token/ERC721/ERC721.sol\":14880:14911  emitEvent || auth != address(0) */\n    tag_260:\n        /* \"@openzeppelin/contracts/token/ERC721/ERC721.sol\":14876:15336  if (emitEvent || auth != address(0)) {... */\n      iszero\n      tag_261\n      jumpi\n        /* \"@openzeppelin/contracts/token/ERC721/ERC721.sol\":14927:14940  address owner */\n      0x00\n        /* \"@openzeppelin/contracts/token/ERC721/ERC721.sol\":14943:14965  _requireOwned(tokenId) */\n      tag_262\n        /* \"@openzeppelin/contracts/token/ERC721/ERC721.sol\":14957:14964  tokenId */\n      dup5\n        /* \"@openzeppelin/contracts/token/ERC721/ERC721.sol\":14943:14956  _requireOwned */\n      tag_104\n        /* \"@openzeppelin/contracts/token/ERC721/ERC721.sol\":14943:14965  _requireOwned(tokenId) */\n      jump\t// in\n    tag_262:\n        /* \"@openzeppelin/contracts/token/ERC721/ERC721.sol\":14927:14965  address owner = _requireOwned(tokenId) */\n      swap1\n      pop\n        /* \"@openzeppelin/contracts/token/ERC721/ERC721.sol\":15109:15110  0 */\n      0x00\n        /* \"@openzeppelin/contracts/token/ERC721/ERC721.sol\":15093:15111  auth != address(0) */\n      0xffffffffffffffffffffffffffffffffffffffff\n      and\n        /* \"@openzeppelin/contracts/token/ERC721/ERC721.sol\":15093:15097  auth */\n      dup4\n        /* \"@openzeppelin/contracts/token/ERC721/ERC721.sol\":15093:15111  auth != address(0) */\n      0xffffffffffffffffffffffffffffffffffffffff\n      and\n      eq\n      iszero\n        /* \"@openzeppelin/contracts/token/ERC721/ERC721.sol\":15093:15128  auth != address(0) && owner != auth */\n      dup1\n      iszero\n      tag_263\n      jumpi\n      pop\n        /* \"@openzeppelin/contracts/token/ERC721/ERC721.sol\":15124:15128  auth */\n      dup3\n        /* \"@openzeppelin/contracts/token/ERC721/ERC721.sol\":15115:15128  owner != auth */\n      0xffffffffffffffffffffffffffffffffffffffff\n      and\n        /* \"@openzeppelin/contracts/token/ERC721/ERC721.sol\":15115:15120  owner */\n      dup2\n        /* \"@openzeppelin/contracts/token/ERC721/ERC721.sol\":15115:15128  owner != auth */\n      0xffffffffffffffffffffffffffffffffffffffff\n      and\n      eq\n      iszero\n        /* \"@openzeppelin/contracts/token/ERC721/ERC721.sol\":15093:15128  auth != address(0) && owner != auth */\n    tag_263:\n        /* \"@openzeppelin/contracts/token/ERC721/ERC721.sol\":15093:15162  auth != address(0) && owner != auth && !isApprovedForAll(owner, auth) */\n      dup1\n      iszero\n      tag_264\n      jumpi\n      pop\n        /* \"@openzeppelin/contracts/token/ERC721/ERC721.sol\":15133:15162  isApprovedForAll(owner, auth) */\n      tag_265\n        /* \"@openzeppelin/contracts/token/ERC721/ERC721.sol\":15150:15155  owner */\n      dup2\n        /* \"@openzeppelin/contracts/token/ERC721/ERC721.sol\":15157:15161  auth */\n      dup5\n        /* \"@openzeppelin/contracts/token/ERC721/ERC721.sol\":15133:15149  isApprovedForAll */\n      tag_89\n        /* \"@openzeppelin/contracts/token/ERC721/ERC721.sol\":15133:15162  isApprovedForAll(owner, auth) */\n      jump\t// in\n    tag_265:\n        /* \"@openzeppelin/contracts/token/ERC721/ERC721.sol\":15132:15162  !isApprovedForAll(owner, auth) */\n      iszero\n        /* \"@openzeppelin/contracts/token/ERC721/ERC721.sol\":15093:15162  auth != address(0) && owner != auth && !isApprovedForAll(owner, auth) */\n    tag_264:\n        /* \"@openzeppelin/contracts/token/ERC721/ERC721.sol\":15089:15231  if (auth != address(0) && owner != auth && !isApprovedForAll(owner, auth)) {... */\n      iszero\n      tag_266\n      jumpi\n        /* \"@openzeppelin/contracts/token/ERC721/ERC721.sol\":15211:15215  auth */\n      dup3\n        /* \"@openzeppelin/contracts/token/ERC721/ERC721.sol\":15189:15216  ERC721InvalidApprover(auth) */\n      mload(0x40)\n      0xa9fbf51f00000000000000000000000000000000000000000000000000000000\n      dup2\n      mstore\n      0x04\n      add\n      tag_267\n      swap2\n      swap1\n      tag_37\n      jump\t// in\n    tag_267:\n      mload(0x40)\n      dup1\n      swap2\n      sub\n      swap1\n      revert\n        /* \"@openzeppelin/contracts/token/ERC721/ERC721.sol\":15089:15231  if (auth != address(0) && owner != auth && !isApprovedForAll(owner, auth)) {... */\n    tag_266:\n        /* \"@openzeppelin/contracts/token/ERC721/ERC721.sol\":15249:15258  emitEvent */\n      dup2\n        /* \"@openzeppelin/contracts/token/ERC721/ERC721.sol\":15245:15326  if (emitEvent) {... */\n      iszero\n      tag_268\n      jumpi\n        /* \"@openzeppelin/contracts/token/ERC721/ERC721.sol\":15303:15310  tokenId */\n      dup4\n        /* \"@openzeppelin/contracts/token/ERC721/ERC721.sol\":15299:15301  to */\n      dup6\n        /* \"@openzeppelin/contracts/token/ERC721/ERC721.sol\":15283:15311  Approval(owner, to, tokenId) */\n      0xffffffffffffffffffffffffffffffffffffffff\n      and\n        /* \"@openzeppelin/contracts/token/ERC721/ERC721.sol\":15292:15297  owner */\n      dup3\n        /* \"@openzeppelin/contracts/token/ERC721/ERC721.sol\":15283:15311  Approval(owner, to, tokenId) */\n      0xffffffffffffffffffffffffffffffffffffffff\n      and\n      0x8c5be1e5ebec7d5bd14f71427d1e84f3dd0314c0f7b2291e5b200ac8c7c3b925\n      mload(0x40)\n      mload(0x40)\n      dup1\n      swap2\n      sub\n      swap1\n      log4\n        /* \"@openzeppelin/contracts/token/ERC721/ERC721.sol\":15245:15326  if (emitEvent) {... */\n    tag_268:\n        /* \"@openzeppelin/contracts/token/ERC721/ERC721.sol\":14913:15336  {... */\n      pop\n        /* \"@openzeppelin/contracts/token/ERC721/ERC721.sol\":14876:15336  if (emitEvent || auth != address(0)) {... */\n    tag_261:\n        /* \"@openzeppelin/contracts/token/ERC721/ERC721.sol\":15373:15375  to */\n      dup4\n        /* \"@openzeppelin/contracts/token/ERC721/ERC721.sol\":15346:15361  _tokenApprovals */\n      0x04\n        /* \"@openzeppelin/contracts/token/ERC721/ERC721.sol\":15346:15370  _tokenApprovals[tokenId] */\n      0x00\n        /* \"@openzeppelin/contracts/token/ERC721/ERC721.sol\":15362:15369  tokenId */\n      dup6\n        /* \"@openzeppelin/contracts/token/ERC721/ERC721.sol\":15346:15370  _tokenApprovals[tokenId] */\n      dup2\n      mstore\n      0x20\n      add\n      swap1\n      dup2\n      mstore\n      0x20\n      add\n      0x00\n      keccak256\n      0x00\n        /* \"@openzeppelin/contracts/token/ERC721/ERC721.sol\":15346:15375  _tokenApprovals[tokenId] = to */\n      0x0100\n      exp\n      dup2\n      sload\n      dup2\n      0xffffffffffffffffffffffffffffffffffffffff\n      mul\n      not\n      and\n      swap1\n      dup4\n      0xffffffffffffffffffffffffffffffffffffffff\n      and\n      mul\n      or\n      swap1\n      sstore\n      pop\n        /* \"@openzeppelin/contracts/token/ERC721/ERC721.sol\":14720:15382  function _approve(address to, uint256 tokenId, address auth, bool emitEvent) internal virtual {... */\n      pop\n      pop\n      pop\n      pop\n      jump\t// out\n        /* \"@openzeppelin/contracts/token/ERC721/ERC721.sol\":7082:7450  function _checkAuthorized(address owner, address spender, uint256 tokenId) internal view virtual {... */\n    tag_211:\n        /* \"@openzeppelin/contracts/token/ERC721/ERC721.sol\":7194:7232  _isAuthorized(owner, spender, tokenId) */\n      tag_270\n        /* \"@openzeppelin/contracts/token/ERC721/ERC721.sol\":7208:7213  owner */\n      dup4\n        /* \"@openzeppelin/contracts/token/ERC721/ERC721.sol\":7215:7222  spender */\n      dup4\n        /* \"@openzeppelin/contracts/token/ERC721/ERC721.sol\":7224:7231  tokenId */\n      dup4\n        /* \"@openzeppelin/contracts/token/ERC721/ERC721.sol\":7194:7207  _isAuthorized */\n      tag_271\n        /* \"@openzeppelin/contracts/token/ERC721/ERC721.sol\":7194:7232  _isAuthorized(owner, spender, tokenId) */\n      jump\t// in\n    tag_270:\n        /* \"@openzeppelin/contracts/token/ERC721/ERC721.sol\":7189:7444  if (!_isAuthorized(owner, spender, tokenId)) {... */\n      tag_272\n      jumpi\n        /* \"@openzeppelin/contracts/token/ERC721/ERC721.sol\":7269:7270  0 */\n      0x00\n        /* \"@openzeppelin/contracts/token/ERC721/ERC721.sol\":7252:7271  owner == address(0) */\n      0xffffffffffffffffffffffffffffffffffffffff\n      and\n        /* \"@openzeppelin/contracts/token/ERC721/ERC721.sol\":7252:7257  owner */\n      dup4\n        /* \"@openzeppelin/contracts/token/ERC721/ERC721.sol\":7252:7271  owner == address(0) */\n      0xffffffffffffffffffffffffffffffffffffffff\n      and\n      sub\n        /* \"@openzeppelin/contracts/token/ERC721/ERC721.sol\":7248:7434  if (owner == address(0)) {... */\n      tag_273\n      jumpi\n        /* \"@openzeppelin/contracts/token/ERC721/ERC721.sol\":7321:7328  tokenId */\n      dup1\n        /* \"@openzeppelin/contracts/token/ERC721/ERC721.sol\":7298:7329  ERC721NonexistentToken(tokenId) */\n      mload(0x40)\n      0x7e27328900000000000000000000000000000000000000000000000000000000\n      dup2\n      mstore\n      0x04\n      add\n      tag_274\n      swap2\n      swap1\n      tag_63\n      jump\t// in\n    tag_274:\n      mload(0x40)\n      dup1\n      swap2\n      sub\n      swap1\n      revert\n        /* \"@openzeppelin/contracts/token/ERC721/ERC721.sol\":7248:7434  if (owner == address(0)) {... */\n    tag_273:\n        /* \"@openzeppelin/contracts/token/ERC721/ERC721.sol\":7402:7409  spender */\n      dup2\n        /* \"@openzeppelin/contracts/token/ERC721/ERC721.sol\":7411:7418  tokenId */\n      dup2\n        /* \"@openzeppelin/contracts/token/ERC721/ERC721.sol\":7375:7419  ERC721InsufficientApproval(spender, tokenId) */\n      mload(0x40)\n      0x177e802f00000000000000000000000000000000000000000000000000000000\n      dup2\n      mstore\n      0x04\n      add\n      tag_276\n      swap3\n      swap2\n      swap1\n      tag_277\n      jump\t// in\n    tag_276:\n      mload(0x40)\n      dup1\n      swap2\n      sub\n      swap1\n      revert\n        /* \"@openzeppelin/contracts/token/ERC721/ERC721.sol\":7189:7444  if (!_isAuthorized(owner, spender, tokenId)) {... */\n    tag_272:\n        /* \"@openzeppelin/contracts/token/ERC721/ERC721.sol\":7082:7450  function _checkAuthorized(address owner, address spender, uint256 tokenId) internal view virtual {... */\n      pop\n      pop\n      pop\n      jump\t// out\n        /* \"@openzeppelin/contracts/utils/Strings.sol\":637:1335  function toString(uint256 value) internal pure returns (string memory) {... */\n    tag_246:\n        /* \"@openzeppelin/contracts/utils/Strings.sol\":693:706  string memory */\n      0x60\n        /* \"@openzeppelin/contracts/utils/Strings.sol\":742:756  uint256 length */\n      0x00\n        /* \"@openzeppelin/contracts/utils/Strings.sol\":779:780  1 */\n      0x01\n        /* \"@openzeppelin/contracts/utils/Strings.sol\":759:776  Math.log10(value) */\n      tag_279\n        /* \"@openzeppelin/contracts/utils/Strings.sol\":770:775  value */\n      dup5\n        /* \"@openzeppelin/contracts/utils/Strings.sol\":759:769  Math.log10 */\n      tag_280\n        /* \"@openzeppelin/contracts/utils/Strings.sol\":759:776  Math.log10(value) */\n      jump\t// in\n    tag_279:\n        /* \"@openzeppelin/contracts/utils/Strings.sol\":759:780  Math.log10(value) + 1 */\n      add\n        /* \"@openzeppelin/contracts/utils/Strings.sol\":742:780  uint256 length = Math.log10(value) + 1 */\n      swap1\n      pop\n        /* \"@openzeppelin/contracts/utils/Strings.sol\":794:814  string memory buffer */\n      0x00\n        /* \"@openzeppelin/contracts/utils/Strings.sol\":828:834  length */\n      dup2\n        /* \"@openzeppelin/contracts/utils/Strings.sol\":817:835  new string(length) */\n      0xffffffffffffffff\n      dup2\n      gt\n      iszero\n      tag_281\n      jumpi\n      tag_282\n      tag_199\n      jump\t// in\n    tag_282:\n    tag_281:\n      mload(0x40)\n      swap1\n      dup1\n      dup3\n      mstore\n      dup1\n      0x1f\n      add\n      not(0x1f)\n      and\n      0x20\n      add\n      dup3\n      add\n      0x40\n      mstore\n      dup1\n      iszero\n      tag_283\n      jumpi\n      dup2\n      0x20\n      add\n      0x01\n      dup3\n      mul\n      dup1\n      calldatasize\n      dup4\n      calldatacopy\n      dup1\n      dup3\n      add\n      swap2\n      pop\n      pop\n      swap1\n      pop\n    tag_283:\n      pop\n        /* \"@openzeppelin/contracts/utils/Strings.sol\":794:835  string memory buffer = new string(length) */\n      swap1\n      pop\n        /* \"@openzeppelin/contracts/utils/Strings.sol\":849:860  uint256 ptr */\n      0x00\n        /* \"@openzeppelin/contracts/utils/Strings.sol\":975:981  length */\n      dup3\n        /* \"@openzeppelin/contracts/utils/Strings.sol\":971:973  32 */\n      0x20\n        /* \"@openzeppelin/contracts/utils/Strings.sol\":967:982  add(32, length) */\n      add\n        /* \"@openzeppelin/contracts/utils/Strings.sol\":959:965  buffer */\n      dup3\n        /* \"@openzeppelin/contracts/utils/Strings.sol\":955:983  add(buffer, add(32, length)) */\n      add\n        /* \"@openzeppelin/contracts/utils/Strings.sol\":948:983  ptr := add(buffer, add(32, length)) */\n      swap1\n      pop\n        /* \"@openzeppelin/contracts/utils/Strings.sol\":1010:1292  while (true) {... */\n    tag_284:\n        /* \"@openzeppelin/contracts/utils/Strings.sol\":1017:1021  true */\n      0x01\n        /* \"@openzeppelin/contracts/utils/Strings.sol\":1010:1292  while (true) {... */\n      iszero\n      tag_285\n      jumpi\n        /* \"@openzeppelin/contracts/utils/Strings.sol\":1041:1046  ptr-- */\n      dup1\n      dup1\n      0x01\n      swap1\n      sub\n      swap2\n      pop\n      pop\n        /* \"@openzeppelin/contracts/utils/Strings.sol\":1180:1190  HEX_DIGITS */\n      0x3031323334353637383961626364656600000000000000000000000000000000\n        /* \"@openzeppelin/contracts/utils/Strings.sol\":1175:1177  10 */\n      0x0a\n        /* \"@openzeppelin/contracts/utils/Strings.sol\":1168:1173  value */\n      dup7\n        /* \"@openzeppelin/contracts/utils/Strings.sol\":1164:1178  mod(value, 10) */\n      mod\n        /* \"@openzeppelin/contracts/utils/Strings.sol\":1159:1191  byte(mod(value, 10), HEX_DIGITS) */\n      byte\n        /* \"@openzeppelin/contracts/utils/Strings.sol\":1154:1157  ptr */\n      dup2\n        /* \"@openzeppelin/contracts/utils/Strings.sol\":1146:1192  mstore8(ptr, byte(mod(value, 10), HEX_DIGITS)) */\n      mstore8\n        /* \"@openzeppelin/contracts/utils/Strings.sol\":1236:1238  10 */\n      0x0a\n        /* \"@openzeppelin/contracts/utils/Strings.sol\":1227:1238  value /= 10 */\n      dup6\n      dup2\n      tag_286\n      jumpi\n      tag_287\n      tag_288\n      jump\t// in\n    tag_287:\n    tag_286:\n      div\n      swap5\n      pop\n        /* \"@openzeppelin/contracts/utils/Strings.sol\":1269:1270  0 */\n      0x00\n        /* \"@openzeppelin/contracts/utils/Strings.sol\":1260:1265  value */\n      dup6\n        /* \"@openzeppelin/contracts/utils/Strings.sol\":1260:1270  value == 0 */\n      sub\n        /* \"@openzeppelin/contracts/utils/Strings.sol\":1010:1292  while (true) {... */\n      tag_284\n        /* \"@openzeppelin/contracts/utils/Strings.sol\":1256:1277  if (value == 0) break */\n      jumpi\n        /* \"@openzeppelin/contracts/utils/Strings.sol\":1010:1292  while (true) {... */\n    tag_285:\n        /* \"@openzeppelin/contracts/utils/Strings.sol\":1312:1318  buffer */\n      dup2\n        /* \"@openzeppelin/contracts/utils/Strings.sol\":1305:1318  return buffer */\n      swap4\n      pop\n      pop\n      pop\n      pop\n        /* \"@openzeppelin/contracts/utils/Strings.sol\":637:1335  function toString(uint256 value) internal pure returns (string memory) {... */\n      swap2\n      swap1\n      pop\n      jump\t// out\n        /* \"@openzeppelin/contracts/token/ERC721/ERC721.sol\":10954:11136  function _safeMint(address to, uint256 tokenId, bytes memory data) internal virtual {... */\n    tag_252:\n        /* \"@openzeppelin/contracts/token/ERC721/ERC721.sol\":11048:11066  _mint(to, tokenId) */\n      tag_291\n        /* \"@openzeppelin/contracts/token/ERC721/ERC721.sol\":11054:11056  to */\n      dup4\n        /* \"@openzeppelin/contracts/token/ERC721/ERC721.sol\":11058:11065  tokenId */\n      dup4\n        /* \"@openzeppelin/contracts/token/ERC721/ERC721.sol\":11048:11053  _mint */\n      tag_292\n        /* \"@openzeppelin/contracts/token/ERC721/ERC721.sol\":11048:11066  _mint(to, tokenId) */\n      jump\t// in\n    tag_291:\n        /* \"@openzeppelin/contracts/token/ERC721/ERC721.sol\":11076:11129  _checkOnERC721Received(address(0), to, tokenId, data) */\n      tag_293\n        /* \"@openzeppelin/contracts/token/ERC721/ERC721.sol\":11107:11108  0 */\n      0x00\n        /* \"@openzeppelin/contracts/token/ERC721/ERC721.sol\":11111:11113  to */\n      dup5\n        /* \"@openzeppelin/contracts/token/ERC721/ERC721.sol\":11115:11122  tokenId */\n      dup5\n        /* \"@openzeppelin/contracts/token/ERC721/ERC721.sol\":11124:11128  data */\n      dup5\n        /* \"@openzeppelin/contracts/token/ERC721/ERC721.sol\":11076:11098  _checkOnERC721Received */\n      tag_148\n        /* \"@openzeppelin/contracts/token/ERC721/ERC721.sol\":11076:11129  _checkOnERC721Received(address(0), to, tokenId, data) */\n      jump\t// in\n    tag_293:\n        /* \"@openzeppelin/contracts/token/ERC721/ERC721.sol\":10954:11136  function _safeMint(address to, uint256 tokenId, bytes memory data) internal virtual {... */\n      pop\n      pop\n      pop\n      jump\t// out\n        /* \"@openzeppelin/contracts/token/ERC721/ERC721.sol\":6376:6648  function _isAuthorized(address owner, address spender, uint256 tokenId) internal view virtual returns (bool) {... */\n    tag_271:\n        /* \"@openzeppelin/contracts/token/ERC721/ERC721.sol\":6479:6483  bool */\n      0x00\n        /* \"@openzeppelin/contracts/token/ERC721/ERC721.sol\":6533:6534  0 */\n      dup1\n        /* \"@openzeppelin/contracts/token/ERC721/ERC721.sol\":6514:6535  spender != address(0) */\n      0xffffffffffffffffffffffffffffffffffffffff\n      and\n        /* \"@openzeppelin/contracts/token/ERC721/ERC721.sol\":6514:6521  spender */\n      dup4\n        /* \"@openzeppelin/contracts/token/ERC721/ERC721.sol\":6514:6535  spender != address(0) */\n      0xffffffffffffffffffffffffffffffffffffffff\n      and\n      eq\n      iszero\n        /* \"@openzeppelin/contracts/token/ERC721/ERC721.sol\":6514:6641  spender != address(0) &&... */\n      dup1\n      iszero\n      tag_295\n      jumpi\n      pop\n        /* \"@openzeppelin/contracts/token/ERC721/ERC721.sol\":6561:6568  spender */\n      dup3\n        /* \"@openzeppelin/contracts/token/ERC721/ERC721.sol\":6552:6568  owner == spender */\n      0xffffffffffffffffffffffffffffffffffffffff\n      and\n        /* \"@openzeppelin/contracts/token/ERC721/ERC721.sol\":6552:6557  owner */\n      dup5\n        /* \"@openzeppelin/contracts/token/ERC721/ERC721.sol\":6552:6568  owner == spender */\n      0xffffffffffffffffffffffffffffffffffffffff\n      and\n      eq\n        /* \"@openzeppelin/contracts/token/ERC721/ERC721.sol\":6552:6604  owner == spender || isApprovedForAll(owner, spender) */\n      dup1\n      tag_296\n      jumpi\n      pop\n        /* \"@openzeppelin/contracts/token/ERC721/ERC721.sol\":6572:6604  isApprovedForAll(owner, spender) */\n      tag_297\n        /* \"@openzeppelin/contracts/token/ERC721/ERC721.sol\":6589:6594  owner */\n      dup5\n        /* \"@openzeppelin/contracts/token/ERC721/ERC721.sol\":6596:6603  spender */\n      dup5\n        /* \"@openzeppelin/contracts/token/ERC721/ERC721.sol\":6572:6588  isApprovedForAll */\n      tag_89\n        /* \"@openzeppelin/contracts/token/ERC721/ERC721.sol\":6572:6604  isApprovedForAll(owner, spender) */\n      jump\t// in\n    tag_297:\n        /* \"@openzeppelin/contracts/token/ERC721/ERC721.sol\":6552:6604  owner == spender || isApprovedForAll(owner, spender) */\n    tag_296:\n        /* \"@openzeppelin/contracts/token/ERC721/ERC721.sol\":6552:6640  owner == spender || isApprovedForAll(owner, spender) || _getApproved(tokenId) == spender */\n      dup1\n      tag_298\n      jumpi\n      pop\n        /* \"@openzeppelin/contracts/token/ERC721/ERC721.sol\":6633:6640  spender */\n      dup3\n        /* \"@openzeppelin/contracts/token/ERC721/ERC721.sol\":6608:6640  _getApproved(tokenId) == spender */\n      0xffffffffffffffffffffffffffffffffffffffff\n      and\n        /* \"@openzeppelin/contracts/token/ERC721/ERC721.sol\":6608:6629  _getApproved(tokenId) */\n      tag_299\n        /* \"@openzeppelin/contracts/token/ERC721/ERC721.sol\":6621:6628  tokenId */\n      dup4\n        /* \"@openzeppelin/contracts/token/ERC721/ERC721.sol\":6608:6620  _getApproved */\n      tag_106\n        /* \"@openzeppelin/contracts/token/ERC721/ERC721.sol\":6608:6629  _getApproved(tokenId) */\n      jump\t// in\n    tag_299:\n        /* \"@openzeppelin/contracts/token/ERC721/ERC721.sol\":6608:6640  _getApproved(tokenId) == spender */\n      0xffffffffffffffffffffffffffffffffffffffff\n      and\n      eq\n        /* \"@openzeppelin/contracts/token/ERC721/ERC721.sol\":6552:6640  owner == spender || isApprovedForAll(owner, spender) || _getApproved(tokenId) == spender */\n    tag_298:\n        /* \"@openzeppelin/contracts/token/ERC721/ERC721.sol\":6514:6641  spender != address(0) &&... */\n    tag_295:\n        /* \"@openzeppelin/contracts/token/ERC721/ERC721.sol\":6495:6641  return... */\n      swap1\n      pop\n        /* \"@openzeppelin/contracts/token/ERC721/ERC721.sol\":6376:6648  function _isAuthorized(address owner, address spender, uint256 tokenId) internal view virtual returns (bool) {... */\n      swap4\n      swap3\n      pop\n      pop\n      pop\n      jump\t// out\n        /* \"@openzeppelin/contracts/utils/math/Math.sol\":12214:13130  function log10(uint256 value) internal pure returns (uint256) {... */\n    tag_280:\n        /* \"@openzeppelin/contracts/utils/math/Math.sol\":12267:12274  uint256 */\n      0x00\n        /* \"@openzeppelin/contracts/utils/math/Math.sol\":12286:12300  uint256 result */\n      dup1\n        /* \"@openzeppelin/contracts/utils/math/Math.sol\":12303:12304  0 */\n      0x00\n        /* \"@openzeppelin/contracts/utils/math/Math.sol\":12286:12304  uint256 result = 0 */\n      swap1\n      pop\n        /* \"@openzeppelin/contracts/utils/math/Math.sol\":12351:12359  10 ** 64 */\n      0x184f03e93ff9f4daa797ed6e38ed64bf6a1f010000000000000000\n        /* \"@openzeppelin/contracts/utils/math/Math.sol\":12342:12347  value */\n      dup4\n        /* \"@openzeppelin/contracts/utils/math/Math.sol\":12342:12359  value >= 10 ** 64 */\n      lt\n        /* \"@openzeppelin/contracts/utils/math/Math.sol\":12338:12441  if (value >= 10 ** 64) {... */\n      tag_301\n      jumpi\n        /* \"@openzeppelin/contracts/utils/math/Math.sol\":12388:12396  10 ** 64 */\n      0x184f03e93ff9f4daa797ed6e38ed64bf6a1f010000000000000000\n        /* \"@openzeppelin/contracts/utils/math/Math.sol\":12379:12396  value /= 10 ** 64 */\n      dup4\n      dup2\n      tag_302\n      jumpi\n      tag_303\n      tag_288\n      jump\t// in\n    tag_303:\n    tag_302:\n      div\n      swap3\n      pop\n        /* \"@openzeppelin/contracts/utils/math/Math.sol\":12424:12426  64 */\n      0x40\n        /* \"@openzeppelin/contracts/utils/math/Math.sol\":12414:12426  result += 64 */\n      dup2\n      add\n      swap1\n      pop\n        /* \"@openzeppelin/contracts/utils/math/Math.sol\":12338:12441  if (value >= 10 ** 64) {... */\n    tag_301:\n        /* \"@openzeppelin/contracts/utils/math/Math.sol\":12467:12475  10 ** 32 */\n      0x04ee2d6d415b85acef8100000000\n        /* \"@openzeppelin/contracts/utils/math/Math.sol\":12458:12463  value */\n      dup4\n        /* \"@openzeppelin/contracts/utils/math/Math.sol\":12458:12475  value >= 10 ** 32 */\n      lt\n        /* \"@openzeppelin/contracts/utils/math/Math.sol\":12454:12557  if (value >= 10 ** 32) {... */\n      tag_304\n      jumpi\n        /* \"@openzeppelin/contracts/utils/math/Math.sol\":12504:12512  10 ** 32 */\n      0x04ee2d6d415b85acef8100000000\n        /* \"@openzeppelin/contracts/utils/math/Math.sol\":12495:12512  value /= 10 ** 32 */\n      dup4\n      dup2\n      tag_305\n      jumpi\n      tag_306\n      tag_288\n      jump\t// in\n    tag_306:\n    tag_305:\n      div\n      swap3\n      pop\n        /* \"@openzeppelin/contracts/utils/math/Math.sol\":12540:12542  32 */\n      0x20\n        /* \"@openzeppelin/contracts/utils/math/Math.sol\":12530:12542  result += 32 */\n      dup2\n      add\n      swap1\n      pop\n        /* \"@openzeppelin/contracts/utils/math/Math.sol\":12454:12557  if (value >= 10 ** 32) {... */\n    tag_304:\n        /* \"@openzeppelin/contracts/utils/math/Math.sol\":12583:12591  10 ** 16 */\n      0x2386f26fc10000\n        /* \"@openzeppelin/contracts/utils/math/Math.sol\":12574:12579  value */\n      dup4\n        /* \"@openzeppelin/contracts/utils/math/Math.sol\":12574:12591  value >= 10 ** 16 */\n      lt\n        /* \"@openzeppelin/contracts/utils/math/Math.sol\":12570:12673  if (value >= 10 ** 16) {... */\n      tag_307\n      jumpi\n        /* \"@openzeppelin/contracts/utils/math/Math.sol\":12620:12628  10 ** 16 */\n      0x2386f26fc10000\n        /* \"@openzeppelin/contracts/utils/math/Math.sol\":12611:12628  value /= 10 ** 16 */\n      dup4\n      dup2\n      tag_308\n      jumpi\n      tag_309\n      tag_288\n      jump\t// in\n    tag_309:\n    tag_308:\n      div\n      swap3\n      pop\n        /* \"@openzeppelin/contracts/utils/math/Math.sol\":12656:12658  16 */\n      0x10\n        /* \"@openzeppelin/contracts/utils/math/Math.sol\":12646:12658  result += 16 */\n      dup2\n      add\n      swap1\n      pop\n        /* \"@openzeppelin/contracts/utils/math/Math.sol\":12570:12673  if (value >= 10 ** 16) {... */\n    tag_307:\n        /* \"@openzeppelin/contracts/utils/math/Math.sol\":12699:12706  10 ** 8 */\n      0x05f5e100\n        /* \"@openzeppelin/contracts/utils/math/Math.sol\":12690:12695  value */\n      dup4\n        /* \"@openzeppelin/contracts/utils/math/Math.sol\":12690:12706  value >= 10 ** 8 */\n      lt\n        /* \"@openzeppelin/contracts/utils/math/Math.sol\":12686:12786  if (value >= 10 ** 8) {... */\n      tag_310\n      jumpi\n        /* \"@openzeppelin/contracts/utils/math/Math.sol\":12735:12742  10 ** 8 */\n      0x05f5e100\n        /* \"@openzeppelin/contracts/utils/math/Math.sol\":12726:12742  value /= 10 ** 8 */\n      dup4\n      dup2\n      tag_311\n      jumpi\n      tag_312\n      tag_288\n      jump\t// in\n    tag_312:\n    tag_311:\n      div\n      swap3\n      pop\n        /* \"@openzeppelin/contracts/utils/math/Math.sol\":12770:12771  8 */\n      0x08\n        /* \"@openzeppelin/contracts/utils/math/Math.sol\":12760:12771  result += 8 */\n      dup2\n      add\n      swap1\n      pop\n        /* \"@openzeppelin/contracts/utils/math/Math.sol\":12686:12786  if (value >= 10 ** 8) {... */\n    tag_310:\n        /* \"@openzeppelin/contracts/utils/math/Math.sol\":12812:12819  10 ** 4 */\n      0x2710\n        /* \"@openzeppelin/contracts/utils/math/Math.sol\":12803:12808  value */\n      dup4\n        /* \"@openzeppelin/contracts/utils/math/Math.sol\":12803:12819  value >= 10 ** 4 */\n      lt\n        /* \"@openzeppelin/contracts/utils/math/Math.sol\":12799:12899  if (value >= 10 ** 4) {... */\n      tag_313\n      jumpi\n        /* \"@openzeppelin/contracts/utils/math/Math.sol\":12848:12855  10 ** 4 */\n      0x2710\n        /* \"@openzeppelin/contracts/utils/math/Math.sol\":12839:12855  value /= 10 ** 4 */\n      dup4\n      dup2\n      tag_314\n      jumpi\n      tag_315\n      tag_288\n      jump\t// in\n    tag_315:\n    tag_314:\n      div\n      swap3\n      pop\n        /* \"@openzeppelin/contracts/utils/math/Math.sol\":12883:12884  4 */\n      0x04\n        /* \"@openzeppelin/contracts/utils/math/Math.sol\":12873:12884  result += 4 */\n      dup2\n      add\n      swap1\n      pop\n        /* \"@openzeppelin/contracts/utils/math/Math.sol\":12799:12899  if (value >= 10 ** 4) {... */\n    tag_313:\n        /* \"@openzeppelin/contracts/utils/math/Math.sol\":12925:12932  10 ** 2 */\n      0x64\n        /* \"@openzeppelin/contracts/utils/math/Math.sol\":12916:12921  value */\n      dup4\n        /* \"@openzeppelin/contracts/utils/math/Math.sol\":12916:12932  value >= 10 ** 2 */\n      lt\n        /* \"@openzeppelin/contracts/utils/math/Math.sol\":12912:13012  if (value >= 10 ** 2) {... */\n      tag_316\n      jumpi\n        /* \"@openzeppelin/contracts/utils/math/Math.sol\":12961:12968  10 ** 2 */\n      0x64\n        /* \"@openzeppelin/contracts/utils/math/Math.sol\":12952:12968  value /= 10 ** 2 */\n      dup4\n      dup2\n      tag_317\n      jumpi\n      tag_318\n      tag_288\n      jump\t// in\n    tag_318:\n    tag_317:\n      div\n      swap3\n      pop\n        /* \"@openzeppelin/contracts/utils/math/Math.sol\":12996:12997  2 */\n      0x02\n        /* \"@openzeppelin/contracts/utils/math/Math.sol\":12986:12997  result += 2 */\n      dup2\n      add\n      swap1\n      pop\n        /* \"@openzeppelin/contracts/utils/math/Math.sol\":12912:13012  if (value >= 10 ** 2) {... */\n    tag_316:\n        /* \"@openzeppelin/contracts/utils/math/Math.sol\":13038:13045  10 ** 1 */\n      0x0a\n        /* \"@openzeppelin/contracts/utils/math/Math.sol\":13029:13034  value */\n      dup4\n        /* \"@openzeppelin/contracts/utils/math/Math.sol\":13029:13045  value >= 10 ** 1 */\n      lt\n        /* \"@openzeppelin/contracts/utils/math/Math.sol\":13025:13091  if (value >= 10 ** 1) {... */\n      tag_319\n      jumpi\n        /* \"@openzeppelin/contracts/utils/math/Math.sol\":13075:13076  1 */\n      0x01\n        /* \"@openzeppelin/contracts/utils/math/Math.sol\":13065:13076  result += 1 */\n      dup2\n      add\n      swap1\n      pop\n        /* \"@openzeppelin/contracts/utils/math/Math.sol\":13025:13091  if (value >= 10 ** 1) {... */\n    tag_319:\n        /* \"@openzeppelin/contracts/utils/math/Math.sol\":13117:13123  result */\n      dup1\n        /* \"@openzeppelin/contracts/utils/math/Math.sol\":13110:13123  return result */\n      swap2\n      pop\n      pop\n        /* \"@openzeppelin/contracts/utils/math/Math.sol\":12214:13130  function log10(uint256 value) internal pure returns (uint256) {... */\n      swap2\n      swap1\n      pop\n      jump\t// out\n        /* \"@openzeppelin/contracts/token/ERC721/ERC721.sol\":9955:10282  function _mint(address to, uint256 tokenId) internal {... */\n    tag_292:\n        /* \"@openzeppelin/contracts/token/ERC721/ERC721.sol\":10036:10037  0 */\n      0x00\n        /* \"@openzeppelin/contracts/token/ERC721/ERC721.sol\":10022:10038  to == address(0) */\n      0xffffffffffffffffffffffffffffffffffffffff\n      and\n        /* \"@openzeppelin/contracts/token/ERC721/ERC721.sol\":10022:10024  to */\n      dup3\n        /* \"@openzeppelin/contracts/token/ERC721/ERC721.sol\":10022:10038  to == address(0) */\n      0xffffffffffffffffffffffffffffffffffffffff\n      and\n      sub\n        /* \"@openzeppelin/contracts/token/ERC721/ERC721.sol\":10018:10105  if (to == address(0)) {... */\n      tag_321\n      jumpi\n        /* \"@openzeppelin/contracts/token/ERC721/ERC721.sol\":10091:10092  0 */\n      0x00\n        /* \"@openzeppelin/contracts/token/ERC721/ERC721.sol\":10061:10094  ERC721InvalidReceiver(address(0)) */\n      mload(0x40)\n      0x64a0ae9200000000000000000000000000000000000000000000000000000000\n      dup2\n      mstore\n      0x04\n      add\n      tag_322\n      swap2\n      swap1\n      tag_37\n      jump\t// in\n    tag_322:\n      mload(0x40)\n      dup1\n      swap2\n      sub\n      swap1\n      revert\n        /* \"@openzeppelin/contracts/token/ERC721/ERC721.sol\":10018:10105  if (to == address(0)) {... */\n    tag_321:\n        /* \"@openzeppelin/contracts/token/ERC721/ERC721.sol\":10114:10135  address previousOwner */\n      0x00\n        /* \"@openzeppelin/contracts/token/ERC721/ERC721.sol\":10138:10170  _update(to, tokenId, address(0)) */\n      tag_323\n        /* \"@openzeppelin/contracts/token/ERC721/ERC721.sol\":10146:10148  to */\n      dup4\n        /* \"@openzeppelin/contracts/token/ERC721/ERC721.sol\":10150:10157  tokenId */\n      dup4\n        /* \"@openzeppelin/contracts/token/ERC721/ERC721.sol\":10167:10168  0 */\n      0x00\n        /* \"@openzeppelin/contracts/token/ERC721/ERC721.sol\":10138:10145  _update */\n      tag_124\n        /* \"@openzeppelin/contracts/token/ERC721/ERC721.sol\":10138:10170  _update(to, tokenId, address(0)) */\n      jump\t// in\n    tag_323:\n        /* \"@openzeppelin/contracts/token/ERC721/ERC721.sol\":10114:10170  address previousOwner = _update(to, tokenId, address(0)) */\n      swap1\n      pop\n        /* \"@openzeppelin/contracts/token/ERC721/ERC721.sol\":10209:10210  0 */\n      0x00\n        /* \"@openzeppelin/contracts/token/ERC721/ERC721.sol\":10184:10211  previousOwner != address(0) */\n      0xffffffffffffffffffffffffffffffffffffffff\n      and\n        /* \"@openzeppelin/contracts/token/ERC721/ERC721.sol\":10184:10197  previousOwner */\n      dup2\n        /* \"@openzeppelin/contracts/token/ERC721/ERC721.sol\":10184:10211  previousOwner != address(0) */\n      0xffffffffffffffffffffffffffffffffffffffff\n      and\n      eq\n        /* \"@openzeppelin/contracts/token/ERC721/ERC721.sol\":10180:10276  if (previousOwner != address(0)) {... */\n      tag_324\n      jumpi\n        /* \"@openzeppelin/contracts/token/ERC721/ERC721.sol\":10262:10263  0 */\n      0x00\n        /* \"@openzeppelin/contracts/token/ERC721/ERC721.sol\":10234:10265  ERC721InvalidSender(address(0)) */\n      mload(0x40)\n      0x73c6ac6e00000000000000000000000000000000000000000000000000000000\n      dup2\n      mstore\n      0x04\n      add\n      tag_325\n      swap2\n      swap1\n      tag_37\n      jump\t// in\n    tag_325:\n      mload(0x40)\n      dup1\n      swap2\n      sub\n      swap1\n      revert\n        /* \"@openzeppelin/contracts/token/ERC721/ERC721.sol\":10180:10276  if (previousOwner != address(0)) {... */\n    tag_324:\n        /* \"@openzeppelin/contracts/token/ERC721/ERC721.sol\":10008:10282  {... */\n      pop\n        /* \"@openzeppelin/contracts/token/ERC721/ERC721.sol\":9955:10282  function _mint(address to, uint256 tokenId) internal {... */\n      pop\n      pop\n      jump\t// out\n        /* \"#utility.yul\":7:82   */\n    tag_326:\n        /* \"#utility.yul\":40:46   */\n      0x00\n        /* \"#utility.yul\":73:75   */\n      0x40\n        /* \"#utility.yul\":67:76   */\n      mload\n        /* \"#utility.yul\":57:76   */\n      swap1\n      pop\n        /* \"#utility.yul\":7:82   */\n      swap1\n      jump\t// out\n        /* \"#utility.yul\":88:205   */\n    tag_327:\n        /* \"#utility.yul\":197:198   */\n      0x00\n        /* \"#utility.yul\":194:195   */\n      dup1\n        /* \"#utility.yul\":187:199   */\n      revert\n        /* \"#utility.yul\":211:328   */\n    tag_328:\n        /* \"#utility.yul\":320:321   */\n      0x00\n        /* \"#utility.yul\":317:318   */\n      dup1\n        /* \"#utility.yul\":310:322   */\n      revert\n        /* \"#utility.yul\":334:483   */\n    tag_329:\n        /* \"#utility.yul\":370:377   */\n      0x00\n        /* \"#utility.yul\":410:476   */\n      0xffffffff00000000000000000000000000000000000000000000000000000000\n        /* \"#utility.yul\":403:408   */\n      dup3\n        /* \"#utility.yul\":399:477   */\n      and\n        /* \"#utility.yul\":388:477   */\n      swap1\n      pop\n        /* \"#utility.yul\":334:483   */\n      swap2\n      swap1\n      pop\n      jump\t// out\n        /* \"#utility.yul\":489:609   */\n    tag_330:\n        /* \"#utility.yul\":561:584   */\n      tag_394\n        /* \"#utility.yul\":578:583   */\n      dup2\n        /* \"#utility.yul\":561:584   */\n      tag_329\n      jump\t// in\n    tag_394:\n        /* \"#utility.yul\":554:559   */\n      dup2\n        /* \"#utility.yul\":551:585   */\n      eq\n        /* \"#utility.yul\":541:603   */\n      tag_395\n      jumpi\n        /* \"#utility.yul\":599:600   */\n      0x00\n        /* \"#utility.yul\":596:597   */\n      dup1\n        /* \"#utility.yul\":589:601   */\n      revert\n        /* \"#utility.yul\":541:603   */\n    tag_395:\n        /* \"#utility.yul\":489:609   */\n      pop\n      jump\t// out\n        /* \"#utility.yul\":615:752   */\n    tag_331:\n        /* \"#utility.yul\":660:665   */\n      0x00\n        /* \"#utility.yul\":698:704   */\n      dup2\n        /* \"#utility.yul\":685:705   */\n      calldataload\n        /* \"#utility.yul\":676:705   */\n      swap1\n      pop\n        /* \"#utility.yul\":714:746   */\n      tag_397\n        /* \"#utility.yul\":740:745   */\n      dup2\n        /* \"#utility.yul\":714:746   */\n      tag_330\n      jump\t// in\n    tag_397:\n        /* \"#utility.yul\":615:752   */\n      swap3\n      swap2\n      pop\n      pop\n      jump\t// out\n        /* \"#utility.yul\":758:1085   */\n    tag_24:\n        /* \"#utility.yul\":816:822   */\n      0x00\n        /* \"#utility.yul\":865:867   */\n      0x20\n        /* \"#utility.yul\":853:862   */\n      dup3\n        /* \"#utility.yul\":844:851   */\n      dup5\n        /* \"#utility.yul\":840:863   */\n      sub\n        /* \"#utility.yul\":836:868   */\n      slt\n        /* \"#utility.yul\":833:952   */\n      iszero\n      tag_399\n      jumpi\n        /* \"#utility.yul\":871:950   */\n      tag_400\n      tag_327\n      jump\t// in\n    tag_400:\n        /* \"#utility.yul\":833:952   */\n    tag_399:\n        /* \"#utility.yul\":991:992   */\n      0x00\n        /* \"#utility.yul\":1016:1068   */\n      tag_401\n        /* \"#utility.yul\":1060:1067   */\n      dup5\n        /* \"#utility.yul\":1051:1057   */\n      dup3\n        /* \"#utility.yul\":1040:1049   */\n      dup6\n        /* \"#utility.yul\":1036:1058   */\n      add\n        /* \"#utility.yul\":1016:1068   */\n      tag_331\n      jump\t// in\n    tag_401:\n        /* \"#utility.yul\":1006:1068   */\n      swap2\n      pop\n        /* \"#utility.yul\":962:1078   */\n      pop\n        /* \"#utility.yul\":758:1085   */\n      swap3\n      swap2\n      pop\n      pop\n      jump\t// out\n        /* \"#utility.yul\":1091:1181   */\n    tag_332:\n        /* \"#utility.yul\":1125:1132   */\n      0x00\n        /* \"#utility.yul\":1168:1173   */\n      dup2\n        /* \"#utility.yul\":1161:1174   */\n      iszero\n        /* \"#utility.yul\":1154:1175   */\n      iszero\n        /* \"#utility.yul\":1143:1175   */\n      swap1\n      pop\n        /* \"#utility.yul\":1091:1181   */\n      swap2\n      swap1\n      pop\n      jump\t// out\n        /* \"#utility.yul\":1187:1296   */\n    tag_333:\n        /* \"#utility.yul\":1268:1289   */\n      tag_404\n        /* \"#utility.yul\":1283:1288   */\n      dup2\n        /* \"#utility.yul\":1268:1289   */\n      tag_332\n      jump\t// in\n    tag_404:\n        /* \"#utility.yul\":1263:1266   */\n      dup3\n        /* \"#utility.yul\":1256:1290   */\n      mstore\n        /* \"#utility.yul\":1187:1296   */\n      pop\n      pop\n      jump\t// out\n        /* \"#utility.yul\":1302:1512   */\n    tag_27:\n        /* \"#utility.yul\":1389:1393   */\n      0x00\n        /* \"#utility.yul\":1427:1429   */\n      0x20\n        /* \"#utility.yul\":1416:1425   */\n      dup3\n        /* \"#utility.yul\":1412:1430   */\n      add\n        /* \"#utility.yul\":1404:1430   */\n      swap1\n      pop\n        /* \"#utility.yul\":1440:1505   */\n      tag_406\n        /* \"#utility.yul\":1502:1503   */\n      0x00\n        /* \"#utility.yul\":1491:1500   */\n      dup4\n        /* \"#utility.yul\":1487:1504   */\n      add\n        /* \"#utility.yul\":1478:1484   */\n      dup5\n        /* \"#utility.yul\":1440:1505   */\n      tag_333\n      jump\t// in\n    tag_406:\n        /* \"#utility.yul\":1302:1512   */\n      swap3\n      swap2\n      pop\n      pop\n      jump\t// out\n        /* \"#utility.yul\":1518:1617   */\n    tag_334:\n        /* \"#utility.yul\":1570:1576   */\n      0x00\n        /* \"#utility.yul\":1604:1609   */\n      dup2\n        /* \"#utility.yul\":1598:1610   */\n      mload\n        /* \"#utility.yul\":1588:1610   */\n      swap1\n      pop\n        /* \"#utility.yul\":1518:1617   */\n      swap2\n      swap1\n      pop\n      jump\t// out\n        /* \"#utility.yul\":1623:1792   */\n    tag_335:\n        /* \"#utility.yul\":1707:1718   */\n      0x00\n        /* \"#utility.yul\":1741:1747   */\n      dup3\n        /* \"#utility.yul\":1736:1739   */\n      dup3\n        /* \"#utility.yul\":1729:1748   */\n      mstore\n        /* \"#utility.yul\":1781:1785   */\n      0x20\n        /* \"#utility.yul\":1776:1779   */\n      dup3\n        /* \"#utility.yul\":1772:1786   */\n      add\n        /* \"#utility.yul\":1757:1786   */\n      swap1\n      pop\n        /* \"#utility.yul\":1623:1792   */\n      swap3\n      swap2\n      pop\n      pop\n      jump\t// out\n        /* \"#utility.yul\":1798:2044   */\n    tag_336:\n        /* \"#utility.yul\":1879:1880   */\n      0x00\n        /* \"#utility.yul\":1889:2002   */\n    tag_410:\n        /* \"#utility.yul\":1903:1909   */\n      dup4\n        /* \"#utility.yul\":1900:1901   */\n      dup2\n        /* \"#utility.yul\":1897:1910   */\n      lt\n        /* \"#utility.yul\":1889:2002   */\n      iszero\n      tag_412\n      jumpi\n        /* \"#utility.yul\":1988:1989   */\n      dup1\n        /* \"#utility.yul\":1983:1986   */\n      dup3\n        /* \"#utility.yul\":1979:1990   */\n      add\n        /* \"#utility.yul\":1973:1991   */\n      mload\n        /* \"#utility.yul\":1969:1970   */\n      dup2\n        /* \"#utility.yul\":1964:1967   */\n      dup5\n        /* \"#utility.yul\":1960:1971   */\n      add\n        /* \"#utility.yul\":1953:1992   */\n      mstore\n        /* \"#utility.yul\":1925:1927   */\n      0x20\n        /* \"#utility.yul\":1922:1923   */\n      dup2\n        /* \"#utility.yul\":1918:1928   */\n      add\n        /* \"#utility.yul\":1913:1928   */\n      swap1\n      pop\n        /* \"#utility.yul\":1889:2002   */\n      jump(tag_410)\n    tag_412:\n        /* \"#utility.yul\":2036:2037   */\n      0x00\n        /* \"#utility.yul\":2027:2033   */\n      dup5\n        /* \"#utility.yul\":2022:2025   */\n      dup5\n        /* \"#utility.yul\":2018:2034   */\n      add\n        /* \"#utility.yul\":2011:2038   */\n      mstore\n        /* \"#utility.yul\":1860:2044   */\n      pop\n        /* \"#utility.yul\":1798:2044   */\n      pop\n      pop\n      pop\n      jump\t// out\n        /* \"#utility.yul\":2050:2152   */\n    tag_337:\n        /* \"#utility.yul\":2091:2097   */\n      0x00\n        /* \"#utility.yul\":2142:2144   */\n      0x1f\n        /* \"#utility.yul\":2138:2145   */\n      not\n        /* \"#utility.yul\":2133:2135   */\n      0x1f\n        /* \"#utility.yul\":2126:2131   */\n      dup4\n        /* \"#utility.yul\":2122:2136   */\n      add\n        /* \"#utility.yul\":2118:2146   */\n      and\n        /* \"#utility.yul\":2108:2146   */\n      swap1\n      pop\n        /* \"#utility.yul\":2050:2152   */\n      swap2\n      swap1\n      pop\n      jump\t// out\n        /* \"#utility.yul\":2158:2535   */\n    tag_338:\n        /* \"#utility.yul\":2246:2249   */\n      0x00\n        /* \"#utility.yul\":2274:2313   */\n      tag_415\n        /* \"#utility.yul\":2307:2312   */\n      dup3\n        /* \"#utility.yul\":2274:2313   */\n      tag_334\n      jump\t// in\n    tag_415:\n        /* \"#utility.yul\":2329:2400   */\n      tag_416\n        /* \"#utility.yul\":2393:2399   */\n      dup2\n        /* \"#utility.yul\":2388:2391   */\n      dup6\n        /* \"#utility.yul\":2329:2400   */\n      tag_335\n      jump\t// in\n    tag_416:\n        /* \"#utility.yul\":2322:2400   */\n      swap4\n      pop\n        /* \"#utility.yul\":2409:2474   */\n      tag_417\n        /* \"#utility.yul\":2467:2473   */\n      dup2\n        /* \"#utility.yul\":2462:2465   */\n      dup6\n        /* \"#utility.yul\":2455:2459   */\n      0x20\n        /* \"#utility.yul\":2448:2453   */\n      dup7\n        /* \"#utility.yul\":2444:2460   */\n      add\n        /* \"#utility.yul\":2409:2474   */\n      tag_336\n      jump\t// in\n    tag_417:\n        /* \"#utility.yul\":2499:2528   */\n      tag_418\n        /* \"#utility.yul\":2521:2527   */\n      dup2\n        /* \"#utility.yul\":2499:2528   */\n      tag_337\n      jump\t// in\n    tag_418:\n        /* \"#utility.yul\":2494:2497   */\n      dup5\n        /* \"#utility.yul\":2490:2529   */\n      add\n        /* \"#utility.yul\":2483:2529   */\n      swap2\n      pop\n        /* \"#utility.yul\":2250:2535   */\n      pop\n        /* \"#utility.yul\":2158:2535   */\n      swap3\n      swap2\n      pop\n      pop\n      jump\t// out\n        /* \"#utility.yul\":2541:2854   */\n    tag_31:\n        /* \"#utility.yul\":2654:2658   */\n      0x00\n        /* \"#utility.yul\":2692:2694   */\n      0x20\n        /* \"#utility.yul\":2681:2690   */\n      dup3\n        /* \"#utility.yul\":2677:2695   */\n      add\n        /* \"#utility.yul\":2669:2695   */\n      swap1\n      pop\n        /* \"#utility.yul\":2741:2750   */\n      dup2\n        /* \"#utility.yul\":2735:2739   */\n      dup2\n        /* \"#utility.yul\":2731:2751   */\n      sub\n        /* \"#utility.yul\":2727:2728   */\n      0x00\n        /* \"#utility.yul\":2716:2725   */\n      dup4\n        /* \"#utility.yul\":2712:2729   */\n      add\n        /* \"#utility.yul\":2705:2752   */\n      mstore\n        /* \"#utility.yul\":2769:2847   */\n      tag_420\n        /* \"#utility.yul\":2842:2846   */\n      dup2\n        /* \"#utility.yul\":2833:2839   */\n      dup5\n        /* \"#utility.yul\":2769:2847   */\n      tag_338\n      jump\t// in\n    tag_420:\n        /* \"#utility.yul\":2761:2847   */\n      swap1\n      pop\n        /* \"#utility.yul\":2541:2854   */\n      swap3\n      swap2\n      pop\n      pop\n      jump\t// out\n        /* \"#utility.yul\":2860:2937   */\n    tag_339:\n        /* \"#utility.yul\":2897:2904   */\n      0x00\n        /* \"#utility.yul\":2926:2931   */\n      dup2\n        /* \"#utility.yul\":2915:2931   */\n      swap1\n      pop\n        /* \"#utility.yul\":2860:2937   */\n      swap2\n      swap1\n      pop\n      jump\t// out\n        /* \"#utility.yul\":2943:3065   */\n    tag_340:\n        /* \"#utility.yul\":3016:3040   */\n      tag_423\n        /* \"#utility.yul\":3034:3039   */\n      dup2\n        /* \"#utility.yul\":3016:3040   */\n      tag_339\n      jump\t// in\n    tag_423:\n        /* \"#utility.yul\":3009:3014   */\n      dup2\n        /* \"#utility.yul\":3006:3041   */\n      eq\n        /* \"#utility.yul\":2996:3059   */\n      tag_424\n      jumpi\n        /* \"#utility.yul\":3055:3056   */\n      0x00\n        /* \"#utility.yul\":3052:3053   */\n      dup1\n        /* \"#utility.yul\":3045:3057   */\n      revert\n        /* \"#utility.yul\":2996:3059   */\n    tag_424:\n        /* \"#utility.yul\":2943:3065   */\n      pop\n      jump\t// out\n        /* \"#utility.yul\":3071:3210   */\n    tag_341:\n        /* \"#utility.yul\":3117:3122   */\n      0x00\n        /* \"#utility.yul\":3155:3161   */\n      dup2\n        /* \"#utility.yul\":3142:3162   */\n      calldataload\n        /* \"#utility.yul\":3133:3162   */\n      swap1\n      pop\n        /* \"#utility.yul\":3171:3204   */\n      tag_426\n        /* \"#utility.yul\":3198:3203   */\n      dup2\n        /* \"#utility.yul\":3171:3204   */\n      tag_340\n      jump\t// in\n    tag_426:\n        /* \"#utility.yul\":3071:3210   */\n      swap3\n      swap2\n      pop\n      pop\n      jump\t// out\n        /* \"#utility.yul\":3216:3545   */\n    tag_34:\n        /* \"#utility.yul\":3275:3281   */\n      0x00\n        /* \"#utility.yul\":3324:3326   */\n      0x20\n        /* \"#utility.yul\":3312:3321   */\n      dup3\n        /* \"#utility.yul\":3303:3310   */\n      dup5\n        /* \"#utility.yul\":3299:3322   */\n      sub\n        /* \"#utility.yul\":3295:3327   */\n      slt\n        /* \"#utility.yul\":3292:3411   */\n      iszero\n      tag_428\n      jumpi\n        /* \"#utility.yul\":3330:3409   */\n      tag_429\n      tag_327\n      jump\t// in\n    tag_429:\n        /* \"#utility.yul\":3292:3411   */\n    tag_428:\n        /* \"#utility.yul\":3450:3451   */\n      0x00\n        /* \"#utility.yul\":3475:3528   */\n      tag_430\n        /* \"#utility.yul\":3520:3527   */\n      dup5\n        /* \"#utility.yul\":3511:3517   */\n      dup3\n        /* \"#utility.yul\":3500:3509   */\n      dup6\n        /* \"#utility.yul\":3496:3518   */\n      add\n        /* \"#utility.yul\":3475:3528   */\n      tag_341\n      jump\t// in\n    tag_430:\n        /* \"#utility.yul\":3465:3528   */\n      swap2\n      pop\n        /* \"#utility.yul\":3421:3538   */\n      pop\n        /* \"#utility.yul\":3216:3545   */\n      swap3\n      swap2\n      pop\n      pop\n      jump\t// out\n        /* \"#utility.yul\":3551:3677   */\n    tag_342:\n        /* \"#utility.yul\":3588:3595   */\n      0x00\n        /* \"#utility.yul\":3628:3670   */\n      0xffffffffffffffffffffffffffffffffffffffff\n        /* \"#utility.yul\":3621:3626   */\n      dup3\n        /* \"#utility.yul\":3617:3671   */\n      and\n        /* \"#utility.yul\":3606:3671   */\n      swap1\n      pop\n        /* \"#utility.yul\":3551:3677   */\n      swap2\n      swap1\n      pop\n      jump\t// out\n        /* \"#utility.yul\":3683:3779   */\n    tag_343:\n        /* \"#utility.yul\":3720:3727   */\n      0x00\n        /* \"#utility.yul\":3749:3773   */\n      tag_433\n        /* \"#utility.yul\":3767:3772   */\n      dup3\n        /* \"#utility.yul\":3749:3773   */\n      tag_342\n      jump\t// in\n    tag_433:\n        /* \"#utility.yul\":3738:3773   */\n      swap1\n      pop\n        /* \"#utility.yul\":3683:3779   */\n      swap2\n      swap1\n      pop\n      jump\t// out\n        /* \"#utility.yul\":3785:3903   */\n    tag_344:\n        /* \"#utility.yul\":3872:3896   */\n      tag_435\n        /* \"#utility.yul\":3890:3895   */\n      dup2\n        /* \"#utility.yul\":3872:3896   */\n      tag_343\n      jump\t// in\n    tag_435:\n        /* \"#utility.yul\":3867:3870   */\n      dup3\n        /* \"#utility.yul\":3860:3897   */\n      mstore\n        /* \"#utility.yul\":3785:3903   */\n      pop\n      pop\n      jump\t// out\n        /* \"#utility.yul\":3909:4131   */\n    tag_37:\n        /* \"#utility.yul\":4002:4006   */\n      0x00\n        /* \"#utility.yul\":4040:4042   */\n      0x20\n        /* \"#utility.yul\":4029:4038   */\n      dup3\n        /* \"#utility.yul\":4025:4043   */\n      add\n        /* \"#utility.yul\":4017:4043   */\n      swap1\n      pop\n        /* \"#utility.yul\":4053:4124   */\n      tag_437\n        /* \"#utility.yul\":4121:4122   */\n      0x00\n        /* \"#utility.yul\":4110:4119   */\n      dup4\n        /* \"#utility.yul\":4106:4123   */\n      add\n        /* \"#utility.yul\":4097:4103   */\n      dup5\n        /* \"#utility.yul\":4053:4124   */\n      tag_344\n      jump\t// in\n    tag_437:\n        /* \"#utility.yul\":3909:4131   */\n      swap3\n      swap2\n      pop\n      pop\n      jump\t// out\n        /* \"#utility.yul\":4137:4259   */\n    tag_345:\n        /* \"#utility.yul\":4210:4234   */\n      tag_439\n        /* \"#utility.yul\":4228:4233   */\n      dup2\n        /* \"#utility.yul\":4210:4234   */\n      tag_343\n      jump\t// in\n    tag_439:\n        /* \"#utility.yul\":4203:4208   */\n      dup2\n        /* \"#utility.yul\":4200:4235   */\n      eq\n        /* \"#utility.yul\":4190:4253   */\n      tag_440\n      jumpi\n        /* \"#utility.yul\":4249:4250   */\n      0x00\n        /* \"#utility.yul\":4246:4247   */\n      dup1\n        /* \"#utility.yul\":4239:4251   */\n      revert\n        /* \"#utility.yul\":4190:4253   */\n    tag_440:\n        /* \"#utility.yul\":4137:4259   */\n      pop\n      jump\t// out\n        /* \"#utility.yul\":4265:4404   */\n    tag_346:\n        /* \"#utility.yul\":4311:4316   */\n      0x00\n        /* \"#utility.yul\":4349:4355   */\n      dup2\n        /* \"#utility.yul\":4336:4356   */\n      calldataload\n        /* \"#utility.yul\":4327:4356   */\n      swap1\n      pop\n        /* \"#utility.yul\":4365:4398   */\n      tag_442\n        /* \"#utility.yul\":4392:4397   */\n      dup2\n        /* \"#utility.yul\":4365:4398   */\n      tag_345\n      jump\t// in\n    tag_442:\n        /* \"#utility.yul\":4265:4404   */\n      swap3\n      swap2\n      pop\n      pop\n      jump\t// out\n        /* \"#utility.yul\":4410:4884   */\n    tag_40:\n        /* \"#utility.yul\":4478:4484   */\n      0x00\n        /* \"#utility.yul\":4486:4492   */\n      dup1\n        /* \"#utility.yul\":4535:4537   */\n      0x40\n        /* \"#utility.yul\":4523:4532   */\n      dup4\n        /* \"#utility.yul\":4514:4521   */\n      dup6\n        /* \"#utility.yul\":4510:4533   */\n      sub\n        /* \"#utility.yul\":4506:4538   */\n      slt\n        /* \"#utility.yul\":4503:4622   */\n      iszero\n      tag_444\n      jumpi\n        /* \"#utility.yul\":4541:4620   */\n      tag_445\n      tag_327\n      jump\t// in\n    tag_445:\n        /* \"#utility.yul\":4503:4622   */\n    tag_444:\n        /* \"#utility.yul\":4661:4662   */\n      0x00\n        /* \"#utility.yul\":4686:4739   */\n      tag_446\n        /* \"#utility.yul\":4731:4738   */\n      dup6\n        /* \"#utility.yul\":4722:4728   */\n      dup3\n        /* \"#utility.yul\":4711:4720   */\n      dup7\n        /* \"#utility.yul\":4707:4729   */\n      add\n        /* \"#utility.yul\":4686:4739   */\n      tag_346\n      jump\t// in\n    tag_446:\n        /* \"#utility.yul\":4676:4739   */\n      swap3\n      pop\n        /* \"#utility.yul\":4632:4749   */\n      pop\n        /* \"#utility.yul\":4788:4790   */\n      0x20\n        /* \"#utility.yul\":4814:4867   */\n      tag_447\n        /* \"#utility.yul\":4859:4866   */\n      dup6\n        /* \"#utility.yul\":4850:4856   */\n      dup3\n        /* \"#utility.yul\":4839:4848   */\n      dup7\n        /* \"#utility.yul\":4835:4857   */\n      add\n        /* \"#utility.yul\":4814:4867   */\n      tag_341\n      jump\t// in\n    tag_447:\n        /* \"#utility.yul\":4804:4867   */\n      swap2\n      pop\n        /* \"#utility.yul\":4759:4877   */\n      pop\n        /* \"#utility.yul\":4410:4884   */\n      swap3\n      pop\n      swap3\n      swap1\n      pop\n      jump\t// out\n        /* \"#utility.yul\":4890:5007   */\n    tag_347:\n        /* \"#utility.yul\":4999:5000   */\n      0x00\n        /* \"#utility.yul\":4996:4997   */\n      dup1\n        /* \"#utility.yul\":4989:5001   */\n      revert\n        /* \"#utility.yul\":5013:5130   */\n    tag_348:\n        /* \"#utility.yul\":5122:5123   */\n      0x00\n        /* \"#utility.yul\":5119:5120   */\n      dup1\n        /* \"#utility.yul\":5112:5124   */\n      revert\n        /* \"#utility.yul\":5136:5316   */\n    tag_199:\n        /* \"#utility.yul\":5184:5261   */\n      0x4e487b7100000000000000000000000000000000000000000000000000000000\n        /* \"#utility.yul\":5181:5182   */\n      0x00\n        /* \"#utility.yul\":5174:5262   */\n      mstore\n        /* \"#utility.yul\":5281:5285   */\n      0x41\n        /* \"#utility.yul\":5278:5279   */\n      0x04\n        /* \"#utility.yul\":5271:5286   */\n      mstore\n        /* \"#utility.yul\":5305:5309   */\n      0x24\n        /* \"#utility.yul\":5302:5303   */\n      0x00\n        /* \"#utility.yul\":5295:5310   */\n      revert\n        /* \"#utility.yul\":5322:5603   */\n    tag_349:\n        /* \"#utility.yul\":5405:5432   */\n      tag_452\n        /* \"#utility.yul\":5427:5431   */\n      dup3\n        /* \"#utility.yul\":5405:5432   */\n      tag_337\n      jump\t// in\n    tag_452:\n        /* \"#utility.yul\":5397:5403   */\n      dup2\n        /* \"#utility.yul\":5393:5433   */\n      add\n        /* \"#utility.yul\":5535:5541   */\n      dup2\n        /* \"#utility.yul\":5523:5533   */\n      dup2\n        /* \"#utility.yul\":5520:5542   */\n      lt\n        /* \"#utility.yul\":5499:5517   */\n      0xffffffffffffffff\n        /* \"#utility.yul\":5487:5497   */\n      dup3\n        /* \"#utility.yul\":5484:5518   */\n      gt\n        /* \"#utility.yul\":5481:5543   */\n      or\n        /* \"#utility.yul\":5478:5566   */\n      iszero\n      tag_453\n      jumpi\n        /* \"#utility.yul\":5546:5564   */\n      tag_454\n      tag_199\n      jump\t// in\n    tag_454:\n        /* \"#utility.yul\":5478:5566   */\n    tag_453:\n        /* \"#utility.yul\":5586:5596   */\n      dup1\n        /* \"#utility.yul\":5582:5584   */\n      0x40\n        /* \"#utility.yul\":5575:5597   */\n      mstore\n        /* \"#utility.yul\":5365:5603   */\n      pop\n        /* \"#utility.yul\":5322:5603   */\n      pop\n      pop\n      jump\t// out\n        /* \"#utility.yul\":5609:5738   */\n    tag_350:\n        /* \"#utility.yul\":5643:5649   */\n      0x00\n        /* \"#utility.yul\":5670:5690   */\n      tag_456\n      tag_326\n      jump\t// in\n    tag_456:\n        /* \"#utility.yul\":5660:5690   */\n      swap1\n      pop\n        /* \"#utility.yul\":5699:5732   */\n      tag_457\n        /* \"#utility.yul\":5727:5731   */\n      dup3\n        /* \"#utility.yul\":5719:5725   */\n      dup3\n        /* \"#utility.yul\":5699:5732   */\n      tag_349\n      jump\t// in\n    tag_457:\n        /* \"#utility.yul\":5609:5738   */\n      swap2\n      swap1\n      pop\n      jump\t// out\n        /* \"#utility.yul\":5744:6052   */\n    tag_351:\n        /* \"#utility.yul\":5806:5810   */\n      0x00\n        /* \"#utility.yul\":5896:5914   */\n      0xffffffffffffffff\n        /* \"#utility.yul\":5888:5894   */\n      dup3\n        /* \"#utility.yul\":5885:5915   */\n      gt\n        /* \"#utility.yul\":5882:5938   */\n      iszero\n      tag_459\n      jumpi\n        /* \"#utility.yul\":5918:5936   */\n      tag_460\n      tag_199\n      jump\t// in\n    tag_460:\n        /* \"#utility.yul\":5882:5938   */\n    tag_459:\n        /* \"#utility.yul\":5956:5985   */\n      tag_461\n        /* \"#utility.yul\":5978:5984   */\n      dup3\n        /* \"#utility.yul\":5956:5985   */\n      tag_337\n      jump\t// in\n    tag_461:\n        /* \"#utility.yul\":5948:5985   */\n      swap1\n      pop\n        /* \"#utility.yul\":6040:6044   */\n      0x20\n        /* \"#utility.yul\":6034:6038   */\n      dup2\n        /* \"#utility.yul\":6030:6045   */\n      add\n        /* \"#utility.yul\":6022:6045   */\n      swap1\n      pop\n        /* \"#utility.yul\":5744:6052   */\n      swap2\n      swap1\n      pop\n      jump\t// out\n        /* \"#utility.yul\":6058:6204   */\n    tag_352:\n        /* \"#utility.yul\":6155:6161   */\n      dup3\n        /* \"#utility.yul\":6150:6153   */\n      dup2\n        /* \"#utility.yul\":6145:6148   */\n      dup4\n        /* \"#utility.yul\":6132:6162   */\n      calldatacopy\n        /* \"#utility.yul\":6196:6197   */\n      0x00\n        /* \"#utility.yul\":6187:6193   */\n      dup4\n        /* \"#utility.yul\":6182:6185   */\n      dup4\n        /* \"#utility.yul\":6178:6194   */\n      add\n        /* \"#utility.yul\":6171:6198   */\n      mstore\n        /* \"#utility.yul\":6058:6204   */\n      pop\n      pop\n      pop\n      jump\t// out\n        /* \"#utility.yul\":6210:6635   */\n    tag_353:\n        /* \"#utility.yul\":6288:6293   */\n      0x00\n        /* \"#utility.yul\":6313:6379   */\n      tag_464\n        /* \"#utility.yul\":6329:6378   */\n      tag_465\n        /* \"#utility.yul\":6371:6377   */\n      dup5\n        /* \"#utility.yul\":6329:6378   */\n      tag_351\n      jump\t// in\n    tag_465:\n        /* \"#utility.yul\":6313:6379   */\n      tag_350\n      jump\t// in\n    tag_464:\n        /* \"#utility.yul\":6304:6379   */\n      swap1\n      pop\n        /* \"#utility.yul\":6402:6408   */\n      dup3\n        /* \"#utility.yul\":6395:6400   */\n      dup2\n        /* \"#utility.yul\":6388:6409   */\n      mstore\n        /* \"#utility.yul\":6440:6444   */\n      0x20\n        /* \"#utility.yul\":6433:6438   */\n      dup2\n        /* \"#utility.yul\":6429:6445   */\n      add\n        /* \"#utility.yul\":6478:6481   */\n      dup5\n        /* \"#utility.yul\":6469:6475   */\n      dup5\n        /* \"#utility.yul\":6464:6467   */\n      dup5\n        /* \"#utility.yul\":6460:6476   */\n      add\n        /* \"#utility.yul\":6457:6482   */\n      gt\n        /* \"#utility.yul\":6454:6566   */\n      iszero\n      tag_466\n      jumpi\n        /* \"#utility.yul\":6485:6564   */\n      tag_467\n      tag_348\n      jump\t// in\n    tag_467:\n        /* \"#utility.yul\":6454:6566   */\n    tag_466:\n        /* \"#utility.yul\":6575:6629   */\n      tag_468\n        /* \"#utility.yul\":6622:6628   */\n      dup5\n        /* \"#utility.yul\":6617:6620   */\n      dup3\n        /* \"#utility.yul\":6612:6615   */\n      dup6\n        /* \"#utility.yul\":6575:6629   */\n      tag_352\n      jump\t// in\n    tag_468:\n        /* \"#utility.yul\":6294:6635   */\n      pop\n        /* \"#utility.yul\":6210:6635   */\n      swap4\n      swap3\n      pop\n      pop\n      pop\n      jump\t// out\n        /* \"#utility.yul\":6655:6995   */\n    tag_354:\n        /* \"#utility.yul\":6711:6716   */\n      0x00\n        /* \"#utility.yul\":6760:6763   */\n      dup3\n        /* \"#utility.yul\":6753:6757   */\n      0x1f\n        /* \"#utility.yul\":6745:6751   */\n      dup4\n        /* \"#utility.yul\":6741:6758   */\n      add\n        /* \"#utility.yul\":6737:6764   */\n      slt\n        /* \"#utility.yul\":6727:6849   */\n      tag_470\n      jumpi\n        /* \"#utility.yul\":6768:6847   */\n      tag_471\n      tag_347\n      jump\t// in\n    tag_471:\n        /* \"#utility.yul\":6727:6849   */\n    tag_470:\n        /* \"#utility.yul\":6885:6891   */\n      dup2\n        /* \"#utility.yul\":6872:6892   */\n      calldataload\n        /* \"#utility.yul\":6910:6989   */\n      tag_472\n        /* \"#utility.yul\":6985:6988   */\n      dup5\n        /* \"#utility.yul\":6977:6983   */\n      dup3\n        /* \"#utility.yul\":6970:6974   */\n      0x20\n        /* \"#utility.yul\":6962:6968   */\n      dup7\n        /* \"#utility.yul\":6958:6975   */\n      add\n        /* \"#utility.yul\":6910:6989   */\n      tag_353\n      jump\t// in\n    tag_472:\n        /* \"#utility.yul\":6901:6989   */\n      swap2\n      pop\n        /* \"#utility.yul\":6717:6995   */\n      pop\n        /* \"#utility.yul\":6655:6995   */\n      swap3\n      swap2\n      pop\n      pop\n      jump\t// out\n        /* \"#utility.yul\":7001:7510   */\n    tag_44:\n        /* \"#utility.yul\":7070:7076   */\n      0x00\n        /* \"#utility.yul\":7119:7121   */\n      0x20\n        /* \"#utility.yul\":7107:7116   */\n      dup3\n        /* \"#utility.yul\":7098:7105   */\n      dup5\n        /* \"#utility.yul\":7094:7117   */\n      sub\n        /* \"#utility.yul\":7090:7122   */\n      slt\n        /* \"#utility.yul\":7087:7206   */\n      iszero\n      tag_474\n      jumpi\n        /* \"#utility.yul\":7125:7204   */\n      tag_475\n      tag_327\n      jump\t// in\n    tag_475:\n        /* \"#utility.yul\":7087:7206   */\n    tag_474:\n        /* \"#utility.yul\":7273:7274   */\n      0x00\n        /* \"#utility.yul\":7262:7271   */\n      dup3\n        /* \"#utility.yul\":7258:7275   */\n      add\n        /* \"#utility.yul\":7245:7276   */\n      calldataload\n        /* \"#utility.yul\":7303:7321   */\n      0xffffffffffffffff\n        /* \"#utility.yul\":7295:7301   */\n      dup2\n        /* \"#utility.yul\":7292:7322   */\n      gt\n        /* \"#utility.yul\":7289:7406   */\n      iszero\n      tag_476\n      jumpi\n        /* \"#utility.yul\":7325:7404   */\n      tag_477\n      tag_328\n      jump\t// in\n    tag_477:\n        /* \"#utility.yul\":7289:7406   */\n    tag_476:\n        /* \"#utility.yul\":7430:7493   */\n      tag_478\n        /* \"#utility.yul\":7485:7492   */\n      dup5\n        /* \"#utility.yul\":7476:7482   */\n      dup3\n        /* \"#utility.yul\":7465:7474   */\n      dup6\n        /* \"#utility.yul\":7461:7483   */\n      add\n        /* \"#utility.yul\":7430:7493   */\n      tag_354\n      jump\t// in\n    tag_478:\n        /* \"#utility.yul\":7420:7493   */\n      swap2\n      pop\n        /* \"#utility.yul\":7216:7503   */\n      pop\n        /* \"#utility.yul\":7001:7510   */\n      swap3\n      swap2\n      pop\n      pop\n      jump\t// out\n        /* \"#utility.yul\":7516:8135   */\n    tag_49:\n        /* \"#utility.yul\":7593:7599   */\n      0x00\n        /* \"#utility.yul\":7601:7607   */\n      dup1\n        /* \"#utility.yul\":7609:7615   */\n      0x00\n        /* \"#utility.yul\":7658:7660   */\n      0x60\n        /* \"#utility.yul\":7646:7655   */\n      dup5\n        /* \"#utility.yul\":7637:7644   */\n      dup7\n        /* \"#utility.yul\":7633:7656   */\n      sub\n        /* \"#utility.yul\":7629:7661   */\n      slt\n        /* \"#utility.yul\":7626:7745   */\n      iszero\n      tag_480\n      jumpi\n        /* \"#utility.yul\":7664:7743   */\n      tag_481\n      tag_327\n      jump\t// in\n    tag_481:\n        /* \"#utility.yul\":7626:7745   */\n    tag_480:\n        /* \"#utility.yul\":7784:7785   */\n      0x00\n        /* \"#utility.yul\":7809:7862   */\n      tag_482\n        /* \"#utility.yul\":7854:7861   */\n      dup7\n        /* \"#utility.yul\":7845:7851   */\n      dup3\n        /* \"#utility.yul\":7834:7843   */\n      dup8\n        /* \"#utility.yul\":7830:7852   */\n      add\n        /* \"#utility.yul\":7809:7862   */\n      tag_346\n      jump\t// in\n    tag_482:\n        /* \"#utility.yul\":7799:7862   */\n      swap4\n      pop\n        /* \"#utility.yul\":7755:7872   */\n      pop\n        /* \"#utility.yul\":7911:7913   */\n      0x20\n        /* \"#utility.yul\":7937:7990   */\n      tag_483\n        /* \"#utility.yul\":7982:7989   */\n      dup7\n        /* \"#utility.yul\":7973:7979   */\n      dup3\n        /* \"#utility.yul\":7962:7971   */\n      dup8\n        /* \"#utility.yul\":7958:7980   */\n      add\n        /* \"#utility.yul\":7937:7990   */\n      tag_346\n      jump\t// in\n    tag_483:\n        /* \"#utility.yul\":7927:7990   */\n      swap3\n      pop\n        /* \"#utility.yul\":7882:8000   */\n      pop\n        /* \"#utility.yul\":8039:8041   */\n      0x40\n        /* \"#utility.yul\":8065:8118   */\n      tag_484\n        /* \"#utility.yul\":8110:8117   */\n      dup7\n        /* \"#utility.yul\":8101:8107   */\n      dup3\n        /* \"#utility.yul\":8090:8099   */\n      dup8\n        /* \"#utility.yul\":8086:8108   */\n      add\n        /* \"#utility.yul\":8065:8118   */\n      tag_341\n      jump\t// in\n    tag_484:\n        /* \"#utility.yul\":8055:8118   */\n      swap2\n      pop\n        /* \"#utility.yul\":8010:8128   */\n      pop\n        /* \"#utility.yul\":7516:8135   */\n      swap3\n      pop\n      swap3\n      pop\n      swap3\n      jump\t// out\n        /* \"#utility.yul\":8141:8470   */\n    tag_60:\n        /* \"#utility.yul\":8200:8206   */\n      0x00\n        /* \"#utility.yul\":8249:8251   */\n      0x20\n        /* \"#utility.yul\":8237:8246   */\n      dup3\n        /* \"#utility.yul\":8228:8235   */\n      dup5\n        /* \"#utility.yul\":8224:8247   */\n      sub\n        /* \"#utility.yul\":8220:8252   */\n      slt\n        /* \"#utility.yul\":8217:8336   */\n      iszero\n      tag_486\n      jumpi\n        /* \"#utility.yul\":8255:8334   */\n      tag_487\n      tag_327\n      jump\t// in\n    tag_487:\n        /* \"#utility.yul\":8217:8336   */\n    tag_486:\n        /* \"#utility.yul\":8375:8376   */\n      0x00\n        /* \"#utility.yul\":8400:8453   */\n      tag_488\n        /* \"#utility.yul\":8445:8452   */\n      dup5\n        /* \"#utility.yul\":8436:8442   */\n      dup3\n        /* \"#utility.yul\":8425:8434   */\n      dup6\n        /* \"#utility.yul\":8421:8443   */\n      add\n        /* \"#utility.yul\":8400:8453   */\n      tag_346\n      jump\t// in\n    tag_488:\n        /* \"#utility.yul\":8390:8453   */\n      swap2\n      pop\n        /* \"#utility.yul\":8346:8463   */\n      pop\n        /* \"#utility.yul\":8141:8470   */\n      swap3\n      swap2\n      pop\n      pop\n      jump\t// out\n        /* \"#utility.yul\":8476:8594   */\n    tag_355:\n        /* \"#utility.yul\":8563:8587   */\n      tag_490\n        /* \"#utility.yul\":8581:8586   */\n      dup2\n        /* \"#utility.yul\":8563:8587   */\n      tag_339\n      jump\t// in\n    tag_490:\n        /* \"#utility.yul\":8558:8561   */\n      dup3\n        /* \"#utility.yul\":8551:8588   */\n      mstore\n        /* \"#utility.yul\":8476:8594   */\n      pop\n      pop\n      jump\t// out\n        /* \"#utility.yul\":8600:8822   */\n    tag_63:\n        /* \"#utility.yul\":8693:8697   */\n      0x00\n        /* \"#utility.yul\":8731:8733   */\n      0x20\n        /* \"#utility.yul\":8720:8729   */\n      dup3\n        /* \"#utility.yul\":8716:8734   */\n      add\n        /* \"#utility.yul\":8708:8734   */\n      swap1\n      pop\n        /* \"#utility.yul\":8744:8815   */\n      tag_492\n        /* \"#utility.yul\":8812:8813   */\n      0x00\n        /* \"#utility.yul\":8801:8810   */\n      dup4\n        /* \"#utility.yul\":8797:8814   */\n      add\n        /* \"#utility.yul\":8788:8794   */\n      dup5\n        /* \"#utility.yul\":8744:8815   */\n      tag_355\n      jump\t// in\n    tag_492:\n        /* \"#utility.yul\":8600:8822   */\n      swap3\n      swap2\n      pop\n      pop\n      jump\t// out\n        /* \"#utility.yul\":8828:8944   */\n    tag_356:\n        /* \"#utility.yul\":8898:8919   */\n      tag_494\n        /* \"#utility.yul\":8913:8918   */\n      dup2\n        /* \"#utility.yul\":8898:8919   */\n      tag_332\n      jump\t// in\n    tag_494:\n        /* \"#utility.yul\":8891:8896   */\n      dup2\n        /* \"#utility.yul\":8888:8920   */\n      eq\n        /* \"#utility.yul\":8878:8938   */\n      tag_495\n      jumpi\n        /* \"#utility.yul\":8934:8935   */\n      0x00\n        /* \"#utility.yul\":8931:8932   */\n      dup1\n        /* \"#utility.yul\":8924:8936   */\n      revert\n        /* \"#utility.yul\":8878:8938   */\n    tag_495:\n        /* \"#utility.yul\":8828:8944   */\n      pop\n      jump\t// out\n        /* \"#utility.yul\":8950:9083   */\n    tag_357:\n        /* \"#utility.yul\":8993:8998   */\n      0x00\n        /* \"#utility.yul\":9031:9037   */\n      dup2\n        /* \"#utility.yul\":9018:9038   */\n      calldataload\n        /* \"#utility.yul\":9009:9038   */\n      swap1\n      pop\n        /* \"#utility.yul\":9047:9077   */\n      tag_497\n        /* \"#utility.yul\":9071:9076   */\n      dup2\n        /* \"#utility.yul\":9047:9077   */\n      tag_356\n      jump\t// in\n    tag_497:\n        /* \"#utility.yul\":8950:9083   */\n      swap3\n      swap2\n      pop\n      pop\n      jump\t// out\n        /* \"#utility.yul\":9089:9557   */\n    tag_69:\n        /* \"#utility.yul\":9154:9160   */\n      0x00\n        /* \"#utility.yul\":9162:9168   */\n      dup1\n        /* \"#utility.yul\":9211:9213   */\n      0x40\n        /* \"#utility.yul\":9199:9208   */\n      dup4\n        /* \"#utility.yul\":9190:9197   */\n      dup6\n        /* \"#utility.yul\":9186:9209   */\n      sub\n        /* \"#utility.yul\":9182:9214   */\n      slt\n        /* \"#utility.yul\":9179:9298   */\n      iszero\n      tag_499\n      jumpi\n        /* \"#utility.yul\":9217:9296   */\n      tag_500\n      tag_327\n      jump\t// in\n    tag_500:\n        /* \"#utility.yul\":9179:9298   */\n    tag_499:\n        /* \"#utility.yul\":9337:9338   */\n      0x00\n        /* \"#utility.yul\":9362:9415   */\n      tag_501\n        /* \"#utility.yul\":9407:9414   */\n      dup6\n        /* \"#utility.yul\":9398:9404   */\n      dup3\n        /* \"#utility.yul\":9387:9396   */\n      dup7\n        /* \"#utility.yul\":9383:9405   */\n      add\n        /* \"#utility.yul\":9362:9415   */\n      tag_346\n      jump\t// in\n    tag_501:\n        /* \"#utility.yul\":9352:9415   */\n      swap3\n      pop\n        /* \"#utility.yul\":9308:9425   */\n      pop\n        /* \"#utility.yul\":9464:9466   */\n      0x20\n        /* \"#utility.yul\":9490:9540   */\n      tag_502\n        /* \"#utility.yul\":9532:9539   */\n      dup6\n        /* \"#utility.yul\":9523:9529   */\n      dup3\n        /* \"#utility.yul\":9512:9521   */\n      dup7\n        /* \"#utility.yul\":9508:9530   */\n      add\n        /* \"#utility.yul\":9490:9540   */\n      tag_357\n      jump\t// in\n    tag_502:\n        /* \"#utility.yul\":9480:9540   */\n      swap2\n      pop\n        /* \"#utility.yul\":9435:9550   */\n      pop\n        /* \"#utility.yul\":9089:9557   */\n      swap3\n      pop\n      swap3\n      swap1\n      pop\n      jump\t// out\n        /* \"#utility.yul\":9563:9870   */\n    tag_358:\n        /* \"#utility.yul\":9624:9628   */\n      0x00\n        /* \"#utility.yul\":9714:9732   */\n      0xffffffffffffffff\n        /* \"#utility.yul\":9706:9712   */\n      dup3\n        /* \"#utility.yul\":9703:9733   */\n      gt\n        /* \"#utility.yul\":9700:9756   */\n      iszero\n      tag_504\n      jumpi\n        /* \"#utility.yul\":9736:9754   */\n      tag_505\n      tag_199\n      jump\t// in\n    tag_505:\n        /* \"#utility.yul\":9700:9756   */\n    tag_504:\n        /* \"#utility.yul\":9774:9803   */\n      tag_506\n        /* \"#utility.yul\":9796:9802   */\n      dup3\n        /* \"#utility.yul\":9774:9803   */\n      tag_337\n      jump\t// in\n    tag_506:\n        /* \"#utility.yul\":9766:9803   */\n      swap1\n      pop\n        /* \"#utility.yul\":9858:9862   */\n      0x20\n        /* \"#utility.yul\":9852:9856   */\n      dup2\n        /* \"#utility.yul\":9848:9863   */\n      add\n        /* \"#utility.yul\":9840:9863   */\n      swap1\n      pop\n        /* \"#utility.yul\":9563:9870   */\n      swap2\n      swap1\n      pop\n      jump\t// out\n        /* \"#utility.yul\":9876:10299   */\n    tag_359:\n        /* \"#utility.yul\":9953:9958   */\n      0x00\n        /* \"#utility.yul\":9978:10043   */\n      tag_508\n        /* \"#utility.yul\":9994:10042   */\n      tag_509\n        /* \"#utility.yul\":10035:10041   */\n      dup5\n        /* \"#utility.yul\":9994:10042   */\n      tag_358\n      jump\t// in\n    tag_509:\n        /* \"#utility.yul\":9978:10043   */\n      tag_350\n      jump\t// in\n    tag_508:\n        /* \"#utility.yul\":9969:10043   */\n      swap1\n      pop\n        /* \"#utility.yul\":10066:10072   */\n      dup3\n        /* \"#utility.yul\":10059:10064   */\n      dup2\n        /* \"#utility.yul\":10052:10073   */\n      mstore\n        /* \"#utility.yul\":10104:10108   */\n      0x20\n        /* \"#utility.yul\":10097:10102   */\n      dup2\n        /* \"#utility.yul\":10093:10109   */\n      add\n        /* \"#utility.yul\":10142:10145   */\n      dup5\n        /* \"#utility.yul\":10133:10139   */\n      dup5\n        /* \"#utility.yul\":10128:10131   */\n      dup5\n        /* \"#utility.yul\":10124:10140   */\n      add\n        /* \"#utility.yul\":10121:10146   */\n      gt\n        /* \"#utility.yul\":10118:10230   */\n      iszero\n      tag_510\n      jumpi\n        /* \"#utility.yul\":10149:10228   */\n      tag_511\n      tag_348\n      jump\t// in\n    tag_511:\n        /* \"#utility.yul\":10118:10230   */\n    tag_510:\n        /* \"#utility.yul\":10239:10293   */\n      tag_512\n        /* \"#utility.yul\":10286:10292   */\n      dup5\n        /* \"#utility.yul\":10281:10284   */\n      dup3\n        /* \"#utility.yul\":10276:10279   */\n      dup6\n        /* \"#utility.yul\":10239:10293   */\n      tag_352\n      jump\t// in\n    tag_512:\n        /* \"#utility.yul\":9959:10299   */\n      pop\n        /* \"#utility.yul\":9876:10299   */\n      swap4\n      swap3\n      pop\n      pop\n      pop\n      jump\t// out\n        /* \"#utility.yul\":10318:10656   */\n    tag_360:\n        /* \"#utility.yul\":10373:10378   */\n      0x00\n        /* \"#utility.yul\":10422:10425   */\n      dup3\n        /* \"#utility.yul\":10415:10419   */\n      0x1f\n        /* \"#utility.yul\":10407:10413   */\n      dup4\n        /* \"#utility.yul\":10403:10420   */\n      add\n        /* \"#utility.yul\":10399:10426   */\n      slt\n        /* \"#utility.yul\":10389:10511   */\n      tag_514\n      jumpi\n        /* \"#utility.yul\":10430:10509   */\n      tag_515\n      tag_347\n      jump\t// in\n    tag_515:\n        /* \"#utility.yul\":10389:10511   */\n    tag_514:\n        /* \"#utility.yul\":10547:10553   */\n      dup2\n        /* \"#utility.yul\":10534:10554   */\n      calldataload\n        /* \"#utility.yul\":10572:10650   */\n      tag_516\n        /* \"#utility.yul\":10646:10649   */\n      dup5\n        /* \"#utility.yul\":10638:10644   */\n      dup3\n        /* \"#utility.yul\":10631:10635   */\n      0x20\n        /* \"#utility.yul\":10623:10629   */\n      dup7\n        /* \"#utility.yul\":10619:10636   */\n      add\n        /* \"#utility.yul\":10572:10650   */\n      tag_359\n      jump\t// in\n    tag_516:\n        /* \"#utility.yul\":10563:10650   */\n      swap2\n      pop\n        /* \"#utility.yul\":10379:10656   */\n      pop\n        /* \"#utility.yul\":10318:10656   */\n      swap3\n      swap2\n      pop\n      pop\n      jump\t// out\n        /* \"#utility.yul\":10662:11605   */\n    tag_73:\n        /* \"#utility.yul\":10757:10763   */\n      0x00\n        /* \"#utility.yul\":10765:10771   */\n      dup1\n        /* \"#utility.yul\":10773:10779   */\n      0x00\n        /* \"#utility.yul\":10781:10787   */\n      dup1\n        /* \"#utility.yul\":10830:10833   */\n      0x80\n        /* \"#utility.yul\":10818:10827   */\n      dup6\n        /* \"#utility.yul\":10809:10816   */\n      dup8\n        /* \"#utility.yul\":10805:10828   */\n      sub\n        /* \"#utility.yul\":10801:10834   */\n      slt\n        /* \"#utility.yul\":10798:10918   */\n      iszero\n      tag_518\n      jumpi\n        /* \"#utility.yul\":10837:10916   */\n      tag_519\n      tag_327\n      jump\t// in\n    tag_519:\n        /* \"#utility.yul\":10798:10918   */\n    tag_518:\n        /* \"#utility.yul\":10957:10958   */\n      0x00\n        /* \"#utility.yul\":10982:11035   */\n      tag_520\n        /* \"#utility.yul\":11027:11034   */\n      dup8\n        /* \"#utility.yul\":11018:11024   */\n      dup3\n        /* \"#utility.yul\":11007:11016   */\n      dup9\n        /* \"#utility.yul\":11003:11025   */\n      add\n        /* \"#utility.yul\":10982:11035   */\n      tag_346\n      jump\t// in\n    tag_520:\n        /* \"#utility.yul\":10972:11035   */\n      swap5\n      pop\n        /* \"#utility.yul\":10928:11045   */\n      pop\n        /* \"#utility.yul\":11084:11086   */\n      0x20\n        /* \"#utility.yul\":11110:11163   */\n      tag_521\n        /* \"#utility.yul\":11155:11162   */\n      dup8\n        /* \"#utility.yul\":11146:11152   */\n      dup3\n        /* \"#utility.yul\":11135:11144   */\n      dup9\n        /* \"#utility.yul\":11131:11153   */\n      add\n        /* \"#utility.yul\":11110:11163   */\n      tag_346\n      jump\t// in\n    tag_521:\n        /* \"#utility.yul\":11100:11163   */\n      swap4\n      pop\n        /* \"#utility.yul\":11055:11173   */\n      pop\n        /* \"#utility.yul\":11212:11214   */\n      0x40\n        /* \"#utility.yul\":11238:11291   */\n      tag_522\n        /* \"#utility.yul\":11283:11290   */\n      dup8\n        /* \"#utility.yul\":11274:11280   */\n      dup3\n        /* \"#utility.yul\":11263:11272   */\n      dup9\n        /* \"#utility.yul\":11259:11281   */\n      add\n        /* \"#utility.yul\":11238:11291   */\n      tag_341\n      jump\t// in\n    tag_522:\n        /* \"#utility.yul\":11228:11291   */\n      swap3\n      pop\n        /* \"#utility.yul\":11183:11301   */\n      pop\n        /* \"#utility.yul\":11368:11370   */\n      0x60\n        /* \"#utility.yul\":11357:11366   */\n      dup6\n        /* \"#utility.yul\":11353:11371   */\n      add\n        /* \"#utility.yul\":11340:11372   */\n      calldataload\n        /* \"#utility.yul\":11399:11417   */\n      0xffffffffffffffff\n        /* \"#utility.yul\":11391:11397   */\n      dup2\n        /* \"#utility.yul\":11388:11418   */\n      gt\n        /* \"#utility.yul\":11385:11502   */\n      iszero\n      tag_523\n      jumpi\n        /* \"#utility.yul\":11421:11500   */\n      tag_524\n      tag_328\n      jump\t// in\n    tag_524:\n        /* \"#utility.yul\":11385:11502   */\n    tag_523:\n        /* \"#utility.yul\":11526:11588   */\n      tag_525\n        /* \"#utility.yul\":11580:11587   */\n      dup8\n        /* \"#utility.yul\":11571:11577   */\n      dup3\n        /* \"#utility.yul\":11560:11569   */\n      dup9\n        /* \"#utility.yul\":11556:11578   */\n      add\n        /* \"#utility.yul\":11526:11588   */\n      tag_360\n      jump\t// in\n    tag_525:\n        /* \"#utility.yul\":11516:11588   */\n      swap2\n      pop\n        /* \"#utility.yul\":11311:11598   */\n      pop\n        /* \"#utility.yul\":10662:11605   */\n      swap3\n      swap6\n      swap2\n      swap5\n      pop\n      swap3\n      pop\n      jump\t// out\n        /* \"#utility.yul\":11611:12085   */\n    tag_88:\n        /* \"#utility.yul\":11679:11685   */\n      0x00\n        /* \"#utility.yul\":11687:11693   */\n      dup1\n        /* \"#utility.yul\":11736:11738   */\n      0x40\n        /* \"#utility.yul\":11724:11733   */\n      dup4\n        /* \"#utility.yul\":11715:11722   */\n      dup6\n        /* \"#utility.yul\":11711:11734   */\n      sub\n        /* \"#utility.yul\":11707:11739   */\n      slt\n        /* \"#utility.yul\":11704:11823   */\n      iszero\n      tag_527\n      jumpi\n        /* \"#utility.yul\":11742:11821   */\n      tag_528\n      tag_327\n      jump\t// in\n    tag_528:\n        /* \"#utility.yul\":11704:11823   */\n    tag_527:\n        /* \"#utility.yul\":11862:11863   */\n      0x00\n        /* \"#utility.yul\":11887:11940   */\n      tag_529\n        /* \"#utility.yul\":11932:11939   */\n      dup6\n        /* \"#utility.yul\":11923:11929   */\n      dup3\n        /* \"#utility.yul\":11912:11921   */\n      dup7\n        /* \"#utility.yul\":11908:11930   */\n      add\n        /* \"#utility.yul\":11887:11940   */\n      tag_346\n      jump\t// in\n    tag_529:\n        /* \"#utility.yul\":11877:11940   */\n      swap3\n      pop\n        /* \"#utility.yul\":11833:11950   */\n      pop\n        /* \"#utility.yul\":11989:11991   */\n      0x20\n        /* \"#utility.yul\":12015:12068   */\n      tag_530\n        /* \"#utility.yul\":12060:12067   */\n      dup6\n        /* \"#utility.yul\":12051:12057   */\n      dup3\n        /* \"#utility.yul\":12040:12049   */\n      dup7\n        /* \"#utility.yul\":12036:12058   */\n      add\n        /* \"#utility.yul\":12015:12068   */\n      tag_346\n      jump\t// in\n    tag_530:\n        /* \"#utility.yul\":12005:12068   */\n      swap2\n      pop\n        /* \"#utility.yul\":11960:12078   */\n      pop\n        /* \"#utility.yul\":11611:12085   */\n      swap3\n      pop\n      swap3\n      swap1\n      pop\n      jump\t// out\n        /* \"#utility.yul\":12091:12271   */\n    tag_361:\n        /* \"#utility.yul\":12139:12216   */\n      0x4e487b7100000000000000000000000000000000000000000000000000000000\n        /* \"#utility.yul\":12136:12137   */\n      0x00\n        /* \"#utility.yul\":12129:12217   */\n      mstore\n        /* \"#utility.yul\":12236:12240   */\n      0x22\n        /* \"#utility.yul\":12233:12234   */\n      0x04\n        /* \"#utility.yul\":12226:12241   */\n      mstore\n        /* \"#utility.yul\":12260:12264   */\n      0x24\n        /* \"#utility.yul\":12257:12258   */\n      0x00\n        /* \"#utility.yul\":12250:12265   */\n      revert\n        /* \"#utility.yul\":12277:12597   */\n    tag_97:\n        /* \"#utility.yul\":12321:12327   */\n      0x00\n        /* \"#utility.yul\":12358:12359   */\n      0x02\n        /* \"#utility.yul\":12352:12356   */\n      dup3\n        /* \"#utility.yul\":12348:12360   */\n      div\n        /* \"#utility.yul\":12338:12360   */\n      swap1\n      pop\n        /* \"#utility.yul\":12405:12406   */\n      0x01\n        /* \"#utility.yul\":12399:12403   */\n      dup3\n        /* \"#utility.yul\":12395:12407   */\n      and\n        /* \"#utility.yul\":12426:12444   */\n      dup1\n        /* \"#utility.yul\":12416:12497   */\n      tag_533\n      jumpi\n        /* \"#utility.yul\":12482:12486   */\n      0x7f\n        /* \"#utility.yul\":12474:12480   */\n      dup3\n        /* \"#utility.yul\":12470:12487   */\n      and\n        /* \"#utility.yul\":12460:12487   */\n      swap2\n      pop\n        /* \"#utility.yul\":12416:12497   */\n    tag_533:\n        /* \"#utility.yul\":12544:12546   */\n      0x20\n        /* \"#utility.yul\":12536:12542   */\n      dup3\n        /* \"#utility.yul\":12533:12547   */\n      lt\n        /* \"#utility.yul\":12513:12531   */\n      dup2\n        /* \"#utility.yul\":12510:12548   */\n      sub\n        /* \"#utility.yul\":12507:12591   */\n      tag_534\n      jumpi\n        /* \"#utility.yul\":12563:12581   */\n      tag_535\n      tag_361\n      jump\t// in\n    tag_535:\n        /* \"#utility.yul\":12507:12591   */\n    tag_534:\n        /* \"#utility.yul\":12328:12597   */\n      pop\n        /* \"#utility.yul\":12277:12597   */\n      swap2\n      swap1\n      pop\n      jump\t// out\n        /* \"#utility.yul\":12603:12751   */\n    tag_362:\n        /* \"#utility.yul\":12705:12716   */\n      0x00\n        /* \"#utility.yul\":12742:12745   */\n      dup2\n        /* \"#utility.yul\":12727:12745   */\n      swap1\n      pop\n        /* \"#utility.yul\":12603:12751   */\n      swap3\n      swap2\n      pop\n      pop\n      jump\t// out\n        /* \"#utility.yul\":12757:13173   */\n    tag_363:\n        /* \"#utility.yul\":12897:12963   */\n      0x7b226e616d65223a20224c434d204f4e2d434841494e4544222c202264657363\n        /* \"#utility.yul\":12893:12894   */\n      0x00\n        /* \"#utility.yul\":12885:12891   */\n      dup3\n        /* \"#utility.yul\":12881:12895   */\n      add\n        /* \"#utility.yul\":12874:12964   */\n      mstore\n        /* \"#utility.yul\":12998:13064   */\n      0x72697074696f6e223a2022412073696d706c6520535647206261736564206f6e\n        /* \"#utility.yul\":12993:12995   */\n      0x20\n        /* \"#utility.yul\":12985:12991   */\n      dup3\n        /* \"#utility.yul\":12981:12996   */\n      add\n        /* \"#utility.yul\":12974:13065   */\n      mstore\n        /* \"#utility.yul\":13099:13165   */\n      0x2d636861696e204e4654222c2022696d616765223a2200000000000000000000\n        /* \"#utility.yul\":13094:13096   */\n      0x40\n        /* \"#utility.yul\":13086:13092   */\n      dup3\n        /* \"#utility.yul\":13082:13097   */\n      add\n        /* \"#utility.yul\":13075:13166   */\n      mstore\n        /* \"#utility.yul\":12757:13173   */\n      pop\n      jump\t// out\n        /* \"#utility.yul\":13179:13581   */\n    tag_364:\n        /* \"#utility.yul\":13339:13342   */\n      0x00\n        /* \"#utility.yul\":13360:13445   */\n      tag_539\n        /* \"#utility.yul\":13442:13444   */\n      0x56\n        /* \"#utility.yul\":13437:13440   */\n      dup4\n        /* \"#utility.yul\":13360:13445   */\n      tag_362\n      jump\t// in\n    tag_539:\n        /* \"#utility.yul\":13353:13445   */\n      swap2\n      pop\n        /* \"#utility.yul\":13454:13547   */\n      tag_540\n        /* \"#utility.yul\":13543:13546   */\n      dup3\n        /* \"#utility.yul\":13454:13547   */\n      tag_363\n      jump\t// in\n    tag_540:\n        /* \"#utility.yul\":13572:13574   */\n      0x56\n        /* \"#utility.yul\":13567:13570   */\n      dup3\n        /* \"#utility.yul\":13563:13575   */\n      add\n        /* \"#utility.yul\":13556:13575   */\n      swap1\n      pop\n        /* \"#utility.yul\":13179:13581   */\n      swap2\n      swap1\n      pop\n      jump\t// out\n        /* \"#utility.yul\":13587:13977   */\n    tag_365:\n        /* \"#utility.yul\":13693:13696   */\n      0x00\n        /* \"#utility.yul\":13721:13760   */\n      tag_542\n        /* \"#utility.yul\":13754:13759   */\n      dup3\n        /* \"#utility.yul\":13721:13760   */\n      tag_334\n      jump\t// in\n    tag_542:\n        /* \"#utility.yul\":13776:13865   */\n      tag_543\n        /* \"#utility.yul\":13858:13864   */\n      dup2\n        /* \"#utility.yul\":13853:13856   */\n      dup6\n        /* \"#utility.yul\":13776:13865   */\n      tag_362\n      jump\t// in\n    tag_543:\n        /* \"#utility.yul\":13769:13865   */\n      swap4\n      pop\n        /* \"#utility.yul\":13874:13939   */\n      tag_544\n        /* \"#utility.yul\":13932:13938   */\n      dup2\n        /* \"#utility.yul\":13927:13930   */\n      dup6\n        /* \"#utility.yul\":13920:13924   */\n      0x20\n        /* \"#utility.yul\":13913:13918   */\n      dup7\n        /* \"#utility.yul\":13909:13925   */\n      add\n        /* \"#utility.yul\":13874:13939   */\n      tag_336\n      jump\t// in\n    tag_544:\n        /* \"#utility.yul\":13964:13970   */\n      dup1\n        /* \"#utility.yul\":13959:13962   */\n      dup5\n        /* \"#utility.yul\":13955:13971   */\n      add\n        /* \"#utility.yul\":13948:13971   */\n      swap2\n      pop\n        /* \"#utility.yul\":13697:13977   */\n      pop\n        /* \"#utility.yul\":13587:13977   */\n      swap3\n      swap2\n      pop\n      pop\n      jump\t// out\n        /* \"#utility.yul\":13983:14197   */\n    tag_366:\n        /* \"#utility.yul\":14123:14189   */\n      0x227d000000000000000000000000000000000000000000000000000000000000\n        /* \"#utility.yul\":14119:14120   */\n      0x00\n        /* \"#utility.yul\":14111:14117   */\n      dup3\n        /* \"#utility.yul\":14107:14121   */\n      add\n        /* \"#utility.yul\":14100:14190   */\n      mstore\n        /* \"#utility.yul\":13983:14197   */\n      pop\n      jump\t// out\n        /* \"#utility.yul\":14203:14603   */\n    tag_367:\n        /* \"#utility.yul\":14363:14366   */\n      0x00\n        /* \"#utility.yul\":14384:14468   */\n      tag_547\n        /* \"#utility.yul\":14466:14467   */\n      0x02\n        /* \"#utility.yul\":14461:14464   */\n      dup4\n        /* \"#utility.yul\":14384:14468   */\n      tag_362\n      jump\t// in\n    tag_547:\n        /* \"#utility.yul\":14377:14468   */\n      swap2\n      pop\n        /* \"#utility.yul\":14477:14570   */\n      tag_548\n        /* \"#utility.yul\":14566:14569   */\n      dup3\n        /* \"#utility.yul\":14477:14570   */\n      tag_366\n      jump\t// in\n    tag_548:\n        /* \"#utility.yul\":14595:14596   */\n      0x02\n        /* \"#utility.yul\":14590:14593   */\n      dup3\n        /* \"#utility.yul\":14586:14597   */\n      add\n        /* \"#utility.yul\":14579:14597   */\n      swap1\n      pop\n        /* \"#utility.yul\":14203:14603   */\n      swap2\n      swap1\n      pop\n      jump\t// out\n        /* \"#utility.yul\":14609:15416   */\n    tag_114:\n        /* \"#utility.yul\":14943:14946   */\n      0x00\n        /* \"#utility.yul\":14965:15113   */\n      tag_550\n        /* \"#utility.yul\":15109:15112   */\n      dup3\n        /* \"#utility.yul\":14965:15113   */\n      tag_364\n      jump\t// in\n    tag_550:\n        /* \"#utility.yul\":14958:15113   */\n      swap2\n      pop\n        /* \"#utility.yul\":15130:15225   */\n      tag_551\n        /* \"#utility.yul\":15221:15224   */\n      dup3\n        /* \"#utility.yul\":15212:15218   */\n      dup5\n        /* \"#utility.yul\":15130:15225   */\n      tag_365\n      jump\t// in\n    tag_551:\n        /* \"#utility.yul\":15123:15225   */\n      swap2\n      pop\n        /* \"#utility.yul\":15242:15390   */\n      tag_552\n        /* \"#utility.yul\":15386:15389   */\n      dup3\n        /* \"#utility.yul\":15242:15390   */\n      tag_367\n      jump\t// in\n    tag_552:\n        /* \"#utility.yul\":15235:15390   */\n      swap2\n      pop\n        /* \"#utility.yul\":15407:15410   */\n      dup2\n        /* \"#utility.yul\":15400:15410   */\n      swap1\n      pop\n        /* \"#utility.yul\":14609:15416   */\n      swap3\n      swap2\n      pop\n      pop\n      jump\t// out\n        /* \"#utility.yul\":15422:15857   */\n    tag_118:\n        /* \"#utility.yul\":15602:15605   */\n      0x00\n        /* \"#utility.yul\":15624:15719   */\n      tag_554\n        /* \"#utility.yul\":15715:15718   */\n      dup3\n        /* \"#utility.yul\":15706:15712   */\n      dup6\n        /* \"#utility.yul\":15624:15719   */\n      tag_365\n      jump\t// in\n    tag_554:\n        /* \"#utility.yul\":15617:15719   */\n      swap2\n      pop\n        /* \"#utility.yul\":15736:15831   */\n      tag_555\n        /* \"#utility.yul\":15827:15830   */\n      dup3\n        /* \"#utility.yul\":15818:15824   */\n      dup5\n        /* \"#utility.yul\":15736:15831   */\n      tag_365\n      jump\t// in\n    tag_555:\n        /* \"#utility.yul\":15729:15831   */\n      swap2\n      pop\n        /* \"#utility.yul\":15848:15851   */\n      dup2\n        /* \"#utility.yul\":15841:15851   */\n      swap1\n      pop\n        /* \"#utility.yul\":15422:15857   */\n      swap4\n      swap3\n      pop\n      pop\n      pop\n      jump\t// out\n        /* \"#utility.yul\":15863:16305   */\n    tag_127:\n        /* \"#utility.yul\":16012:16016   */\n      0x00\n        /* \"#utility.yul\":16050:16052   */\n      0x60\n        /* \"#utility.yul\":16039:16048   */\n      dup3\n        /* \"#utility.yul\":16035:16053   */\n      add\n        /* \"#utility.yul\":16027:16053   */\n      swap1\n      pop\n        /* \"#utility.yul\":16063:16134   */\n      tag_557\n        /* \"#utility.yul\":16131:16132   */\n      0x00\n        /* \"#utility.yul\":16120:16129   */\n      dup4\n        /* \"#utility.yul\":16116:16133   */\n      add\n        /* \"#utility.yul\":16107:16113   */\n      dup7\n        /* \"#utility.yul\":16063:16134   */\n      tag_344\n      jump\t// in\n    tag_557:\n        /* \"#utility.yul\":16144:16216   */\n      tag_558\n        /* \"#utility.yul\":16212:16214   */\n      0x20\n        /* \"#utility.yul\":16201:16210   */\n      dup4\n        /* \"#utility.yul\":16197:16215   */\n      add\n        /* \"#utility.yul\":16188:16194   */\n      dup6\n        /* \"#utility.yul\":16144:16216   */\n      tag_355\n      jump\t// in\n    tag_558:\n        /* \"#utility.yul\":16226:16298   */\n      tag_559\n        /* \"#utility.yul\":16294:16296   */\n      0x40\n        /* \"#utility.yul\":16283:16292   */\n      dup4\n        /* \"#utility.yul\":16279:16297   */\n      add\n        /* \"#utility.yul\":16270:16276   */\n      dup5\n        /* \"#utility.yul\":16226:16298   */\n      tag_344\n      jump\t// in\n    tag_559:\n        /* \"#utility.yul\":15863:16305   */\n      swap5\n      swap4\n      pop\n      pop\n      pop\n      pop\n      jump\t// out\n        /* \"#utility.yul\":16311:16491   */\n    tag_368:\n        /* \"#utility.yul\":16359:16436   */\n      0x4e487b7100000000000000000000000000000000000000000000000000000000\n        /* \"#utility.yul\":16356:16357   */\n      0x00\n        /* \"#utility.yul\":16349:16437   */\n      mstore\n        /* \"#utility.yul\":16456:16460   */\n      0x11\n        /* \"#utility.yul\":16453:16454   */\n      0x04\n        /* \"#utility.yul\":16446:16461   */\n      mstore\n        /* \"#utility.yul\":16480:16484   */\n      0x24\n        /* \"#utility.yul\":16477:16478   */\n      0x00\n        /* \"#utility.yul\":16470:16485   */\n      revert\n        /* \"#utility.yul\":16497:16688   */\n    tag_192:\n        /* \"#utility.yul\":16537:16540   */\n      0x00\n        /* \"#utility.yul\":16556:16576   */\n      tag_562\n        /* \"#utility.yul\":16574:16575   */\n      dup3\n        /* \"#utility.yul\":16556:16576   */\n      tag_339\n      jump\t// in\n    tag_562:\n        /* \"#utility.yul\":16551:16576   */\n      swap2\n      pop\n        /* \"#utility.yul\":16590:16610   */\n      tag_563\n        /* \"#utility.yul\":16608:16609   */\n      dup4\n        /* \"#utility.yul\":16590:16610   */\n      tag_339\n      jump\t// in\n    tag_563:\n        /* \"#utility.yul\":16585:16610   */\n      swap3\n      pop\n        /* \"#utility.yul\":16633:16634   */\n      dup3\n        /* \"#utility.yul\":16630:16631   */\n      dup3\n        /* \"#utility.yul\":16626:16635   */\n      add\n        /* \"#utility.yul\":16619:16635   */\n      swap1\n      pop\n        /* \"#utility.yul\":16654:16657   */\n      dup1\n        /* \"#utility.yul\":16651:16652   */\n      dup3\n        /* \"#utility.yul\":16648:16658   */\n      gt\n        /* \"#utility.yul\":16645:16681   */\n      iszero\n      tag_564\n      jumpi\n        /* \"#utility.yul\":16661:16679   */\n      tag_565\n      tag_368\n      jump\t// in\n    tag_565:\n        /* \"#utility.yul\":16645:16681   */\n    tag_564:\n        /* \"#utility.yul\":16497:16688   */\n      swap3\n      swap2\n      pop\n      pop\n      jump\t// out\n        /* \"#utility.yul\":16694:16874   */\n    tag_288:\n        /* \"#utility.yul\":16742:16819   */\n      0x4e487b7100000000000000000000000000000000000000000000000000000000\n        /* \"#utility.yul\":16739:16740   */\n      0x00\n        /* \"#utility.yul\":16732:16820   */\n      mstore\n        /* \"#utility.yul\":16839:16843   */\n      0x12\n        /* \"#utility.yul\":16836:16837   */\n      0x04\n        /* \"#utility.yul\":16829:16844   */\n      mstore\n        /* \"#utility.yul\":16863:16867   */\n      0x24\n        /* \"#utility.yul\":16860:16861   */\n      0x00\n        /* \"#utility.yul\":16853:16868   */\n      revert\n        /* \"#utility.yul\":16880:17065   */\n    tag_194:\n        /* \"#utility.yul\":16920:16921   */\n      0x00\n        /* \"#utility.yul\":16937:16957   */\n      tag_568\n        /* \"#utility.yul\":16955:16956   */\n      dup3\n        /* \"#utility.yul\":16937:16957   */\n      tag_339\n      jump\t// in\n    tag_568:\n        /* \"#utility.yul\":16932:16957   */\n      swap2\n      pop\n        /* \"#utility.yul\":16971:16991   */\n      tag_569\n        /* \"#utility.yul\":16989:16990   */\n      dup4\n        /* \"#utility.yul\":16971:16991   */\n      tag_339\n      jump\t// in\n    tag_569:\n        /* \"#utility.yul\":16966:16991   */\n      swap3\n      pop\n        /* \"#utility.yul\":17010:17011   */\n      dup3\n        /* \"#utility.yul\":17000:17035   */\n      tag_570\n      jumpi\n        /* \"#utility.yul\":17015:17033   */\n      tag_571\n      tag_288\n      jump\t// in\n    tag_571:\n        /* \"#utility.yul\":17000:17035   */\n    tag_570:\n        /* \"#utility.yul\":17057:17058   */\n      dup3\n        /* \"#utility.yul\":17054:17055   */\n      dup3\n        /* \"#utility.yul\":17050:17059   */\n      div\n        /* \"#utility.yul\":17045:17059   */\n      swap1\n      pop\n        /* \"#utility.yul\":16880:17065   */\n      swap3\n      swap2\n      pop\n      pop\n      jump\t// out\n        /* \"#utility.yul\":17071:17481   */\n    tag_196:\n        /* \"#utility.yul\":17111:17118   */\n      0x00\n        /* \"#utility.yul\":17134:17154   */\n      tag_573\n        /* \"#utility.yul\":17152:17153   */\n      dup3\n        /* \"#utility.yul\":17134:17154   */\n      tag_339\n      jump\t// in\n    tag_573:\n        /* \"#utility.yul\":17129:17154   */\n      swap2\n      pop\n        /* \"#utility.yul\":17168:17188   */\n      tag_574\n        /* \"#utility.yul\":17186:17187   */\n      dup4\n        /* \"#utility.yul\":17168:17188   */\n      tag_339\n      jump\t// in\n    tag_574:\n        /* \"#utility.yul\":17163:17188   */\n      swap3\n      pop\n        /* \"#utility.yul\":17223:17224   */\n      dup3\n        /* \"#utility.yul\":17220:17221   */\n      dup3\n        /* \"#utility.yul\":17216:17225   */\n      mul\n        /* \"#utility.yul\":17245:17275   */\n      tag_575\n        /* \"#utility.yul\":17263:17274   */\n      dup2\n        /* \"#utility.yul\":17245:17275   */\n      tag_339\n      jump\t// in\n    tag_575:\n        /* \"#utility.yul\":17234:17275   */\n      swap2\n      pop\n        /* \"#utility.yul\":17424:17425   */\n      dup3\n        /* \"#utility.yul\":17415:17422   */\n      dup3\n        /* \"#utility.yul\":17411:17426   */\n      div\n        /* \"#utility.yul\":17408:17409   */\n      dup5\n        /* \"#utility.yul\":17405:17427   */\n      eq\n        /* \"#utility.yul\":17385:17386   */\n      dup4\n        /* \"#utility.yul\":17378:17387   */\n      iszero\n        /* \"#utility.yul\":17358:17441   */\n      or\n        /* \"#utility.yul\":17335:17474   */\n      tag_576\n      jumpi\n        /* \"#utility.yul\":17454:17472   */\n      tag_577\n      tag_368\n      jump\t// in\n    tag_577:\n        /* \"#utility.yul\":17335:17474   */\n    tag_576:\n        /* \"#utility.yul\":17119:17481   */\n      pop\n        /* \"#utility.yul\":17071:17481   */\n      swap3\n      swap2\n      pop\n      pop\n      jump\t// out\n        /* \"#utility.yul\":17487:17585   */\n    tag_369:\n        /* \"#utility.yul\":17538:17544   */\n      0x00\n        /* \"#utility.yul\":17572:17577   */\n      dup2\n        /* \"#utility.yul\":17566:17578   */\n      mload\n        /* \"#utility.yul\":17556:17578   */\n      swap1\n      pop\n        /* \"#utility.yul\":17487:17585   */\n      swap2\n      swap1\n      pop\n      jump\t// out\n        /* \"#utility.yul\":17591:17759   */\n    tag_370:\n        /* \"#utility.yul\":17674:17685   */\n      0x00\n        /* \"#utility.yul\":17708:17714   */\n      dup3\n        /* \"#utility.yul\":17703:17706   */\n      dup3\n        /* \"#utility.yul\":17696:17715   */\n      mstore\n        /* \"#utility.yul\":17748:17752   */\n      0x20\n        /* \"#utility.yul\":17743:17746   */\n      dup3\n        /* \"#utility.yul\":17739:17753   */\n      add\n        /* \"#utility.yul\":17724:17753   */\n      swap1\n      pop\n        /* \"#utility.yul\":17591:17759   */\n      swap3\n      swap2\n      pop\n      pop\n      jump\t// out\n        /* \"#utility.yul\":17765:18138   */\n    tag_371:\n        /* \"#utility.yul\":17851:17854   */\n      0x00\n        /* \"#utility.yul\":17879:17917   */\n      tag_581\n        /* \"#utility.yul\":17911:17916   */\n      dup3\n        /* \"#utility.yul\":17879:17917   */\n      tag_369\n      jump\t// in\n    tag_581:\n        /* \"#utility.yul\":17933:18003   */\n      tag_582\n        /* \"#utility.yul\":17996:18002   */\n      dup2\n        /* \"#utility.yul\":17991:17994   */\n      dup6\n        /* \"#utility.yul\":17933:18003   */\n      tag_370\n      jump\t// in\n    tag_582:\n        /* \"#utility.yul\":17926:18003   */\n      swap4\n      pop\n        /* \"#utility.yul\":18012:18077   */\n      tag_583\n        /* \"#utility.yul\":18070:18076   */\n      dup2\n        /* \"#utility.yul\":18065:18068   */\n      dup6\n        /* \"#utility.yul\":18058:18062   */\n      0x20\n        /* \"#utility.yul\":18051:18056   */\n      dup7\n        /* \"#utility.yul\":18047:18063   */\n      add\n        /* \"#utility.yul\":18012:18077   */\n      tag_336\n      jump\t// in\n    tag_583:\n        /* \"#utility.yul\":18102:18131   */\n      tag_584\n        /* \"#utility.yul\":18124:18130   */\n      dup2\n        /* \"#utility.yul\":18102:18131   */\n      tag_337\n      jump\t// in\n    tag_584:\n        /* \"#utility.yul\":18097:18100   */\n      dup5\n        /* \"#utility.yul\":18093:18132   */\n      add\n        /* \"#utility.yul\":18086:18132   */\n      swap2\n      pop\n        /* \"#utility.yul\":17855:18138   */\n      pop\n        /* \"#utility.yul\":17765:18138   */\n      swap3\n      swap2\n      pop\n      pop\n      jump\t// out\n        /* \"#utility.yul\":18144:18784   */\n    tag_223:\n        /* \"#utility.yul\":18339:18343   */\n      0x00\n        /* \"#utility.yul\":18377:18380   */\n      0x80\n        /* \"#utility.yul\":18366:18375   */\n      dup3\n        /* \"#utility.yul\":18362:18381   */\n      add\n        /* \"#utility.yul\":18354:18381   */\n      swap1\n      pop\n        /* \"#utility.yul\":18391:18462   */\n      tag_586\n        /* \"#utility.yul\":18459:18460   */\n      0x00\n        /* \"#utility.yul\":18448:18457   */\n      dup4\n        /* \"#utility.yul\":18444:18461   */\n      add\n        /* \"#utility.yul\":18435:18441   */\n      dup8\n        /* \"#utility.yul\":18391:18462   */\n      tag_344\n      jump\t// in\n    tag_586:\n        /* \"#utility.yul\":18472:18544   */\n      tag_587\n        /* \"#utility.yul\":18540:18542   */\n      0x20\n        /* \"#utility.yul\":18529:18538   */\n      dup4\n        /* \"#utility.yul\":18525:18543   */\n      add\n        /* \"#utility.yul\":18516:18522   */\n      dup7\n        /* \"#utility.yul\":18472:18544   */\n      tag_344\n      jump\t// in\n    tag_587:\n        /* \"#utility.yul\":18554:18626   */\n      tag_588\n        /* \"#utility.yul\":18622:18624   */\n      0x40\n        /* \"#utility.yul\":18611:18620   */\n      dup4\n        /* \"#utility.yul\":18607:18625   */\n      add\n        /* \"#utility.yul\":18598:18604   */\n      dup6\n        /* \"#utility.yul\":18554:18626   */\n      tag_355\n      jump\t// in\n    tag_588:\n        /* \"#utility.yul\":18673:18682   */\n      dup2\n        /* \"#utility.yul\":18667:18671   */\n      dup2\n        /* \"#utility.yul\":18663:18683   */\n      sub\n        /* \"#utility.yul\":18658:18660   */\n      0x60\n        /* \"#utility.yul\":18647:18656   */\n      dup4\n        /* \"#utility.yul\":18643:18661   */\n      add\n        /* \"#utility.yul\":18636:18684   */\n      mstore\n        /* \"#utility.yul\":18701:18777   */\n      tag_589\n        /* \"#utility.yul\":18772:18776   */\n      dup2\n        /* \"#utility.yul\":18763:18769   */\n      dup5\n        /* \"#utility.yul\":18701:18777   */\n      tag_371\n      jump\t// in\n    tag_589:\n        /* \"#utility.yul\":18693:18777   */\n      swap1\n      pop\n        /* \"#utility.yul\":18144:18784   */\n      swap6\n      swap5\n      pop\n      pop\n      pop\n      pop\n      pop\n      jump\t// out\n        /* \"#utility.yul\":18790:18931   */\n    tag_372:\n        /* \"#utility.yul\":18846:18851   */\n      0x00\n        /* \"#utility.yul\":18877:18883   */\n      dup2\n        /* \"#utility.yul\":18871:18884   */\n      mload\n        /* \"#utility.yul\":18862:18884   */\n      swap1\n      pop\n        /* \"#utility.yul\":18893:18925   */\n      tag_591\n        /* \"#utility.yul\":18919:18924   */\n      dup2\n        /* \"#utility.yul\":18893:18925   */\n      tag_330\n      jump\t// in\n    tag_591:\n        /* \"#utility.yul\":18790:18931   */\n      swap3\n      swap2\n      pop\n      pop\n      jump\t// out\n        /* \"#utility.yul\":18937:19286   */\n    tag_226:\n        /* \"#utility.yul\":19006:19012   */\n      0x00\n        /* \"#utility.yul\":19055:19057   */\n      0x20\n        /* \"#utility.yul\":19043:19052   */\n      dup3\n        /* \"#utility.yul\":19034:19041   */\n      dup5\n        /* \"#utility.yul\":19030:19053   */\n      sub\n        /* \"#utility.yul\":19026:19058   */\n      slt\n        /* \"#utility.yul\":19023:19142   */\n      iszero\n      tag_593\n      jumpi\n        /* \"#utility.yul\":19061:19140   */\n      tag_594\n      tag_327\n      jump\t// in\n    tag_594:\n        /* \"#utility.yul\":19023:19142   */\n    tag_593:\n        /* \"#utility.yul\":19181:19182   */\n      0x00\n        /* \"#utility.yul\":19206:19269   */\n      tag_595\n        /* \"#utility.yul\":19261:19268   */\n      dup5\n        /* \"#utility.yul\":19252:19258   */\n      dup3\n        /* \"#utility.yul\":19241:19250   */\n      dup6\n        /* \"#utility.yul\":19237:19259   */\n      add\n        /* \"#utility.yul\":19206:19269   */\n      tag_372\n      jump\t// in\n    tag_595:\n        /* \"#utility.yul\":19196:19269   */\n      swap2\n      pop\n        /* \"#utility.yul\":19152:19279   */\n      pop\n        /* \"#utility.yul\":18937:19286   */\n      swap3\n      swap2\n      pop\n      pop\n      jump\t// out\n        /* \"#utility.yul\":19292:19433   */\n    tag_373:\n        /* \"#utility.yul\":19341:19345   */\n      0x00\n        /* \"#utility.yul\":19364:19367   */\n      dup2\n        /* \"#utility.yul\":19356:19367   */\n      swap1\n      pop\n        /* \"#utility.yul\":19387:19390   */\n      dup2\n        /* \"#utility.yul\":19384:19385   */\n      0x00\n        /* \"#utility.yul\":19377:19391   */\n      mstore\n        /* \"#utility.yul\":19421:19425   */\n      0x20\n        /* \"#utility.yul\":19418:19419   */\n      0x00\n        /* \"#utility.yul\":19408:19426   */\n      keccak256\n        /* \"#utility.yul\":19400:19426   */\n      swap1\n      pop\n        /* \"#utility.yul\":19292:19433   */\n      swap2\n      swap1\n      pop\n      jump\t// out\n        /* \"#utility.yul\":19439:19532   */\n    tag_374:\n        /* \"#utility.yul\":19476:19482   */\n      0x00\n        /* \"#utility.yul\":19523:19525   */\n      0x20\n        /* \"#utility.yul\":19518:19520   */\n      0x1f\n        /* \"#utility.yul\":19511:19516   */\n      dup4\n        /* \"#utility.yul\":19507:19521   */\n      add\n        /* \"#utility.yul\":19503:19526   */\n      div\n        /* \"#utility.yul\":19493:19526   */\n      swap1\n      pop\n        /* \"#utility.yul\":19439:19532   */\n      swap2\n      swap1\n      pop\n      jump\t// out\n        /* \"#utility.yul\":19538:19645   */\n    tag_375:\n        /* \"#utility.yul\":19582:19590   */\n      0x00\n        /* \"#utility.yul\":19632:19637   */\n      dup3\n        /* \"#utility.yul\":19626:19630   */\n      dup3\n        /* \"#utility.yul\":19622:19638   */\n      shl\n        /* \"#utility.yul\":19601:19638   */\n      swap1\n      pop\n        /* \"#utility.yul\":19538:19645   */\n      swap3\n      swap2\n      pop\n      pop\n      jump\t// out\n        /* \"#utility.yul\":19651:20044   */\n    tag_376:\n        /* \"#utility.yul\":19720:19726   */\n      0x00\n        /* \"#utility.yul\":19770:19771   */\n      0x08\n        /* \"#utility.yul\":19758:19768   */\n      dup4\n        /* \"#utility.yul\":19754:19772   */\n      mul\n        /* \"#utility.yul\":19793:19890   */\n      tag_600\n        /* \"#utility.yul\":19823:19889   */\n      0xffffffffffffffffffffffffffffffffffffffffffffffffffffffffffffffff\n        /* \"#utility.yul\":19812:19821   */\n      dup3\n        /* \"#utility.yul\":19793:19890   */\n      tag_375\n      jump\t// in\n    tag_600:\n        /* \"#utility.yul\":19911:19950   */\n      tag_601\n        /* \"#utility.yul\":19941:19949   */\n      dup7\n        /* \"#utility.yul\":19930:19939   */\n      dup4\n        /* \"#utility.yul\":19911:19950   */\n      tag_375\n      jump\t// in\n    tag_601:\n        /* \"#utility.yul\":19899:19950   */\n      swap6\n      pop\n        /* \"#utility.yul\":19983:19987   */\n      dup1\n        /* \"#utility.yul\":19979:19988   */\n      not\n        /* \"#utility.yul\":19972:19977   */\n      dup5\n        /* \"#utility.yul\":19968:19989   */\n      and\n        /* \"#utility.yul\":19959:19989   */\n      swap4\n      pop\n        /* \"#utility.yul\":20032:20036   */\n      dup1\n        /* \"#utility.yul\":20022:20030   */\n      dup7\n        /* \"#utility.yul\":20018:20037   */\n      and\n        /* \"#utility.yul\":20011:20016   */\n      dup5\n        /* \"#utility.yul\":20008:20038   */\n      or\n        /* \"#utility.yul\":19998:20038   */\n      swap3\n      pop\n        /* \"#utility.yul\":19727:20044   */\n      pop\n      pop\n        /* \"#utility.yul\":19651:20044   */\n      swap4\n      swap3\n      pop\n      pop\n      pop\n      jump\t// out\n        /* \"#utility.yul\":20050:20110   */\n    tag_377:\n        /* \"#utility.yul\":20078:20081   */\n      0x00\n        /* \"#utility.yul\":20099:20104   */\n      dup2\n        /* \"#utility.yul\":20092:20104   */\n      swap1\n      pop\n        /* \"#utility.yul\":20050:20110   */\n      swap2\n      swap1\n      pop\n      jump\t// out\n        /* \"#utility.yul\":20116:20258   */\n    tag_378:\n        /* \"#utility.yul\":20166:20175   */\n      0x00\n        /* \"#utility.yul\":20199:20252   */\n      tag_604\n        /* \"#utility.yul\":20217:20251   */\n      tag_605\n        /* \"#utility.yul\":20226:20250   */\n      tag_606\n        /* \"#utility.yul\":20244:20249   */\n      dup5\n        /* \"#utility.yul\":20226:20250   */\n      tag_339\n      jump\t// in\n    tag_606:\n        /* \"#utility.yul\":20217:20251   */\n      tag_377\n      jump\t// in\n    tag_605:\n        /* \"#utility.yul\":20199:20252   */\n      tag_339\n      jump\t// in\n    tag_604:\n        /* \"#utility.yul\":20186:20252   */\n      swap1\n      pop\n        /* \"#utility.yul\":20116:20258   */\n      swap2\n      swap1\n      pop\n      jump\t// out\n        /* \"#utility.yul\":20264:20339   */\n    tag_379:\n        /* \"#utility.yul\":20307:20310   */\n      0x00\n        /* \"#utility.yul\":20328:20333   */\n      dup2\n        /* \"#utility.yul\":20321:20333   */\n      swap1\n      pop\n        /* \"#utility.yul\":20264:20339   */\n      swap2\n      swap1\n      pop\n      jump\t// out\n        /* \"#utility.yul\":20345:20614   */\n    tag_380:\n        /* \"#utility.yul\":20455:20494   */\n      tag_609\n        /* \"#utility.yul\":20486:20493   */\n      dup4\n        /* \"#utility.yul\":20455:20494   */\n      tag_378\n      jump\t// in\n    tag_609:\n        /* \"#utility.yul\":20516:20607   */\n      tag_610\n        /* \"#utility.yul\":20565:20606   */\n      tag_611\n        /* \"#utility.yul\":20589:20605   */\n      dup3\n        /* \"#utility.yul\":20565:20606   */\n      tag_379\n      jump\t// in\n    tag_611:\n        /* \"#utility.yul\":20557:20563   */\n      dup5\n        /* \"#utility.yul\":20550:20554   */\n      dup5\n        /* \"#utility.yul\":20544:20555   */\n      sload\n        /* \"#utility.yul\":20516:20607   */\n      tag_376\n      jump\t// in\n    tag_610:\n        /* \"#utility.yul\":20510:20514   */\n      dup3\n        /* \"#utility.yul\":20503:20608   */\n      sstore\n        /* \"#utility.yul\":20421:20614   */\n      pop\n        /* \"#utility.yul\":20345:20614   */\n      pop\n      pop\n      pop\n      jump\t// out\n        /* \"#utility.yul\":20620:20693   */\n    tag_381:\n        /* \"#utility.yul\":20665:20668   */\n      0x00\n        /* \"#utility.yul\":20620:20693   */\n      swap1\n      jump\t// out\n        /* \"#utility.yul\":20699:20888   */\n    tag_382:\n        /* \"#utility.yul\":20776:20808   */\n      tag_614\n      tag_381\n      jump\t// in\n    tag_614:\n        /* \"#utility.yul\":20817:20882   */\n      tag_615\n        /* \"#utility.yul\":20875:20881   */\n      dup2\n        /* \"#utility.yul\":20867:20873   */\n      dup5\n        /* \"#utility.yul\":20861:20865   */\n      dup5\n        /* \"#utility.yul\":20817:20882   */\n      tag_380\n      jump\t// in\n    tag_615:\n        /* \"#utility.yul\":20752:20888   */\n      pop\n        /* \"#utility.yul\":20699:20888   */\n      pop\n      pop\n      jump\t// out\n        /* \"#utility.yul\":20894:21080   */\n    tag_383:\n        /* \"#utility.yul\":20954:21074   */\n    tag_617:\n        /* \"#utility.yul\":20971:20974   */\n      dup2\n        /* \"#utility.yul\":20964:20969   */\n      dup2\n        /* \"#utility.yul\":20961:20975   */\n      lt\n        /* \"#utility.yul\":20954:21074   */\n      iszero\n      tag_619\n      jumpi\n        /* \"#utility.yul\":21025:21064   */\n      tag_620\n        /* \"#utility.yul\":21062:21063   */\n      0x00\n        /* \"#utility.yul\":21055:21060   */\n      dup3\n        /* \"#utility.yul\":21025:21064   */\n      tag_382\n      jump\t// in\n    tag_620:\n        /* \"#utility.yul\":20998:20999   */\n      0x01\n        /* \"#utility.yul\":20991:20996   */\n      dup2\n        /* \"#utility.yul\":20987:21000   */\n      add\n        /* \"#utility.yul\":20978:21000   */\n      swap1\n      pop\n        /* \"#utility.yul\":20954:21074   */\n      jump(tag_617)\n    tag_619:\n        /* \"#utility.yul\":20894:21080   */\n      pop\n      pop\n      jump\t// out\n        /* \"#utility.yul\":21086:21629   */\n    tag_384:\n        /* \"#utility.yul\":21187:21189   */\n      0x1f\n        /* \"#utility.yul\":21182:21185   */\n      dup3\n        /* \"#utility.yul\":21179:21190   */\n      gt\n        /* \"#utility.yul\":21176:21622   */\n      iszero\n      tag_622\n      jumpi\n        /* \"#utility.yul\":21221:21259   */\n      tag_623\n        /* \"#utility.yul\":21253:21258   */\n      dup2\n        /* \"#utility.yul\":21221:21259   */\n      tag_373\n      jump\t// in\n    tag_623:\n        /* \"#utility.yul\":21305:21334   */\n      tag_624\n        /* \"#utility.yul\":21323:21333   */\n      dup5\n        /* \"#utility.yul\":21305:21334   */\n      tag_374\n      jump\t// in\n    tag_624:\n        /* \"#utility.yul\":21295:21303   */\n      dup2\n        /* \"#utility.yul\":21291:21335   */\n      add\n        /* \"#utility.yul\":21488:21490   */\n      0x20\n        /* \"#utility.yul\":21476:21486   */\n      dup6\n        /* \"#utility.yul\":21473:21491   */\n      lt\n        /* \"#utility.yul\":21470:21519   */\n      iszero\n      tag_625\n      jumpi\n        /* \"#utility.yul\":21509:21517   */\n      dup2\n        /* \"#utility.yul\":21494:21517   */\n      swap1\n      pop\n        /* \"#utility.yul\":21470:21519   */\n    tag_625:\n        /* \"#utility.yul\":21532:21612   */\n      tag_626\n        /* \"#utility.yul\":21588:21610   */\n      tag_627\n        /* \"#utility.yul\":21606:21609   */\n      dup6\n        /* \"#utility.yul\":21588:21610   */\n      tag_374\n      jump\t// in\n    tag_627:\n        /* \"#utility.yul\":21578:21586   */\n      dup4\n        /* \"#utility.yul\":21574:21611   */\n      add\n        /* \"#utility.yul\":21561:21572   */\n      dup3\n        /* \"#utility.yul\":21532:21612   */\n      tag_383\n      jump\t// in\n    tag_626:\n        /* \"#utility.yul\":21191:21622   */\n      pop\n      pop\n        /* \"#utility.yul\":21176:21622   */\n    tag_622:\n        /* \"#utility.yul\":21086:21629   */\n      pop\n      pop\n      pop\n      jump\t// out\n        /* \"#utility.yul\":21635:21752   */\n    tag_385:\n        /* \"#utility.yul\":21689:21697   */\n      0x00\n        /* \"#utility.yul\":21739:21744   */\n      dup3\n        /* \"#utility.yul\":21733:21737   */\n      dup3\n        /* \"#utility.yul\":21729:21745   */\n      shr\n        /* \"#utility.yul\":21708:21745   */\n      swap1\n      pop\n        /* \"#utility.yul\":21635:21752   */\n      swap3\n      swap2\n      pop\n      pop\n      jump\t// out\n        /* \"#utility.yul\":21758:21927   */\n    tag_386:\n        /* \"#utility.yul\":21802:21808   */\n      0x00\n        /* \"#utility.yul\":21835:21886   */\n      tag_630\n        /* \"#utility.yul\":21883:21884   */\n      0x00\n        /* \"#utility.yul\":21879:21885   */\n      not\n        /* \"#utility.yul\":21871:21876   */\n      dup5\n        /* \"#utility.yul\":21868:21869   */\n      0x08\n        /* \"#utility.yul\":21864:21877   */\n      mul\n        /* \"#utility.yul\":21835:21886   */\n      tag_385\n      jump\t// in\n    tag_630:\n        /* \"#utility.yul\":21831:21887   */\n      not\n        /* \"#utility.yul\":21916:21920   */\n      dup1\n        /* \"#utility.yul\":21910:21914   */\n      dup4\n        /* \"#utility.yul\":21906:21921   */\n      and\n        /* \"#utility.yul\":21896:21921   */\n      swap2\n      pop\n        /* \"#utility.yul\":21809:21927   */\n      pop\n        /* \"#utility.yul\":21758:21927   */\n      swap3\n      swap2\n      pop\n      pop\n      jump\t// out\n        /* \"#utility.yul\":21932:22227   */\n    tag_387:\n        /* \"#utility.yul\":22008:22012   */\n      0x00\n        /* \"#utility.yul\":22154:22183   */\n      tag_632\n        /* \"#utility.yul\":22179:22182   */\n      dup4\n        /* \"#utility.yul\":22173:22177   */\n      dup4\n        /* \"#utility.yul\":22154:22183   */\n      tag_386\n      jump\t// in\n    tag_632:\n        /* \"#utility.yul\":22146:22183   */\n      swap2\n      pop\n        /* \"#utility.yul\":22216:22219   */\n      dup3\n        /* \"#utility.yul\":22213:22214   */\n      0x02\n        /* \"#utility.yul\":22209:22220   */\n      mul\n        /* \"#utility.yul\":22203:22207   */\n      dup3\n        /* \"#utility.yul\":22200:22221   */\n      or\n        /* \"#utility.yul\":22192:22221   */\n      swap1\n      pop\n        /* \"#utility.yul\":21932:22227   */\n      swap3\n      swap2\n      pop\n      pop\n      jump\t// out\n        /* \"#utility.yul\":22232:23627   */\n    tag_255:\n        /* \"#utility.yul\":22349:22386   */\n      tag_634\n        /* \"#utility.yul\":22382:22385   */\n      dup3\n        /* \"#utility.yul\":22349:22386   */\n      tag_334\n      jump\t// in\n    tag_634:\n        /* \"#utility.yul\":22451:22469   */\n      0xffffffffffffffff\n        /* \"#utility.yul\":22443:22449   */\n      dup2\n        /* \"#utility.yul\":22440:22470   */\n      gt\n        /* \"#utility.yul\":22437:22493   */\n      iszero\n      tag_635\n      jumpi\n        /* \"#utility.yul\":22473:22491   */\n      tag_636\n      tag_199\n      jump\t// in\n    tag_636:\n        /* \"#utility.yul\":22437:22493   */\n    tag_635:\n        /* \"#utility.yul\":22517:22555   */\n      tag_637\n        /* \"#utility.yul\":22549:22553   */\n      dup3\n        /* \"#utility.yul\":22543:22554   */\n      sload\n        /* \"#utility.yul\":22517:22555   */\n      tag_97\n      jump\t// in\n    tag_637:\n        /* \"#utility.yul\":22602:22669   */\n      tag_638\n        /* \"#utility.yul\":22662:22668   */\n      dup3\n        /* \"#utility.yul\":22654:22660   */\n      dup3\n        /* \"#utility.yul\":22648:22652   */\n      dup6\n        /* \"#utility.yul\":22602:22669   */\n      tag_384\n      jump\t// in\n    tag_638:\n        /* \"#utility.yul\":22696:22697   */\n      0x00\n        /* \"#utility.yul\":22720:22724   */\n      0x20\n        /* \"#utility.yul\":22707:22724   */\n      swap1\n      pop\n        /* \"#utility.yul\":22752:22754   */\n      0x1f\n        /* \"#utility.yul\":22744:22750   */\n      dup4\n        /* \"#utility.yul\":22741:22755   */\n      gt\n        /* \"#utility.yul\":22769:22770   */\n      0x01\n        /* \"#utility.yul\":22764:23382   */\n      dup2\n      eq\n      tag_640\n      jumpi\n        /* \"#utility.yul\":23426:23427   */\n      0x00\n        /* \"#utility.yul\":23443:23449   */\n      dup5\n        /* \"#utility.yul\":23440:23517   */\n      iszero\n      tag_641\n      jumpi\n        /* \"#utility.yul\":23492:23501   */\n      dup3\n        /* \"#utility.yul\":23487:23490   */\n      dup8\n        /* \"#utility.yul\":23483:23502   */\n      add\n        /* \"#utility.yul\":23477:23503   */\n      mload\n        /* \"#utility.yul\":23468:23503   */\n      swap1\n      pop\n        /* \"#utility.yul\":23440:23517   */\n    tag_641:\n        /* \"#utility.yul\":23543:23610   */\n      tag_642\n        /* \"#utility.yul\":23603:23609   */\n      dup6\n        /* \"#utility.yul\":23596:23601   */\n      dup3\n        /* \"#utility.yul\":23543:23610   */\n      tag_387\n      jump\t// in\n    tag_642:\n        /* \"#utility.yul\":23537:23541   */\n      dup7\n        /* \"#utility.yul\":23530:23611   */\n      sstore\n        /* \"#utility.yul\":23399:23621   */\n      pop\n        /* \"#utility.yul\":22734:23621   */\n      jump(tag_639)\n        /* \"#utility.yul\":22764:23382   */\n    tag_640:\n        /* \"#utility.yul\":22816:22820   */\n      0x1f\n        /* \"#utility.yul\":22812:22821   */\n      not\n        /* \"#utility.yul\":22804:22810   */\n      dup5\n        /* \"#utility.yul\":22800:22822   */\n      and\n        /* \"#utility.yul\":22850:22887   */\n      tag_643\n        /* \"#utility.yul\":22882:22886   */\n      dup7\n        /* \"#utility.yul\":22850:22887   */\n      tag_373\n      jump\t// in\n    tag_643:\n        /* \"#utility.yul\":22909:22910   */\n      0x00\n        /* \"#utility.yul\":22923:23131   */\n    tag_644:\n        /* \"#utility.yul\":22937:22944   */\n      dup3\n        /* \"#utility.yul\":22934:22935   */\n      dup2\n        /* \"#utility.yul\":22931:22945   */\n      lt\n        /* \"#utility.yul\":22923:23131   */\n      iszero\n      tag_646\n      jumpi\n        /* \"#utility.yul\":23016:23025   */\n      dup5\n        /* \"#utility.yul\":23011:23014   */\n      dup10\n        /* \"#utility.yul\":23007:23026   */\n      add\n        /* \"#utility.yul\":23001:23027   */\n      mload\n        /* \"#utility.yul\":22993:22999   */\n      dup3\n        /* \"#utility.yul\":22986:23028   */\n      sstore\n        /* \"#utility.yul\":23067:23068   */\n      0x01\n        /* \"#utility.yul\":23059:23065   */\n      dup3\n        /* \"#utility.yul\":23055:23069   */\n      add\n        /* \"#utility.yul\":23045:23069   */\n      swap2\n      pop\n        /* \"#utility.yul\":23114:23116   */\n      0x20\n        /* \"#utility.yul\":23103:23112   */\n      dup6\n        /* \"#utility.yul\":23099:23117   */\n      add\n        /* \"#utility.yul\":23086:23117   */\n      swap5\n      pop\n        /* \"#utility.yul\":22960:22964   */\n      0x20\n        /* \"#utility.yul\":22957:22958   */\n      dup2\n        /* \"#utility.yul\":22953:22965   */\n      add\n        /* \"#utility.yul\":22948:22965   */\n      swap1\n      pop\n        /* \"#utility.yul\":22923:23131   */\n      jump(tag_644)\n    tag_646:\n        /* \"#utility.yul\":23159:23165   */\n      dup7\n        /* \"#utility.yul\":23150:23157   */\n      dup4\n        /* \"#utility.yul\":23147:23166   */\n      lt\n        /* \"#utility.yul\":23144:23323   */\n      iszero\n      tag_647\n      jumpi\n        /* \"#utility.yul\":23217:23226   */\n      dup5\n        /* \"#utility.yul\":23212:23215   */\n      dup10\n        /* \"#utility.yul\":23208:23227   */\n      add\n        /* \"#utility.yul\":23202:23228   */\n      mload\n        /* \"#utility.yul\":23260:23308   */\n      tag_648\n        /* \"#utility.yul\":23302:23306   */\n      0x1f\n        /* \"#utility.yul\":23294:23300   */\n      dup10\n        /* \"#utility.yul\":23290:23307   */\n      and\n        /* \"#utility.yul\":23279:23288   */\n      dup3\n        /* \"#utility.yul\":23260:23308   */\n      tag_386\n      jump\t// in\n    tag_648:\n        /* \"#utility.yul\":23252:23258   */\n      dup4\n        /* \"#utility.yul\":23245:23309   */\n      sstore\n        /* \"#utility.yul\":23167:23323   */\n      pop\n        /* \"#utility.yul\":23144:23323   */\n    tag_647:\n        /* \"#utility.yul\":23369:23370   */\n      0x01\n        /* \"#utility.yul\":23365:23366   */\n      0x02\n        /* \"#utility.yul\":23357:23363   */\n      dup9\n        /* \"#utility.yul\":23353:23367   */\n      mul\n        /* \"#utility.yul\":23349:23371   */\n      add\n        /* \"#utility.yul\":23343:23347   */\n      dup9\n        /* \"#utility.yul\":23336:23372   */\n      sstore\n        /* \"#utility.yul\":22771:23382   */\n      pop\n      pop\n      pop\n        /* \"#utility.yul\":22734:23621   */\n    tag_639:\n      pop\n        /* \"#utility.yul\":22324:23627   */\n      pop\n      pop\n      pop\n        /* \"#utility.yul\":22232:23627   */\n      pop\n      pop\n      jump\t// out\n        /* \"#utility.yul\":23633:23965   */\n    tag_277:\n        /* \"#utility.yul\":23754:23758   */\n      0x00\n        /* \"#utility.yul\":23792:23794   */\n      0x40\n        /* \"#utility.yul\":23781:23790   */\n      dup3\n        /* \"#utility.yul\":23777:23795   */\n      add\n        /* \"#utility.yul\":23769:23795   */\n      swap1\n      pop\n        /* \"#utility.yul\":23805:23876   */\n      tag_650\n        /* \"#utility.yul\":23873:23874   */\n      0x00\n        /* \"#utility.yul\":23862:23871   */\n      dup4\n        /* \"#utility.yul\":23858:23875   */\n      add\n        /* \"#utility.yul\":23849:23855   */\n      dup6\n        /* \"#utility.yul\":23805:23876   */\n      tag_344\n      jump\t// in\n    tag_650:\n        /* \"#utility.yul\":23886:23958   */\n      tag_651\n        /* \"#utility.yul\":23954:23956   */\n      0x20\n        /* \"#utility.yul\":23943:23952   */\n      dup4\n        /* \"#utility.yul\":23939:23957   */\n      add\n        /* \"#utility.yul\":23930:23936   */\n      dup5\n        /* \"#utility.yul\":23886:23958   */\n      tag_355\n      jump\t// in\n    tag_651:\n        /* \"#utility.yul\":23633:23965   */\n      swap4\n      swap3\n      pop\n      pop\n      pop\n      jump\t// out\n    stop\n    data_84d8a590de33e00cbdc16e1f28c3506f5ec15c599fab9a6a4bcd575cc2f110ce 4142434445464748494a4b4c4d4e4f505152535455565758595a6162636465666768696a6b6c6d6e6f707172737475767778797a303132333435363738392b2f\n\n    auxdata: 0xa264697066735822122091d8de1653c82dce1906ce456634d34ebadaaf6e58fbb01247d2a623556e3b9464736f6c63430008180033\n}\n",
				"bytecode": {
					"linkReferences": {},
					"object": "608060405234801562000010575f80fd5b506040518060400160405280600a81526020017f4f6e436861696e4e4654000000000000000000000000000000000000000000008152506040518060400160405280600381526020017f4f434e0000000000000000000000000000000000000000000000000000000000815250815f90816200008d91906200030c565b5080600190816200009f91906200030c565b505050620003f0565b5f81519050919050565b7f4e487b71000000000000000000000000000000000000000000000000000000005f52604160045260245ffd5b7f4e487b71000000000000000000000000000000000000000000000000000000005f52602260045260245ffd5b5f60028204905060018216806200012457607f821691505b6020821081036200013a5762000139620000df565b5b50919050565b5f819050815f5260205f209050919050565b5f6020601f8301049050919050565b5f82821b905092915050565b5f600883026200019e7fffffffffffffffffffffffffffffffffffffffffffffffffffffffffffffffff8262000161565b620001aa868362000161565b95508019841693508086168417925050509392505050565b5f819050919050565b5f819050919050565b5f620001f4620001ee620001e884620001c2565b620001cb565b620001c2565b9050919050565b5f819050919050565b6200020f83620001d4565b620002276200021e82620001fb565b8484546200016d565b825550505050565b5f90565b6200023d6200022f565b6200024a81848462000204565b505050565b5b818110156200027157620002655f8262000233565b60018101905062000250565b5050565b601f821115620002c0576200028a8162000140565b620002958462000152565b81016020851015620002a5578190505b620002bd620002b48562000152565b8301826200024f565b50505b505050565b5f82821c905092915050565b5f620002e25f1984600802620002c5565b1980831691505092915050565b5f620002fc8383620002d1565b9150826002028217905092915050565b6200031782620000a8565b67ffffffffffffffff811115620003335762000332620000b2565b5b6200033f82546200010c565b6200034c82828562000275565b5f60209050601f83116001811462000382575f84156200036d578287015190505b620003798582620002ef565b865550620003e8565b601f198416620003928662000140565b5f5b82811015620003bb5784890151825560018201915060208501945060208101905062000394565b86831015620003db5784890151620003d7601f891682620002d1565b8355505b6001600288020188555050505b505050505050565b61274f80620003fe5f395ff3fe608060405234801561000f575f80fd5b50600436106100fe575f3560e01c806370a0823111610095578063c6a4342f11610064578063c6a4342f146102ba578063c87b56dd146102ea578063d85d3d271461031a578063e985e9c514610336576100fe565b806370a082311461023457806395d89b4114610264578063a22cb46514610282578063b88d4fde1461029e576100fe565b80631381b59d116100d15780631381b59d1461019c57806323b872dd146101cc57806342842e0e146101e85780636352211e14610204576100fe565b806301ffc9a71461010257806306fdde0314610132578063081812fc14610150578063095ea7b314610180575b5f80fd5b61011c60048036038101906101179190611a72565b610366565b6040516101299190611ab7565b60405180910390f35b61013a6103c6565b6040516101479190611b5a565b60405180910390f35b61016a60048036038101906101659190611bad565b610455565b6040516101779190611c17565b60405180910390f35b61019a60048036038101906101959190611c5a565b610470565b005b6101b660048036038101906101b19190611dc4565b610486565b6040516101c39190611b5a565b60405180910390f35b6101e660048036038101906101e19190611e0b565b61051c565b005b61020260048036038101906101fd9190611e0b565b61061b565b005b61021e60048036038101906102199190611bad565b61063a565b60405161022b9190611c17565b60405180910390f35b61024e60048036038101906102499190611e5b565b61064b565b60405161025b9190611e95565b60405180910390f35b61026c610701565b6040516102799190611b5a565b60405180910390f35b61029c60048036038101906102979190611ed8565b610791565b005b6102b860048036038101906102b39190611fb4565b6107a7565b005b6102d460048036038101906102cf9190611bad565b6107c4565b6040516102e19190611e95565b60405180910390f35b61030460048036038101906102ff9190611bad565b6107d9565b6040516103119190611b5a565b60405180910390f35b610334600480360381019061032f9190611dc4565b6108e4565b005b610350600480360381019061034b9190612034565b610920565b60405161035d9190611ab7565b60405180910390f35b5f634906490660e01b7bffffffffffffffffffffffffffffffffffffffffffffffffffffffff1916827bffffffffffffffffffffffffffffffffffffffffffffffffffffffff191614806103bf57506103be826109ae565b5b9050919050565b60605f80546103d49061209f565b80601f01602080910402602001604051908101604052809291908181526020018280546104009061209f565b801561044b5780601f106104225761010080835404028352916020019161044b565b820191905f5260205f20905b81548152906001019060200180831161042e57829003601f168201915b5050505050905090565b5f61045f82610a8f565b5061046982610b15565b9050919050565b610482828261047d610b4e565b610b55565b5050565b60605f6040518060400160405280601d81526020017f646174613a6170706c69636174696f6e2f6a736f6e3b6261736536342c00000081525090505f836040516020016104d391906121e9565b60405160208183030381529060405290505f6104ee82610b67565b90508281604051602001610503929190612215565b6040516020818303038152906040529350505050919050565b5f73ffffffffffffffffffffffffffffffffffffffff168273ffffffffffffffffffffffffffffffffffffffff160361058c575f6040517f64a0ae920000000000000000000000000000000000000000000000000000000081526004016105839190611c17565b60405180910390fd5b5f61059f838361059a610b4e565b610cc6565b90508373ffffffffffffffffffffffffffffffffffffffff168173ffffffffffffffffffffffffffffffffffffffff1614610615578382826040517f64283d7b00000000000000000000000000000000000000000000000000000000815260040161060c93929190612238565b60405180910390fd5b50505050565b61063583838360405180602001604052805f8152506107a7565b505050565b5f61064482610a8f565b9050919050565b5f8073ffffffffffffffffffffffffffffffffffffffff168273ffffffffffffffffffffffffffffffffffffffff16036106bc575f6040517f89c62b640000000000000000000000000000000000000000000000000000000081526004016106b39190611c17565b60405180910390fd5b60035f8373ffffffffffffffffffffffffffffffffffffffff1673ffffffffffffffffffffffffffffffffffffffff1681526020019081526020015f20549050919050565b6060600180546107109061209f565b80601f016020809104026020016040519081016040528092919081815260200182805461073c9061209f565b80156107875780601f1061075e57610100808354040283529160200191610787565b820191905f5260205f20905b81548152906001019060200180831161076a57829003601f168201915b5050505050905090565b6107a361079c610b4e565b8383610ed1565b5050565b6107b284848461051c565b6107be8484848461103a565b50505050565b6008602052805f5260405f205f915090505481565b60606107e482610a8f565b505f60065f8481526020019081526020015f2080546108029061209f565b80601f016020809104026020016040519081016040528092919081815260200182805461082e9061209f565b80156108795780601f1061085057610100808354040283529160200191610879565b820191905f5260205f20905b81548152906001019060200180831161085c57829003601f168201915b505050505090505f6108896111ec565b90505f81510361089d5781925050506108df565b5f825111156108d15780826040516020016108b9929190612215565b604051602081830303815290604052925050506108df565b6108da84611202565b925050505b919050565b5f6108ee82610486565b90506108fa6007611268565b5f610905600761127c565b90506109113382611288565b61091b81836112a5565b505050565b5f60055f8473ffffffffffffffffffffffffffffffffffffffff1673ffffffffffffffffffffffffffffffffffffffff1681526020019081526020015f205f8373ffffffffffffffffffffffffffffffffffffffff1673ffffffffffffffffffffffffffffffffffffffff1681526020019081526020015f205f9054906101000a900460ff16905092915050565b5f7f80ac58cd000000000000000000000000000000000000000000000000000000007bffffffffffffffffffffffffffffffffffffffffffffffffffffffff1916827bffffffffffffffffffffffffffffffffffffffffffffffffffffffff19161480610a7857507f5b5e139f000000000000000000000000000000000000000000000000000000007bffffffffffffffffffffffffffffffffffffffffffffffffffffffff1916827bffffffffffffffffffffffffffffffffffffffffffffffffffffffff1916145b80610a885750610a87826112ff565b5b9050919050565b5f80610a9a83611368565b90505f73ffffffffffffffffffffffffffffffffffffffff168173ffffffffffffffffffffffffffffffffffffffff1603610b0c57826040517f7e273289000000000000000000000000000000000000000000000000000000008152600401610b039190611e95565b60405180910390fd5b80915050919050565b5f60045f8381526020019081526020015f205f9054906101000a900473ffffffffffffffffffffffffffffffffffffffff169050919050565b5f33905090565b610b6283838360016113a1565b505050565b60605f825103610b875760405180602001604052805f8152509050610cc1565b5f6040518060600160405280604081526020016126da6040913990505f600360028551610bb4919061229a565b610bbe91906122fa565b6004610bca919061232a565b67ffffffffffffffff811115610be357610be2611ca0565b5b6040519080825280601f01601f191660200182016040528015610c155781602001600182028036833780820191505090505b509050600182016020820185865187015b80821015610c81576003820191508151603f8160121c168501518453600184019350603f81600c1c168501518453600184019350603f8160061c168501518453600184019350603f8116850151845360018401935050610c26565b5050600386510660018114610c9d5760028114610cb057610cb8565b603d6001830353603d6002830353610cb8565b603d60018303535b50505080925050505b919050565b5f80610cd184611368565b90505f73ffffffffffffffffffffffffffffffffffffffff168373ffffffffffffffffffffffffffffffffffffffff1614610d1257610d11818486611560565b5b5f73ffffffffffffffffffffffffffffffffffffffff168173ffffffffffffffffffffffffffffffffffffffff1614610d9d57610d515f855f806113a1565b600160035f8373ffffffffffffffffffffffffffffffffffffffff1673ffffffffffffffffffffffffffffffffffffffff1681526020019081526020015f205f82825403925050819055505b5f73ffffffffffffffffffffffffffffffffffffffff168573ffffffffffffffffffffffffffffffffffffffff1614610e1c57600160035f8773ffffffffffffffffffffffffffffffffffffffff1673ffffffffffffffffffffffffffffffffffffffff1681526020019081526020015f205f82825401925050819055505b8460025f8681526020019081526020015f205f6101000a81548173ffffffffffffffffffffffffffffffffffffffff021916908373ffffffffffffffffffffffffffffffffffffffff160217905550838573ffffffffffffffffffffffffffffffffffffffff168273ffffffffffffffffffffffffffffffffffffffff167fddf252ad1be2c89b69c2b068fc378daa952ba7f163c4a11628f55a4df523b3ef60405160405180910390a4809150509392505050565b5f73ffffffffffffffffffffffffffffffffffffffff168273ffffffffffffffffffffffffffffffffffffffff1603610f4157816040517f5b08ba18000000000000000000000000000000000000000000000000000000008152600401610f389190611c17565b60405180910390fd5b8060055f8573ffffffffffffffffffffffffffffffffffffffff1673ffffffffffffffffffffffffffffffffffffffff1681526020019081526020015f205f8473ffffffffffffffffffffffffffffffffffffffff1673ffffffffffffffffffffffffffffffffffffffff1681526020019081526020015f205f6101000a81548160ff0219169083151502179055508173ffffffffffffffffffffffffffffffffffffffff168373ffffffffffffffffffffffffffffffffffffffff167f17307eab39ab6107e8899845ad3d59bd9653f200f220920489ca2b5937696c318360405161102d9190611ab7565b60405180910390a3505050565b5f8373ffffffffffffffffffffffffffffffffffffffff163b11156111e6578273ffffffffffffffffffffffffffffffffffffffff1663150b7a0261107d610b4e565b8685856040518563ffffffff1660e01b815260040161109f94939291906123bd565b6020604051808303815f875af19250505080156110da57506040513d601f19601f820116820180604052508101906110d7919061241b565b60015b61115b573d805f8114611108576040519150601f19603f3d011682016040523d82523d5f602084013e61110d565b606091505b505f81510361115357836040517f64a0ae9200000000000000000000000000000000000000000000000000000000815260040161114a9190611c17565b60405180910390fd5b805181602001fd5b63150b7a0260e01b7bffffffffffffffffffffffffffffffffffffffffffffffffffffffff1916817bffffffffffffffffffffffffffffffffffffffffffffffffffffffff1916146111e457836040517f64a0ae920000000000000000000000000000000000000000000000000000000081526004016111db9190611c17565b60405180910390fd5b505b50505050565b606060405180602001604052805f815250905090565b606061120d82610a8f565b505f6112176111ec565b90505f8151116112355760405180602001604052805f815250611260565b8061123f84611623565b604051602001611250929190612215565b6040516020818303038152906040525b915050919050565b6001815f015f828254019250508190555050565b5f815f01549050919050565b6112a1828260405180602001604052805f8152506116ed565b5050565b8060065f8481526020019081526020015f2090816112c391906125e3565b507ff8e1a15aba9398e019f0b49df1a4fde98ee17ae345cb5f6b5e2c27f5033e8ce7826040516112f39190611e95565b60405180910390a15050565b5f7f01ffc9a7000000000000000000000000000000000000000000000000000000007bffffffffffffffffffffffffffffffffffffffffffffffffffffffff1916827bffffffffffffffffffffffffffffffffffffffffffffffffffffffff1916149050919050565b5f60025f8381526020019081526020015f205f9054906101000a900473ffffffffffffffffffffffffffffffffffffffff169050919050565b80806113d957505f73ffffffffffffffffffffffffffffffffffffffff168273ffffffffffffffffffffffffffffffffffffffff1614155b1561150b575f6113e884610a8f565b90505f73ffffffffffffffffffffffffffffffffffffffff168373ffffffffffffffffffffffffffffffffffffffff161415801561145257508273ffffffffffffffffffffffffffffffffffffffff168173ffffffffffffffffffffffffffffffffffffffff1614155b801561146557506114638184610920565b155b156114a757826040517fa9fbf51f00000000000000000000000000000000000000000000000000000000815260040161149e9190611c17565b60405180910390fd5b811561150957838573ffffffffffffffffffffffffffffffffffffffff168273ffffffffffffffffffffffffffffffffffffffff167f8c5be1e5ebec7d5bd14f71427d1e84f3dd0314c0f7b2291e5b200ac8c7c3b92560405160405180910390a45b505b8360045f8581526020019081526020015f205f6101000a81548173ffffffffffffffffffffffffffffffffffffffff021916908373ffffffffffffffffffffffffffffffffffffffff16021790555050505050565b61156b838383611708565b61161e575f73ffffffffffffffffffffffffffffffffffffffff168373ffffffffffffffffffffffffffffffffffffffff16036115df57806040517f7e2732890000000000000000000000000000000000000000000000000000000081526004016115d69190611e95565b60405180910390fd5b81816040517f177e802f0000000000000000000000000000000000000000000000000000000081526004016116159291906126b2565b60405180910390fd5b505050565b60605f6001611631846117c8565b0190505f8167ffffffffffffffff81111561164f5761164e611ca0565b5b6040519080825280601f01601f1916602001820160405280156116815781602001600182028036833780820191505090505b5090505f82602001820190505b6001156116e2578080600190039150507f3031323334353637383961626364656600000000000000000000000000000000600a86061a8153600a85816116d7576116d66122cd565b5b0494505f850361168e575b819350505050919050565b6116f78383611919565b6117035f84848461103a565b505050565b5f8073ffffffffffffffffffffffffffffffffffffffff168373ffffffffffffffffffffffffffffffffffffffff16141580156117bf57508273ffffffffffffffffffffffffffffffffffffffff168473ffffffffffffffffffffffffffffffffffffffff161480611780575061177f8484610920565b5b806117be57508273ffffffffffffffffffffffffffffffffffffffff166117a683610b15565b73ffffffffffffffffffffffffffffffffffffffff16145b5b90509392505050565b5f805f90507a184f03e93ff9f4daa797ed6e38ed64bf6a1f0100000000000000008310611824577a184f03e93ff9f4daa797ed6e38ed64bf6a1f010000000000000000838161181a576118196122cd565b5b0492506040810190505b6d04ee2d6d415b85acef81000000008310611861576d04ee2d6d415b85acef81000000008381611857576118566122cd565b5b0492506020810190505b662386f26fc10000831061189057662386f26fc100008381611886576118856122cd565b5b0492506010810190505b6305f5e10083106118b9576305f5e10083816118af576118ae6122cd565b5b0492506008810190505b61271083106118de5761271083816118d4576118d36122cd565b5b0492506004810190505b6064831061190157606483816118f7576118f66122cd565b5b0492506002810190505b600a8310611910576001810190505b80915050919050565b5f73ffffffffffffffffffffffffffffffffffffffff168273ffffffffffffffffffffffffffffffffffffffff1603611989575f6040517f64a0ae920000000000000000000000000000000000000000000000000000000081526004016119809190611c17565b60405180910390fd5b5f61199583835f610cc6565b90505f73ffffffffffffffffffffffffffffffffffffffff168173ffffffffffffffffffffffffffffffffffffffff1614611a07575f6040517f73c6ac6e0000000000000000000000000000000000000000000000000000000081526004016119fe9190611c17565b60405180910390fd5b505050565b5f604051905090565b5f80fd5b5f80fd5b5f7fffffffff0000000000000000000000000000000000000000000000000000000082169050919050565b611a5181611a1d565b8114611a5b575f80fd5b50565b5f81359050611a6c81611a48565b92915050565b5f60208284031215611a8757611a86611a15565b5b5f611a9484828501611a5e565b91505092915050565b5f8115159050919050565b611ab181611a9d565b82525050565b5f602082019050611aca5f830184611aa8565b92915050565b5f81519050919050565b5f82825260208201905092915050565b5f5b83811015611b07578082015181840152602081019050611aec565b5f8484015250505050565b5f601f19601f8301169050919050565b5f611b2c82611ad0565b611b368185611ada565b9350611b46818560208601611aea565b611b4f81611b12565b840191505092915050565b5f6020820190508181035f830152611b728184611b22565b905092915050565b5f819050919050565b611b8c81611b7a565b8114611b96575f80fd5b50565b5f81359050611ba781611b83565b92915050565b5f60208284031215611bc257611bc1611a15565b5b5f611bcf84828501611b99565b91505092915050565b5f73ffffffffffffffffffffffffffffffffffffffff82169050919050565b5f611c0182611bd8565b9050919050565b611c1181611bf7565b82525050565b5f602082019050611c2a5f830184611c08565b92915050565b611c3981611bf7565b8114611c43575f80fd5b50565b5f81359050611c5481611c30565b92915050565b5f8060408385031215611c7057611c6f611a15565b5b5f611c7d85828601611c46565b9250506020611c8e85828601611b99565b9150509250929050565b5f80fd5b5f80fd5b7f4e487b71000000000000000000000000000000000000000000000000000000005f52604160045260245ffd5b611cd682611b12565b810181811067ffffffffffffffff82111715611cf557611cf4611ca0565b5b80604052505050565b5f611d07611a0c565b9050611d138282611ccd565b919050565b5f67ffffffffffffffff821115611d3257611d31611ca0565b5b611d3b82611b12565b9050602081019050919050565b828183375f83830152505050565b5f611d68611d6384611d18565b611cfe565b905082815260208101848484011115611d8457611d83611c9c565b5b611d8f848285611d48565b509392505050565b5f82601f830112611dab57611daa611c98565b5b8135611dbb848260208601611d56565b91505092915050565b5f60208284031215611dd957611dd8611a15565b5b5f82013567ffffffffffffffff811115611df657611df5611a19565b5b611e0284828501611d97565b91505092915050565b5f805f60608486031215611e2257611e21611a15565b5b5f611e2f86828701611c46565b9350506020611e4086828701611c46565b9250506040611e5186828701611b99565b9150509250925092565b5f60208284031215611e7057611e6f611a15565b5b5f611e7d84828501611c46565b91505092915050565b611e8f81611b7a565b82525050565b5f602082019050611ea85f830184611e86565b92915050565b611eb781611a9d565b8114611ec1575f80fd5b50565b5f81359050611ed281611eae565b92915050565b5f8060408385031215611eee57611eed611a15565b5b5f611efb85828601611c46565b9250506020611f0c85828601611ec4565b9150509250929050565b5f67ffffffffffffffff821115611f3057611f2f611ca0565b5b611f3982611b12565b9050602081019050919050565b5f611f58611f5384611f16565b611cfe565b905082815260208101848484011115611f7457611f73611c9c565b5b611f7f848285611d48565b509392505050565b5f82601f830112611f9b57611f9a611c98565b5b8135611fab848260208601611f46565b91505092915050565b5f805f8060808587031215611fcc57611fcb611a15565b5b5f611fd987828801611c46565b9450506020611fea87828801611c46565b9350506040611ffb87828801611b99565b925050606085013567ffffffffffffffff81111561201c5761201b611a19565b5b61202887828801611f87565b91505092959194509250565b5f806040838503121561204a57612049611a15565b5b5f61205785828601611c46565b925050602061206885828601611c46565b9150509250929050565b7f4e487b71000000000000000000000000000000000000000000000000000000005f52602260045260245ffd5b5f60028204905060018216806120b657607f821691505b6020821081036120c9576120c8612072565b5b50919050565b5f81905092915050565b7f7b226e616d65223a20224c434d204f4e2d434841494e4544222c2022646573635f8201527f72697074696f6e223a2022412073696d706c6520535647206261736564206f6e60208201527f2d636861696e204e4654222c2022696d616765223a2200000000000000000000604082015250565b5f6121596056836120cf565b9150612164826120d9565b605682019050919050565b5f61217982611ad0565b61218381856120cf565b9350612193818560208601611aea565b80840191505092915050565b7f227d0000000000000000000000000000000000000000000000000000000000005f82015250565b5f6121d36002836120cf565b91506121de8261219f565b600282019050919050565b5f6121f38261214d565b91506121ff828461216f565b915061220a826121c7565b915081905092915050565b5f612220828561216f565b915061222c828461216f565b91508190509392505050565b5f60608201905061224b5f830186611c08565b6122586020830185611e86565b6122656040830184611c08565b949350505050565b7f4e487b71000000000000000000000000000000000000000000000000000000005f52601160045260245ffd5b5f6122a482611b7a565b91506122af83611b7a565b92508282019050808211156122c7576122c661226d565b5b92915050565b7f4e487b71000000000000000000000000000000000000000000000000000000005f52601260045260245ffd5b5f61230482611b7a565b915061230f83611b7a565b92508261231f5761231e6122cd565b5b828204905092915050565b5f61233482611b7a565b915061233f83611b7a565b925082820261234d81611b7a565b915082820484148315176123645761236361226d565b5b5092915050565b5f81519050919050565b5f82825260208201905092915050565b5f61238f8261236b565b6123998185612375565b93506123a9818560208601611aea565b6123b281611b12565b840191505092915050565b5f6080820190506123d05f830187611c08565b6123dd6020830186611c08565b6123ea6040830185611e86565b81810360608301526123fc8184612385565b905095945050505050565b5f8151905061241581611a48565b92915050565b5f602082840312156124305761242f611a15565b5b5f61243d84828501612407565b91505092915050565b5f819050815f5260205f209050919050565b5f6020601f8301049050919050565b5f82821b905092915050565b5f600883026124a27fffffffffffffffffffffffffffffffffffffffffffffffffffffffffffffffff82612467565b6124ac8683612467565b95508019841693508086168417925050509392505050565b5f819050919050565b5f6124e76124e26124dd84611b7a565b6124c4565b611b7a565b9050919050565b5f819050919050565b612500836124cd565b61251461250c826124ee565b848454612473565b825550505050565b5f90565b61252861251c565b6125338184846124f7565b505050565b5b818110156125565761254b5f82612520565b600181019050612539565b5050565b601f82111561259b5761256c81612446565b61257584612458565b81016020851015612584578190505b61259861259085612458565b830182612538565b50505b505050565b5f82821c905092915050565b5f6125bb5f19846008026125a0565b1980831691505092915050565b5f6125d383836125ac565b9150826002028217905092915050565b6125ec82611ad0565b67ffffffffffffffff81111561260557612604611ca0565b5b61260f825461209f565b61261a82828561255a565b5f60209050601f83116001811461264b575f8415612639578287015190505b61264385826125c8565b8655506126aa565b601f19841661265986612446565b5f5b828110156126805784890151825560018201915060208501945060208101905061265b565b8683101561269d5784890151612699601f8916826125ac565b8355505b6001600288020188555050505b505050505050565b5f6040820190506126c55f830185611c08565b6126d26020830184611e86565b939250505056fe4142434445464748494a4b4c4d4e4f505152535455565758595a6162636465666768696a6b6c6d6e6f707172737475767778797a303132333435363738392b2fa264697066735822122091d8de1653c82dce1906ce456634d34ebadaaf6e58fbb01247d2a623556e3b9464736f6c63430008180033",
					"opcodes": "PUSH1 0x80 PUSH1 0x40 MSTORE CALLVALUE DUP1 ISZERO PUSH3 0x10 JUMPI PUSH0 DUP1 REVERT JUMPDEST POP PUSH1 0x40 MLOAD DUP1 PUSH1 0x40 ADD PUSH1 0x40 MSTORE DUP1 PUSH1 0xA DUP2 MSTORE PUSH1 0x20 ADD PUSH32 0x4F6E436861696E4E465400000000000000000000000000000000000000000000 DUP2 MSTORE POP PUSH1 0x40 MLOAD DUP1 PUSH1 0x40 ADD PUSH1 0x40 MSTORE DUP1 PUSH1 0x3 DUP2 MSTORE PUSH1 0x20 ADD PUSH32 0x4F434E0000000000000000000000000000000000000000000000000000000000 DUP2 MSTORE POP DUP2 PUSH0 SWAP1 DUP2 PUSH3 0x8D SWAP2 SWAP1 PUSH3 0x30C JUMP JUMPDEST POP DUP1 PUSH1 0x1 SWAP1 DUP2 PUSH3 0x9F SWAP2 SWAP1 PUSH3 0x30C JUMP JUMPDEST POP POP POP PUSH3 0x3F0 JUMP JUMPDEST PUSH0 DUP2 MLOAD SWAP1 POP SWAP2 SWAP1 POP JUMP JUMPDEST PUSH32 0x4E487B7100000000000000000000000000000000000000000000000000000000 PUSH0 MSTORE PUSH1 0x41 PUSH1 0x4 MSTORE PUSH1 0x24 PUSH0 REVERT JUMPDEST PUSH32 0x4E487B7100000000000000000000000000000000000000000000000000000000 PUSH0 MSTORE PUSH1 0x22 PUSH1 0x4 MSTORE PUSH1 0x24 PUSH0 REVERT JUMPDEST PUSH0 PUSH1 0x2 DUP3 DIV SWAP1 POP PUSH1 0x1 DUP3 AND DUP1 PUSH3 0x124 JUMPI PUSH1 0x7F DUP3 AND SWAP2 POP JUMPDEST PUSH1 0x20 DUP3 LT DUP2 SUB PUSH3 0x13A JUMPI PUSH3 0x139 PUSH3 0xDF JUMP JUMPDEST JUMPDEST POP SWAP2 SWAP1 POP JUMP JUMPDEST PUSH0 DUP2 SWAP1 POP DUP2 PUSH0 MSTORE PUSH1 0x20 PUSH0 KECCAK256 SWAP1 POP SWAP2 SWAP1 POP JUMP JUMPDEST PUSH0 PUSH1 0x20 PUSH1 0x1F DUP4 ADD DIV SWAP1 POP SWAP2 SWAP1 POP JUMP JUMPDEST PUSH0 DUP3 DUP3 SHL SWAP1 POP SWAP3 SWAP2 POP POP JUMP JUMPDEST PUSH0 PUSH1 0x8 DUP4 MUL PUSH3 0x19E PUSH32 0xFFFFFFFFFFFFFFFFFFFFFFFFFFFFFFFFFFFFFFFFFFFFFFFFFFFFFFFFFFFFFFFF DUP3 PUSH3 0x161 JUMP JUMPDEST PUSH3 0x1AA DUP7 DUP4 PUSH3 0x161 JUMP JUMPDEST SWAP6 POP DUP1 NOT DUP5 AND SWAP4 POP DUP1 DUP7 AND DUP5 OR SWAP3 POP POP POP SWAP4 SWAP3 POP POP POP JUMP JUMPDEST PUSH0 DUP2 SWAP1 POP SWAP2 SWAP1 POP JUMP JUMPDEST PUSH0 DUP2 SWAP1 POP SWAP2 SWAP1 POP JUMP JUMPDEST PUSH0 PUSH3 0x1F4 PUSH3 0x1EE PUSH3 0x1E8 DUP5 PUSH3 0x1C2 JUMP JUMPDEST PUSH3 0x1CB JUMP JUMPDEST PUSH3 0x1C2 JUMP JUMPDEST SWAP1 POP SWAP2 SWAP1 POP JUMP JUMPDEST PUSH0 DUP2 SWAP1 POP SWAP2 SWAP1 POP JUMP JUMPDEST PUSH3 0x20F DUP4 PUSH3 0x1D4 JUMP JUMPDEST PUSH3 0x227 PUSH3 0x21E DUP3 PUSH3 0x1FB JUMP JUMPDEST DUP5 DUP5 SLOAD PUSH3 0x16D JUMP JUMPDEST DUP3 SSTORE POP POP POP POP JUMP JUMPDEST PUSH0 SWAP1 JUMP JUMPDEST PUSH3 0x23D PUSH3 0x22F JUMP JUMPDEST PUSH3 0x24A DUP2 DUP5 DUP5 PUSH3 0x204 JUMP JUMPDEST POP POP POP JUMP JUMPDEST JUMPDEST DUP2 DUP2 LT ISZERO PUSH3 0x271 JUMPI PUSH3 0x265 PUSH0 DUP3 PUSH3 0x233 JUMP JUMPDEST PUSH1 0x1 DUP2 ADD SWAP1 POP PUSH3 0x250 JUMP JUMPDEST POP POP JUMP JUMPDEST PUSH1 0x1F DUP3 GT ISZERO PUSH3 0x2C0 JUMPI PUSH3 0x28A DUP2 PUSH3 0x140 JUMP JUMPDEST PUSH3 0x295 DUP5 PUSH3 0x152 JUMP JUMPDEST DUP2 ADD PUSH1 0x20 DUP6 LT ISZERO PUSH3 0x2A5 JUMPI DUP2 SWAP1 POP JUMPDEST PUSH3 0x2BD PUSH3 0x2B4 DUP6 PUSH3 0x152 JUMP JUMPDEST DUP4 ADD DUP3 PUSH3 0x24F JUMP JUMPDEST POP POP JUMPDEST POP POP POP JUMP JUMPDEST PUSH0 DUP3 DUP3 SHR SWAP1 POP SWAP3 SWAP2 POP POP JUMP JUMPDEST PUSH0 PUSH3 0x2E2 PUSH0 NOT DUP5 PUSH1 0x8 MUL PUSH3 0x2C5 JUMP JUMPDEST NOT DUP1 DUP4 AND SWAP2 POP POP SWAP3 SWAP2 POP POP JUMP JUMPDEST PUSH0 PUSH3 0x2FC DUP4 DUP4 PUSH3 0x2D1 JUMP JUMPDEST SWAP2 POP DUP3 PUSH1 0x2 MUL DUP3 OR SWAP1 POP SWAP3 SWAP2 POP POP JUMP JUMPDEST PUSH3 0x317 DUP3 PUSH3 0xA8 JUMP JUMPDEST PUSH8 0xFFFFFFFFFFFFFFFF DUP2 GT ISZERO PUSH3 0x333 JUMPI PUSH3 0x332 PUSH3 0xB2 JUMP JUMPDEST JUMPDEST PUSH3 0x33F DUP3 SLOAD PUSH3 0x10C JUMP JUMPDEST PUSH3 0x34C DUP3 DUP3 DUP6 PUSH3 0x275 JUMP JUMPDEST PUSH0 PUSH1 0x20 SWAP1 POP PUSH1 0x1F DUP4 GT PUSH1 0x1 DUP2 EQ PUSH3 0x382 JUMPI PUSH0 DUP5 ISZERO PUSH3 0x36D JUMPI DUP3 DUP8 ADD MLOAD SWAP1 POP JUMPDEST PUSH3 0x379 DUP6 DUP3 PUSH3 0x2EF JUMP JUMPDEST DUP7 SSTORE POP PUSH3 0x3E8 JUMP JUMPDEST PUSH1 0x1F NOT DUP5 AND PUSH3 0x392 DUP7 PUSH3 0x140 JUMP JUMPDEST PUSH0 JUMPDEST DUP3 DUP2 LT ISZERO PUSH3 0x3BB JUMPI DUP5 DUP10 ADD MLOAD DUP3 SSTORE PUSH1 0x1 DUP3 ADD SWAP2 POP PUSH1 0x20 DUP6 ADD SWAP5 POP PUSH1 0x20 DUP2 ADD SWAP1 POP PUSH3 0x394 JUMP JUMPDEST DUP7 DUP4 LT ISZERO PUSH3 0x3DB JUMPI DUP5 DUP10 ADD MLOAD PUSH3 0x3D7 PUSH1 0x1F DUP10 AND DUP3 PUSH3 0x2D1 JUMP JUMPDEST DUP4 SSTORE POP JUMPDEST PUSH1 0x1 PUSH1 0x2 DUP9 MUL ADD DUP9 SSTORE POP POP POP JUMPDEST POP POP POP POP POP POP JUMP JUMPDEST PUSH2 0x274F DUP1 PUSH3 0x3FE PUSH0 CODECOPY PUSH0 RETURN INVALID PUSH1 0x80 PUSH1 0x40 MSTORE CALLVALUE DUP1 ISZERO PUSH2 0xF JUMPI PUSH0 DUP1 REVERT JUMPDEST POP PUSH1 0x4 CALLDATASIZE LT PUSH2 0xFE JUMPI PUSH0 CALLDATALOAD PUSH1 0xE0 SHR DUP1 PUSH4 0x70A08231 GT PUSH2 0x95 JUMPI DUP1 PUSH4 0xC6A4342F GT PUSH2 0x64 JUMPI DUP1 PUSH4 0xC6A4342F EQ PUSH2 0x2BA JUMPI DUP1 PUSH4 0xC87B56DD EQ PUSH2 0x2EA JUMPI DUP1 PUSH4 0xD85D3D27 EQ PUSH2 0x31A JUMPI DUP1 PUSH4 0xE985E9C5 EQ PUSH2 0x336 JUMPI PUSH2 0xFE JUMP JUMPDEST DUP1 PUSH4 0x70A08231 EQ PUSH2 0x234 JUMPI DUP1 PUSH4 0x95D89B41 EQ PUSH2 0x264 JUMPI DUP1 PUSH4 0xA22CB465 EQ PUSH2 0x282 JUMPI DUP1 PUSH4 0xB88D4FDE EQ PUSH2 0x29E JUMPI PUSH2 0xFE JUMP JUMPDEST DUP1 PUSH4 0x1381B59D GT PUSH2 0xD1 JUMPI DUP1 PUSH4 0x1381B59D EQ PUSH2 0x19C JUMPI DUP1 PUSH4 0x23B872DD EQ PUSH2 0x1CC JUMPI DUP1 PUSH4 0x42842E0E EQ PUSH2 0x1E8 JUMPI DUP1 PUSH4 0x6352211E EQ PUSH2 0x204 JUMPI PUSH2 0xFE JUMP JUMPDEST DUP1 PUSH4 0x1FFC9A7 EQ PUSH2 0x102 JUMPI DUP1 PUSH4 0x6FDDE03 EQ PUSH2 0x132 JUMPI DUP1 PUSH4 0x81812FC EQ PUSH2 0x150 JUMPI DUP1 PUSH4 0x95EA7B3 EQ PUSH2 0x180 JUMPI JUMPDEST PUSH0 DUP1 REVERT JUMPDEST PUSH2 0x11C PUSH1 0x4 DUP1 CALLDATASIZE SUB DUP2 ADD SWAP1 PUSH2 0x117 SWAP2 SWAP1 PUSH2 0x1A72 JUMP JUMPDEST PUSH2 0x366 JUMP JUMPDEST PUSH1 0x40 MLOAD PUSH2 0x129 SWAP2 SWAP1 PUSH2 0x1AB7 JUMP JUMPDEST PUSH1 0x40 MLOAD DUP1 SWAP2 SUB SWAP1 RETURN JUMPDEST PUSH2 0x13A PUSH2 0x3C6 JUMP JUMPDEST PUSH1 0x40 MLOAD PUSH2 0x147 SWAP2 SWAP1 PUSH2 0x1B5A JUMP JUMPDEST PUSH1 0x40 MLOAD DUP1 SWAP2 SUB SWAP1 RETURN JUMPDEST PUSH2 0x16A PUSH1 0x4 DUP1 CALLDATASIZE SUB DUP2 ADD SWAP1 PUSH2 0x165 SWAP2 SWAP1 PUSH2 0x1BAD JUMP JUMPDEST PUSH2 0x455 JUMP JUMPDEST PUSH1 0x40 MLOAD PUSH2 0x177 SWAP2 SWAP1 PUSH2 0x1C17 JUMP JUMPDEST PUSH1 0x40 MLOAD DUP1 SWAP2 SUB SWAP1 RETURN JUMPDEST PUSH2 0x19A PUSH1 0x4 DUP1 CALLDATASIZE SUB DUP2 ADD SWAP1 PUSH2 0x195 SWAP2 SWAP1 PUSH2 0x1C5A JUMP JUMPDEST PUSH2 0x470 JUMP JUMPDEST STOP JUMPDEST PUSH2 0x1B6 PUSH1 0x4 DUP1 CALLDATASIZE SUB DUP2 ADD SWAP1 PUSH2 0x1B1 SWAP2 SWAP1 PUSH2 0x1DC4 JUMP JUMPDEST PUSH2 0x486 JUMP JUMPDEST PUSH1 0x40 MLOAD PUSH2 0x1C3 SWAP2 SWAP1 PUSH2 0x1B5A JUMP JUMPDEST PUSH1 0x40 MLOAD DUP1 SWAP2 SUB SWAP1 RETURN JUMPDEST PUSH2 0x1E6 PUSH1 0x4 DUP1 CALLDATASIZE SUB DUP2 ADD SWAP1 PUSH2 0x1E1 SWAP2 SWAP1 PUSH2 0x1E0B JUMP JUMPDEST PUSH2 0x51C JUMP JUMPDEST STOP JUMPDEST PUSH2 0x202 PUSH1 0x4 DUP1 CALLDATASIZE SUB DUP2 ADD SWAP1 PUSH2 0x1FD SWAP2 SWAP1 PUSH2 0x1E0B JUMP JUMPDEST PUSH2 0x61B JUMP JUMPDEST STOP JUMPDEST PUSH2 0x21E PUSH1 0x4 DUP1 CALLDATASIZE SUB DUP2 ADD SWAP1 PUSH2 0x219 SWAP2 SWAP1 PUSH2 0x1BAD JUMP JUMPDEST PUSH2 0x63A JUMP JUMPDEST PUSH1 0x40 MLOAD PUSH2 0x22B SWAP2 SWAP1 PUSH2 0x1C17 JUMP JUMPDEST PUSH1 0x40 MLOAD DUP1 SWAP2 SUB SWAP1 RETURN JUMPDEST PUSH2 0x24E PUSH1 0x4 DUP1 CALLDATASIZE SUB DUP2 ADD SWAP1 PUSH2 0x249 SWAP2 SWAP1 PUSH2 0x1E5B JUMP JUMPDEST PUSH2 0x64B JUMP JUMPDEST PUSH1 0x40 MLOAD PUSH2 0x25B SWAP2 SWAP1 PUSH2 0x1E95 JUMP JUMPDEST PUSH1 0x40 MLOAD DUP1 SWAP2 SUB SWAP1 RETURN JUMPDEST PUSH2 0x26C PUSH2 0x701 JUMP JUMPDEST PUSH1 0x40 MLOAD PUSH2 0x279 SWAP2 SWAP1 PUSH2 0x1B5A JUMP JUMPDEST PUSH1 0x40 MLOAD DUP1 SWAP2 SUB SWAP1 RETURN JUMPDEST PUSH2 0x29C PUSH1 0x4 DUP1 CALLDATASIZE SUB DUP2 ADD SWAP1 PUSH2 0x297 SWAP2 SWAP1 PUSH2 0x1ED8 JUMP JUMPDEST PUSH2 0x791 JUMP JUMPDEST STOP JUMPDEST PUSH2 0x2B8 PUSH1 0x4 DUP1 CALLDATASIZE SUB DUP2 ADD SWAP1 PUSH2 0x2B3 SWAP2 SWAP1 PUSH2 0x1FB4 JUMP JUMPDEST PUSH2 0x7A7 JUMP JUMPDEST STOP JUMPDEST PUSH2 0x2D4 PUSH1 0x4 DUP1 CALLDATASIZE SUB DUP2 ADD SWAP1 PUSH2 0x2CF SWAP2 SWAP1 PUSH2 0x1BAD JUMP JUMPDEST PUSH2 0x7C4 JUMP JUMPDEST PUSH1 0x40 MLOAD PUSH2 0x2E1 SWAP2 SWAP1 PUSH2 0x1E95 JUMP JUMPDEST PUSH1 0x40 MLOAD DUP1 SWAP2 SUB SWAP1 RETURN JUMPDEST PUSH2 0x304 PUSH1 0x4 DUP1 CALLDATASIZE SUB DUP2 ADD SWAP1 PUSH2 0x2FF SWAP2 SWAP1 PUSH2 0x1BAD JUMP JUMPDEST PUSH2 0x7D9 JUMP JUMPDEST PUSH1 0x40 MLOAD PUSH2 0x311 SWAP2 SWAP1 PUSH2 0x1B5A JUMP JUMPDEST PUSH1 0x40 MLOAD DUP1 SWAP2 SUB SWAP1 RETURN JUMPDEST PUSH2 0x334 PUSH1 0x4 DUP1 CALLDATASIZE SUB DUP2 ADD SWAP1 PUSH2 0x32F SWAP2 SWAP1 PUSH2 0x1DC4 JUMP JUMPDEST PUSH2 0x8E4 JUMP JUMPDEST STOP JUMPDEST PUSH2 0x350 PUSH1 0x4 DUP1 CALLDATASIZE SUB DUP2 ADD SWAP1 PUSH2 0x34B SWAP2 SWAP1 PUSH2 0x2034 JUMP JUMPDEST PUSH2 0x920 JUMP JUMPDEST PUSH1 0x40 MLOAD PUSH2 0x35D SWAP2 SWAP1 PUSH2 0x1AB7 JUMP JUMPDEST PUSH1 0x40 MLOAD DUP1 SWAP2 SUB SWAP1 RETURN JUMPDEST PUSH0 PUSH4 0x49064906 PUSH1 0xE0 SHL PUSH28 0xFFFFFFFFFFFFFFFFFFFFFFFFFFFFFFFFFFFFFFFFFFFFFFFFFFFFFFFF NOT AND DUP3 PUSH28 0xFFFFFFFFFFFFFFFFFFFFFFFFFFFFFFFFFFFFFFFFFFFFFFFFFFFFFFFF NOT AND EQ DUP1 PUSH2 0x3BF JUMPI POP PUSH2 0x3BE DUP3 PUSH2 0x9AE JUMP JUMPDEST JUMPDEST SWAP1 POP SWAP2 SWAP1 POP JUMP JUMPDEST PUSH1 0x60 PUSH0 DUP1 SLOAD PUSH2 0x3D4 SWAP1 PUSH2 0x209F JUMP JUMPDEST DUP1 PUSH1 0x1F ADD PUSH1 0x20 DUP1 SWAP2 DIV MUL PUSH1 0x20 ADD PUSH1 0x40 MLOAD SWAP1 DUP2 ADD PUSH1 0x40 MSTORE DUP1 SWAP3 SWAP2 SWAP1 DUP2 DUP2 MSTORE PUSH1 0x20 ADD DUP3 DUP1 SLOAD PUSH2 0x400 SWAP1 PUSH2 0x209F JUMP JUMPDEST DUP1 ISZERO PUSH2 0x44B JUMPI DUP1 PUSH1 0x1F LT PUSH2 0x422 JUMPI PUSH2 0x100 DUP1 DUP4 SLOAD DIV MUL DUP4 MSTORE SWAP2 PUSH1 0x20 ADD SWAP2 PUSH2 0x44B JUMP JUMPDEST DUP3 ADD SWAP2 SWAP1 PUSH0 MSTORE PUSH1 0x20 PUSH0 KECCAK256 SWAP1 JUMPDEST DUP2 SLOAD DUP2 MSTORE SWAP1 PUSH1 0x1 ADD SWAP1 PUSH1 0x20 ADD DUP1 DUP4 GT PUSH2 0x42E JUMPI DUP3 SWAP1 SUB PUSH1 0x1F AND DUP3 ADD SWAP2 JUMPDEST POP POP POP POP POP SWAP1 POP SWAP1 JUMP JUMPDEST PUSH0 PUSH2 0x45F DUP3 PUSH2 0xA8F JUMP JUMPDEST POP PUSH2 0x469 DUP3 PUSH2 0xB15 JUMP JUMPDEST SWAP1 POP SWAP2 SWAP1 POP JUMP JUMPDEST PUSH2 0x482 DUP3 DUP3 PUSH2 0x47D PUSH2 0xB4E JUMP JUMPDEST PUSH2 0xB55 JUMP JUMPDEST POP POP JUMP JUMPDEST PUSH1 0x60 PUSH0 PUSH1 0x40 MLOAD DUP1 PUSH1 0x40 ADD PUSH1 0x40 MSTORE DUP1 PUSH1 0x1D DUP2 MSTORE PUSH1 0x20 ADD PUSH32 0x646174613A6170706C69636174696F6E2F6A736F6E3B6261736536342C000000 DUP2 MSTORE POP SWAP1 POP PUSH0 DUP4 PUSH1 0x40 MLOAD PUSH1 0x20 ADD PUSH2 0x4D3 SWAP2 SWAP1 PUSH2 0x21E9 JUMP JUMPDEST PUSH1 0x40 MLOAD PUSH1 0x20 DUP2 DUP4 SUB SUB DUP2 MSTORE SWAP1 PUSH1 0x40 MSTORE SWAP1 POP PUSH0 PUSH2 0x4EE DUP3 PUSH2 0xB67 JUMP JUMPDEST SWAP1 POP DUP3 DUP2 PUSH1 0x40 MLOAD PUSH1 0x20 ADD PUSH2 0x503 SWAP3 SWAP2 SWAP1 PUSH2 0x2215 JUMP JUMPDEST PUSH1 0x40 MLOAD PUSH1 0x20 DUP2 DUP4 SUB SUB DUP2 MSTORE SWAP1 PUSH1 0x40 MSTORE SWAP4 POP POP POP POP SWAP2 SWAP1 POP JUMP JUMPDEST PUSH0 PUSH20 0xFFFFFFFFFFFFFFFFFFFFFFFFFFFFFFFFFFFFFFFF AND DUP3 PUSH20 0xFFFFFFFFFFFFFFFFFFFFFFFFFFFFFFFFFFFFFFFF AND SUB PUSH2 0x58C JUMPI PUSH0 PUSH1 0x40 MLOAD PUSH32 0x64A0AE9200000000000000000000000000000000000000000000000000000000 DUP2 MSTORE PUSH1 0x4 ADD PUSH2 0x583 SWAP2 SWAP1 PUSH2 0x1C17 JUMP JUMPDEST PUSH1 0x40 MLOAD DUP1 SWAP2 SUB SWAP1 REVERT JUMPDEST PUSH0 PUSH2 0x59F DUP4 DUP4 PUSH2 0x59A PUSH2 0xB4E JUMP JUMPDEST PUSH2 0xCC6 JUMP JUMPDEST SWAP1 POP DUP4 PUSH20 0xFFFFFFFFFFFFFFFFFFFFFFFFFFFFFFFFFFFFFFFF AND DUP2 PUSH20 0xFFFFFFFFFFFFFFFFFFFFFFFFFFFFFFFFFFFFFFFF AND EQ PUSH2 0x615 JUMPI DUP4 DUP3 DUP3 PUSH1 0x40 MLOAD PUSH32 0x64283D7B00000000000000000000000000000000000000000000000000000000 DUP2 MSTORE PUSH1 0x4 ADD PUSH2 0x60C SWAP4 SWAP3 SWAP2 SWAP1 PUSH2 0x2238 JUMP JUMPDEST PUSH1 0x40 MLOAD DUP1 SWAP2 SUB SWAP1 REVERT JUMPDEST POP POP POP POP JUMP JUMPDEST PUSH2 0x635 DUP4 DUP4 DUP4 PUSH1 0x40 MLOAD DUP1 PUSH1 0x20 ADD PUSH1 0x40 MSTORE DUP1 PUSH0 DUP2 MSTORE POP PUSH2 0x7A7 JUMP JUMPDEST POP POP POP JUMP JUMPDEST PUSH0 PUSH2 0x644 DUP3 PUSH2 0xA8F JUMP JUMPDEST SWAP1 POP SWAP2 SWAP1 POP JUMP JUMPDEST PUSH0 DUP1 PUSH20 0xFFFFFFFFFFFFFFFFFFFFFFFFFFFFFFFFFFFFFFFF AND DUP3 PUSH20 0xFFFFFFFFFFFFFFFFFFFFFFFFFFFFFFFFFFFFFFFF AND SUB PUSH2 0x6BC JUMPI PUSH0 PUSH1 0x40 MLOAD PUSH32 0x89C62B6400000000000000000000000000000000000000000000000000000000 DUP2 MSTORE PUSH1 0x4 ADD PUSH2 0x6B3 SWAP2 SWAP1 PUSH2 0x1C17 JUMP JUMPDEST PUSH1 0x40 MLOAD DUP1 SWAP2 SUB SWAP1 REVERT JUMPDEST PUSH1 0x3 PUSH0 DUP4 PUSH20 0xFFFFFFFFFFFFFFFFFFFFFFFFFFFFFFFFFFFFFFFF AND PUSH20 0xFFFFFFFFFFFFFFFFFFFFFFFFFFFFFFFFFFFFFFFF AND DUP2 MSTORE PUSH1 0x20 ADD SWAP1 DUP2 MSTORE PUSH1 0x20 ADD PUSH0 KECCAK256 SLOAD SWAP1 POP SWAP2 SWAP1 POP JUMP JUMPDEST PUSH1 0x60 PUSH1 0x1 DUP1 SLOAD PUSH2 0x710 SWAP1 PUSH2 0x209F JUMP JUMPDEST DUP1 PUSH1 0x1F ADD PUSH1 0x20 DUP1 SWAP2 DIV MUL PUSH1 0x20 ADD PUSH1 0x40 MLOAD SWAP1 DUP2 ADD PUSH1 0x40 MSTORE DUP1 SWAP3 SWAP2 SWAP1 DUP2 DUP2 MSTORE PUSH1 0x20 ADD DUP3 DUP1 SLOAD PUSH2 0x73C SWAP1 PUSH2 0x209F JUMP JUMPDEST DUP1 ISZERO PUSH2 0x787 JUMPI DUP1 PUSH1 0x1F LT PUSH2 0x75E JUMPI PUSH2 0x100 DUP1 DUP4 SLOAD DIV MUL DUP4 MSTORE SWAP2 PUSH1 0x20 ADD SWAP2 PUSH2 0x787 JUMP JUMPDEST DUP3 ADD SWAP2 SWAP1 PUSH0 MSTORE PUSH1 0x20 PUSH0 KECCAK256 SWAP1 JUMPDEST DUP2 SLOAD DUP2 MSTORE SWAP1 PUSH1 0x1 ADD SWAP1 PUSH1 0x20 ADD DUP1 DUP4 GT PUSH2 0x76A JUMPI DUP3 SWAP1 SUB PUSH1 0x1F AND DUP3 ADD SWAP2 JUMPDEST POP POP POP POP POP SWAP1 POP SWAP1 JUMP JUMPDEST PUSH2 0x7A3 PUSH2 0x79C PUSH2 0xB4E JUMP JUMPDEST DUP4 DUP4 PUSH2 0xED1 JUMP JUMPDEST POP POP JUMP JUMPDEST PUSH2 0x7B2 DUP5 DUP5 DUP5 PUSH2 0x51C JUMP JUMPDEST PUSH2 0x7BE DUP5 DUP5 DUP5 DUP5 PUSH2 0x103A JUMP JUMPDEST POP POP POP POP JUMP JUMPDEST PUSH1 0x8 PUSH1 0x20 MSTORE DUP1 PUSH0 MSTORE PUSH1 0x40 PUSH0 KECCAK256 PUSH0 SWAP2 POP SWAP1 POP SLOAD DUP2 JUMP JUMPDEST PUSH1 0x60 PUSH2 0x7E4 DUP3 PUSH2 0xA8F JUMP JUMPDEST POP PUSH0 PUSH1 0x6 PUSH0 DUP5 DUP2 MSTORE PUSH1 0x20 ADD SWAP1 DUP2 MSTORE PUSH1 0x20 ADD PUSH0 KECCAK256 DUP1 SLOAD PUSH2 0x802 SWAP1 PUSH2 0x209F JUMP JUMPDEST DUP1 PUSH1 0x1F ADD PUSH1 0x20 DUP1 SWAP2 DIV MUL PUSH1 0x20 ADD PUSH1 0x40 MLOAD SWAP1 DUP2 ADD PUSH1 0x40 MSTORE DUP1 SWAP3 SWAP2 SWAP1 DUP2 DUP2 MSTORE PUSH1 0x20 ADD DUP3 DUP1 SLOAD PUSH2 0x82E SWAP1 PUSH2 0x209F JUMP JUMPDEST DUP1 ISZERO PUSH2 0x879 JUMPI DUP1 PUSH1 0x1F LT PUSH2 0x850 JUMPI PUSH2 0x100 DUP1 DUP4 SLOAD DIV MUL DUP4 MSTORE SWAP2 PUSH1 0x20 ADD SWAP2 PUSH2 0x879 JUMP JUMPDEST DUP3 ADD SWAP2 SWAP1 PUSH0 MSTORE PUSH1 0x20 PUSH0 KECCAK256 SWAP1 JUMPDEST DUP2 SLOAD DUP2 MSTORE SWAP1 PUSH1 0x1 ADD SWAP1 PUSH1 0x20 ADD DUP1 DUP4 GT PUSH2 0x85C JUMPI DUP3 SWAP1 SUB PUSH1 0x1F AND DUP3 ADD SWAP2 JUMPDEST POP POP POP POP POP SWAP1 POP PUSH0 PUSH2 0x889 PUSH2 0x11EC JUMP JUMPDEST SWAP1 POP PUSH0 DUP2 MLOAD SUB PUSH2 0x89D JUMPI DUP2 SWAP3 POP POP POP PUSH2 0x8DF JUMP JUMPDEST PUSH0 DUP3 MLOAD GT ISZERO PUSH2 0x8D1 JUMPI DUP1 DUP3 PUSH1 0x40 MLOAD PUSH1 0x20 ADD PUSH2 0x8B9 SWAP3 SWAP2 SWAP1 PUSH2 0x2215 JUMP JUMPDEST PUSH1 0x40 MLOAD PUSH1 0x20 DUP2 DUP4 SUB SUB DUP2 MSTORE SWAP1 PUSH1 0x40 MSTORE SWAP3 POP POP POP PUSH2 0x8DF JUMP JUMPDEST PUSH2 0x8DA DUP5 PUSH2 0x1202 JUMP JUMPDEST SWAP3 POP POP POP JUMPDEST SWAP2 SWAP1 POP JUMP JUMPDEST PUSH0 PUSH2 0x8EE DUP3 PUSH2 0x486 JUMP JUMPDEST SWAP1 POP PUSH2 0x8FA PUSH1 0x7 PUSH2 0x1268 JUMP JUMPDEST PUSH0 PUSH2 0x905 PUSH1 0x7 PUSH2 0x127C JUMP JUMPDEST SWAP1 POP PUSH2 0x911 CALLER DUP3 PUSH2 0x1288 JUMP JUMPDEST PUSH2 0x91B DUP2 DUP4 PUSH2 0x12A5 JUMP JUMPDEST POP POP POP JUMP JUMPDEST PUSH0 PUSH1 0x5 PUSH0 DUP5 PUSH20 0xFFFFFFFFFFFFFFFFFFFFFFFFFFFFFFFFFFFFFFFF AND PUSH20 0xFFFFFFFFFFFFFFFFFFFFFFFFFFFFFFFFFFFFFFFF AND DUP2 MSTORE PUSH1 0x20 ADD SWAP1 DUP2 MSTORE PUSH1 0x20 ADD PUSH0 KECCAK256 PUSH0 DUP4 PUSH20 0xFFFFFFFFFFFFFFFFFFFFFFFFFFFFFFFFFFFFFFFF AND PUSH20 0xFFFFFFFFFFFFFFFFFFFFFFFFFFFFFFFFFFFFFFFF AND DUP2 MSTORE PUSH1 0x20 ADD SWAP1 DUP2 MSTORE PUSH1 0x20 ADD PUSH0 KECCAK256 PUSH0 SWAP1 SLOAD SWAP1 PUSH2 0x100 EXP SWAP1 DIV PUSH1 0xFF AND SWAP1 POP SWAP3 SWAP2 POP POP JUMP JUMPDEST PUSH0 PUSH32 0x80AC58CD00000000000000000000000000000000000000000000000000000000 PUSH28 0xFFFFFFFFFFFFFFFFFFFFFFFFFFFFFFFFFFFFFFFFFFFFFFFFFFFFFFFF NOT AND DUP3 PUSH28 0xFFFFFFFFFFFFFFFFFFFFFFFFFFFFFFFFFFFFFFFFFFFFFFFFFFFFFFFF NOT AND EQ DUP1 PUSH2 0xA78 JUMPI POP PUSH32 0x5B5E139F00000000000000000000000000000000000000000000000000000000 PUSH28 0xFFFFFFFFFFFFFFFFFFFFFFFFFFFFFFFFFFFFFFFFFFFFFFFFFFFFFFFF NOT AND DUP3 PUSH28 0xFFFFFFFFFFFFFFFFFFFFFFFFFFFFFFFFFFFFFFFFFFFFFFFFFFFFFFFF NOT AND EQ JUMPDEST DUP1 PUSH2 0xA88 JUMPI POP PUSH2 0xA87 DUP3 PUSH2 0x12FF JUMP JUMPDEST JUMPDEST SWAP1 POP SWAP2 SWAP1 POP JUMP JUMPDEST PUSH0 DUP1 PUSH2 0xA9A DUP4 PUSH2 0x1368 JUMP JUMPDEST SWAP1 POP PUSH0 PUSH20 0xFFFFFFFFFFFFFFFFFFFFFFFFFFFFFFFFFFFFFFFF AND DUP2 PUSH20 0xFFFFFFFFFFFFFFFFFFFFFFFFFFFFFFFFFFFFFFFF AND SUB PUSH2 0xB0C JUMPI DUP3 PUSH1 0x40 MLOAD PUSH32 0x7E27328900000000000000000000000000000000000000000000000000000000 DUP2 MSTORE PUSH1 0x4 ADD PUSH2 0xB03 SWAP2 SWAP1 PUSH2 0x1E95 JUMP JUMPDEST PUSH1 0x40 MLOAD DUP1 SWAP2 SUB SWAP1 REVERT JUMPDEST DUP1 SWAP2 POP POP SWAP2 SWAP1 POP JUMP JUMPDEST PUSH0 PUSH1 0x4 PUSH0 DUP4 DUP2 MSTORE PUSH1 0x20 ADD SWAP1 DUP2 MSTORE PUSH1 0x20 ADD PUSH0 KECCAK256 PUSH0 SWAP1 SLOAD SWAP1 PUSH2 0x100 EXP SWAP1 DIV PUSH20 0xFFFFFFFFFFFFFFFFFFFFFFFFFFFFFFFFFFFFFFFF AND SWAP1 POP SWAP2 SWAP1 POP JUMP JUMPDEST PUSH0 CALLER SWAP1 POP SWAP1 JUMP JUMPDEST PUSH2 0xB62 DUP4 DUP4 DUP4 PUSH1 0x1 PUSH2 0x13A1 JUMP JUMPDEST POP POP POP JUMP JUMPDEST PUSH1 0x60 PUSH0 DUP3 MLOAD SUB PUSH2 0xB87 JUMPI PUSH1 0x40 MLOAD DUP1 PUSH1 0x20 ADD PUSH1 0x40 MSTORE DUP1 PUSH0 DUP2 MSTORE POP SWAP1 POP PUSH2 0xCC1 JUMP JUMPDEST PUSH0 PUSH1 0x40 MLOAD DUP1 PUSH1 0x60 ADD PUSH1 0x40 MSTORE DUP1 PUSH1 0x40 DUP2 MSTORE PUSH1 0x20 ADD PUSH2 0x26DA PUSH1 0x40 SWAP2 CODECOPY SWAP1 POP PUSH0 PUSH1 0x3 PUSH1 0x2 DUP6 MLOAD PUSH2 0xBB4 SWAP2 SWAP1 PUSH2 0x229A JUMP JUMPDEST PUSH2 0xBBE SWAP2 SWAP1 PUSH2 0x22FA JUMP JUMPDEST PUSH1 0x4 PUSH2 0xBCA SWAP2 SWAP1 PUSH2 0x232A JUMP JUMPDEST PUSH8 0xFFFFFFFFFFFFFFFF DUP2 GT ISZERO PUSH2 0xBE3 JUMPI PUSH2 0xBE2 PUSH2 0x1CA0 JUMP JUMPDEST JUMPDEST PUSH1 0x40 MLOAD SWAP1 DUP1 DUP3 MSTORE DUP1 PUSH1 0x1F ADD PUSH1 0x1F NOT AND PUSH1 0x20 ADD DUP3 ADD PUSH1 0x40 MSTORE DUP1 ISZERO PUSH2 0xC15 JUMPI DUP2 PUSH1 0x20 ADD PUSH1 0x1 DUP3 MUL DUP1 CALLDATASIZE DUP4 CALLDATACOPY DUP1 DUP3 ADD SWAP2 POP POP SWAP1 POP JUMPDEST POP SWAP1 POP PUSH1 0x1 DUP3 ADD PUSH1 0x20 DUP3 ADD DUP6 DUP7 MLOAD DUP8 ADD JUMPDEST DUP1 DUP3 LT ISZERO PUSH2 0xC81 JUMPI PUSH1 0x3 DUP3 ADD SWAP2 POP DUP2 MLOAD PUSH1 0x3F DUP2 PUSH1 0x12 SHR AND DUP6 ADD MLOAD DUP5 MSTORE8 PUSH1 0x1 DUP5 ADD SWAP4 POP PUSH1 0x3F DUP2 PUSH1 0xC SHR AND DUP6 ADD MLOAD DUP5 MSTORE8 PUSH1 0x1 DUP5 ADD SWAP4 POP PUSH1 0x3F DUP2 PUSH1 0x6 SHR AND DUP6 ADD MLOAD DUP5 MSTORE8 PUSH1 0x1 DUP5 ADD SWAP4 POP PUSH1 0x3F DUP2 AND DUP6 ADD MLOAD DUP5 MSTORE8 PUSH1 0x1 DUP5 ADD SWAP4 POP POP PUSH2 0xC26 JUMP JUMPDEST POP POP PUSH1 0x3 DUP7 MLOAD MOD PUSH1 0x1 DUP2 EQ PUSH2 0xC9D JUMPI PUSH1 0x2 DUP2 EQ PUSH2 0xCB0 JUMPI PUSH2 0xCB8 JUMP JUMPDEST PUSH1 0x3D PUSH1 0x1 DUP4 SUB MSTORE8 PUSH1 0x3D PUSH1 0x2 DUP4 SUB MSTORE8 PUSH2 0xCB8 JUMP JUMPDEST PUSH1 0x3D PUSH1 0x1 DUP4 SUB MSTORE8 JUMPDEST POP POP POP DUP1 SWAP3 POP POP POP JUMPDEST SWAP2 SWAP1 POP JUMP JUMPDEST PUSH0 DUP1 PUSH2 0xCD1 DUP5 PUSH2 0x1368 JUMP JUMPDEST SWAP1 POP PUSH0 PUSH20 0xFFFFFFFFFFFFFFFFFFFFFFFFFFFFFFFFFFFFFFFF AND DUP4 PUSH20 0xFFFFFFFFFFFFFFFFFFFFFFFFFFFFFFFFFFFFFFFF AND EQ PUSH2 0xD12 JUMPI PUSH2 0xD11 DUP2 DUP5 DUP7 PUSH2 0x1560 JUMP JUMPDEST JUMPDEST PUSH0 PUSH20 0xFFFFFFFFFFFFFFFFFFFFFFFFFFFFFFFFFFFFFFFF AND DUP2 PUSH20 0xFFFFFFFFFFFFFFFFFFFFFFFFFFFFFFFFFFFFFFFF AND EQ PUSH2 0xD9D JUMPI PUSH2 0xD51 PUSH0 DUP6 PUSH0 DUP1 PUSH2 0x13A1 JUMP JUMPDEST PUSH1 0x1 PUSH1 0x3 PUSH0 DUP4 PUSH20 0xFFFFFFFFFFFFFFFFFFFFFFFFFFFFFFFFFFFFFFFF AND PUSH20 0xFFFFFFFFFFFFFFFFFFFFFFFFFFFFFFFFFFFFFFFF AND DUP2 MSTORE PUSH1 0x20 ADD SWAP1 DUP2 MSTORE PUSH1 0x20 ADD PUSH0 KECCAK256 PUSH0 DUP3 DUP3 SLOAD SUB SWAP3 POP POP DUP2 SWAP1 SSTORE POP JUMPDEST PUSH0 PUSH20 0xFFFFFFFFFFFFFFFFFFFFFFFFFFFFFFFFFFFFFFFF AND DUP6 PUSH20 0xFFFFFFFFFFFFFFFFFFFFFFFFFFFFFFFFFFFFFFFF AND EQ PUSH2 0xE1C JUMPI PUSH1 0x1 PUSH1 0x3 PUSH0 DUP8 PUSH20 0xFFFFFFFFFFFFFFFFFFFFFFFFFFFFFFFFFFFFFFFF AND PUSH20 0xFFFFFFFFFFFFFFFFFFFFFFFFFFFFFFFFFFFFFFFF AND DUP2 MSTORE PUSH1 0x20 ADD SWAP1 DUP2 MSTORE PUSH1 0x20 ADD PUSH0 KECCAK256 PUSH0 DUP3 DUP3 SLOAD ADD SWAP3 POP POP DUP2 SWAP1 SSTORE POP JUMPDEST DUP5 PUSH1 0x2 PUSH0 DUP7 DUP2 MSTORE PUSH1 0x20 ADD SWAP1 DUP2 MSTORE PUSH1 0x20 ADD PUSH0 KECCAK256 PUSH0 PUSH2 0x100 EXP DUP2 SLOAD DUP2 PUSH20 0xFFFFFFFFFFFFFFFFFFFFFFFFFFFFFFFFFFFFFFFF MUL NOT AND SWAP1 DUP4 PUSH20 0xFFFFFFFFFFFFFFFFFFFFFFFFFFFFFFFFFFFFFFFF AND MUL OR SWAP1 SSTORE POP DUP4 DUP6 PUSH20 0xFFFFFFFFFFFFFFFFFFFFFFFFFFFFFFFFFFFFFFFF AND DUP3 PUSH20 0xFFFFFFFFFFFFFFFFFFFFFFFFFFFFFFFFFFFFFFFF AND PUSH32 0xDDF252AD1BE2C89B69C2B068FC378DAA952BA7F163C4A11628F55A4DF523B3EF PUSH1 0x40 MLOAD PUSH1 0x40 MLOAD DUP1 SWAP2 SUB SWAP1 LOG4 DUP1 SWAP2 POP POP SWAP4 SWAP3 POP POP POP JUMP JUMPDEST PUSH0 PUSH20 0xFFFFFFFFFFFFFFFFFFFFFFFFFFFFFFFFFFFFFFFF AND DUP3 PUSH20 0xFFFFFFFFFFFFFFFFFFFFFFFFFFFFFFFFFFFFFFFF AND SUB PUSH2 0xF41 JUMPI DUP2 PUSH1 0x40 MLOAD PUSH32 0x5B08BA1800000000000000000000000000000000000000000000000000000000 DUP2 MSTORE PUSH1 0x4 ADD PUSH2 0xF38 SWAP2 SWAP1 PUSH2 0x1C17 JUMP JUMPDEST PUSH1 0x40 MLOAD DUP1 SWAP2 SUB SWAP1 REVERT JUMPDEST DUP1 PUSH1 0x5 PUSH0 DUP6 PUSH20 0xFFFFFFFFFFFFFFFFFFFFFFFFFFFFFFFFFFFFFFFF AND PUSH20 0xFFFFFFFFFFFFFFFFFFFFFFFFFFFFFFFFFFFFFFFF AND DUP2 MSTORE PUSH1 0x20 ADD SWAP1 DUP2 MSTORE PUSH1 0x20 ADD PUSH0 KECCAK256 PUSH0 DUP5 PUSH20 0xFFFFFFFFFFFFFFFFFFFFFFFFFFFFFFFFFFFFFFFF AND PUSH20 0xFFFFFFFFFFFFFFFFFFFFFFFFFFFFFFFFFFFFFFFF AND DUP2 MSTORE PUSH1 0x20 ADD SWAP1 DUP2 MSTORE PUSH1 0x20 ADD PUSH0 KECCAK256 PUSH0 PUSH2 0x100 EXP DUP2 SLOAD DUP2 PUSH1 0xFF MUL NOT AND SWAP1 DUP4 ISZERO ISZERO MUL OR SWAP1 SSTORE POP DUP2 PUSH20 0xFFFFFFFFFFFFFFFFFFFFFFFFFFFFFFFFFFFFFFFF AND DUP4 PUSH20 0xFFFFFFFFFFFFFFFFFFFFFFFFFFFFFFFFFFFFFFFF AND PUSH32 0x17307EAB39AB6107E8899845AD3D59BD9653F200F220920489CA2B5937696C31 DUP4 PUSH1 0x40 MLOAD PUSH2 0x102D SWAP2 SWAP1 PUSH2 0x1AB7 JUMP JUMPDEST PUSH1 0x40 MLOAD DUP1 SWAP2 SUB SWAP1 LOG3 POP POP POP JUMP JUMPDEST PUSH0 DUP4 PUSH20 0xFFFFFFFFFFFFFFFFFFFFFFFFFFFFFFFFFFFFFFFF AND EXTCODESIZE GT ISZERO PUSH2 0x11E6 JUMPI DUP3 PUSH20 0xFFFFFFFFFFFFFFFFFFFFFFFFFFFFFFFFFFFFFFFF AND PUSH4 0x150B7A02 PUSH2 0x107D PUSH2 0xB4E JUMP JUMPDEST DUP7 DUP6 DUP6 PUSH1 0x40 MLOAD DUP6 PUSH4 0xFFFFFFFF AND PUSH1 0xE0 SHL DUP2 MSTORE PUSH1 0x4 ADD PUSH2 0x109F SWAP5 SWAP4 SWAP3 SWAP2 SWAP1 PUSH2 0x23BD JUMP JUMPDEST PUSH1 0x20 PUSH1 0x40 MLOAD DUP1 DUP4 SUB DUP2 PUSH0 DUP8 GAS CALL SWAP3 POP POP POP DUP1 ISZERO PUSH2 0x10DA JUMPI POP PUSH1 0x40 MLOAD RETURNDATASIZE PUSH1 0x1F NOT PUSH1 0x1F DUP3 ADD AND DUP3 ADD DUP1 PUSH1 0x40 MSTORE POP DUP2 ADD SWAP1 PUSH2 0x10D7 SWAP2 SWAP1 PUSH2 0x241B JUMP JUMPDEST PUSH1 0x1 JUMPDEST PUSH2 0x115B JUMPI RETURNDATASIZE DUP1 PUSH0 DUP2 EQ PUSH2 0x1108 JUMPI PUSH1 0x40 MLOAD SWAP2 POP PUSH1 0x1F NOT PUSH1 0x3F RETURNDATASIZE ADD AND DUP3 ADD PUSH1 0x40 MSTORE RETURNDATASIZE DUP3 MSTORE RETURNDATASIZE PUSH0 PUSH1 0x20 DUP5 ADD RETURNDATACOPY PUSH2 0x110D JUMP JUMPDEST PUSH1 0x60 SWAP2 POP JUMPDEST POP PUSH0 DUP2 MLOAD SUB PUSH2 0x1153 JUMPI DUP4 PUSH1 0x40 MLOAD PUSH32 0x64A0AE9200000000000000000000000000000000000000000000000000000000 DUP2 MSTORE PUSH1 0x4 ADD PUSH2 0x114A SWAP2 SWAP1 PUSH2 0x1C17 JUMP JUMPDEST PUSH1 0x40 MLOAD DUP1 SWAP2 SUB SWAP1 REVERT JUMPDEST DUP1 MLOAD DUP2 PUSH1 0x20 ADD REVERT JUMPDEST PUSH4 0x150B7A02 PUSH1 0xE0 SHL PUSH28 0xFFFFFFFFFFFFFFFFFFFFFFFFFFFFFFFFFFFFFFFFFFFFFFFFFFFFFFFF NOT AND DUP2 PUSH28 0xFFFFFFFFFFFFFFFFFFFFFFFFFFFFFFFFFFFFFFFFFFFFFFFFFFFFFFFF NOT AND EQ PUSH2 0x11E4 JUMPI DUP4 PUSH1 0x40 MLOAD PUSH32 0x64A0AE9200000000000000000000000000000000000000000000000000000000 DUP2 MSTORE PUSH1 0x4 ADD PUSH2 0x11DB SWAP2 SWAP1 PUSH2 0x1C17 JUMP JUMPDEST PUSH1 0x40 MLOAD DUP1 SWAP2 SUB SWAP1 REVERT JUMPDEST POP JUMPDEST POP POP POP POP JUMP JUMPDEST PUSH1 0x60 PUSH1 0x40 MLOAD DUP1 PUSH1 0x20 ADD PUSH1 0x40 MSTORE DUP1 PUSH0 DUP2 MSTORE POP SWAP1 POP SWAP1 JUMP JUMPDEST PUSH1 0x60 PUSH2 0x120D DUP3 PUSH2 0xA8F JUMP JUMPDEST POP PUSH0 PUSH2 0x1217 PUSH2 0x11EC JUMP JUMPDEST SWAP1 POP PUSH0 DUP2 MLOAD GT PUSH2 0x1235 JUMPI PUSH1 0x40 MLOAD DUP1 PUSH1 0x20 ADD PUSH1 0x40 MSTORE DUP1 PUSH0 DUP2 MSTORE POP PUSH2 0x1260 JUMP JUMPDEST DUP1 PUSH2 0x123F DUP5 PUSH2 0x1623 JUMP JUMPDEST PUSH1 0x40 MLOAD PUSH1 0x20 ADD PUSH2 0x1250 SWAP3 SWAP2 SWAP1 PUSH2 0x2215 JUMP JUMPDEST PUSH1 0x40 MLOAD PUSH1 0x20 DUP2 DUP4 SUB SUB DUP2 MSTORE SWAP1 PUSH1 0x40 MSTORE JUMPDEST SWAP2 POP POP SWAP2 SWAP1 POP JUMP JUMPDEST PUSH1 0x1 DUP2 PUSH0 ADD PUSH0 DUP3 DUP3 SLOAD ADD SWAP3 POP POP DUP2 SWAP1 SSTORE POP POP JUMP JUMPDEST PUSH0 DUP2 PUSH0 ADD SLOAD SWAP1 POP SWAP2 SWAP1 POP JUMP JUMPDEST PUSH2 0x12A1 DUP3 DUP3 PUSH1 0x40 MLOAD DUP1 PUSH1 0x20 ADD PUSH1 0x40 MSTORE DUP1 PUSH0 DUP2 MSTORE POP PUSH2 0x16ED JUMP JUMPDEST POP POP JUMP JUMPDEST DUP1 PUSH1 0x6 PUSH0 DUP5 DUP2 MSTORE PUSH1 0x20 ADD SWAP1 DUP2 MSTORE PUSH1 0x20 ADD PUSH0 KECCAK256 SWAP1 DUP2 PUSH2 0x12C3 SWAP2 SWAP1 PUSH2 0x25E3 JUMP JUMPDEST POP PUSH32 0xF8E1A15ABA9398E019F0B49DF1A4FDE98EE17AE345CB5F6B5E2C27F5033E8CE7 DUP3 PUSH1 0x40 MLOAD PUSH2 0x12F3 SWAP2 SWAP1 PUSH2 0x1E95 JUMP JUMPDEST PUSH1 0x40 MLOAD DUP1 SWAP2 SUB SWAP1 LOG1 POP POP JUMP JUMPDEST PUSH0 PUSH32 0x1FFC9A700000000000000000000000000000000000000000000000000000000 PUSH28 0xFFFFFFFFFFFFFFFFFFFFFFFFFFFFFFFFFFFFFFFFFFFFFFFFFFFFFFFF NOT AND DUP3 PUSH28 0xFFFFFFFFFFFFFFFFFFFFFFFFFFFFFFFFFFFFFFFFFFFFFFFFFFFFFFFF NOT AND EQ SWAP1 POP SWAP2 SWAP1 POP JUMP JUMPDEST PUSH0 PUSH1 0x2 PUSH0 DUP4 DUP2 MSTORE PUSH1 0x20 ADD SWAP1 DUP2 MSTORE PUSH1 0x20 ADD PUSH0 KECCAK256 PUSH0 SWAP1 SLOAD SWAP1 PUSH2 0x100 EXP SWAP1 DIV PUSH20 0xFFFFFFFFFFFFFFFFFFFFFFFFFFFFFFFFFFFFFFFF AND SWAP1 POP SWAP2 SWAP1 POP JUMP JUMPDEST DUP1 DUP1 PUSH2 0x13D9 JUMPI POP PUSH0 PUSH20 0xFFFFFFFFFFFFFFFFFFFFFFFFFFFFFFFFFFFFFFFF AND DUP3 PUSH20 0xFFFFFFFFFFFFFFFFFFFFFFFFFFFFFFFFFFFFFFFF AND EQ ISZERO JUMPDEST ISZERO PUSH2 0x150B JUMPI PUSH0 PUSH2 0x13E8 DUP5 PUSH2 0xA8F JUMP JUMPDEST SWAP1 POP PUSH0 PUSH20 0xFFFFFFFFFFFFFFFFFFFFFFFFFFFFFFFFFFFFFFFF AND DUP4 PUSH20 0xFFFFFFFFFFFFFFFFFFFFFFFFFFFFFFFFFFFFFFFF AND EQ ISZERO DUP1 ISZERO PUSH2 0x1452 JUMPI POP DUP3 PUSH20 0xFFFFFFFFFFFFFFFFFFFFFFFFFFFFFFFFFFFFFFFF AND DUP2 PUSH20 0xFFFFFFFFFFFFFFFFFFFFFFFFFFFFFFFFFFFFFFFF AND EQ ISZERO JUMPDEST DUP1 ISZERO PUSH2 0x1465 JUMPI POP PUSH2 0x1463 DUP2 DUP5 PUSH2 0x920 JUMP JUMPDEST ISZERO JUMPDEST ISZERO PUSH2 0x14A7 JUMPI DUP3 PUSH1 0x40 MLOAD PUSH32 0xA9FBF51F00000000000000000000000000000000000000000000000000000000 DUP2 MSTORE PUSH1 0x4 ADD PUSH2 0x149E SWAP2 SWAP1 PUSH2 0x1C17 JUMP JUMPDEST PUSH1 0x40 MLOAD DUP1 SWAP2 SUB SWAP1 REVERT JUMPDEST DUP2 ISZERO PUSH2 0x1509 JUMPI DUP4 DUP6 PUSH20 0xFFFFFFFFFFFFFFFFFFFFFFFFFFFFFFFFFFFFFFFF AND DUP3 PUSH20 0xFFFFFFFFFFFFFFFFFFFFFFFFFFFFFFFFFFFFFFFF AND PUSH32 0x8C5BE1E5EBEC7D5BD14F71427D1E84F3DD0314C0F7B2291E5B200AC8C7C3B925 PUSH1 0x40 MLOAD PUSH1 0x40 MLOAD DUP1 SWAP2 SUB SWAP1 LOG4 JUMPDEST POP JUMPDEST DUP4 PUSH1 0x4 PUSH0 DUP6 DUP2 MSTORE PUSH1 0x20 ADD SWAP1 DUP2 MSTORE PUSH1 0x20 ADD PUSH0 KECCAK256 PUSH0 PUSH2 0x100 EXP DUP2 SLOAD DUP2 PUSH20 0xFFFFFFFFFFFFFFFFFFFFFFFFFFFFFFFFFFFFFFFF MUL NOT AND SWAP1 DUP4 PUSH20 0xFFFFFFFFFFFFFFFFFFFFFFFFFFFFFFFFFFFFFFFF AND MUL OR SWAP1 SSTORE POP POP POP POP POP JUMP JUMPDEST PUSH2 0x156B DUP4 DUP4 DUP4 PUSH2 0x1708 JUMP JUMPDEST PUSH2 0x161E JUMPI PUSH0 PUSH20 0xFFFFFFFFFFFFFFFFFFFFFFFFFFFFFFFFFFFFFFFF AND DUP4 PUSH20 0xFFFFFFFFFFFFFFFFFFFFFFFFFFFFFFFFFFFFFFFF AND SUB PUSH2 0x15DF JUMPI DUP1 PUSH1 0x40 MLOAD PUSH32 0x7E27328900000000000000000000000000000000000000000000000000000000 DUP2 MSTORE PUSH1 0x4 ADD PUSH2 0x15D6 SWAP2 SWAP1 PUSH2 0x1E95 JUMP JUMPDEST PUSH1 0x40 MLOAD DUP1 SWAP2 SUB SWAP1 REVERT JUMPDEST DUP2 DUP2 PUSH1 0x40 MLOAD PUSH32 0x177E802F00000000000000000000000000000000000000000000000000000000 DUP2 MSTORE PUSH1 0x4 ADD PUSH2 0x1615 SWAP3 SWAP2 SWAP1 PUSH2 0x26B2 JUMP JUMPDEST PUSH1 0x40 MLOAD DUP1 SWAP2 SUB SWAP1 REVERT JUMPDEST POP POP POP JUMP JUMPDEST PUSH1 0x60 PUSH0 PUSH1 0x1 PUSH2 0x1631 DUP5 PUSH2 0x17C8 JUMP JUMPDEST ADD SWAP1 POP PUSH0 DUP2 PUSH8 0xFFFFFFFFFFFFFFFF DUP2 GT ISZERO PUSH2 0x164F JUMPI PUSH2 0x164E PUSH2 0x1CA0 JUMP JUMPDEST JUMPDEST PUSH1 0x40 MLOAD SWAP1 DUP1 DUP3 MSTORE DUP1 PUSH1 0x1F ADD PUSH1 0x1F NOT AND PUSH1 0x20 ADD DUP3 ADD PUSH1 0x40 MSTORE DUP1 ISZERO PUSH2 0x1681 JUMPI DUP2 PUSH1 0x20 ADD PUSH1 0x1 DUP3 MUL DUP1 CALLDATASIZE DUP4 CALLDATACOPY DUP1 DUP3 ADD SWAP2 POP POP SWAP1 POP JUMPDEST POP SWAP1 POP PUSH0 DUP3 PUSH1 0x20 ADD DUP3 ADD SWAP1 POP JUMPDEST PUSH1 0x1 ISZERO PUSH2 0x16E2 JUMPI DUP1 DUP1 PUSH1 0x1 SWAP1 SUB SWAP2 POP POP PUSH32 0x3031323334353637383961626364656600000000000000000000000000000000 PUSH1 0xA DUP7 MOD BYTE DUP2 MSTORE8 PUSH1 0xA DUP6 DUP2 PUSH2 0x16D7 JUMPI PUSH2 0x16D6 PUSH2 0x22CD JUMP JUMPDEST JUMPDEST DIV SWAP5 POP PUSH0 DUP6 SUB PUSH2 0x168E JUMPI JUMPDEST DUP2 SWAP4 POP POP POP POP SWAP2 SWAP1 POP JUMP JUMPDEST PUSH2 0x16F7 DUP4 DUP4 PUSH2 0x1919 JUMP JUMPDEST PUSH2 0x1703 PUSH0 DUP5 DUP5 DUP5 PUSH2 0x103A JUMP JUMPDEST POP POP POP JUMP JUMPDEST PUSH0 DUP1 PUSH20 0xFFFFFFFFFFFFFFFFFFFFFFFFFFFFFFFFFFFFFFFF AND DUP4 PUSH20 0xFFFFFFFFFFFFFFFFFFFFFFFFFFFFFFFFFFFFFFFF AND EQ ISZERO DUP1 ISZERO PUSH2 0x17BF JUMPI POP DUP3 PUSH20 0xFFFFFFFFFFFFFFFFFFFFFFFFFFFFFFFFFFFFFFFF AND DUP5 PUSH20 0xFFFFFFFFFFFFFFFFFFFFFFFFFFFFFFFFFFFFFFFF AND EQ DUP1 PUSH2 0x1780 JUMPI POP PUSH2 0x177F DUP5 DUP5 PUSH2 0x920 JUMP JUMPDEST JUMPDEST DUP1 PUSH2 0x17BE JUMPI POP DUP3 PUSH20 0xFFFFFFFFFFFFFFFFFFFFFFFFFFFFFFFFFFFFFFFF AND PUSH2 0x17A6 DUP4 PUSH2 0xB15 JUMP JUMPDEST PUSH20 0xFFFFFFFFFFFFFFFFFFFFFFFFFFFFFFFFFFFFFFFF AND EQ JUMPDEST JUMPDEST SWAP1 POP SWAP4 SWAP3 POP POP POP JUMP JUMPDEST PUSH0 DUP1 PUSH0 SWAP1 POP PUSH27 0x184F03E93FF9F4DAA797ED6E38ED64BF6A1F010000000000000000 DUP4 LT PUSH2 0x1824 JUMPI PUSH27 0x184F03E93FF9F4DAA797ED6E38ED64BF6A1F010000000000000000 DUP4 DUP2 PUSH2 0x181A JUMPI PUSH2 0x1819 PUSH2 0x22CD JUMP JUMPDEST JUMPDEST DIV SWAP3 POP PUSH1 0x40 DUP2 ADD SWAP1 POP JUMPDEST PUSH14 0x4EE2D6D415B85ACEF8100000000 DUP4 LT PUSH2 0x1861 JUMPI PUSH14 0x4EE2D6D415B85ACEF8100000000 DUP4 DUP2 PUSH2 0x1857 JUMPI PUSH2 0x1856 PUSH2 0x22CD JUMP JUMPDEST JUMPDEST DIV SWAP3 POP PUSH1 0x20 DUP2 ADD SWAP1 POP JUMPDEST PUSH7 0x2386F26FC10000 DUP4 LT PUSH2 0x1890 JUMPI PUSH7 0x2386F26FC10000 DUP4 DUP2 PUSH2 0x1886 JUMPI PUSH2 0x1885 PUSH2 0x22CD JUMP JUMPDEST JUMPDEST DIV SWAP3 POP PUSH1 0x10 DUP2 ADD SWAP1 POP JUMPDEST PUSH4 0x5F5E100 DUP4 LT PUSH2 0x18B9 JUMPI PUSH4 0x5F5E100 DUP4 DUP2 PUSH2 0x18AF JUMPI PUSH2 0x18AE PUSH2 0x22CD JUMP JUMPDEST JUMPDEST DIV SWAP3 POP PUSH1 0x8 DUP2 ADD SWAP1 POP JUMPDEST PUSH2 0x2710 DUP4 LT PUSH2 0x18DE JUMPI PUSH2 0x2710 DUP4 DUP2 PUSH2 0x18D4 JUMPI PUSH2 0x18D3 PUSH2 0x22CD JUMP JUMPDEST JUMPDEST DIV SWAP3 POP PUSH1 0x4 DUP2 ADD SWAP1 POP JUMPDEST PUSH1 0x64 DUP4 LT PUSH2 0x1901 JUMPI PUSH1 0x64 DUP4 DUP2 PUSH2 0x18F7 JUMPI PUSH2 0x18F6 PUSH2 0x22CD JUMP JUMPDEST JUMPDEST DIV SWAP3 POP PUSH1 0x2 DUP2 ADD SWAP1 POP JUMPDEST PUSH1 0xA DUP4 LT PUSH2 0x1910 JUMPI PUSH1 0x1 DUP2 ADD SWAP1 POP JUMPDEST DUP1 SWAP2 POP POP SWAP2 SWAP1 POP JUMP JUMPDEST PUSH0 PUSH20 0xFFFFFFFFFFFFFFFFFFFFFFFFFFFFFFFFFFFFFFFF AND DUP3 PUSH20 0xFFFFFFFFFFFFFFFFFFFFFFFFFFFFFFFFFFFFFFFF AND SUB PUSH2 0x1989 JUMPI PUSH0 PUSH1 0x40 MLOAD PUSH32 0x64A0AE9200000000000000000000000000000000000000000000000000000000 DUP2 MSTORE PUSH1 0x4 ADD PUSH2 0x1980 SWAP2 SWAP1 PUSH2 0x1C17 JUMP JUMPDEST PUSH1 0x40 MLOAD DUP1 SWAP2 SUB SWAP1 REVERT JUMPDEST PUSH0 PUSH2 0x1995 DUP4 DUP4 PUSH0 PUSH2 0xCC6 JUMP JUMPDEST SWAP1 POP PUSH0 PUSH20 0xFFFFFFFFFFFFFFFFFFFFFFFFFFFFFFFFFFFFFFFF AND DUP2 PUSH20 0xFFFFFFFFFFFFFFFFFFFFFFFFFFFFFFFFFFFFFFFF AND EQ PUSH2 0x1A07 JUMPI PUSH0 PUSH1 0x40 MLOAD PUSH32 0x73C6AC6E00000000000000000000000000000000000000000000000000000000 DUP2 MSTORE PUSH1 0x4 ADD PUSH2 0x19FE SWAP2 SWAP1 PUSH2 0x1C17 JUMP JUMPDEST PUSH1 0x40 MLOAD DUP1 SWAP2 SUB SWAP1 REVERT JUMPDEST POP POP POP JUMP JUMPDEST PUSH0 PUSH1 0x40 MLOAD SWAP1 POP SWAP1 JUMP JUMPDEST PUSH0 DUP1 REVERT JUMPDEST PUSH0 DUP1 REVERT JUMPDEST PUSH0 PUSH32 0xFFFFFFFF00000000000000000000000000000000000000000000000000000000 DUP3 AND SWAP1 POP SWAP2 SWAP1 POP JUMP JUMPDEST PUSH2 0x1A51 DUP2 PUSH2 0x1A1D JUMP JUMPDEST DUP2 EQ PUSH2 0x1A5B JUMPI PUSH0 DUP1 REVERT JUMPDEST POP JUMP JUMPDEST PUSH0 DUP2 CALLDATALOAD SWAP1 POP PUSH2 0x1A6C DUP2 PUSH2 0x1A48 JUMP JUMPDEST SWAP3 SWAP2 POP POP JUMP JUMPDEST PUSH0 PUSH1 0x20 DUP3 DUP5 SUB SLT ISZERO PUSH2 0x1A87 JUMPI PUSH2 0x1A86 PUSH2 0x1A15 JUMP JUMPDEST JUMPDEST PUSH0 PUSH2 0x1A94 DUP5 DUP3 DUP6 ADD PUSH2 0x1A5E JUMP JUMPDEST SWAP2 POP POP SWAP3 SWAP2 POP POP JUMP JUMPDEST PUSH0 DUP2 ISZERO ISZERO SWAP1 POP SWAP2 SWAP1 POP JUMP JUMPDEST PUSH2 0x1AB1 DUP2 PUSH2 0x1A9D JUMP JUMPDEST DUP3 MSTORE POP POP JUMP JUMPDEST PUSH0 PUSH1 0x20 DUP3 ADD SWAP1 POP PUSH2 0x1ACA PUSH0 DUP4 ADD DUP5 PUSH2 0x1AA8 JUMP JUMPDEST SWAP3 SWAP2 POP POP JUMP JUMPDEST PUSH0 DUP2 MLOAD SWAP1 POP SWAP2 SWAP1 POP JUMP JUMPDEST PUSH0 DUP3 DUP3 MSTORE PUSH1 0x20 DUP3 ADD SWAP1 POP SWAP3 SWAP2 POP POP JUMP JUMPDEST PUSH0 JUMPDEST DUP4 DUP2 LT ISZERO PUSH2 0x1B07 JUMPI DUP1 DUP3 ADD MLOAD DUP2 DUP5 ADD MSTORE PUSH1 0x20 DUP2 ADD SWAP1 POP PUSH2 0x1AEC JUMP JUMPDEST PUSH0 DUP5 DUP5 ADD MSTORE POP POP POP POP JUMP JUMPDEST PUSH0 PUSH1 0x1F NOT PUSH1 0x1F DUP4 ADD AND SWAP1 POP SWAP2 SWAP1 POP JUMP JUMPDEST PUSH0 PUSH2 0x1B2C DUP3 PUSH2 0x1AD0 JUMP JUMPDEST PUSH2 0x1B36 DUP2 DUP6 PUSH2 0x1ADA JUMP JUMPDEST SWAP4 POP PUSH2 0x1B46 DUP2 DUP6 PUSH1 0x20 DUP7 ADD PUSH2 0x1AEA JUMP JUMPDEST PUSH2 0x1B4F DUP2 PUSH2 0x1B12 JUMP JUMPDEST DUP5 ADD SWAP2 POP POP SWAP3 SWAP2 POP POP JUMP JUMPDEST PUSH0 PUSH1 0x20 DUP3 ADD SWAP1 POP DUP2 DUP2 SUB PUSH0 DUP4 ADD MSTORE PUSH2 0x1B72 DUP2 DUP5 PUSH2 0x1B22 JUMP JUMPDEST SWAP1 POP SWAP3 SWAP2 POP POP JUMP JUMPDEST PUSH0 DUP2 SWAP1 POP SWAP2 SWAP1 POP JUMP JUMPDEST PUSH2 0x1B8C DUP2 PUSH2 0x1B7A JUMP JUMPDEST DUP2 EQ PUSH2 0x1B96 JUMPI PUSH0 DUP1 REVERT JUMPDEST POP JUMP JUMPDEST PUSH0 DUP2 CALLDATALOAD SWAP1 POP PUSH2 0x1BA7 DUP2 PUSH2 0x1B83 JUMP JUMPDEST SWAP3 SWAP2 POP POP JUMP JUMPDEST PUSH0 PUSH1 0x20 DUP3 DUP5 SUB SLT ISZERO PUSH2 0x1BC2 JUMPI PUSH2 0x1BC1 PUSH2 0x1A15 JUMP JUMPDEST JUMPDEST PUSH0 PUSH2 0x1BCF DUP5 DUP3 DUP6 ADD PUSH2 0x1B99 JUMP JUMPDEST SWAP2 POP POP SWAP3 SWAP2 POP POP JUMP JUMPDEST PUSH0 PUSH20 0xFFFFFFFFFFFFFFFFFFFFFFFFFFFFFFFFFFFFFFFF DUP3 AND SWAP1 POP SWAP2 SWAP1 POP JUMP JUMPDEST PUSH0 PUSH2 0x1C01 DUP3 PUSH2 0x1BD8 JUMP JUMPDEST SWAP1 POP SWAP2 SWAP1 POP JUMP JUMPDEST PUSH2 0x1C11 DUP2 PUSH2 0x1BF7 JUMP JUMPDEST DUP3 MSTORE POP POP JUMP JUMPDEST PUSH0 PUSH1 0x20 DUP3 ADD SWAP1 POP PUSH2 0x1C2A PUSH0 DUP4 ADD DUP5 PUSH2 0x1C08 JUMP JUMPDEST SWAP3 SWAP2 POP POP JUMP JUMPDEST PUSH2 0x1C39 DUP2 PUSH2 0x1BF7 JUMP JUMPDEST DUP2 EQ PUSH2 0x1C43 JUMPI PUSH0 DUP1 REVERT JUMPDEST POP JUMP JUMPDEST PUSH0 DUP2 CALLDATALOAD SWAP1 POP PUSH2 0x1C54 DUP2 PUSH2 0x1C30 JUMP JUMPDEST SWAP3 SWAP2 POP POP JUMP JUMPDEST PUSH0 DUP1 PUSH1 0x40 DUP4 DUP6 SUB SLT ISZERO PUSH2 0x1C70 JUMPI PUSH2 0x1C6F PUSH2 0x1A15 JUMP JUMPDEST JUMPDEST PUSH0 PUSH2 0x1C7D DUP6 DUP3 DUP7 ADD PUSH2 0x1C46 JUMP JUMPDEST SWAP3 POP POP PUSH1 0x20 PUSH2 0x1C8E DUP6 DUP3 DUP7 ADD PUSH2 0x1B99 JUMP JUMPDEST SWAP2 POP POP SWAP3 POP SWAP3 SWAP1 POP JUMP JUMPDEST PUSH0 DUP1 REVERT JUMPDEST PUSH0 DUP1 REVERT JUMPDEST PUSH32 0x4E487B7100000000000000000000000000000000000000000000000000000000 PUSH0 MSTORE PUSH1 0x41 PUSH1 0x4 MSTORE PUSH1 0x24 PUSH0 REVERT JUMPDEST PUSH2 0x1CD6 DUP3 PUSH2 0x1B12 JUMP JUMPDEST DUP2 ADD DUP2 DUP2 LT PUSH8 0xFFFFFFFFFFFFFFFF DUP3 GT OR ISZERO PUSH2 0x1CF5 JUMPI PUSH2 0x1CF4 PUSH2 0x1CA0 JUMP JUMPDEST JUMPDEST DUP1 PUSH1 0x40 MSTORE POP POP POP JUMP JUMPDEST PUSH0 PUSH2 0x1D07 PUSH2 0x1A0C JUMP JUMPDEST SWAP1 POP PUSH2 0x1D13 DUP3 DUP3 PUSH2 0x1CCD JUMP JUMPDEST SWAP2 SWAP1 POP JUMP JUMPDEST PUSH0 PUSH8 0xFFFFFFFFFFFFFFFF DUP3 GT ISZERO PUSH2 0x1D32 JUMPI PUSH2 0x1D31 PUSH2 0x1CA0 JUMP JUMPDEST JUMPDEST PUSH2 0x1D3B DUP3 PUSH2 0x1B12 JUMP JUMPDEST SWAP1 POP PUSH1 0x20 DUP2 ADD SWAP1 POP SWAP2 SWAP1 POP JUMP JUMPDEST DUP3 DUP2 DUP4 CALLDATACOPY PUSH0 DUP4 DUP4 ADD MSTORE POP POP POP JUMP JUMPDEST PUSH0 PUSH2 0x1D68 PUSH2 0x1D63 DUP5 PUSH2 0x1D18 JUMP JUMPDEST PUSH2 0x1CFE JUMP JUMPDEST SWAP1 POP DUP3 DUP2 MSTORE PUSH1 0x20 DUP2 ADD DUP5 DUP5 DUP5 ADD GT ISZERO PUSH2 0x1D84 JUMPI PUSH2 0x1D83 PUSH2 0x1C9C JUMP JUMPDEST JUMPDEST PUSH2 0x1D8F DUP5 DUP3 DUP6 PUSH2 0x1D48 JUMP JUMPDEST POP SWAP4 SWAP3 POP POP POP JUMP JUMPDEST PUSH0 DUP3 PUSH1 0x1F DUP4 ADD SLT PUSH2 0x1DAB JUMPI PUSH2 0x1DAA PUSH2 0x1C98 JUMP JUMPDEST JUMPDEST DUP2 CALLDATALOAD PUSH2 0x1DBB DUP5 DUP3 PUSH1 0x20 DUP7 ADD PUSH2 0x1D56 JUMP JUMPDEST SWAP2 POP POP SWAP3 SWAP2 POP POP JUMP JUMPDEST PUSH0 PUSH1 0x20 DUP3 DUP5 SUB SLT ISZERO PUSH2 0x1DD9 JUMPI PUSH2 0x1DD8 PUSH2 0x1A15 JUMP JUMPDEST JUMPDEST PUSH0 DUP3 ADD CALLDATALOAD PUSH8 0xFFFFFFFFFFFFFFFF DUP2 GT ISZERO PUSH2 0x1DF6 JUMPI PUSH2 0x1DF5 PUSH2 0x1A19 JUMP JUMPDEST JUMPDEST PUSH2 0x1E02 DUP5 DUP3 DUP6 ADD PUSH2 0x1D97 JUMP JUMPDEST SWAP2 POP POP SWAP3 SWAP2 POP POP JUMP JUMPDEST PUSH0 DUP1 PUSH0 PUSH1 0x60 DUP5 DUP7 SUB SLT ISZERO PUSH2 0x1E22 JUMPI PUSH2 0x1E21 PUSH2 0x1A15 JUMP JUMPDEST JUMPDEST PUSH0 PUSH2 0x1E2F DUP7 DUP3 DUP8 ADD PUSH2 0x1C46 JUMP JUMPDEST SWAP4 POP POP PUSH1 0x20 PUSH2 0x1E40 DUP7 DUP3 DUP8 ADD PUSH2 0x1C46 JUMP JUMPDEST SWAP3 POP POP PUSH1 0x40 PUSH2 0x1E51 DUP7 DUP3 DUP8 ADD PUSH2 0x1B99 JUMP JUMPDEST SWAP2 POP POP SWAP3 POP SWAP3 POP SWAP3 JUMP JUMPDEST PUSH0 PUSH1 0x20 DUP3 DUP5 SUB SLT ISZERO PUSH2 0x1E70 JUMPI PUSH2 0x1E6F PUSH2 0x1A15 JUMP JUMPDEST JUMPDEST PUSH0 PUSH2 0x1E7D DUP5 DUP3 DUP6 ADD PUSH2 0x1C46 JUMP JUMPDEST SWAP2 POP POP SWAP3 SWAP2 POP POP JUMP JUMPDEST PUSH2 0x1E8F DUP2 PUSH2 0x1B7A JUMP JUMPDEST DUP3 MSTORE POP POP JUMP JUMPDEST PUSH0 PUSH1 0x20 DUP3 ADD SWAP1 POP PUSH2 0x1EA8 PUSH0 DUP4 ADD DUP5 PUSH2 0x1E86 JUMP JUMPDEST SWAP3 SWAP2 POP POP JUMP JUMPDEST PUSH2 0x1EB7 DUP2 PUSH2 0x1A9D JUMP JUMPDEST DUP2 EQ PUSH2 0x1EC1 JUMPI PUSH0 DUP1 REVERT JUMPDEST POP JUMP JUMPDEST PUSH0 DUP2 CALLDATALOAD SWAP1 POP PUSH2 0x1ED2 DUP2 PUSH2 0x1EAE JUMP JUMPDEST SWAP3 SWAP2 POP POP JUMP JUMPDEST PUSH0 DUP1 PUSH1 0x40 DUP4 DUP6 SUB SLT ISZERO PUSH2 0x1EEE JUMPI PUSH2 0x1EED PUSH2 0x1A15 JUMP JUMPDEST JUMPDEST PUSH0 PUSH2 0x1EFB DUP6 DUP3 DUP7 ADD PUSH2 0x1C46 JUMP JUMPDEST SWAP3 POP POP PUSH1 0x20 PUSH2 0x1F0C DUP6 DUP3 DUP7 ADD PUSH2 0x1EC4 JUMP JUMPDEST SWAP2 POP POP SWAP3 POP SWAP3 SWAP1 POP JUMP JUMPDEST PUSH0 PUSH8 0xFFFFFFFFFFFFFFFF DUP3 GT ISZERO PUSH2 0x1F30 JUMPI PUSH2 0x1F2F PUSH2 0x1CA0 JUMP JUMPDEST JUMPDEST PUSH2 0x1F39 DUP3 PUSH2 0x1B12 JUMP JUMPDEST SWAP1 POP PUSH1 0x20 DUP2 ADD SWAP1 POP SWAP2 SWAP1 POP JUMP JUMPDEST PUSH0 PUSH2 0x1F58 PUSH2 0x1F53 DUP5 PUSH2 0x1F16 JUMP JUMPDEST PUSH2 0x1CFE JUMP JUMPDEST SWAP1 POP DUP3 DUP2 MSTORE PUSH1 0x20 DUP2 ADD DUP5 DUP5 DUP5 ADD GT ISZERO PUSH2 0x1F74 JUMPI PUSH2 0x1F73 PUSH2 0x1C9C JUMP JUMPDEST JUMPDEST PUSH2 0x1F7F DUP5 DUP3 DUP6 PUSH2 0x1D48 JUMP JUMPDEST POP SWAP4 SWAP3 POP POP POP JUMP JUMPDEST PUSH0 DUP3 PUSH1 0x1F DUP4 ADD SLT PUSH2 0x1F9B JUMPI PUSH2 0x1F9A PUSH2 0x1C98 JUMP JUMPDEST JUMPDEST DUP2 CALLDATALOAD PUSH2 0x1FAB DUP5 DUP3 PUSH1 0x20 DUP7 ADD PUSH2 0x1F46 JUMP JUMPDEST SWAP2 POP POP SWAP3 SWAP2 POP POP JUMP JUMPDEST PUSH0 DUP1 PUSH0 DUP1 PUSH1 0x80 DUP6 DUP8 SUB SLT ISZERO PUSH2 0x1FCC JUMPI PUSH2 0x1FCB PUSH2 0x1A15 JUMP JUMPDEST JUMPDEST PUSH0 PUSH2 0x1FD9 DUP8 DUP3 DUP9 ADD PUSH2 0x1C46 JUMP JUMPDEST SWAP5 POP POP PUSH1 0x20 PUSH2 0x1FEA DUP8 DUP3 DUP9 ADD PUSH2 0x1C46 JUMP JUMPDEST SWAP4 POP POP PUSH1 0x40 PUSH2 0x1FFB DUP8 DUP3 DUP9 ADD PUSH2 0x1B99 JUMP JUMPDEST SWAP3 POP POP PUSH1 0x60 DUP6 ADD CALLDATALOAD PUSH8 0xFFFFFFFFFFFFFFFF DUP2 GT ISZERO PUSH2 0x201C JUMPI PUSH2 0x201B PUSH2 0x1A19 JUMP JUMPDEST JUMPDEST PUSH2 0x2028 DUP8 DUP3 DUP9 ADD PUSH2 0x1F87 JUMP JUMPDEST SWAP2 POP POP SWAP3 SWAP6 SWAP2 SWAP5 POP SWAP3 POP JUMP JUMPDEST PUSH0 DUP1 PUSH1 0x40 DUP4 DUP6 SUB SLT ISZERO PUSH2 0x204A JUMPI PUSH2 0x2049 PUSH2 0x1A15 JUMP JUMPDEST JUMPDEST PUSH0 PUSH2 0x2057 DUP6 DUP3 DUP7 ADD PUSH2 0x1C46 JUMP JUMPDEST SWAP3 POP POP PUSH1 0x20 PUSH2 0x2068 DUP6 DUP3 DUP7 ADD PUSH2 0x1C46 JUMP JUMPDEST SWAP2 POP POP SWAP3 POP SWAP3 SWAP1 POP JUMP JUMPDEST PUSH32 0x4E487B7100000000000000000000000000000000000000000000000000000000 PUSH0 MSTORE PUSH1 0x22 PUSH1 0x4 MSTORE PUSH1 0x24 PUSH0 REVERT JUMPDEST PUSH0 PUSH1 0x2 DUP3 DIV SWAP1 POP PUSH1 0x1 DUP3 AND DUP1 PUSH2 0x20B6 JUMPI PUSH1 0x7F DUP3 AND SWAP2 POP JUMPDEST PUSH1 0x20 DUP3 LT DUP2 SUB PUSH2 0x20C9 JUMPI PUSH2 0x20C8 PUSH2 0x2072 JUMP JUMPDEST JUMPDEST POP SWAP2 SWAP1 POP JUMP JUMPDEST PUSH0 DUP2 SWAP1 POP SWAP3 SWAP2 POP POP JUMP JUMPDEST PUSH32 0x7B226E616D65223A20224C434D204F4E2D434841494E4544222C202264657363 PUSH0 DUP3 ADD MSTORE PUSH32 0x72697074696F6E223A2022412073696D706C6520535647206261736564206F6E PUSH1 0x20 DUP3 ADD MSTORE PUSH32 0x2D636861696E204E4654222C2022696D616765223A2200000000000000000000 PUSH1 0x40 DUP3 ADD MSTORE POP JUMP JUMPDEST PUSH0 PUSH2 0x2159 PUSH1 0x56 DUP4 PUSH2 0x20CF JUMP JUMPDEST SWAP2 POP PUSH2 0x2164 DUP3 PUSH2 0x20D9 JUMP JUMPDEST PUSH1 0x56 DUP3 ADD SWAP1 POP SWAP2 SWAP1 POP JUMP JUMPDEST PUSH0 PUSH2 0x2179 DUP3 PUSH2 0x1AD0 JUMP JUMPDEST PUSH2 0x2183 DUP2 DUP6 PUSH2 0x20CF JUMP JUMPDEST SWAP4 POP PUSH2 0x2193 DUP2 DUP6 PUSH1 0x20 DUP7 ADD PUSH2 0x1AEA JUMP JUMPDEST DUP1 DUP5 ADD SWAP2 POP POP SWAP3 SWAP2 POP POP JUMP JUMPDEST PUSH32 0x227D000000000000000000000000000000000000000000000000000000000000 PUSH0 DUP3 ADD MSTORE POP JUMP JUMPDEST PUSH0 PUSH2 0x21D3 PUSH1 0x2 DUP4 PUSH2 0x20CF JUMP JUMPDEST SWAP2 POP PUSH2 0x21DE DUP3 PUSH2 0x219F JUMP JUMPDEST PUSH1 0x2 DUP3 ADD SWAP1 POP SWAP2 SWAP1 POP JUMP JUMPDEST PUSH0 PUSH2 0x21F3 DUP3 PUSH2 0x214D JUMP JUMPDEST SWAP2 POP PUSH2 0x21FF DUP3 DUP5 PUSH2 0x216F JUMP JUMPDEST SWAP2 POP PUSH2 0x220A DUP3 PUSH2 0x21C7 JUMP JUMPDEST SWAP2 POP DUP2 SWAP1 POP SWAP3 SWAP2 POP POP JUMP JUMPDEST PUSH0 PUSH2 0x2220 DUP3 DUP6 PUSH2 0x216F JUMP JUMPDEST SWAP2 POP PUSH2 0x222C DUP3 DUP5 PUSH2 0x216F JUMP JUMPDEST SWAP2 POP DUP2 SWAP1 POP SWAP4 SWAP3 POP POP POP JUMP JUMPDEST PUSH0 PUSH1 0x60 DUP3 ADD SWAP1 POP PUSH2 0x224B PUSH0 DUP4 ADD DUP7 PUSH2 0x1C08 JUMP JUMPDEST PUSH2 0x2258 PUSH1 0x20 DUP4 ADD DUP6 PUSH2 0x1E86 JUMP JUMPDEST PUSH2 0x2265 PUSH1 0x40 DUP4 ADD DUP5 PUSH2 0x1C08 JUMP JUMPDEST SWAP5 SWAP4 POP POP POP POP JUMP JUMPDEST PUSH32 0x4E487B7100000000000000000000000000000000000000000000000000000000 PUSH0 MSTORE PUSH1 0x11 PUSH1 0x4 MSTORE PUSH1 0x24 PUSH0 REVERT JUMPDEST PUSH0 PUSH2 0x22A4 DUP3 PUSH2 0x1B7A JUMP JUMPDEST SWAP2 POP PUSH2 0x22AF DUP4 PUSH2 0x1B7A JUMP JUMPDEST SWAP3 POP DUP3 DUP3 ADD SWAP1 POP DUP1 DUP3 GT ISZERO PUSH2 0x22C7 JUMPI PUSH2 0x22C6 PUSH2 0x226D JUMP JUMPDEST JUMPDEST SWAP3 SWAP2 POP POP JUMP JUMPDEST PUSH32 0x4E487B7100000000000000000000000000000000000000000000000000000000 PUSH0 MSTORE PUSH1 0x12 PUSH1 0x4 MSTORE PUSH1 0x24 PUSH0 REVERT JUMPDEST PUSH0 PUSH2 0x2304 DUP3 PUSH2 0x1B7A JUMP JUMPDEST SWAP2 POP PUSH2 0x230F DUP4 PUSH2 0x1B7A JUMP JUMPDEST SWAP3 POP DUP3 PUSH2 0x231F JUMPI PUSH2 0x231E PUSH2 0x22CD JUMP JUMPDEST JUMPDEST DUP3 DUP3 DIV SWAP1 POP SWAP3 SWAP2 POP POP JUMP JUMPDEST PUSH0 PUSH2 0x2334 DUP3 PUSH2 0x1B7A JUMP JUMPDEST SWAP2 POP PUSH2 0x233F DUP4 PUSH2 0x1B7A JUMP JUMPDEST SWAP3 POP DUP3 DUP3 MUL PUSH2 0x234D DUP2 PUSH2 0x1B7A JUMP JUMPDEST SWAP2 POP DUP3 DUP3 DIV DUP5 EQ DUP4 ISZERO OR PUSH2 0x2364 JUMPI PUSH2 0x2363 PUSH2 0x226D JUMP JUMPDEST JUMPDEST POP SWAP3 SWAP2 POP POP JUMP JUMPDEST PUSH0 DUP2 MLOAD SWAP1 POP SWAP2 SWAP1 POP JUMP JUMPDEST PUSH0 DUP3 DUP3 MSTORE PUSH1 0x20 DUP3 ADD SWAP1 POP SWAP3 SWAP2 POP POP JUMP JUMPDEST PUSH0 PUSH2 0x238F DUP3 PUSH2 0x236B JUMP JUMPDEST PUSH2 0x2399 DUP2 DUP6 PUSH2 0x2375 JUMP JUMPDEST SWAP4 POP PUSH2 0x23A9 DUP2 DUP6 PUSH1 0x20 DUP7 ADD PUSH2 0x1AEA JUMP JUMPDEST PUSH2 0x23B2 DUP2 PUSH2 0x1B12 JUMP JUMPDEST DUP5 ADD SWAP2 POP POP SWAP3 SWAP2 POP POP JUMP JUMPDEST PUSH0 PUSH1 0x80 DUP3 ADD SWAP1 POP PUSH2 0x23D0 PUSH0 DUP4 ADD DUP8 PUSH2 0x1C08 JUMP JUMPDEST PUSH2 0x23DD PUSH1 0x20 DUP4 ADD DUP7 PUSH2 0x1C08 JUMP JUMPDEST PUSH2 0x23EA PUSH1 0x40 DUP4 ADD DUP6 PUSH2 0x1E86 JUMP JUMPDEST DUP2 DUP2 SUB PUSH1 0x60 DUP4 ADD MSTORE PUSH2 0x23FC DUP2 DUP5 PUSH2 0x2385 JUMP JUMPDEST SWAP1 POP SWAP6 SWAP5 POP POP POP POP POP JUMP JUMPDEST PUSH0 DUP2 MLOAD SWAP1 POP PUSH2 0x2415 DUP2 PUSH2 0x1A48 JUMP JUMPDEST SWAP3 SWAP2 POP POP JUMP JUMPDEST PUSH0 PUSH1 0x20 DUP3 DUP5 SUB SLT ISZERO PUSH2 0x2430 JUMPI PUSH2 0x242F PUSH2 0x1A15 JUMP JUMPDEST JUMPDEST PUSH0 PUSH2 0x243D DUP5 DUP3 DUP6 ADD PUSH2 0x2407 JUMP JUMPDEST SWAP2 POP POP SWAP3 SWAP2 POP POP JUMP JUMPDEST PUSH0 DUP2 SWAP1 POP DUP2 PUSH0 MSTORE PUSH1 0x20 PUSH0 KECCAK256 SWAP1 POP SWAP2 SWAP1 POP JUMP JUMPDEST PUSH0 PUSH1 0x20 PUSH1 0x1F DUP4 ADD DIV SWAP1 POP SWAP2 SWAP1 POP JUMP JUMPDEST PUSH0 DUP3 DUP3 SHL SWAP1 POP SWAP3 SWAP2 POP POP JUMP JUMPDEST PUSH0 PUSH1 0x8 DUP4 MUL PUSH2 0x24A2 PUSH32 0xFFFFFFFFFFFFFFFFFFFFFFFFFFFFFFFFFFFFFFFFFFFFFFFFFFFFFFFFFFFFFFFF DUP3 PUSH2 0x2467 JUMP JUMPDEST PUSH2 0x24AC DUP7 DUP4 PUSH2 0x2467 JUMP JUMPDEST SWAP6 POP DUP1 NOT DUP5 AND SWAP4 POP DUP1 DUP7 AND DUP5 OR SWAP3 POP POP POP SWAP4 SWAP3 POP POP POP JUMP JUMPDEST PUSH0 DUP2 SWAP1 POP SWAP2 SWAP1 POP JUMP JUMPDEST PUSH0 PUSH2 0x24E7 PUSH2 0x24E2 PUSH2 0x24DD DUP5 PUSH2 0x1B7A JUMP JUMPDEST PUSH2 0x24C4 JUMP JUMPDEST PUSH2 0x1B7A JUMP JUMPDEST SWAP1 POP SWAP2 SWAP1 POP JUMP JUMPDEST PUSH0 DUP2 SWAP1 POP SWAP2 SWAP1 POP JUMP JUMPDEST PUSH2 0x2500 DUP4 PUSH2 0x24CD JUMP JUMPDEST PUSH2 0x2514 PUSH2 0x250C DUP3 PUSH2 0x24EE JUMP JUMPDEST DUP5 DUP5 SLOAD PUSH2 0x2473 JUMP JUMPDEST DUP3 SSTORE POP POP POP POP JUMP JUMPDEST PUSH0 SWAP1 JUMP JUMPDEST PUSH2 0x2528 PUSH2 0x251C JUMP JUMPDEST PUSH2 0x2533 DUP2 DUP5 DUP5 PUSH2 0x24F7 JUMP JUMPDEST POP POP POP JUMP JUMPDEST JUMPDEST DUP2 DUP2 LT ISZERO PUSH2 0x2556 JUMPI PUSH2 0x254B PUSH0 DUP3 PUSH2 0x2520 JUMP JUMPDEST PUSH1 0x1 DUP2 ADD SWAP1 POP PUSH2 0x2539 JUMP JUMPDEST POP POP JUMP JUMPDEST PUSH1 0x1F DUP3 GT ISZERO PUSH2 0x259B JUMPI PUSH2 0x256C DUP2 PUSH2 0x2446 JUMP JUMPDEST PUSH2 0x2575 DUP5 PUSH2 0x2458 JUMP JUMPDEST DUP2 ADD PUSH1 0x20 DUP6 LT ISZERO PUSH2 0x2584 JUMPI DUP2 SWAP1 POP JUMPDEST PUSH2 0x2598 PUSH2 0x2590 DUP6 PUSH2 0x2458 JUMP JUMPDEST DUP4 ADD DUP3 PUSH2 0x2538 JUMP JUMPDEST POP POP JUMPDEST POP POP POP JUMP JUMPDEST PUSH0 DUP3 DUP3 SHR SWAP1 POP SWAP3 SWAP2 POP POP JUMP JUMPDEST PUSH0 PUSH2 0x25BB PUSH0 NOT DUP5 PUSH1 0x8 MUL PUSH2 0x25A0 JUMP JUMPDEST NOT DUP1 DUP4 AND SWAP2 POP POP SWAP3 SWAP2 POP POP JUMP JUMPDEST PUSH0 PUSH2 0x25D3 DUP4 DUP4 PUSH2 0x25AC JUMP JUMPDEST SWAP2 POP DUP3 PUSH1 0x2 MUL DUP3 OR SWAP1 POP SWAP3 SWAP2 POP POP JUMP JUMPDEST PUSH2 0x25EC DUP3 PUSH2 0x1AD0 JUMP JUMPDEST PUSH8 0xFFFFFFFFFFFFFFFF DUP2 GT ISZERO PUSH2 0x2605 JUMPI PUSH2 0x2604 PUSH2 0x1CA0 JUMP JUMPDEST JUMPDEST PUSH2 0x260F DUP3 SLOAD PUSH2 0x209F JUMP JUMPDEST PUSH2 0x261A DUP3 DUP3 DUP6 PUSH2 0x255A JUMP JUMPDEST PUSH0 PUSH1 0x20 SWAP1 POP PUSH1 0x1F DUP4 GT PUSH1 0x1 DUP2 EQ PUSH2 0x264B JUMPI PUSH0 DUP5 ISZERO PUSH2 0x2639 JUMPI DUP3 DUP8 ADD MLOAD SWAP1 POP JUMPDEST PUSH2 0x2643 DUP6 DUP3 PUSH2 0x25C8 JUMP JUMPDEST DUP7 SSTORE POP PUSH2 0x26AA JUMP JUMPDEST PUSH1 0x1F NOT DUP5 AND PUSH2 0x2659 DUP7 PUSH2 0x2446 JUMP JUMPDEST PUSH0 JUMPDEST DUP3 DUP2 LT ISZERO PUSH2 0x2680 JUMPI DUP5 DUP10 ADD MLOAD DUP3 SSTORE PUSH1 0x1 DUP3 ADD SWAP2 POP PUSH1 0x20 DUP6 ADD SWAP5 POP PUSH1 0x20 DUP2 ADD SWAP1 POP PUSH2 0x265B JUMP JUMPDEST DUP7 DUP4 LT ISZERO PUSH2 0x269D JUMPI DUP5 DUP10 ADD MLOAD PUSH2 0x2699 PUSH1 0x1F DUP10 AND DUP3 PUSH2 0x25AC JUMP JUMPDEST DUP4 SSTORE POP JUMPDEST PUSH1 0x1 PUSH1 0x2 DUP9 MUL ADD DUP9 SSTORE POP POP POP JUMPDEST POP POP POP POP POP POP JUMP JUMPDEST PUSH0 PUSH1 0x40 DUP3 ADD SWAP1 POP PUSH2 0x26C5 PUSH0 DUP4 ADD DUP6 PUSH2 0x1C08 JUMP JUMPDEST PUSH2 0x26D2 PUSH1 0x20 DUP4 ADD DUP5 PUSH2 0x1E86 JUMP JUMPDEST SWAP4 SWAP3 POP POP POP JUMP INVALID COINBASE TIMESTAMP NUMBER PREVRANDAO GASLIMIT CHAINID SELFBALANCE BASEFEE BLOBHASH BLOBBASEFEE 0x4B 0x4C 0x4D 0x4E 0x4F POP MLOAD MSTORE MSTORE8 SLOAD SSTORE JUMP JUMPI PC MSIZE GAS PUSH2 0x6263 PUSH5 0x6566676869 PUSH11 0x6B6C6D6E6F707172737475 PUSH23 0x7778797A303132333435363738392B2FA2646970667358 0x22 SLT KECCAK256 SWAP2 0xD8 0xDE AND MSTORE8 0xC8 0x2D 0xCE NOT MOD 0xCE GASLIMIT PUSH7 0x34D34EBADAAF6E PC 0xFB 0xB0 SLT SELFBALANCE 0xD2 0xA6 0x23 SSTORE PUSH15 0x3B9464736F6C634300081800330000 "
				},
				"gasEstimates": {
					"creation": {
						"codeDepositCost": "2012600",
						"executionCost": "infinite",
						"totalCost": "infinite"
					},
					"external": {
						"approve(address,uint256)": "infinite",
						"balanceOf(address)": "infinite",
						"getApproved(uint256)": "infinite",
						"isApprovedForAll(address,address)": "infinite",
						"mint(string)": "infinite",
						"name()": "infinite",
						"ownerOf(uint256)": "infinite",
						"safeTransferFrom(address,address,uint256)": "infinite",
						"safeTransferFrom(address,address,uint256,bytes)": "infinite",
						"setApprovalForAll(address,bool)": "infinite",
						"simplifiedFormatTokenURI(string)": "infinite",
						"supportsInterface(bytes4)": "881",
						"symbol()": "infinite",
						"tokenIdToLevels(uint256)": "infinite",
						"tokenURI(uint256)": "infinite",
						"transferFrom(address,address,uint256)": "infinite"
					}
				},
				"methodIdentifiers": {
					"approve(address,uint256)": "095ea7b3",
					"balanceOf(address)": "70a08231",
					"getApproved(uint256)": "081812fc",
					"isApprovedForAll(address,address)": "e985e9c5",
					"mint(string)": "d85d3d27",
					"name()": "06fdde03",
					"ownerOf(uint256)": "6352211e",
					"safeTransferFrom(address,address,uint256)": "42842e0e",
					"safeTransferFrom(address,address,uint256,bytes)": "b88d4fde",
					"setApprovalForAll(address,bool)": "a22cb465",
					"simplifiedFormatTokenURI(string)": "1381b59d",
					"supportsInterface(bytes4)": "01ffc9a7",
					"symbol()": "95d89b41",
					"tokenIdToLevels(uint256)": "c6a4342f",
					"tokenURI(uint256)": "c87b56dd",
					"transferFrom(address,address,uint256)": "23b872dd"
				}
			},
			"storageLayout": {
				"storage": [
					{
						"astId": 201,
						"contract": "cas/NFT.sol:OnChainNFT",
						"label": "_name",
						"offset": 0,
						"slot": "0",
						"type": "t_string_storage"
					},
					{
						"astId": 203,
						"contract": "cas/NFT.sol:OnChainNFT",
						"label": "_symbol",
						"offset": 0,
						"slot": "1",
						"type": "t_string_storage"
					},
					{
						"astId": 207,
						"contract": "cas/NFT.sol:OnChainNFT",
						"label": "_owners",
						"offset": 0,
						"slot": "2",
						"type": "t_mapping(t_uint256,t_address)"
					},
					{
						"astId": 211,
						"contract": "cas/NFT.sol:OnChainNFT",
						"label": "_balances",
						"offset": 0,
						"slot": "3",
						"type": "t_mapping(t_address,t_uint256)"
					},
					{
						"astId": 215,
						"contract": "cas/NFT.sol:OnChainNFT",
						"label": "_tokenApprovals",
						"offset": 0,
						"slot": "4",
						"type": "t_mapping(t_uint256,t_address)"
					},
					{
						"astId": 221,
						"contract": "cas/NFT.sol:OnChainNFT",
						"label": "_operatorApprovals",
						"offset": 0,
						"slot": "5",
						"type": "t_mapping(t_address,t_mapping(t_address,t_bool))"
					},
					{
						"astId": 1340,
						"contract": "cas/NFT.sol:OnChainNFT",
						"label": "_tokenURIs",
						"offset": 0,
						"slot": "6",
						"type": "t_mapping(t_uint256,t_string_storage)"
					},
					{
						"astId": 3085,
						"contract": "cas/NFT.sol:OnChainNFT",
						"label": "_tokenIds",
						"offset": 0,
						"slot": "7",
						"type": "t_struct(Counter)1549_storage"
					},
					{
						"astId": 3089,
						"contract": "cas/NFT.sol:OnChainNFT",
						"label": "tokenIdToLevels",
						"offset": 0,
						"slot": "8",
						"type": "t_mapping(t_uint256,t_uint256)"
					}
				],
				"types": {
					"t_address": {
						"encoding": "inplace",
						"label": "address",
						"numberOfBytes": "20"
					},
					"t_bool": {
						"encoding": "inplace",
						"label": "bool",
						"numberOfBytes": "1"
					},
					"t_mapping(t_address,t_bool)": {
						"encoding": "mapping",
						"key": "t_address",
						"label": "mapping(address => bool)",
						"numberOfBytes": "32",
						"value": "t_bool"
					},
					"t_mapping(t_address,t_mapping(t_address,t_bool))": {
						"encoding": "mapping",
						"key": "t_address",
						"label": "mapping(address => mapping(address => bool))",
						"numberOfBytes": "32",
						"value": "t_mapping(t_address,t_bool)"
					},
					"t_mapping(t_address,t_uint256)": {
						"encoding": "mapping",
						"key": "t_address",
						"label": "mapping(address => uint256)",
						"numberOfBytes": "32",
						"value": "t_uint256"
					},
					"t_mapping(t_uint256,t_address)": {
						"encoding": "mapping",
						"key": "t_uint256",
						"label": "mapping(uint256 => address)",
						"numberOfBytes": "32",
						"value": "t_address"
					},
					"t_mapping(t_uint256,t_string_storage)": {
						"encoding": "mapping",
						"key": "t_uint256",
						"label": "mapping(uint256 => string)",
						"numberOfBytes": "32",
						"value": "t_string_storage"
					},
					"t_mapping(t_uint256,t_uint256)": {
						"encoding": "mapping",
						"key": "t_uint256",
						"label": "mapping(uint256 => uint256)",
						"numberOfBytes": "32",
						"value": "t_uint256"
					},
					"t_string_storage": {
						"encoding": "bytes",
						"label": "string",
						"numberOfBytes": "32"
					},
					"t_struct(Counter)1549_storage": {
						"encoding": "inplace",
						"label": "struct Counters.Counter",
						"members": [
							{
								"astId": 1548,
								"contract": "cas/NFT.sol:OnChainNFT",
								"label": "_value",
								"offset": 0,
								"slot": "0",
								"type": "t_uint256"
							}
						],
						"numberOfBytes": "32"
					},
					"t_uint256": {
						"encoding": "inplace",
						"label": "uint256",
						"numberOfBytes": "32"
					}
				}
			},
			"userdoc": {
				"kind": "user",
				"methods": {},
				"version": 1
			}
		}
	}
}