{
	"contracts/personal/TodoList.sol": {
		"TodoList": {
			"abi": [
				{
					"inputs": [
						{
							"internalType": "string",
							"name": "_title",
							"type": "string"
						},
						{
							"internalType": "string",
							"name": "_description",
							"type": "string"
						}
					],
					"name": "addTask",
					"outputs": [],
					"stateMutability": "nonpayable",
					"type": "function"
				},
				{
					"inputs": [
						{
							"internalType": "uint256",
							"name": "_index",
							"type": "uint256"
						}
					],
					"name": "deleteTask",
					"outputs": [],
					"stateMutability": "nonpayable",
					"type": "function"
				},
				{
					"inputs": [],
					"name": "getTask",
					"outputs": [
						{
							"components": [
								{
									"internalType": "string",
									"name": "title",
									"type": "string"
								},
								{
									"internalType": "string",
									"name": "description",
									"type": "string"
								},
								{
									"internalType": "bool",
									"name": "isdone",
									"type": "bool"
								}
							],
							"internalType": "struct TodoList.Tasks[]",
							"name": "",
							"type": "tuple[]"
						}
					],
					"stateMutability": "view",
					"type": "function"
				},
				{
					"inputs": [
						{
							"internalType": "uint256",
							"name": "",
							"type": "uint256"
						}
					],
					"name": "taskList",
					"outputs": [
						{
							"internalType": "string",
							"name": "title",
							"type": "string"
						},
						{
							"internalType": "string",
							"name": "description",
							"type": "string"
						},
						{
							"internalType": "bool",
							"name": "isdone",
							"type": "bool"
						}
					],
					"stateMutability": "view",
					"type": "function"
				},
				{
					"inputs": [
						{
							"internalType": "uint256",
							"name": "_index",
							"type": "uint256"
						}
					],
					"name": "toggleTask",
					"outputs": [],
					"stateMutability": "nonpayable",
					"type": "function"
				},
				{
					"inputs": [
						{
							"internalType": "uint256",
							"name": "_index",
							"type": "uint256"
						},
						{
							"internalType": "string",
							"name": "_title",
							"type": "string"
						},
						{
							"internalType": "string",
							"name": "_description",
							"type": "string"
						}
					],
					"name": "updateTask",
					"outputs": [],
					"stateMutability": "nonpayable",
					"type": "function"
				}
			],
			"devdoc": {
				"kind": "dev",
				"methods": {},
				"version": 1
			},
			"evm": {
				"assembly": "    /* \"contracts/personal/TodoList.sol\":57:895  contract TodoList {... */\n  mstore(0x40, 0x80)\n  callvalue\n  dup1\n  iszero\n  tag_1\n  jumpi\n  0x00\n  dup1\n  revert\ntag_1:\n  pop\n  dataSize(sub_0)\n  dup1\n  dataOffset(sub_0)\n  0x00\n  codecopy\n  0x00\n  return\nstop\n\nsub_0: assembly {\n        /* \"contracts/personal/TodoList.sol\":57:895  contract TodoList {... */\n      mstore(0x40, 0x80)\n      callvalue\n      dup1\n      iszero\n      tag_1\n      jumpi\n      0x00\n      dup1\n      revert\n    tag_1:\n      pop\n      jumpi(tag_2, lt(calldatasize, 0x04))\n      shr(0xe0, calldataload(0x00))\n      dup1\n      0x2a1c52a5\n      eq\n      tag_3\n      jumpi\n      dup1\n      0x560f3192\n      eq\n      tag_4\n      jumpi\n      dup1\n      0x613137a4\n      eq\n      tag_5\n      jumpi\n      dup1\n      0xa31662d2\n      eq\n      tag_6\n      jumpi\n      dup1\n      0xb37b1000\n      eq\n      tag_7\n      jumpi\n      dup1\n      0xc72ef41f\n      eq\n      tag_8\n      jumpi\n    tag_2:\n      0x00\n      dup1\n      revert\n        /* \"contracts/personal/TodoList.sol\":178:202  Tasks [] public taskList */\n    tag_3:\n      tag_9\n      0x04\n      dup1\n      calldatasize\n      sub\n      dup2\n      add\n      swap1\n      tag_10\n      swap2\n      swap1\n      tag_11\n      jump\t// in\n    tag_10:\n      tag_12\n      jump\t// in\n    tag_9:\n      mload(0x40)\n      tag_13\n      swap4\n      swap3\n      swap2\n      swap1\n      tag_14\n      jump\t// in\n    tag_13:\n      mload(0x40)\n      dup1\n      swap2\n      sub\n      swap1\n      return\n        /* \"contracts/personal/TodoList.sol\":811:893  function deleteTask(uint _index) external {... */\n    tag_4:\n      tag_15\n      0x04\n      dup1\n      calldatasize\n      sub\n      dup2\n      add\n      swap1\n      tag_16\n      swap2\n      swap1\n      tag_11\n      jump\t// in\n    tag_16:\n      tag_17\n      jump\t// in\n    tag_15:\n      stop\n        /* \"contracts/personal/TodoList.sol\":696:805  function toggleTask(uint _index) external {... */\n    tag_5:\n      tag_18\n      0x04\n      dup1\n      calldatasize\n      sub\n      dup2\n      add\n      swap1\n      tag_19\n      swap2\n      swap1\n      tag_11\n      jump\t// in\n    tag_19:\n      tag_20\n      jump\t// in\n    tag_18:\n      stop\n        /* \"contracts/personal/TodoList.sol\":599:689  function getTask () external view returns (Tasks[] memory){... */\n    tag_6:\n      tag_21\n      tag_22\n      jump\t// in\n    tag_21:\n      mload(0x40)\n      tag_23\n      swap2\n      swap1\n      tag_24\n      jump\t// in\n    tag_23:\n      mload(0x40)\n      dup1\n      swap2\n      sub\n      swap1\n      return\n        /* \"contracts/personal/TodoList.sol\":209:423  function addTask (string memory _title, string memory _description) external {... */\n    tag_7:\n      tag_25\n      0x04\n      dup1\n      calldatasize\n      sub\n      dup2\n      add\n      swap1\n      tag_26\n      swap2\n      swap1\n      tag_27\n      jump\t// in\n    tag_26:\n      tag_28\n      jump\t// in\n    tag_25:\n      stop\n        /* \"contracts/personal/TodoList.sol\":429:593  function updateTask(uint _index,  string memory _title, string memory _description)  external {... */\n    tag_8:\n      tag_29\n      0x04\n      dup1\n      calldatasize\n      sub\n      dup2\n      add\n      swap1\n      tag_30\n      swap2\n      swap1\n      tag_31\n      jump\t// in\n    tag_30:\n      tag_32\n      jump\t// in\n    tag_29:\n      stop\n        /* \"contracts/personal/TodoList.sol\":178:202  Tasks [] public taskList */\n    tag_12:\n      0x00\n      dup2\n      dup2\n      sload\n      dup2\n      lt\n      tag_33\n      jumpi\n      0x00\n      dup1\n      revert\n    tag_33:\n      swap1\n      0x00\n      mstore\n      keccak256(0x00, 0x20)\n      swap1\n      0x03\n      mul\n      add\n      0x00\n      swap2\n      pop\n      swap1\n      pop\n      dup1\n      0x00\n      add\n      dup1\n      sload\n      tag_35\n      swap1\n      tag_36\n      jump\t// in\n    tag_35:\n      dup1\n      0x1f\n      add\n      0x20\n      dup1\n      swap2\n      div\n      mul\n      0x20\n      add\n      mload(0x40)\n      swap1\n      dup2\n      add\n      0x40\n      mstore\n      dup1\n      swap3\n      swap2\n      swap1\n      dup2\n      dup2\n      mstore\n      0x20\n      add\n      dup3\n      dup1\n      sload\n      tag_37\n      swap1\n      tag_36\n      jump\t// in\n    tag_37:\n      dup1\n      iszero\n      tag_38\n      jumpi\n      dup1\n      0x1f\n      lt\n      tag_39\n      jumpi\n      0x0100\n      dup1\n      dup4\n      sload\n      div\n      mul\n      dup4\n      mstore\n      swap2\n      0x20\n      add\n      swap2\n      jump(tag_38)\n    tag_39:\n      dup3\n      add\n      swap2\n      swap1\n      0x00\n      mstore\n      keccak256(0x00, 0x20)\n      swap1\n    tag_40:\n      dup2\n      sload\n      dup2\n      mstore\n      swap1\n      0x01\n      add\n      swap1\n      0x20\n      add\n      dup1\n      dup4\n      gt\n      tag_40\n      jumpi\n      dup3\n      swap1\n      sub\n      0x1f\n      and\n      dup3\n      add\n      swap2\n    tag_38:\n      pop\n      pop\n      pop\n      pop\n      pop\n      swap1\n      dup1\n      0x01\n      add\n      dup1\n      sload\n      tag_41\n      swap1\n      tag_36\n      jump\t// in\n    tag_41:\n      dup1\n      0x1f\n      add\n      0x20\n      dup1\n      swap2\n      div\n      mul\n      0x20\n      add\n      mload(0x40)\n      swap1\n      dup2\n      add\n      0x40\n      mstore\n      dup1\n      swap3\n      swap2\n      swap1\n      dup2\n      dup2\n      mstore\n      0x20\n      add\n      dup3\n      dup1\n      sload\n      tag_42\n      swap1\n      tag_36\n      jump\t// in\n    tag_42:\n      dup1\n      iszero\n      tag_43\n      jumpi\n      dup1\n      0x1f\n      lt\n      tag_44\n      jumpi\n      0x0100\n      dup1\n      dup4\n      sload\n      div\n      mul\n      dup4\n      mstore\n      swap2\n      0x20\n      add\n      swap2\n      jump(tag_43)\n    tag_44:\n      dup3\n      add\n      swap2\n      swap1\n      0x00\n      mstore\n      keccak256(0x00, 0x20)\n      swap1\n    tag_45:\n      dup2\n      sload\n      dup2\n      mstore\n      swap1\n      0x01\n      add\n      swap1\n      0x20\n      add\n      dup1\n      dup4\n      gt\n      tag_45\n      jumpi\n      dup3\n      swap1\n      sub\n      0x1f\n      and\n      dup3\n      add\n      swap2\n    tag_43:\n      pop\n      pop\n      pop\n      pop\n      pop\n      swap1\n      dup1\n      0x02\n      add\n      0x00\n      swap1\n      sload\n      swap1\n      0x0100\n      exp\n      swap1\n      div\n      0xff\n      and\n      swap1\n      pop\n      dup4\n      jump\t// out\n        /* \"contracts/personal/TodoList.sol\":811:893  function deleteTask(uint _index) external {... */\n    tag_17:\n        /* \"contracts/personal/TodoList.sol\":870:878  taskList */\n      0x00\n        /* \"contracts/personal/TodoList.sol\":879:885  _index */\n      dup2\n        /* \"contracts/personal/TodoList.sol\":870:886  taskList[_index] */\n      dup2\n      sload\n      dup2\n      lt\n      tag_47\n      jumpi\n      tag_48\n      tag_49\n      jump\t// in\n    tag_48:\n    tag_47:\n      swap1\n      0x00\n      mstore\n      keccak256(0x00, 0x20)\n      swap1\n      0x03\n      mul\n      add\n      0x00\n        /* \"contracts/personal/TodoList.sol\":863:886  delete taskList[_index] */\n      dup1\n      dup3\n      add\n      0x00\n      tag_51\n      swap2\n      swap1\n      tag_52\n      jump\t// in\n    tag_51:\n      0x01\n      dup3\n      add\n      0x00\n      tag_53\n      swap2\n      swap1\n      tag_52\n      jump\t// in\n    tag_53:\n      0x02\n      dup3\n      add\n      exp(0x0100, 0x00)\n      dup2\n      sload\n      swap1\n      0xff\n      mul\n      not\n      and\n      swap1\n      sstore\n      pop\n      pop\n        /* \"contracts/personal/TodoList.sol\":811:893  function deleteTask(uint _index) external {... */\n      pop\n      jump\t// out\n        /* \"contracts/personal/TodoList.sol\":696:805  function toggleTask(uint _index) external {... */\n    tag_20:\n        /* \"contracts/personal/TodoList.sol\":775:783  taskList */\n      0x00\n        /* \"contracts/personal/TodoList.sol\":784:790  _index */\n      dup2\n        /* \"contracts/personal/TodoList.sol\":775:791  taskList[_index] */\n      dup2\n      sload\n      dup2\n      lt\n      tag_55\n      jumpi\n      tag_56\n      tag_49\n      jump\t// in\n    tag_56:\n    tag_55:\n      swap1\n      0x00\n      mstore\n      keccak256(0x00, 0x20)\n      swap1\n      0x03\n      mul\n      add\n        /* \"contracts/personal/TodoList.sol\":775:798  taskList[_index].isdone */\n      0x02\n      add\n      0x00\n      swap1\n      sload\n      swap1\n      0x0100\n      exp\n      swap1\n      div\n      0xff\n      and\n        /* \"contracts/personal/TodoList.sol\":774:798  !taskList[_index].isdone */\n      iszero\n        /* \"contracts/personal/TodoList.sol\":748:756  taskList */\n      0x00\n        /* \"contracts/personal/TodoList.sol\":757:763  _index */\n      dup3\n        /* \"contracts/personal/TodoList.sol\":748:764  taskList[_index] */\n      dup2\n      sload\n      dup2\n      lt\n      tag_58\n      jumpi\n      tag_59\n      tag_49\n      jump\t// in\n    tag_59:\n    tag_58:\n      swap1\n      0x00\n      mstore\n      keccak256(0x00, 0x20)\n      swap1\n      0x03\n      mul\n      add\n        /* \"contracts/personal/TodoList.sol\":748:771  taskList[_index].isdone */\n      0x02\n      add\n      0x00\n        /* \"contracts/personal/TodoList.sol\":748:798  taskList[_index].isdone = !taskList[_index].isdone */\n      0x0100\n      exp\n      dup2\n      sload\n      dup2\n      0xff\n      mul\n      not\n      and\n      swap1\n      dup4\n      iszero\n      iszero\n      mul\n      or\n      swap1\n      sstore\n      pop\n        /* \"contracts/personal/TodoList.sol\":696:805  function toggleTask(uint _index) external {... */\n      pop\n      jump\t// out\n        /* \"contracts/personal/TodoList.sol\":599:689  function getTask () external view returns (Tasks[] memory){... */\n    tag_22:\n        /* \"contracts/personal/TodoList.sol\":642:656  Tasks[] memory */\n      0x60\n        /* \"contracts/personal/TodoList.sol\":674:682  taskList */\n      0x00\n        /* \"contracts/personal/TodoList.sol\":667:682  return taskList */\n      dup1\n      sload\n      dup1\n      0x20\n      mul\n      0x20\n      add\n      mload(0x40)\n      swap1\n      dup2\n      add\n      0x40\n      mstore\n      dup1\n      swap3\n      swap2\n      swap1\n      dup2\n      dup2\n      mstore\n      0x20\n      add\n      0x00\n      swap1\n    tag_62:\n      dup3\n      dup3\n      lt\n      iszero\n      tag_63\n      jumpi\n      dup4\n      dup3\n      swap1\n      0x00\n      mstore\n      keccak256(0x00, 0x20)\n      swap1\n      0x03\n      mul\n      add\n      mload(0x40)\n      dup1\n      0x60\n      add\n      0x40\n      mstore\n      swap1\n      dup2\n      0x00\n      dup3\n      add\n      dup1\n      sload\n      tag_65\n      swap1\n      tag_36\n      jump\t// in\n    tag_65:\n      dup1\n      0x1f\n      add\n      0x20\n      dup1\n      swap2\n      div\n      mul\n      0x20\n      add\n      mload(0x40)\n      swap1\n      dup2\n      add\n      0x40\n      mstore\n      dup1\n      swap3\n      swap2\n      swap1\n      dup2\n      dup2\n      mstore\n      0x20\n      add\n      dup3\n      dup1\n      sload\n      tag_66\n      swap1\n      tag_36\n      jump\t// in\n    tag_66:\n      dup1\n      iszero\n      tag_67\n      jumpi\n      dup1\n      0x1f\n      lt\n      tag_68\n      jumpi\n      0x0100\n      dup1\n      dup4\n      sload\n      div\n      mul\n      dup4\n      mstore\n      swap2\n      0x20\n      add\n      swap2\n      jump(tag_67)\n    tag_68:\n      dup3\n      add\n      swap2\n      swap1\n      0x00\n      mstore\n      keccak256(0x00, 0x20)\n      swap1\n    tag_69:\n      dup2\n      sload\n      dup2\n      mstore\n      swap1\n      0x01\n      add\n      swap1\n      0x20\n      add\n      dup1\n      dup4\n      gt\n      tag_69\n      jumpi\n      dup3\n      swap1\n      sub\n      0x1f\n      and\n      dup3\n      add\n      swap2\n    tag_67:\n      pop\n      pop\n      pop\n      pop\n      pop\n      dup2\n      mstore\n      0x20\n      add\n      0x01\n      dup3\n      add\n      dup1\n      sload\n      tag_70\n      swap1\n      tag_36\n      jump\t// in\n    tag_70:\n      dup1\n      0x1f\n      add\n      0x20\n      dup1\n      swap2\n      div\n      mul\n      0x20\n      add\n      mload(0x40)\n      swap1\n      dup2\n      add\n      0x40\n      mstore\n      dup1\n      swap3\n      swap2\n      swap1\n      dup2\n      dup2\n      mstore\n      0x20\n      add\n      dup3\n      dup1\n      sload\n      tag_71\n      swap1\n      tag_36\n      jump\t// in\n    tag_71:\n      dup1\n      iszero\n      tag_72\n      jumpi\n      dup1\n      0x1f\n      lt\n      tag_73\n      jumpi\n      0x0100\n      dup1\n      dup4\n      sload\n      div\n      mul\n      dup4\n      mstore\n      swap2\n      0x20\n      add\n      swap2\n      jump(tag_72)\n    tag_73:\n      dup3\n      add\n      swap2\n      swap1\n      0x00\n      mstore\n      keccak256(0x00, 0x20)\n      swap1\n    tag_74:\n      dup2\n      sload\n      dup2\n      mstore\n      swap1\n      0x01\n      add\n      swap1\n      0x20\n      add\n      dup1\n      dup4\n      gt\n      tag_74\n      jumpi\n      dup3\n      swap1\n      sub\n      0x1f\n      and\n      dup3\n      add\n      swap2\n    tag_72:\n      pop\n      pop\n      pop\n      pop\n      pop\n      dup2\n      mstore\n      0x20\n      add\n      0x02\n      dup3\n      add\n      0x00\n      swap1\n      sload\n      swap1\n      0x0100\n      exp\n      swap1\n      div\n      0xff\n      and\n      iszero\n      iszero\n      iszero\n      iszero\n      dup2\n      mstore\n      pop\n      pop\n      dup2\n      mstore\n      0x20\n      add\n      swap1\n      0x01\n      add\n      swap1\n      jump(tag_62)\n    tag_63:\n      pop\n      pop\n      pop\n      pop\n      swap1\n      pop\n        /* \"contracts/personal/TodoList.sol\":599:689  function getTask () external view returns (Tasks[] memory){... */\n      swap1\n      jump\t// out\n        /* \"contracts/personal/TodoList.sol\":209:423  function addTask (string memory _title, string memory _description) external {... */\n    tag_28:\n        /* \"contracts/personal/TodoList.sol\":296:314  Tasks memory tasks */\n      tag_76\n      tag_77\n      jump\t// in\n    tag_76:\n        /* \"contracts/personal/TodoList.sol\":338:344  _title */\n      dup3\n        /* \"contracts/personal/TodoList.sol\":324:329  tasks */\n      dup2\n        /* \"contracts/personal/TodoList.sol\":324:335  tasks.title */\n      0x00\n      add\n        /* \"contracts/personal/TodoList.sol\":324:344  tasks.title = _title */\n      dup2\n      swap1\n      mstore\n      pop\n        /* \"contracts/personal/TodoList.sol\":374:386  _description */\n      dup2\n        /* \"contracts/personal/TodoList.sol\":354:359  tasks */\n      dup2\n        /* \"contracts/personal/TodoList.sol\":354:371  tasks.description */\n      0x20\n      add\n        /* \"contracts/personal/TodoList.sol\":354:386  tasks.description = _description */\n      dup2\n      swap1\n      mstore\n      pop\n        /* \"contracts/personal/TodoList.sol\":396:404  taskList */\n      0x00\n        /* \"contracts/personal/TodoList.sol\":410:415  tasks */\n      dup2\n        /* \"contracts/personal/TodoList.sol\":396:416  taskList.push(tasks) */\n      swap1\n      dup1\n      0x01\n      dup2\n      sload\n      add\n      dup1\n      dup3\n      sstore\n      dup1\n      swap2\n      pop\n      pop\n      0x01\n      swap1\n      sub\n      swap1\n      0x00\n      mstore\n      keccak256(0x00, 0x20)\n      swap1\n      0x03\n      mul\n      add\n      0x00\n      swap1\n      swap2\n      swap1\n      swap2\n      swap1\n      swap2\n      pop\n      0x00\n      dup3\n      add\n      mload\n      dup2\n      0x00\n      add\n      swap1\n      dup1\n      mload\n      swap1\n      0x20\n      add\n      swap1\n      tag_79\n      swap3\n      swap2\n      swap1\n      tag_80\n      jump\t// in\n    tag_79:\n      pop\n      0x20\n      dup3\n      add\n      mload\n      dup2\n      0x01\n      add\n      swap1\n      dup1\n      mload\n      swap1\n      0x20\n      add\n      swap1\n      tag_81\n      swap3\n      swap2\n      swap1\n      tag_80\n      jump\t// in\n    tag_81:\n      pop\n      0x40\n      dup3\n      add\n      mload\n      dup2\n      0x02\n      add\n      exp(0x0100, 0x00)\n      dup2\n      sload\n      dup2\n      0xff\n      mul\n      not\n      and\n      swap1\n      dup4\n      iszero\n      iszero\n      mul\n      or\n      swap1\n      sstore\n      pop\n      pop\n      pop\n        /* \"contracts/personal/TodoList.sol\":286:423  {... */\n      pop\n        /* \"contracts/personal/TodoList.sol\":209:423  function addTask (string memory _title, string memory _description) external {... */\n      pop\n      pop\n      jump\t// out\n        /* \"contracts/personal/TodoList.sol\":429:593  function updateTask(uint _index,  string memory _title, string memory _description)  external {... */\n    tag_32:\n        /* \"contracts/personal/TodoList.sol\":552:586  Tasks(_title, _description, false) */\n      mload(0x40)\n      dup1\n      0x60\n      add\n      0x40\n      mstore\n      dup1\n        /* \"contracts/personal/TodoList.sol\":558:564  _title */\n      dup4\n        /* \"contracts/personal/TodoList.sol\":552:586  Tasks(_title, _description, false) */\n      dup2\n      mstore\n      0x20\n      add\n        /* \"contracts/personal/TodoList.sol\":566:578  _description */\n      dup3\n        /* \"contracts/personal/TodoList.sol\":552:586  Tasks(_title, _description, false) */\n      dup2\n      mstore\n      0x20\n      add\n        /* \"contracts/personal/TodoList.sol\":580:585  false */\n      0x00\n        /* \"contracts/personal/TodoList.sol\":552:586  Tasks(_title, _description, false) */\n      iszero\n      iszero\n      dup2\n      mstore\n      pop\n        /* \"contracts/personal/TodoList.sol\":533:541  taskList */\n      0x00\n        /* \"contracts/personal/TodoList.sol\":542:548  _index */\n      dup5\n        /* \"contracts/personal/TodoList.sol\":533:549  taskList[_index] */\n      dup2\n      sload\n      dup2\n      lt\n      tag_83\n      jumpi\n      tag_84\n      tag_49\n      jump\t// in\n    tag_84:\n    tag_83:\n      swap1\n      0x00\n      mstore\n      keccak256(0x00, 0x20)\n      swap1\n      0x03\n      mul\n      add\n        /* \"contracts/personal/TodoList.sol\":533:586  taskList[_index] = Tasks(_title, _description, false) */\n      0x00\n      dup3\n      add\n      mload\n      dup2\n      0x00\n      add\n      swap1\n      dup1\n      mload\n      swap1\n      0x20\n      add\n      swap1\n      tag_86\n      swap3\n      swap2\n      swap1\n      tag_80\n      jump\t// in\n    tag_86:\n      pop\n      0x20\n      dup3\n      add\n      mload\n      dup2\n      0x01\n      add\n      swap1\n      dup1\n      mload\n      swap1\n      0x20\n      add\n      swap1\n      tag_87\n      swap3\n      swap2\n      swap1\n      tag_80\n      jump\t// in\n    tag_87:\n      pop\n      0x40\n      dup3\n      add\n      mload\n      dup2\n      0x02\n      add\n      exp(0x0100, 0x00)\n      dup2\n      sload\n      dup2\n      0xff\n      mul\n      not\n      and\n      swap1\n      dup4\n      iszero\n      iszero\n      mul\n      or\n      swap1\n      sstore\n      pop\n      swap1\n      pop\n      pop\n        /* \"contracts/personal/TodoList.sol\":429:593  function updateTask(uint _index,  string memory _title, string memory _description)  external {... */\n      pop\n      pop\n      pop\n      jump\t// out\n    tag_52:\n      pop\n      dup1\n      sload\n      tag_88\n      swap1\n      tag_36\n      jump\t// in\n    tag_88:\n      0x00\n      dup3\n      sstore\n      dup1\n      0x1f\n      lt\n      tag_90\n      jumpi\n      pop\n      jump(tag_89)\n    tag_90:\n      0x1f\n      add\n      0x20\n      swap1\n      div\n      swap1\n      0x00\n      mstore\n      keccak256(0x00, 0x20)\n      swap1\n      dup2\n      add\n      swap1\n      tag_91\n      swap2\n      swap1\n      tag_92\n      jump\t// in\n    tag_91:\n    tag_89:\n      pop\n      jump\t// out\n    tag_77:\n      mload(0x40)\n      dup1\n      0x60\n      add\n      0x40\n      mstore\n      dup1\n      0x60\n      dup2\n      mstore\n      0x20\n      add\n      0x60\n      dup2\n      mstore\n      0x20\n      add\n      iszero(iszero(0x00))\n      dup2\n      mstore\n      pop\n      swap1\n      jump\t// out\n    tag_80:\n      dup3\n      dup1\n      sload\n      tag_93\n      swap1\n      tag_36\n      jump\t// in\n    tag_93:\n      swap1\n      0x00\n      mstore\n      keccak256(0x00, 0x20)\n      swap1\n      0x1f\n      add\n      0x20\n      swap1\n      div\n      dup2\n      add\n      swap3\n      dup3\n      tag_95\n      jumpi\n      0x00\n      dup6\n      sstore\n      jump(tag_94)\n    tag_95:\n      dup3\n      0x1f\n      lt\n      tag_96\n      jumpi\n      dup1\n      mload\n      not(0xff)\n      and\n      dup4\n      dup1\n      add\n      or\n      dup6\n      sstore\n      jump(tag_94)\n    tag_96:\n      dup3\n      dup1\n      add\n      0x01\n      add\n      dup6\n      sstore\n      dup3\n      iszero\n      tag_94\n      jumpi\n      swap2\n      dup3\n      add\n    tag_97:\n      dup3\n      dup2\n      gt\n      iszero\n      tag_98\n      jumpi\n      dup3\n      mload\n      dup3\n      sstore\n      swap2\n      0x20\n      add\n      swap2\n      swap1\n      0x01\n      add\n      swap1\n      jump(tag_97)\n    tag_98:\n    tag_94:\n      pop\n      swap1\n      pop\n      tag_99\n      swap2\n      swap1\n      tag_92\n      jump\t// in\n    tag_99:\n      pop\n      swap1\n      jump\t// out\n    tag_92:\n    tag_100:\n      dup1\n      dup3\n      gt\n      iszero\n      tag_101\n      jumpi\n      0x00\n      dup2\n      0x00\n      swap1\n      sstore\n      pop\n      0x01\n      add\n      jump(tag_100)\n    tag_101:\n      pop\n      swap1\n      jump\t// out\n        /* \"#utility.yul\":7:82   */\n    tag_102:\n        /* \"#utility.yul\":40:46   */\n      0x00\n        /* \"#utility.yul\":73:75   */\n      0x40\n        /* \"#utility.yul\":67:76   */\n      mload\n        /* \"#utility.yul\":57:76   */\n      swap1\n      pop\n        /* \"#utility.yul\":7:82   */\n      swap1\n      jump\t// out\n        /* \"#utility.yul\":88:205   */\n    tag_103:\n        /* \"#utility.yul\":197:198   */\n      0x00\n        /* \"#utility.yul\":194:195   */\n      dup1\n        /* \"#utility.yul\":187:199   */\n      revert\n        /* \"#utility.yul\":211:328   */\n    tag_104:\n        /* \"#utility.yul\":320:321   */\n      0x00\n        /* \"#utility.yul\":317:318   */\n      dup1\n        /* \"#utility.yul\":310:322   */\n      revert\n        /* \"#utility.yul\":334:411   */\n    tag_105:\n        /* \"#utility.yul\":371:378   */\n      0x00\n        /* \"#utility.yul\":400:405   */\n      dup2\n        /* \"#utility.yul\":389:405   */\n      swap1\n      pop\n        /* \"#utility.yul\":334:411   */\n      swap2\n      swap1\n      pop\n      jump\t// out\n        /* \"#utility.yul\":417:539   */\n    tag_106:\n        /* \"#utility.yul\":490:514   */\n      tag_141\n        /* \"#utility.yul\":508:513   */\n      dup2\n        /* \"#utility.yul\":490:514   */\n      tag_105\n      jump\t// in\n    tag_141:\n        /* \"#utility.yul\":483:488   */\n      dup2\n        /* \"#utility.yul\":480:515   */\n      eq\n        /* \"#utility.yul\":470:533   */\n      tag_142\n      jumpi\n        /* \"#utility.yul\":529:530   */\n      0x00\n        /* \"#utility.yul\":526:527   */\n      dup1\n        /* \"#utility.yul\":519:531   */\n      revert\n        /* \"#utility.yul\":470:533   */\n    tag_142:\n        /* \"#utility.yul\":417:539   */\n      pop\n      jump\t// out\n        /* \"#utility.yul\":545:684   */\n    tag_107:\n        /* \"#utility.yul\":591:596   */\n      0x00\n        /* \"#utility.yul\":629:635   */\n      dup2\n        /* \"#utility.yul\":616:636   */\n      calldataload\n        /* \"#utility.yul\":607:636   */\n      swap1\n      pop\n        /* \"#utility.yul\":645:678   */\n      tag_144\n        /* \"#utility.yul\":672:677   */\n      dup2\n        /* \"#utility.yul\":645:678   */\n      tag_106\n      jump\t// in\n    tag_144:\n        /* \"#utility.yul\":545:684   */\n      swap3\n      swap2\n      pop\n      pop\n      jump\t// out\n        /* \"#utility.yul\":690:1019   */\n    tag_11:\n        /* \"#utility.yul\":749:755   */\n      0x00\n        /* \"#utility.yul\":798:800   */\n      0x20\n        /* \"#utility.yul\":786:795   */\n      dup3\n        /* \"#utility.yul\":777:784   */\n      dup5\n        /* \"#utility.yul\":773:796   */\n      sub\n        /* \"#utility.yul\":769:801   */\n      slt\n        /* \"#utility.yul\":766:885   */\n      iszero\n      tag_146\n      jumpi\n        /* \"#utility.yul\":804:883   */\n      tag_147\n      tag_103\n      jump\t// in\n    tag_147:\n        /* \"#utility.yul\":766:885   */\n    tag_146:\n        /* \"#utility.yul\":924:925   */\n      0x00\n        /* \"#utility.yul\":949:1002   */\n      tag_148\n        /* \"#utility.yul\":994:1001   */\n      dup5\n        /* \"#utility.yul\":985:991   */\n      dup3\n        /* \"#utility.yul\":974:983   */\n      dup6\n        /* \"#utility.yul\":970:992   */\n      add\n        /* \"#utility.yul\":949:1002   */\n      tag_107\n      jump\t// in\n    tag_148:\n        /* \"#utility.yul\":939:1002   */\n      swap2\n      pop\n        /* \"#utility.yul\":895:1012   */\n      pop\n        /* \"#utility.yul\":690:1019   */\n      swap3\n      swap2\n      pop\n      pop\n      jump\t// out\n        /* \"#utility.yul\":1025:1124   */\n    tag_108:\n        /* \"#utility.yul\":1077:1083   */\n      0x00\n        /* \"#utility.yul\":1111:1116   */\n      dup2\n        /* \"#utility.yul\":1105:1117   */\n      mload\n        /* \"#utility.yul\":1095:1117   */\n      swap1\n      pop\n        /* \"#utility.yul\":1025:1124   */\n      swap2\n      swap1\n      pop\n      jump\t// out\n        /* \"#utility.yul\":1130:1299   */\n    tag_109:\n        /* \"#utility.yul\":1214:1225   */\n      0x00\n        /* \"#utility.yul\":1248:1254   */\n      dup3\n        /* \"#utility.yul\":1243:1246   */\n      dup3\n        /* \"#utility.yul\":1236:1255   */\n      mstore\n        /* \"#utility.yul\":1288:1292   */\n      0x20\n        /* \"#utility.yul\":1283:1286   */\n      dup3\n        /* \"#utility.yul\":1279:1293   */\n      add\n        /* \"#utility.yul\":1264:1293   */\n      swap1\n      pop\n        /* \"#utility.yul\":1130:1299   */\n      swap3\n      swap2\n      pop\n      pop\n      jump\t// out\n        /* \"#utility.yul\":1305:1612   */\n    tag_110:\n        /* \"#utility.yul\":1373:1374   */\n      0x00\n        /* \"#utility.yul\":1383:1496   */\n    tag_152:\n        /* \"#utility.yul\":1397:1403   */\n      dup4\n        /* \"#utility.yul\":1394:1395   */\n      dup2\n        /* \"#utility.yul\":1391:1404   */\n      lt\n        /* \"#utility.yul\":1383:1496   */\n      iszero\n      tag_154\n      jumpi\n        /* \"#utility.yul\":1482:1483   */\n      dup1\n        /* \"#utility.yul\":1477:1480   */\n      dup3\n        /* \"#utility.yul\":1473:1484   */\n      add\n        /* \"#utility.yul\":1467:1485   */\n      mload\n        /* \"#utility.yul\":1463:1464   */\n      dup2\n        /* \"#utility.yul\":1458:1461   */\n      dup5\n        /* \"#utility.yul\":1454:1465   */\n      add\n        /* \"#utility.yul\":1447:1486   */\n      mstore\n        /* \"#utility.yul\":1419:1421   */\n      0x20\n        /* \"#utility.yul\":1416:1417   */\n      dup2\n        /* \"#utility.yul\":1412:1422   */\n      add\n        /* \"#utility.yul\":1407:1422   */\n      swap1\n      pop\n        /* \"#utility.yul\":1383:1496   */\n      jump(tag_152)\n    tag_154:\n        /* \"#utility.yul\":1514:1520   */\n      dup4\n        /* \"#utility.yul\":1511:1512   */\n      dup2\n        /* \"#utility.yul\":1508:1521   */\n      gt\n        /* \"#utility.yul\":1505:1606   */\n      iszero\n      tag_155\n      jumpi\n        /* \"#utility.yul\":1594:1595   */\n      0x00\n        /* \"#utility.yul\":1585:1591   */\n      dup5\n        /* \"#utility.yul\":1580:1583   */\n      dup5\n        /* \"#utility.yul\":1576:1592   */\n      add\n        /* \"#utility.yul\":1569:1596   */\n      mstore\n        /* \"#utility.yul\":1505:1606   */\n    tag_155:\n        /* \"#utility.yul\":1354:1612   */\n      pop\n        /* \"#utility.yul\":1305:1612   */\n      pop\n      pop\n      pop\n      jump\t// out\n        /* \"#utility.yul\":1618:1720   */\n    tag_111:\n        /* \"#utility.yul\":1659:1665   */\n      0x00\n        /* \"#utility.yul\":1710:1712   */\n      0x1f\n        /* \"#utility.yul\":1706:1713   */\n      not\n        /* \"#utility.yul\":1701:1703   */\n      0x1f\n        /* \"#utility.yul\":1694:1699   */\n      dup4\n        /* \"#utility.yul\":1690:1704   */\n      add\n        /* \"#utility.yul\":1686:1714   */\n      and\n        /* \"#utility.yul\":1676:1714   */\n      swap1\n      pop\n        /* \"#utility.yul\":1618:1720   */\n      swap2\n      swap1\n      pop\n      jump\t// out\n        /* \"#utility.yul\":1726:2090   */\n    tag_112:\n        /* \"#utility.yul\":1814:1817   */\n      0x00\n        /* \"#utility.yul\":1842:1881   */\n      tag_158\n        /* \"#utility.yul\":1875:1880   */\n      dup3\n        /* \"#utility.yul\":1842:1881   */\n      tag_108\n      jump\t// in\n    tag_158:\n        /* \"#utility.yul\":1897:1968   */\n      tag_159\n        /* \"#utility.yul\":1961:1967   */\n      dup2\n        /* \"#utility.yul\":1956:1959   */\n      dup6\n        /* \"#utility.yul\":1897:1968   */\n      tag_109\n      jump\t// in\n    tag_159:\n        /* \"#utility.yul\":1890:1968   */\n      swap4\n      pop\n        /* \"#utility.yul\":1977:2029   */\n      tag_160\n        /* \"#utility.yul\":2022:2028   */\n      dup2\n        /* \"#utility.yul\":2017:2020   */\n      dup6\n        /* \"#utility.yul\":2010:2014   */\n      0x20\n        /* \"#utility.yul\":2003:2008   */\n      dup7\n        /* \"#utility.yul\":1999:2015   */\n      add\n        /* \"#utility.yul\":1977:2029   */\n      tag_110\n      jump\t// in\n    tag_160:\n        /* \"#utility.yul\":2054:2083   */\n      tag_161\n        /* \"#utility.yul\":2076:2082   */\n      dup2\n        /* \"#utility.yul\":2054:2083   */\n      tag_111\n      jump\t// in\n    tag_161:\n        /* \"#utility.yul\":2049:2052   */\n      dup5\n        /* \"#utility.yul\":2045:2084   */\n      add\n        /* \"#utility.yul\":2038:2084   */\n      swap2\n      pop\n        /* \"#utility.yul\":1818:2090   */\n      pop\n        /* \"#utility.yul\":1726:2090   */\n      swap3\n      swap2\n      pop\n      pop\n      jump\t// out\n        /* \"#utility.yul\":2096:2186   */\n    tag_113:\n        /* \"#utility.yul\":2130:2137   */\n      0x00\n        /* \"#utility.yul\":2173:2178   */\n      dup2\n        /* \"#utility.yul\":2166:2179   */\n      iszero\n        /* \"#utility.yul\":2159:2180   */\n      iszero\n        /* \"#utility.yul\":2148:2180   */\n      swap1\n      pop\n        /* \"#utility.yul\":2096:2186   */\n      swap2\n      swap1\n      pop\n      jump\t// out\n        /* \"#utility.yul\":2192:2301   */\n    tag_114:\n        /* \"#utility.yul\":2273:2294   */\n      tag_164\n        /* \"#utility.yul\":2288:2293   */\n      dup2\n        /* \"#utility.yul\":2273:2294   */\n      tag_113\n      jump\t// in\n    tag_164:\n        /* \"#utility.yul\":2268:2271   */\n      dup3\n        /* \"#utility.yul\":2261:2295   */\n      mstore\n        /* \"#utility.yul\":2192:2301   */\n      pop\n      pop\n      jump\t// out\n        /* \"#utility.yul\":2307:2919   */\n    tag_14:\n        /* \"#utility.yul\":2490:2494   */\n      0x00\n        /* \"#utility.yul\":2528:2530   */\n      0x60\n        /* \"#utility.yul\":2517:2526   */\n      dup3\n        /* \"#utility.yul\":2513:2531   */\n      add\n        /* \"#utility.yul\":2505:2531   */\n      swap1\n      pop\n        /* \"#utility.yul\":2577:2586   */\n      dup2\n        /* \"#utility.yul\":2571:2575   */\n      dup2\n        /* \"#utility.yul\":2567:2587   */\n      sub\n        /* \"#utility.yul\":2563:2564   */\n      0x00\n        /* \"#utility.yul\":2552:2561   */\n      dup4\n        /* \"#utility.yul\":2548:2565   */\n      add\n        /* \"#utility.yul\":2541:2588   */\n      mstore\n        /* \"#utility.yul\":2605:2683   */\n      tag_166\n        /* \"#utility.yul\":2678:2682   */\n      dup2\n        /* \"#utility.yul\":2669:2675   */\n      dup7\n        /* \"#utility.yul\":2605:2683   */\n      tag_112\n      jump\t// in\n    tag_166:\n        /* \"#utility.yul\":2597:2683   */\n      swap1\n      pop\n        /* \"#utility.yul\":2730:2739   */\n      dup2\n        /* \"#utility.yul\":2724:2728   */\n      dup2\n        /* \"#utility.yul\":2720:2740   */\n      sub\n        /* \"#utility.yul\":2715:2717   */\n      0x20\n        /* \"#utility.yul\":2704:2713   */\n      dup4\n        /* \"#utility.yul\":2700:2718   */\n      add\n        /* \"#utility.yul\":2693:2741   */\n      mstore\n        /* \"#utility.yul\":2758:2836   */\n      tag_167\n        /* \"#utility.yul\":2831:2835   */\n      dup2\n        /* \"#utility.yul\":2822:2828   */\n      dup6\n        /* \"#utility.yul\":2758:2836   */\n      tag_112\n      jump\t// in\n    tag_167:\n        /* \"#utility.yul\":2750:2836   */\n      swap1\n      pop\n        /* \"#utility.yul\":2846:2912   */\n      tag_168\n        /* \"#utility.yul\":2908:2910   */\n      0x40\n        /* \"#utility.yul\":2897:2906   */\n      dup4\n        /* \"#utility.yul\":2893:2911   */\n      add\n        /* \"#utility.yul\":2884:2890   */\n      dup5\n        /* \"#utility.yul\":2846:2912   */\n      tag_114\n      jump\t// in\n    tag_168:\n        /* \"#utility.yul\":2307:2919   */\n      swap5\n      swap4\n      pop\n      pop\n      pop\n      pop\n      jump\t// out\n        /* \"#utility.yul\":2925:3059   */\n    tag_115:\n        /* \"#utility.yul\":3012:3018   */\n      0x00\n        /* \"#utility.yul\":3046:3051   */\n      dup2\n        /* \"#utility.yul\":3040:3052   */\n      mload\n        /* \"#utility.yul\":3030:3052   */\n      swap1\n      pop\n        /* \"#utility.yul\":2925:3059   */\n      swap2\n      swap1\n      pop\n      jump\t// out\n        /* \"#utility.yul\":3065:3269   */\n    tag_116:\n        /* \"#utility.yul\":3184:3195   */\n      0x00\n        /* \"#utility.yul\":3218:3224   */\n      dup3\n        /* \"#utility.yul\":3213:3216   */\n      dup3\n        /* \"#utility.yul\":3206:3225   */\n      mstore\n        /* \"#utility.yul\":3258:3262   */\n      0x20\n        /* \"#utility.yul\":3253:3256   */\n      dup3\n        /* \"#utility.yul\":3249:3263   */\n      add\n        /* \"#utility.yul\":3234:3263   */\n      swap1\n      pop\n        /* \"#utility.yul\":3065:3269   */\n      swap3\n      swap2\n      pop\n      pop\n      jump\t// out\n        /* \"#utility.yul\":3275:3427   */\n    tag_117:\n        /* \"#utility.yul\":3362:3366   */\n      0x00\n        /* \"#utility.yul\":3385:3388   */\n      dup2\n        /* \"#utility.yul\":3377:3388   */\n      swap1\n      pop\n        /* \"#utility.yul\":3415:3419   */\n      0x20\n        /* \"#utility.yul\":3410:3413   */\n      dup3\n        /* \"#utility.yul\":3406:3420   */\n      add\n        /* \"#utility.yul\":3398:3420   */\n      swap1\n      pop\n        /* \"#utility.yul\":3275:3427   */\n      swap2\n      swap1\n      pop\n      jump\t// out\n        /* \"#utility.yul\":3433:3592   */\n    tag_118:\n        /* \"#utility.yul\":3507:3518   */\n      0x00\n        /* \"#utility.yul\":3541:3547   */\n      dup3\n        /* \"#utility.yul\":3536:3539   */\n      dup3\n        /* \"#utility.yul\":3529:3548   */\n      mstore\n        /* \"#utility.yul\":3581:3585   */\n      0x20\n        /* \"#utility.yul\":3576:3579   */\n      dup3\n        /* \"#utility.yul\":3572:3586   */\n      add\n        /* \"#utility.yul\":3557:3586   */\n      swap1\n      pop\n        /* \"#utility.yul\":3433:3592   */\n      swap3\n      swap2\n      pop\n      pop\n      jump\t// out\n        /* \"#utility.yul\":3598:3942   */\n    tag_119:\n        /* \"#utility.yul\":3676:3679   */\n      0x00\n        /* \"#utility.yul\":3704:3743   */\n      tag_174\n        /* \"#utility.yul\":3737:3742   */\n      dup3\n        /* \"#utility.yul\":3704:3743   */\n      tag_108\n      jump\t// in\n    tag_174:\n        /* \"#utility.yul\":3759:3820   */\n      tag_175\n        /* \"#utility.yul\":3813:3819   */\n      dup2\n        /* \"#utility.yul\":3808:3811   */\n      dup6\n        /* \"#utility.yul\":3759:3820   */\n      tag_118\n      jump\t// in\n    tag_175:\n        /* \"#utility.yul\":3752:3820   */\n      swap4\n      pop\n        /* \"#utility.yul\":3829:3881   */\n      tag_176\n        /* \"#utility.yul\":3874:3880   */\n      dup2\n        /* \"#utility.yul\":3869:3872   */\n      dup6\n        /* \"#utility.yul\":3862:3866   */\n      0x20\n        /* \"#utility.yul\":3855:3860   */\n      dup7\n        /* \"#utility.yul\":3851:3867   */\n      add\n        /* \"#utility.yul\":3829:3881   */\n      tag_110\n      jump\t// in\n    tag_176:\n        /* \"#utility.yul\":3906:3935   */\n      tag_177\n        /* \"#utility.yul\":3928:3934   */\n      dup2\n        /* \"#utility.yul\":3906:3935   */\n      tag_111\n      jump\t// in\n    tag_177:\n        /* \"#utility.yul\":3901:3904   */\n      dup5\n        /* \"#utility.yul\":3897:3936   */\n      add\n        /* \"#utility.yul\":3890:3936   */\n      swap2\n      pop\n        /* \"#utility.yul\":3680:3942   */\n      pop\n        /* \"#utility.yul\":3598:3942   */\n      swap3\n      swap2\n      pop\n      pop\n      jump\t// out\n        /* \"#utility.yul\":3948:4047   */\n    tag_120:\n        /* \"#utility.yul\":4019:4040   */\n      tag_179\n        /* \"#utility.yul\":4034:4039   */\n      dup2\n        /* \"#utility.yul\":4019:4040   */\n      tag_113\n      jump\t// in\n    tag_179:\n        /* \"#utility.yul\":4014:4017   */\n      dup3\n        /* \"#utility.yul\":4007:4041   */\n      mstore\n        /* \"#utility.yul\":3948:4047   */\n      pop\n      pop\n      jump\t// out\n        /* \"#utility.yul\":4107:4942   */\n    tag_121:\n        /* \"#utility.yul\":4206:4209   */\n      0x00\n        /* \"#utility.yul\":4242:4246   */\n      0x60\n        /* \"#utility.yul\":4237:4240   */\n      dup4\n        /* \"#utility.yul\":4233:4247   */\n      add\n        /* \"#utility.yul\":4330:4334   */\n      0x00\n        /* \"#utility.yul\":4323:4328   */\n      dup4\n        /* \"#utility.yul\":4319:4335   */\n      add\n        /* \"#utility.yul\":4313:4336   */\n      mload\n        /* \"#utility.yul\":4383:4386   */\n      dup5\n        /* \"#utility.yul\":4377:4381   */\n      dup3\n        /* \"#utility.yul\":4373:4387   */\n      sub\n        /* \"#utility.yul\":4366:4370   */\n      0x00\n        /* \"#utility.yul\":4361:4364   */\n      dup7\n        /* \"#utility.yul\":4357:4371   */\n      add\n        /* \"#utility.yul\":4350:4388   */\n      mstore\n        /* \"#utility.yul\":4409:4482   */\n      tag_181\n        /* \"#utility.yul\":4477:4481   */\n      dup3\n        /* \"#utility.yul\":4463:4475   */\n      dup3\n        /* \"#utility.yul\":4409:4482   */\n      tag_119\n      jump\t// in\n    tag_181:\n        /* \"#utility.yul\":4401:4482   */\n      swap2\n      pop\n        /* \"#utility.yul\":4257:4493   */\n      pop\n        /* \"#utility.yul\":4582:4586   */\n      0x20\n        /* \"#utility.yul\":4575:4580   */\n      dup4\n        /* \"#utility.yul\":4571:4587   */\n      add\n        /* \"#utility.yul\":4565:4588   */\n      mload\n        /* \"#utility.yul\":4635:4638   */\n      dup5\n        /* \"#utility.yul\":4629:4633   */\n      dup3\n        /* \"#utility.yul\":4625:4639   */\n      sub\n        /* \"#utility.yul\":4618:4622   */\n      0x20\n        /* \"#utility.yul\":4613:4616   */\n      dup7\n        /* \"#utility.yul\":4609:4623   */\n      add\n        /* \"#utility.yul\":4602:4640   */\n      mstore\n        /* \"#utility.yul\":4661:4734   */\n      tag_182\n        /* \"#utility.yul\":4729:4733   */\n      dup3\n        /* \"#utility.yul\":4715:4727   */\n      dup3\n        /* \"#utility.yul\":4661:4734   */\n      tag_119\n      jump\t// in\n    tag_182:\n        /* \"#utility.yul\":4653:4734   */\n      swap2\n      pop\n        /* \"#utility.yul\":4503:4745   */\n      pop\n        /* \"#utility.yul\":4829:4833   */\n      0x40\n        /* \"#utility.yul\":4822:4827   */\n      dup4\n        /* \"#utility.yul\":4818:4834   */\n      add\n        /* \"#utility.yul\":4812:4835   */\n      mload\n        /* \"#utility.yul\":4848:4905   */\n      tag_183\n        /* \"#utility.yul\":4899:4903   */\n      0x40\n        /* \"#utility.yul\":4894:4897   */\n      dup7\n        /* \"#utility.yul\":4890:4904   */\n      add\n        /* \"#utility.yul\":4876:4888   */\n      dup3\n        /* \"#utility.yul\":4848:4905   */\n      tag_120\n      jump\t// in\n    tag_183:\n        /* \"#utility.yul\":4755:4915   */\n      pop\n        /* \"#utility.yul\":4932:4936   */\n      dup1\n        /* \"#utility.yul\":4925:4936   */\n      swap2\n      pop\n        /* \"#utility.yul\":4211:4942   */\n      pop\n        /* \"#utility.yul\":4107:4942   */\n      swap3\n      swap2\n      pop\n      pop\n      jump\t// out\n        /* \"#utility.yul\":4948:5184   */\n    tag_122:\n        /* \"#utility.yul\":5057:5067   */\n      0x00\n        /* \"#utility.yul\":5092:5178   */\n      tag_185\n        /* \"#utility.yul\":5174:5177   */\n      dup4\n        /* \"#utility.yul\":5166:5172   */\n      dup4\n        /* \"#utility.yul\":5092:5178   */\n      tag_121\n      jump\t// in\n    tag_185:\n        /* \"#utility.yul\":5078:5178   */\n      swap1\n      pop\n        /* \"#utility.yul\":4948:5184   */\n      swap3\n      swap2\n      pop\n      pop\n      jump\t// out\n        /* \"#utility.yul\":5190:5323   */\n    tag_123:\n        /* \"#utility.yul\":5280:5284   */\n      0x00\n        /* \"#utility.yul\":5312:5316   */\n      0x20\n        /* \"#utility.yul\":5307:5310   */\n      dup3\n        /* \"#utility.yul\":5303:5317   */\n      add\n        /* \"#utility.yul\":5295:5317   */\n      swap1\n      pop\n        /* \"#utility.yul\":5190:5323   */\n      swap2\n      swap1\n      pop\n      jump\t// out\n        /* \"#utility.yul\":5387:6458   */\n    tag_124:\n        /* \"#utility.yul\":5546:5549   */\n      0x00\n        /* \"#utility.yul\":5575:5649   */\n      tag_188\n        /* \"#utility.yul\":5643:5648   */\n      dup3\n        /* \"#utility.yul\":5575:5649   */\n      tag_115\n      jump\t// in\n    tag_188:\n        /* \"#utility.yul\":5665:5771   */\n      tag_189\n        /* \"#utility.yul\":5764:5770   */\n      dup2\n        /* \"#utility.yul\":5759:5762   */\n      dup6\n        /* \"#utility.yul\":5665:5771   */\n      tag_116\n      jump\t// in\n    tag_189:\n        /* \"#utility.yul\":5658:5771   */\n      swap4\n      pop\n        /* \"#utility.yul\":5797:5800   */\n      dup4\n        /* \"#utility.yul\":5842:5846   */\n      0x20\n        /* \"#utility.yul\":5834:5840   */\n      dup3\n        /* \"#utility.yul\":5830:5847   */\n      mul\n        /* \"#utility.yul\":5825:5828   */\n      dup6\n        /* \"#utility.yul\":5821:5848   */\n      add\n        /* \"#utility.yul\":5872:5948   */\n      tag_190\n        /* \"#utility.yul\":5942:5947   */\n      dup6\n        /* \"#utility.yul\":5872:5948   */\n      tag_117\n      jump\t// in\n    tag_190:\n        /* \"#utility.yul\":5971:5978   */\n      dup1\n        /* \"#utility.yul\":6002:6003   */\n      0x00\n        /* \"#utility.yul\":5987:6413   */\n    tag_191:\n        /* \"#utility.yul\":6012:6018   */\n      dup6\n        /* \"#utility.yul\":6009:6010   */\n      dup2\n        /* \"#utility.yul\":6006:6019   */\n      lt\n        /* \"#utility.yul\":5987:6413   */\n      iszero\n      tag_193\n      jumpi\n        /* \"#utility.yul\":6083:6092   */\n      dup5\n        /* \"#utility.yul\":6077:6081   */\n      dup5\n        /* \"#utility.yul\":6073:6093   */\n      sub\n        /* \"#utility.yul\":6068:6071   */\n      dup10\n        /* \"#utility.yul\":6061:6094   */\n      mstore\n        /* \"#utility.yul\":6134:6140   */\n      dup2\n        /* \"#utility.yul\":6128:6141   */\n      mload\n        /* \"#utility.yul\":6162:6266   */\n      tag_194\n        /* \"#utility.yul\":6261:6265   */\n      dup6\n        /* \"#utility.yul\":6246:6259   */\n      dup3\n        /* \"#utility.yul\":6162:6266   */\n      tag_122\n      jump\t// in\n    tag_194:\n        /* \"#utility.yul\":6154:6266   */\n      swap5\n      pop\n        /* \"#utility.yul\":6289:6369   */\n      tag_195\n        /* \"#utility.yul\":6362:6368   */\n      dup4\n        /* \"#utility.yul\":6289:6369   */\n      tag_123\n      jump\t// in\n    tag_195:\n        /* \"#utility.yul\":6279:6369   */\n      swap3\n      pop\n        /* \"#utility.yul\":6398:6402   */\n      0x20\n        /* \"#utility.yul\":6393:6396   */\n      dup11\n        /* \"#utility.yul\":6389:6403   */\n      add\n        /* \"#utility.yul\":6382:6403   */\n      swap10\n      pop\n        /* \"#utility.yul\":6047:6413   */\n      pop\n        /* \"#utility.yul\":6034:6035   */\n      0x01\n        /* \"#utility.yul\":6031:6032   */\n      dup2\n        /* \"#utility.yul\":6027:6036   */\n      add\n        /* \"#utility.yul\":6022:6036   */\n      swap1\n      pop\n        /* \"#utility.yul\":5987:6413   */\n      jump(tag_191)\n    tag_193:\n        /* \"#utility.yul\":5991:6005   */\n      pop\n        /* \"#utility.yul\":6429:6433   */\n      dup3\n        /* \"#utility.yul\":6422:6433   */\n      swap8\n      pop\n        /* \"#utility.yul\":6449:6452   */\n      dup8\n        /* \"#utility.yul\":6442:6452   */\n      swap6\n      pop\n        /* \"#utility.yul\":5551:6458   */\n      pop\n      pop\n      pop\n      pop\n      pop\n        /* \"#utility.yul\":5387:6458   */\n      swap3\n      swap2\n      pop\n      pop\n      jump\t// out\n        /* \"#utility.yul\":6464:6917   */\n    tag_24:\n        /* \"#utility.yul\":6647:6651   */\n      0x00\n        /* \"#utility.yul\":6685:6687   */\n      0x20\n        /* \"#utility.yul\":6674:6683   */\n      dup3\n        /* \"#utility.yul\":6670:6688   */\n      add\n        /* \"#utility.yul\":6662:6688   */\n      swap1\n      pop\n        /* \"#utility.yul\":6734:6743   */\n      dup2\n        /* \"#utility.yul\":6728:6732   */\n      dup2\n        /* \"#utility.yul\":6724:6744   */\n      sub\n        /* \"#utility.yul\":6720:6721   */\n      0x00\n        /* \"#utility.yul\":6709:6718   */\n      dup4\n        /* \"#utility.yul\":6705:6722   */\n      add\n        /* \"#utility.yul\":6698:6745   */\n      mstore\n        /* \"#utility.yul\":6762:6910   */\n      tag_197\n        /* \"#utility.yul\":6905:6909   */\n      dup2\n        /* \"#utility.yul\":6896:6902   */\n      dup5\n        /* \"#utility.yul\":6762:6910   */\n      tag_124\n      jump\t// in\n    tag_197:\n        /* \"#utility.yul\":6754:6910   */\n      swap1\n      pop\n        /* \"#utility.yul\":6464:6917   */\n      swap3\n      swap2\n      pop\n      pop\n      jump\t// out\n        /* \"#utility.yul\":6923:7040   */\n    tag_125:\n        /* \"#utility.yul\":7032:7033   */\n      0x00\n        /* \"#utility.yul\":7029:7030   */\n      dup1\n        /* \"#utility.yul\":7022:7034   */\n      revert\n        /* \"#utility.yul\":7046:7163   */\n    tag_126:\n        /* \"#utility.yul\":7155:7156   */\n      0x00\n        /* \"#utility.yul\":7152:7153   */\n      dup1\n        /* \"#utility.yul\":7145:7157   */\n      revert\n        /* \"#utility.yul\":7169:7349   */\n    tag_127:\n        /* \"#utility.yul\":7217:7294   */\n      0x4e487b7100000000000000000000000000000000000000000000000000000000\n        /* \"#utility.yul\":7214:7215   */\n      0x00\n        /* \"#utility.yul\":7207:7295   */\n      mstore\n        /* \"#utility.yul\":7314:7318   */\n      0x41\n        /* \"#utility.yul\":7311:7312   */\n      0x04\n        /* \"#utility.yul\":7304:7319   */\n      mstore\n        /* \"#utility.yul\":7338:7342   */\n      0x24\n        /* \"#utility.yul\":7335:7336   */\n      0x00\n        /* \"#utility.yul\":7328:7343   */\n      revert\n        /* \"#utility.yul\":7355:7636   */\n    tag_128:\n        /* \"#utility.yul\":7438:7465   */\n      tag_202\n        /* \"#utility.yul\":7460:7464   */\n      dup3\n        /* \"#utility.yul\":7438:7465   */\n      tag_111\n      jump\t// in\n    tag_202:\n        /* \"#utility.yul\":7430:7436   */\n      dup2\n        /* \"#utility.yul\":7426:7466   */\n      add\n        /* \"#utility.yul\":7568:7574   */\n      dup2\n        /* \"#utility.yul\":7556:7566   */\n      dup2\n        /* \"#utility.yul\":7553:7575   */\n      lt\n        /* \"#utility.yul\":7532:7550   */\n      0xffffffffffffffff\n        /* \"#utility.yul\":7520:7530   */\n      dup3\n        /* \"#utility.yul\":7517:7551   */\n      gt\n        /* \"#utility.yul\":7514:7576   */\n      or\n        /* \"#utility.yul\":7511:7599   */\n      iszero\n      tag_203\n      jumpi\n        /* \"#utility.yul\":7579:7597   */\n      tag_204\n      tag_127\n      jump\t// in\n    tag_204:\n        /* \"#utility.yul\":7511:7599   */\n    tag_203:\n        /* \"#utility.yul\":7619:7629   */\n      dup1\n        /* \"#utility.yul\":7615:7617   */\n      0x40\n        /* \"#utility.yul\":7608:7630   */\n      mstore\n        /* \"#utility.yul\":7398:7636   */\n      pop\n        /* \"#utility.yul\":7355:7636   */\n      pop\n      pop\n      jump\t// out\n        /* \"#utility.yul\":7642:7771   */\n    tag_129:\n        /* \"#utility.yul\":7676:7682   */\n      0x00\n        /* \"#utility.yul\":7703:7723   */\n      tag_206\n      tag_102\n      jump\t// in\n    tag_206:\n        /* \"#utility.yul\":7693:7723   */\n      swap1\n      pop\n        /* \"#utility.yul\":7732:7765   */\n      tag_207\n        /* \"#utility.yul\":7760:7764   */\n      dup3\n        /* \"#utility.yul\":7752:7758   */\n      dup3\n        /* \"#utility.yul\":7732:7765   */\n      tag_128\n      jump\t// in\n    tag_207:\n        /* \"#utility.yul\":7642:7771   */\n      swap2\n      swap1\n      pop\n      jump\t// out\n        /* \"#utility.yul\":7777:8085   */\n    tag_130:\n        /* \"#utility.yul\":7839:7843   */\n      0x00\n        /* \"#utility.yul\":7929:7947   */\n      0xffffffffffffffff\n        /* \"#utility.yul\":7921:7927   */\n      dup3\n        /* \"#utility.yul\":7918:7948   */\n      gt\n        /* \"#utility.yul\":7915:7971   */\n      iszero\n      tag_209\n      jumpi\n        /* \"#utility.yul\":7951:7969   */\n      tag_210\n      tag_127\n      jump\t// in\n    tag_210:\n        /* \"#utility.yul\":7915:7971   */\n    tag_209:\n        /* \"#utility.yul\":7989:8018   */\n      tag_211\n        /* \"#utility.yul\":8011:8017   */\n      dup3\n        /* \"#utility.yul\":7989:8018   */\n      tag_111\n      jump\t// in\n    tag_211:\n        /* \"#utility.yul\":7981:8018   */\n      swap1\n      pop\n        /* \"#utility.yul\":8073:8077   */\n      0x20\n        /* \"#utility.yul\":8067:8071   */\n      dup2\n        /* \"#utility.yul\":8063:8078   */\n      add\n        /* \"#utility.yul\":8055:8078   */\n      swap1\n      pop\n        /* \"#utility.yul\":7777:8085   */\n      swap2\n      swap1\n      pop\n      jump\t// out\n        /* \"#utility.yul\":8091:8245   */\n    tag_131:\n        /* \"#utility.yul\":8175:8181   */\n      dup3\n        /* \"#utility.yul\":8170:8173   */\n      dup2\n        /* \"#utility.yul\":8165:8168   */\n      dup4\n        /* \"#utility.yul\":8152:8182   */\n      calldatacopy\n        /* \"#utility.yul\":8237:8238   */\n      0x00\n        /* \"#utility.yul\":8228:8234   */\n      dup4\n        /* \"#utility.yul\":8223:8226   */\n      dup4\n        /* \"#utility.yul\":8219:8235   */\n      add\n        /* \"#utility.yul\":8212:8239   */\n      mstore\n        /* \"#utility.yul\":8091:8245   */\n      pop\n      pop\n      pop\n      jump\t// out\n        /* \"#utility.yul\":8251:8663   */\n    tag_132:\n        /* \"#utility.yul\":8329:8334   */\n      0x00\n        /* \"#utility.yul\":8354:8420   */\n      tag_214\n        /* \"#utility.yul\":8370:8419   */\n      tag_215\n        /* \"#utility.yul\":8412:8418   */\n      dup5\n        /* \"#utility.yul\":8370:8419   */\n      tag_130\n      jump\t// in\n    tag_215:\n        /* \"#utility.yul\":8354:8420   */\n      tag_129\n      jump\t// in\n    tag_214:\n        /* \"#utility.yul\":8345:8420   */\n      swap1\n      pop\n        /* \"#utility.yul\":8443:8449   */\n      dup3\n        /* \"#utility.yul\":8436:8441   */\n      dup2\n        /* \"#utility.yul\":8429:8450   */\n      mstore\n        /* \"#utility.yul\":8481:8485   */\n      0x20\n        /* \"#utility.yul\":8474:8479   */\n      dup2\n        /* \"#utility.yul\":8470:8486   */\n      add\n        /* \"#utility.yul\":8519:8522   */\n      dup5\n        /* \"#utility.yul\":8510:8516   */\n      dup5\n        /* \"#utility.yul\":8505:8508   */\n      dup5\n        /* \"#utility.yul\":8501:8517   */\n      add\n        /* \"#utility.yul\":8498:8523   */\n      gt\n        /* \"#utility.yul\":8495:8607   */\n      iszero\n      tag_216\n      jumpi\n        /* \"#utility.yul\":8526:8605   */\n      tag_217\n      tag_126\n      jump\t// in\n    tag_217:\n        /* \"#utility.yul\":8495:8607   */\n    tag_216:\n        /* \"#utility.yul\":8616:8657   */\n      tag_218\n        /* \"#utility.yul\":8650:8656   */\n      dup5\n        /* \"#utility.yul\":8645:8648   */\n      dup3\n        /* \"#utility.yul\":8640:8643   */\n      dup6\n        /* \"#utility.yul\":8616:8657   */\n      tag_131\n      jump\t// in\n    tag_218:\n        /* \"#utility.yul\":8335:8663   */\n      pop\n        /* \"#utility.yul\":8251:8663   */\n      swap4\n      swap3\n      pop\n      pop\n      pop\n      jump\t// out\n        /* \"#utility.yul\":8683:9023   */\n    tag_133:\n        /* \"#utility.yul\":8739:8744   */\n      0x00\n        /* \"#utility.yul\":8788:8791   */\n      dup3\n        /* \"#utility.yul\":8781:8785   */\n      0x1f\n        /* \"#utility.yul\":8773:8779   */\n      dup4\n        /* \"#utility.yul\":8769:8786   */\n      add\n        /* \"#utility.yul\":8765:8792   */\n      slt\n        /* \"#utility.yul\":8755:8877   */\n      tag_220\n      jumpi\n        /* \"#utility.yul\":8796:8875   */\n      tag_221\n      tag_125\n      jump\t// in\n    tag_221:\n        /* \"#utility.yul\":8755:8877   */\n    tag_220:\n        /* \"#utility.yul\":8913:8919   */\n      dup2\n        /* \"#utility.yul\":8900:8920   */\n      calldataload\n        /* \"#utility.yul\":8938:9017   */\n      tag_222\n        /* \"#utility.yul\":9013:9016   */\n      dup5\n        /* \"#utility.yul\":9005:9011   */\n      dup3\n        /* \"#utility.yul\":8998:9002   */\n      0x20\n        /* \"#utility.yul\":8990:8996   */\n      dup7\n        /* \"#utility.yul\":8986:9003   */\n      add\n        /* \"#utility.yul\":8938:9017   */\n      tag_132\n      jump\t// in\n    tag_222:\n        /* \"#utility.yul\":8929:9017   */\n      swap2\n      pop\n        /* \"#utility.yul\":8745:9023   */\n      pop\n        /* \"#utility.yul\":8683:9023   */\n      swap3\n      swap2\n      pop\n      pop\n      jump\t// out\n        /* \"#utility.yul\":9029:9863   */\n    tag_27:\n        /* \"#utility.yul\":9117:9123   */\n      0x00\n        /* \"#utility.yul\":9125:9131   */\n      dup1\n        /* \"#utility.yul\":9174:9176   */\n      0x40\n        /* \"#utility.yul\":9162:9171   */\n      dup4\n        /* \"#utility.yul\":9153:9160   */\n      dup6\n        /* \"#utility.yul\":9149:9172   */\n      sub\n        /* \"#utility.yul\":9145:9177   */\n      slt\n        /* \"#utility.yul\":9142:9261   */\n      iszero\n      tag_224\n      jumpi\n        /* \"#utility.yul\":9180:9259   */\n      tag_225\n      tag_103\n      jump\t// in\n    tag_225:\n        /* \"#utility.yul\":9142:9261   */\n    tag_224:\n        /* \"#utility.yul\":9328:9329   */\n      0x00\n        /* \"#utility.yul\":9317:9326   */\n      dup4\n        /* \"#utility.yul\":9313:9330   */\n      add\n        /* \"#utility.yul\":9300:9331   */\n      calldataload\n        /* \"#utility.yul\":9358:9376   */\n      0xffffffffffffffff\n        /* \"#utility.yul\":9350:9356   */\n      dup2\n        /* \"#utility.yul\":9347:9377   */\n      gt\n        /* \"#utility.yul\":9344:9461   */\n      iszero\n      tag_226\n      jumpi\n        /* \"#utility.yul\":9380:9459   */\n      tag_227\n      tag_104\n      jump\t// in\n    tag_227:\n        /* \"#utility.yul\":9344:9461   */\n    tag_226:\n        /* \"#utility.yul\":9485:9548   */\n      tag_228\n        /* \"#utility.yul\":9540:9547   */\n      dup6\n        /* \"#utility.yul\":9531:9537   */\n      dup3\n        /* \"#utility.yul\":9520:9529   */\n      dup7\n        /* \"#utility.yul\":9516:9538   */\n      add\n        /* \"#utility.yul\":9485:9548   */\n      tag_133\n      jump\t// in\n    tag_228:\n        /* \"#utility.yul\":9475:9548   */\n      swap3\n      pop\n        /* \"#utility.yul\":9271:9558   */\n      pop\n        /* \"#utility.yul\":9625:9627   */\n      0x20\n        /* \"#utility.yul\":9614:9623   */\n      dup4\n        /* \"#utility.yul\":9610:9628   */\n      add\n        /* \"#utility.yul\":9597:9629   */\n      calldataload\n        /* \"#utility.yul\":9656:9674   */\n      0xffffffffffffffff\n        /* \"#utility.yul\":9648:9654   */\n      dup2\n        /* \"#utility.yul\":9645:9675   */\n      gt\n        /* \"#utility.yul\":9642:9759   */\n      iszero\n      tag_229\n      jumpi\n        /* \"#utility.yul\":9678:9757   */\n      tag_230\n      tag_104\n      jump\t// in\n    tag_230:\n        /* \"#utility.yul\":9642:9759   */\n    tag_229:\n        /* \"#utility.yul\":9783:9846   */\n      tag_231\n        /* \"#utility.yul\":9838:9845   */\n      dup6\n        /* \"#utility.yul\":9829:9835   */\n      dup3\n        /* \"#utility.yul\":9818:9827   */\n      dup7\n        /* \"#utility.yul\":9814:9836   */\n      add\n        /* \"#utility.yul\":9783:9846   */\n      tag_133\n      jump\t// in\n    tag_231:\n        /* \"#utility.yul\":9773:9846   */\n      swap2\n      pop\n        /* \"#utility.yul\":9568:9856   */\n      pop\n        /* \"#utility.yul\":9029:9863   */\n      swap3\n      pop\n      swap3\n      swap1\n      pop\n      jump\t// out\n        /* \"#utility.yul\":9869:10848   */\n    tag_31:\n        /* \"#utility.yul\":9966:9972   */\n      0x00\n        /* \"#utility.yul\":9974:9980   */\n      dup1\n        /* \"#utility.yul\":9982:9988   */\n      0x00\n        /* \"#utility.yul\":10031:10033   */\n      0x60\n        /* \"#utility.yul\":10019:10028   */\n      dup5\n        /* \"#utility.yul\":10010:10017   */\n      dup7\n        /* \"#utility.yul\":10006:10029   */\n      sub\n        /* \"#utility.yul\":10002:10034   */\n      slt\n        /* \"#utility.yul\":9999:10118   */\n      iszero\n      tag_233\n      jumpi\n        /* \"#utility.yul\":10037:10116   */\n      tag_234\n      tag_103\n      jump\t// in\n    tag_234:\n        /* \"#utility.yul\":9999:10118   */\n    tag_233:\n        /* \"#utility.yul\":10157:10158   */\n      0x00\n        /* \"#utility.yul\":10182:10235   */\n      tag_235\n        /* \"#utility.yul\":10227:10234   */\n      dup7\n        /* \"#utility.yul\":10218:10224   */\n      dup3\n        /* \"#utility.yul\":10207:10216   */\n      dup8\n        /* \"#utility.yul\":10203:10225   */\n      add\n        /* \"#utility.yul\":10182:10235   */\n      tag_107\n      jump\t// in\n    tag_235:\n        /* \"#utility.yul\":10172:10235   */\n      swap4\n      pop\n        /* \"#utility.yul\":10128:10245   */\n      pop\n        /* \"#utility.yul\":10312:10314   */\n      0x20\n        /* \"#utility.yul\":10301:10310   */\n      dup5\n        /* \"#utility.yul\":10297:10315   */\n      add\n        /* \"#utility.yul\":10284:10316   */\n      calldataload\n        /* \"#utility.yul\":10343:10361   */\n      0xffffffffffffffff\n        /* \"#utility.yul\":10335:10341   */\n      dup2\n        /* \"#utility.yul\":10332:10362   */\n      gt\n        /* \"#utility.yul\":10329:10446   */\n      iszero\n      tag_236\n      jumpi\n        /* \"#utility.yul\":10365:10444   */\n      tag_237\n      tag_104\n      jump\t// in\n    tag_237:\n        /* \"#utility.yul\":10329:10446   */\n    tag_236:\n        /* \"#utility.yul\":10470:10533   */\n      tag_238\n        /* \"#utility.yul\":10525:10532   */\n      dup7\n        /* \"#utility.yul\":10516:10522   */\n      dup3\n        /* \"#utility.yul\":10505:10514   */\n      dup8\n        /* \"#utility.yul\":10501:10523   */\n      add\n        /* \"#utility.yul\":10470:10533   */\n      tag_133\n      jump\t// in\n    tag_238:\n        /* \"#utility.yul\":10460:10533   */\n      swap3\n      pop\n        /* \"#utility.yul\":10255:10543   */\n      pop\n        /* \"#utility.yul\":10610:10612   */\n      0x40\n        /* \"#utility.yul\":10599:10608   */\n      dup5\n        /* \"#utility.yul\":10595:10613   */\n      add\n        /* \"#utility.yul\":10582:10614   */\n      calldataload\n        /* \"#utility.yul\":10641:10659   */\n      0xffffffffffffffff\n        /* \"#utility.yul\":10633:10639   */\n      dup2\n        /* \"#utility.yul\":10630:10660   */\n      gt\n        /* \"#utility.yul\":10627:10744   */\n      iszero\n      tag_239\n      jumpi\n        /* \"#utility.yul\":10663:10742   */\n      tag_240\n      tag_104\n      jump\t// in\n    tag_240:\n        /* \"#utility.yul\":10627:10744   */\n    tag_239:\n        /* \"#utility.yul\":10768:10831   */\n      tag_241\n        /* \"#utility.yul\":10823:10830   */\n      dup7\n        /* \"#utility.yul\":10814:10820   */\n      dup3\n        /* \"#utility.yul\":10803:10812   */\n      dup8\n        /* \"#utility.yul\":10799:10821   */\n      add\n        /* \"#utility.yul\":10768:10831   */\n      tag_133\n      jump\t// in\n    tag_241:\n        /* \"#utility.yul\":10758:10831   */\n      swap2\n      pop\n        /* \"#utility.yul\":10553:10841   */\n      pop\n        /* \"#utility.yul\":9869:10848   */\n      swap3\n      pop\n      swap3\n      pop\n      swap3\n      jump\t// out\n        /* \"#utility.yul\":10854:11034   */\n    tag_134:\n        /* \"#utility.yul\":10902:10979   */\n      0x4e487b7100000000000000000000000000000000000000000000000000000000\n        /* \"#utility.yul\":10899:10900   */\n      0x00\n        /* \"#utility.yul\":10892:10980   */\n      mstore\n        /* \"#utility.yul\":10999:11003   */\n      0x22\n        /* \"#utility.yul\":10996:10997   */\n      0x04\n        /* \"#utility.yul\":10989:11004   */\n      mstore\n        /* \"#utility.yul\":11023:11027   */\n      0x24\n        /* \"#utility.yul\":11020:11021   */\n      0x00\n        /* \"#utility.yul\":11013:11028   */\n      revert\n        /* \"#utility.yul\":11040:11360   */\n    tag_36:\n        /* \"#utility.yul\":11084:11090   */\n      0x00\n        /* \"#utility.yul\":11121:11122   */\n      0x02\n        /* \"#utility.yul\":11115:11119   */\n      dup3\n        /* \"#utility.yul\":11111:11123   */\n      div\n        /* \"#utility.yul\":11101:11123   */\n      swap1\n      pop\n        /* \"#utility.yul\":11168:11169   */\n      0x01\n        /* \"#utility.yul\":11162:11166   */\n      dup3\n        /* \"#utility.yul\":11158:11170   */\n      and\n        /* \"#utility.yul\":11189:11207   */\n      dup1\n        /* \"#utility.yul\":11179:11260   */\n      tag_244\n      jumpi\n        /* \"#utility.yul\":11245:11249   */\n      0x7f\n        /* \"#utility.yul\":11237:11243   */\n      dup3\n        /* \"#utility.yul\":11233:11250   */\n      and\n        /* \"#utility.yul\":11223:11250   */\n      swap2\n      pop\n        /* \"#utility.yul\":11179:11260   */\n    tag_244:\n        /* \"#utility.yul\":11307:11309   */\n      0x20\n        /* \"#utility.yul\":11299:11305   */\n      dup3\n        /* \"#utility.yul\":11296:11310   */\n      lt\n        /* \"#utility.yul\":11276:11294   */\n      dup2\n        /* \"#utility.yul\":11273:11311   */\n      eq\n        /* \"#utility.yul\":11270:11354   */\n      iszero\n      tag_245\n      jumpi\n        /* \"#utility.yul\":11326:11344   */\n      tag_246\n      tag_134\n      jump\t// in\n    tag_246:\n        /* \"#utility.yul\":11270:11354   */\n    tag_245:\n        /* \"#utility.yul\":11091:11360   */\n      pop\n        /* \"#utility.yul\":11040:11360   */\n      swap2\n      swap1\n      pop\n      jump\t// out\n        /* \"#utility.yul\":11366:11546   */\n    tag_49:\n        /* \"#utility.yul\":11414:11491   */\n      0x4e487b7100000000000000000000000000000000000000000000000000000000\n        /* \"#utility.yul\":11411:11412   */\n      0x00\n        /* \"#utility.yul\":11404:11492   */\n      mstore\n        /* \"#utility.yul\":11511:11515   */\n      0x32\n        /* \"#utility.yul\":11508:11509   */\n      0x04\n        /* \"#utility.yul\":11501:11516   */\n      mstore\n        /* \"#utility.yul\":11535:11539   */\n      0x24\n        /* \"#utility.yul\":11532:11533   */\n      0x00\n        /* \"#utility.yul\":11525:11540   */\n      revert\n\n    auxdata: 0xa2646970667358221220cd11ed55875890c78317580fe07150be80a066252ea044b676eb2f38c5e1352364736f6c63430008090033\n}\n",
				"bytecode": {
					"linkReferences": {},
					"object": "608060405234801561001057600080fd5b50610d3c806100206000396000f3fe608060405234801561001057600080fd5b50600436106100625760003560e01c80632a1c52a514610067578063560f319214610099578063613137a4146100b5578063a31662d2146100d1578063b37b1000146100ef578063c72ef41f1461010b575b600080fd5b610081600480360381019061007c9190610784565b610127565b60405161009093929190610865565b60405180910390f35b6100b360048036038101906100ae9190610784565b61027e565b005b6100cf60048036038101906100ca9190610784565b6102da565b005b6100d961034d565b6040516100e69190610a1c565b60405180910390f35b61010960048036038101906101049190610b73565b6104eb565b005b61012560048036038101906101209190610beb565b610592565b005b6000818154811061013757600080fd5b906000526020600020906003020160009150905080600001805461015a90610ca5565b80601f016020809104026020016040519081016040528092919081815260200182805461018690610ca5565b80156101d35780601f106101a8576101008083540402835291602001916101d3565b820191906000526020600020905b8154815290600101906020018083116101b657829003601f168201915b5050505050908060010180546101e890610ca5565b80601f016020809104026020016040519081016040528092919081815260200182805461021490610ca5565b80156102615780601f1061023657610100808354040283529160200191610261565b820191906000526020600020905b81548152906001019060200180831161024457829003601f168201915b5050505050908060020160009054906101000a900460ff16905083565b6000818154811061029257610291610cd7565b5b9060005260206000209060030201600080820160006102b19190610634565b6001820160006102c19190610634565b6002820160006101000a81549060ff0219169055505050565b600081815481106102ee576102ed610cd7565b5b906000526020600020906003020160020160009054906101000a900460ff16156000828154811061032257610321610cd7565b5b906000526020600020906003020160020160006101000a81548160ff02191690831515021790555050565b60606000805480602002602001604051908101604052809291908181526020016000905b828210156104e257838290600052602060002090600302016040518060600160405290816000820180546103a490610ca5565b80601f01602080910402602001604051908101604052809291908181526020018280546103d090610ca5565b801561041d5780601f106103f25761010080835404028352916020019161041d565b820191906000526020600020905b81548152906001019060200180831161040057829003601f168201915b5050505050815260200160018201805461043690610ca5565b80601f016020809104026020016040519081016040528092919081815260200182805461046290610ca5565b80156104af5780601f10610484576101008083540402835291602001916104af565b820191906000526020600020905b81548152906001019060200180831161049257829003601f168201915b505050505081526020016002820160009054906101000a900460ff16151515158152505081526020019060010190610371565b50505050905090565b6104f3610674565b8281600001819052508181602001819052506000819080600181540180825580915050600190039060005260206000209060030201600090919091909150600082015181600001908051906020019061054d929190610697565b50602082015181600101908051906020019061056a929190610697565b5060408201518160020160006101000a81548160ff0219169083151502179055505050505050565b604051806060016040528083815260200182815260200160001515815250600084815481106105c4576105c3610cd7565b5b906000526020600020906003020160008201518160000190805190602001906105ee929190610697565b50602082015181600101908051906020019061060b929190610697565b5060408201518160020160006101000a81548160ff021916908315150217905550905050505050565b50805461064090610ca5565b6000825580601f106106525750610671565b601f016020900490600052602060002090810190610670919061071d565b5b50565b604051806060016040528060608152602001606081526020016000151581525090565b8280546106a390610ca5565b90600052602060002090601f0160209004810192826106c5576000855561070c565b82601f106106de57805160ff191683800117855561070c565b8280016001018555821561070c579182015b8281111561070b5782518255916020019190600101906106f0565b5b509050610719919061071d565b5090565b5b8082111561073657600081600090555060010161071e565b5090565b6000604051905090565b600080fd5b600080fd5b6000819050919050565b6107618161074e565b811461076c57600080fd5b50565b60008135905061077e81610758565b92915050565b60006020828403121561079a57610799610744565b5b60006107a88482850161076f565b91505092915050565b600081519050919050565b600082825260208201905092915050565b60005b838110156107eb5780820151818401526020810190506107d0565b838111156107fa576000848401525b50505050565b6000601f19601f8301169050919050565b600061081c826107b1565b61082681856107bc565b93506108368185602086016107cd565b61083f81610800565b840191505092915050565b60008115159050919050565b61085f8161084a565b82525050565b6000606082019050818103600083015261087f8186610811565b905081810360208301526108938185610811565b90506108a26040830184610856565b949350505050565b600081519050919050565b600082825260208201905092915050565b6000819050602082019050919050565b600082825260208201905092915050565b60006108f2826107b1565b6108fc81856108d6565b935061090c8185602086016107cd565b61091581610800565b840191505092915050565b6109298161084a565b82525050565b6000606083016000830151848203600086015261094c82826108e7565b9150506020830151848203602086015261096682826108e7565b915050604083015161097b6040860182610920565b508091505092915050565b6000610992838361092f565b905092915050565b6000602082019050919050565b60006109b2826108aa565b6109bc81856108b5565b9350836020820285016109ce856108c6565b8060005b85811015610a0a57848403895281516109eb8582610986565b94506109f68361099a565b925060208a019950506001810190506109d2565b50829750879550505050505092915050565b60006020820190508181036000830152610a3681846109a7565b905092915050565b600080fd5b600080fd5b7f4e487b7100000000000000000000000000000000000000000000000000000000600052604160045260246000fd5b610a8082610800565b810181811067ffffffffffffffff82111715610a9f57610a9e610a48565b5b80604052505050565b6000610ab261073a565b9050610abe8282610a77565b919050565b600067ffffffffffffffff821115610ade57610add610a48565b5b610ae782610800565b9050602081019050919050565b82818337600083830152505050565b6000610b16610b1184610ac3565b610aa8565b905082815260208101848484011115610b3257610b31610a43565b5b610b3d848285610af4565b509392505050565b600082601f830112610b5a57610b59610a3e565b5b8135610b6a848260208601610b03565b91505092915050565b60008060408385031215610b8a57610b89610744565b5b600083013567ffffffffffffffff811115610ba857610ba7610749565b5b610bb485828601610b45565b925050602083013567ffffffffffffffff811115610bd557610bd4610749565b5b610be185828601610b45565b9150509250929050565b600080600060608486031215610c0457610c03610744565b5b6000610c128682870161076f565b935050602084013567ffffffffffffffff811115610c3357610c32610749565b5b610c3f86828701610b45565b925050604084013567ffffffffffffffff811115610c6057610c5f610749565b5b610c6c86828701610b45565b9150509250925092565b7f4e487b7100000000000000000000000000000000000000000000000000000000600052602260045260246000fd5b60006002820490506001821680610cbd57607f821691505b60208210811415610cd157610cd0610c76565b5b50919050565b7f4e487b7100000000000000000000000000000000000000000000000000000000600052603260045260246000fdfea2646970667358221220cd11ed55875890c78317580fe07150be80a066252ea044b676eb2f38c5e1352364736f6c63430008090033",
					"opcodes": "PUSH1 0x80 PUSH1 0x40 MSTORE CALLVALUE DUP1 ISZERO PUSH2 0x10 JUMPI PUSH1 0x0 DUP1 REVERT JUMPDEST POP PUSH2 0xD3C DUP1 PUSH2 0x20 PUSH1 0x0 CODECOPY PUSH1 0x0 RETURN INVALID PUSH1 0x80 PUSH1 0x40 MSTORE CALLVALUE DUP1 ISZERO PUSH2 0x10 JUMPI PUSH1 0x0 DUP1 REVERT JUMPDEST POP PUSH1 0x4 CALLDATASIZE LT PUSH2 0x62 JUMPI PUSH1 0x0 CALLDATALOAD PUSH1 0xE0 SHR DUP1 PUSH4 0x2A1C52A5 EQ PUSH2 0x67 JUMPI DUP1 PUSH4 0x560F3192 EQ PUSH2 0x99 JUMPI DUP1 PUSH4 0x613137A4 EQ PUSH2 0xB5 JUMPI DUP1 PUSH4 0xA31662D2 EQ PUSH2 0xD1 JUMPI DUP1 PUSH4 0xB37B1000 EQ PUSH2 0xEF JUMPI DUP1 PUSH4 0xC72EF41F EQ PUSH2 0x10B JUMPI JUMPDEST PUSH1 0x0 DUP1 REVERT JUMPDEST PUSH2 0x81 PUSH1 0x4 DUP1 CALLDATASIZE SUB DUP2 ADD SWAP1 PUSH2 0x7C SWAP2 SWAP1 PUSH2 0x784 JUMP JUMPDEST PUSH2 0x127 JUMP JUMPDEST PUSH1 0x40 MLOAD PUSH2 0x90 SWAP4 SWAP3 SWAP2 SWAP1 PUSH2 0x865 JUMP JUMPDEST PUSH1 0x40 MLOAD DUP1 SWAP2 SUB SWAP1 RETURN JUMPDEST PUSH2 0xB3 PUSH1 0x4 DUP1 CALLDATASIZE SUB DUP2 ADD SWAP1 PUSH2 0xAE SWAP2 SWAP1 PUSH2 0x784 JUMP JUMPDEST PUSH2 0x27E JUMP JUMPDEST STOP JUMPDEST PUSH2 0xCF PUSH1 0x4 DUP1 CALLDATASIZE SUB DUP2 ADD SWAP1 PUSH2 0xCA SWAP2 SWAP1 PUSH2 0x784 JUMP JUMPDEST PUSH2 0x2DA JUMP JUMPDEST STOP JUMPDEST PUSH2 0xD9 PUSH2 0x34D JUMP JUMPDEST PUSH1 0x40 MLOAD PUSH2 0xE6 SWAP2 SWAP1 PUSH2 0xA1C JUMP JUMPDEST PUSH1 0x40 MLOAD DUP1 SWAP2 SUB SWAP1 RETURN JUMPDEST PUSH2 0x109 PUSH1 0x4 DUP1 CALLDATASIZE SUB DUP2 ADD SWAP1 PUSH2 0x104 SWAP2 SWAP1 PUSH2 0xB73 JUMP JUMPDEST PUSH2 0x4EB JUMP JUMPDEST STOP JUMPDEST PUSH2 0x125 PUSH1 0x4 DUP1 CALLDATASIZE SUB DUP2 ADD SWAP1 PUSH2 0x120 SWAP2 SWAP1 PUSH2 0xBEB JUMP JUMPDEST PUSH2 0x592 JUMP JUMPDEST STOP JUMPDEST PUSH1 0x0 DUP2 DUP2 SLOAD DUP2 LT PUSH2 0x137 JUMPI PUSH1 0x0 DUP1 REVERT JUMPDEST SWAP1 PUSH1 0x0 MSTORE PUSH1 0x20 PUSH1 0x0 KECCAK256 SWAP1 PUSH1 0x3 MUL ADD PUSH1 0x0 SWAP2 POP SWAP1 POP DUP1 PUSH1 0x0 ADD DUP1 SLOAD PUSH2 0x15A SWAP1 PUSH2 0xCA5 JUMP JUMPDEST DUP1 PUSH1 0x1F ADD PUSH1 0x20 DUP1 SWAP2 DIV MUL PUSH1 0x20 ADD PUSH1 0x40 MLOAD SWAP1 DUP2 ADD PUSH1 0x40 MSTORE DUP1 SWAP3 SWAP2 SWAP1 DUP2 DUP2 MSTORE PUSH1 0x20 ADD DUP3 DUP1 SLOAD PUSH2 0x186 SWAP1 PUSH2 0xCA5 JUMP JUMPDEST DUP1 ISZERO PUSH2 0x1D3 JUMPI DUP1 PUSH1 0x1F LT PUSH2 0x1A8 JUMPI PUSH2 0x100 DUP1 DUP4 SLOAD DIV MUL DUP4 MSTORE SWAP2 PUSH1 0x20 ADD SWAP2 PUSH2 0x1D3 JUMP JUMPDEST DUP3 ADD SWAP2 SWAP1 PUSH1 0x0 MSTORE PUSH1 0x20 PUSH1 0x0 KECCAK256 SWAP1 JUMPDEST DUP2 SLOAD DUP2 MSTORE SWAP1 PUSH1 0x1 ADD SWAP1 PUSH1 0x20 ADD DUP1 DUP4 GT PUSH2 0x1B6 JUMPI DUP3 SWAP1 SUB PUSH1 0x1F AND DUP3 ADD SWAP2 JUMPDEST POP POP POP POP POP SWAP1 DUP1 PUSH1 0x1 ADD DUP1 SLOAD PUSH2 0x1E8 SWAP1 PUSH2 0xCA5 JUMP JUMPDEST DUP1 PUSH1 0x1F ADD PUSH1 0x20 DUP1 SWAP2 DIV MUL PUSH1 0x20 ADD PUSH1 0x40 MLOAD SWAP1 DUP2 ADD PUSH1 0x40 MSTORE DUP1 SWAP3 SWAP2 SWAP1 DUP2 DUP2 MSTORE PUSH1 0x20 ADD DUP3 DUP1 SLOAD PUSH2 0x214 SWAP1 PUSH2 0xCA5 JUMP JUMPDEST DUP1 ISZERO PUSH2 0x261 JUMPI DUP1 PUSH1 0x1F LT PUSH2 0x236 JUMPI PUSH2 0x100 DUP1 DUP4 SLOAD DIV MUL DUP4 MSTORE SWAP2 PUSH1 0x20 ADD SWAP2 PUSH2 0x261 JUMP JUMPDEST DUP3 ADD SWAP2 SWAP1 PUSH1 0x0 MSTORE PUSH1 0x20 PUSH1 0x0 KECCAK256 SWAP1 JUMPDEST DUP2 SLOAD DUP2 MSTORE SWAP1 PUSH1 0x1 ADD SWAP1 PUSH1 0x20 ADD DUP1 DUP4 GT PUSH2 0x244 JUMPI DUP3 SWAP1 SUB PUSH1 0x1F AND DUP3 ADD SWAP2 JUMPDEST POP POP POP POP POP SWAP1 DUP1 PUSH1 0x2 ADD PUSH1 0x0 SWAP1 SLOAD SWAP1 PUSH2 0x100 EXP SWAP1 DIV PUSH1 0xFF AND SWAP1 POP DUP4 JUMP JUMPDEST PUSH1 0x0 DUP2 DUP2 SLOAD DUP2 LT PUSH2 0x292 JUMPI PUSH2 0x291 PUSH2 0xCD7 JUMP JUMPDEST JUMPDEST SWAP1 PUSH1 0x0 MSTORE PUSH1 0x20 PUSH1 0x0 KECCAK256 SWAP1 PUSH1 0x3 MUL ADD PUSH1 0x0 DUP1 DUP3 ADD PUSH1 0x0 PUSH2 0x2B1 SWAP2 SWAP1 PUSH2 0x634 JUMP JUMPDEST PUSH1 0x1 DUP3 ADD PUSH1 0x0 PUSH2 0x2C1 SWAP2 SWAP1 PUSH2 0x634 JUMP JUMPDEST PUSH1 0x2 DUP3 ADD PUSH1 0x0 PUSH2 0x100 EXP DUP2 SLOAD SWAP1 PUSH1 0xFF MUL NOT AND SWAP1 SSTORE POP POP POP JUMP JUMPDEST PUSH1 0x0 DUP2 DUP2 SLOAD DUP2 LT PUSH2 0x2EE JUMPI PUSH2 0x2ED PUSH2 0xCD7 JUMP JUMPDEST JUMPDEST SWAP1 PUSH1 0x0 MSTORE PUSH1 0x20 PUSH1 0x0 KECCAK256 SWAP1 PUSH1 0x3 MUL ADD PUSH1 0x2 ADD PUSH1 0x0 SWAP1 SLOAD SWAP1 PUSH2 0x100 EXP SWAP1 DIV PUSH1 0xFF AND ISZERO PUSH1 0x0 DUP3 DUP2 SLOAD DUP2 LT PUSH2 0x322 JUMPI PUSH2 0x321 PUSH2 0xCD7 JUMP JUMPDEST JUMPDEST SWAP1 PUSH1 0x0 MSTORE PUSH1 0x20 PUSH1 0x0 KECCAK256 SWAP1 PUSH1 0x3 MUL ADD PUSH1 0x2 ADD PUSH1 0x0 PUSH2 0x100 EXP DUP2 SLOAD DUP2 PUSH1 0xFF MUL NOT AND SWAP1 DUP4 ISZERO ISZERO MUL OR SWAP1 SSTORE POP POP JUMP JUMPDEST PUSH1 0x60 PUSH1 0x0 DUP1 SLOAD DUP1 PUSH1 0x20 MUL PUSH1 0x20 ADD PUSH1 0x40 MLOAD SWAP1 DUP2 ADD PUSH1 0x40 MSTORE DUP1 SWAP3 SWAP2 SWAP1 DUP2 DUP2 MSTORE PUSH1 0x20 ADD PUSH1 0x0 SWAP1 JUMPDEST DUP3 DUP3 LT ISZERO PUSH2 0x4E2 JUMPI DUP4 DUP3 SWAP1 PUSH1 0x0 MSTORE PUSH1 0x20 PUSH1 0x0 KECCAK256 SWAP1 PUSH1 0x3 MUL ADD PUSH1 0x40 MLOAD DUP1 PUSH1 0x60 ADD PUSH1 0x40 MSTORE SWAP1 DUP2 PUSH1 0x0 DUP3 ADD DUP1 SLOAD PUSH2 0x3A4 SWAP1 PUSH2 0xCA5 JUMP JUMPDEST DUP1 PUSH1 0x1F ADD PUSH1 0x20 DUP1 SWAP2 DIV MUL PUSH1 0x20 ADD PUSH1 0x40 MLOAD SWAP1 DUP2 ADD PUSH1 0x40 MSTORE DUP1 SWAP3 SWAP2 SWAP1 DUP2 DUP2 MSTORE PUSH1 0x20 ADD DUP3 DUP1 SLOAD PUSH2 0x3D0 SWAP1 PUSH2 0xCA5 JUMP JUMPDEST DUP1 ISZERO PUSH2 0x41D JUMPI DUP1 PUSH1 0x1F LT PUSH2 0x3F2 JUMPI PUSH2 0x100 DUP1 DUP4 SLOAD DIV MUL DUP4 MSTORE SWAP2 PUSH1 0x20 ADD SWAP2 PUSH2 0x41D JUMP JUMPDEST DUP3 ADD SWAP2 SWAP1 PUSH1 0x0 MSTORE PUSH1 0x20 PUSH1 0x0 KECCAK256 SWAP1 JUMPDEST DUP2 SLOAD DUP2 MSTORE SWAP1 PUSH1 0x1 ADD SWAP1 PUSH1 0x20 ADD DUP1 DUP4 GT PUSH2 0x400 JUMPI DUP3 SWAP1 SUB PUSH1 0x1F AND DUP3 ADD SWAP2 JUMPDEST POP POP POP POP POP DUP2 MSTORE PUSH1 0x20 ADD PUSH1 0x1 DUP3 ADD DUP1 SLOAD PUSH2 0x436 SWAP1 PUSH2 0xCA5 JUMP JUMPDEST DUP1 PUSH1 0x1F ADD PUSH1 0x20 DUP1 SWAP2 DIV MUL PUSH1 0x20 ADD PUSH1 0x40 MLOAD SWAP1 DUP2 ADD PUSH1 0x40 MSTORE DUP1 SWAP3 SWAP2 SWAP1 DUP2 DUP2 MSTORE PUSH1 0x20 ADD DUP3 DUP1 SLOAD PUSH2 0x462 SWAP1 PUSH2 0xCA5 JUMP JUMPDEST DUP1 ISZERO PUSH2 0x4AF JUMPI DUP1 PUSH1 0x1F LT PUSH2 0x484 JUMPI PUSH2 0x100 DUP1 DUP4 SLOAD DIV MUL DUP4 MSTORE SWAP2 PUSH1 0x20 ADD SWAP2 PUSH2 0x4AF JUMP JUMPDEST DUP3 ADD SWAP2 SWAP1 PUSH1 0x0 MSTORE PUSH1 0x20 PUSH1 0x0 KECCAK256 SWAP1 JUMPDEST DUP2 SLOAD DUP2 MSTORE SWAP1 PUSH1 0x1 ADD SWAP1 PUSH1 0x20 ADD DUP1 DUP4 GT PUSH2 0x492 JUMPI DUP3 SWAP1 SUB PUSH1 0x1F AND DUP3 ADD SWAP2 JUMPDEST POP POP POP POP POP DUP2 MSTORE PUSH1 0x20 ADD PUSH1 0x2 DUP3 ADD PUSH1 0x0 SWAP1 SLOAD SWAP1 PUSH2 0x100 EXP SWAP1 DIV PUSH1 0xFF AND ISZERO ISZERO ISZERO ISZERO DUP2 MSTORE POP POP DUP2 MSTORE PUSH1 0x20 ADD SWAP1 PUSH1 0x1 ADD SWAP1 PUSH2 0x371 JUMP JUMPDEST POP POP POP POP SWAP1 POP SWAP1 JUMP JUMPDEST PUSH2 0x4F3 PUSH2 0x674 JUMP JUMPDEST DUP3 DUP2 PUSH1 0x0 ADD DUP2 SWAP1 MSTORE POP DUP2 DUP2 PUSH1 0x20 ADD DUP2 SWAP1 MSTORE POP PUSH1 0x0 DUP2 SWAP1 DUP1 PUSH1 0x1 DUP2 SLOAD ADD DUP1 DUP3 SSTORE DUP1 SWAP2 POP POP PUSH1 0x1 SWAP1 SUB SWAP1 PUSH1 0x0 MSTORE PUSH1 0x20 PUSH1 0x0 KECCAK256 SWAP1 PUSH1 0x3 MUL ADD PUSH1 0x0 SWAP1 SWAP2 SWAP1 SWAP2 SWAP1 SWAP2 POP PUSH1 0x0 DUP3 ADD MLOAD DUP2 PUSH1 0x0 ADD SWAP1 DUP1 MLOAD SWAP1 PUSH1 0x20 ADD SWAP1 PUSH2 0x54D SWAP3 SWAP2 SWAP1 PUSH2 0x697 JUMP JUMPDEST POP PUSH1 0x20 DUP3 ADD MLOAD DUP2 PUSH1 0x1 ADD SWAP1 DUP1 MLOAD SWAP1 PUSH1 0x20 ADD SWAP1 PUSH2 0x56A SWAP3 SWAP2 SWAP1 PUSH2 0x697 JUMP JUMPDEST POP PUSH1 0x40 DUP3 ADD MLOAD DUP2 PUSH1 0x2 ADD PUSH1 0x0 PUSH2 0x100 EXP DUP2 SLOAD DUP2 PUSH1 0xFF MUL NOT AND SWAP1 DUP4 ISZERO ISZERO MUL OR SWAP1 SSTORE POP POP POP POP POP POP JUMP JUMPDEST PUSH1 0x40 MLOAD DUP1 PUSH1 0x60 ADD PUSH1 0x40 MSTORE DUP1 DUP4 DUP2 MSTORE PUSH1 0x20 ADD DUP3 DUP2 MSTORE PUSH1 0x20 ADD PUSH1 0x0 ISZERO ISZERO DUP2 MSTORE POP PUSH1 0x0 DUP5 DUP2 SLOAD DUP2 LT PUSH2 0x5C4 JUMPI PUSH2 0x5C3 PUSH2 0xCD7 JUMP JUMPDEST JUMPDEST SWAP1 PUSH1 0x0 MSTORE PUSH1 0x20 PUSH1 0x0 KECCAK256 SWAP1 PUSH1 0x3 MUL ADD PUSH1 0x0 DUP3 ADD MLOAD DUP2 PUSH1 0x0 ADD SWAP1 DUP1 MLOAD SWAP1 PUSH1 0x20 ADD SWAP1 PUSH2 0x5EE SWAP3 SWAP2 SWAP1 PUSH2 0x697 JUMP JUMPDEST POP PUSH1 0x20 DUP3 ADD MLOAD DUP2 PUSH1 0x1 ADD SWAP1 DUP1 MLOAD SWAP1 PUSH1 0x20 ADD SWAP1 PUSH2 0x60B SWAP3 SWAP2 SWAP1 PUSH2 0x697 JUMP JUMPDEST POP PUSH1 0x40 DUP3 ADD MLOAD DUP2 PUSH1 0x2 ADD PUSH1 0x0 PUSH2 0x100 EXP DUP2 SLOAD DUP2 PUSH1 0xFF MUL NOT AND SWAP1 DUP4 ISZERO ISZERO MUL OR SWAP1 SSTORE POP SWAP1 POP POP POP POP POP JUMP JUMPDEST POP DUP1 SLOAD PUSH2 0x640 SWAP1 PUSH2 0xCA5 JUMP JUMPDEST PUSH1 0x0 DUP3 SSTORE DUP1 PUSH1 0x1F LT PUSH2 0x652 JUMPI POP PUSH2 0x671 JUMP JUMPDEST PUSH1 0x1F ADD PUSH1 0x20 SWAP1 DIV SWAP1 PUSH1 0x0 MSTORE PUSH1 0x20 PUSH1 0x0 KECCAK256 SWAP1 DUP2 ADD SWAP1 PUSH2 0x670 SWAP2 SWAP1 PUSH2 0x71D JUMP JUMPDEST JUMPDEST POP JUMP JUMPDEST PUSH1 0x40 MLOAD DUP1 PUSH1 0x60 ADD PUSH1 0x40 MSTORE DUP1 PUSH1 0x60 DUP2 MSTORE PUSH1 0x20 ADD PUSH1 0x60 DUP2 MSTORE PUSH1 0x20 ADD PUSH1 0x0 ISZERO ISZERO DUP2 MSTORE POP SWAP1 JUMP JUMPDEST DUP3 DUP1 SLOAD PUSH2 0x6A3 SWAP1 PUSH2 0xCA5 JUMP JUMPDEST SWAP1 PUSH1 0x0 MSTORE PUSH1 0x20 PUSH1 0x0 KECCAK256 SWAP1 PUSH1 0x1F ADD PUSH1 0x20 SWAP1 DIV DUP2 ADD SWAP3 DUP3 PUSH2 0x6C5 JUMPI PUSH1 0x0 DUP6 SSTORE PUSH2 0x70C JUMP JUMPDEST DUP3 PUSH1 0x1F LT PUSH2 0x6DE JUMPI DUP1 MLOAD PUSH1 0xFF NOT AND DUP4 DUP1 ADD OR DUP6 SSTORE PUSH2 0x70C JUMP JUMPDEST DUP3 DUP1 ADD PUSH1 0x1 ADD DUP6 SSTORE DUP3 ISZERO PUSH2 0x70C JUMPI SWAP2 DUP3 ADD JUMPDEST DUP3 DUP2 GT ISZERO PUSH2 0x70B JUMPI DUP3 MLOAD DUP3 SSTORE SWAP2 PUSH1 0x20 ADD SWAP2 SWAP1 PUSH1 0x1 ADD SWAP1 PUSH2 0x6F0 JUMP JUMPDEST JUMPDEST POP SWAP1 POP PUSH2 0x719 SWAP2 SWAP1 PUSH2 0x71D JUMP JUMPDEST POP SWAP1 JUMP JUMPDEST JUMPDEST DUP1 DUP3 GT ISZERO PUSH2 0x736 JUMPI PUSH1 0x0 DUP2 PUSH1 0x0 SWAP1 SSTORE POP PUSH1 0x1 ADD PUSH2 0x71E JUMP JUMPDEST POP SWAP1 JUMP JUMPDEST PUSH1 0x0 PUSH1 0x40 MLOAD SWAP1 POP SWAP1 JUMP JUMPDEST PUSH1 0x0 DUP1 REVERT JUMPDEST PUSH1 0x0 DUP1 REVERT JUMPDEST PUSH1 0x0 DUP2 SWAP1 POP SWAP2 SWAP1 POP JUMP JUMPDEST PUSH2 0x761 DUP2 PUSH2 0x74E JUMP JUMPDEST DUP2 EQ PUSH2 0x76C JUMPI PUSH1 0x0 DUP1 REVERT JUMPDEST POP JUMP JUMPDEST PUSH1 0x0 DUP2 CALLDATALOAD SWAP1 POP PUSH2 0x77E DUP2 PUSH2 0x758 JUMP JUMPDEST SWAP3 SWAP2 POP POP JUMP JUMPDEST PUSH1 0x0 PUSH1 0x20 DUP3 DUP5 SUB SLT ISZERO PUSH2 0x79A JUMPI PUSH2 0x799 PUSH2 0x744 JUMP JUMPDEST JUMPDEST PUSH1 0x0 PUSH2 0x7A8 DUP5 DUP3 DUP6 ADD PUSH2 0x76F JUMP JUMPDEST SWAP2 POP POP SWAP3 SWAP2 POP POP JUMP JUMPDEST PUSH1 0x0 DUP2 MLOAD SWAP1 POP SWAP2 SWAP1 POP JUMP JUMPDEST PUSH1 0x0 DUP3 DUP3 MSTORE PUSH1 0x20 DUP3 ADD SWAP1 POP SWAP3 SWAP2 POP POP JUMP JUMPDEST PUSH1 0x0 JUMPDEST DUP4 DUP2 LT ISZERO PUSH2 0x7EB JUMPI DUP1 DUP3 ADD MLOAD DUP2 DUP5 ADD MSTORE PUSH1 0x20 DUP2 ADD SWAP1 POP PUSH2 0x7D0 JUMP JUMPDEST DUP4 DUP2 GT ISZERO PUSH2 0x7FA JUMPI PUSH1 0x0 DUP5 DUP5 ADD MSTORE JUMPDEST POP POP POP POP JUMP JUMPDEST PUSH1 0x0 PUSH1 0x1F NOT PUSH1 0x1F DUP4 ADD AND SWAP1 POP SWAP2 SWAP1 POP JUMP JUMPDEST PUSH1 0x0 PUSH2 0x81C DUP3 PUSH2 0x7B1 JUMP JUMPDEST PUSH2 0x826 DUP2 DUP6 PUSH2 0x7BC JUMP JUMPDEST SWAP4 POP PUSH2 0x836 DUP2 DUP6 PUSH1 0x20 DUP7 ADD PUSH2 0x7CD JUMP JUMPDEST PUSH2 0x83F DUP2 PUSH2 0x800 JUMP JUMPDEST DUP5 ADD SWAP2 POP POP SWAP3 SWAP2 POP POP JUMP JUMPDEST PUSH1 0x0 DUP2 ISZERO ISZERO SWAP1 POP SWAP2 SWAP1 POP JUMP JUMPDEST PUSH2 0x85F DUP2 PUSH2 0x84A JUMP JUMPDEST DUP3 MSTORE POP POP JUMP JUMPDEST PUSH1 0x0 PUSH1 0x60 DUP3 ADD SWAP1 POP DUP2 DUP2 SUB PUSH1 0x0 DUP4 ADD MSTORE PUSH2 0x87F DUP2 DUP7 PUSH2 0x811 JUMP JUMPDEST SWAP1 POP DUP2 DUP2 SUB PUSH1 0x20 DUP4 ADD MSTORE PUSH2 0x893 DUP2 DUP6 PUSH2 0x811 JUMP JUMPDEST SWAP1 POP PUSH2 0x8A2 PUSH1 0x40 DUP4 ADD DUP5 PUSH2 0x856 JUMP JUMPDEST SWAP5 SWAP4 POP POP POP POP JUMP JUMPDEST PUSH1 0x0 DUP2 MLOAD SWAP1 POP SWAP2 SWAP1 POP JUMP JUMPDEST PUSH1 0x0 DUP3 DUP3 MSTORE PUSH1 0x20 DUP3 ADD SWAP1 POP SWAP3 SWAP2 POP POP JUMP JUMPDEST PUSH1 0x0 DUP2 SWAP1 POP PUSH1 0x20 DUP3 ADD SWAP1 POP SWAP2 SWAP1 POP JUMP JUMPDEST PUSH1 0x0 DUP3 DUP3 MSTORE PUSH1 0x20 DUP3 ADD SWAP1 POP SWAP3 SWAP2 POP POP JUMP JUMPDEST PUSH1 0x0 PUSH2 0x8F2 DUP3 PUSH2 0x7B1 JUMP JUMPDEST PUSH2 0x8FC DUP2 DUP6 PUSH2 0x8D6 JUMP JUMPDEST SWAP4 POP PUSH2 0x90C DUP2 DUP6 PUSH1 0x20 DUP7 ADD PUSH2 0x7CD JUMP JUMPDEST PUSH2 0x915 DUP2 PUSH2 0x800 JUMP JUMPDEST DUP5 ADD SWAP2 POP POP SWAP3 SWAP2 POP POP JUMP JUMPDEST PUSH2 0x929 DUP2 PUSH2 0x84A JUMP JUMPDEST DUP3 MSTORE POP POP JUMP JUMPDEST PUSH1 0x0 PUSH1 0x60 DUP4 ADD PUSH1 0x0 DUP4 ADD MLOAD DUP5 DUP3 SUB PUSH1 0x0 DUP7 ADD MSTORE PUSH2 0x94C DUP3 DUP3 PUSH2 0x8E7 JUMP JUMPDEST SWAP2 POP POP PUSH1 0x20 DUP4 ADD MLOAD DUP5 DUP3 SUB PUSH1 0x20 DUP7 ADD MSTORE PUSH2 0x966 DUP3 DUP3 PUSH2 0x8E7 JUMP JUMPDEST SWAP2 POP POP PUSH1 0x40 DUP4 ADD MLOAD PUSH2 0x97B PUSH1 0x40 DUP7 ADD DUP3 PUSH2 0x920 JUMP JUMPDEST POP DUP1 SWAP2 POP POP SWAP3 SWAP2 POP POP JUMP JUMPDEST PUSH1 0x0 PUSH2 0x992 DUP4 DUP4 PUSH2 0x92F JUMP JUMPDEST SWAP1 POP SWAP3 SWAP2 POP POP JUMP JUMPDEST PUSH1 0x0 PUSH1 0x20 DUP3 ADD SWAP1 POP SWAP2 SWAP1 POP JUMP JUMPDEST PUSH1 0x0 PUSH2 0x9B2 DUP3 PUSH2 0x8AA JUMP JUMPDEST PUSH2 0x9BC DUP2 DUP6 PUSH2 0x8B5 JUMP JUMPDEST SWAP4 POP DUP4 PUSH1 0x20 DUP3 MUL DUP6 ADD PUSH2 0x9CE DUP6 PUSH2 0x8C6 JUMP JUMPDEST DUP1 PUSH1 0x0 JUMPDEST DUP6 DUP2 LT ISZERO PUSH2 0xA0A JUMPI DUP5 DUP5 SUB DUP10 MSTORE DUP2 MLOAD PUSH2 0x9EB DUP6 DUP3 PUSH2 0x986 JUMP JUMPDEST SWAP5 POP PUSH2 0x9F6 DUP4 PUSH2 0x99A JUMP JUMPDEST SWAP3 POP PUSH1 0x20 DUP11 ADD SWAP10 POP POP PUSH1 0x1 DUP2 ADD SWAP1 POP PUSH2 0x9D2 JUMP JUMPDEST POP DUP3 SWAP8 POP DUP8 SWAP6 POP POP POP POP POP POP SWAP3 SWAP2 POP POP JUMP JUMPDEST PUSH1 0x0 PUSH1 0x20 DUP3 ADD SWAP1 POP DUP2 DUP2 SUB PUSH1 0x0 DUP4 ADD MSTORE PUSH2 0xA36 DUP2 DUP5 PUSH2 0x9A7 JUMP JUMPDEST SWAP1 POP SWAP3 SWAP2 POP POP JUMP JUMPDEST PUSH1 0x0 DUP1 REVERT JUMPDEST PUSH1 0x0 DUP1 REVERT JUMPDEST PUSH32 0x4E487B7100000000000000000000000000000000000000000000000000000000 PUSH1 0x0 MSTORE PUSH1 0x41 PUSH1 0x4 MSTORE PUSH1 0x24 PUSH1 0x0 REVERT JUMPDEST PUSH2 0xA80 DUP3 PUSH2 0x800 JUMP JUMPDEST DUP2 ADD DUP2 DUP2 LT PUSH8 0xFFFFFFFFFFFFFFFF DUP3 GT OR ISZERO PUSH2 0xA9F JUMPI PUSH2 0xA9E PUSH2 0xA48 JUMP JUMPDEST JUMPDEST DUP1 PUSH1 0x40 MSTORE POP POP POP JUMP JUMPDEST PUSH1 0x0 PUSH2 0xAB2 PUSH2 0x73A JUMP JUMPDEST SWAP1 POP PUSH2 0xABE DUP3 DUP3 PUSH2 0xA77 JUMP JUMPDEST SWAP2 SWAP1 POP JUMP JUMPDEST PUSH1 0x0 PUSH8 0xFFFFFFFFFFFFFFFF DUP3 GT ISZERO PUSH2 0xADE JUMPI PUSH2 0xADD PUSH2 0xA48 JUMP JUMPDEST JUMPDEST PUSH2 0xAE7 DUP3 PUSH2 0x800 JUMP JUMPDEST SWAP1 POP PUSH1 0x20 DUP2 ADD SWAP1 POP SWAP2 SWAP1 POP JUMP JUMPDEST DUP3 DUP2 DUP4 CALLDATACOPY PUSH1 0x0 DUP4 DUP4 ADD MSTORE POP POP POP JUMP JUMPDEST PUSH1 0x0 PUSH2 0xB16 PUSH2 0xB11 DUP5 PUSH2 0xAC3 JUMP JUMPDEST PUSH2 0xAA8 JUMP JUMPDEST SWAP1 POP DUP3 DUP2 MSTORE PUSH1 0x20 DUP2 ADD DUP5 DUP5 DUP5 ADD GT ISZERO PUSH2 0xB32 JUMPI PUSH2 0xB31 PUSH2 0xA43 JUMP JUMPDEST JUMPDEST PUSH2 0xB3D DUP5 DUP3 DUP6 PUSH2 0xAF4 JUMP JUMPDEST POP SWAP4 SWAP3 POP POP POP JUMP JUMPDEST PUSH1 0x0 DUP3 PUSH1 0x1F DUP4 ADD SLT PUSH2 0xB5A JUMPI PUSH2 0xB59 PUSH2 0xA3E JUMP JUMPDEST JUMPDEST DUP2 CALLDATALOAD PUSH2 0xB6A DUP5 DUP3 PUSH1 0x20 DUP7 ADD PUSH2 0xB03 JUMP JUMPDEST SWAP2 POP POP SWAP3 SWAP2 POP POP JUMP JUMPDEST PUSH1 0x0 DUP1 PUSH1 0x40 DUP4 DUP6 SUB SLT ISZERO PUSH2 0xB8A JUMPI PUSH2 0xB89 PUSH2 0x744 JUMP JUMPDEST JUMPDEST PUSH1 0x0 DUP4 ADD CALLDATALOAD PUSH8 0xFFFFFFFFFFFFFFFF DUP2 GT ISZERO PUSH2 0xBA8 JUMPI PUSH2 0xBA7 PUSH2 0x749 JUMP JUMPDEST JUMPDEST PUSH2 0xBB4 DUP6 DUP3 DUP7 ADD PUSH2 0xB45 JUMP JUMPDEST SWAP3 POP POP PUSH1 0x20 DUP4 ADD CALLDATALOAD PUSH8 0xFFFFFFFFFFFFFFFF DUP2 GT ISZERO PUSH2 0xBD5 JUMPI PUSH2 0xBD4 PUSH2 0x749 JUMP JUMPDEST JUMPDEST PUSH2 0xBE1 DUP6 DUP3 DUP7 ADD PUSH2 0xB45 JUMP JUMPDEST SWAP2 POP POP SWAP3 POP SWAP3 SWAP1 POP JUMP JUMPDEST PUSH1 0x0 DUP1 PUSH1 0x0 PUSH1 0x60 DUP5 DUP7 SUB SLT ISZERO PUSH2 0xC04 JUMPI PUSH2 0xC03 PUSH2 0x744 JUMP JUMPDEST JUMPDEST PUSH1 0x0 PUSH2 0xC12 DUP7 DUP3 DUP8 ADD PUSH2 0x76F JUMP JUMPDEST SWAP4 POP POP PUSH1 0x20 DUP5 ADD CALLDATALOAD PUSH8 0xFFFFFFFFFFFFFFFF DUP2 GT ISZERO PUSH2 0xC33 JUMPI PUSH2 0xC32 PUSH2 0x749 JUMP JUMPDEST JUMPDEST PUSH2 0xC3F DUP7 DUP3 DUP8 ADD PUSH2 0xB45 JUMP JUMPDEST SWAP3 POP POP PUSH1 0x40 DUP5 ADD CALLDATALOAD PUSH8 0xFFFFFFFFFFFFFFFF DUP2 GT ISZERO PUSH2 0xC60 JUMPI PUSH2 0xC5F PUSH2 0x749 JUMP JUMPDEST JUMPDEST PUSH2 0xC6C DUP7 DUP3 DUP8 ADD PUSH2 0xB45 JUMP JUMPDEST SWAP2 POP POP SWAP3 POP SWAP3 POP SWAP3 JUMP JUMPDEST PUSH32 0x4E487B7100000000000000000000000000000000000000000000000000000000 PUSH1 0x0 MSTORE PUSH1 0x22 PUSH1 0x4 MSTORE PUSH1 0x24 PUSH1 0x0 REVERT JUMPDEST PUSH1 0x0 PUSH1 0x2 DUP3 DIV SWAP1 POP PUSH1 0x1 DUP3 AND DUP1 PUSH2 0xCBD JUMPI PUSH1 0x7F DUP3 AND SWAP2 POP JUMPDEST PUSH1 0x20 DUP3 LT DUP2 EQ ISZERO PUSH2 0xCD1 JUMPI PUSH2 0xCD0 PUSH2 0xC76 JUMP JUMPDEST JUMPDEST POP SWAP2 SWAP1 POP JUMP JUMPDEST PUSH32 0x4E487B7100000000000000000000000000000000000000000000000000000000 PUSH1 0x0 MSTORE PUSH1 0x32 PUSH1 0x4 MSTORE PUSH1 0x24 PUSH1 0x0 REVERT INVALID LOG2 PUSH5 0x6970667358 0x22 SLT KECCAK256 0xCD GT 0xED SSTORE DUP8 PC SWAP1 0xC7 DUP4 OR PC 0xF 0xE0 PUSH18 0x50BE80A066252EA044B676EB2F38C5E13523 PUSH5 0x736F6C6343 STOP ADDMOD MULMOD STOP CALLER "
				},
				"gasEstimates": {
					"creation": {
						"codeDepositCost": "677600",
						"executionCost": "708",
						"totalCost": "678308"
					},
					"external": {
						"addTask(string,string)": "infinite",
						"deleteTask(uint256)": "infinite",
						"getTask()": "infinite",
						"taskList(uint256)": "infinite",
						"toggleTask(uint256)": "31228",
						"updateTask(uint256,string,string)": "infinite"
					}
				},
				"methodIdentifiers": {
					"addTask(string,string)": "b37b1000",
					"deleteTask(uint256)": "560f3192",
					"getTask()": "a31662d2",
					"taskList(uint256)": "2a1c52a5",
					"toggleTask(uint256)": "613137a4",
					"updateTask(uint256,string,string)": "c72ef41f"
				}
			},
			"storageLayout": {
				"storage": [
					{
						"astId": 12,
						"contract": "contracts/personal/TodoList.sol:TodoList",
						"label": "taskList",
						"offset": 0,
						"slot": "0",
						"type": "t_array(t_struct(Tasks)8_storage)dyn_storage"
					}
				],
				"types": {
					"t_array(t_struct(Tasks)8_storage)dyn_storage": {
						"base": "t_struct(Tasks)8_storage",
						"encoding": "dynamic_array",
						"label": "struct TodoList.Tasks[]",
						"numberOfBytes": "32"
					},
					"t_bool": {
						"encoding": "inplace",
						"label": "bool",
						"numberOfBytes": "1"
					},
					"t_string_storage": {
						"encoding": "bytes",
						"label": "string",
						"numberOfBytes": "32"
					},
					"t_struct(Tasks)8_storage": {
						"encoding": "inplace",
						"label": "struct TodoList.Tasks",
						"members": [
							{
								"astId": 3,
								"contract": "contracts/personal/TodoList.sol:TodoList",
								"label": "title",
								"offset": 0,
								"slot": "0",
								"type": "t_string_storage"
							},
							{
								"astId": 5,
								"contract": "contracts/personal/TodoList.sol:TodoList",
								"label": "description",
								"offset": 0,
								"slot": "1",
								"type": "t_string_storage"
							},
							{
								"astId": 7,
								"contract": "contracts/personal/TodoList.sol:TodoList",
								"label": "isdone",
								"offset": 0,
								"slot": "2",
								"type": "t_bool"
							}
						],
						"numberOfBytes": "96"
					}
				}
			},
			"userdoc": {
				"kind": "user",
				"methods": {},
				"version": 1
			}
		}
	}
}