{
	"contracts/CoinFlip.sol": {
		"CoinFlip": {
			"abi": [
				{
					"inputs": [],
					"stateMutability": "nonpayable",
					"type": "constructor"
				},
				{
					"inputs": [],
					"name": "consecutiveWins",
					"outputs": [
						{
							"internalType": "uint256",
							"name": "",
							"type": "uint256"
						}
					],
					"stateMutability": "view",
					"type": "function"
				},
				{
					"inputs": [
						{
							"internalType": "bool",
							"name": "_guess",
							"type": "bool"
						}
					],
					"name": "flip",
					"outputs": [
						{
							"internalType": "bool",
							"name": "",
							"type": "bool"
						}
					],
					"stateMutability": "nonpayable",
					"type": "function"
				}
			],
			"devdoc": {
				"kind": "dev",
				"methods": {},
				"version": 1
			},
			"evm": {
				"assembly": "    /* \"contracts/CoinFlip.sol\":58:713  contract CoinFlip {... */\n  mstore(0x40, 0x80)\n    /* \"contracts/CoinFlip.sol\":152:229  57896044618658097711785492504343953926634992332820282019728792003956564819968 */\n  0x8000000000000000000000000000000000000000000000000000000000000000\n    /* \"contracts/CoinFlip.sol\":135:229  uint256 FACTOR = 57896044618658097711785492504343953926634992332820282019728792003956564819968 */\n  0x02\n  sstore\n    /* \"contracts/CoinFlip.sol\":234:278  constructor() {... */\n  callvalue\n  dup1\n  iszero\n  tag_1\n  jumpi\n  0x00\n  dup1\n  revert\ntag_1:\n  pop\n    /* \"contracts/CoinFlip.sol\":272:273  0 */\n  0x00\n    /* \"contracts/CoinFlip.sol\":254:269  consecutiveWins */\n  dup1\n    /* \"contracts/CoinFlip.sol\":254:273  consecutiveWins = 0 */\n  dup2\n  swap1\n  sstore\n  pop\n    /* \"contracts/CoinFlip.sol\":58:713  contract CoinFlip {... */\n  dataSize(sub_0)\n  dup1\n  dataOffset(sub_0)\n  0x00\n  codecopy\n  0x00\n  return\nstop\n\nsub_0: assembly {\n        /* \"contracts/CoinFlip.sol\":58:713  contract CoinFlip {... */\n      mstore(0x40, 0x80)\n      callvalue\n      dup1\n      iszero\n      tag_1\n      jumpi\n      0x00\n      dup1\n      revert\n    tag_1:\n      pop\n      jumpi(tag_2, lt(calldatasize, 0x04))\n      shr(0xe0, calldataload(0x00))\n      dup1\n      0x1d263f67\n      eq\n      tag_3\n      jumpi\n      dup1\n      0xe6f334d7\n      eq\n      tag_4\n      jumpi\n    tag_2:\n      0x00\n      dup1\n      revert\n        /* \"contracts/CoinFlip.sol\":282:711  function flip(bool _guess) public returns (bool) {... */\n    tag_3:\n      tag_5\n      0x04\n      dup1\n      calldatasize\n      sub\n      dup2\n      add\n      swap1\n      tag_6\n      swap2\n      swap1\n      tag_7\n      jump\t// in\n    tag_6:\n      tag_8\n      jump\t// in\n    tag_5:\n      mload(0x40)\n      tag_9\n      swap2\n      swap1\n      tag_10\n      jump\t// in\n    tag_9:\n      mload(0x40)\n      dup1\n      swap2\n      sub\n      swap1\n      return\n        /* \"contracts/CoinFlip.sol\":81:111  uint256 public consecutiveWins */\n    tag_4:\n      tag_11\n      tag_12\n      jump\t// in\n    tag_11:\n      mload(0x40)\n      tag_13\n      swap2\n      swap1\n      tag_14\n      jump\t// in\n    tag_13:\n      mload(0x40)\n      dup1\n      swap2\n      sub\n      swap1\n      return\n        /* \"contracts/CoinFlip.sol\":282:711  function flip(bool _guess) public returns (bool) {... */\n    tag_8:\n        /* \"contracts/CoinFlip.sol\":325:329  bool */\n      0x00\n        /* \"contracts/CoinFlip.sol\":337:355  uint256 blockValue */\n      dup1\n        /* \"contracts/CoinFlip.sol\":391:392  1 */\n      0x01\n        /* \"contracts/CoinFlip.sol\":376:388  block.number */\n      number\n        /* \"contracts/CoinFlip.sol\":376:392  block.number - 1 */\n      tag_16\n      swap2\n      swap1\n      tag_17\n      jump\t// in\n    tag_16:\n        /* \"contracts/CoinFlip.sol\":366:393  blockhash(block.number - 1) */\n      blockhash\n        /* \"contracts/CoinFlip.sol\":358:394  uint256(blockhash(block.number - 1)) */\n      0x00\n      shr\n        /* \"contracts/CoinFlip.sol\":337:394  uint256 blockValue = uint256(blockhash(block.number - 1)) */\n      swap1\n      pop\n        /* \"contracts/CoinFlip.sol\":417:427  blockValue */\n      dup1\n        /* \"contracts/CoinFlip.sol\":405:413  lastHash */\n      sload(0x01)\n        /* \"contracts/CoinFlip.sol\":405:427  lastHash == blockValue */\n      sub\n        /* \"contracts/CoinFlip.sol\":401:452  if (lastHash == blockValue) {... */\n      tag_18\n      jumpi\n        /* \"contracts/CoinFlip.sol\":437:445  revert() */\n      0x00\n      dup1\n      revert\n        /* \"contracts/CoinFlip.sol\":401:452  if (lastHash == blockValue) {... */\n    tag_18:\n        /* \"contracts/CoinFlip.sol\":469:479  blockValue */\n      dup1\n        /* \"contracts/CoinFlip.sol\":458:466  lastHash */\n      0x01\n        /* \"contracts/CoinFlip.sol\":458:479  lastHash = blockValue */\n      dup2\n      swap1\n      sstore\n      pop\n        /* \"contracts/CoinFlip.sol\":485:501  uint256 coinFlip */\n      0x00\n        /* \"contracts/CoinFlip.sol\":517:523  FACTOR */\n      sload(0x02)\n        /* \"contracts/CoinFlip.sol\":504:514  blockValue */\n      dup3\n        /* \"contracts/CoinFlip.sol\":504:523  blockValue / FACTOR */\n      tag_19\n      swap2\n      swap1\n      tag_20\n      jump\t// in\n    tag_19:\n        /* \"contracts/CoinFlip.sol\":485:523  uint256 coinFlip = blockValue / FACTOR */\n      swap1\n      pop\n        /* \"contracts/CoinFlip.sol\":529:538  bool side */\n      0x00\n        /* \"contracts/CoinFlip.sol\":553:554  1 */\n      0x01\n        /* \"contracts/CoinFlip.sol\":541:549  coinFlip */\n      dup3\n        /* \"contracts/CoinFlip.sol\":541:554  coinFlip == 1 */\n      eq\n        /* \"contracts/CoinFlip.sol\":541:569  coinFlip == 1 ? true : false */\n      tag_21\n      jumpi\n        /* \"contracts/CoinFlip.sol\":564:569  false */\n      0x00\n        /* \"contracts/CoinFlip.sol\":541:569  coinFlip == 1 ? true : false */\n      jump(tag_22)\n    tag_21:\n        /* \"contracts/CoinFlip.sol\":557:561  true */\n      0x01\n        /* \"contracts/CoinFlip.sol\":541:569  coinFlip == 1 ? true : false */\n    tag_22:\n        /* \"contracts/CoinFlip.sol\":529:569  bool side = coinFlip == 1 ? true : false */\n      swap1\n      pop\n        /* \"contracts/CoinFlip.sol\":588:594  _guess */\n      dup5\n        /* \"contracts/CoinFlip.sol\":580:594  side == _guess */\n      iszero\n      iszero\n        /* \"contracts/CoinFlip.sol\":580:584  side */\n      dup2\n        /* \"contracts/CoinFlip.sol\":580:594  side == _guess */\n      iszero\n      iszero\n      sub\n        /* \"contracts/CoinFlip.sol\":576:707  if (side == _guess) {... */\n      tag_23\n      jumpi\n        /* \"contracts/CoinFlip.sol\":604:619  consecutiveWins */\n      0x00\n      dup1\n        /* \"contracts/CoinFlip.sol\":604:621  consecutiveWins++ */\n      dup2\n      sload\n      dup1\n      swap3\n      swap2\n      swap1\n      tag_24\n      swap1\n      tag_25\n      jump\t// in\n    tag_24:\n      swap2\n      swap1\n      pop\n      sstore\n      pop\n        /* \"contracts/CoinFlip.sol\":636:640  true */\n      0x01\n        /* \"contracts/CoinFlip.sol\":629:640  return true */\n      swap4\n      pop\n      pop\n      pop\n      pop\n      jump(tag_15)\n        /* \"contracts/CoinFlip.sol\":576:707  if (side == _guess) {... */\n    tag_23:\n        /* \"contracts/CoinFlip.sol\":679:680  0 */\n      0x00\n        /* \"contracts/CoinFlip.sol\":661:676  consecutiveWins */\n      dup1\n        /* \"contracts/CoinFlip.sol\":661:680  consecutiveWins = 0 */\n      dup2\n      swap1\n      sstore\n      pop\n        /* \"contracts/CoinFlip.sol\":695:700  false */\n      0x00\n        /* \"contracts/CoinFlip.sol\":688:700  return false */\n      swap4\n      pop\n      pop\n      pop\n      pop\n        /* \"contracts/CoinFlip.sol\":282:711  function flip(bool _guess) public returns (bool) {... */\n    tag_15:\n      swap2\n      swap1\n      pop\n      jump\t// out\n        /* \"contracts/CoinFlip.sol\":81:111  uint256 public consecutiveWins */\n    tag_12:\n      sload(0x00)\n      dup2\n      jump\t// out\n        /* \"#utility.yul\":88:205   */\n    tag_28:\n        /* \"#utility.yul\":197:198   */\n      0x00\n        /* \"#utility.yul\":194:195   */\n      dup1\n        /* \"#utility.yul\":187:199   */\n      revert\n        /* \"#utility.yul\":334:424   */\n    tag_30:\n        /* \"#utility.yul\":368:375   */\n      0x00\n        /* \"#utility.yul\":411:416   */\n      dup2\n        /* \"#utility.yul\":404:417   */\n      iszero\n        /* \"#utility.yul\":397:418   */\n      iszero\n        /* \"#utility.yul\":386:418   */\n      swap1\n      pop\n        /* \"#utility.yul\":334:424   */\n      swap2\n      swap1\n      pop\n      jump\t// out\n        /* \"#utility.yul\":430:546   */\n    tag_31:\n        /* \"#utility.yul\":500:521   */\n      tag_44\n        /* \"#utility.yul\":515:520   */\n      dup2\n        /* \"#utility.yul\":500:521   */\n      tag_30\n      jump\t// in\n    tag_44:\n        /* \"#utility.yul\":493:498   */\n      dup2\n        /* \"#utility.yul\":490:522   */\n      eq\n        /* \"#utility.yul\":480:540   */\n      tag_45\n      jumpi\n        /* \"#utility.yul\":536:537   */\n      0x00\n        /* \"#utility.yul\":533:534   */\n      dup1\n        /* \"#utility.yul\":526:538   */\n      revert\n        /* \"#utility.yul\":480:540   */\n    tag_45:\n        /* \"#utility.yul\":430:546   */\n      pop\n      jump\t// out\n        /* \"#utility.yul\":552:685   */\n    tag_32:\n        /* \"#utility.yul\":595:600   */\n      0x00\n        /* \"#utility.yul\":633:639   */\n      dup2\n        /* \"#utility.yul\":620:640   */\n      calldataload\n        /* \"#utility.yul\":611:640   */\n      swap1\n      pop\n        /* \"#utility.yul\":649:679   */\n      tag_47\n        /* \"#utility.yul\":673:678   */\n      dup2\n        /* \"#utility.yul\":649:679   */\n      tag_31\n      jump\t// in\n    tag_47:\n        /* \"#utility.yul\":552:685   */\n      swap3\n      swap2\n      pop\n      pop\n      jump\t// out\n        /* \"#utility.yul\":691:1014   */\n    tag_7:\n        /* \"#utility.yul\":747:753   */\n      0x00\n        /* \"#utility.yul\":796:798   */\n      0x20\n        /* \"#utility.yul\":784:793   */\n      dup3\n        /* \"#utility.yul\":775:782   */\n      dup5\n        /* \"#utility.yul\":771:794   */\n      sub\n        /* \"#utility.yul\":767:799   */\n      slt\n        /* \"#utility.yul\":764:883   */\n      iszero\n      tag_49\n      jumpi\n        /* \"#utility.yul\":802:881   */\n      tag_50\n      tag_28\n      jump\t// in\n    tag_50:\n        /* \"#utility.yul\":764:883   */\n    tag_49:\n        /* \"#utility.yul\":922:923   */\n      0x00\n        /* \"#utility.yul\":947:997   */\n      tag_51\n        /* \"#utility.yul\":989:996   */\n      dup5\n        /* \"#utility.yul\":980:986   */\n      dup3\n        /* \"#utility.yul\":969:978   */\n      dup6\n        /* \"#utility.yul\":965:987   */\n      add\n        /* \"#utility.yul\":947:997   */\n      tag_32\n      jump\t// in\n    tag_51:\n        /* \"#utility.yul\":937:997   */\n      swap2\n      pop\n        /* \"#utility.yul\":893:1007   */\n      pop\n        /* \"#utility.yul\":691:1014   */\n      swap3\n      swap2\n      pop\n      pop\n      jump\t// out\n        /* \"#utility.yul\":1020:1129   */\n    tag_33:\n        /* \"#utility.yul\":1101:1122   */\n      tag_53\n        /* \"#utility.yul\":1116:1121   */\n      dup2\n        /* \"#utility.yul\":1101:1122   */\n      tag_30\n      jump\t// in\n    tag_53:\n        /* \"#utility.yul\":1096:1099   */\n      dup3\n        /* \"#utility.yul\":1089:1123   */\n      mstore\n        /* \"#utility.yul\":1020:1129   */\n      pop\n      pop\n      jump\t// out\n        /* \"#utility.yul\":1135:1345   */\n    tag_10:\n        /* \"#utility.yul\":1222:1226   */\n      0x00\n        /* \"#utility.yul\":1260:1262   */\n      0x20\n        /* \"#utility.yul\":1249:1258   */\n      dup3\n        /* \"#utility.yul\":1245:1263   */\n      add\n        /* \"#utility.yul\":1237:1263   */\n      swap1\n      pop\n        /* \"#utility.yul\":1273:1338   */\n      tag_55\n        /* \"#utility.yul\":1335:1336   */\n      0x00\n        /* \"#utility.yul\":1324:1333   */\n      dup4\n        /* \"#utility.yul\":1320:1337   */\n      add\n        /* \"#utility.yul\":1311:1317   */\n      dup5\n        /* \"#utility.yul\":1273:1338   */\n      tag_33\n      jump\t// in\n    tag_55:\n        /* \"#utility.yul\":1135:1345   */\n      swap3\n      swap2\n      pop\n      pop\n      jump\t// out\n        /* \"#utility.yul\":1351:1428   */\n    tag_34:\n        /* \"#utility.yul\":1388:1395   */\n      0x00\n        /* \"#utility.yul\":1417:1422   */\n      dup2\n        /* \"#utility.yul\":1406:1422   */\n      swap1\n      pop\n        /* \"#utility.yul\":1351:1428   */\n      swap2\n      swap1\n      pop\n      jump\t// out\n        /* \"#utility.yul\":1434:1552   */\n    tag_35:\n        /* \"#utility.yul\":1521:1545   */\n      tag_58\n        /* \"#utility.yul\":1539:1544   */\n      dup2\n        /* \"#utility.yul\":1521:1545   */\n      tag_34\n      jump\t// in\n    tag_58:\n        /* \"#utility.yul\":1516:1519   */\n      dup3\n        /* \"#utility.yul\":1509:1546   */\n      mstore\n        /* \"#utility.yul\":1434:1552   */\n      pop\n      pop\n      jump\t// out\n        /* \"#utility.yul\":1558:1780   */\n    tag_14:\n        /* \"#utility.yul\":1651:1655   */\n      0x00\n        /* \"#utility.yul\":1689:1691   */\n      0x20\n        /* \"#utility.yul\":1678:1687   */\n      dup3\n        /* \"#utility.yul\":1674:1692   */\n      add\n        /* \"#utility.yul\":1666:1692   */\n      swap1\n      pop\n        /* \"#utility.yul\":1702:1773   */\n      tag_60\n        /* \"#utility.yul\":1770:1771   */\n      0x00\n        /* \"#utility.yul\":1759:1768   */\n      dup4\n        /* \"#utility.yul\":1755:1772   */\n      add\n        /* \"#utility.yul\":1746:1752   */\n      dup5\n        /* \"#utility.yul\":1702:1773   */\n      tag_35\n      jump\t// in\n    tag_60:\n        /* \"#utility.yul\":1558:1780   */\n      swap3\n      swap2\n      pop\n      pop\n      jump\t// out\n        /* \"#utility.yul\":1786:1966   */\n    tag_36:\n        /* \"#utility.yul\":1834:1911   */\n      0x4e487b7100000000000000000000000000000000000000000000000000000000\n        /* \"#utility.yul\":1831:1832   */\n      0x00\n        /* \"#utility.yul\":1824:1912   */\n      mstore\n        /* \"#utility.yul\":1931:1935   */\n      0x11\n        /* \"#utility.yul\":1928:1929   */\n      0x04\n        /* \"#utility.yul\":1921:1936   */\n      mstore\n        /* \"#utility.yul\":1955:1959   */\n      0x24\n        /* \"#utility.yul\":1952:1953   */\n      0x00\n        /* \"#utility.yul\":1945:1960   */\n      revert\n        /* \"#utility.yul\":1972:2166   */\n    tag_17:\n        /* \"#utility.yul\":2012:2016   */\n      0x00\n        /* \"#utility.yul\":2032:2052   */\n      tag_63\n        /* \"#utility.yul\":2050:2051   */\n      dup3\n        /* \"#utility.yul\":2032:2052   */\n      tag_34\n      jump\t// in\n    tag_63:\n        /* \"#utility.yul\":2027:2052   */\n      swap2\n      pop\n        /* \"#utility.yul\":2066:2086   */\n      tag_64\n        /* \"#utility.yul\":2084:2085   */\n      dup4\n        /* \"#utility.yul\":2066:2086   */\n      tag_34\n      jump\t// in\n    tag_64:\n        /* \"#utility.yul\":2061:2086   */\n      swap3\n      pop\n        /* \"#utility.yul\":2110:2111   */\n      dup3\n        /* \"#utility.yul\":2107:2108   */\n      dup3\n        /* \"#utility.yul\":2103:2112   */\n      sub\n        /* \"#utility.yul\":2095:2112   */\n      swap1\n      pop\n        /* \"#utility.yul\":2134:2135   */\n      dup2\n        /* \"#utility.yul\":2128:2132   */\n      dup2\n        /* \"#utility.yul\":2125:2136   */\n      gt\n        /* \"#utility.yul\":2122:2159   */\n      iszero\n      tag_65\n      jumpi\n        /* \"#utility.yul\":2139:2157   */\n      tag_66\n      tag_36\n      jump\t// in\n    tag_66:\n        /* \"#utility.yul\":2122:2159   */\n    tag_65:\n        /* \"#utility.yul\":1972:2166   */\n      swap3\n      swap2\n      pop\n      pop\n      jump\t// out\n        /* \"#utility.yul\":2172:2352   */\n    tag_37:\n        /* \"#utility.yul\":2220:2297   */\n      0x4e487b7100000000000000000000000000000000000000000000000000000000\n        /* \"#utility.yul\":2217:2218   */\n      0x00\n        /* \"#utility.yul\":2210:2298   */\n      mstore\n        /* \"#utility.yul\":2317:2321   */\n      0x12\n        /* \"#utility.yul\":2314:2315   */\n      0x04\n        /* \"#utility.yul\":2307:2322   */\n      mstore\n        /* \"#utility.yul\":2341:2345   */\n      0x24\n        /* \"#utility.yul\":2338:2339   */\n      0x00\n        /* \"#utility.yul\":2331:2346   */\n      revert\n        /* \"#utility.yul\":2358:2543   */\n    tag_20:\n        /* \"#utility.yul\":2398:2399   */\n      0x00\n        /* \"#utility.yul\":2415:2435   */\n      tag_69\n        /* \"#utility.yul\":2433:2434   */\n      dup3\n        /* \"#utility.yul\":2415:2435   */\n      tag_34\n      jump\t// in\n    tag_69:\n        /* \"#utility.yul\":2410:2435   */\n      swap2\n      pop\n        /* \"#utility.yul\":2449:2469   */\n      tag_70\n        /* \"#utility.yul\":2467:2468   */\n      dup4\n        /* \"#utility.yul\":2449:2469   */\n      tag_34\n      jump\t// in\n    tag_70:\n        /* \"#utility.yul\":2444:2469   */\n      swap3\n      pop\n        /* \"#utility.yul\":2488:2489   */\n      dup3\n        /* \"#utility.yul\":2478:2513   */\n      tag_71\n      jumpi\n        /* \"#utility.yul\":2493:2511   */\n      tag_72\n      tag_37\n      jump\t// in\n    tag_72:\n        /* \"#utility.yul\":2478:2513   */\n    tag_71:\n        /* \"#utility.yul\":2535:2536   */\n      dup3\n        /* \"#utility.yul\":2532:2533   */\n      dup3\n        /* \"#utility.yul\":2528:2537   */\n      div\n        /* \"#utility.yul\":2523:2537   */\n      swap1\n      pop\n        /* \"#utility.yul\":2358:2543   */\n      swap3\n      swap2\n      pop\n      pop\n      jump\t// out\n        /* \"#utility.yul\":2549:2782   */\n    tag_25:\n        /* \"#utility.yul\":2588:2591   */\n      0x00\n        /* \"#utility.yul\":2611:2635   */\n      tag_74\n        /* \"#utility.yul\":2629:2634   */\n      dup3\n        /* \"#utility.yul\":2611:2635   */\n      tag_34\n      jump\t// in\n    tag_74:\n        /* \"#utility.yul\":2602:2635   */\n      swap2\n      pop\n        /* \"#utility.yul\":2657:2723   */\n      0xffffffffffffffffffffffffffffffffffffffffffffffffffffffffffffffff\n        /* \"#utility.yul\":2650:2655   */\n      dup3\n        /* \"#utility.yul\":2647:2724   */\n      sub\n        /* \"#utility.yul\":2644:2747   */\n      tag_75\n      jumpi\n        /* \"#utility.yul\":2727:2745   */\n      tag_76\n      tag_36\n      jump\t// in\n    tag_76:\n        /* \"#utility.yul\":2644:2747   */\n    tag_75:\n        /* \"#utility.yul\":2774:2775   */\n      0x01\n        /* \"#utility.yul\":2767:2772   */\n      dup3\n        /* \"#utility.yul\":2763:2776   */\n      add\n        /* \"#utility.yul\":2756:2776   */\n      swap1\n      pop\n        /* \"#utility.yul\":2549:2782   */\n      swap2\n      swap1\n      pop\n      jump\t// out\n\n    auxdata: 0xa2646970667358221220d0805c1e921a4af87c4eaaa771a4cb1c3168576f95ce95026671e13540e4664064736f6c63430008180033\n}\n",
				"bytecode": {
					"linkReferences": {},
					"object": "60806040527f8000000000000000000000000000000000000000000000000000000000000000600255348015610033575f80fd5b505f808190555061030e806100475f395ff3fe608060405234801561000f575f80fd5b5060043610610034575f3560e01c80631d263f6714610038578063e6f334d714610068575b5f80fd5b610052600480360381019061004d9190610150565b610086565b60405161005f919061018a565b60405180910390f35b610070610112565b60405161007d91906101bb565b60405180910390f35b5f806001436100959190610201565b405f1c905080600154036100a7575f80fd5b806001819055505f600254826100bd9190610261565b90505f600182146100ce575f6100d1565b60015b905084151581151503610100575f808154809291906100ef90610291565b91905055506001935050505061010d565b5f80819055505f93505050505b919050565b5f5481565b5f80fd5b5f8115159050919050565b61012f8161011b565b8114610139575f80fd5b50565b5f8135905061014a81610126565b92915050565b5f6020828403121561016557610164610117565b5b5f6101728482850161013c565b91505092915050565b6101848161011b565b82525050565b5f60208201905061019d5f83018461017b565b92915050565b5f819050919050565b6101b5816101a3565b82525050565b5f6020820190506101ce5f8301846101ac565b92915050565b7f4e487b71000000000000000000000000000000000000000000000000000000005f52601160045260245ffd5b5f61020b826101a3565b9150610216836101a3565b925082820390508181111561022e5761022d6101d4565b5b92915050565b7f4e487b71000000000000000000000000000000000000000000000000000000005f52601260045260245ffd5b5f61026b826101a3565b9150610276836101a3565b92508261028657610285610234565b5b828204905092915050565b5f61029b826101a3565b91507fffffffffffffffffffffffffffffffffffffffffffffffffffffffffffffffff82036102cd576102cc6101d4565b5b60018201905091905056fea2646970667358221220d0805c1e921a4af87c4eaaa771a4cb1c3168576f95ce95026671e13540e4664064736f6c63430008180033",
					"opcodes": "PUSH1 0x80 PUSH1 0x40 MSTORE PUSH32 0x8000000000000000000000000000000000000000000000000000000000000000 PUSH1 0x2 SSTORE CALLVALUE DUP1 ISZERO PUSH2 0x33 JUMPI PUSH0 DUP1 REVERT JUMPDEST POP PUSH0 DUP1 DUP2 SWAP1 SSTORE POP PUSH2 0x30E DUP1 PUSH2 0x47 PUSH0 CODECOPY PUSH0 RETURN INVALID PUSH1 0x80 PUSH1 0x40 MSTORE CALLVALUE DUP1 ISZERO PUSH2 0xF JUMPI PUSH0 DUP1 REVERT JUMPDEST POP PUSH1 0x4 CALLDATASIZE LT PUSH2 0x34 JUMPI PUSH0 CALLDATALOAD PUSH1 0xE0 SHR DUP1 PUSH4 0x1D263F67 EQ PUSH2 0x38 JUMPI DUP1 PUSH4 0xE6F334D7 EQ PUSH2 0x68 JUMPI JUMPDEST PUSH0 DUP1 REVERT JUMPDEST PUSH2 0x52 PUSH1 0x4 DUP1 CALLDATASIZE SUB DUP2 ADD SWAP1 PUSH2 0x4D SWAP2 SWAP1 PUSH2 0x150 JUMP JUMPDEST PUSH2 0x86 JUMP JUMPDEST PUSH1 0x40 MLOAD PUSH2 0x5F SWAP2 SWAP1 PUSH2 0x18A JUMP JUMPDEST PUSH1 0x40 MLOAD DUP1 SWAP2 SUB SWAP1 RETURN JUMPDEST PUSH2 0x70 PUSH2 0x112 JUMP JUMPDEST PUSH1 0x40 MLOAD PUSH2 0x7D SWAP2 SWAP1 PUSH2 0x1BB JUMP JUMPDEST PUSH1 0x40 MLOAD DUP1 SWAP2 SUB SWAP1 RETURN JUMPDEST PUSH0 DUP1 PUSH1 0x1 NUMBER PUSH2 0x95 SWAP2 SWAP1 PUSH2 0x201 JUMP JUMPDEST BLOCKHASH PUSH0 SHR SWAP1 POP DUP1 PUSH1 0x1 SLOAD SUB PUSH2 0xA7 JUMPI PUSH0 DUP1 REVERT JUMPDEST DUP1 PUSH1 0x1 DUP2 SWAP1 SSTORE POP PUSH0 PUSH1 0x2 SLOAD DUP3 PUSH2 0xBD SWAP2 SWAP1 PUSH2 0x261 JUMP JUMPDEST SWAP1 POP PUSH0 PUSH1 0x1 DUP3 EQ PUSH2 0xCE JUMPI PUSH0 PUSH2 0xD1 JUMP JUMPDEST PUSH1 0x1 JUMPDEST SWAP1 POP DUP5 ISZERO ISZERO DUP2 ISZERO ISZERO SUB PUSH2 0x100 JUMPI PUSH0 DUP1 DUP2 SLOAD DUP1 SWAP3 SWAP2 SWAP1 PUSH2 0xEF SWAP1 PUSH2 0x291 JUMP JUMPDEST SWAP2 SWAP1 POP SSTORE POP PUSH1 0x1 SWAP4 POP POP POP POP PUSH2 0x10D JUMP JUMPDEST PUSH0 DUP1 DUP2 SWAP1 SSTORE POP PUSH0 SWAP4 POP POP POP POP JUMPDEST SWAP2 SWAP1 POP JUMP JUMPDEST PUSH0 SLOAD DUP2 JUMP JUMPDEST PUSH0 DUP1 REVERT JUMPDEST PUSH0 DUP2 ISZERO ISZERO SWAP1 POP SWAP2 SWAP1 POP JUMP JUMPDEST PUSH2 0x12F DUP2 PUSH2 0x11B JUMP JUMPDEST DUP2 EQ PUSH2 0x139 JUMPI PUSH0 DUP1 REVERT JUMPDEST POP JUMP JUMPDEST PUSH0 DUP2 CALLDATALOAD SWAP1 POP PUSH2 0x14A DUP2 PUSH2 0x126 JUMP JUMPDEST SWAP3 SWAP2 POP POP JUMP JUMPDEST PUSH0 PUSH1 0x20 DUP3 DUP5 SUB SLT ISZERO PUSH2 0x165 JUMPI PUSH2 0x164 PUSH2 0x117 JUMP JUMPDEST JUMPDEST PUSH0 PUSH2 0x172 DUP5 DUP3 DUP6 ADD PUSH2 0x13C JUMP JUMPDEST SWAP2 POP POP SWAP3 SWAP2 POP POP JUMP JUMPDEST PUSH2 0x184 DUP2 PUSH2 0x11B JUMP JUMPDEST DUP3 MSTORE POP POP JUMP JUMPDEST PUSH0 PUSH1 0x20 DUP3 ADD SWAP1 POP PUSH2 0x19D PUSH0 DUP4 ADD DUP5 PUSH2 0x17B JUMP JUMPDEST SWAP3 SWAP2 POP POP JUMP JUMPDEST PUSH0 DUP2 SWAP1 POP SWAP2 SWAP1 POP JUMP JUMPDEST PUSH2 0x1B5 DUP2 PUSH2 0x1A3 JUMP JUMPDEST DUP3 MSTORE POP POP JUMP JUMPDEST PUSH0 PUSH1 0x20 DUP3 ADD SWAP1 POP PUSH2 0x1CE PUSH0 DUP4 ADD DUP5 PUSH2 0x1AC JUMP JUMPDEST SWAP3 SWAP2 POP POP JUMP JUMPDEST PUSH32 0x4E487B7100000000000000000000000000000000000000000000000000000000 PUSH0 MSTORE PUSH1 0x11 PUSH1 0x4 MSTORE PUSH1 0x24 PUSH0 REVERT JUMPDEST PUSH0 PUSH2 0x20B DUP3 PUSH2 0x1A3 JUMP JUMPDEST SWAP2 POP PUSH2 0x216 DUP4 PUSH2 0x1A3 JUMP JUMPDEST SWAP3 POP DUP3 DUP3 SUB SWAP1 POP DUP2 DUP2 GT ISZERO PUSH2 0x22E JUMPI PUSH2 0x22D PUSH2 0x1D4 JUMP JUMPDEST JUMPDEST SWAP3 SWAP2 POP POP JUMP JUMPDEST PUSH32 0x4E487B7100000000000000000000000000000000000000000000000000000000 PUSH0 MSTORE PUSH1 0x12 PUSH1 0x4 MSTORE PUSH1 0x24 PUSH0 REVERT JUMPDEST PUSH0 PUSH2 0x26B DUP3 PUSH2 0x1A3 JUMP JUMPDEST SWAP2 POP PUSH2 0x276 DUP4 PUSH2 0x1A3 JUMP JUMPDEST SWAP3 POP DUP3 PUSH2 0x286 JUMPI PUSH2 0x285 PUSH2 0x234 JUMP JUMPDEST JUMPDEST DUP3 DUP3 DIV SWAP1 POP SWAP3 SWAP2 POP POP JUMP JUMPDEST PUSH0 PUSH2 0x29B DUP3 PUSH2 0x1A3 JUMP JUMPDEST SWAP2 POP PUSH32 0xFFFFFFFFFFFFFFFFFFFFFFFFFFFFFFFFFFFFFFFFFFFFFFFFFFFFFFFFFFFFFFFF DUP3 SUB PUSH2 0x2CD JUMPI PUSH2 0x2CC PUSH2 0x1D4 JUMP JUMPDEST JUMPDEST PUSH1 0x1 DUP3 ADD SWAP1 POP SWAP2 SWAP1 POP JUMP INVALID LOG2 PUSH5 0x6970667358 0x22 SLT KECCAK256 0xD0 DUP1 TLOAD 0x1E SWAP3 BYTE BLOBBASEFEE 0xF8 PUSH29 0x4EAAA771A4CB1C3168576F95CE95026671E13540E4664064736F6C6343 STOP ADDMOD XOR STOP CALLER "
				},
				"gasEstimates": {
					"creation": {
						"codeDepositCost": "156400",
						"executionCost": "27319",
						"totalCost": "183719"
					},
					"external": {
						"consecutiveWins()": "2424",
						"flip(bool)": "infinite"
					}
				},
				"methodIdentifiers": {
					"consecutiveWins()": "e6f334d7",
					"flip(bool)": "1d263f67"
				}
			},
			"storageLayout": {
				"storage": [
					{
						"astId": 3,
						"contract": "contracts/CoinFlip.sol:CoinFlip",
						"label": "consecutiveWins",
						"offset": 0,
						"slot": "0",
						"type": "t_uint256"
					},
					{
						"astId": 5,
						"contract": "contracts/CoinFlip.sol:CoinFlip",
						"label": "lastHash",
						"offset": 0,
						"slot": "1",
						"type": "t_uint256"
					},
					{
						"astId": 8,
						"contract": "contracts/CoinFlip.sol:CoinFlip",
						"label": "FACTOR",
						"offset": 0,
						"slot": "2",
						"type": "t_uint256"
					}
				],
				"types": {
					"t_uint256": {
						"encoding": "inplace",
						"label": "uint256",
						"numberOfBytes": "32"
					}
				}
			},
			"userdoc": {
				"kind": "user",
				"methods": {},
				"version": 1
			}
		}
	}
}