{
	"contracts/Challenge.sol": {
		"Challenge": {
			"abi": [
				{
					"inputs": [
						{
							"internalType": "contract SpaceBank",
							"name": "spacebank",
							"type": "address"
						}
					],
					"stateMutability": "nonpayable",
					"type": "constructor"
				},
				{
					"inputs": [],
					"name": "SPACEBANK",
					"outputs": [
						{
							"internalType": "contract SpaceBank",
							"name": "",
							"type": "address"
						}
					],
					"stateMutability": "view",
					"type": "function"
				},
				{
					"inputs": [],
					"name": "isSolved",
					"outputs": [
						{
							"internalType": "bool",
							"name": "",
							"type": "bool"
						}
					],
					"stateMutability": "view",
					"type": "function"
				}
			],
			"devdoc": {
				"kind": "dev",
				"methods": {},
				"version": 1
			},
			"evm": {
				"assembly": "    /* \"contracts/Challenge.sol\":92:332  contract Challenge {... */\n  mstore(0x40, 0xa0)\n    /* \"contracts/Challenge.sol\":160:231  constructor(SpaceBank spacebank) {... */\n  callvalue\n  dup1\n  iszero\n  tag_1\n  jumpi\n  0x00\n  dup1\n  revert\ntag_1:\n  pop\n  mload(0x40)\n  sub(codesize, bytecodeSize)\n  dup1\n  bytecodeSize\n  dup4\n  codecopy\n  dup2\n  dup2\n  add\n  0x40\n  mstore\n  dup2\n  add\n  swap1\n  tag_2\n  swap2\n  swap1\n  tag_3\n  jump\t// in\ntag_2:\n    /* \"contracts/Challenge.sol\":215:224  spacebank */\n  dup1\n    /* \"contracts/Challenge.sol\":203:224  SPACEBANK = spacebank */\n  0xffffffffffffffffffffffffffffffffffffffff\n  and\n  0x80\n  dup2\n  0xffffffffffffffffffffffffffffffffffffffff\n  and\n  dup2\n  mstore\n  pop\n  pop\n    /* \"contracts/Challenge.sol\":160:231  constructor(SpaceBank spacebank) {... */\n  pop\n    /* \"contracts/Challenge.sol\":92:332  contract Challenge {... */\n  jump(tag_6)\n    /* \"#utility.yul\":88:205   */\ntag_8:\n    /* \"#utility.yul\":197:198   */\n  0x00\n    /* \"#utility.yul\":194:195   */\n  dup1\n    /* \"#utility.yul\":187:199   */\n  revert\n    /* \"#utility.yul\":334:460   */\ntag_10:\n    /* \"#utility.yul\":371:378   */\n  0x00\n    /* \"#utility.yul\":411:453   */\n  0xffffffffffffffffffffffffffffffffffffffff\n    /* \"#utility.yul\":404:409   */\n  dup3\n    /* \"#utility.yul\":400:454   */\n  and\n    /* \"#utility.yul\":389:454   */\n  swap1\n  pop\n    /* \"#utility.yul\":334:460   */\n  swap2\n  swap1\n  pop\n  jump\t// out\n    /* \"#utility.yul\":466:562   */\ntag_11:\n    /* \"#utility.yul\":503:510   */\n  0x00\n    /* \"#utility.yul\":532:556   */\n  tag_21\n    /* \"#utility.yul\":550:555   */\n  dup3\n    /* \"#utility.yul\":532:556   */\n  tag_10\n  jump\t// in\ntag_21:\n    /* \"#utility.yul\":521:556   */\n  swap1\n  pop\n    /* \"#utility.yul\":466:562   */\n  swap2\n  swap1\n  pop\n  jump\t// out\n    /* \"#utility.yul\":568:682   */\ntag_12:\n    /* \"#utility.yul\":623:630   */\n  0x00\n    /* \"#utility.yul\":652:676   */\n  tag_23\n    /* \"#utility.yul\":670:675   */\n  dup3\n    /* \"#utility.yul\":652:676   */\n  tag_11\n  jump\t// in\ntag_23:\n    /* \"#utility.yul\":641:676   */\n  swap1\n  pop\n    /* \"#utility.yul\":568:682   */\n  swap2\n  swap1\n  pop\n  jump\t// out\n    /* \"#utility.yul\":688:846   */\ntag_13:\n    /* \"#utility.yul\":779:821   */\n  tag_25\n    /* \"#utility.yul\":815:820   */\n  dup2\n    /* \"#utility.yul\":779:821   */\n  tag_12\n  jump\t// in\ntag_25:\n    /* \"#utility.yul\":772:777   */\n  dup2\n    /* \"#utility.yul\":769:822   */\n  eq\n    /* \"#utility.yul\":759:840   */\n  tag_26\n  jumpi\n    /* \"#utility.yul\":836:837   */\n  0x00\n    /* \"#utility.yul\":833:834   */\n  dup1\n    /* \"#utility.yul\":826:838   */\n  revert\n    /* \"#utility.yul\":759:840   */\ntag_26:\n    /* \"#utility.yul\":688:846   */\n  pop\n  jump\t// out\n    /* \"#utility.yul\":852:1031   */\ntag_14:\n    /* \"#utility.yul\":927:932   */\n  0x00\n    /* \"#utility.yul\":958:964   */\n  dup2\n    /* \"#utility.yul\":952:965   */\n  mload\n    /* \"#utility.yul\":943:965   */\n  swap1\n  pop\n    /* \"#utility.yul\":974:1025   */\n  tag_28\n    /* \"#utility.yul\":1019:1024   */\n  dup2\n    /* \"#utility.yul\":974:1025   */\n  tag_13\n  jump\t// in\ntag_28:\n    /* \"#utility.yul\":852:1031   */\n  swap3\n  swap2\n  pop\n  pop\n  jump\t// out\n    /* \"#utility.yul\":1037:1424   */\ntag_3:\n    /* \"#utility.yul\":1125:1131   */\n  0x00\n    /* \"#utility.yul\":1174:1176   */\n  0x20\n    /* \"#utility.yul\":1162:1171   */\n  dup3\n    /* \"#utility.yul\":1153:1160   */\n  dup5\n    /* \"#utility.yul\":1149:1172   */\n  sub\n    /* \"#utility.yul\":1145:1177   */\n  slt\n    /* \"#utility.yul\":1142:1261   */\n  iszero\n  tag_30\n  jumpi\n    /* \"#utility.yul\":1180:1259   */\n  tag_31\n  tag_8\n  jump\t// in\ntag_31:\n    /* \"#utility.yul\":1142:1261   */\ntag_30:\n    /* \"#utility.yul\":1300:1301   */\n  0x00\n    /* \"#utility.yul\":1325:1407   */\n  tag_32\n    /* \"#utility.yul\":1399:1406   */\n  dup5\n    /* \"#utility.yul\":1390:1396   */\n  dup3\n    /* \"#utility.yul\":1379:1388   */\n  dup6\n    /* \"#utility.yul\":1375:1397   */\n  add\n    /* \"#utility.yul\":1325:1407   */\n  tag_14\n  jump\t// in\ntag_32:\n    /* \"#utility.yul\":1315:1407   */\n  swap2\n  pop\n    /* \"#utility.yul\":1271:1417   */\n  pop\n    /* \"#utility.yul\":1037:1424   */\n  swap3\n  swap2\n  pop\n  pop\n  jump\t// out\n    /* \"contracts/Challenge.sol\":92:332  contract Challenge {... */\ntag_6:\n  mload(0x80)\n  codecopy(0x00, dataOffset(sub_0), dataSize(sub_0))\n  0x00\n  assignImmutable(\"0xd12d39d4aaf0e4952cb4988b78e6d320de21ef25f14bde9c25e87cebeb92336d\")\n  return(0x00, dataSize(sub_0))\nstop\n\nsub_0: assembly {\n        /* \"contracts/Challenge.sol\":92:332  contract Challenge {... */\n      mstore(0x40, 0x80)\n      callvalue\n      dup1\n      iszero\n      tag_1\n      jumpi\n      0x00\n      dup1\n      revert\n    tag_1:\n      pop\n      jumpi(tag_2, lt(calldatasize, 0x04))\n      shr(0xe0, calldataload(0x00))\n      dup1\n      0x64d98f6e\n      eq\n      tag_3\n      jumpi\n      dup1\n      0xddeab9e7\n      eq\n      tag_4\n      jumpi\n    tag_2:\n      0x00\n      dup1\n      revert\n        /* \"contracts/Challenge.sol\":237:330  function isSolved() external view returns (bool) {... */\n    tag_3:\n      tag_5\n      tag_6\n      jump\t// in\n    tag_5:\n      mload(0x40)\n      tag_7\n      swap2\n      swap1\n      tag_8\n      jump\t// in\n    tag_7:\n      mload(0x40)\n      dup1\n      swap2\n      sub\n      swap1\n      return\n        /* \"contracts/Challenge.sol\":117:153  SpaceBank public immutable SPACEBANK */\n    tag_4:\n      tag_9\n      tag_10\n      jump\t// in\n    tag_9:\n      mload(0x40)\n      tag_11\n      swap2\n      swap1\n      tag_12\n      jump\t// in\n    tag_11:\n      mload(0x40)\n      dup1\n      swap2\n      sub\n      swap1\n      return\n        /* \"contracts/Challenge.sol\":237:330  function isSolved() external view returns (bool) {... */\n    tag_6:\n        /* \"contracts/Challenge.sol\":280:284  bool */\n      0x00\n        /* \"contracts/Challenge.sol\":303:312  SPACEBANK */\n      immutable(\"0xd12d39d4aaf0e4952cb4988b78e6d320de21ef25f14bde9c25e87cebeb92336d\")\n        /* \"contracts/Challenge.sol\":303:321  SPACEBANK.exploded */\n      0xffffffffffffffffffffffffffffffffffffffff\n      and\n      0xae464b24\n        /* \"contracts/Challenge.sol\":303:323  SPACEBANK.exploded() */\n      mload(0x40)\n      dup2\n      0xffffffff\n      and\n      0xe0\n      shl\n      dup2\n      mstore\n      0x04\n      add\n      0x20\n      mload(0x40)\n      dup1\n      dup4\n      sub\n      dup2\n      dup7\n      gas\n      staticcall\n      iszero\n      dup1\n      iszero\n      tag_15\n      jumpi\n      returndatasize\n      0x00\n      dup1\n      returndatacopy\n      revert(0x00, returndatasize)\n    tag_15:\n      pop\n      pop\n      pop\n      pop\n      mload(0x40)\n      returndatasize\n      not(0x1f)\n      0x1f\n      dup3\n      add\n      and\n      dup3\n      add\n      dup1\n      0x40\n      mstore\n      pop\n      dup2\n      add\n      swap1\n      tag_16\n      swap2\n      swap1\n      tag_17\n      jump\t// in\n    tag_16:\n        /* \"contracts/Challenge.sol\":296:323  return SPACEBANK.exploded() */\n      swap1\n      pop\n        /* \"contracts/Challenge.sol\":237:330  function isSolved() external view returns (bool) {... */\n      swap1\n      jump\t// out\n        /* \"contracts/Challenge.sol\":117:153  SpaceBank public immutable SPACEBANK */\n    tag_10:\n      immutable(\"0xd12d39d4aaf0e4952cb4988b78e6d320de21ef25f14bde9c25e87cebeb92336d\")\n      dup2\n      jump\t// out\n        /* \"#utility.yul\":7:97   */\n    tag_18:\n        /* \"#utility.yul\":41:48   */\n      0x00\n        /* \"#utility.yul\":84:89   */\n      dup2\n        /* \"#utility.yul\":77:90   */\n      iszero\n        /* \"#utility.yul\":70:91   */\n      iszero\n        /* \"#utility.yul\":59:91   */\n      swap1\n      pop\n        /* \"#utility.yul\":7:97   */\n      swap2\n      swap1\n      pop\n      jump\t// out\n        /* \"#utility.yul\":103:212   */\n    tag_19:\n        /* \"#utility.yul\":184:205   */\n      tag_34\n        /* \"#utility.yul\":199:204   */\n      dup2\n        /* \"#utility.yul\":184:205   */\n      tag_18\n      jump\t// in\n    tag_34:\n        /* \"#utility.yul\":179:182   */\n      dup3\n        /* \"#utility.yul\":172:206   */\n      mstore\n        /* \"#utility.yul\":103:212   */\n      pop\n      pop\n      jump\t// out\n        /* \"#utility.yul\":218:428   */\n    tag_8:\n        /* \"#utility.yul\":305:309   */\n      0x00\n        /* \"#utility.yul\":343:345   */\n      0x20\n        /* \"#utility.yul\":332:341   */\n      dup3\n        /* \"#utility.yul\":328:346   */\n      add\n        /* \"#utility.yul\":320:346   */\n      swap1\n      pop\n        /* \"#utility.yul\":356:421   */\n      tag_36\n        /* \"#utility.yul\":418:419   */\n      0x00\n        /* \"#utility.yul\":407:416   */\n      dup4\n        /* \"#utility.yul\":403:420   */\n      add\n        /* \"#utility.yul\":394:400   */\n      dup5\n        /* \"#utility.yul\":356:421   */\n      tag_19\n      jump\t// in\n    tag_36:\n        /* \"#utility.yul\":218:428   */\n      swap3\n      swap2\n      pop\n      pop\n      jump\t// out\n        /* \"#utility.yul\":434:560   */\n    tag_20:\n        /* \"#utility.yul\":471:478   */\n      0x00\n        /* \"#utility.yul\":511:553   */\n      0xffffffffffffffffffffffffffffffffffffffff\n        /* \"#utility.yul\":504:509   */\n      dup3\n        /* \"#utility.yul\":500:554   */\n      and\n        /* \"#utility.yul\":489:554   */\n      swap1\n      pop\n        /* \"#utility.yul\":434:560   */\n      swap2\n      swap1\n      pop\n      jump\t// out\n        /* \"#utility.yul\":566:626   */\n    tag_21:\n        /* \"#utility.yul\":594:597   */\n      0x00\n        /* \"#utility.yul\":615:620   */\n      dup2\n        /* \"#utility.yul\":608:620   */\n      swap1\n      pop\n        /* \"#utility.yul\":566:626   */\n      swap2\n      swap1\n      pop\n      jump\t// out\n        /* \"#utility.yul\":632:774   */\n    tag_22:\n        /* \"#utility.yul\":682:691   */\n      0x00\n        /* \"#utility.yul\":715:768   */\n      tag_40\n        /* \"#utility.yul\":733:767   */\n      tag_41\n        /* \"#utility.yul\":742:766   */\n      tag_42\n        /* \"#utility.yul\":760:765   */\n      dup5\n        /* \"#utility.yul\":742:766   */\n      tag_20\n      jump\t// in\n    tag_42:\n        /* \"#utility.yul\":733:767   */\n      tag_21\n      jump\t// in\n    tag_41:\n        /* \"#utility.yul\":715:768   */\n      tag_20\n      jump\t// in\n    tag_40:\n        /* \"#utility.yul\":702:768   */\n      swap1\n      pop\n        /* \"#utility.yul\":632:774   */\n      swap2\n      swap1\n      pop\n      jump\t// out\n        /* \"#utility.yul\":780:906   */\n    tag_23:\n        /* \"#utility.yul\":830:839   */\n      0x00\n        /* \"#utility.yul\":863:900   */\n      tag_44\n        /* \"#utility.yul\":894:899   */\n      dup3\n        /* \"#utility.yul\":863:900   */\n      tag_22\n      jump\t// in\n    tag_44:\n        /* \"#utility.yul\":850:900   */\n      swap1\n      pop\n        /* \"#utility.yul\":780:906   */\n      swap2\n      swap1\n      pop\n      jump\t// out\n        /* \"#utility.yul\":912:1056   */\n    tag_24:\n        /* \"#utility.yul\":980:989   */\n      0x00\n        /* \"#utility.yul\":1013:1050   */\n      tag_46\n        /* \"#utility.yul\":1044:1049   */\n      dup3\n        /* \"#utility.yul\":1013:1050   */\n      tag_23\n      jump\t// in\n    tag_46:\n        /* \"#utility.yul\":1000:1050   */\n      swap1\n      pop\n        /* \"#utility.yul\":912:1056   */\n      swap2\n      swap1\n      pop\n      jump\t// out\n        /* \"#utility.yul\":1062:1229   */\n    tag_25:\n        /* \"#utility.yul\":1167:1222   */\n      tag_48\n        /* \"#utility.yul\":1216:1221   */\n      dup2\n        /* \"#utility.yul\":1167:1222   */\n      tag_24\n      jump\t// in\n    tag_48:\n        /* \"#utility.yul\":1162:1165   */\n      dup3\n        /* \"#utility.yul\":1155:1223   */\n      mstore\n        /* \"#utility.yul\":1062:1229   */\n      pop\n      pop\n      jump\t// out\n        /* \"#utility.yul\":1235:1493   */\n    tag_12:\n        /* \"#utility.yul\":1346:1350   */\n      0x00\n        /* \"#utility.yul\":1384:1386   */\n      0x20\n        /* \"#utility.yul\":1373:1382   */\n      dup3\n        /* \"#utility.yul\":1369:1387   */\n      add\n        /* \"#utility.yul\":1361:1387   */\n      swap1\n      pop\n        /* \"#utility.yul\":1397:1486   */\n      tag_50\n        /* \"#utility.yul\":1483:1484   */\n      0x00\n        /* \"#utility.yul\":1472:1481   */\n      dup4\n        /* \"#utility.yul\":1468:1485   */\n      add\n        /* \"#utility.yul\":1459:1465   */\n      dup5\n        /* \"#utility.yul\":1397:1486   */\n      tag_25\n      jump\t// in\n    tag_50:\n        /* \"#utility.yul\":1235:1493   */\n      swap3\n      swap2\n      pop\n      pop\n      jump\t// out\n        /* \"#utility.yul\":1580:1697   */\n    tag_27:\n        /* \"#utility.yul\":1689:1690   */\n      0x00\n        /* \"#utility.yul\":1686:1687   */\n      dup1\n        /* \"#utility.yul\":1679:1691   */\n      revert\n        /* \"#utility.yul\":1826:1942   */\n    tag_29:\n        /* \"#utility.yul\":1896:1917   */\n      tag_55\n        /* \"#utility.yul\":1911:1916   */\n      dup2\n        /* \"#utility.yul\":1896:1917   */\n      tag_18\n      jump\t// in\n    tag_55:\n        /* \"#utility.yul\":1889:1894   */\n      dup2\n        /* \"#utility.yul\":1886:1918   */\n      eq\n        /* \"#utility.yul\":1876:1936   */\n      tag_56\n      jumpi\n        /* \"#utility.yul\":1932:1933   */\n      0x00\n        /* \"#utility.yul\":1929:1930   */\n      dup1\n        /* \"#utility.yul\":1922:1934   */\n      revert\n        /* \"#utility.yul\":1876:1936   */\n    tag_56:\n        /* \"#utility.yul\":1826:1942   */\n      pop\n      jump\t// out\n        /* \"#utility.yul\":1948:2085   */\n    tag_30:\n        /* \"#utility.yul\":2002:2007   */\n      0x00\n        /* \"#utility.yul\":2033:2039   */\n      dup2\n        /* \"#utility.yul\":2027:2040   */\n      mload\n        /* \"#utility.yul\":2018:2040   */\n      swap1\n      pop\n        /* \"#utility.yul\":2049:2079   */\n      tag_58\n        /* \"#utility.yul\":2073:2078   */\n      dup2\n        /* \"#utility.yul\":2049:2079   */\n      tag_29\n      jump\t// in\n    tag_58:\n        /* \"#utility.yul\":1948:2085   */\n      swap3\n      swap2\n      pop\n      pop\n      jump\t// out\n        /* \"#utility.yul\":2091:2436   */\n    tag_17:\n        /* \"#utility.yul\":2158:2164   */\n      0x00\n        /* \"#utility.yul\":2207:2209   */\n      0x20\n        /* \"#utility.yul\":2195:2204   */\n      dup3\n        /* \"#utility.yul\":2186:2193   */\n      dup5\n        /* \"#utility.yul\":2182:2205   */\n      sub\n        /* \"#utility.yul\":2178:2210   */\n      slt\n        /* \"#utility.yul\":2175:2294   */\n      iszero\n      tag_60\n      jumpi\n        /* \"#utility.yul\":2213:2292   */\n      tag_61\n      tag_27\n      jump\t// in\n    tag_61:\n        /* \"#utility.yul\":2175:2294   */\n    tag_60:\n        /* \"#utility.yul\":2333:2334   */\n      0x00\n        /* \"#utility.yul\":2358:2419   */\n      tag_62\n        /* \"#utility.yul\":2411:2418   */\n      dup5\n        /* \"#utility.yul\":2402:2408   */\n      dup3\n        /* \"#utility.yul\":2391:2400   */\n      dup6\n        /* \"#utility.yul\":2387:2409   */\n      add\n        /* \"#utility.yul\":2358:2419   */\n      tag_30\n      jump\t// in\n    tag_62:\n        /* \"#utility.yul\":2348:2419   */\n      swap2\n      pop\n        /* \"#utility.yul\":2304:2429   */\n      pop\n        /* \"#utility.yul\":2091:2436   */\n      swap3\n      swap2\n      pop\n      pop\n      jump\t// out\n\n    auxdata: 0xa26469706673582212203c9595528e1e759402329833e04a93bfa7223bf2db7d5e2a418fd21328df1e6d64736f6c63430008190033\n}\n",
				"bytecode": {
					"linkReferences": {},
					"object": "60a060405234801561000f575f80fd5b506040516103a33803806103a3833981810160405281019061003191906100da565b8073ffffffffffffffffffffffffffffffffffffffff1660808173ffffffffffffffffffffffffffffffffffffffff168152505050610105565b5f80fd5b5f73ffffffffffffffffffffffffffffffffffffffff82169050919050565b5f6100988261006f565b9050919050565b5f6100a98261008e565b9050919050565b6100b98161009f565b81146100c3575f80fd5b50565b5f815190506100d4816100b0565b92915050565b5f602082840312156100ef576100ee61006b565b5b5f6100fc848285016100c6565b91505092915050565b6080516102806101235f395f81816077015261010901526102805ff3fe608060405234801561000f575f80fd5b5060043610610034575f3560e01c806364d98f6e14610038578063ddeab9e714610056575b5f80fd5b610040610074565b60405161004d9190610145565b60405180910390f35b61005e610107565b60405161006b91906101d8565b60405180910390f35b5f7f000000000000000000000000000000000000000000000000000000000000000073ffffffffffffffffffffffffffffffffffffffff1663ae464b246040518163ffffffff1660e01b8152600401602060405180830381865afa1580156100de573d5f803e3d5ffd5b505050506040513d601f19601f82011682018060405250810190610102919061021f565b905090565b7f000000000000000000000000000000000000000000000000000000000000000081565b5f8115159050919050565b61013f8161012b565b82525050565b5f6020820190506101585f830184610136565b92915050565b5f73ffffffffffffffffffffffffffffffffffffffff82169050919050565b5f819050919050565b5f6101a061019b6101968461015e565b61017d565b61015e565b9050919050565b5f6101b182610186565b9050919050565b5f6101c2826101a7565b9050919050565b6101d2816101b8565b82525050565b5f6020820190506101eb5f8301846101c9565b92915050565b5f80fd5b6101fe8161012b565b8114610208575f80fd5b50565b5f81519050610219816101f5565b92915050565b5f60208284031215610234576102336101f1565b5b5f6102418482850161020b565b9150509291505056fea26469706673582212203c9595528e1e759402329833e04a93bfa7223bf2db7d5e2a418fd21328df1e6d64736f6c63430008190033",
					"opcodes": "PUSH1 0xA0 PUSH1 0x40 MSTORE CALLVALUE DUP1 ISZERO PUSH2 0xF JUMPI PUSH0 DUP1 REVERT JUMPDEST POP PUSH1 0x40 MLOAD PUSH2 0x3A3 CODESIZE SUB DUP1 PUSH2 0x3A3 DUP4 CODECOPY DUP2 DUP2 ADD PUSH1 0x40 MSTORE DUP2 ADD SWAP1 PUSH2 0x31 SWAP2 SWAP1 PUSH2 0xDA JUMP JUMPDEST DUP1 PUSH20 0xFFFFFFFFFFFFFFFFFFFFFFFFFFFFFFFFFFFFFFFF AND PUSH1 0x80 DUP2 PUSH20 0xFFFFFFFFFFFFFFFFFFFFFFFFFFFFFFFFFFFFFFFF AND DUP2 MSTORE POP POP POP PUSH2 0x105 JUMP JUMPDEST PUSH0 DUP1 REVERT JUMPDEST PUSH0 PUSH20 0xFFFFFFFFFFFFFFFFFFFFFFFFFFFFFFFFFFFFFFFF DUP3 AND SWAP1 POP SWAP2 SWAP1 POP JUMP JUMPDEST PUSH0 PUSH2 0x98 DUP3 PUSH2 0x6F JUMP JUMPDEST SWAP1 POP SWAP2 SWAP1 POP JUMP JUMPDEST PUSH0 PUSH2 0xA9 DUP3 PUSH2 0x8E JUMP JUMPDEST SWAP1 POP SWAP2 SWAP1 POP JUMP JUMPDEST PUSH2 0xB9 DUP2 PUSH2 0x9F JUMP JUMPDEST DUP2 EQ PUSH2 0xC3 JUMPI PUSH0 DUP1 REVERT JUMPDEST POP JUMP JUMPDEST PUSH0 DUP2 MLOAD SWAP1 POP PUSH2 0xD4 DUP2 PUSH2 0xB0 JUMP JUMPDEST SWAP3 SWAP2 POP POP JUMP JUMPDEST PUSH0 PUSH1 0x20 DUP3 DUP5 SUB SLT ISZERO PUSH2 0xEF JUMPI PUSH2 0xEE PUSH2 0x6B JUMP JUMPDEST JUMPDEST PUSH0 PUSH2 0xFC DUP5 DUP3 DUP6 ADD PUSH2 0xC6 JUMP JUMPDEST SWAP2 POP POP SWAP3 SWAP2 POP POP JUMP JUMPDEST PUSH1 0x80 MLOAD PUSH2 0x280 PUSH2 0x123 PUSH0 CODECOPY PUSH0 DUP2 DUP2 PUSH1 0x77 ADD MSTORE PUSH2 0x109 ADD MSTORE PUSH2 0x280 PUSH0 RETURN INVALID PUSH1 0x80 PUSH1 0x40 MSTORE CALLVALUE DUP1 ISZERO PUSH2 0xF JUMPI PUSH0 DUP1 REVERT JUMPDEST POP PUSH1 0x4 CALLDATASIZE LT PUSH2 0x34 JUMPI PUSH0 CALLDATALOAD PUSH1 0xE0 SHR DUP1 PUSH4 0x64D98F6E EQ PUSH2 0x38 JUMPI DUP1 PUSH4 0xDDEAB9E7 EQ PUSH2 0x56 JUMPI JUMPDEST PUSH0 DUP1 REVERT JUMPDEST PUSH2 0x40 PUSH2 0x74 JUMP JUMPDEST PUSH1 0x40 MLOAD PUSH2 0x4D SWAP2 SWAP1 PUSH2 0x145 JUMP JUMPDEST PUSH1 0x40 MLOAD DUP1 SWAP2 SUB SWAP1 RETURN JUMPDEST PUSH2 0x5E PUSH2 0x107 JUMP JUMPDEST PUSH1 0x40 MLOAD PUSH2 0x6B SWAP2 SWAP1 PUSH2 0x1D8 JUMP JUMPDEST PUSH1 0x40 MLOAD DUP1 SWAP2 SUB SWAP1 RETURN JUMPDEST PUSH0 PUSH32 0x0 PUSH20 0xFFFFFFFFFFFFFFFFFFFFFFFFFFFFFFFFFFFFFFFF AND PUSH4 0xAE464B24 PUSH1 0x40 MLOAD DUP2 PUSH4 0xFFFFFFFF AND PUSH1 0xE0 SHL DUP2 MSTORE PUSH1 0x4 ADD PUSH1 0x20 PUSH1 0x40 MLOAD DUP1 DUP4 SUB DUP2 DUP7 GAS STATICCALL ISZERO DUP1 ISZERO PUSH2 0xDE JUMPI RETURNDATASIZE PUSH0 DUP1 RETURNDATACOPY RETURNDATASIZE PUSH0 REVERT JUMPDEST POP POP POP POP PUSH1 0x40 MLOAD RETURNDATASIZE PUSH1 0x1F NOT PUSH1 0x1F DUP3 ADD AND DUP3 ADD DUP1 PUSH1 0x40 MSTORE POP DUP2 ADD SWAP1 PUSH2 0x102 SWAP2 SWAP1 PUSH2 0x21F JUMP JUMPDEST SWAP1 POP SWAP1 JUMP JUMPDEST PUSH32 0x0 DUP2 JUMP JUMPDEST PUSH0 DUP2 ISZERO ISZERO SWAP1 POP SWAP2 SWAP1 POP JUMP JUMPDEST PUSH2 0x13F DUP2 PUSH2 0x12B JUMP JUMPDEST DUP3 MSTORE POP POP JUMP JUMPDEST PUSH0 PUSH1 0x20 DUP3 ADD SWAP1 POP PUSH2 0x158 PUSH0 DUP4 ADD DUP5 PUSH2 0x136 JUMP JUMPDEST SWAP3 SWAP2 POP POP JUMP JUMPDEST PUSH0 PUSH20 0xFFFFFFFFFFFFFFFFFFFFFFFFFFFFFFFFFFFFFFFF DUP3 AND SWAP1 POP SWAP2 SWAP1 POP JUMP JUMPDEST PUSH0 DUP2 SWAP1 POP SWAP2 SWAP1 POP JUMP JUMPDEST PUSH0 PUSH2 0x1A0 PUSH2 0x19B PUSH2 0x196 DUP5 PUSH2 0x15E JUMP JUMPDEST PUSH2 0x17D JUMP JUMPDEST PUSH2 0x15E JUMP JUMPDEST SWAP1 POP SWAP2 SWAP1 POP JUMP JUMPDEST PUSH0 PUSH2 0x1B1 DUP3 PUSH2 0x186 JUMP JUMPDEST SWAP1 POP SWAP2 SWAP1 POP JUMP JUMPDEST PUSH0 PUSH2 0x1C2 DUP3 PUSH2 0x1A7 JUMP JUMPDEST SWAP1 POP SWAP2 SWAP1 POP JUMP JUMPDEST PUSH2 0x1D2 DUP2 PUSH2 0x1B8 JUMP JUMPDEST DUP3 MSTORE POP POP JUMP JUMPDEST PUSH0 PUSH1 0x20 DUP3 ADD SWAP1 POP PUSH2 0x1EB PUSH0 DUP4 ADD DUP5 PUSH2 0x1C9 JUMP JUMPDEST SWAP3 SWAP2 POP POP JUMP JUMPDEST PUSH0 DUP1 REVERT JUMPDEST PUSH2 0x1FE DUP2 PUSH2 0x12B JUMP JUMPDEST DUP2 EQ PUSH2 0x208 JUMPI PUSH0 DUP1 REVERT JUMPDEST POP JUMP JUMPDEST PUSH0 DUP2 MLOAD SWAP1 POP PUSH2 0x219 DUP2 PUSH2 0x1F5 JUMP JUMPDEST SWAP3 SWAP2 POP POP JUMP JUMPDEST PUSH0 PUSH1 0x20 DUP3 DUP5 SUB SLT ISZERO PUSH2 0x234 JUMPI PUSH2 0x233 PUSH2 0x1F1 JUMP JUMPDEST JUMPDEST PUSH0 PUSH2 0x241 DUP5 DUP3 DUP6 ADD PUSH2 0x20B JUMP JUMPDEST SWAP2 POP POP SWAP3 SWAP2 POP POP JUMP INVALID LOG2 PUSH5 0x6970667358 0x22 SLT KECCAK256 EXTCODECOPY SWAP6 SWAP6 MSTORE DUP15 0x1E PUSH22 0x9402329833E04A93BFA7223BF2DB7D5E2A418FD21328 0xDF 0x1E PUSH14 0x64736F6C63430008190033000000 "
				},
				"gasEstimates": {
					"creation": {
						"codeDepositCost": "128000",
						"executionCost": "infinite",
						"totalCost": "infinite"
					},
					"external": {
						"SPACEBANK()": "infinite",
						"isSolved()": "infinite"
					}
				},
				"methodIdentifiers": {
					"SPACEBANK()": "ddeab9e7",
					"isSolved()": "64d98f6e"
				}
			},
			"storageLayout": {
				"storage": [],
				"types": null
			},
			"userdoc": {
				"kind": "user",
				"methods": {},
				"version": 1
			}
		}
	}
}