{
	"data": {
		"bytecode": {
			"linkReferences": {},
			"object": "608060405234801561000f575f80fd5b506108658061001d5f395ff3fe608060405234801561000f575f80fd5b5060043610610034575f3560e01c806373203ef114610038578063ba5d307814610054575b5f80fd5b610052600480360381019061004d9190610348565b610072565b005b61005c6101a2565b60405161006991906103e1565b60405180910390f35b60128160ff16116100b8576040517f08c379a00000000000000000000000000000000000000000000000000000000081526004016100af9061047a565b60405180910390fd5b5f8160ff16036100cb576100ca610498565b5b60238160ff161115610112576040517f08c379a000000000000000000000000000000000000000000000000000000000815260040161010990610535565b60405180910390fd5b60405180604001604052808381526020018260ff1681525060015f3373ffffffffffffffffffffffffffffffffffffffff1673ffffffffffffffffffffffffffffffffffffffff1681526020019081526020015f205f820151815f01908161017a9190610760565b506020820151816001015f6101000a81548160ff021916908360ff1602179055509050505050565b5f8054906101000a900473ffffffffffffffffffffffffffffffffffffffff1681565b5f604051905090565b5f80fd5b5f80fd5b5f80fd5b5f80fd5b5f601f19601f8301169050919050565b7f4e487b71000000000000000000000000000000000000000000000000000000005f52604160045260245ffd5b610224826101de565b810181811067ffffffffffffffff82111715610243576102426101ee565b5b80604052505050565b5f6102556101c5565b9050610261828261021b565b919050565b5f67ffffffffffffffff8211156102805761027f6101ee565b5b610289826101de565b9050602081019050919050565b828183375f83830152505050565b5f6102b66102b184610266565b61024c565b9050828152602081018484840111156102d2576102d16101da565b5b6102dd848285610296565b509392505050565b5f82601f8301126102f9576102f86101d6565b5b81356103098482602086016102a4565b91505092915050565b5f60ff82169050919050565b61032781610312565b8114610331575f80fd5b50565b5f813590506103428161031e565b92915050565b5f806040838503121561035e5761035d6101ce565b5b5f83013567ffffffffffffffff81111561037b5761037a6101d2565b5b610387858286016102e5565b925050602061039885828601610334565b9150509250929050565b5f73ffffffffffffffffffffffffffffffffffffffff82169050919050565b5f6103cb826103a2565b9050919050565b6103db816103c1565b82525050565b5f6020820190506103f45f8301846103d2565b92915050565b5f82825260208201905092915050565b7f736f72727920796f75206861766520746f20626520616e206164756c7420746f5f8201527f20626520616e206164756c740000000000000000000000000000000000000000602082015250565b5f610464602c836103fa565b915061046f8261040a565b604082019050919050565b5f6020820190508181035f83015261049181610458565b9050919050565b7f4e487b71000000000000000000000000000000000000000000000000000000005f52600160045260245ffd5b7f736f7272792c207765206f6e6c792074616b65206170706c6963616e747320625f8201527f656c6f7720333520796561727300000000000000000000000000000000000000602082015250565b5f61051f602d836103fa565b915061052a826104c5565b604082019050919050565b5f6020820190508181035f83015261054c81610513565b9050919050565b5f81519050919050565b7f4e487b71000000000000000000000000000000000000000000000000000000005f52602260045260245ffd5b5f60028204905060018216806105a157607f821691505b6020821081036105b4576105b361055d565b5b50919050565b5f819050815f5260205f209050919050565b5f6020601f8301049050919050565b5f82821b905092915050565b5f600883026106167fffffffffffffffffffffffffffffffffffffffffffffffffffffffffffffffff826105db565b61062086836105db565b95508019841693508086168417925050509392505050565b5f819050919050565b5f819050919050565b5f61066461065f61065a84610638565b610641565b610638565b9050919050565b5f819050919050565b61067d8361064a565b6106916106898261066b565b8484546105e7565b825550505050565b5f90565b6106a5610699565b6106b0818484610674565b505050565b5b818110156106d3576106c85f8261069d565b6001810190506106b6565b5050565b601f821115610718576106e9816105ba565b6106f2846105cc565b81016020851015610701578190505b61071561070d856105cc565b8301826106b5565b50505b505050565b5f82821c905092915050565b5f6107385f198460080261071d565b1980831691505092915050565b5f6107508383610729565b9150826002028217905092915050565b61076982610553565b67ffffffffffffffff811115610782576107816101ee565b5b61078c825461058a565b6107978282856106d7565b5f60209050601f8311600181146107c8575f84156107b6578287015190505b6107c08582610745565b865550610827565b601f1984166107d6866105ba565b5f5b828110156107fd578489015182556001820191506020850194506020810190506107d8565b8683101561081a5784890151610816601f891682610729565b8355505b6001600288020188555050505b50505050505056fea2646970667358221220018ee398bc1c0ff7928e32feeb385139847b21d1804167083cc4132b0373c00564736f6c63430008180033",
			"opcodes": "PUSH1 0x80 PUSH1 0x40 MSTORE CALLVALUE DUP1 ISZERO PUSH2 0xF JUMPI PUSH0 DUP1 REVERT JUMPDEST POP PUSH2 0x865 DUP1 PUSH2 0x1D PUSH0 CODECOPY PUSH0 RETURN INVALID PUSH1 0x80 PUSH1 0x40 MSTORE CALLVALUE DUP1 ISZERO PUSH2 0xF JUMPI PUSH0 DUP1 REVERT JUMPDEST POP PUSH1 0x4 CALLDATASIZE LT PUSH2 0x34 JUMPI PUSH0 CALLDATALOAD PUSH1 0xE0 SHR DUP1 PUSH4 0x73203EF1 EQ PUSH2 0x38 JUMPI DUP1 PUSH4 0xBA5D3078 EQ PUSH2 0x54 JUMPI JUMPDEST PUSH0 DUP1 REVERT JUMPDEST PUSH2 0x52 PUSH1 0x4 DUP1 CALLDATASIZE SUB DUP2 ADD SWAP1 PUSH2 0x4D SWAP2 SWAP1 PUSH2 0x348 JUMP JUMPDEST PUSH2 0x72 JUMP JUMPDEST STOP JUMPDEST PUSH2 0x5C PUSH2 0x1A2 JUMP JUMPDEST PUSH1 0x40 MLOAD PUSH2 0x69 SWAP2 SWAP1 PUSH2 0x3E1 JUMP JUMPDEST PUSH1 0x40 MLOAD DUP1 SWAP2 SUB SWAP1 RETURN JUMPDEST PUSH1 0x12 DUP2 PUSH1 0xFF AND GT PUSH2 0xB8 JUMPI PUSH1 0x40 MLOAD PUSH32 0x8C379A000000000000000000000000000000000000000000000000000000000 DUP2 MSTORE PUSH1 0x4 ADD PUSH2 0xAF SWAP1 PUSH2 0x47A JUMP JUMPDEST PUSH1 0x40 MLOAD DUP1 SWAP2 SUB SWAP1 REVERT JUMPDEST PUSH0 DUP2 PUSH1 0xFF AND SUB PUSH2 0xCB JUMPI PUSH2 0xCA PUSH2 0x498 JUMP JUMPDEST JUMPDEST PUSH1 0x23 DUP2 PUSH1 0xFF AND GT ISZERO PUSH2 0x112 JUMPI PUSH1 0x40 MLOAD PUSH32 0x8C379A000000000000000000000000000000000000000000000000000000000 DUP2 MSTORE PUSH1 0x4 ADD PUSH2 0x109 SWAP1 PUSH2 0x535 JUMP JUMPDEST PUSH1 0x40 MLOAD DUP1 SWAP2 SUB SWAP1 REVERT JUMPDEST PUSH1 0x40 MLOAD DUP1 PUSH1 0x40 ADD PUSH1 0x40 MSTORE DUP1 DUP4 DUP2 MSTORE PUSH1 0x20 ADD DUP3 PUSH1 0xFF AND DUP2 MSTORE POP PUSH1 0x1 PUSH0 CALLER PUSH20 0xFFFFFFFFFFFFFFFFFFFFFFFFFFFFFFFFFFFFFFFF AND PUSH20 0xFFFFFFFFFFFFFFFFFFFFFFFFFFFFFFFFFFFFFFFF AND DUP2 MSTORE PUSH1 0x20 ADD SWAP1 DUP2 MSTORE PUSH1 0x20 ADD PUSH0 KECCAK256 PUSH0 DUP3 ADD MLOAD DUP2 PUSH0 ADD SWAP1 DUP2 PUSH2 0x17A SWAP2 SWAP1 PUSH2 0x760 JUMP JUMPDEST POP PUSH1 0x20 DUP3 ADD MLOAD DUP2 PUSH1 0x1 ADD PUSH0 PUSH2 0x100 EXP DUP2 SLOAD DUP2 PUSH1 0xFF MUL NOT AND SWAP1 DUP4 PUSH1 0xFF AND MUL OR SWAP1 SSTORE POP SWAP1 POP POP POP POP JUMP JUMPDEST PUSH0 DUP1 SLOAD SWAP1 PUSH2 0x100 EXP SWAP1 DIV PUSH20 0xFFFFFFFFFFFFFFFFFFFFFFFFFFFFFFFFFFFFFFFF AND DUP2 JUMP JUMPDEST PUSH0 PUSH1 0x40 MLOAD SWAP1 POP SWAP1 JUMP JUMPDEST PUSH0 DUP1 REVERT JUMPDEST PUSH0 DUP1 REVERT JUMPDEST PUSH0 DUP1 REVERT JUMPDEST PUSH0 DUP1 REVERT JUMPDEST PUSH0 PUSH1 0x1F NOT PUSH1 0x1F DUP4 ADD AND SWAP1 POP SWAP2 SWAP1 POP JUMP JUMPDEST PUSH32 0x4E487B7100000000000000000000000000000000000000000000000000000000 PUSH0 MSTORE PUSH1 0x41 PUSH1 0x4 MSTORE PUSH1 0x24 PUSH0 REVERT JUMPDEST PUSH2 0x224 DUP3 PUSH2 0x1DE JUMP JUMPDEST DUP2 ADD DUP2 DUP2 LT PUSH8 0xFFFFFFFFFFFFFFFF DUP3 GT OR ISZERO PUSH2 0x243 JUMPI PUSH2 0x242 PUSH2 0x1EE JUMP JUMPDEST JUMPDEST DUP1 PUSH1 0x40 MSTORE POP POP POP JUMP JUMPDEST PUSH0 PUSH2 0x255 PUSH2 0x1C5 JUMP JUMPDEST SWAP1 POP PUSH2 0x261 DUP3 DUP3 PUSH2 0x21B JUMP JUMPDEST SWAP2 SWAP1 POP JUMP JUMPDEST PUSH0 PUSH8 0xFFFFFFFFFFFFFFFF DUP3 GT ISZERO PUSH2 0x280 JUMPI PUSH2 0x27F PUSH2 0x1EE JUMP JUMPDEST JUMPDEST PUSH2 0x289 DUP3 PUSH2 0x1DE JUMP JUMPDEST SWAP1 POP PUSH1 0x20 DUP2 ADD SWAP1 POP SWAP2 SWAP1 POP JUMP JUMPDEST DUP3 DUP2 DUP4 CALLDATACOPY PUSH0 DUP4 DUP4 ADD MSTORE POP POP POP JUMP JUMPDEST PUSH0 PUSH2 0x2B6 PUSH2 0x2B1 DUP5 PUSH2 0x266 JUMP JUMPDEST PUSH2 0x24C JUMP JUMPDEST SWAP1 POP DUP3 DUP2 MSTORE PUSH1 0x20 DUP2 ADD DUP5 DUP5 DUP5 ADD GT ISZERO PUSH2 0x2D2 JUMPI PUSH2 0x2D1 PUSH2 0x1DA JUMP JUMPDEST JUMPDEST PUSH2 0x2DD DUP5 DUP3 DUP6 PUSH2 0x296 JUMP JUMPDEST POP SWAP4 SWAP3 POP POP POP JUMP JUMPDEST PUSH0 DUP3 PUSH1 0x1F DUP4 ADD SLT PUSH2 0x2F9 JUMPI PUSH2 0x2F8 PUSH2 0x1D6 JUMP JUMPDEST JUMPDEST DUP2 CALLDATALOAD PUSH2 0x309 DUP5 DUP3 PUSH1 0x20 DUP7 ADD PUSH2 0x2A4 JUMP JUMPDEST SWAP2 POP POP SWAP3 SWAP2 POP POP JUMP JUMPDEST PUSH0 PUSH1 0xFF DUP3 AND SWAP1 POP SWAP2 SWAP1 POP JUMP JUMPDEST PUSH2 0x327 DUP2 PUSH2 0x312 JUMP JUMPDEST DUP2 EQ PUSH2 0x331 JUMPI PUSH0 DUP1 REVERT JUMPDEST POP JUMP JUMPDEST PUSH0 DUP2 CALLDATALOAD SWAP1 POP PUSH2 0x342 DUP2 PUSH2 0x31E JUMP JUMPDEST SWAP3 SWAP2 POP POP JUMP JUMPDEST PUSH0 DUP1 PUSH1 0x40 DUP4 DUP6 SUB SLT ISZERO PUSH2 0x35E JUMPI PUSH2 0x35D PUSH2 0x1CE JUMP JUMPDEST JUMPDEST PUSH0 DUP4 ADD CALLDATALOAD PUSH8 0xFFFFFFFFFFFFFFFF DUP2 GT ISZERO PUSH2 0x37B JUMPI PUSH2 0x37A PUSH2 0x1D2 JUMP JUMPDEST JUMPDEST PUSH2 0x387 DUP6 DUP3 DUP7 ADD PUSH2 0x2E5 JUMP JUMPDEST SWAP3 POP POP PUSH1 0x20 PUSH2 0x398 DUP6 DUP3 DUP7 ADD PUSH2 0x334 JUMP JUMPDEST SWAP2 POP POP SWAP3 POP SWAP3 SWAP1 POP JUMP JUMPDEST PUSH0 PUSH20 0xFFFFFFFFFFFFFFFFFFFFFFFFFFFFFFFFFFFFFFFF DUP3 AND SWAP1 POP SWAP2 SWAP1 POP JUMP JUMPDEST PUSH0 PUSH2 0x3CB DUP3 PUSH2 0x3A2 JUMP JUMPDEST SWAP1 POP SWAP2 SWAP1 POP JUMP JUMPDEST PUSH2 0x3DB DUP2 PUSH2 0x3C1 JUMP JUMPDEST DUP3 MSTORE POP POP JUMP JUMPDEST PUSH0 PUSH1 0x20 DUP3 ADD SWAP1 POP PUSH2 0x3F4 PUSH0 DUP4 ADD DUP5 PUSH2 0x3D2 JUMP JUMPDEST SWAP3 SWAP2 POP POP JUMP JUMPDEST PUSH0 DUP3 DUP3 MSTORE PUSH1 0x20 DUP3 ADD SWAP1 POP SWAP3 SWAP2 POP POP JUMP JUMPDEST PUSH32 0x736F72727920796F75206861766520746F20626520616E206164756C7420746F PUSH0 DUP3 ADD MSTORE PUSH32 0x20626520616E206164756C740000000000000000000000000000000000000000 PUSH1 0x20 DUP3 ADD MSTORE POP JUMP JUMPDEST PUSH0 PUSH2 0x464 PUSH1 0x2C DUP4 PUSH2 0x3FA JUMP JUMPDEST SWAP2 POP PUSH2 0x46F DUP3 PUSH2 0x40A JUMP JUMPDEST PUSH1 0x40 DUP3 ADD SWAP1 POP SWAP2 SWAP1 POP JUMP JUMPDEST PUSH0 PUSH1 0x20 DUP3 ADD SWAP1 POP DUP2 DUP2 SUB PUSH0 DUP4 ADD MSTORE PUSH2 0x491 DUP2 PUSH2 0x458 JUMP JUMPDEST SWAP1 POP SWAP2 SWAP1 POP JUMP JUMPDEST PUSH32 0x4E487B7100000000000000000000000000000000000000000000000000000000 PUSH0 MSTORE PUSH1 0x1 PUSH1 0x4 MSTORE PUSH1 0x24 PUSH0 REVERT JUMPDEST PUSH32 0x736F7272792C207765206F6E6C792074616B65206170706C6963616E74732062 PUSH0 DUP3 ADD MSTORE PUSH32 0x656C6F7720333520796561727300000000000000000000000000000000000000 PUSH1 0x20 DUP3 ADD MSTORE POP JUMP JUMPDEST PUSH0 PUSH2 0x51F PUSH1 0x2D DUP4 PUSH2 0x3FA JUMP JUMPDEST SWAP2 POP PUSH2 0x52A DUP3 PUSH2 0x4C5 JUMP JUMPDEST PUSH1 0x40 DUP3 ADD SWAP1 POP SWAP2 SWAP1 POP JUMP JUMPDEST PUSH0 PUSH1 0x20 DUP3 ADD SWAP1 POP DUP2 DUP2 SUB PUSH0 DUP4 ADD MSTORE PUSH2 0x54C DUP2 PUSH2 0x513 JUMP JUMPDEST SWAP1 POP SWAP2 SWAP1 POP JUMP JUMPDEST PUSH0 DUP2 MLOAD SWAP1 POP SWAP2 SWAP1 POP JUMP JUMPDEST PUSH32 0x4E487B7100000000000000000000000000000000000000000000000000000000 PUSH0 MSTORE PUSH1 0x22 PUSH1 0x4 MSTORE PUSH1 0x24 PUSH0 REVERT JUMPDEST PUSH0 PUSH1 0x2 DUP3 DIV SWAP1 POP PUSH1 0x1 DUP3 AND DUP1 PUSH2 0x5A1 JUMPI PUSH1 0x7F DUP3 AND SWAP2 POP JUMPDEST PUSH1 0x20 DUP3 LT DUP2 SUB PUSH2 0x5B4 JUMPI PUSH2 0x5B3 PUSH2 0x55D JUMP JUMPDEST JUMPDEST POP SWAP2 SWAP1 POP JUMP JUMPDEST PUSH0 DUP2 SWAP1 POP DUP2 PUSH0 MSTORE PUSH1 0x20 PUSH0 KECCAK256 SWAP1 POP SWAP2 SWAP1 POP JUMP JUMPDEST PUSH0 PUSH1 0x20 PUSH1 0x1F DUP4 ADD DIV SWAP1 POP SWAP2 SWAP1 POP JUMP JUMPDEST PUSH0 DUP3 DUP3 SHL SWAP1 POP SWAP3 SWAP2 POP POP JUMP JUMPDEST PUSH0 PUSH1 0x8 DUP4 MUL PUSH2 0x616 PUSH32 0xFFFFFFFFFFFFFFFFFFFFFFFFFFFFFFFFFFFFFFFFFFFFFFFFFFFFFFFFFFFFFFFF DUP3 PUSH2 0x5DB JUMP JUMPDEST PUSH2 0x620 DUP7 DUP4 PUSH2 0x5DB JUMP JUMPDEST SWAP6 POP DUP1 NOT DUP5 AND SWAP4 POP DUP1 DUP7 AND DUP5 OR SWAP3 POP POP POP SWAP4 SWAP3 POP POP POP JUMP JUMPDEST PUSH0 DUP2 SWAP1 POP SWAP2 SWAP1 POP JUMP JUMPDEST PUSH0 DUP2 SWAP1 POP SWAP2 SWAP1 POP JUMP JUMPDEST PUSH0 PUSH2 0x664 PUSH2 0x65F PUSH2 0x65A DUP5 PUSH2 0x638 JUMP JUMPDEST PUSH2 0x641 JUMP JUMPDEST PUSH2 0x638 JUMP JUMPDEST SWAP1 POP SWAP2 SWAP1 POP JUMP JUMPDEST PUSH0 DUP2 SWAP1 POP SWAP2 SWAP1 POP JUMP JUMPDEST PUSH2 0x67D DUP4 PUSH2 0x64A JUMP JUMPDEST PUSH2 0x691 PUSH2 0x689 DUP3 PUSH2 0x66B JUMP JUMPDEST DUP5 DUP5 SLOAD PUSH2 0x5E7 JUMP JUMPDEST DUP3 SSTORE POP POP POP POP JUMP JUMPDEST PUSH0 SWAP1 JUMP JUMPDEST PUSH2 0x6A5 PUSH2 0x699 JUMP JUMPDEST PUSH2 0x6B0 DUP2 DUP5 DUP5 PUSH2 0x674 JUMP JUMPDEST POP POP POP JUMP JUMPDEST JUMPDEST DUP2 DUP2 LT ISZERO PUSH2 0x6D3 JUMPI PUSH2 0x6C8 PUSH0 DUP3 PUSH2 0x69D JUMP JUMPDEST PUSH1 0x1 DUP2 ADD SWAP1 POP PUSH2 0x6B6 JUMP JUMPDEST POP POP JUMP JUMPDEST PUSH1 0x1F DUP3 GT ISZERO PUSH2 0x718 JUMPI PUSH2 0x6E9 DUP2 PUSH2 0x5BA JUMP JUMPDEST PUSH2 0x6F2 DUP5 PUSH2 0x5CC JUMP JUMPDEST DUP2 ADD PUSH1 0x20 DUP6 LT ISZERO PUSH2 0x701 JUMPI DUP2 SWAP1 POP JUMPDEST PUSH2 0x715 PUSH2 0x70D DUP6 PUSH2 0x5CC JUMP JUMPDEST DUP4 ADD DUP3 PUSH2 0x6B5 JUMP JUMPDEST POP POP JUMPDEST POP POP POP JUMP JUMPDEST PUSH0 DUP3 DUP3 SHR SWAP1 POP SWAP3 SWAP2 POP POP JUMP JUMPDEST PUSH0 PUSH2 0x738 PUSH0 NOT DUP5 PUSH1 0x8 MUL PUSH2 0x71D JUMP JUMPDEST NOT DUP1 DUP4 AND SWAP2 POP POP SWAP3 SWAP2 POP POP JUMP JUMPDEST PUSH0 PUSH2 0x750 DUP4 DUP4 PUSH2 0x729 JUMP JUMPDEST SWAP2 POP DUP3 PUSH1 0x2 MUL DUP3 OR SWAP1 POP SWAP3 SWAP2 POP POP JUMP JUMPDEST PUSH2 0x769 DUP3 PUSH2 0x553 JUMP JUMPDEST PUSH8 0xFFFFFFFFFFFFFFFF DUP2 GT ISZERO PUSH2 0x782 JUMPI PUSH2 0x781 PUSH2 0x1EE JUMP JUMPDEST JUMPDEST PUSH2 0x78C DUP3 SLOAD PUSH2 0x58A JUMP JUMPDEST PUSH2 0x797 DUP3 DUP3 DUP6 PUSH2 0x6D7 JUMP JUMPDEST PUSH0 PUSH1 0x20 SWAP1 POP PUSH1 0x1F DUP4 GT PUSH1 0x1 DUP2 EQ PUSH2 0x7C8 JUMPI PUSH0 DUP5 ISZERO PUSH2 0x7B6 JUMPI DUP3 DUP8 ADD MLOAD SWAP1 POP JUMPDEST PUSH2 0x7C0 DUP6 DUP3 PUSH2 0x745 JUMP JUMPDEST DUP7 SSTORE POP PUSH2 0x827 JUMP JUMPDEST PUSH1 0x1F NOT DUP5 AND PUSH2 0x7D6 DUP7 PUSH2 0x5BA JUMP JUMPDEST PUSH0 JUMPDEST DUP3 DUP2 LT ISZERO PUSH2 0x7FD JUMPI DUP5 DUP10 ADD MLOAD DUP3 SSTORE PUSH1 0x1 DUP3 ADD SWAP2 POP PUSH1 0x20 DUP6 ADD SWAP5 POP PUSH1 0x20 DUP2 ADD SWAP1 POP PUSH2 0x7D8 JUMP JUMPDEST DUP7 DUP4 LT ISZERO PUSH2 0x81A JUMPI DUP5 DUP10 ADD MLOAD PUSH2 0x816 PUSH1 0x1F DUP10 AND DUP3 PUSH2 0x729 JUMP JUMPDEST DUP4 SSTORE POP JUMPDEST PUSH1 0x1 PUSH1 0x2 DUP9 MUL ADD DUP9 SSTORE POP POP POP JUMPDEST POP POP POP POP POP POP JUMP INVALID LOG2 PUSH5 0x6970667358 0x22 SLT KECCAK256 ADD DUP15 0xE3 SWAP9 0xBC SHR 0xF 0xF7 SWAP3 DUP15 ORIGIN INVALID 0xEB CODESIZE MLOAD CODECOPY DUP5 PUSH28 0x21D1804167083CC4132B0373C00564736F6C63430008180033000000 "
		},
		"gasEstimates": {
			"creation": {
				"codeDepositCost": "429800",
				"executionCost": "466",
				"totalCost": "430266"
			},
			"external": {
				"principal()": "2505",
				"registerStudent(string,uint8)": "infinite"
			}
		},
		"methodIdentifiers": {
			"principal()": "ba5d3078",
			"registerStudent(string,uint8)": "73203ef1"
		}
	},
	"abi": [
		{
			"inputs": [],
			"name": "principal",
			"outputs": [
				{
					"internalType": "address",
					"name": "",
					"type": "address"
				}
			],
			"stateMutability": "view",
			"type": "function"
		},
		{
			"inputs": [
				{
					"internalType": "string",
					"name": "_name",
					"type": "string"
				},
				{
					"internalType": "uint8",
					"name": "_age",
					"type": "uint8"
				}
			],
			"name": "registerStudent",
			"outputs": [],
			"stateMutability": "nonpayable",
			"type": "function"
		}
	]
}