{
	"data": {
		"bytecode": {
			"linkReferences": {},
			"object": "608060405234801561000f575f80fd5b506102078061001d5f395ff3fe608060405234801561000f575f80fd5b506004361061004a575f3560e01c806306661abd1461004e5780634f2be91f1461006c578063a87d942c1461008a578063c54124be146100a8575b5f80fd5b6100566100c6565b6040516100639190610125565b60405180910390f35b6100746100cb565b6040516100819190610125565b60405180910390f35b6100926100e8565b60405161009f9190610125565b60405180910390f35b6100b06100f0565b6040516100bd9190610125565b60405180910390f35b5f5481565b5f60015f808282546100dd919061016b565b925050819055905090565b5f8054905090565b5f60015f80828254610102919061019e565b925050819055905090565b5f819050919050565b61011f8161010d565b82525050565b5f6020820190506101385f830184610116565b92915050565b7f4e487b71000000000000000000000000000000000000000000000000000000005f52601160045260245ffd5b5f6101758261010d565b91506101808361010d565b92508282019050808211156101985761019761013e565b5b92915050565b5f6101a88261010d565b91506101b38361010d565b92508282039050818111156101cb576101ca61013e565b5b9291505056fea26469706673582212207c1c16d5ff442e98a845e972bcca571d79d7d7ddfcc345a6fdfb7749a5d0141c64736f6c63430008160033",
			"opcodes": "PUSH1 0x80 PUSH1 0x40 MSTORE CALLVALUE DUP1 ISZERO PUSH2 0xF JUMPI PUSH0 DUP1 REVERT JUMPDEST POP PUSH2 0x207 DUP1 PUSH2 0x1D PUSH0 CODECOPY PUSH0 RETURN INVALID PUSH1 0x80 PUSH1 0x40 MSTORE CALLVALUE DUP1 ISZERO PUSH2 0xF JUMPI PUSH0 DUP1 REVERT JUMPDEST POP PUSH1 0x4 CALLDATASIZE LT PUSH2 0x4A JUMPI PUSH0 CALLDATALOAD PUSH1 0xE0 SHR DUP1 PUSH4 0x6661ABD EQ PUSH2 0x4E JUMPI DUP1 PUSH4 0x4F2BE91F EQ PUSH2 0x6C JUMPI DUP1 PUSH4 0xA87D942C EQ PUSH2 0x8A JUMPI DUP1 PUSH4 0xC54124BE EQ PUSH2 0xA8 JUMPI JUMPDEST PUSH0 DUP1 REVERT JUMPDEST PUSH2 0x56 PUSH2 0xC6 JUMP JUMPDEST PUSH1 0x40 MLOAD PUSH2 0x63 SWAP2 SWAP1 PUSH2 0x125 JUMP JUMPDEST PUSH1 0x40 MLOAD DUP1 SWAP2 SUB SWAP1 RETURN JUMPDEST PUSH2 0x74 PUSH2 0xCB JUMP JUMPDEST PUSH1 0x40 MLOAD PUSH2 0x81 SWAP2 SWAP1 PUSH2 0x125 JUMP JUMPDEST PUSH1 0x40 MLOAD DUP1 SWAP2 SUB SWAP1 RETURN JUMPDEST PUSH2 0x92 PUSH2 0xE8 JUMP JUMPDEST PUSH1 0x40 MLOAD PUSH2 0x9F SWAP2 SWAP1 PUSH2 0x125 JUMP JUMPDEST PUSH1 0x40 MLOAD DUP1 SWAP2 SUB SWAP1 RETURN JUMPDEST PUSH2 0xB0 PUSH2 0xF0 JUMP JUMPDEST PUSH1 0x40 MLOAD PUSH2 0xBD SWAP2 SWAP1 PUSH2 0x125 JUMP JUMPDEST PUSH1 0x40 MLOAD DUP1 SWAP2 SUB SWAP1 RETURN JUMPDEST PUSH0 SLOAD DUP2 JUMP JUMPDEST PUSH0 PUSH1 0x1 PUSH0 DUP1 DUP3 DUP3 SLOAD PUSH2 0xDD SWAP2 SWAP1 PUSH2 0x16B JUMP JUMPDEST SWAP3 POP POP DUP2 SWAP1 SSTORE SWAP1 POP SWAP1 JUMP JUMPDEST PUSH0 DUP1 SLOAD SWAP1 POP SWAP1 JUMP JUMPDEST PUSH0 PUSH1 0x1 PUSH0 DUP1 DUP3 DUP3 SLOAD PUSH2 0x102 SWAP2 SWAP1 PUSH2 0x19E JUMP JUMPDEST SWAP3 POP POP DUP2 SWAP1 SSTORE SWAP1 POP SWAP1 JUMP JUMPDEST PUSH0 DUP2 SWAP1 POP SWAP2 SWAP1 POP JUMP JUMPDEST PUSH2 0x11F DUP2 PUSH2 0x10D JUMP JUMPDEST DUP3 MSTORE POP POP JUMP JUMPDEST PUSH0 PUSH1 0x20 DUP3 ADD SWAP1 POP PUSH2 0x138 PUSH0 DUP4 ADD DUP5 PUSH2 0x116 JUMP JUMPDEST SWAP3 SWAP2 POP POP JUMP JUMPDEST PUSH32 0x4E487B7100000000000000000000000000000000000000000000000000000000 PUSH0 MSTORE PUSH1 0x11 PUSH1 0x4 MSTORE PUSH1 0x24 PUSH0 REVERT JUMPDEST PUSH0 PUSH2 0x175 DUP3 PUSH2 0x10D JUMP JUMPDEST SWAP2 POP PUSH2 0x180 DUP4 PUSH2 0x10D JUMP JUMPDEST SWAP3 POP DUP3 DUP3 ADD SWAP1 POP DUP1 DUP3 GT ISZERO PUSH2 0x198 JUMPI PUSH2 0x197 PUSH2 0x13E JUMP JUMPDEST JUMPDEST SWAP3 SWAP2 POP POP JUMP JUMPDEST PUSH0 PUSH2 0x1A8 DUP3 PUSH2 0x10D JUMP JUMPDEST SWAP2 POP PUSH2 0x1B3 DUP4 PUSH2 0x10D JUMP JUMPDEST SWAP3 POP DUP3 DUP3 SUB SWAP1 POP DUP2 DUP2 GT ISZERO PUSH2 0x1CB JUMPI PUSH2 0x1CA PUSH2 0x13E JUMP JUMPDEST JUMPDEST SWAP3 SWAP2 POP POP JUMP INVALID LOG2 PUSH5 0x6970667358 0x22 SLT KECCAK256 PUSH29 0x1C16D5FF442E98A845E972BCCA571D79D7D7DDFCC345A6FDFB7749A5D0 EQ SHR PUSH5 0x736F6C6343 STOP ADDMOD AND STOP CALLER "
		},
		"gasEstimates": {
			"creation": {
				"codeDepositCost": "103800",
				"executionCost": "151",
				"totalCost": "103951"
			},
			"external": {
				"add()": "infinite",
				"count()": "2402",
				"getCount()": "2454",
				"sub()": "infinite"
			}
		},
		"methodIdentifiers": {
			"add()": "4f2be91f",
			"count()": "06661abd",
			"getCount()": "a87d942c",
			"sub()": "c54124be"
		}
	},
	"abi": [
		{
			"inputs": [],
			"name": "add",
			"outputs": [
				{
					"internalType": "uint256",
					"name": "",
					"type": "uint256"
				}
			],
			"stateMutability": "nonpayable",
			"type": "function"
		},
		{
			"inputs": [],
			"name": "count",
			"outputs": [
				{
					"internalType": "uint256",
					"name": "",
					"type": "uint256"
				}
			],
			"stateMutability": "view",
			"type": "function"
		},
		{
			"inputs": [],
			"name": "getCount",
			"outputs": [
				{
					"internalType": "uint256",
					"name": "",
					"type": "uint256"
				}
			],
			"stateMutability": "view",
			"type": "function"
		},
		{
			"inputs": [],
			"name": "sub",
			"outputs": [
				{
					"internalType": "uint256",
					"name": "",
					"type": "uint256"
				}
			],
			"stateMutability": "nonpayable",
			"type": "function"
		}
	]
}