{
	"data": {
		"bytecode": {
			"linkReferences": {},
			"object": "60806040526a0845951614014849ffffff6004556a0845951614014849ffffff60055534801561002d575f80fd5b50604051611802380380611802833981810160405281019061004f91906100f3565b8060015f6101000a81548173ffffffffffffffffffffffffffffffffffffffff021916908373ffffffffffffffffffffffffffffffffffffffff1602179055505061011e565b5f80fd5b5f73ffffffffffffffffffffffffffffffffffffffff82169050919050565b5f6100c282610099565b9050919050565b6100d2816100b8565b81146100dc575f80fd5b50565b5f815190506100ed816100c9565b92915050565b5f6020828403121561010857610107610095565b5b5f610115848285016100df565b91505092915050565b6116d78061012b5f395ff3fe608060405234801561000f575f80fd5b506004361061007b575f3560e01c80635d303519116100595780635d303519146100e7578063ae464b2414610103578063c0711de614610121578063fc0c546a1461012b5761007b565b806327e235e31461007f5780632e1a7d4d146100af578063499cfd70146100cb575b5f80fd5b61009960048036038101906100949190610cae565b610149565b6040516100a69190610cf1565b60405180910390f35b6100c960048036038101906100c49190610d34565b61015e565b005b6100e560048036038101906100e09190610d5f565b61030f565b005b61010160048036038101906100fc9190610dfe565b61073f565b005b61010b6108f9565b6040516101189190610e75565b60405180910390f35b61012961090b565b005b610133610abf565b6040516101409190610ee9565b60405180910390f35b6002602052805f5260405f205f915090505481565b8060025f3373ffffffffffffffffffffffffffffffffffffffff1673ffffffffffffffffffffffffffffffffffffffff1681526020019081526020015f205410156101de576040517f08c379a00000000000000000000000000000000000000000000000000000000081526004016101d590610f5c565b60405180910390fd5b8060025f3373ffffffffffffffffffffffffffffffffffffffff1673ffffffffffffffffffffffffffffffffffffffff1681526020019081526020015f205f82825461022a9190610fa7565b9250508190555060015f9054906101000a900473ffffffffffffffffffffffffffffffffffffffff1673ffffffffffffffffffffffffffffffffffffffff1663a9059cbb33836040518363ffffffff1660e01b815260040161028d929190610fe9565b6020604051808303815f875af11580156102a9573d5f803e3d5ffd5b505050506040513d601f19601f820116820180604052508101906102cd919061103a565b61030c576040517f08c379a0000000000000000000000000000000000000000000000000000000008152600401610303906110af565b60405180910390fd5b50565b5f60015f9054906101000a900473ffffffffffffffffffffffffffffffffffffffff1673ffffffffffffffffffffffffffffffffffffffff166370a08231306040518263ffffffff1660e01b815260040161036a91906110cd565b602060405180830381865afa158015610385573d5f803e3d5ffd5b505050506040513d601f19601f820116820180604052508101906103a991906110fa565b9050828110156103ee576040517f08c379a00000000000000000000000000000000000000000000000000000000081526004016103e59061116f565b60405180910390fd5b60015f9054906101000a900473ffffffffffffffffffffffffffffffffffffffff1673ffffffffffffffffffffffffffffffffffffffff1663a9059cbb83856040518363ffffffff1660e01b815260040161044a929190610fe9565b6020604051808303815f875af1158015610466573d5f803e3d5ffd5b505050506040513d601f19601f8201168201806040525081019061048a919061103a565b6104c9576040517f08c379a00000000000000000000000000000000000000000000000000000000081526004016104c0906110af565b60405180910390fd5b600160035f6101000a81548160ff0219169083151502179055505f808373ffffffffffffffffffffffffffffffffffffffff168560405160240161050d9190610cf1565b6040516020818303038152906040527ffb056f68000000000000000000000000000000000000000000000000000000007bffffffffffffffffffffffffffffffffffffffffffffffffffffffff19166020820180517bffffffffffffffffffffffffffffffffffffffffffffffffffffffff838183161783525050505060405161059791906111df565b5f604051808303815f865af19150503d805f81146105d0576040519150601f19603f3d011682016040523d82523d5f602084013e6105d5565b606091505b50915091505f15158215150361062257806040517f08c379a00000000000000000000000000000000000000000000000000000000081526004016106199190611247565b60405180910390fd5b5f60035f6101000a81548160ff0219169083151502179055505f6103e88661064a9190611294565b90505f60015f9054906101000a900473ffffffffffffffffffffffffffffffffffffffff1673ffffffffffffffffffffffffffffffffffffffff166370a08231306040518263ffffffff1660e01b81526004016106a791906110cd565b602060405180830381865afa1580156106c2573d5f803e3d5ffd5b505050506040513d601f19601f820116820180604052508101906106e691906110fa565b905081856106f491906112c4565b811015610736576040517f08c379a000000000000000000000000000000000000000000000000000000000815260040161072d90611341565b60405180910390fd5b50505050505050565b8181600160035f6101000a81548160ff0219169083151502179055156107c2575f808154809291906107709061135f565b91905055506107c182828080601f0160208091040260200160405190810160405280939291908181526020018383808284375f81840152601f19601f82011690508083019250505050505050610ae4565b5b60015f9054906101000a900473ffffffffffffffffffffffffffffffffffffffff1673ffffffffffffffffffffffffffffffffffffffff166323b872dd3330886040518463ffffffff1660e01b8152600401610820939291906113a6565b6020604051808303815f875af115801561083c573d5f803e3d5ffd5b505050506040513d601f19601f82011682018060405250810190610860919061103a565b61089f576040517f08c379a0000000000000000000000000000000000000000000000000000000008152600401610896906110af565b60405180910390fd5b8460025f3373ffffffffffffffffffffffffffffffffffffffff1673ffffffffffffffffffffffffffffffffffffffff1681526020019081526020015f205f8282546108eb91906112c4565b925050819055505050505050565b60085f9054906101000a900460ff1681565b600260075461091a91906112c4565b431461095b576040517f08c379a000000000000000000000000000000000000000000000000000000000815260040161095290611425565b60405180910390fd5b5f8060065f9054906101000a900473ffffffffffffffffffffffffffffffffffffffff169050803b91505f82146109c7576040517f08c379a00000000000000000000000000000000000000000000000000000000081526004016109be9061148d565b60405180910390fd5b5f60015f9054906101000a900473ffffffffffffffffffffffffffffffffffffffff1673ffffffffffffffffffffffffffffffffffffffff166370a08231306040518263ffffffff1660e01b8152600401610a2291906110cd565b602060405180830381865afa158015610a3d573d5f803e3d5ffd5b505050506040513d601f19601f82011682018060405250810190610a6191906110fa565b14610aa1576040517f08c379a0000000000000000000000000000000000000000000000000000000008152600401610a98906114f5565b60405180910390fd5b600160085f6101000a81548160ff0219169083151502179055505050565b60015f9054906101000a900473ffffffffffffffffffffffffffffffffffffffff1681565b60015f5403610b59575f4390505f82806020019051810190610b0691906110fa565b9050602f82610b159190611513565b8114610b56576040517f08c379a0000000000000000000000000000000000000000000000000000000008152600401610b4d9061158d565b60405180910390fd5b50505b60025f5403610c05575f435f1b90505f4790505f828451602086015ff59050814711610bba576040517f08c379a0000000000000000000000000000000000000000000000000000000008152600401610bb19061161b565b60405180910390fd5b8060065f6101000a81548173ffffffffffffffffffffffffffffffffffffffff021916908373ffffffffffffffffffffffffffffffffffffffff160217905550436007819055505050505b60035f5403610c49576040517f08c379a0000000000000000000000000000000000000000000000000000000008152600401610c4090611683565b60405180910390fd5b50565b5f80fd5b5f80fd5b5f73ffffffffffffffffffffffffffffffffffffffff82169050919050565b5f610c7d82610c54565b9050919050565b610c8d81610c73565b8114610c97575f80fd5b50565b5f81359050610ca881610c84565b92915050565b5f60208284031215610cc357610cc2610c4c565b5b5f610cd084828501610c9a565b91505092915050565b5f819050919050565b610ceb81610cd9565b82525050565b5f602082019050610d045f830184610ce2565b92915050565b610d1381610cd9565b8114610d1d575f80fd5b50565b5f81359050610d2e81610d0a565b92915050565b5f60208284031215610d4957610d48610c4c565b5b5f610d5684828501610d20565b91505092915050565b5f8060408385031215610d7557610d74610c4c565b5b5f610d8285828601610d20565b9250506020610d9385828601610c9a565b9150509250929050565b5f80fd5b5f80fd5b5f80fd5b5f8083601f840112610dbe57610dbd610d9d565b5b8235905067ffffffffffffffff811115610ddb57610dda610da1565b5b602083019150836001820283011115610df757610df6610da5565b5b9250929050565b5f805f60408486031215610e1557610e14610c4c565b5b5f610e2286828701610d20565b935050602084013567ffffffffffffffff811115610e4357610e42610c50565b5b610e4f86828701610da9565b92509250509250925092565b5f8115159050919050565b610e6f81610e5b565b82525050565b5f602082019050610e885f830184610e66565b92915050565b5f819050919050565b5f610eb1610eac610ea784610c54565b610e8e565b610c54565b9050919050565b5f610ec282610e97565b9050919050565b5f610ed382610eb8565b9050919050565b610ee381610ec9565b82525050565b5f602082019050610efc5f830184610eda565b92915050565b5f82825260208201905092915050565b7f496e73756666696369656e742062616c616e63650000000000000000000000005f82015250565b5f610f46601483610f02565b9150610f5182610f12565b602082019050919050565b5f6020820190508181035f830152610f7381610f3a565b9050919050565b7f4e487b71000000000000000000000000000000000000000000000000000000005f52601160045260245ffd5b5f610fb182610cd9565b9150610fbc83610cd9565b9250828203905081811115610fd457610fd3610f7a565b5b92915050565b610fe381610c73565b82525050565b5f604082019050610ffc5f830185610fda565b6110096020830184610ce2565b9392505050565b61101981610e5b565b8114611023575f80fd5b50565b5f8151905061103481611010565b92915050565b5f6020828403121561104f5761104e610c4c565b5b5f61105c84828501611026565b91505092915050565b7f5472616e73666572206661696c656400000000000000000000000000000000005f82015250565b5f611099600f83610f02565b91506110a482611065565b602082019050919050565b5f6020820190508181035f8301526110c68161108d565b9050919050565b5f6020820190506110e05f830184610fda565b92915050565b5f815190506110f481610d0a565b92915050565b5f6020828403121561110f5761110e610c4c565b5b5f61111c848285016110e6565b91505092915050565b7f4e6f7420656e6f756768206c69717569646974790000000000000000000000005f82015250565b5f611159601483610f02565b915061116482611125565b602082019050919050565b5f6020820190508181035f8301526111868161114d565b9050919050565b5f81519050919050565b5f81905092915050565b8281835e5f83830152505050565b5f6111b98261118d565b6111c38185611197565b93506111d38185602086016111a1565b80840191505092915050565b5f6111ea82846111af565b915081905092915050565b5f81519050919050565b5f601f19601f8301169050919050565b5f611219826111f5565b6112238185610f02565b93506112338185602086016111a1565b61123c816111ff565b840191505092915050565b5f6020820190508181035f83015261125f818461120f565b905092915050565b7f4e487b71000000000000000000000000000000000000000000000000000000005f52601260045260245ffd5b5f61129e82610cd9565b91506112a983610cd9565b9250826112b9576112b8611267565b5b828204905092915050565b5f6112ce82610cd9565b91506112d983610cd9565b92508282019050808211156112f1576112f0610f7a565b5b92915050565b7f4c6f616e206e6f742072657061696420776974682066656500000000000000005f82015250565b5f61132b601883610f02565b9150611336826112f7565b602082019050919050565b5f6020820190508181035f8301526113588161131f565b9050919050565b5f61136982610cd9565b91507fffffffffffffffffffffffffffffffffffffffffffffffffffffffffffffffff820361139b5761139a610f7a565b5b600182019050919050565b5f6060820190506113b95f830186610fda565b6113c66020830185610fda565b6113d36040830184610ce2565b949350505050565b7f43616e2774206578706c6f6465207468652062616e6b000000000000000000005f82015250565b5f61140f601683610f02565b915061141a826113db565b602082019050919050565b5f6020820190508181035f83015261143c81611403565b9050919050565b7f596f7520776572652063617567687400000000000000000000000000000000005f82015250565b5f611477600f83610f02565b915061148282611443565b602082019050919050565b5f6020820190508181035f8301526114a48161146b565b9050919050565b7f5468652062616e6b207374696c6c206861732066756e647300000000000000005f82015250565b5f6114df601883610f02565b91506114ea826114ab565b602082019050919050565b5f6020820190508181035f83015261150c816114d3565b9050919050565b5f61151d82610cd9565b915061152883610cd9565b92508261153857611537611267565b5b828206905092915050565b7f57726f6e672070617373706872617365000000000000000000000000000000005f82015250565b5f611577601083610f02565b915061158282611543565b602082019050919050565b5f6020820190508181035f8301526115a48161156b565b9050919050565b7f596f75206e65656420746f2073656e6420657468657220746f207061737320745f8201527f68726f7567682073656375726974790000000000000000000000000000000000602082015250565b5f611605602f83610f02565b9150611610826115ab565b604082019050919050565b5f6020820190508181035f830152611632816115f9565b9050919050565b7f546869726420616c61726d2c2062616e6b206973206c6f636b656400000000005f82015250565b5f61166d601b83610f02565b915061167882611639565b602082019050919050565b5f6020820190508181035f83015261169a81611661565b905091905056fea26469706673582212202b47080b3d79b59febbe9f9bb1b63d5b8010176bfa6b616d2dc4964a31af834f64736f6c63430008190033",
			"opcodes": "PUSH1 0x80 PUSH1 0x40 MSTORE PUSH11 0x845951614014849FFFFFF PUSH1 0x4 SSTORE PUSH11 0x845951614014849FFFFFF PUSH1 0x5 SSTORE CALLVALUE DUP1 ISZERO PUSH2 0x2D JUMPI PUSH0 DUP1 REVERT JUMPDEST POP PUSH1 0x40 MLOAD PUSH2 0x1802 CODESIZE SUB DUP1 PUSH2 0x1802 DUP4 CODECOPY DUP2 DUP2 ADD PUSH1 0x40 MSTORE DUP2 ADD SWAP1 PUSH2 0x4F SWAP2 SWAP1 PUSH2 0xF3 JUMP JUMPDEST DUP1 PUSH1 0x1 PUSH0 PUSH2 0x100 EXP DUP2 SLOAD DUP2 PUSH20 0xFFFFFFFFFFFFFFFFFFFFFFFFFFFFFFFFFFFFFFFF MUL NOT AND SWAP1 DUP4 PUSH20 0xFFFFFFFFFFFFFFFFFFFFFFFFFFFFFFFFFFFFFFFF AND MUL OR SWAP1 SSTORE POP POP PUSH2 0x11E JUMP JUMPDEST PUSH0 DUP1 REVERT JUMPDEST PUSH0 PUSH20 0xFFFFFFFFFFFFFFFFFFFFFFFFFFFFFFFFFFFFFFFF DUP3 AND SWAP1 POP SWAP2 SWAP1 POP JUMP JUMPDEST PUSH0 PUSH2 0xC2 DUP3 PUSH2 0x99 JUMP JUMPDEST SWAP1 POP SWAP2 SWAP1 POP JUMP JUMPDEST PUSH2 0xD2 DUP2 PUSH2 0xB8 JUMP JUMPDEST DUP2 EQ PUSH2 0xDC JUMPI PUSH0 DUP1 REVERT JUMPDEST POP JUMP JUMPDEST PUSH0 DUP2 MLOAD SWAP1 POP PUSH2 0xED DUP2 PUSH2 0xC9 JUMP JUMPDEST SWAP3 SWAP2 POP POP JUMP JUMPDEST PUSH0 PUSH1 0x20 DUP3 DUP5 SUB SLT ISZERO PUSH2 0x108 JUMPI PUSH2 0x107 PUSH2 0x95 JUMP JUMPDEST JUMPDEST PUSH0 PUSH2 0x115 DUP5 DUP3 DUP6 ADD PUSH2 0xDF JUMP JUMPDEST SWAP2 POP POP SWAP3 SWAP2 POP POP JUMP JUMPDEST PUSH2 0x16D7 DUP1 PUSH2 0x12B PUSH0 CODECOPY PUSH0 RETURN INVALID PUSH1 0x80 PUSH1 0x40 MSTORE CALLVALUE DUP1 ISZERO PUSH2 0xF JUMPI PUSH0 DUP1 REVERT JUMPDEST POP PUSH1 0x4 CALLDATASIZE LT PUSH2 0x7B JUMPI PUSH0 CALLDATALOAD PUSH1 0xE0 SHR DUP1 PUSH4 0x5D303519 GT PUSH2 0x59 JUMPI DUP1 PUSH4 0x5D303519 EQ PUSH2 0xE7 JUMPI DUP1 PUSH4 0xAE464B24 EQ PUSH2 0x103 JUMPI DUP1 PUSH4 0xC0711DE6 EQ PUSH2 0x121 JUMPI DUP1 PUSH4 0xFC0C546A EQ PUSH2 0x12B JUMPI PUSH2 0x7B JUMP JUMPDEST DUP1 PUSH4 0x27E235E3 EQ PUSH2 0x7F JUMPI DUP1 PUSH4 0x2E1A7D4D EQ PUSH2 0xAF JUMPI DUP1 PUSH4 0x499CFD70 EQ PUSH2 0xCB JUMPI JUMPDEST PUSH0 DUP1 REVERT JUMPDEST PUSH2 0x99 PUSH1 0x4 DUP1 CALLDATASIZE SUB DUP2 ADD SWAP1 PUSH2 0x94 SWAP2 SWAP1 PUSH2 0xCAE JUMP JUMPDEST PUSH2 0x149 JUMP JUMPDEST PUSH1 0x40 MLOAD PUSH2 0xA6 SWAP2 SWAP1 PUSH2 0xCF1 JUMP JUMPDEST PUSH1 0x40 MLOAD DUP1 SWAP2 SUB SWAP1 RETURN JUMPDEST PUSH2 0xC9 PUSH1 0x4 DUP1 CALLDATASIZE SUB DUP2 ADD SWAP1 PUSH2 0xC4 SWAP2 SWAP1 PUSH2 0xD34 JUMP JUMPDEST PUSH2 0x15E JUMP JUMPDEST STOP JUMPDEST PUSH2 0xE5 PUSH1 0x4 DUP1 CALLDATASIZE SUB DUP2 ADD SWAP1 PUSH2 0xE0 SWAP2 SWAP1 PUSH2 0xD5F JUMP JUMPDEST PUSH2 0x30F JUMP JUMPDEST STOP JUMPDEST PUSH2 0x101 PUSH1 0x4 DUP1 CALLDATASIZE SUB DUP2 ADD SWAP1 PUSH2 0xFC SWAP2 SWAP1 PUSH2 0xDFE JUMP JUMPDEST PUSH2 0x73F JUMP JUMPDEST STOP JUMPDEST PUSH2 0x10B PUSH2 0x8F9 JUMP JUMPDEST PUSH1 0x40 MLOAD PUSH2 0x118 SWAP2 SWAP1 PUSH2 0xE75 JUMP JUMPDEST PUSH1 0x40 MLOAD DUP1 SWAP2 SUB SWAP1 RETURN JUMPDEST PUSH2 0x129 PUSH2 0x90B JUMP JUMPDEST STOP JUMPDEST PUSH2 0x133 PUSH2 0xABF JUMP JUMPDEST PUSH1 0x40 MLOAD PUSH2 0x140 SWAP2 SWAP1 PUSH2 0xEE9 JUMP JUMPDEST PUSH1 0x40 MLOAD DUP1 SWAP2 SUB SWAP1 RETURN JUMPDEST PUSH1 0x2 PUSH1 0x20 MSTORE DUP1 PUSH0 MSTORE PUSH1 0x40 PUSH0 KECCAK256 PUSH0 SWAP2 POP SWAP1 POP SLOAD DUP2 JUMP JUMPDEST DUP1 PUSH1 0x2 PUSH0 CALLER PUSH20 0xFFFFFFFFFFFFFFFFFFFFFFFFFFFFFFFFFFFFFFFF AND PUSH20 0xFFFFFFFFFFFFFFFFFFFFFFFFFFFFFFFFFFFFFFFF AND DUP2 MSTORE PUSH1 0x20 ADD SWAP1 DUP2 MSTORE PUSH1 0x20 ADD PUSH0 KECCAK256 SLOAD LT ISZERO PUSH2 0x1DE JUMPI PUSH1 0x40 MLOAD PUSH32 0x8C379A000000000000000000000000000000000000000000000000000000000 DUP2 MSTORE PUSH1 0x4 ADD PUSH2 0x1D5 SWAP1 PUSH2 0xF5C JUMP JUMPDEST PUSH1 0x40 MLOAD DUP1 SWAP2 SUB SWAP1 REVERT JUMPDEST DUP1 PUSH1 0x2 PUSH0 CALLER PUSH20 0xFFFFFFFFFFFFFFFFFFFFFFFFFFFFFFFFFFFFFFFF AND PUSH20 0xFFFFFFFFFFFFFFFFFFFFFFFFFFFFFFFFFFFFFFFF AND DUP2 MSTORE PUSH1 0x20 ADD SWAP1 DUP2 MSTORE PUSH1 0x20 ADD PUSH0 KECCAK256 PUSH0 DUP3 DUP3 SLOAD PUSH2 0x22A SWAP2 SWAP1 PUSH2 0xFA7 JUMP JUMPDEST SWAP3 POP POP DUP2 SWAP1 SSTORE POP PUSH1 0x1 PUSH0 SWAP1 SLOAD SWAP1 PUSH2 0x100 EXP SWAP1 DIV PUSH20 0xFFFFFFFFFFFFFFFFFFFFFFFFFFFFFFFFFFFFFFFF AND PUSH20 0xFFFFFFFFFFFFFFFFFFFFFFFFFFFFFFFFFFFFFFFF AND PUSH4 0xA9059CBB CALLER DUP4 PUSH1 0x40 MLOAD DUP4 PUSH4 0xFFFFFFFF AND PUSH1 0xE0 SHL DUP2 MSTORE PUSH1 0x4 ADD PUSH2 0x28D SWAP3 SWAP2 SWAP1 PUSH2 0xFE9 JUMP JUMPDEST PUSH1 0x20 PUSH1 0x40 MLOAD DUP1 DUP4 SUB DUP2 PUSH0 DUP8 GAS CALL ISZERO DUP1 ISZERO PUSH2 0x2A9 JUMPI RETURNDATASIZE PUSH0 DUP1 RETURNDATACOPY RETURNDATASIZE PUSH0 REVERT JUMPDEST POP POP POP POP PUSH1 0x40 MLOAD RETURNDATASIZE PUSH1 0x1F NOT PUSH1 0x1F DUP3 ADD AND DUP3 ADD DUP1 PUSH1 0x40 MSTORE POP DUP2 ADD SWAP1 PUSH2 0x2CD SWAP2 SWAP1 PUSH2 0x103A JUMP JUMPDEST PUSH2 0x30C JUMPI PUSH1 0x40 MLOAD PUSH32 0x8C379A000000000000000000000000000000000000000000000000000000000 DUP2 MSTORE PUSH1 0x4 ADD PUSH2 0x303 SWAP1 PUSH2 0x10AF JUMP JUMPDEST PUSH1 0x40 MLOAD DUP1 SWAP2 SUB SWAP1 REVERT JUMPDEST POP JUMP JUMPDEST PUSH0 PUSH1 0x1 PUSH0 SWAP1 SLOAD SWAP1 PUSH2 0x100 EXP SWAP1 DIV PUSH20 0xFFFFFFFFFFFFFFFFFFFFFFFFFFFFFFFFFFFFFFFF AND PUSH20 0xFFFFFFFFFFFFFFFFFFFFFFFFFFFFFFFFFFFFFFFF AND PUSH4 0x70A08231 ADDRESS PUSH1 0x40 MLOAD DUP3 PUSH4 0xFFFFFFFF AND PUSH1 0xE0 SHL DUP2 MSTORE PUSH1 0x4 ADD PUSH2 0x36A SWAP2 SWAP1 PUSH2 0x10CD JUMP JUMPDEST PUSH1 0x20 PUSH1 0x40 MLOAD DUP1 DUP4 SUB DUP2 DUP7 GAS STATICCALL ISZERO DUP1 ISZERO PUSH2 0x385 JUMPI RETURNDATASIZE PUSH0 DUP1 RETURNDATACOPY RETURNDATASIZE PUSH0 REVERT JUMPDEST POP POP POP POP PUSH1 0x40 MLOAD RETURNDATASIZE PUSH1 0x1F NOT PUSH1 0x1F DUP3 ADD AND DUP3 ADD DUP1 PUSH1 0x40 MSTORE POP DUP2 ADD SWAP1 PUSH2 0x3A9 SWAP2 SWAP1 PUSH2 0x10FA JUMP JUMPDEST SWAP1 POP DUP3 DUP2 LT ISZERO PUSH2 0x3EE JUMPI PUSH1 0x40 MLOAD PUSH32 0x8C379A000000000000000000000000000000000000000000000000000000000 DUP2 MSTORE PUSH1 0x4 ADD PUSH2 0x3E5 SWAP1 PUSH2 0x116F JUMP JUMPDEST PUSH1 0x40 MLOAD DUP1 SWAP2 SUB SWAP1 REVERT JUMPDEST PUSH1 0x1 PUSH0 SWAP1 SLOAD SWAP1 PUSH2 0x100 EXP SWAP1 DIV PUSH20 0xFFFFFFFFFFFFFFFFFFFFFFFFFFFFFFFFFFFFFFFF AND PUSH20 0xFFFFFFFFFFFFFFFFFFFFFFFFFFFFFFFFFFFFFFFF AND PUSH4 0xA9059CBB DUP4 DUP6 PUSH1 0x40 MLOAD DUP4 PUSH4 0xFFFFFFFF AND PUSH1 0xE0 SHL DUP2 MSTORE PUSH1 0x4 ADD PUSH2 0x44A SWAP3 SWAP2 SWAP1 PUSH2 0xFE9 JUMP JUMPDEST PUSH1 0x20 PUSH1 0x40 MLOAD DUP1 DUP4 SUB DUP2 PUSH0 DUP8 GAS CALL ISZERO DUP1 ISZERO PUSH2 0x466 JUMPI RETURNDATASIZE PUSH0 DUP1 RETURNDATACOPY RETURNDATASIZE PUSH0 REVERT JUMPDEST POP POP POP POP PUSH1 0x40 MLOAD RETURNDATASIZE PUSH1 0x1F NOT PUSH1 0x1F DUP3 ADD AND DUP3 ADD DUP1 PUSH1 0x40 MSTORE POP DUP2 ADD SWAP1 PUSH2 0x48A SWAP2 SWAP1 PUSH2 0x103A JUMP JUMPDEST PUSH2 0x4C9 JUMPI PUSH1 0x40 MLOAD PUSH32 0x8C379A000000000000000000000000000000000000000000000000000000000 DUP2 MSTORE PUSH1 0x4 ADD PUSH2 0x4C0 SWAP1 PUSH2 0x10AF JUMP JUMPDEST PUSH1 0x40 MLOAD DUP1 SWAP2 SUB SWAP1 REVERT JUMPDEST PUSH1 0x1 PUSH1 0x3 PUSH0 PUSH2 0x100 EXP DUP2 SLOAD DUP2 PUSH1 0xFF MUL NOT AND SWAP1 DUP4 ISZERO ISZERO MUL OR SWAP1 SSTORE POP PUSH0 DUP1 DUP4 PUSH20 0xFFFFFFFFFFFFFFFFFFFFFFFFFFFFFFFFFFFFFFFF AND DUP6 PUSH1 0x40 MLOAD PUSH1 0x24 ADD PUSH2 0x50D SWAP2 SWAP1 PUSH2 0xCF1 JUMP JUMPDEST PUSH1 0x40 MLOAD PUSH1 0x20 DUP2 DUP4 SUB SUB DUP2 MSTORE SWAP1 PUSH1 0x40 MSTORE PUSH32 0xFB056F6800000000000000000000000000000000000000000000000000000000 PUSH28 0xFFFFFFFFFFFFFFFFFFFFFFFFFFFFFFFFFFFFFFFFFFFFFFFFFFFFFFFF NOT AND PUSH1 0x20 DUP3 ADD DUP1 MLOAD PUSH28 0xFFFFFFFFFFFFFFFFFFFFFFFFFFFFFFFFFFFFFFFFFFFFFFFFFFFFFFFF DUP4 DUP2 DUP4 AND OR DUP4 MSTORE POP POP POP POP PUSH1 0x40 MLOAD PUSH2 0x597 SWAP2 SWAP1 PUSH2 0x11DF JUMP JUMPDEST PUSH0 PUSH1 0x40 MLOAD DUP1 DUP4 SUB DUP2 PUSH0 DUP7 GAS CALL SWAP2 POP POP RETURNDATASIZE DUP1 PUSH0 DUP2 EQ PUSH2 0x5D0 JUMPI PUSH1 0x40 MLOAD SWAP2 POP PUSH1 0x1F NOT PUSH1 0x3F RETURNDATASIZE ADD AND DUP3 ADD PUSH1 0x40 MSTORE RETURNDATASIZE DUP3 MSTORE RETURNDATASIZE PUSH0 PUSH1 0x20 DUP5 ADD RETURNDATACOPY PUSH2 0x5D5 JUMP JUMPDEST PUSH1 0x60 SWAP2 POP JUMPDEST POP SWAP2 POP SWAP2 POP PUSH0 ISZERO ISZERO DUP3 ISZERO ISZERO SUB PUSH2 0x622 JUMPI DUP1 PUSH1 0x40 MLOAD PUSH32 0x8C379A000000000000000000000000000000000000000000000000000000000 DUP2 MSTORE PUSH1 0x4 ADD PUSH2 0x619 SWAP2 SWAP1 PUSH2 0x1247 JUMP JUMPDEST PUSH1 0x40 MLOAD DUP1 SWAP2 SUB SWAP1 REVERT JUMPDEST PUSH0 PUSH1 0x3 PUSH0 PUSH2 0x100 EXP DUP2 SLOAD DUP2 PUSH1 0xFF MUL NOT AND SWAP1 DUP4 ISZERO ISZERO MUL OR SWAP1 SSTORE POP PUSH0 PUSH2 0x3E8 DUP7 PUSH2 0x64A SWAP2 SWAP1 PUSH2 0x1294 JUMP JUMPDEST SWAP1 POP PUSH0 PUSH1 0x1 PUSH0 SWAP1 SLOAD SWAP1 PUSH2 0x100 EXP SWAP1 DIV PUSH20 0xFFFFFFFFFFFFFFFFFFFFFFFFFFFFFFFFFFFFFFFF AND PUSH20 0xFFFFFFFFFFFFFFFFFFFFFFFFFFFFFFFFFFFFFFFF AND PUSH4 0x70A08231 ADDRESS PUSH1 0x40 MLOAD DUP3 PUSH4 0xFFFFFFFF AND PUSH1 0xE0 SHL DUP2 MSTORE PUSH1 0x4 ADD PUSH2 0x6A7 SWAP2 SWAP1 PUSH2 0x10CD JUMP JUMPDEST PUSH1 0x20 PUSH1 0x40 MLOAD DUP1 DUP4 SUB DUP2 DUP7 GAS STATICCALL ISZERO DUP1 ISZERO PUSH2 0x6C2 JUMPI RETURNDATASIZE PUSH0 DUP1 RETURNDATACOPY RETURNDATASIZE PUSH0 REVERT JUMPDEST POP POP POP POP PUSH1 0x40 MLOAD RETURNDATASIZE PUSH1 0x1F NOT PUSH1 0x1F DUP3 ADD AND DUP3 ADD DUP1 PUSH1 0x40 MSTORE POP DUP2 ADD SWAP1 PUSH2 0x6E6 SWAP2 SWAP1 PUSH2 0x10FA JUMP JUMPDEST SWAP1 POP DUP2 DUP6 PUSH2 0x6F4 SWAP2 SWAP1 PUSH2 0x12C4 JUMP JUMPDEST DUP2 LT ISZERO PUSH2 0x736 JUMPI PUSH1 0x40 MLOAD PUSH32 0x8C379A000000000000000000000000000000000000000000000000000000000 DUP2 MSTORE PUSH1 0x4 ADD PUSH2 0x72D SWAP1 PUSH2 0x1341 JUMP JUMPDEST PUSH1 0x40 MLOAD DUP1 SWAP2 SUB SWAP1 REVERT JUMPDEST POP POP POP POP POP POP POP JUMP JUMPDEST DUP2 DUP2 PUSH1 0x1 PUSH1 0x3 PUSH0 PUSH2 0x100 EXP DUP2 SLOAD DUP2 PUSH1 0xFF MUL NOT AND SWAP1 DUP4 ISZERO ISZERO MUL OR SWAP1 SSTORE ISZERO PUSH2 0x7C2 JUMPI PUSH0 DUP1 DUP2 SLOAD DUP1 SWAP3 SWAP2 SWAP1 PUSH2 0x770 SWAP1 PUSH2 0x135F JUMP JUMPDEST SWAP2 SWAP1 POP SSTORE POP PUSH2 0x7C1 DUP3 DUP3 DUP1 DUP1 PUSH1 0x1F ADD PUSH1 0x20 DUP1 SWAP2 DIV MUL PUSH1 0x20 ADD PUSH1 0x40 MLOAD SWAP1 DUP2 ADD PUSH1 0x40 MSTORE DUP1 SWAP4 SWAP3 SWAP2 SWAP1 DUP2 DUP2 MSTORE PUSH1 0x20 ADD DUP4 DUP4 DUP1 DUP3 DUP5 CALLDATACOPY PUSH0 DUP2 DUP5 ADD MSTORE PUSH1 0x1F NOT PUSH1 0x1F DUP3 ADD AND SWAP1 POP DUP1 DUP4 ADD SWAP3 POP POP POP POP POP POP POP PUSH2 0xAE4 JUMP JUMPDEST JUMPDEST PUSH1 0x1 PUSH0 SWAP1 SLOAD SWAP1 PUSH2 0x100 EXP SWAP1 DIV PUSH20 0xFFFFFFFFFFFFFFFFFFFFFFFFFFFFFFFFFFFFFFFF AND PUSH20 0xFFFFFFFFFFFFFFFFFFFFFFFFFFFFFFFFFFFFFFFF AND PUSH4 0x23B872DD CALLER ADDRESS DUP9 PUSH1 0x40 MLOAD DUP5 PUSH4 0xFFFFFFFF AND PUSH1 0xE0 SHL DUP2 MSTORE PUSH1 0x4 ADD PUSH2 0x820 SWAP4 SWAP3 SWAP2 SWAP1 PUSH2 0x13A6 JUMP JUMPDEST PUSH1 0x20 PUSH1 0x40 MLOAD DUP1 DUP4 SUB DUP2 PUSH0 DUP8 GAS CALL ISZERO DUP1 ISZERO PUSH2 0x83C JUMPI RETURNDATASIZE PUSH0 DUP1 RETURNDATACOPY RETURNDATASIZE PUSH0 REVERT JUMPDEST POP POP POP POP PUSH1 0x40 MLOAD RETURNDATASIZE PUSH1 0x1F NOT PUSH1 0x1F DUP3 ADD AND DUP3 ADD DUP1 PUSH1 0x40 MSTORE POP DUP2 ADD SWAP1 PUSH2 0x860 SWAP2 SWAP1 PUSH2 0x103A JUMP JUMPDEST PUSH2 0x89F JUMPI PUSH1 0x40 MLOAD PUSH32 0x8C379A000000000000000000000000000000000000000000000000000000000 DUP2 MSTORE PUSH1 0x4 ADD PUSH2 0x896 SWAP1 PUSH2 0x10AF JUMP JUMPDEST PUSH1 0x40 MLOAD DUP1 SWAP2 SUB SWAP1 REVERT JUMPDEST DUP5 PUSH1 0x2 PUSH0 CALLER PUSH20 0xFFFFFFFFFFFFFFFFFFFFFFFFFFFFFFFFFFFFFFFF AND PUSH20 0xFFFFFFFFFFFFFFFFFFFFFFFFFFFFFFFFFFFFFFFF AND DUP2 MSTORE PUSH1 0x20 ADD SWAP1 DUP2 MSTORE PUSH1 0x20 ADD PUSH0 KECCAK256 PUSH0 DUP3 DUP3 SLOAD PUSH2 0x8EB SWAP2 SWAP1 PUSH2 0x12C4 JUMP JUMPDEST SWAP3 POP POP DUP2 SWAP1 SSTORE POP POP POP POP POP POP JUMP JUMPDEST PUSH1 0x8 PUSH0 SWAP1 SLOAD SWAP1 PUSH2 0x100 EXP SWAP1 DIV PUSH1 0xFF AND DUP2 JUMP JUMPDEST PUSH1 0x2 PUSH1 0x7 SLOAD PUSH2 0x91A SWAP2 SWAP1 PUSH2 0x12C4 JUMP JUMPDEST NUMBER EQ PUSH2 0x95B JUMPI PUSH1 0x40 MLOAD PUSH32 0x8C379A000000000000000000000000000000000000000000000000000000000 DUP2 MSTORE PUSH1 0x4 ADD PUSH2 0x952 SWAP1 PUSH2 0x1425 JUMP JUMPDEST PUSH1 0x40 MLOAD DUP1 SWAP2 SUB SWAP1 REVERT JUMPDEST PUSH0 DUP1 PUSH1 0x6 PUSH0 SWAP1 SLOAD SWAP1 PUSH2 0x100 EXP SWAP1 DIV PUSH20 0xFFFFFFFFFFFFFFFFFFFFFFFFFFFFFFFFFFFFFFFF AND SWAP1 POP DUP1 EXTCODESIZE SWAP2 POP PUSH0 DUP3 EQ PUSH2 0x9C7 JUMPI PUSH1 0x40 MLOAD PUSH32 0x8C379A000000000000000000000000000000000000000000000000000000000 DUP2 MSTORE PUSH1 0x4 ADD PUSH2 0x9BE SWAP1 PUSH2 0x148D JUMP JUMPDEST PUSH1 0x40 MLOAD DUP1 SWAP2 SUB SWAP1 REVERT JUMPDEST PUSH0 PUSH1 0x1 PUSH0 SWAP1 SLOAD SWAP1 PUSH2 0x100 EXP SWAP1 DIV PUSH20 0xFFFFFFFFFFFFFFFFFFFFFFFFFFFFFFFFFFFFFFFF AND PUSH20 0xFFFFFFFFFFFFFFFFFFFFFFFFFFFFFFFFFFFFFFFF AND PUSH4 0x70A08231 ADDRESS PUSH1 0x40 MLOAD DUP3 PUSH4 0xFFFFFFFF AND PUSH1 0xE0 SHL DUP2 MSTORE PUSH1 0x4 ADD PUSH2 0xA22 SWAP2 SWAP1 PUSH2 0x10CD JUMP JUMPDEST PUSH1 0x20 PUSH1 0x40 MLOAD DUP1 DUP4 SUB DUP2 DUP7 GAS STATICCALL ISZERO DUP1 ISZERO PUSH2 0xA3D JUMPI RETURNDATASIZE PUSH0 DUP1 RETURNDATACOPY RETURNDATASIZE PUSH0 REVERT JUMPDEST POP POP POP POP PUSH1 0x40 MLOAD RETURNDATASIZE PUSH1 0x1F NOT PUSH1 0x1F DUP3 ADD AND DUP3 ADD DUP1 PUSH1 0x40 MSTORE POP DUP2 ADD SWAP1 PUSH2 0xA61 SWAP2 SWAP1 PUSH2 0x10FA JUMP JUMPDEST EQ PUSH2 0xAA1 JUMPI PUSH1 0x40 MLOAD PUSH32 0x8C379A000000000000000000000000000000000000000000000000000000000 DUP2 MSTORE PUSH1 0x4 ADD PUSH2 0xA98 SWAP1 PUSH2 0x14F5 JUMP JUMPDEST PUSH1 0x40 MLOAD DUP1 SWAP2 SUB SWAP1 REVERT JUMPDEST PUSH1 0x1 PUSH1 0x8 PUSH0 PUSH2 0x100 EXP DUP2 SLOAD DUP2 PUSH1 0xFF MUL NOT AND SWAP1 DUP4 ISZERO ISZERO MUL OR SWAP1 SSTORE POP POP POP JUMP JUMPDEST PUSH1 0x1 PUSH0 SWAP1 SLOAD SWAP1 PUSH2 0x100 EXP SWAP1 DIV PUSH20 0xFFFFFFFFFFFFFFFFFFFFFFFFFFFFFFFFFFFFFFFF AND DUP2 JUMP JUMPDEST PUSH1 0x1 PUSH0 SLOAD SUB PUSH2 0xB59 JUMPI PUSH0 NUMBER SWAP1 POP PUSH0 DUP3 DUP1 PUSH1 0x20 ADD SWAP1 MLOAD DUP2 ADD SWAP1 PUSH2 0xB06 SWAP2 SWAP1 PUSH2 0x10FA JUMP JUMPDEST SWAP1 POP PUSH1 0x2F DUP3 PUSH2 0xB15 SWAP2 SWAP1 PUSH2 0x1513 JUMP JUMPDEST DUP2 EQ PUSH2 0xB56 JUMPI PUSH1 0x40 MLOAD PUSH32 0x8C379A000000000000000000000000000000000000000000000000000000000 DUP2 MSTORE PUSH1 0x4 ADD PUSH2 0xB4D SWAP1 PUSH2 0x158D JUMP JUMPDEST PUSH1 0x40 MLOAD DUP1 SWAP2 SUB SWAP1 REVERT JUMPDEST POP POP JUMPDEST PUSH1 0x2 PUSH0 SLOAD SUB PUSH2 0xC05 JUMPI PUSH0 NUMBER PUSH0 SHL SWAP1 POP PUSH0 SELFBALANCE SWAP1 POP PUSH0 DUP3 DUP5 MLOAD PUSH1 0x20 DUP7 ADD PUSH0 CREATE2 SWAP1 POP DUP2 SELFBALANCE GT PUSH2 0xBBA JUMPI PUSH1 0x40 MLOAD PUSH32 0x8C379A000000000000000000000000000000000000000000000000000000000 DUP2 MSTORE PUSH1 0x4 ADD PUSH2 0xBB1 SWAP1 PUSH2 0x161B JUMP JUMPDEST PUSH1 0x40 MLOAD DUP1 SWAP2 SUB SWAP1 REVERT JUMPDEST DUP1 PUSH1 0x6 PUSH0 PUSH2 0x100 EXP DUP2 SLOAD DUP2 PUSH20 0xFFFFFFFFFFFFFFFFFFFFFFFFFFFFFFFFFFFFFFFF MUL NOT AND SWAP1 DUP4 PUSH20 0xFFFFFFFFFFFFFFFFFFFFFFFFFFFFFFFFFFFFFFFF AND MUL OR SWAP1 SSTORE POP NUMBER PUSH1 0x7 DUP2 SWAP1 SSTORE POP POP POP POP JUMPDEST PUSH1 0x3 PUSH0 SLOAD SUB PUSH2 0xC49 JUMPI PUSH1 0x40 MLOAD PUSH32 0x8C379A000000000000000000000000000000000000000000000000000000000 DUP2 MSTORE PUSH1 0x4 ADD PUSH2 0xC40 SWAP1 PUSH2 0x1683 JUMP JUMPDEST PUSH1 0x40 MLOAD DUP1 SWAP2 SUB SWAP1 REVERT JUMPDEST POP JUMP JUMPDEST PUSH0 DUP1 REVERT JUMPDEST PUSH0 DUP1 REVERT JUMPDEST PUSH0 PUSH20 0xFFFFFFFFFFFFFFFFFFFFFFFFFFFFFFFFFFFFFFFF DUP3 AND SWAP1 POP SWAP2 SWAP1 POP JUMP JUMPDEST PUSH0 PUSH2 0xC7D DUP3 PUSH2 0xC54 JUMP JUMPDEST SWAP1 POP SWAP2 SWAP1 POP JUMP JUMPDEST PUSH2 0xC8D DUP2 PUSH2 0xC73 JUMP JUMPDEST DUP2 EQ PUSH2 0xC97 JUMPI PUSH0 DUP1 REVERT JUMPDEST POP JUMP JUMPDEST PUSH0 DUP2 CALLDATALOAD SWAP1 POP PUSH2 0xCA8 DUP2 PUSH2 0xC84 JUMP JUMPDEST SWAP3 SWAP2 POP POP JUMP JUMPDEST PUSH0 PUSH1 0x20 DUP3 DUP5 SUB SLT ISZERO PUSH2 0xCC3 JUMPI PUSH2 0xCC2 PUSH2 0xC4C JUMP JUMPDEST JUMPDEST PUSH0 PUSH2 0xCD0 DUP5 DUP3 DUP6 ADD PUSH2 0xC9A JUMP JUMPDEST SWAP2 POP POP SWAP3 SWAP2 POP POP JUMP JUMPDEST PUSH0 DUP2 SWAP1 POP SWAP2 SWAP1 POP JUMP JUMPDEST PUSH2 0xCEB DUP2 PUSH2 0xCD9 JUMP JUMPDEST DUP3 MSTORE POP POP JUMP JUMPDEST PUSH0 PUSH1 0x20 DUP3 ADD SWAP1 POP PUSH2 0xD04 PUSH0 DUP4 ADD DUP5 PUSH2 0xCE2 JUMP JUMPDEST SWAP3 SWAP2 POP POP JUMP JUMPDEST PUSH2 0xD13 DUP2 PUSH2 0xCD9 JUMP JUMPDEST DUP2 EQ PUSH2 0xD1D JUMPI PUSH0 DUP1 REVERT JUMPDEST POP JUMP JUMPDEST PUSH0 DUP2 CALLDATALOAD SWAP1 POP PUSH2 0xD2E DUP2 PUSH2 0xD0A JUMP JUMPDEST SWAP3 SWAP2 POP POP JUMP JUMPDEST PUSH0 PUSH1 0x20 DUP3 DUP5 SUB SLT ISZERO PUSH2 0xD49 JUMPI PUSH2 0xD48 PUSH2 0xC4C JUMP JUMPDEST JUMPDEST PUSH0 PUSH2 0xD56 DUP5 DUP3 DUP6 ADD PUSH2 0xD20 JUMP JUMPDEST SWAP2 POP POP SWAP3 SWAP2 POP POP JUMP JUMPDEST PUSH0 DUP1 PUSH1 0x40 DUP4 DUP6 SUB SLT ISZERO PUSH2 0xD75 JUMPI PUSH2 0xD74 PUSH2 0xC4C JUMP JUMPDEST JUMPDEST PUSH0 PUSH2 0xD82 DUP6 DUP3 DUP7 ADD PUSH2 0xD20 JUMP JUMPDEST SWAP3 POP POP PUSH1 0x20 PUSH2 0xD93 DUP6 DUP3 DUP7 ADD PUSH2 0xC9A JUMP JUMPDEST SWAP2 POP POP SWAP3 POP SWAP3 SWAP1 POP JUMP JUMPDEST PUSH0 DUP1 REVERT JUMPDEST PUSH0 DUP1 REVERT JUMPDEST PUSH0 DUP1 REVERT JUMPDEST PUSH0 DUP1 DUP4 PUSH1 0x1F DUP5 ADD SLT PUSH2 0xDBE JUMPI PUSH2 0xDBD PUSH2 0xD9D JUMP JUMPDEST JUMPDEST DUP3 CALLDATALOAD SWAP1 POP PUSH8 0xFFFFFFFFFFFFFFFF DUP2 GT ISZERO PUSH2 0xDDB JUMPI PUSH2 0xDDA PUSH2 0xDA1 JUMP JUMPDEST JUMPDEST PUSH1 0x20 DUP4 ADD SWAP2 POP DUP4 PUSH1 0x1 DUP3 MUL DUP4 ADD GT ISZERO PUSH2 0xDF7 JUMPI PUSH2 0xDF6 PUSH2 0xDA5 JUMP JUMPDEST JUMPDEST SWAP3 POP SWAP3 SWAP1 POP JUMP JUMPDEST PUSH0 DUP1 PUSH0 PUSH1 0x40 DUP5 DUP7 SUB SLT ISZERO PUSH2 0xE15 JUMPI PUSH2 0xE14 PUSH2 0xC4C JUMP JUMPDEST JUMPDEST PUSH0 PUSH2 0xE22 DUP7 DUP3 DUP8 ADD PUSH2 0xD20 JUMP JUMPDEST SWAP4 POP POP PUSH1 0x20 DUP5 ADD CALLDATALOAD PUSH8 0xFFFFFFFFFFFFFFFF DUP2 GT ISZERO PUSH2 0xE43 JUMPI PUSH2 0xE42 PUSH2 0xC50 JUMP JUMPDEST JUMPDEST PUSH2 0xE4F DUP7 DUP3 DUP8 ADD PUSH2 0xDA9 JUMP JUMPDEST SWAP3 POP SWAP3 POP POP SWAP3 POP SWAP3 POP SWAP3 JUMP JUMPDEST PUSH0 DUP2 ISZERO ISZERO SWAP1 POP SWAP2 SWAP1 POP JUMP JUMPDEST PUSH2 0xE6F DUP2 PUSH2 0xE5B JUMP JUMPDEST DUP3 MSTORE POP POP JUMP JUMPDEST PUSH0 PUSH1 0x20 DUP3 ADD SWAP1 POP PUSH2 0xE88 PUSH0 DUP4 ADD DUP5 PUSH2 0xE66 JUMP JUMPDEST SWAP3 SWAP2 POP POP JUMP JUMPDEST PUSH0 DUP2 SWAP1 POP SWAP2 SWAP1 POP JUMP JUMPDEST PUSH0 PUSH2 0xEB1 PUSH2 0xEAC PUSH2 0xEA7 DUP5 PUSH2 0xC54 JUMP JUMPDEST PUSH2 0xE8E JUMP JUMPDEST PUSH2 0xC54 JUMP JUMPDEST SWAP1 POP SWAP2 SWAP1 POP JUMP JUMPDEST PUSH0 PUSH2 0xEC2 DUP3 PUSH2 0xE97 JUMP JUMPDEST SWAP1 POP SWAP2 SWAP1 POP JUMP JUMPDEST PUSH0 PUSH2 0xED3 DUP3 PUSH2 0xEB8 JUMP JUMPDEST SWAP1 POP SWAP2 SWAP1 POP JUMP JUMPDEST PUSH2 0xEE3 DUP2 PUSH2 0xEC9 JUMP JUMPDEST DUP3 MSTORE POP POP JUMP JUMPDEST PUSH0 PUSH1 0x20 DUP3 ADD SWAP1 POP PUSH2 0xEFC PUSH0 DUP4 ADD DUP5 PUSH2 0xEDA JUMP JUMPDEST SWAP3 SWAP2 POP POP JUMP JUMPDEST PUSH0 DUP3 DUP3 MSTORE PUSH1 0x20 DUP3 ADD SWAP1 POP SWAP3 SWAP2 POP POP JUMP JUMPDEST PUSH32 0x496E73756666696369656E742062616C616E6365000000000000000000000000 PUSH0 DUP3 ADD MSTORE POP JUMP JUMPDEST PUSH0 PUSH2 0xF46 PUSH1 0x14 DUP4 PUSH2 0xF02 JUMP JUMPDEST SWAP2 POP PUSH2 0xF51 DUP3 PUSH2 0xF12 JUMP JUMPDEST PUSH1 0x20 DUP3 ADD SWAP1 POP SWAP2 SWAP1 POP JUMP JUMPDEST PUSH0 PUSH1 0x20 DUP3 ADD SWAP1 POP DUP2 DUP2 SUB PUSH0 DUP4 ADD MSTORE PUSH2 0xF73 DUP2 PUSH2 0xF3A JUMP JUMPDEST SWAP1 POP SWAP2 SWAP1 POP JUMP JUMPDEST PUSH32 0x4E487B7100000000000000000000000000000000000000000000000000000000 PUSH0 MSTORE PUSH1 0x11 PUSH1 0x4 MSTORE PUSH1 0x24 PUSH0 REVERT JUMPDEST PUSH0 PUSH2 0xFB1 DUP3 PUSH2 0xCD9 JUMP JUMPDEST SWAP2 POP PUSH2 0xFBC DUP4 PUSH2 0xCD9 JUMP JUMPDEST SWAP3 POP DUP3 DUP3 SUB SWAP1 POP DUP2 DUP2 GT ISZERO PUSH2 0xFD4 JUMPI PUSH2 0xFD3 PUSH2 0xF7A JUMP JUMPDEST JUMPDEST SWAP3 SWAP2 POP POP JUMP JUMPDEST PUSH2 0xFE3 DUP2 PUSH2 0xC73 JUMP JUMPDEST DUP3 MSTORE POP POP JUMP JUMPDEST PUSH0 PUSH1 0x40 DUP3 ADD SWAP1 POP PUSH2 0xFFC PUSH0 DUP4 ADD DUP6 PUSH2 0xFDA JUMP JUMPDEST PUSH2 0x1009 PUSH1 0x20 DUP4 ADD DUP5 PUSH2 0xCE2 JUMP JUMPDEST SWAP4 SWAP3 POP POP POP JUMP JUMPDEST PUSH2 0x1019 DUP2 PUSH2 0xE5B JUMP JUMPDEST DUP2 EQ PUSH2 0x1023 JUMPI PUSH0 DUP1 REVERT JUMPDEST POP JUMP JUMPDEST PUSH0 DUP2 MLOAD SWAP1 POP PUSH2 0x1034 DUP2 PUSH2 0x1010 JUMP JUMPDEST SWAP3 SWAP2 POP POP JUMP JUMPDEST PUSH0 PUSH1 0x20 DUP3 DUP5 SUB SLT ISZERO PUSH2 0x104F JUMPI PUSH2 0x104E PUSH2 0xC4C JUMP JUMPDEST JUMPDEST PUSH0 PUSH2 0x105C DUP5 DUP3 DUP6 ADD PUSH2 0x1026 JUMP JUMPDEST SWAP2 POP POP SWAP3 SWAP2 POP POP JUMP JUMPDEST PUSH32 0x5472616E73666572206661696C65640000000000000000000000000000000000 PUSH0 DUP3 ADD MSTORE POP JUMP JUMPDEST PUSH0 PUSH2 0x1099 PUSH1 0xF DUP4 PUSH2 0xF02 JUMP JUMPDEST SWAP2 POP PUSH2 0x10A4 DUP3 PUSH2 0x1065 JUMP JUMPDEST PUSH1 0x20 DUP3 ADD SWAP1 POP SWAP2 SWAP1 POP JUMP JUMPDEST PUSH0 PUSH1 0x20 DUP3 ADD SWAP1 POP DUP2 DUP2 SUB PUSH0 DUP4 ADD MSTORE PUSH2 0x10C6 DUP2 PUSH2 0x108D JUMP JUMPDEST SWAP1 POP SWAP2 SWAP1 POP JUMP JUMPDEST PUSH0 PUSH1 0x20 DUP3 ADD SWAP1 POP PUSH2 0x10E0 PUSH0 DUP4 ADD DUP5 PUSH2 0xFDA JUMP JUMPDEST SWAP3 SWAP2 POP POP JUMP JUMPDEST PUSH0 DUP2 MLOAD SWAP1 POP PUSH2 0x10F4 DUP2 PUSH2 0xD0A JUMP JUMPDEST SWAP3 SWAP2 POP POP JUMP JUMPDEST PUSH0 PUSH1 0x20 DUP3 DUP5 SUB SLT ISZERO PUSH2 0x110F JUMPI PUSH2 0x110E PUSH2 0xC4C JUMP JUMPDEST JUMPDEST PUSH0 PUSH2 0x111C DUP5 DUP3 DUP6 ADD PUSH2 0x10E6 JUMP JUMPDEST SWAP2 POP POP SWAP3 SWAP2 POP POP JUMP JUMPDEST PUSH32 0x4E6F7420656E6F756768206C6971756964697479000000000000000000000000 PUSH0 DUP3 ADD MSTORE POP JUMP JUMPDEST PUSH0 PUSH2 0x1159 PUSH1 0x14 DUP4 PUSH2 0xF02 JUMP JUMPDEST SWAP2 POP PUSH2 0x1164 DUP3 PUSH2 0x1125 JUMP JUMPDEST PUSH1 0x20 DUP3 ADD SWAP1 POP SWAP2 SWAP1 POP JUMP JUMPDEST PUSH0 PUSH1 0x20 DUP3 ADD SWAP1 POP DUP2 DUP2 SUB PUSH0 DUP4 ADD MSTORE PUSH2 0x1186 DUP2 PUSH2 0x114D JUMP JUMPDEST SWAP1 POP SWAP2 SWAP1 POP JUMP JUMPDEST PUSH0 DUP2 MLOAD SWAP1 POP SWAP2 SWAP1 POP JUMP JUMPDEST PUSH0 DUP2 SWAP1 POP SWAP3 SWAP2 POP POP JUMP JUMPDEST DUP3 DUP2 DUP4 MCOPY PUSH0 DUP4 DUP4 ADD MSTORE POP POP POP JUMP JUMPDEST PUSH0 PUSH2 0x11B9 DUP3 PUSH2 0x118D JUMP JUMPDEST PUSH2 0x11C3 DUP2 DUP6 PUSH2 0x1197 JUMP JUMPDEST SWAP4 POP PUSH2 0x11D3 DUP2 DUP6 PUSH1 0x20 DUP7 ADD PUSH2 0x11A1 JUMP JUMPDEST DUP1 DUP5 ADD SWAP2 POP POP SWAP3 SWAP2 POP POP JUMP JUMPDEST PUSH0 PUSH2 0x11EA DUP3 DUP5 PUSH2 0x11AF JUMP JUMPDEST SWAP2 POP DUP2 SWAP1 POP SWAP3 SWAP2 POP POP JUMP JUMPDEST PUSH0 DUP2 MLOAD SWAP1 POP SWAP2 SWAP1 POP JUMP JUMPDEST PUSH0 PUSH1 0x1F NOT PUSH1 0x1F DUP4 ADD AND SWAP1 POP SWAP2 SWAP1 POP JUMP JUMPDEST PUSH0 PUSH2 0x1219 DUP3 PUSH2 0x11F5 JUMP JUMPDEST PUSH2 0x1223 DUP2 DUP6 PUSH2 0xF02 JUMP JUMPDEST SWAP4 POP PUSH2 0x1233 DUP2 DUP6 PUSH1 0x20 DUP7 ADD PUSH2 0x11A1 JUMP JUMPDEST PUSH2 0x123C DUP2 PUSH2 0x11FF JUMP JUMPDEST DUP5 ADD SWAP2 POP POP SWAP3 SWAP2 POP POP JUMP JUMPDEST PUSH0 PUSH1 0x20 DUP3 ADD SWAP1 POP DUP2 DUP2 SUB PUSH0 DUP4 ADD MSTORE PUSH2 0x125F DUP2 DUP5 PUSH2 0x120F JUMP JUMPDEST SWAP1 POP SWAP3 SWAP2 POP POP JUMP JUMPDEST PUSH32 0x4E487B7100000000000000000000000000000000000000000000000000000000 PUSH0 MSTORE PUSH1 0x12 PUSH1 0x4 MSTORE PUSH1 0x24 PUSH0 REVERT JUMPDEST PUSH0 PUSH2 0x129E DUP3 PUSH2 0xCD9 JUMP JUMPDEST SWAP2 POP PUSH2 0x12A9 DUP4 PUSH2 0xCD9 JUMP JUMPDEST SWAP3 POP DUP3 PUSH2 0x12B9 JUMPI PUSH2 0x12B8 PUSH2 0x1267 JUMP JUMPDEST JUMPDEST DUP3 DUP3 DIV SWAP1 POP SWAP3 SWAP2 POP POP JUMP JUMPDEST PUSH0 PUSH2 0x12CE DUP3 PUSH2 0xCD9 JUMP JUMPDEST SWAP2 POP PUSH2 0x12D9 DUP4 PUSH2 0xCD9 JUMP JUMPDEST SWAP3 POP DUP3 DUP3 ADD SWAP1 POP DUP1 DUP3 GT ISZERO PUSH2 0x12F1 JUMPI PUSH2 0x12F0 PUSH2 0xF7A JUMP JUMPDEST JUMPDEST SWAP3 SWAP2 POP POP JUMP JUMPDEST PUSH32 0x4C6F616E206E6F74207265706169642077697468206665650000000000000000 PUSH0 DUP3 ADD MSTORE POP JUMP JUMPDEST PUSH0 PUSH2 0x132B PUSH1 0x18 DUP4 PUSH2 0xF02 JUMP JUMPDEST SWAP2 POP PUSH2 0x1336 DUP3 PUSH2 0x12F7 JUMP JUMPDEST PUSH1 0x20 DUP3 ADD SWAP1 POP SWAP2 SWAP1 POP JUMP JUMPDEST PUSH0 PUSH1 0x20 DUP3 ADD SWAP1 POP DUP2 DUP2 SUB PUSH0 DUP4 ADD MSTORE PUSH2 0x1358 DUP2 PUSH2 0x131F JUMP JUMPDEST SWAP1 POP SWAP2 SWAP1 POP JUMP JUMPDEST PUSH0 PUSH2 0x1369 DUP3 PUSH2 0xCD9 JUMP JUMPDEST SWAP2 POP PUSH32 0xFFFFFFFFFFFFFFFFFFFFFFFFFFFFFFFFFFFFFFFFFFFFFFFFFFFFFFFFFFFFFFFF DUP3 SUB PUSH2 0x139B JUMPI PUSH2 0x139A PUSH2 0xF7A JUMP JUMPDEST JUMPDEST PUSH1 0x1 DUP3 ADD SWAP1 POP SWAP2 SWAP1 POP JUMP JUMPDEST PUSH0 PUSH1 0x60 DUP3 ADD SWAP1 POP PUSH2 0x13B9 PUSH0 DUP4 ADD DUP7 PUSH2 0xFDA JUMP JUMPDEST PUSH2 0x13C6 PUSH1 0x20 DUP4 ADD DUP6 PUSH2 0xFDA JUMP JUMPDEST PUSH2 0x13D3 PUSH1 0x40 DUP4 ADD DUP5 PUSH2 0xCE2 JUMP JUMPDEST SWAP5 SWAP4 POP POP POP POP JUMP JUMPDEST PUSH32 0x43616E2774206578706C6F6465207468652062616E6B00000000000000000000 PUSH0 DUP3 ADD MSTORE POP JUMP JUMPDEST PUSH0 PUSH2 0x140F PUSH1 0x16 DUP4 PUSH2 0xF02 JUMP JUMPDEST SWAP2 POP PUSH2 0x141A DUP3 PUSH2 0x13DB JUMP JUMPDEST PUSH1 0x20 DUP3 ADD SWAP1 POP SWAP2 SWAP1 POP JUMP JUMPDEST PUSH0 PUSH1 0x20 DUP3 ADD SWAP1 POP DUP2 DUP2 SUB PUSH0 DUP4 ADD MSTORE PUSH2 0x143C DUP2 PUSH2 0x1403 JUMP JUMPDEST SWAP1 POP SWAP2 SWAP1 POP JUMP JUMPDEST PUSH32 0x596F752077657265206361756768740000000000000000000000000000000000 PUSH0 DUP3 ADD MSTORE POP JUMP JUMPDEST PUSH0 PUSH2 0x1477 PUSH1 0xF DUP4 PUSH2 0xF02 JUMP JUMPDEST SWAP2 POP PUSH2 0x1482 DUP3 PUSH2 0x1443 JUMP JUMPDEST PUSH1 0x20 DUP3 ADD SWAP1 POP SWAP2 SWAP1 POP JUMP JUMPDEST PUSH0 PUSH1 0x20 DUP3 ADD SWAP1 POP DUP2 DUP2 SUB PUSH0 DUP4 ADD MSTORE PUSH2 0x14A4 DUP2 PUSH2 0x146B JUMP JUMPDEST SWAP1 POP SWAP2 SWAP1 POP JUMP JUMPDEST PUSH32 0x5468652062616E6B207374696C6C206861732066756E64730000000000000000 PUSH0 DUP3 ADD MSTORE POP JUMP JUMPDEST PUSH0 PUSH2 0x14DF PUSH1 0x18 DUP4 PUSH2 0xF02 JUMP JUMPDEST SWAP2 POP PUSH2 0x14EA DUP3 PUSH2 0x14AB JUMP JUMPDEST PUSH1 0x20 DUP3 ADD SWAP1 POP SWAP2 SWAP1 POP JUMP JUMPDEST PUSH0 PUSH1 0x20 DUP3 ADD SWAP1 POP DUP2 DUP2 SUB PUSH0 DUP4 ADD MSTORE PUSH2 0x150C DUP2 PUSH2 0x14D3 JUMP JUMPDEST SWAP1 POP SWAP2 SWAP1 POP JUMP JUMPDEST PUSH0 PUSH2 0x151D DUP3 PUSH2 0xCD9 JUMP JUMPDEST SWAP2 POP PUSH2 0x1528 DUP4 PUSH2 0xCD9 JUMP JUMPDEST SWAP3 POP DUP3 PUSH2 0x1538 JUMPI PUSH2 0x1537 PUSH2 0x1267 JUMP JUMPDEST JUMPDEST DUP3 DUP3 MOD SWAP1 POP SWAP3 SWAP2 POP POP JUMP JUMPDEST PUSH32 0x57726F6E67207061737370687261736500000000000000000000000000000000 PUSH0 DUP3 ADD MSTORE POP JUMP JUMPDEST PUSH0 PUSH2 0x1577 PUSH1 0x10 DUP4 PUSH2 0xF02 JUMP JUMPDEST SWAP2 POP PUSH2 0x1582 DUP3 PUSH2 0x1543 JUMP JUMPDEST PUSH1 0x20 DUP3 ADD SWAP1 POP SWAP2 SWAP1 POP JUMP JUMPDEST PUSH0 PUSH1 0x20 DUP3 ADD SWAP1 POP DUP2 DUP2 SUB PUSH0 DUP4 ADD MSTORE PUSH2 0x15A4 DUP2 PUSH2 0x156B JUMP JUMPDEST SWAP1 POP SWAP2 SWAP1 POP JUMP JUMPDEST PUSH32 0x596F75206E65656420746F2073656E6420657468657220746F20706173732074 PUSH0 DUP3 ADD MSTORE PUSH32 0x68726F7567682073656375726974790000000000000000000000000000000000 PUSH1 0x20 DUP3 ADD MSTORE POP JUMP JUMPDEST PUSH0 PUSH2 0x1605 PUSH1 0x2F DUP4 PUSH2 0xF02 JUMP JUMPDEST SWAP2 POP PUSH2 0x1610 DUP3 PUSH2 0x15AB JUMP JUMPDEST PUSH1 0x40 DUP3 ADD SWAP1 POP SWAP2 SWAP1 POP JUMP JUMPDEST PUSH0 PUSH1 0x20 DUP3 ADD SWAP1 POP DUP2 DUP2 SUB PUSH0 DUP4 ADD MSTORE PUSH2 0x1632 DUP2 PUSH2 0x15F9 JUMP JUMPDEST SWAP1 POP SWAP2 SWAP1 POP JUMP JUMPDEST PUSH32 0x546869726420616C61726D2C2062616E6B206973206C6F636B65640000000000 PUSH0 DUP3 ADD MSTORE POP JUMP JUMPDEST PUSH0 PUSH2 0x166D PUSH1 0x1B DUP4 PUSH2 0xF02 JUMP JUMPDEST SWAP2 POP PUSH2 0x1678 DUP3 PUSH2 0x1639 JUMP JUMPDEST PUSH1 0x20 DUP3 ADD SWAP1 POP SWAP2 SWAP1 POP JUMP JUMPDEST PUSH0 PUSH1 0x20 DUP3 ADD SWAP1 POP DUP2 DUP2 SUB PUSH0 DUP4 ADD MSTORE PUSH2 0x169A DUP2 PUSH2 0x1661 JUMP JUMPDEST SWAP1 POP SWAP2 SWAP1 POP JUMP INVALID LOG2 PUSH5 0x6970667358 0x22 SLT KECCAK256 0x2B SELFBALANCE ADDMOD SIGNEXTEND RETURNDATASIZE PUSH26 0xB59FEBBE9F9BB1B63D5B8010176BFA6B616D2DC4964A31AF834F PUSH5 0x736F6C6343 STOP ADDMOD NOT STOP CALLER "
		},
		"gasEstimates": {
			"creation": {
				"codeDepositCost": "1169400",
				"executionCost": "infinite",
				"totalCost": "infinite"
			},
			"external": {
				"balances(address)": "2803",
				"deposit(uint256,bytes)": "infinite",
				"explodeSpaceBank()": "infinite",
				"exploded()": "2488",
				"flashLoan(uint256,address)": "infinite",
				"token()": "infinite",
				"withdraw(uint256)": "infinite"
			},
			"internal": {
				"_emergencyAlarmProtocol(bytes memory)": "infinite",
				"gasLimits()": "infinite"
			}
		},
		"methodIdentifiers": {
			"balances(address)": "27e235e3",
			"deposit(uint256,bytes)": "5d303519",
			"explodeSpaceBank()": "c0711de6",
			"exploded()": "ae464b24",
			"flashLoan(uint256,address)": "499cfd70",
			"token()": "fc0c546a",
			"withdraw(uint256)": "2e1a7d4d"
		}
	},
	"abi": [
		{
			"inputs": [
				{
					"internalType": "address",
					"name": "_token",
					"type": "address"
				}
			],
			"stateMutability": "nonpayable",
			"type": "constructor"
		},
		{
			"inputs": [
				{
					"internalType": "address",
					"name": "",
					"type": "address"
				}
			],
			"name": "balances",
			"outputs": [
				{
					"internalType": "uint256",
					"name": "",
					"type": "uint256"
				}
			],
			"stateMutability": "view",
			"type": "function"
		},
		{
			"inputs": [
				{
					"internalType": "uint256",
					"name": "amount",
					"type": "uint256"
				},
				{
					"internalType": "bytes",
					"name": "data",
					"type": "bytes"
				}
			],
			"name": "deposit",
			"outputs": [],
			"stateMutability": "nonpayable",
			"type": "function"
		},
		{
			"inputs": [],
			"name": "explodeSpaceBank",
			"outputs": [],
			"stateMutability": "nonpayable",
			"type": "function"
		},
		{
			"inputs": [],
			"name": "exploded",
			"outputs": [
				{
					"internalType": "bool",
					"name": "",
					"type": "bool"
				}
			],
			"stateMutability": "view",
			"type": "function"
		},
		{
			"inputs": [
				{
					"internalType": "uint256",
					"name": "amount",
					"type": "uint256"
				},
				{
					"internalType": "address",
					"name": "flashLoanReceiver",
					"type": "address"
				}
			],
			"name": "flashLoan",
			"outputs": [],
			"stateMutability": "nonpayable",
			"type": "function"
		},
		{
			"inputs": [],
			"name": "token",
			"outputs": [
				{
					"internalType": "contract IERC20",
					"name": "",
					"type": "address"
				}
			],
			"stateMutability": "view",
			"type": "function"
		},
		{
			"inputs": [
				{
					"internalType": "uint256",
					"name": "amount",
					"type": "uint256"
				}
			],
			"name": "withdraw",
			"outputs": [],
			"stateMutability": "nonpayable",
			"type": "function"
		}
	]
}