{
	"cas/artifacts/Grant.sol": {
		"Vault": {
			"abi": [
				{
					"inputs": [],
					"stateMutability": "nonpayable",
					"type": "constructor"
				},
				{
					"anonymous": false,
					"inputs": [
						{
							"indexed": true,
							"internalType": "address",
							"name": "beneficiary",
							"type": "address"
						},
						{
							"indexed": false,
							"internalType": "uint256",
							"name": "amount",
							"type": "uint256"
						}
					],
					"name": "GrantClaimed",
					"type": "event"
				},
				{
					"anonymous": false,
					"inputs": [
						{
							"indexed": true,
							"internalType": "address",
							"name": "donor",
							"type": "address"
						},
						{
							"indexed": true,
							"internalType": "address",
							"name": "beneficiary",
							"type": "address"
						},
						{
							"indexed": false,
							"internalType": "uint256",
							"name": "amount",
							"type": "uint256"
						},
						{
							"indexed": false,
							"internalType": "uint256",
							"name": "unlockTime",
							"type": "uint256"
						}
					],
					"name": "GrantOffered",
					"type": "event"
				},
				{
					"inputs": [],
					"name": "claimGrant",
					"outputs": [],
					"stateMutability": "nonpayable",
					"type": "function"
				},
				{
					"inputs": [
						{
							"internalType": "address",
							"name": "_beneficiary",
							"type": "address"
						}
					],
					"name": "getGrantDetails",
					"outputs": [
						{
							"internalType": "uint256",
							"name": "amount",
							"type": "uint256"
						},
						{
							"internalType": "uint256",
							"name": "unlockTime",
							"type": "uint256"
						},
						{
							"internalType": "bool",
							"name": "claimed",
							"type": "bool"
						}
					],
					"stateMutability": "view",
					"type": "function"
				},
				{
					"inputs": [
						{
							"internalType": "address",
							"name": "",
							"type": "address"
						}
					],
					"name": "grants",
					"outputs": [
						{
							"internalType": "uint256",
							"name": "amount",
							"type": "uint256"
						},
						{
							"internalType": "uint256",
							"name": "unlockTime",
							"type": "uint256"
						},
						{
							"internalType": "bool",
							"name": "claimed",
							"type": "bool"
						}
					],
					"stateMutability": "view",
					"type": "function"
				},
				{
					"inputs": [
						{
							"internalType": "address",
							"name": "_beneficiary",
							"type": "address"
						},
						{
							"internalType": "uint256",
							"name": "_unlockTime",
							"type": "uint256"
						}
					],
					"name": "offerGrant",
					"outputs": [],
					"stateMutability": "payable",
					"type": "function"
				},
				{
					"inputs": [],
					"name": "owner",
					"outputs": [
						{
							"internalType": "address",
							"name": "",
							"type": "address"
						}
					],
					"stateMutability": "view",
					"type": "function"
				}
			],
			"devdoc": {
				"kind": "dev",
				"methods": {},
				"version": 1
			},
			"evm": {
				"assembly": "    /* \"cas/artifacts/Grant.sol\":57:2068  contract Vault {... */\n  mstore(0x40, 0x80)\n    /* \"cas/artifacts/Grant.sol\":859:908  constructor() {... */\n  callvalue\n  dup1\n  iszero\n  tag_1\n  jumpi\n  0x00\n  dup1\n  revert\ntag_1:\n  pop\n    /* \"cas/artifacts/Grant.sol\":891:901  msg.sender */\n  caller\n    /* \"cas/artifacts/Grant.sol\":883:888  owner */\n  0x00\n  dup1\n    /* \"cas/artifacts/Grant.sol\":883:901  owner = msg.sender */\n  0x0100\n  exp\n  dup2\n  sload\n  dup2\n  0xffffffffffffffffffffffffffffffffffffffff\n  mul\n  not\n  and\n  swap1\n  dup4\n  0xffffffffffffffffffffffffffffffffffffffff\n  and\n  mul\n  or\n  swap1\n  sstore\n  pop\n    /* \"cas/artifacts/Grant.sol\":57:2068  contract Vault {... */\n  dataSize(sub_0)\n  dup1\n  dataOffset(sub_0)\n  0x00\n  codecopy\n  0x00\n  return\nstop\n\nsub_0: assembly {\n        /* \"cas/artifacts/Grant.sol\":57:2068  contract Vault {... */\n      mstore(0x40, 0x80)\n      jumpi(tag_1, lt(calldatasize, 0x04))\n      shr(0xe0, calldataload(0x00))\n      dup1\n      0x0b961c1f\n      eq\n      tag_2\n      jumpi\n      dup1\n      0x220f8dd4\n      eq\n      tag_3\n      jumpi\n      dup1\n      0x5d22e77c\n      eq\n      tag_4\n      jumpi\n      dup1\n      0x8da5cb5b\n      eq\n      tag_5\n      jumpi\n      dup1\n      0xb869cea3\n      eq\n      tag_6\n      jumpi\n    tag_1:\n      0x00\n      dup1\n      revert\n        /* \"cas/artifacts/Grant.sol\":1829:2066  function getGrantDetails(address _beneficiary) external view returns (uint amount, uint unlockTime, bool claimed) {... */\n    tag_2:\n      callvalue\n      dup1\n      iszero\n      tag_7\n      jumpi\n      0x00\n      dup1\n      revert\n    tag_7:\n      pop\n      tag_8\n      0x04\n      dup1\n      calldatasize\n      sub\n      dup2\n      add\n      swap1\n      tag_9\n      swap2\n      swap1\n      tag_10\n      jump\t// in\n    tag_9:\n      tag_11\n      jump\t// in\n    tag_8:\n      mload(0x40)\n      tag_12\n      swap4\n      swap3\n      swap2\n      swap1\n      tag_13\n      jump\t// in\n    tag_12:\n      mload(0x40)\n      dup1\n      swap2\n      sub\n      swap1\n      return\n        /* \"cas/artifacts/Grant.sol\":914:1453  function offerGrant(address _beneficiary, uint _unlockTime) external payable onlyOwner {... */\n    tag_3:\n      tag_14\n      0x04\n      dup1\n      calldatasize\n      sub\n      dup2\n      add\n      swap1\n      tag_15\n      swap2\n      swap1\n      tag_16\n      jump\t// in\n    tag_15:\n      tag_17\n      jump\t// in\n    tag_14:\n      stop\n        /* \"cas/artifacts/Grant.sol\":1459:1823  function claimGrant() external onlyBeneficiary(msg.sender) grantNotClaimed(msg.sender) {... */\n    tag_4:\n      callvalue\n      dup1\n      iszero\n      tag_18\n      jumpi\n      0x00\n      dup1\n      revert\n    tag_18:\n      pop\n      tag_19\n      tag_20\n      jump\t// in\n    tag_19:\n      stop\n        /* \"cas/artifacts/Grant.sol\":78:98  address public owner */\n    tag_5:\n      callvalue\n      dup1\n      iszero\n      tag_21\n      jumpi\n      0x00\n      dup1\n      revert\n    tag_21:\n      pop\n      tag_22\n      tag_23\n      jump\t// in\n    tag_22:\n      mload(0x40)\n      tag_24\n      swap2\n      swap1\n      tag_25\n      jump\t// in\n    tag_24:\n      mload(0x40)\n      dup1\n      swap2\n      sub\n      swap1\n      return\n        /* \"cas/artifacts/Grant.sol\":104:143  mapping(address => Grant) public grants */\n    tag_6:\n      callvalue\n      dup1\n      iszero\n      tag_26\n      jumpi\n      0x00\n      dup1\n      revert\n    tag_26:\n      pop\n      tag_27\n      0x04\n      dup1\n      calldatasize\n      sub\n      dup2\n      add\n      swap1\n      tag_28\n      swap2\n      swap1\n      tag_10\n      jump\t// in\n    tag_28:\n      tag_29\n      jump\t// in\n    tag_27:\n      mload(0x40)\n      tag_30\n      swap4\n      swap3\n      swap2\n      swap1\n      tag_13\n      jump\t// in\n    tag_30:\n      mload(0x40)\n      dup1\n      swap2\n      sub\n      swap1\n      return\n        /* \"cas/artifacts/Grant.sol\":1829:2066  function getGrantDetails(address _beneficiary) external view returns (uint amount, uint unlockTime, bool claimed) {... */\n    tag_11:\n        /* \"cas/artifacts/Grant.sol\":1899:1910  uint amount */\n      0x00\n        /* \"cas/artifacts/Grant.sol\":1912:1927  uint unlockTime */\n      dup1\n        /* \"cas/artifacts/Grant.sol\":1929:1941  bool claimed */\n      0x00\n        /* \"cas/artifacts/Grant.sol\":1953:1972  Grant storage grant */\n      dup1\n        /* \"cas/artifacts/Grant.sol\":1975:1981  grants */\n      0x01\n        /* \"cas/artifacts/Grant.sol\":1975:1995  grants[_beneficiary] */\n      0x00\n        /* \"cas/artifacts/Grant.sol\":1982:1994  _beneficiary */\n      dup7\n        /* \"cas/artifacts/Grant.sol\":1975:1995  grants[_beneficiary] */\n      0xffffffffffffffffffffffffffffffffffffffff\n      and\n      0xffffffffffffffffffffffffffffffffffffffff\n      and\n      dup2\n      mstore\n      0x20\n      add\n      swap1\n      dup2\n      mstore\n      0x20\n      add\n      0x00\n      keccak256\n        /* \"cas/artifacts/Grant.sol\":1953:1995  Grant storage grant = grants[_beneficiary] */\n      swap1\n      pop\n        /* \"cas/artifacts/Grant.sol\":2013:2018  grant */\n      dup1\n        /* \"cas/artifacts/Grant.sol\":2013:2025  grant.amount */\n      0x00\n      add\n      sload\n        /* \"cas/artifacts/Grant.sol\":2027:2032  grant */\n      dup2\n        /* \"cas/artifacts/Grant.sol\":2027:2043  grant.unlockTime */\n      0x01\n      add\n      sload\n        /* \"cas/artifacts/Grant.sol\":2045:2050  grant */\n      dup3\n        /* \"cas/artifacts/Grant.sol\":2045:2058  grant.claimed */\n      0x02\n      add\n      0x00\n      swap1\n      sload\n      swap1\n      0x0100\n      exp\n      swap1\n      div\n      0xff\n      and\n        /* \"cas/artifacts/Grant.sol\":2005:2059  return (grant.amount, grant.unlockTime, grant.claimed) */\n      swap4\n      pop\n      swap4\n      pop\n      swap4\n      pop\n      pop\n        /* \"cas/artifacts/Grant.sol\":1829:2066  function getGrantDetails(address _beneficiary) external view returns (uint amount, uint unlockTime, bool claimed) {... */\n      swap2\n      swap4\n      swap1\n      swap3\n      pop\n      jump\t// out\n        /* \"cas/artifacts/Grant.sol\":914:1453  function offerGrant(address _beneficiary, uint _unlockTime) external payable onlyOwner {... */\n    tag_17:\n        /* \"cas/artifacts/Grant.sol\":470:475  owner */\n      0x00\n      dup1\n      sload\n      swap1\n      0x0100\n      exp\n      swap1\n      div\n      0xffffffffffffffffffffffffffffffffffffffff\n      and\n        /* \"cas/artifacts/Grant.sol\":456:475  msg.sender == owner */\n      0xffffffffffffffffffffffffffffffffffffffff\n      and\n        /* \"cas/artifacts/Grant.sol\":456:466  msg.sender */\n      caller\n        /* \"cas/artifacts/Grant.sol\":456:475  msg.sender == owner */\n      0xffffffffffffffffffffffffffffffffffffffff\n      and\n      eq\n        /* \"cas/artifacts/Grant.sol\":448:518  require(msg.sender == owner, \"Only the owner can perform this action\") */\n      tag_33\n      jumpi\n      mload(0x40)\n      0x08c379a000000000000000000000000000000000000000000000000000000000\n      dup2\n      mstore\n      0x04\n      add\n      tag_34\n      swap1\n      tag_35\n      jump\t// in\n    tag_34:\n      mload(0x40)\n      dup1\n      swap2\n      sub\n      swap1\n      revert\n    tag_33:\n        /* \"cas/artifacts/Grant.sol\":1043:1044  0 */\n      0x00\n        /* \"cas/artifacts/Grant.sol\":1019:1045  _beneficiary != address(0) */\n      0xffffffffffffffffffffffffffffffffffffffff\n      and\n        /* \"cas/artifacts/Grant.sol\":1019:1031  _beneficiary */\n      dup3\n        /* \"cas/artifacts/Grant.sol\":1019:1045  _beneficiary != address(0) */\n      0xffffffffffffffffffffffffffffffffffffffff\n      and\n      sub\n        /* \"cas/artifacts/Grant.sol\":1011:1077  require(_beneficiary != address(0), \"Invalid beneficiary address\") */\n      tag_37\n      jumpi\n      mload(0x40)\n      0x08c379a000000000000000000000000000000000000000000000000000000000\n      dup2\n      mstore\n      0x04\n      add\n      tag_38\n      swap1\n      tag_39\n      jump\t// in\n    tag_38:\n      mload(0x40)\n      dup1\n      swap2\n      sub\n      swap1\n      revert\n    tag_37:\n        /* \"cas/artifacts/Grant.sol\":1109:1124  block.timestamp */\n      timestamp\n        /* \"cas/artifacts/Grant.sol\":1095:1106  _unlockTime */\n      dup2\n        /* \"cas/artifacts/Grant.sol\":1095:1124  _unlockTime > block.timestamp */\n      gt\n        /* \"cas/artifacts/Grant.sol\":1087:1162  require(_unlockTime > block.timestamp, \"Unlock time must be in the future\") */\n      tag_40\n      jumpi\n      mload(0x40)\n      0x08c379a000000000000000000000000000000000000000000000000000000000\n      dup2\n      mstore\n      0x04\n      add\n      tag_41\n      swap1\n      tag_42\n      jump\t// in\n    tag_41:\n      mload(0x40)\n      dup1\n      swap2\n      sub\n      swap1\n      revert\n    tag_40:\n        /* \"cas/artifacts/Grant.sol\":1173:1192  Grant storage grant */\n      0x00\n        /* \"cas/artifacts/Grant.sol\":1195:1201  grants */\n      0x01\n        /* \"cas/artifacts/Grant.sol\":1195:1215  grants[_beneficiary] */\n      0x00\n        /* \"cas/artifacts/Grant.sol\":1202:1214  _beneficiary */\n      dup5\n        /* \"cas/artifacts/Grant.sol\":1195:1215  grants[_beneficiary] */\n      0xffffffffffffffffffffffffffffffffffffffff\n      and\n      0xffffffffffffffffffffffffffffffffffffffff\n      and\n      dup2\n      mstore\n      0x20\n      add\n      swap1\n      dup2\n      mstore\n      0x20\n      add\n      0x00\n      keccak256\n        /* \"cas/artifacts/Grant.sol\":1173:1215  Grant storage grant = grants[_beneficiary] */\n      swap1\n      pop\n        /* \"cas/artifacts/Grant.sol\":1234:1239  grant */\n      dup1\n        /* \"cas/artifacts/Grant.sol\":1234:1247  grant.claimed */\n      0x02\n      add\n      0x00\n      swap1\n      sload\n      swap1\n      0x0100\n      exp\n      swap1\n      div\n      0xff\n      and\n        /* \"cas/artifacts/Grant.sol\":1233:1247  !grant.claimed */\n      iszero\n        /* \"cas/artifacts/Grant.sol\":1225:1293  require(!grant.claimed, \"Grant for this beneficiary already exists\") */\n      tag_43\n      jumpi\n      mload(0x40)\n      0x08c379a000000000000000000000000000000000000000000000000000000000\n      dup2\n      mstore\n      0x04\n      add\n      tag_44\n      swap1\n      tag_45\n      jump\t// in\n    tag_44:\n      mload(0x40)\n      dup1\n      swap2\n      sub\n      swap1\n      revert\n    tag_43:\n        /* \"cas/artifacts/Grant.sol\":1319:1328  msg.value */\n      callvalue\n        /* \"cas/artifacts/Grant.sol\":1304:1309  grant */\n      dup2\n        /* \"cas/artifacts/Grant.sol\":1304:1316  grant.amount */\n      0x00\n      add\n        /* \"cas/artifacts/Grant.sol\":1304:1328  grant.amount = msg.value */\n      dup2\n      swap1\n      sstore\n      pop\n        /* \"cas/artifacts/Grant.sol\":1357:1368  _unlockTime */\n      dup2\n        /* \"cas/artifacts/Grant.sol\":1338:1343  grant */\n      dup2\n        /* \"cas/artifacts/Grant.sol\":1338:1354  grant.unlockTime */\n      0x01\n      add\n        /* \"cas/artifacts/Grant.sol\":1338:1368  grant.unlockTime = _unlockTime */\n      dup2\n      swap1\n      sstore\n      pop\n        /* \"cas/artifacts/Grant.sol\":1409:1421  _beneficiary */\n      dup3\n        /* \"cas/artifacts/Grant.sol\":1384:1446  GrantOffered(msg.sender, _beneficiary, msg.value, _unlockTime) */\n      0xffffffffffffffffffffffffffffffffffffffff\n      and\n        /* \"cas/artifacts/Grant.sol\":1397:1407  msg.sender */\n      caller\n        /* \"cas/artifacts/Grant.sol\":1384:1446  GrantOffered(msg.sender, _beneficiary, msg.value, _unlockTime) */\n      0xffffffffffffffffffffffffffffffffffffffff\n      and\n      0x979e1f177e70f0b0a20b22ef64d5eb8d9a11f033004b648d7aa1f4785fe38fa8\n        /* \"cas/artifacts/Grant.sol\":1423:1432  msg.value */\n      callvalue\n        /* \"cas/artifacts/Grant.sol\":1434:1445  _unlockTime */\n      dup6\n        /* \"cas/artifacts/Grant.sol\":1384:1446  GrantOffered(msg.sender, _beneficiary, msg.value, _unlockTime) */\n      mload(0x40)\n      tag_46\n      swap3\n      swap2\n      swap1\n      tag_47\n      jump\t// in\n    tag_46:\n      mload(0x40)\n      dup1\n      swap2\n      sub\n      swap1\n      log3\n        /* \"cas/artifacts/Grant.sol\":1001:1453  {... */\n      pop\n        /* \"cas/artifacts/Grant.sol\":914:1453  function offerGrant(address _beneficiary, uint _unlockTime) external payable onlyOwner {... */\n      pop\n      pop\n      jump\t// out\n        /* \"cas/artifacts/Grant.sol\":1459:1823  function claimGrant() external onlyBeneficiary(msg.sender) grantNotClaimed(msg.sender) {... */\n    tag_20:\n        /* \"cas/artifacts/Grant.sol\":1506:1516  msg.sender */\n      caller\n        /* \"cas/artifacts/Grant.sol\":774:786  _beneficiary */\n      dup1\n        /* \"cas/artifacts/Grant.sol\":760:786  msg.sender == _beneficiary */\n      0xffffffffffffffffffffffffffffffffffffffff\n      and\n        /* \"cas/artifacts/Grant.sol\":760:770  msg.sender */\n      caller\n        /* \"cas/artifacts/Grant.sol\":760:786  msg.sender == _beneficiary */\n      0xffffffffffffffffffffffffffffffffffffffff\n      and\n      eq\n        /* \"cas/artifacts/Grant.sol\":752:835  require(msg.sender == _beneficiary, \"Only the beneficiary can perform this action\") */\n      tag_49\n      jumpi\n      mload(0x40)\n      0x08c379a000000000000000000000000000000000000000000000000000000000\n      dup2\n      mstore\n      0x04\n      add\n      tag_50\n      swap1\n      tag_51\n      jump\t// in\n    tag_50:\n      mload(0x40)\n      dup1\n      swap2\n      sub\n      swap1\n      revert\n    tag_49:\n        /* \"cas/artifacts/Grant.sol\":1534:1544  msg.sender */\n      caller\n        /* \"cas/artifacts/Grant.sol\":608:614  grants */\n      0x01\n        /* \"cas/artifacts/Grant.sol\":608:628  grants[_beneficiary] */\n      0x00\n        /* \"cas/artifacts/Grant.sol\":615:627  _beneficiary */\n      dup3\n        /* \"cas/artifacts/Grant.sol\":608:628  grants[_beneficiary] */\n      0xffffffffffffffffffffffffffffffffffffffff\n      and\n      0xffffffffffffffffffffffffffffffffffffffff\n      and\n      dup2\n      mstore\n      0x20\n      add\n      swap1\n      dup2\n      mstore\n      0x20\n      add\n      0x00\n      keccak256\n        /* \"cas/artifacts/Grant.sol\":608:636  grants[_beneficiary].claimed */\n      0x02\n      add\n      0x00\n      swap1\n      sload\n      swap1\n      0x0100\n      exp\n      swap1\n      div\n      0xff\n      and\n        /* \"cas/artifacts/Grant.sol\":607:636  !grants[_beneficiary].claimed */\n      iszero\n        /* \"cas/artifacts/Grant.sol\":599:671  require(!grants[_beneficiary].claimed, \"Grant has already been claimed\") */\n      tag_53\n      jumpi\n      mload(0x40)\n      0x08c379a000000000000000000000000000000000000000000000000000000000\n      dup2\n      mstore\n      0x04\n      add\n      tag_54\n      swap1\n      tag_55\n      jump\t// in\n    tag_54:\n      mload(0x40)\n      dup1\n      swap2\n      sub\n      swap1\n      revert\n    tag_53:\n        /* \"cas/artifacts/Grant.sol\":1556:1575  Grant storage grant */\n      0x00\n        /* \"cas/artifacts/Grant.sol\":1578:1584  grants */\n      0x01\n        /* \"cas/artifacts/Grant.sol\":1578:1596  grants[msg.sender] */\n      0x00\n        /* \"cas/artifacts/Grant.sol\":1585:1595  msg.sender */\n      caller\n        /* \"cas/artifacts/Grant.sol\":1578:1596  grants[msg.sender] */\n      0xffffffffffffffffffffffffffffffffffffffff\n      and\n      0xffffffffffffffffffffffffffffffffffffffff\n      and\n      dup2\n      mstore\n      0x20\n      add\n      swap1\n      dup2\n      mstore\n      0x20\n      add\n      0x00\n      keccak256\n        /* \"cas/artifacts/Grant.sol\":1556:1596  Grant storage grant = grants[msg.sender] */\n      swap1\n      pop\n        /* \"cas/artifacts/Grant.sol\":1633:1638  grant */\n      dup1\n        /* \"cas/artifacts/Grant.sol\":1633:1649  grant.unlockTime */\n      0x01\n      add\n      sload\n        /* \"cas/artifacts/Grant.sol\":1614:1629  block.timestamp */\n      timestamp\n        /* \"cas/artifacts/Grant.sol\":1614:1649  block.timestamp >= grant.unlockTime */\n      lt\n      iszero\n        /* \"cas/artifacts/Grant.sol\":1606:1679  require(block.timestamp >= grant.unlockTime, \"Grant is not yet unlocked\") */\n      tag_57\n      jumpi\n      mload(0x40)\n      0x08c379a000000000000000000000000000000000000000000000000000000000\n      dup2\n      mstore\n      0x04\n      add\n      tag_58\n      swap1\n      tag_59\n      jump\t// in\n    tag_58:\n      mload(0x40)\n      dup1\n      swap2\n      sub\n      swap1\n      revert\n    tag_57:\n        /* \"cas/artifacts/Grant.sol\":1706:1710  true */\n      0x01\n        /* \"cas/artifacts/Grant.sol\":1690:1695  grant */\n      dup2\n        /* \"cas/artifacts/Grant.sol\":1690:1703  grant.claimed */\n      0x02\n      add\n      0x00\n        /* \"cas/artifacts/Grant.sol\":1690:1710  grant.claimed = true */\n      0x0100\n      exp\n      dup2\n      sload\n      dup2\n      0xff\n      mul\n      not\n      and\n      swap1\n      dup4\n      iszero\n      iszero\n      mul\n      or\n      swap1\n      sstore\n      pop\n        /* \"cas/artifacts/Grant.sol\":1728:1738  msg.sender */\n      caller\n        /* \"cas/artifacts/Grant.sol\":1720:1748  payable(msg.sender).transfer */\n      0xffffffffffffffffffffffffffffffffffffffff\n      and\n        /* \"cas/artifacts/Grant.sol\":1720:1762  payable(msg.sender).transfer(grant.amount) */\n      0x08fc\n        /* \"cas/artifacts/Grant.sol\":1749:1754  grant */\n      dup3\n        /* \"cas/artifacts/Grant.sol\":1749:1761  grant.amount */\n      0x00\n      add\n      sload\n        /* \"cas/artifacts/Grant.sol\":1720:1762  payable(msg.sender).transfer(grant.amount) */\n      swap1\n      dup2\n      iszero\n      mul\n      swap1\n      mload(0x40)\n      0x00\n      mload(0x40)\n      dup1\n      dup4\n      sub\n      dup2\n      dup6\n      dup9\n      dup9\n      call\n      swap4\n      pop\n      pop\n      pop\n      pop\n      iszero\n      dup1\n      iszero\n      tag_61\n      jumpi\n      returndatasize\n      0x00\n      dup1\n      returndatacopy\n      revert(0x00, returndatasize)\n    tag_61:\n      pop\n        /* \"cas/artifacts/Grant.sol\":1791:1801  msg.sender */\n      caller\n        /* \"cas/artifacts/Grant.sol\":1778:1816  GrantClaimed(msg.sender, grant.amount) */\n      0xffffffffffffffffffffffffffffffffffffffff\n      and\n      0x2aa1d398fac8a867531b04feb1273747a6f1ec3d4700f40a2901dce75363edc0\n        /* \"cas/artifacts/Grant.sol\":1803:1808  grant */\n      dup3\n        /* \"cas/artifacts/Grant.sol\":1803:1815  grant.amount */\n      0x00\n      add\n      sload\n        /* \"cas/artifacts/Grant.sol\":1778:1816  GrantClaimed(msg.sender, grant.amount) */\n      mload(0x40)\n      tag_62\n      swap2\n      swap1\n      tag_63\n      jump\t// in\n    tag_62:\n      mload(0x40)\n      dup1\n      swap2\n      sub\n      swap1\n      log2\n        /* \"cas/artifacts/Grant.sol\":1546:1823  {... */\n      pop\n        /* \"cas/artifacts/Grant.sol\":845:846  _ */\n      pop\n        /* \"cas/artifacts/Grant.sol\":1459:1823  function claimGrant() external onlyBeneficiary(msg.sender) grantNotClaimed(msg.sender) {... */\n      pop\n      jump\t// out\n        /* \"cas/artifacts/Grant.sol\":78:98  address public owner */\n    tag_23:\n      0x00\n      dup1\n      sload\n      swap1\n      0x0100\n      exp\n      swap1\n      div\n      0xffffffffffffffffffffffffffffffffffffffff\n      and\n      dup2\n      jump\t// out\n        /* \"cas/artifacts/Grant.sol\":104:143  mapping(address => Grant) public grants */\n    tag_29:\n      mstore(0x20, 0x01)\n      dup1\n      0x00\n      mstore\n      keccak256(0x00, 0x40)\n      0x00\n      swap2\n      pop\n      swap1\n      pop\n      dup1\n      0x00\n      add\n      sload\n      swap1\n      dup1\n      0x01\n      add\n      sload\n      swap1\n      dup1\n      0x02\n      add\n      0x00\n      swap1\n      sload\n      swap1\n      0x0100\n      exp\n      swap1\n      div\n      0xff\n      and\n      swap1\n      pop\n      dup4\n      jump\t// out\n        /* \"#utility.yul\":88:205   */\n    tag_65:\n        /* \"#utility.yul\":197:198   */\n      0x00\n        /* \"#utility.yul\":194:195   */\n      dup1\n        /* \"#utility.yul\":187:199   */\n      revert\n        /* \"#utility.yul\":334:460   */\n    tag_67:\n        /* \"#utility.yul\":371:378   */\n      0x00\n        /* \"#utility.yul\":411:453   */\n      0xffffffffffffffffffffffffffffffffffffffff\n        /* \"#utility.yul\":404:409   */\n      dup3\n        /* \"#utility.yul\":400:454   */\n      and\n        /* \"#utility.yul\":389:454   */\n      swap1\n      pop\n        /* \"#utility.yul\":334:460   */\n      swap2\n      swap1\n      pop\n      jump\t// out\n        /* \"#utility.yul\":466:562   */\n    tag_68:\n        /* \"#utility.yul\":503:510   */\n      0x00\n        /* \"#utility.yul\":532:556   */\n      tag_99\n        /* \"#utility.yul\":550:555   */\n      dup3\n        /* \"#utility.yul\":532:556   */\n      tag_67\n      jump\t// in\n    tag_99:\n        /* \"#utility.yul\":521:556   */\n      swap1\n      pop\n        /* \"#utility.yul\":466:562   */\n      swap2\n      swap1\n      pop\n      jump\t// out\n        /* \"#utility.yul\":568:690   */\n    tag_69:\n        /* \"#utility.yul\":641:665   */\n      tag_101\n        /* \"#utility.yul\":659:664   */\n      dup2\n        /* \"#utility.yul\":641:665   */\n      tag_68\n      jump\t// in\n    tag_101:\n        /* \"#utility.yul\":634:639   */\n      dup2\n        /* \"#utility.yul\":631:666   */\n      eq\n        /* \"#utility.yul\":621:684   */\n      tag_102\n      jumpi\n        /* \"#utility.yul\":680:681   */\n      0x00\n        /* \"#utility.yul\":677:678   */\n      dup1\n        /* \"#utility.yul\":670:682   */\n      revert\n        /* \"#utility.yul\":621:684   */\n    tag_102:\n        /* \"#utility.yul\":568:690   */\n      pop\n      jump\t// out\n        /* \"#utility.yul\":696:835   */\n    tag_70:\n        /* \"#utility.yul\":742:747   */\n      0x00\n        /* \"#utility.yul\":780:786   */\n      dup2\n        /* \"#utility.yul\":767:787   */\n      calldataload\n        /* \"#utility.yul\":758:787   */\n      swap1\n      pop\n        /* \"#utility.yul\":796:829   */\n      tag_104\n        /* \"#utility.yul\":823:828   */\n      dup2\n        /* \"#utility.yul\":796:829   */\n      tag_69\n      jump\t// in\n    tag_104:\n        /* \"#utility.yul\":696:835   */\n      swap3\n      swap2\n      pop\n      pop\n      jump\t// out\n        /* \"#utility.yul\":841:1170   */\n    tag_10:\n        /* \"#utility.yul\":900:906   */\n      0x00\n        /* \"#utility.yul\":949:951   */\n      0x20\n        /* \"#utility.yul\":937:946   */\n      dup3\n        /* \"#utility.yul\":928:935   */\n      dup5\n        /* \"#utility.yul\":924:947   */\n      sub\n        /* \"#utility.yul\":920:952   */\n      slt\n        /* \"#utility.yul\":917:1036   */\n      iszero\n      tag_106\n      jumpi\n        /* \"#utility.yul\":955:1034   */\n      tag_107\n      tag_65\n      jump\t// in\n    tag_107:\n        /* \"#utility.yul\":917:1036   */\n    tag_106:\n        /* \"#utility.yul\":1075:1076   */\n      0x00\n        /* \"#utility.yul\":1100:1153   */\n      tag_108\n        /* \"#utility.yul\":1145:1152   */\n      dup5\n        /* \"#utility.yul\":1136:1142   */\n      dup3\n        /* \"#utility.yul\":1125:1134   */\n      dup6\n        /* \"#utility.yul\":1121:1143   */\n      add\n        /* \"#utility.yul\":1100:1153   */\n      tag_70\n      jump\t// in\n    tag_108:\n        /* \"#utility.yul\":1090:1153   */\n      swap2\n      pop\n        /* \"#utility.yul\":1046:1163   */\n      pop\n        /* \"#utility.yul\":841:1170   */\n      swap3\n      swap2\n      pop\n      pop\n      jump\t// out\n        /* \"#utility.yul\":1176:1253   */\n    tag_71:\n        /* \"#utility.yul\":1213:1220   */\n      0x00\n        /* \"#utility.yul\":1242:1247   */\n      dup2\n        /* \"#utility.yul\":1231:1247   */\n      swap1\n      pop\n        /* \"#utility.yul\":1176:1253   */\n      swap2\n      swap1\n      pop\n      jump\t// out\n        /* \"#utility.yul\":1259:1377   */\n    tag_72:\n        /* \"#utility.yul\":1346:1370   */\n      tag_111\n        /* \"#utility.yul\":1364:1369   */\n      dup2\n        /* \"#utility.yul\":1346:1370   */\n      tag_71\n      jump\t// in\n    tag_111:\n        /* \"#utility.yul\":1341:1344   */\n      dup3\n        /* \"#utility.yul\":1334:1371   */\n      mstore\n        /* \"#utility.yul\":1259:1377   */\n      pop\n      pop\n      jump\t// out\n        /* \"#utility.yul\":1383:1473   */\n    tag_73:\n        /* \"#utility.yul\":1417:1424   */\n      0x00\n        /* \"#utility.yul\":1460:1465   */\n      dup2\n        /* \"#utility.yul\":1453:1466   */\n      iszero\n        /* \"#utility.yul\":1446:1467   */\n      iszero\n        /* \"#utility.yul\":1435:1467   */\n      swap1\n      pop\n        /* \"#utility.yul\":1383:1473   */\n      swap2\n      swap1\n      pop\n      jump\t// out\n        /* \"#utility.yul\":1479:1588   */\n    tag_74:\n        /* \"#utility.yul\":1560:1581   */\n      tag_114\n        /* \"#utility.yul\":1575:1580   */\n      dup2\n        /* \"#utility.yul\":1560:1581   */\n      tag_73\n      jump\t// in\n    tag_114:\n        /* \"#utility.yul\":1555:1558   */\n      dup3\n        /* \"#utility.yul\":1548:1582   */\n      mstore\n        /* \"#utility.yul\":1479:1588   */\n      pop\n      pop\n      jump\t// out\n        /* \"#utility.yul\":1594:2024   */\n    tag_13:\n        /* \"#utility.yul\":1737:1741   */\n      0x00\n        /* \"#utility.yul\":1775:1777   */\n      0x60\n        /* \"#utility.yul\":1764:1773   */\n      dup3\n        /* \"#utility.yul\":1760:1778   */\n      add\n        /* \"#utility.yul\":1752:1778   */\n      swap1\n      pop\n        /* \"#utility.yul\":1788:1859   */\n      tag_116\n        /* \"#utility.yul\":1856:1857   */\n      0x00\n        /* \"#utility.yul\":1845:1854   */\n      dup4\n        /* \"#utility.yul\":1841:1858   */\n      add\n        /* \"#utility.yul\":1832:1838   */\n      dup7\n        /* \"#utility.yul\":1788:1859   */\n      tag_72\n      jump\t// in\n    tag_116:\n        /* \"#utility.yul\":1869:1941   */\n      tag_117\n        /* \"#utility.yul\":1937:1939   */\n      0x20\n        /* \"#utility.yul\":1926:1935   */\n      dup4\n        /* \"#utility.yul\":1922:1940   */\n      add\n        /* \"#utility.yul\":1913:1919   */\n      dup6\n        /* \"#utility.yul\":1869:1941   */\n      tag_72\n      jump\t// in\n    tag_117:\n        /* \"#utility.yul\":1951:2017   */\n      tag_118\n        /* \"#utility.yul\":2013:2015   */\n      0x40\n        /* \"#utility.yul\":2002:2011   */\n      dup4\n        /* \"#utility.yul\":1998:2016   */\n      add\n        /* \"#utility.yul\":1989:1995   */\n      dup5\n        /* \"#utility.yul\":1951:2017   */\n      tag_74\n      jump\t// in\n    tag_118:\n        /* \"#utility.yul\":1594:2024   */\n      swap5\n      swap4\n      pop\n      pop\n      pop\n      pop\n      jump\t// out\n        /* \"#utility.yul\":2030:2152   */\n    tag_75:\n        /* \"#utility.yul\":2103:2127   */\n      tag_120\n        /* \"#utility.yul\":2121:2126   */\n      dup2\n        /* \"#utility.yul\":2103:2127   */\n      tag_71\n      jump\t// in\n    tag_120:\n        /* \"#utility.yul\":2096:2101   */\n      dup2\n        /* \"#utility.yul\":2093:2128   */\n      eq\n        /* \"#utility.yul\":2083:2146   */\n      tag_121\n      jumpi\n        /* \"#utility.yul\":2142:2143   */\n      0x00\n        /* \"#utility.yul\":2139:2140   */\n      dup1\n        /* \"#utility.yul\":2132:2144   */\n      revert\n        /* \"#utility.yul\":2083:2146   */\n    tag_121:\n        /* \"#utility.yul\":2030:2152   */\n      pop\n      jump\t// out\n        /* \"#utility.yul\":2158:2297   */\n    tag_76:\n        /* \"#utility.yul\":2204:2209   */\n      0x00\n        /* \"#utility.yul\":2242:2248   */\n      dup2\n        /* \"#utility.yul\":2229:2249   */\n      calldataload\n        /* \"#utility.yul\":2220:2249   */\n      swap1\n      pop\n        /* \"#utility.yul\":2258:2291   */\n      tag_123\n        /* \"#utility.yul\":2285:2290   */\n      dup2\n        /* \"#utility.yul\":2258:2291   */\n      tag_75\n      jump\t// in\n    tag_123:\n        /* \"#utility.yul\":2158:2297   */\n      swap3\n      swap2\n      pop\n      pop\n      jump\t// out\n        /* \"#utility.yul\":2303:2777   */\n    tag_16:\n        /* \"#utility.yul\":2371:2377   */\n      0x00\n        /* \"#utility.yul\":2379:2385   */\n      dup1\n        /* \"#utility.yul\":2428:2430   */\n      0x40\n        /* \"#utility.yul\":2416:2425   */\n      dup4\n        /* \"#utility.yul\":2407:2414   */\n      dup6\n        /* \"#utility.yul\":2403:2426   */\n      sub\n        /* \"#utility.yul\":2399:2431   */\n      slt\n        /* \"#utility.yul\":2396:2515   */\n      iszero\n      tag_125\n      jumpi\n        /* \"#utility.yul\":2434:2513   */\n      tag_126\n      tag_65\n      jump\t// in\n    tag_126:\n        /* \"#utility.yul\":2396:2515   */\n    tag_125:\n        /* \"#utility.yul\":2554:2555   */\n      0x00\n        /* \"#utility.yul\":2579:2632   */\n      tag_127\n        /* \"#utility.yul\":2624:2631   */\n      dup6\n        /* \"#utility.yul\":2615:2621   */\n      dup3\n        /* \"#utility.yul\":2604:2613   */\n      dup7\n        /* \"#utility.yul\":2600:2622   */\n      add\n        /* \"#utility.yul\":2579:2632   */\n      tag_70\n      jump\t// in\n    tag_127:\n        /* \"#utility.yul\":2569:2632   */\n      swap3\n      pop\n        /* \"#utility.yul\":2525:2642   */\n      pop\n        /* \"#utility.yul\":2681:2683   */\n      0x20\n        /* \"#utility.yul\":2707:2760   */\n      tag_128\n        /* \"#utility.yul\":2752:2759   */\n      dup6\n        /* \"#utility.yul\":2743:2749   */\n      dup3\n        /* \"#utility.yul\":2732:2741   */\n      dup7\n        /* \"#utility.yul\":2728:2750   */\n      add\n        /* \"#utility.yul\":2707:2760   */\n      tag_76\n      jump\t// in\n    tag_128:\n        /* \"#utility.yul\":2697:2760   */\n      swap2\n      pop\n        /* \"#utility.yul\":2652:2770   */\n      pop\n        /* \"#utility.yul\":2303:2777   */\n      swap3\n      pop\n      swap3\n      swap1\n      pop\n      jump\t// out\n        /* \"#utility.yul\":2783:2901   */\n    tag_77:\n        /* \"#utility.yul\":2870:2894   */\n      tag_130\n        /* \"#utility.yul\":2888:2893   */\n      dup2\n        /* \"#utility.yul\":2870:2894   */\n      tag_68\n      jump\t// in\n    tag_130:\n        /* \"#utility.yul\":2865:2868   */\n      dup3\n        /* \"#utility.yul\":2858:2895   */\n      mstore\n        /* \"#utility.yul\":2783:2901   */\n      pop\n      pop\n      jump\t// out\n        /* \"#utility.yul\":2907:3129   */\n    tag_25:\n        /* \"#utility.yul\":3000:3004   */\n      0x00\n        /* \"#utility.yul\":3038:3040   */\n      0x20\n        /* \"#utility.yul\":3027:3036   */\n      dup3\n        /* \"#utility.yul\":3023:3041   */\n      add\n        /* \"#utility.yul\":3015:3041   */\n      swap1\n      pop\n        /* \"#utility.yul\":3051:3122   */\n      tag_132\n        /* \"#utility.yul\":3119:3120   */\n      0x00\n        /* \"#utility.yul\":3108:3117   */\n      dup4\n        /* \"#utility.yul\":3104:3121   */\n      add\n        /* \"#utility.yul\":3095:3101   */\n      dup5\n        /* \"#utility.yul\":3051:3122   */\n      tag_77\n      jump\t// in\n    tag_132:\n        /* \"#utility.yul\":2907:3129   */\n      swap3\n      swap2\n      pop\n      pop\n      jump\t// out\n        /* \"#utility.yul\":3135:3304   */\n    tag_78:\n        /* \"#utility.yul\":3219:3230   */\n      0x00\n        /* \"#utility.yul\":3253:3259   */\n      dup3\n        /* \"#utility.yul\":3248:3251   */\n      dup3\n        /* \"#utility.yul\":3241:3260   */\n      mstore\n        /* \"#utility.yul\":3293:3297   */\n      0x20\n        /* \"#utility.yul\":3288:3291   */\n      dup3\n        /* \"#utility.yul\":3284:3298   */\n      add\n        /* \"#utility.yul\":3269:3298   */\n      swap1\n      pop\n        /* \"#utility.yul\":3135:3304   */\n      swap3\n      swap2\n      pop\n      pop\n      jump\t// out\n        /* \"#utility.yul\":3310:3535   */\n    tag_79:\n        /* \"#utility.yul\":3450:3484   */\n      0x4f6e6c7920746865206f776e65722063616e20706572666f726d207468697320\n        /* \"#utility.yul\":3446:3447   */\n      0x00\n        /* \"#utility.yul\":3438:3444   */\n      dup3\n        /* \"#utility.yul\":3434:3448   */\n      add\n        /* \"#utility.yul\":3427:3485   */\n      mstore\n        /* \"#utility.yul\":3519:3527   */\n      0x616374696f6e0000000000000000000000000000000000000000000000000000\n        /* \"#utility.yul\":3514:3516   */\n      0x20\n        /* \"#utility.yul\":3506:3512   */\n      dup3\n        /* \"#utility.yul\":3502:3517   */\n      add\n        /* \"#utility.yul\":3495:3528   */\n      mstore\n        /* \"#utility.yul\":3310:3535   */\n      pop\n      jump\t// out\n        /* \"#utility.yul\":3541:3907   */\n    tag_80:\n        /* \"#utility.yul\":3683:3686   */\n      0x00\n        /* \"#utility.yul\":3704:3771   */\n      tag_136\n        /* \"#utility.yul\":3768:3770   */\n      0x26\n        /* \"#utility.yul\":3763:3766   */\n      dup4\n        /* \"#utility.yul\":3704:3771   */\n      tag_78\n      jump\t// in\n    tag_136:\n        /* \"#utility.yul\":3697:3771   */\n      swap2\n      pop\n        /* \"#utility.yul\":3780:3873   */\n      tag_137\n        /* \"#utility.yul\":3869:3872   */\n      dup3\n        /* \"#utility.yul\":3780:3873   */\n      tag_79\n      jump\t// in\n    tag_137:\n        /* \"#utility.yul\":3898:3900   */\n      0x40\n        /* \"#utility.yul\":3893:3896   */\n      dup3\n        /* \"#utility.yul\":3889:3901   */\n      add\n        /* \"#utility.yul\":3882:3901   */\n      swap1\n      pop\n        /* \"#utility.yul\":3541:3907   */\n      swap2\n      swap1\n      pop\n      jump\t// out\n        /* \"#utility.yul\":3913:4332   */\n    tag_35:\n        /* \"#utility.yul\":4079:4083   */\n      0x00\n        /* \"#utility.yul\":4117:4119   */\n      0x20\n        /* \"#utility.yul\":4106:4115   */\n      dup3\n        /* \"#utility.yul\":4102:4120   */\n      add\n        /* \"#utility.yul\":4094:4120   */\n      swap1\n      pop\n        /* \"#utility.yul\":4166:4175   */\n      dup2\n        /* \"#utility.yul\":4160:4164   */\n      dup2\n        /* \"#utility.yul\":4156:4176   */\n      sub\n        /* \"#utility.yul\":4152:4153   */\n      0x00\n        /* \"#utility.yul\":4141:4150   */\n      dup4\n        /* \"#utility.yul\":4137:4154   */\n      add\n        /* \"#utility.yul\":4130:4177   */\n      mstore\n        /* \"#utility.yul\":4194:4325   */\n      tag_139\n        /* \"#utility.yul\":4320:4324   */\n      dup2\n        /* \"#utility.yul\":4194:4325   */\n      tag_80\n      jump\t// in\n    tag_139:\n        /* \"#utility.yul\":4186:4325   */\n      swap1\n      pop\n        /* \"#utility.yul\":3913:4332   */\n      swap2\n      swap1\n      pop\n      jump\t// out\n        /* \"#utility.yul\":4338:4515   */\n    tag_81:\n        /* \"#utility.yul\":4478:4507   */\n      0x496e76616c69642062656e656669636961727920616464726573730000000000\n        /* \"#utility.yul\":4474:4475   */\n      0x00\n        /* \"#utility.yul\":4466:4472   */\n      dup3\n        /* \"#utility.yul\":4462:4476   */\n      add\n        /* \"#utility.yul\":4455:4508   */\n      mstore\n        /* \"#utility.yul\":4338:4515   */\n      pop\n      jump\t// out\n        /* \"#utility.yul\":4521:4887   */\n    tag_82:\n        /* \"#utility.yul\":4663:4666   */\n      0x00\n        /* \"#utility.yul\":4684:4751   */\n      tag_142\n        /* \"#utility.yul\":4748:4750   */\n      0x1b\n        /* \"#utility.yul\":4743:4746   */\n      dup4\n        /* \"#utility.yul\":4684:4751   */\n      tag_78\n      jump\t// in\n    tag_142:\n        /* \"#utility.yul\":4677:4751   */\n      swap2\n      pop\n        /* \"#utility.yul\":4760:4853   */\n      tag_143\n        /* \"#utility.yul\":4849:4852   */\n      dup3\n        /* \"#utility.yul\":4760:4853   */\n      tag_81\n      jump\t// in\n    tag_143:\n        /* \"#utility.yul\":4878:4880   */\n      0x20\n        /* \"#utility.yul\":4873:4876   */\n      dup3\n        /* \"#utility.yul\":4869:4881   */\n      add\n        /* \"#utility.yul\":4862:4881   */\n      swap1\n      pop\n        /* \"#utility.yul\":4521:4887   */\n      swap2\n      swap1\n      pop\n      jump\t// out\n        /* \"#utility.yul\":4893:5312   */\n    tag_39:\n        /* \"#utility.yul\":5059:5063   */\n      0x00\n        /* \"#utility.yul\":5097:5099   */\n      0x20\n        /* \"#utility.yul\":5086:5095   */\n      dup3\n        /* \"#utility.yul\":5082:5100   */\n      add\n        /* \"#utility.yul\":5074:5100   */\n      swap1\n      pop\n        /* \"#utility.yul\":5146:5155   */\n      dup2\n        /* \"#utility.yul\":5140:5144   */\n      dup2\n        /* \"#utility.yul\":5136:5156   */\n      sub\n        /* \"#utility.yul\":5132:5133   */\n      0x00\n        /* \"#utility.yul\":5121:5130   */\n      dup4\n        /* \"#utility.yul\":5117:5134   */\n      add\n        /* \"#utility.yul\":5110:5157   */\n      mstore\n        /* \"#utility.yul\":5174:5305   */\n      tag_145\n        /* \"#utility.yul\":5300:5304   */\n      dup2\n        /* \"#utility.yul\":5174:5305   */\n      tag_82\n      jump\t// in\n    tag_145:\n        /* \"#utility.yul\":5166:5305   */\n      swap1\n      pop\n        /* \"#utility.yul\":4893:5312   */\n      swap2\n      swap1\n      pop\n      jump\t// out\n        /* \"#utility.yul\":5318:5538   */\n    tag_83:\n        /* \"#utility.yul\":5458:5492   */\n      0x556e6c6f636b2074696d65206d75737420626520696e20746865206675747572\n        /* \"#utility.yul\":5454:5455   */\n      0x00\n        /* \"#utility.yul\":5446:5452   */\n      dup3\n        /* \"#utility.yul\":5442:5456   */\n      add\n        /* \"#utility.yul\":5435:5493   */\n      mstore\n        /* \"#utility.yul\":5527:5530   */\n      0x6500000000000000000000000000000000000000000000000000000000000000\n        /* \"#utility.yul\":5522:5524   */\n      0x20\n        /* \"#utility.yul\":5514:5520   */\n      dup3\n        /* \"#utility.yul\":5510:5525   */\n      add\n        /* \"#utility.yul\":5503:5531   */\n      mstore\n        /* \"#utility.yul\":5318:5538   */\n      pop\n      jump\t// out\n        /* \"#utility.yul\":5544:5910   */\n    tag_84:\n        /* \"#utility.yul\":5686:5689   */\n      0x00\n        /* \"#utility.yul\":5707:5774   */\n      tag_148\n        /* \"#utility.yul\":5771:5773   */\n      0x21\n        /* \"#utility.yul\":5766:5769   */\n      dup4\n        /* \"#utility.yul\":5707:5774   */\n      tag_78\n      jump\t// in\n    tag_148:\n        /* \"#utility.yul\":5700:5774   */\n      swap2\n      pop\n        /* \"#utility.yul\":5783:5876   */\n      tag_149\n        /* \"#utility.yul\":5872:5875   */\n      dup3\n        /* \"#utility.yul\":5783:5876   */\n      tag_83\n      jump\t// in\n    tag_149:\n        /* \"#utility.yul\":5901:5903   */\n      0x40\n        /* \"#utility.yul\":5896:5899   */\n      dup3\n        /* \"#utility.yul\":5892:5904   */\n      add\n        /* \"#utility.yul\":5885:5904   */\n      swap1\n      pop\n        /* \"#utility.yul\":5544:5910   */\n      swap2\n      swap1\n      pop\n      jump\t// out\n        /* \"#utility.yul\":5916:6335   */\n    tag_42:\n        /* \"#utility.yul\":6082:6086   */\n      0x00\n        /* \"#utility.yul\":6120:6122   */\n      0x20\n        /* \"#utility.yul\":6109:6118   */\n      dup3\n        /* \"#utility.yul\":6105:6123   */\n      add\n        /* \"#utility.yul\":6097:6123   */\n      swap1\n      pop\n        /* \"#utility.yul\":6169:6178   */\n      dup2\n        /* \"#utility.yul\":6163:6167   */\n      dup2\n        /* \"#utility.yul\":6159:6179   */\n      sub\n        /* \"#utility.yul\":6155:6156   */\n      0x00\n        /* \"#utility.yul\":6144:6153   */\n      dup4\n        /* \"#utility.yul\":6140:6157   */\n      add\n        /* \"#utility.yul\":6133:6180   */\n      mstore\n        /* \"#utility.yul\":6197:6328   */\n      tag_151\n        /* \"#utility.yul\":6323:6327   */\n      dup2\n        /* \"#utility.yul\":6197:6328   */\n      tag_84\n      jump\t// in\n    tag_151:\n        /* \"#utility.yul\":6189:6328   */\n      swap1\n      pop\n        /* \"#utility.yul\":5916:6335   */\n      swap2\n      swap1\n      pop\n      jump\t// out\n        /* \"#utility.yul\":6341:6569   */\n    tag_85:\n        /* \"#utility.yul\":6481:6515   */\n      0x4772616e7420666f7220746869732062656e656669636961727920616c726561\n        /* \"#utility.yul\":6477:6478   */\n      0x00\n        /* \"#utility.yul\":6469:6475   */\n      dup3\n        /* \"#utility.yul\":6465:6479   */\n      add\n        /* \"#utility.yul\":6458:6516   */\n      mstore\n        /* \"#utility.yul\":6550:6561   */\n      0x6479206578697374730000000000000000000000000000000000000000000000\n        /* \"#utility.yul\":6545:6547   */\n      0x20\n        /* \"#utility.yul\":6537:6543   */\n      dup3\n        /* \"#utility.yul\":6533:6548   */\n      add\n        /* \"#utility.yul\":6526:6562   */\n      mstore\n        /* \"#utility.yul\":6341:6569   */\n      pop\n      jump\t// out\n        /* \"#utility.yul\":6575:6941   */\n    tag_86:\n        /* \"#utility.yul\":6717:6720   */\n      0x00\n        /* \"#utility.yul\":6738:6805   */\n      tag_154\n        /* \"#utility.yul\":6802:6804   */\n      0x29\n        /* \"#utility.yul\":6797:6800   */\n      dup4\n        /* \"#utility.yul\":6738:6805   */\n      tag_78\n      jump\t// in\n    tag_154:\n        /* \"#utility.yul\":6731:6805   */\n      swap2\n      pop\n        /* \"#utility.yul\":6814:6907   */\n      tag_155\n        /* \"#utility.yul\":6903:6906   */\n      dup3\n        /* \"#utility.yul\":6814:6907   */\n      tag_85\n      jump\t// in\n    tag_155:\n        /* \"#utility.yul\":6932:6934   */\n      0x40\n        /* \"#utility.yul\":6927:6930   */\n      dup3\n        /* \"#utility.yul\":6923:6935   */\n      add\n        /* \"#utility.yul\":6916:6935   */\n      swap1\n      pop\n        /* \"#utility.yul\":6575:6941   */\n      swap2\n      swap1\n      pop\n      jump\t// out\n        /* \"#utility.yul\":6947:7366   */\n    tag_45:\n        /* \"#utility.yul\":7113:7117   */\n      0x00\n        /* \"#utility.yul\":7151:7153   */\n      0x20\n        /* \"#utility.yul\":7140:7149   */\n      dup3\n        /* \"#utility.yul\":7136:7154   */\n      add\n        /* \"#utility.yul\":7128:7154   */\n      swap1\n      pop\n        /* \"#utility.yul\":7200:7209   */\n      dup2\n        /* \"#utility.yul\":7194:7198   */\n      dup2\n        /* \"#utility.yul\":7190:7210   */\n      sub\n        /* \"#utility.yul\":7186:7187   */\n      0x00\n        /* \"#utility.yul\":7175:7184   */\n      dup4\n        /* \"#utility.yul\":7171:7188   */\n      add\n        /* \"#utility.yul\":7164:7211   */\n      mstore\n        /* \"#utility.yul\":7228:7359   */\n      tag_157\n        /* \"#utility.yul\":7354:7358   */\n      dup2\n        /* \"#utility.yul\":7228:7359   */\n      tag_86\n      jump\t// in\n    tag_157:\n        /* \"#utility.yul\":7220:7359   */\n      swap1\n      pop\n        /* \"#utility.yul\":6947:7366   */\n      swap2\n      swap1\n      pop\n      jump\t// out\n        /* \"#utility.yul\":7372:7704   */\n    tag_47:\n        /* \"#utility.yul\":7493:7497   */\n      0x00\n        /* \"#utility.yul\":7531:7533   */\n      0x40\n        /* \"#utility.yul\":7520:7529   */\n      dup3\n        /* \"#utility.yul\":7516:7534   */\n      add\n        /* \"#utility.yul\":7508:7534   */\n      swap1\n      pop\n        /* \"#utility.yul\":7544:7615   */\n      tag_159\n        /* \"#utility.yul\":7612:7613   */\n      0x00\n        /* \"#utility.yul\":7601:7610   */\n      dup4\n        /* \"#utility.yul\":7597:7614   */\n      add\n        /* \"#utility.yul\":7588:7594   */\n      dup6\n        /* \"#utility.yul\":7544:7615   */\n      tag_72\n      jump\t// in\n    tag_159:\n        /* \"#utility.yul\":7625:7697   */\n      tag_160\n        /* \"#utility.yul\":7693:7695   */\n      0x20\n        /* \"#utility.yul\":7682:7691   */\n      dup4\n        /* \"#utility.yul\":7678:7696   */\n      add\n        /* \"#utility.yul\":7669:7675   */\n      dup5\n        /* \"#utility.yul\":7625:7697   */\n      tag_72\n      jump\t// in\n    tag_160:\n        /* \"#utility.yul\":7372:7704   */\n      swap4\n      swap3\n      pop\n      pop\n      pop\n      jump\t// out\n        /* \"#utility.yul\":7710:7941   */\n    tag_87:\n        /* \"#utility.yul\":7850:7884   */\n      0x4f6e6c79207468652062656e65666963696172792063616e20706572666f726d\n        /* \"#utility.yul\":7846:7847   */\n      0x00\n        /* \"#utility.yul\":7838:7844   */\n      dup3\n        /* \"#utility.yul\":7834:7848   */\n      add\n        /* \"#utility.yul\":7827:7885   */\n      mstore\n        /* \"#utility.yul\":7919:7933   */\n      0x207468697320616374696f6e0000000000000000000000000000000000000000\n        /* \"#utility.yul\":7914:7916   */\n      0x20\n        /* \"#utility.yul\":7906:7912   */\n      dup3\n        /* \"#utility.yul\":7902:7917   */\n      add\n        /* \"#utility.yul\":7895:7934   */\n      mstore\n        /* \"#utility.yul\":7710:7941   */\n      pop\n      jump\t// out\n        /* \"#utility.yul\":7947:8313   */\n    tag_88:\n        /* \"#utility.yul\":8089:8092   */\n      0x00\n        /* \"#utility.yul\":8110:8177   */\n      tag_163\n        /* \"#utility.yul\":8174:8176   */\n      0x2c\n        /* \"#utility.yul\":8169:8172   */\n      dup4\n        /* \"#utility.yul\":8110:8177   */\n      tag_78\n      jump\t// in\n    tag_163:\n        /* \"#utility.yul\":8103:8177   */\n      swap2\n      pop\n        /* \"#utility.yul\":8186:8279   */\n      tag_164\n        /* \"#utility.yul\":8275:8278   */\n      dup3\n        /* \"#utility.yul\":8186:8279   */\n      tag_87\n      jump\t// in\n    tag_164:\n        /* \"#utility.yul\":8304:8306   */\n      0x40\n        /* \"#utility.yul\":8299:8302   */\n      dup3\n        /* \"#utility.yul\":8295:8307   */\n      add\n        /* \"#utility.yul\":8288:8307   */\n      swap1\n      pop\n        /* \"#utility.yul\":7947:8313   */\n      swap2\n      swap1\n      pop\n      jump\t// out\n        /* \"#utility.yul\":8319:8738   */\n    tag_51:\n        /* \"#utility.yul\":8485:8489   */\n      0x00\n        /* \"#utility.yul\":8523:8525   */\n      0x20\n        /* \"#utility.yul\":8512:8521   */\n      dup3\n        /* \"#utility.yul\":8508:8526   */\n      add\n        /* \"#utility.yul\":8500:8526   */\n      swap1\n      pop\n        /* \"#utility.yul\":8572:8581   */\n      dup2\n        /* \"#utility.yul\":8566:8570   */\n      dup2\n        /* \"#utility.yul\":8562:8582   */\n      sub\n        /* \"#utility.yul\":8558:8559   */\n      0x00\n        /* \"#utility.yul\":8547:8556   */\n      dup4\n        /* \"#utility.yul\":8543:8560   */\n      add\n        /* \"#utility.yul\":8536:8583   */\n      mstore\n        /* \"#utility.yul\":8600:8731   */\n      tag_166\n        /* \"#utility.yul\":8726:8730   */\n      dup2\n        /* \"#utility.yul\":8600:8731   */\n      tag_88\n      jump\t// in\n    tag_166:\n        /* \"#utility.yul\":8592:8731   */\n      swap1\n      pop\n        /* \"#utility.yul\":8319:8738   */\n      swap2\n      swap1\n      pop\n      jump\t// out\n        /* \"#utility.yul\":8744:8924   */\n    tag_89:\n        /* \"#utility.yul\":8884:8916   */\n      0x4772616e742068617320616c7265616479206265656e20636c61696d65640000\n        /* \"#utility.yul\":8880:8881   */\n      0x00\n        /* \"#utility.yul\":8872:8878   */\n      dup3\n        /* \"#utility.yul\":8868:8882   */\n      add\n        /* \"#utility.yul\":8861:8917   */\n      mstore\n        /* \"#utility.yul\":8744:8924   */\n      pop\n      jump\t// out\n        /* \"#utility.yul\":8930:9296   */\n    tag_90:\n        /* \"#utility.yul\":9072:9075   */\n      0x00\n        /* \"#utility.yul\":9093:9160   */\n      tag_169\n        /* \"#utility.yul\":9157:9159   */\n      0x1e\n        /* \"#utility.yul\":9152:9155   */\n      dup4\n        /* \"#utility.yul\":9093:9160   */\n      tag_78\n      jump\t// in\n    tag_169:\n        /* \"#utility.yul\":9086:9160   */\n      swap2\n      pop\n        /* \"#utility.yul\":9169:9262   */\n      tag_170\n        /* \"#utility.yul\":9258:9261   */\n      dup3\n        /* \"#utility.yul\":9169:9262   */\n      tag_89\n      jump\t// in\n    tag_170:\n        /* \"#utility.yul\":9287:9289   */\n      0x20\n        /* \"#utility.yul\":9282:9285   */\n      dup3\n        /* \"#utility.yul\":9278:9290   */\n      add\n        /* \"#utility.yul\":9271:9290   */\n      swap1\n      pop\n        /* \"#utility.yul\":8930:9296   */\n      swap2\n      swap1\n      pop\n      jump\t// out\n        /* \"#utility.yul\":9302:9721   */\n    tag_55:\n        /* \"#utility.yul\":9468:9472   */\n      0x00\n        /* \"#utility.yul\":9506:9508   */\n      0x20\n        /* \"#utility.yul\":9495:9504   */\n      dup3\n        /* \"#utility.yul\":9491:9509   */\n      add\n        /* \"#utility.yul\":9483:9509   */\n      swap1\n      pop\n        /* \"#utility.yul\":9555:9564   */\n      dup2\n        /* \"#utility.yul\":9549:9553   */\n      dup2\n        /* \"#utility.yul\":9545:9565   */\n      sub\n        /* \"#utility.yul\":9541:9542   */\n      0x00\n        /* \"#utility.yul\":9530:9539   */\n      dup4\n        /* \"#utility.yul\":9526:9543   */\n      add\n        /* \"#utility.yul\":9519:9566   */\n      mstore\n        /* \"#utility.yul\":9583:9714   */\n      tag_172\n        /* \"#utility.yul\":9709:9713   */\n      dup2\n        /* \"#utility.yul\":9583:9714   */\n      tag_90\n      jump\t// in\n    tag_172:\n        /* \"#utility.yul\":9575:9714   */\n      swap1\n      pop\n        /* \"#utility.yul\":9302:9721   */\n      swap2\n      swap1\n      pop\n      jump\t// out\n        /* \"#utility.yul\":9727:9902   */\n    tag_91:\n        /* \"#utility.yul\":9867:9894   */\n      0x4772616e74206973206e6f742079657420756e6c6f636b656400000000000000\n        /* \"#utility.yul\":9863:9864   */\n      0x00\n        /* \"#utility.yul\":9855:9861   */\n      dup3\n        /* \"#utility.yul\":9851:9865   */\n      add\n        /* \"#utility.yul\":9844:9895   */\n      mstore\n        /* \"#utility.yul\":9727:9902   */\n      pop\n      jump\t// out\n        /* \"#utility.yul\":9908:10274   */\n    tag_92:\n        /* \"#utility.yul\":10050:10053   */\n      0x00\n        /* \"#utility.yul\":10071:10138   */\n      tag_175\n        /* \"#utility.yul\":10135:10137   */\n      0x19\n        /* \"#utility.yul\":10130:10133   */\n      dup4\n        /* \"#utility.yul\":10071:10138   */\n      tag_78\n      jump\t// in\n    tag_175:\n        /* \"#utility.yul\":10064:10138   */\n      swap2\n      pop\n        /* \"#utility.yul\":10147:10240   */\n      tag_176\n        /* \"#utility.yul\":10236:10239   */\n      dup3\n        /* \"#utility.yul\":10147:10240   */\n      tag_91\n      jump\t// in\n    tag_176:\n        /* \"#utility.yul\":10265:10267   */\n      0x20\n        /* \"#utility.yul\":10260:10263   */\n      dup3\n        /* \"#utility.yul\":10256:10268   */\n      add\n        /* \"#utility.yul\":10249:10268   */\n      swap1\n      pop\n        /* \"#utility.yul\":9908:10274   */\n      swap2\n      swap1\n      pop\n      jump\t// out\n        /* \"#utility.yul\":10280:10699   */\n    tag_59:\n        /* \"#utility.yul\":10446:10450   */\n      0x00\n        /* \"#utility.yul\":10484:10486   */\n      0x20\n        /* \"#utility.yul\":10473:10482   */\n      dup3\n        /* \"#utility.yul\":10469:10487   */\n      add\n        /* \"#utility.yul\":10461:10487   */\n      swap1\n      pop\n        /* \"#utility.yul\":10533:10542   */\n      dup2\n        /* \"#utility.yul\":10527:10531   */\n      dup2\n        /* \"#utility.yul\":10523:10543   */\n      sub\n        /* \"#utility.yul\":10519:10520   */\n      0x00\n        /* \"#utility.yul\":10508:10517   */\n      dup4\n        /* \"#utility.yul\":10504:10521   */\n      add\n        /* \"#utility.yul\":10497:10544   */\n      mstore\n        /* \"#utility.yul\":10561:10692   */\n      tag_178\n        /* \"#utility.yul\":10687:10691   */\n      dup2\n        /* \"#utility.yul\":10561:10692   */\n      tag_92\n      jump\t// in\n    tag_178:\n        /* \"#utility.yul\":10553:10692   */\n      swap1\n      pop\n        /* \"#utility.yul\":10280:10699   */\n      swap2\n      swap1\n      pop\n      jump\t// out\n        /* \"#utility.yul\":10705:10927   */\n    tag_63:\n        /* \"#utility.yul\":10798:10802   */\n      0x00\n        /* \"#utility.yul\":10836:10838   */\n      0x20\n        /* \"#utility.yul\":10825:10834   */\n      dup3\n        /* \"#utility.yul\":10821:10839   */\n      add\n        /* \"#utility.yul\":10813:10839   */\n      swap1\n      pop\n        /* \"#utility.yul\":10849:10920   */\n      tag_180\n        /* \"#utility.yul\":10917:10918   */\n      0x00\n        /* \"#utility.yul\":10906:10915   */\n      dup4\n        /* \"#utility.yul\":10902:10919   */\n      add\n        /* \"#utility.yul\":10893:10899   */\n      dup5\n        /* \"#utility.yul\":10849:10920   */\n      tag_72\n      jump\t// in\n    tag_180:\n        /* \"#utility.yul\":10705:10927   */\n      swap3\n      swap2\n      pop\n      pop\n      jump\t// out\n\n    auxdata: 0xa2646970667358221220ee597297ec33bc902f1b47ddaae965ffe50f1231d13fa2ac41e69dcb189447aa64736f6c63430008180033\n}\n",
				"bytecode": {
					"linkReferences": {},
					"object": "608060405234801561000f575f80fd5b50335f806101000a81548173ffffffffffffffffffffffffffffffffffffffff021916908373ffffffffffffffffffffffffffffffffffffffff160217905550610be38061005c5f395ff3fe608060405260043610610049575f3560e01c80630b961c1f1461004d578063220f8dd41461008b5780635d22e77c146100a75780638da5cb5b146100bd578063b869cea3146100e7575b5f80fd5b348015610058575f80fd5b50610073600480360381019061006e91906106cb565b610125565b60405161008293929190610728565b60405180910390f35b6100a560048036038101906100a09190610787565b610190565b005b3480156100b2575f80fd5b506100bb6103db565b005b3480156100c8575f80fd5b506100d1610618565b6040516100de91906107d4565b60405180910390f35b3480156100f2575f80fd5b5061010d600480360381019061010891906106cb565b61063b565b60405161011c93929190610728565b60405180910390f35b5f805f8060015f8673ffffffffffffffffffffffffffffffffffffffff1673ffffffffffffffffffffffffffffffffffffffff1681526020019081526020015f209050805f01548160010154826002015f9054906101000a900460ff16935093509350509193909250565b5f8054906101000a900473ffffffffffffffffffffffffffffffffffffffff1673ffffffffffffffffffffffffffffffffffffffff163373ffffffffffffffffffffffffffffffffffffffff161461021d576040517f08c379a00000000000000000000000000000000000000000000000000000000081526004016102149061086d565b60405180910390fd5b5f73ffffffffffffffffffffffffffffffffffffffff168273ffffffffffffffffffffffffffffffffffffffff160361028b576040517f08c379a0000000000000000000000000000000000000000000000000000000008152600401610282906108d5565b60405180910390fd5b4281116102cd576040517f08c379a00000000000000000000000000000000000000000000000000000000081526004016102c490610963565b60405180910390fd5b5f60015f8473ffffffffffffffffffffffffffffffffffffffff1673ffffffffffffffffffffffffffffffffffffffff1681526020019081526020015f209050806002015f9054906101000a900460ff161561035e576040517f08c379a0000000000000000000000000000000000000000000000000000000008152600401610355906109f1565b60405180910390fd5b34815f01819055508181600101819055508273ffffffffffffffffffffffffffffffffffffffff163373ffffffffffffffffffffffffffffffffffffffff167f979e1f177e70f0b0a20b22ef64d5eb8d9a11f033004b648d7aa1f4785fe38fa834856040516103ce929190610a0f565b60405180910390a3505050565b338073ffffffffffffffffffffffffffffffffffffffff163373ffffffffffffffffffffffffffffffffffffffff161461044a576040517f08c379a000000000000000000000000000000000000000000000000000000000815260040161044190610aa6565b60405180910390fd5b3360015f8273ffffffffffffffffffffffffffffffffffffffff1673ffffffffffffffffffffffffffffffffffffffff1681526020019081526020015f206002015f9054906101000a900460ff16156104d8576040517f08c379a00000000000000000000000000000000000000000000000000000000081526004016104cf90610b0e565b60405180910390fd5b5f60015f3373ffffffffffffffffffffffffffffffffffffffff1673ffffffffffffffffffffffffffffffffffffffff1681526020019081526020015f209050806001015442101561055f576040517f08c379a000000000000000000000000000000000000000000000000000000000815260040161055690610b76565b60405180910390fd5b6001816002015f6101000a81548160ff0219169083151502179055503373ffffffffffffffffffffffffffffffffffffffff166108fc825f015490811502906040515f60405180830381858888f193505050501580156105c1573d5f803e3d5ffd5b503373ffffffffffffffffffffffffffffffffffffffff167f2aa1d398fac8a867531b04feb1273747a6f1ec3d4700f40a2901dce75363edc0825f015460405161060b9190610b94565b60405180910390a2505050565b5f8054906101000a900473ffffffffffffffffffffffffffffffffffffffff1681565b6001602052805f5260405f205f91509050805f015490806001015490806002015f9054906101000a900460ff16905083565b5f80fd5b5f73ffffffffffffffffffffffffffffffffffffffff82169050919050565b5f61069a82610671565b9050919050565b6106aa81610690565b81146106b4575f80fd5b50565b5f813590506106c5816106a1565b92915050565b5f602082840312156106e0576106df61066d565b5b5f6106ed848285016106b7565b91505092915050565b5f819050919050565b610708816106f6565b82525050565b5f8115159050919050565b6107228161070e565b82525050565b5f60608201905061073b5f8301866106ff565b61074860208301856106ff565b6107556040830184610719565b949350505050565b610766816106f6565b8114610770575f80fd5b50565b5f813590506107818161075d565b92915050565b5f806040838503121561079d5761079c61066d565b5b5f6107aa858286016106b7565b92505060206107bb85828601610773565b9150509250929050565b6107ce81610690565b82525050565b5f6020820190506107e75f8301846107c5565b92915050565b5f82825260208201905092915050565b7f4f6e6c7920746865206f776e65722063616e20706572666f726d2074686973205f8201527f616374696f6e0000000000000000000000000000000000000000000000000000602082015250565b5f6108576026836107ed565b9150610862826107fd565b604082019050919050565b5f6020820190508181035f8301526108848161084b565b9050919050565b7f496e76616c69642062656e6566696369617279206164647265737300000000005f82015250565b5f6108bf601b836107ed565b91506108ca8261088b565b602082019050919050565b5f6020820190508181035f8301526108ec816108b3565b9050919050565b7f556e6c6f636b2074696d65206d75737420626520696e207468652066757475725f8201527f6500000000000000000000000000000000000000000000000000000000000000602082015250565b5f61094d6021836107ed565b9150610958826108f3565b604082019050919050565b5f6020820190508181035f83015261097a81610941565b9050919050565b7f4772616e7420666f7220746869732062656e656669636961727920616c7265615f8201527f6479206578697374730000000000000000000000000000000000000000000000602082015250565b5f6109db6029836107ed565b91506109e682610981565b604082019050919050565b5f6020820190508181035f830152610a08816109cf565b9050919050565b5f604082019050610a225f8301856106ff565b610a2f60208301846106ff565b9392505050565b7f4f6e6c79207468652062656e65666963696172792063616e20706572666f726d5f8201527f207468697320616374696f6e0000000000000000000000000000000000000000602082015250565b5f610a90602c836107ed565b9150610a9b82610a36565b604082019050919050565b5f6020820190508181035f830152610abd81610a84565b9050919050565b7f4772616e742068617320616c7265616479206265656e20636c61696d656400005f82015250565b5f610af8601e836107ed565b9150610b0382610ac4565b602082019050919050565b5f6020820190508181035f830152610b2581610aec565b9050919050565b7f4772616e74206973206e6f742079657420756e6c6f636b6564000000000000005f82015250565b5f610b606019836107ed565b9150610b6b82610b2c565b602082019050919050565b5f6020820190508181035f830152610b8d81610b54565b9050919050565b5f602082019050610ba75f8301846106ff565b9291505056fea2646970667358221220ee597297ec33bc902f1b47ddaae965ffe50f1231d13fa2ac41e69dcb189447aa64736f6c63430008180033",
					"opcodes": "PUSH1 0x80 PUSH1 0x40 MSTORE CALLVALUE DUP1 ISZERO PUSH2 0xF JUMPI PUSH0 DUP1 REVERT JUMPDEST POP CALLER PUSH0 DUP1 PUSH2 0x100 EXP DUP2 SLOAD DUP2 PUSH20 0xFFFFFFFFFFFFFFFFFFFFFFFFFFFFFFFFFFFFFFFF MUL NOT AND SWAP1 DUP4 PUSH20 0xFFFFFFFFFFFFFFFFFFFFFFFFFFFFFFFFFFFFFFFF AND MUL OR SWAP1 SSTORE POP PUSH2 0xBE3 DUP1 PUSH2 0x5C PUSH0 CODECOPY PUSH0 RETURN INVALID PUSH1 0x80 PUSH1 0x40 MSTORE PUSH1 0x4 CALLDATASIZE LT PUSH2 0x49 JUMPI PUSH0 CALLDATALOAD PUSH1 0xE0 SHR DUP1 PUSH4 0xB961C1F EQ PUSH2 0x4D JUMPI DUP1 PUSH4 0x220F8DD4 EQ PUSH2 0x8B JUMPI DUP1 PUSH4 0x5D22E77C EQ PUSH2 0xA7 JUMPI DUP1 PUSH4 0x8DA5CB5B EQ PUSH2 0xBD JUMPI DUP1 PUSH4 0xB869CEA3 EQ PUSH2 0xE7 JUMPI JUMPDEST PUSH0 DUP1 REVERT JUMPDEST CALLVALUE DUP1 ISZERO PUSH2 0x58 JUMPI PUSH0 DUP1 REVERT JUMPDEST POP PUSH2 0x73 PUSH1 0x4 DUP1 CALLDATASIZE SUB DUP2 ADD SWAP1 PUSH2 0x6E SWAP2 SWAP1 PUSH2 0x6CB JUMP JUMPDEST PUSH2 0x125 JUMP JUMPDEST PUSH1 0x40 MLOAD PUSH2 0x82 SWAP4 SWAP3 SWAP2 SWAP1 PUSH2 0x728 JUMP JUMPDEST PUSH1 0x40 MLOAD DUP1 SWAP2 SUB SWAP1 RETURN JUMPDEST PUSH2 0xA5 PUSH1 0x4 DUP1 CALLDATASIZE SUB DUP2 ADD SWAP1 PUSH2 0xA0 SWAP2 SWAP1 PUSH2 0x787 JUMP JUMPDEST PUSH2 0x190 JUMP JUMPDEST STOP JUMPDEST CALLVALUE DUP1 ISZERO PUSH2 0xB2 JUMPI PUSH0 DUP1 REVERT JUMPDEST POP PUSH2 0xBB PUSH2 0x3DB JUMP JUMPDEST STOP JUMPDEST CALLVALUE DUP1 ISZERO PUSH2 0xC8 JUMPI PUSH0 DUP1 REVERT JUMPDEST POP PUSH2 0xD1 PUSH2 0x618 JUMP JUMPDEST PUSH1 0x40 MLOAD PUSH2 0xDE SWAP2 SWAP1 PUSH2 0x7D4 JUMP JUMPDEST PUSH1 0x40 MLOAD DUP1 SWAP2 SUB SWAP1 RETURN JUMPDEST CALLVALUE DUP1 ISZERO PUSH2 0xF2 JUMPI PUSH0 DUP1 REVERT JUMPDEST POP PUSH2 0x10D PUSH1 0x4 DUP1 CALLDATASIZE SUB DUP2 ADD SWAP1 PUSH2 0x108 SWAP2 SWAP1 PUSH2 0x6CB JUMP JUMPDEST PUSH2 0x63B JUMP JUMPDEST PUSH1 0x40 MLOAD PUSH2 0x11C SWAP4 SWAP3 SWAP2 SWAP1 PUSH2 0x728 JUMP JUMPDEST PUSH1 0x40 MLOAD DUP1 SWAP2 SUB SWAP1 RETURN JUMPDEST PUSH0 DUP1 PUSH0 DUP1 PUSH1 0x1 PUSH0 DUP7 PUSH20 0xFFFFFFFFFFFFFFFFFFFFFFFFFFFFFFFFFFFFFFFF AND PUSH20 0xFFFFFFFFFFFFFFFFFFFFFFFFFFFFFFFFFFFFFFFF AND DUP2 MSTORE PUSH1 0x20 ADD SWAP1 DUP2 MSTORE PUSH1 0x20 ADD PUSH0 KECCAK256 SWAP1 POP DUP1 PUSH0 ADD SLOAD DUP2 PUSH1 0x1 ADD SLOAD DUP3 PUSH1 0x2 ADD PUSH0 SWAP1 SLOAD SWAP1 PUSH2 0x100 EXP SWAP1 DIV PUSH1 0xFF AND SWAP4 POP SWAP4 POP SWAP4 POP POP SWAP2 SWAP4 SWAP1 SWAP3 POP JUMP JUMPDEST PUSH0 DUP1 SLOAD SWAP1 PUSH2 0x100 EXP SWAP1 DIV PUSH20 0xFFFFFFFFFFFFFFFFFFFFFFFFFFFFFFFFFFFFFFFF AND PUSH20 0xFFFFFFFFFFFFFFFFFFFFFFFFFFFFFFFFFFFFFFFF AND CALLER PUSH20 0xFFFFFFFFFFFFFFFFFFFFFFFFFFFFFFFFFFFFFFFF AND EQ PUSH2 0x21D JUMPI PUSH1 0x40 MLOAD PUSH32 0x8C379A000000000000000000000000000000000000000000000000000000000 DUP2 MSTORE PUSH1 0x4 ADD PUSH2 0x214 SWAP1 PUSH2 0x86D JUMP JUMPDEST PUSH1 0x40 MLOAD DUP1 SWAP2 SUB SWAP1 REVERT JUMPDEST PUSH0 PUSH20 0xFFFFFFFFFFFFFFFFFFFFFFFFFFFFFFFFFFFFFFFF AND DUP3 PUSH20 0xFFFFFFFFFFFFFFFFFFFFFFFFFFFFFFFFFFFFFFFF AND SUB PUSH2 0x28B JUMPI PUSH1 0x40 MLOAD PUSH32 0x8C379A000000000000000000000000000000000000000000000000000000000 DUP2 MSTORE PUSH1 0x4 ADD PUSH2 0x282 SWAP1 PUSH2 0x8D5 JUMP JUMPDEST PUSH1 0x40 MLOAD DUP1 SWAP2 SUB SWAP1 REVERT JUMPDEST TIMESTAMP DUP2 GT PUSH2 0x2CD JUMPI PUSH1 0x40 MLOAD PUSH32 0x8C379A000000000000000000000000000000000000000000000000000000000 DUP2 MSTORE PUSH1 0x4 ADD PUSH2 0x2C4 SWAP1 PUSH2 0x963 JUMP JUMPDEST PUSH1 0x40 MLOAD DUP1 SWAP2 SUB SWAP1 REVERT JUMPDEST PUSH0 PUSH1 0x1 PUSH0 DUP5 PUSH20 0xFFFFFFFFFFFFFFFFFFFFFFFFFFFFFFFFFFFFFFFF AND PUSH20 0xFFFFFFFFFFFFFFFFFFFFFFFFFFFFFFFFFFFFFFFF AND DUP2 MSTORE PUSH1 0x20 ADD SWAP1 DUP2 MSTORE PUSH1 0x20 ADD PUSH0 KECCAK256 SWAP1 POP DUP1 PUSH1 0x2 ADD PUSH0 SWAP1 SLOAD SWAP1 PUSH2 0x100 EXP SWAP1 DIV PUSH1 0xFF AND ISZERO PUSH2 0x35E JUMPI PUSH1 0x40 MLOAD PUSH32 0x8C379A000000000000000000000000000000000000000000000000000000000 DUP2 MSTORE PUSH1 0x4 ADD PUSH2 0x355 SWAP1 PUSH2 0x9F1 JUMP JUMPDEST PUSH1 0x40 MLOAD DUP1 SWAP2 SUB SWAP1 REVERT JUMPDEST CALLVALUE DUP2 PUSH0 ADD DUP2 SWAP1 SSTORE POP DUP2 DUP2 PUSH1 0x1 ADD DUP2 SWAP1 SSTORE POP DUP3 PUSH20 0xFFFFFFFFFFFFFFFFFFFFFFFFFFFFFFFFFFFFFFFF AND CALLER PUSH20 0xFFFFFFFFFFFFFFFFFFFFFFFFFFFFFFFFFFFFFFFF AND PUSH32 0x979E1F177E70F0B0A20B22EF64D5EB8D9A11F033004B648D7AA1F4785FE38FA8 CALLVALUE DUP6 PUSH1 0x40 MLOAD PUSH2 0x3CE SWAP3 SWAP2 SWAP1 PUSH2 0xA0F JUMP JUMPDEST PUSH1 0x40 MLOAD DUP1 SWAP2 SUB SWAP1 LOG3 POP POP POP JUMP JUMPDEST CALLER DUP1 PUSH20 0xFFFFFFFFFFFFFFFFFFFFFFFFFFFFFFFFFFFFFFFF AND CALLER PUSH20 0xFFFFFFFFFFFFFFFFFFFFFFFFFFFFFFFFFFFFFFFF AND EQ PUSH2 0x44A JUMPI PUSH1 0x40 MLOAD PUSH32 0x8C379A000000000000000000000000000000000000000000000000000000000 DUP2 MSTORE PUSH1 0x4 ADD PUSH2 0x441 SWAP1 PUSH2 0xAA6 JUMP JUMPDEST PUSH1 0x40 MLOAD DUP1 SWAP2 SUB SWAP1 REVERT JUMPDEST CALLER PUSH1 0x1 PUSH0 DUP3 PUSH20 0xFFFFFFFFFFFFFFFFFFFFFFFFFFFFFFFFFFFFFFFF AND PUSH20 0xFFFFFFFFFFFFFFFFFFFFFFFFFFFFFFFFFFFFFFFF AND DUP2 MSTORE PUSH1 0x20 ADD SWAP1 DUP2 MSTORE PUSH1 0x20 ADD PUSH0 KECCAK256 PUSH1 0x2 ADD PUSH0 SWAP1 SLOAD SWAP1 PUSH2 0x100 EXP SWAP1 DIV PUSH1 0xFF AND ISZERO PUSH2 0x4D8 JUMPI PUSH1 0x40 MLOAD PUSH32 0x8C379A000000000000000000000000000000000000000000000000000000000 DUP2 MSTORE PUSH1 0x4 ADD PUSH2 0x4CF SWAP1 PUSH2 0xB0E JUMP JUMPDEST PUSH1 0x40 MLOAD DUP1 SWAP2 SUB SWAP1 REVERT JUMPDEST PUSH0 PUSH1 0x1 PUSH0 CALLER PUSH20 0xFFFFFFFFFFFFFFFFFFFFFFFFFFFFFFFFFFFFFFFF AND PUSH20 0xFFFFFFFFFFFFFFFFFFFFFFFFFFFFFFFFFFFFFFFF AND DUP2 MSTORE PUSH1 0x20 ADD SWAP1 DUP2 MSTORE PUSH1 0x20 ADD PUSH0 KECCAK256 SWAP1 POP DUP1 PUSH1 0x1 ADD SLOAD TIMESTAMP LT ISZERO PUSH2 0x55F JUMPI PUSH1 0x40 MLOAD PUSH32 0x8C379A000000000000000000000000000000000000000000000000000000000 DUP2 MSTORE PUSH1 0x4 ADD PUSH2 0x556 SWAP1 PUSH2 0xB76 JUMP JUMPDEST PUSH1 0x40 MLOAD DUP1 SWAP2 SUB SWAP1 REVERT JUMPDEST PUSH1 0x1 DUP2 PUSH1 0x2 ADD PUSH0 PUSH2 0x100 EXP DUP2 SLOAD DUP2 PUSH1 0xFF MUL NOT AND SWAP1 DUP4 ISZERO ISZERO MUL OR SWAP1 SSTORE POP CALLER PUSH20 0xFFFFFFFFFFFFFFFFFFFFFFFFFFFFFFFFFFFFFFFF AND PUSH2 0x8FC DUP3 PUSH0 ADD SLOAD SWAP1 DUP2 ISZERO MUL SWAP1 PUSH1 0x40 MLOAD PUSH0 PUSH1 0x40 MLOAD DUP1 DUP4 SUB DUP2 DUP6 DUP9 DUP9 CALL SWAP4 POP POP POP POP ISZERO DUP1 ISZERO PUSH2 0x5C1 JUMPI RETURNDATASIZE PUSH0 DUP1 RETURNDATACOPY RETURNDATASIZE PUSH0 REVERT JUMPDEST POP CALLER PUSH20 0xFFFFFFFFFFFFFFFFFFFFFFFFFFFFFFFFFFFFFFFF AND PUSH32 0x2AA1D398FAC8A867531B04FEB1273747A6F1EC3D4700F40A2901DCE75363EDC0 DUP3 PUSH0 ADD SLOAD PUSH1 0x40 MLOAD PUSH2 0x60B SWAP2 SWAP1 PUSH2 0xB94 JUMP JUMPDEST PUSH1 0x40 MLOAD DUP1 SWAP2 SUB SWAP1 LOG2 POP POP POP JUMP JUMPDEST PUSH0 DUP1 SLOAD SWAP1 PUSH2 0x100 EXP SWAP1 DIV PUSH20 0xFFFFFFFFFFFFFFFFFFFFFFFFFFFFFFFFFFFFFFFF AND DUP2 JUMP JUMPDEST PUSH1 0x1 PUSH1 0x20 MSTORE DUP1 PUSH0 MSTORE PUSH1 0x40 PUSH0 KECCAK256 PUSH0 SWAP2 POP SWAP1 POP DUP1 PUSH0 ADD SLOAD SWAP1 DUP1 PUSH1 0x1 ADD SLOAD SWAP1 DUP1 PUSH1 0x2 ADD PUSH0 SWAP1 SLOAD SWAP1 PUSH2 0x100 EXP SWAP1 DIV PUSH1 0xFF AND SWAP1 POP DUP4 JUMP JUMPDEST PUSH0 DUP1 REVERT JUMPDEST PUSH0 PUSH20 0xFFFFFFFFFFFFFFFFFFFFFFFFFFFFFFFFFFFFFFFF DUP3 AND SWAP1 POP SWAP2 SWAP1 POP JUMP JUMPDEST PUSH0 PUSH2 0x69A DUP3 PUSH2 0x671 JUMP JUMPDEST SWAP1 POP SWAP2 SWAP1 POP JUMP JUMPDEST PUSH2 0x6AA DUP2 PUSH2 0x690 JUMP JUMPDEST DUP2 EQ PUSH2 0x6B4 JUMPI PUSH0 DUP1 REVERT JUMPDEST POP JUMP JUMPDEST PUSH0 DUP2 CALLDATALOAD SWAP1 POP PUSH2 0x6C5 DUP2 PUSH2 0x6A1 JUMP JUMPDEST SWAP3 SWAP2 POP POP JUMP JUMPDEST PUSH0 PUSH1 0x20 DUP3 DUP5 SUB SLT ISZERO PUSH2 0x6E0 JUMPI PUSH2 0x6DF PUSH2 0x66D JUMP JUMPDEST JUMPDEST PUSH0 PUSH2 0x6ED DUP5 DUP3 DUP6 ADD PUSH2 0x6B7 JUMP JUMPDEST SWAP2 POP POP SWAP3 SWAP2 POP POP JUMP JUMPDEST PUSH0 DUP2 SWAP1 POP SWAP2 SWAP1 POP JUMP JUMPDEST PUSH2 0x708 DUP2 PUSH2 0x6F6 JUMP JUMPDEST DUP3 MSTORE POP POP JUMP JUMPDEST PUSH0 DUP2 ISZERO ISZERO SWAP1 POP SWAP2 SWAP1 POP JUMP JUMPDEST PUSH2 0x722 DUP2 PUSH2 0x70E JUMP JUMPDEST DUP3 MSTORE POP POP JUMP JUMPDEST PUSH0 PUSH1 0x60 DUP3 ADD SWAP1 POP PUSH2 0x73B PUSH0 DUP4 ADD DUP7 PUSH2 0x6FF JUMP JUMPDEST PUSH2 0x748 PUSH1 0x20 DUP4 ADD DUP6 PUSH2 0x6FF JUMP JUMPDEST PUSH2 0x755 PUSH1 0x40 DUP4 ADD DUP5 PUSH2 0x719 JUMP JUMPDEST SWAP5 SWAP4 POP POP POP POP JUMP JUMPDEST PUSH2 0x766 DUP2 PUSH2 0x6F6 JUMP JUMPDEST DUP2 EQ PUSH2 0x770 JUMPI PUSH0 DUP1 REVERT JUMPDEST POP JUMP JUMPDEST PUSH0 DUP2 CALLDATALOAD SWAP1 POP PUSH2 0x781 DUP2 PUSH2 0x75D JUMP JUMPDEST SWAP3 SWAP2 POP POP JUMP JUMPDEST PUSH0 DUP1 PUSH1 0x40 DUP4 DUP6 SUB SLT ISZERO PUSH2 0x79D JUMPI PUSH2 0x79C PUSH2 0x66D JUMP JUMPDEST JUMPDEST PUSH0 PUSH2 0x7AA DUP6 DUP3 DUP7 ADD PUSH2 0x6B7 JUMP JUMPDEST SWAP3 POP POP PUSH1 0x20 PUSH2 0x7BB DUP6 DUP3 DUP7 ADD PUSH2 0x773 JUMP JUMPDEST SWAP2 POP POP SWAP3 POP SWAP3 SWAP1 POP JUMP JUMPDEST PUSH2 0x7CE DUP2 PUSH2 0x690 JUMP JUMPDEST DUP3 MSTORE POP POP JUMP JUMPDEST PUSH0 PUSH1 0x20 DUP3 ADD SWAP1 POP PUSH2 0x7E7 PUSH0 DUP4 ADD DUP5 PUSH2 0x7C5 JUMP JUMPDEST SWAP3 SWAP2 POP POP JUMP JUMPDEST PUSH0 DUP3 DUP3 MSTORE PUSH1 0x20 DUP3 ADD SWAP1 POP SWAP3 SWAP2 POP POP JUMP JUMPDEST PUSH32 0x4F6E6C7920746865206F776E65722063616E20706572666F726D207468697320 PUSH0 DUP3 ADD MSTORE PUSH32 0x616374696F6E0000000000000000000000000000000000000000000000000000 PUSH1 0x20 DUP3 ADD MSTORE POP JUMP JUMPDEST PUSH0 PUSH2 0x857 PUSH1 0x26 DUP4 PUSH2 0x7ED JUMP JUMPDEST SWAP2 POP PUSH2 0x862 DUP3 PUSH2 0x7FD JUMP JUMPDEST PUSH1 0x40 DUP3 ADD SWAP1 POP SWAP2 SWAP1 POP JUMP JUMPDEST PUSH0 PUSH1 0x20 DUP3 ADD SWAP1 POP DUP2 DUP2 SUB PUSH0 DUP4 ADD MSTORE PUSH2 0x884 DUP2 PUSH2 0x84B JUMP JUMPDEST SWAP1 POP SWAP2 SWAP1 POP JUMP JUMPDEST PUSH32 0x496E76616C69642062656E656669636961727920616464726573730000000000 PUSH0 DUP3 ADD MSTORE POP JUMP JUMPDEST PUSH0 PUSH2 0x8BF PUSH1 0x1B DUP4 PUSH2 0x7ED JUMP JUMPDEST SWAP2 POP PUSH2 0x8CA DUP3 PUSH2 0x88B JUMP JUMPDEST PUSH1 0x20 DUP3 ADD SWAP1 POP SWAP2 SWAP1 POP JUMP JUMPDEST PUSH0 PUSH1 0x20 DUP3 ADD SWAP1 POP DUP2 DUP2 SUB PUSH0 DUP4 ADD MSTORE PUSH2 0x8EC DUP2 PUSH2 0x8B3 JUMP JUMPDEST SWAP1 POP SWAP2 SWAP1 POP JUMP JUMPDEST PUSH32 0x556E6C6F636B2074696D65206D75737420626520696E20746865206675747572 PUSH0 DUP3 ADD MSTORE PUSH32 0x6500000000000000000000000000000000000000000000000000000000000000 PUSH1 0x20 DUP3 ADD MSTORE POP JUMP JUMPDEST PUSH0 PUSH2 0x94D PUSH1 0x21 DUP4 PUSH2 0x7ED JUMP JUMPDEST SWAP2 POP PUSH2 0x958 DUP3 PUSH2 0x8F3 JUMP JUMPDEST PUSH1 0x40 DUP3 ADD SWAP1 POP SWAP2 SWAP1 POP JUMP JUMPDEST PUSH0 PUSH1 0x20 DUP3 ADD SWAP1 POP DUP2 DUP2 SUB PUSH0 DUP4 ADD MSTORE PUSH2 0x97A DUP2 PUSH2 0x941 JUMP JUMPDEST SWAP1 POP SWAP2 SWAP1 POP JUMP JUMPDEST PUSH32 0x4772616E7420666F7220746869732062656E656669636961727920616C726561 PUSH0 DUP3 ADD MSTORE PUSH32 0x6479206578697374730000000000000000000000000000000000000000000000 PUSH1 0x20 DUP3 ADD MSTORE POP JUMP JUMPDEST PUSH0 PUSH2 0x9DB PUSH1 0x29 DUP4 PUSH2 0x7ED JUMP JUMPDEST SWAP2 POP PUSH2 0x9E6 DUP3 PUSH2 0x981 JUMP JUMPDEST PUSH1 0x40 DUP3 ADD SWAP1 POP SWAP2 SWAP1 POP JUMP JUMPDEST PUSH0 PUSH1 0x20 DUP3 ADD SWAP1 POP DUP2 DUP2 SUB PUSH0 DUP4 ADD MSTORE PUSH2 0xA08 DUP2 PUSH2 0x9CF JUMP JUMPDEST SWAP1 POP SWAP2 SWAP1 POP JUMP JUMPDEST PUSH0 PUSH1 0x40 DUP3 ADD SWAP1 POP PUSH2 0xA22 PUSH0 DUP4 ADD DUP6 PUSH2 0x6FF JUMP JUMPDEST PUSH2 0xA2F PUSH1 0x20 DUP4 ADD DUP5 PUSH2 0x6FF JUMP JUMPDEST SWAP4 SWAP3 POP POP POP JUMP JUMPDEST PUSH32 0x4F6E6C79207468652062656E65666963696172792063616E20706572666F726D PUSH0 DUP3 ADD MSTORE PUSH32 0x207468697320616374696F6E0000000000000000000000000000000000000000 PUSH1 0x20 DUP3 ADD MSTORE POP JUMP JUMPDEST PUSH0 PUSH2 0xA90 PUSH1 0x2C DUP4 PUSH2 0x7ED JUMP JUMPDEST SWAP2 POP PUSH2 0xA9B DUP3 PUSH2 0xA36 JUMP JUMPDEST PUSH1 0x40 DUP3 ADD SWAP1 POP SWAP2 SWAP1 POP JUMP JUMPDEST PUSH0 PUSH1 0x20 DUP3 ADD SWAP1 POP DUP2 DUP2 SUB PUSH0 DUP4 ADD MSTORE PUSH2 0xABD DUP2 PUSH2 0xA84 JUMP JUMPDEST SWAP1 POP SWAP2 SWAP1 POP JUMP JUMPDEST PUSH32 0x4772616E742068617320616C7265616479206265656E20636C61696D65640000 PUSH0 DUP3 ADD MSTORE POP JUMP JUMPDEST PUSH0 PUSH2 0xAF8 PUSH1 0x1E DUP4 PUSH2 0x7ED JUMP JUMPDEST SWAP2 POP PUSH2 0xB03 DUP3 PUSH2 0xAC4 JUMP JUMPDEST PUSH1 0x20 DUP3 ADD SWAP1 POP SWAP2 SWAP1 POP JUMP JUMPDEST PUSH0 PUSH1 0x20 DUP3 ADD SWAP1 POP DUP2 DUP2 SUB PUSH0 DUP4 ADD MSTORE PUSH2 0xB25 DUP2 PUSH2 0xAEC JUMP JUMPDEST SWAP1 POP SWAP2 SWAP1 POP JUMP JUMPDEST PUSH32 0x4772616E74206973206E6F742079657420756E6C6F636B656400000000000000 PUSH0 DUP3 ADD MSTORE POP JUMP JUMPDEST PUSH0 PUSH2 0xB60 PUSH1 0x19 DUP4 PUSH2 0x7ED JUMP JUMPDEST SWAP2 POP PUSH2 0xB6B DUP3 PUSH2 0xB2C JUMP JUMPDEST PUSH1 0x20 DUP3 ADD SWAP1 POP SWAP2 SWAP1 POP JUMP JUMPDEST PUSH0 PUSH1 0x20 DUP3 ADD SWAP1 POP DUP2 DUP2 SUB PUSH0 DUP4 ADD MSTORE PUSH2 0xB8D DUP2 PUSH2 0xB54 JUMP JUMPDEST SWAP1 POP SWAP2 SWAP1 POP JUMP JUMPDEST PUSH0 PUSH1 0x20 DUP3 ADD SWAP1 POP PUSH2 0xBA7 PUSH0 DUP4 ADD DUP5 PUSH2 0x6FF JUMP JUMPDEST SWAP3 SWAP2 POP POP JUMP INVALID LOG2 PUSH5 0x6970667358 0x22 SLT KECCAK256 0xEE MSIZE PUSH19 0x97EC33BC902F1B47DDAAE965FFE50F1231D13F LOG2 0xAC COINBASE 0xE6 SWAP14 0xCB XOR SWAP5 SELFBALANCE 0xAA PUSH5 0x736F6C6343 STOP ADDMOD XOR STOP CALLER "
				},
				"gasEstimates": {
					"creation": {
						"codeDepositCost": "608600",
						"executionCost": "24908",
						"totalCost": "633508"
					},
					"external": {
						"claimGrant()": "infinite",
						"getGrantDetails(address)": "infinite",
						"grants(address)": "infinite",
						"offerGrant(address,uint256)": "infinite",
						"owner()": "2549"
					}
				},
				"methodIdentifiers": {
					"claimGrant()": "5d22e77c",
					"getGrantDetails(address)": "0b961c1f",
					"grants(address)": "b869cea3",
					"offerGrant(address,uint256)": "220f8dd4",
					"owner()": "8da5cb5b"
				}
			},
			"storageLayout": {
				"storage": [
					{
						"astId": 3,
						"contract": "cas/artifacts/Grant.sol:Vault",
						"label": "owner",
						"offset": 0,
						"slot": "0",
						"type": "t_address"
					},
					{
						"astId": 8,
						"contract": "cas/artifacts/Grant.sol:Vault",
						"label": "grants",
						"offset": 0,
						"slot": "1",
						"type": "t_mapping(t_address,t_struct(Grant)15_storage)"
					}
				],
				"types": {
					"t_address": {
						"encoding": "inplace",
						"label": "address",
						"numberOfBytes": "20"
					},
					"t_bool": {
						"encoding": "inplace",
						"label": "bool",
						"numberOfBytes": "1"
					},
					"t_mapping(t_address,t_struct(Grant)15_storage)": {
						"encoding": "mapping",
						"key": "t_address",
						"label": "mapping(address => struct Vault.Grant)",
						"numberOfBytes": "32",
						"value": "t_struct(Grant)15_storage"
					},
					"t_struct(Grant)15_storage": {
						"encoding": "inplace",
						"label": "struct Vault.Grant",
						"members": [
							{
								"astId": 10,
								"contract": "cas/artifacts/Grant.sol:Vault",
								"label": "amount",
								"offset": 0,
								"slot": "0",
								"type": "t_uint256"
							},
							{
								"astId": 12,
								"contract": "cas/artifacts/Grant.sol:Vault",
								"label": "unlockTime",
								"offset": 0,
								"slot": "1",
								"type": "t_uint256"
							},
							{
								"astId": 14,
								"contract": "cas/artifacts/Grant.sol:Vault",
								"label": "claimed",
								"offset": 0,
								"slot": "2",
								"type": "t_bool"
							}
						],
						"numberOfBytes": "96"
					},
					"t_uint256": {
						"encoding": "inplace",
						"label": "uint256",
						"numberOfBytes": "32"
					}
				}
			},
			"userdoc": {
				"kind": "user",
				"methods": {},
				"version": 1
			}
		}
	}
}